{
  "contractName": "Candidate",
  "abi": [
    {
      "inputs": [],
      "name": "vote",
      "outputs": [],
      "stateMutability": "nonpayable",
      "type": "function"
    },
    {
      "inputs": [],
      "name": "totalVotes",
      "outputs": [
        {
          "internalType": "uint256",
          "name": "",
          "type": "uint256"
        }
      ],
      "stateMutability": "view",
      "type": "function"
    }
  ],
  "bytecode": "0x60806040526000805534801561001457600080fd5b5060c4806100236000396000f3fe6080604052348015600f57600080fd5b506004361060325760003560e01c80630d15fd77146037578063632a9a5214604c575b600080fd5b60005460405190815260200160405180910390f35b60526054565b005b6000805490806061836068565b9190505550565b600060018201608757634e487b7160e01b600052601160045260246000fd5b506001019056fea26469706673582212200ac6c2c44eb990c3046d6de9fd4587861010bf91a1972bccb41914ffee5a1f8c64736f6c63430008110033",
  "immutableReferences": {},
  "source": "// SPDX-Licence-Identifier: UNLICENSED\npragma solidity ^0.8.0;\n\ncontract Candidate {\n    uint internal voteCount = 0;\n\n    function vote() public {\n        voteCount++;\n    }\n\n    function totalVotes() public view returns (uint) {\n        return voteCount;\n    }\n}\n\ncontract ConsejoAcademico is Candidate {\n    string public name;\n    uint public id;\n    string public carrera;\n\n    constructor(string memory _name, uint _id ,string memory _carrera) Candidate() {\n        name = _name;\n        id = _id;\n        carrera = _carrera;\n    }\n}\n\ncontract CandidatoFCE is Candidate {\n    string public agrupacion;\n    string public siglas;\n\n    constructor(string memory _agrupacion, string memory _siglas) Candidate() {\n        agrupacion = _agrupacion;\n        siglas = _siglas;\n    }\n}\n\ncontract JuntaDirectivaFCE is CandidatoFCE {\n    string public seccion;\n\n    constructor(string memory _agrupacion, string memory _siglas) CandidatoFCE(_agrupacion, _siglas) {\n        seccion = \"Junta Directiva\";\n    }\n}\n\ncontract CoordinacionFCE is CandidatoFCE {\n    string public seccion;\n\n    constructor(string memory _agrupacion, string memory _siglas) CandidatoFCE(_agrupacion, _siglas) {\n        seccion = \"Coordinacion\";\n    }\n}\n\n\ncontract CentroEstudiantes is Candidate {\n    string public nombre;\n    string public siglas;\n    string public escuela;\n\n    constructor(string memory _nombre, string memory _siglas, string memory _escuela) Candidate() {\n        nombre = _nombre;\n        siglas = _siglas;\n        escuela = _escuela;\n    }\n}\n\ncontract ConsejoEscuela is Candidate {\n    string public nombre;\n    string public siglas;\n    string public escuela;\n\n    constructor(string memory _nombre, string memory _siglas, string memory _escuela) Candidate() {\n        nombre = _nombre;\n        siglas = _siglas;\n        escuela = _escuela;\n    }\n}\n\ncontract ConsejoFacultad is Candidate {\n    string public nombre;\n    string public siglas;\n    string public facultad;\n\n    constructor(string memory _nombre, string memory _siglas, string memory _facultad) Candidate() {\n        nombre = _nombre;\n        siglas = _siglas;\n        facultad = _facultad;\n    }\n}\n\n// contract CandidateList {\n//     address public owner;\n    \n//     mapping (uint => mapping (address => ConsejoAcademico)) public candidatosConsejoAcademico;\n//     mapping (string => mapping (address => CandidatoFCE)) public candidatosFCE;\n//     mapping (string => mapping (address => CentroEstudiantes)) public candidatosCentroEstudiantes;\n//     mapping (string => mapping (address => ConsejoEscuela)) public candidatosConsejoEscuela;\n//     mapping (string => mapping (address => ConsejoFacultad)) public candidatosConsejoFacultad;\n\n//     constructor () {\n//         owner = msg.sender;\n//     }\n//     // address[] public candidatosConsejoAcademicoAccts;\n//     // address[] public candidatosFCEAccts;\n//     // address[] public candidatosCentroEstudiantesAccts;\n//     // address[] public candidatosConsejoEscuelaAccts;\n//     // address[] public candidatosConsejoFacultadAccts;\n\n//     function addCandidateConsejoAcademico(string memory _name, uint _id, string memory _carrera) public {\n//         ConsejoAcademico candidate = new ConsejoAcademico(_name, _id, _carrera);\n//         candidatosConsejoAcademico[_id][msg.sender] = candidate;\n//     }\n\n//     function addCandidateFCE(string memory _agrupacion, uint _siglas, string memory _seccion) public {\n//         CandidatoFCE candidate = new CandidatoFCE(_agrupacion, _siglas);\n//         candidatosFCE[_seccion][msg.sender] = candidate;\n//     }\n\n//     function addCandidateCentroEstudiantes(string memory _nombre, string memory _siglas, string memory _escuela) public {\n//         CentroEstudiantes candidate = new CentroEstudiantes(_nombre, _siglas, _escuela);\n//         candidatosCentroEstudiantes[_escuela][msg.sender] = candidate;\n//     }\n\n//     function addCandidateConsejoEscuela(string memory _nombre, string memory _siglas, string memory _escuela) public {\n//         ConsejoEscuela candidate = new ConsejoEscuela(_nombre, _siglas, _escuela);\n//         candidatosConsejoEscuela[_escuela][msg.sender] = candidate;\n//     }\n\n//     function addCandidateConsejoFacultad(string memory _nombre, string memory _siglas, string memory _facultad) public {\n//         ConsejoFacultad candidate = new ConsejoFacultad(_nombre, _siglas, _facultad);\n//         candidatosConsejoFacultad[_facultad][msg.sender] = candidate;\n//     }\n\n// }\n\n",
  "sourcePath": "/Users/abert/Desktop/chainge_voting_dapp/smart_contract/contracts/Candidate.sol",
  "compiler": {
    "name": "solc",
    "version": "0.8.17+commit.8df45f5f.Emscripten.clang"
  },
  "schemaVersion": "3.4.10",
  "updatedAt": "2022-11-16T12:13:54.519Z",
  "devdoc": {
    "kind": "dev",
    "methods": {},
    "version": 1
  },
  "userdoc": {
    "kind": "user",
    "methods": {},
    "version": 1
  }
}