{
  "contractName": "Candidate",
  "abi": [
    {
      "inputs": [],
      "name": "vote",
      "outputs": [],
      "stateMutability": "nonpayable",
      "type": "function"
    },
    {
      "inputs": [],
      "name": "totalVotes",
      "outputs": [
        {
          "internalType": "uint256",
          "name": "",
          "type": "uint256"
        }
      ],
      "stateMutability": "view",
      "type": "function"
    }
  ],
  "bytecode": "0x60806040526000805534801561001457600080fd5b5060c4806100236000396000f3fe6080604052348015600f57600080fd5b506004361060325760003560e01c80630d15fd77146037578063632a9a5214604c575b600080fd5b60005460405190815260200160405180910390f35b60526054565b005b6000805490806061836068565b9190505550565b600060018201608757634e487b7160e01b600052601160045260246000fd5b506001019056fea26469706673582212201dbf9bee28719a42bd2c4c18cc2ec45a783981ff64fa71bc96bc3246e352279c64736f6c63430008110033",
  "immutableReferences": {},
  "source": "// SPDX-Licence-Identifier: UNLICENSED\r\npragma solidity ^0.8.0;\r\n\r\ncontract Candidate {\r\n    uint internal voteCount = 0;\r\n\r\n    function vote() public {\r\n        voteCount++;\r\n    }\r\n\r\n    function totalVotes() public view returns (uint) {\r\n        return voteCount;\r\n    }\r\n}\r\n\r\ncontract ConsejoAcademico is Candidate {\r\n    string public name;\r\n    uint public id;\r\n    string public carrera;\r\n\r\n    constructor(string memory _name, uint _id ,string memory _carrera) Candidate() {\r\n        name = _name;\r\n        id = _id;\r\n        carrera = _carrera;\r\n    }\r\n}\r\n\r\ncontract CandidatoFCE is Candidate {\r\n    string public agrupacion;\r\n    string public siglas;\r\n\r\n    constructor(string memory _agrupacion, string memory _siglas) Candidate() {\r\n        agrupacion = _agrupacion;\r\n        siglas = _siglas;\r\n    }\r\n}\r\n\r\ncontract JuntaDirectivaFCE is CandidatoFCE {\r\n    string public seccion;\r\n\r\n    constructor(string memory _agrupacion, string memory _siglas) CandidatoFCE(_agrupacion, _siglas) {\r\n        seccion = \"Junta Directiva\";\r\n    }\r\n}\r\n\r\ncontract CoordinacionFCE is CandidatoFCE {\r\n    string public seccion;\r\n\r\n    constructor(string memory _agrupacion, string memory _siglas) CandidatoFCE(_agrupacion, _siglas) {\r\n        seccion = \"Coordinacion\";\r\n    }\r\n}\r\n\r\n\r\ncontract CentroEstudiantes is Candidate {\r\n    string public nombre;\r\n    string public siglas;\r\n    string public escuela;\r\n\r\n    constructor(string memory _nombre, string memory _siglas, string memory _escuela) Candidate() {\r\n        nombre = _nombre;\r\n        siglas = _siglas;\r\n        escuela = _escuela;\r\n    }\r\n}\r\n\r\ncontract ConsejoEscuela is Candidate {\r\n    string public nombre;\r\n    string public siglas;\r\n    string public escuela;\r\n\r\n    constructor(string memory _nombre, string memory _siglas, string memory _escuela) Candidate() {\r\n        nombre = _nombre;\r\n        siglas = _siglas;\r\n        escuela = _escuela;\r\n    }\r\n}\r\n\r\ncontract ConsejoFacultad is Candidate {\r\n    string public nombre;\r\n    string public siglas;\r\n    string public facultad;\r\n\r\n    constructor(string memory _nombre, string memory _siglas, string memory _facultad) Candidate() {\r\n        nombre = _nombre;\r\n        siglas = _siglas;\r\n        facultad = _facultad;\r\n    }\r\n}\r\n\r\n// contract CandidateList {\r\n//     address public owner;\r\n    \r\n//     mapping (uint => mapping (address => ConsejoAcademico)) public candidatosConsejoAcademico;\r\n//     mapping (string => mapping (address => CandidatoFCE)) public candidatosFCE;\r\n//     mapping (string => mapping (address => CentroEstudiantes)) public candidatosCentroEstudiantes;\r\n//     mapping (string => mapping (address => ConsejoEscuela)) public candidatosConsejoEscuela;\r\n//     mapping (string => mapping (address => ConsejoFacultad)) public candidatosConsejoFacultad;\r\n\r\n//     constructor () {\r\n//         owner = msg.sender;\r\n//     }\r\n//     // address[] public candidatosConsejoAcademicoAccts;\r\n//     // address[] public candidatosFCEAccts;\r\n//     // address[] public candidatosCentroEstudiantesAccts;\r\n//     // address[] public candidatosConsejoEscuelaAccts;\r\n//     // address[] public candidatosConsejoFacultadAccts;\r\n\r\n//     function addCandidateConsejoAcademico(string memory _name, uint _id, string memory _carrera) public {\r\n//         ConsejoAcademico candidate = new ConsejoAcademico(_name, _id, _carrera);\r\n//         candidatosConsejoAcademico[_id][msg.sender] = candidate;\r\n//     }\r\n\r\n//     function addCandidateFCE(string memory _agrupacion, uint _siglas, string memory _seccion) public {\r\n//         CandidatoFCE candidate = new CandidatoFCE(_agrupacion, _siglas);\r\n//         candidatosFCE[_seccion][msg.sender] = candidate;\r\n//     }\r\n\r\n//     function addCandidateCentroEstudiantes(string memory _nombre, string memory _siglas, string memory _escuela) public {\r\n//         CentroEstudiantes candidate = new CentroEstudiantes(_nombre, _siglas, _escuela);\r\n//         candidatosCentroEstudiantes[_escuela][msg.sender] = candidate;\r\n//     }\r\n\r\n//     function addCandidateConsejoEscuela(string memory _nombre, string memory _siglas, string memory _escuela) public {\r\n//         ConsejoEscuela candidate = new ConsejoEscuela(_nombre, _siglas, _escuela);\r\n//         candidatosConsejoEscuela[_escuela][msg.sender] = candidate;\r\n//     }\r\n\r\n//     function addCandidateConsejoFacultad(string memory _nombre, string memory _siglas, string memory _facultad) public {\r\n//         ConsejoFacultad candidate = new ConsejoFacultad(_nombre, _siglas, _facultad);\r\n//         candidatosConsejoFacultad[_facultad][msg.sender] = candidate;\r\n//     }\r\n\r\n// }\r\n\r\n",
  "sourcePath": "D:\\Windows Folders\\Documents\\Uni\\Software\\voting-dapp\\smart_contract\\contracts\\Candidate.sol",
  "compiler": {
    "name": "solc",
    "version": "0.8.17+commit.8df45f5f.Emscripten.clang"
  },
  "schemaVersion": "3.4.10",
  "updatedAt": "2022-11-21T17:18:24.047Z",
  "devdoc": {
    "kind": "dev",
    "methods": {},
    "version": 1
  },
  "userdoc": {
    "kind": "user",
    "methods": {},
    "version": 1
  }
}