{
  "contractName": "CandidateList",
  "abi": [
    {
      "inputs": [],
      "stateMutability": "nonpayable",
      "type": "constructor"
    },
    {
      "inputs": [
        {
          "internalType": "string",
          "name": "",
          "type": "string"
        },
        {
          "internalType": "string",
          "name": "",
          "type": "string"
        }
      ],
      "name": "candidatosCentroEstudiantes",
      "outputs": [
        {
          "internalType": "contract CentroEstudiantes",
          "name": "",
          "type": "address"
        }
      ],
      "stateMutability": "view",
      "type": "function"
    },
    {
      "inputs": [
        {
          "internalType": "uint256",
          "name": "",
          "type": "uint256"
        }
      ],
      "name": "candidatosConsejoAcademico",
      "outputs": [
        {
          "internalType": "contract ConsejoAcademico",
          "name": "",
          "type": "address"
        }
      ],
      "stateMutability": "view",
      "type": "function"
    },
    {
      "inputs": [
        {
          "internalType": "string",
          "name": "",
          "type": "string"
        },
        {
          "internalType": "string",
          "name": "",
          "type": "string"
        }
      ],
      "name": "candidatosConsejoEscuela",
      "outputs": [
        {
          "internalType": "contract ConsejoEscuela",
          "name": "",
          "type": "address"
        }
      ],
      "stateMutability": "view",
      "type": "function"
    },
    {
      "inputs": [
        {
          "internalType": "string",
          "name": "",
          "type": "string"
        },
        {
          "internalType": "string",
          "name": "",
          "type": "string"
        }
      ],
      "name": "candidatosConsejoFacultad",
      "outputs": [
        {
          "internalType": "contract ConsejoFacultad",
          "name": "",
          "type": "address"
        }
      ],
      "stateMutability": "view",
      "type": "function"
    },
    {
      "inputs": [
        {
          "internalType": "string",
          "name": "",
          "type": "string"
        }
      ],
      "name": "candidatosCoordinacionFCE",
      "outputs": [
        {
          "internalType": "contract CoordinacionFCE",
          "name": "",
          "type": "address"
        }
      ],
      "stateMutability": "view",
      "type": "function"
    },
    {
      "inputs": [
        {
          "internalType": "string",
          "name": "",
          "type": "string"
        }
      ],
      "name": "candidatosJuntaFCE",
      "outputs": [
        {
          "internalType": "contract JuntaDirectivaFCE",
          "name": "",
          "type": "address"
        }
      ],
      "stateMutability": "view",
      "type": "function"
    },
    {
      "inputs": [],
      "name": "owner",
      "outputs": [
        {
          "internalType": "address",
          "name": "",
          "type": "address"
        }
      ],
      "stateMutability": "view",
      "type": "function"
    },
    {
      "inputs": [
        {
          "internalType": "string",
          "name": "_name",
          "type": "string"
        },
        {
          "internalType": "uint256",
          "name": "_id",
          "type": "uint256"
        },
        {
          "internalType": "string",
          "name": "_carrera",
          "type": "string"
        }
      ],
      "name": "addCandidateConsejoAcademico",
      "outputs": [],
      "stateMutability": "nonpayable",
      "type": "function"
    },
    {
      "inputs": [
        {
          "internalType": "uint256",
          "name": "_id",
          "type": "uint256"
        }
      ],
      "name": "getCandidateConsejoAcademico",
      "outputs": [
        {
          "internalType": "string",
          "name": "",
          "type": "string"
        },
        {
          "internalType": "uint256",
          "name": "",
          "type": "uint256"
        },
        {
          "internalType": "string",
          "name": "",
          "type": "string"
        },
        {
          "internalType": "uint256",
          "name": "",
          "type": "uint256"
        }
      ],
      "stateMutability": "view",
      "type": "function"
    },
    {
      "inputs": [
        {
          "internalType": "uint256",
          "name": "_id",
          "type": "uint256"
        }
      ],
      "name": "voteConsejoAcademico",
      "outputs": [],
      "stateMutability": "nonpayable",
      "type": "function"
    },
    {
      "inputs": [
        {
          "internalType": "string",
          "name": "_agrupacion",
          "type": "string"
        },
        {
          "internalType": "string",
          "name": "_siglas",
          "type": "string"
        }
      ],
      "name": "addCandidateJuntaDirectivaFCE",
      "outputs": [],
      "stateMutability": "nonpayable",
      "type": "function"
    },
    {
      "inputs": [
        {
          "internalType": "string",
          "name": "_siglas",
          "type": "string"
        }
      ],
      "name": "getCandidateJuntaDirectivaFCE",
      "outputs": [
        {
          "internalType": "string",
          "name": "",
          "type": "string"
        },
        {
          "internalType": "string",
          "name": "",
          "type": "string"
        },
        {
          "internalType": "uint256",
          "name": "",
          "type": "uint256"
        }
      ],
      "stateMutability": "view",
      "type": "function"
    },
    {
      "inputs": [
        {
          "internalType": "string",
          "name": "_siglas",
          "type": "string"
        }
      ],
      "name": "voteJuntaDirectivaFCE",
      "outputs": [],
      "stateMutability": "nonpayable",
      "type": "function"
    },
    {
      "inputs": [
        {
          "internalType": "string",
          "name": "_agrupacion",
          "type": "string"
        },
        {
          "internalType": "string",
          "name": "_siglas",
          "type": "string"
        }
      ],
      "name": "addCandidateCoordinacionFCE",
      "outputs": [],
      "stateMutability": "nonpayable",
      "type": "function"
    },
    {
      "inputs": [
        {
          "internalType": "string",
          "name": "_siglas",
          "type": "string"
        }
      ],
      "name": "getCandidateCoordinacionFCE",
      "outputs": [
        {
          "internalType": "string",
          "name": "",
          "type": "string"
        },
        {
          "internalType": "string",
          "name": "",
          "type": "string"
        },
        {
          "internalType": "uint256",
          "name": "",
          "type": "uint256"
        }
      ],
      "stateMutability": "view",
      "type": "function"
    },
    {
      "inputs": [
        {
          "internalType": "string",
          "name": "_siglas",
          "type": "string"
        }
      ],
      "name": "voteCoordinacionFCE",
      "outputs": [],
      "stateMutability": "nonpayable",
      "type": "function"
    },
    {
      "inputs": [
        {
          "internalType": "string",
          "name": "_nombre",
          "type": "string"
        },
        {
          "internalType": "string",
          "name": "_siglas",
          "type": "string"
        },
        {
          "internalType": "string",
          "name": "_escuela",
          "type": "string"
        }
      ],
      "name": "addCandidateCentroEstudiantes",
      "outputs": [],
      "stateMutability": "nonpayable",
      "type": "function"
    },
    {
      "inputs": [
        {
          "internalType": "string",
          "name": "_escuela",
          "type": "string"
        },
        {
          "internalType": "string",
          "name": "_siglas",
          "type": "string"
        }
      ],
      "name": "getCandidateCentroEstudiantes",
      "outputs": [
        {
          "internalType": "string",
          "name": "",
          "type": "string"
        },
        {
          "internalType": "string",
          "name": "",
          "type": "string"
        },
        {
          "internalType": "string",
          "name": "",
          "type": "string"
        },
        {
          "internalType": "uint256",
          "name": "",
          "type": "uint256"
        }
      ],
      "stateMutability": "view",
      "type": "function"
    },
    {
      "inputs": [
        {
          "internalType": "string",
          "name": "_escuela",
          "type": "string"
        },
        {
          "internalType": "string",
          "name": "_siglas",
          "type": "string"
        }
      ],
      "name": "voteCentroEstudiantes",
      "outputs": [],
      "stateMutability": "nonpayable",
      "type": "function"
    },
    {
      "inputs": [
        {
          "internalType": "string",
          "name": "_nombre",
          "type": "string"
        },
        {
          "internalType": "string",
          "name": "_siglas",
          "type": "string"
        },
        {
          "internalType": "string",
          "name": "_escuela",
          "type": "string"
        }
      ],
      "name": "addCandidateConsejoEscuela",
      "outputs": [],
      "stateMutability": "nonpayable",
      "type": "function"
    },
    {
      "inputs": [
        {
          "internalType": "string",
          "name": "_escuela",
          "type": "string"
        },
        {
          "internalType": "string",
          "name": "_siglas",
          "type": "string"
        }
      ],
      "name": "getCandidateConsejoEscuela",
      "outputs": [
        {
          "internalType": "string",
          "name": "",
          "type": "string"
        },
        {
          "internalType": "string",
          "name": "",
          "type": "string"
        },
        {
          "internalType": "string",
          "name": "",
          "type": "string"
        },
        {
          "internalType": "uint256",
          "name": "",
          "type": "uint256"
        }
      ],
      "stateMutability": "view",
      "type": "function"
    },
    {
      "inputs": [
        {
          "internalType": "string",
          "name": "_escuela",
          "type": "string"
        },
        {
          "internalType": "string",
          "name": "_siglas",
          "type": "string"
        }
      ],
      "name": "voteConsejoEscuela",
      "outputs": [],
      "stateMutability": "nonpayable",
      "type": "function"
    },
    {
      "inputs": [
        {
          "internalType": "string",
          "name": "_nombre",
          "type": "string"
        },
        {
          "internalType": "string",
          "name": "_siglas",
          "type": "string"
        },
        {
          "internalType": "string",
          "name": "_facultad",
          "type": "string"
        }
      ],
      "name": "addCandidateConsejoFacultad",
      "outputs": [],
      "stateMutability": "nonpayable",
      "type": "function"
    },
    {
      "inputs": [
        {
          "internalType": "string",
          "name": "_facultad",
          "type": "string"
        },
        {
          "internalType": "string",
          "name": "_siglas",
          "type": "string"
        }
      ],
      "name": "getCandidateConsejoFacultad",
      "outputs": [
        {
          "internalType": "string",
          "name": "",
          "type": "string"
        },
        {
          "internalType": "string",
          "name": "",
          "type": "string"
        },
        {
          "internalType": "string",
          "name": "",
          "type": "string"
        },
        {
          "internalType": "uint256",
          "name": "",
          "type": "uint256"
        }
      ],
      "stateMutability": "view",
      "type": "function"
    },
    {
      "inputs": [
        {
          "internalType": "string",
          "name": "_facultad",
          "type": "string"
        },
        {
          "internalType": "string",
          "name": "_siglas",
          "type": "string"
        }
      ],
      "name": "voteConsejoFacultad",
      "outputs": [],
      "stateMutability": "nonpayable",
      "type": "function"
    }
  ],
  "bytecode": "0x608060405234801561001057600080fd5b50600080546001600160a01b03191633179055613a3b806100326000396000f3fe60806040523480156200001157600080fd5b5060043610620001925760003560e01c8063829f00fb11620000f0578063b9d4664f11620000a3578063e3c1c676116200007a578063e3c1c67614620004b0578063e47c59f114620004d9578063eaa8411e14620004f0578063f01595bb146200051c57600080fd5b8063b9d4664f146200042e578063d00616851462000445578063e24fec81146200045c57600080fd5b8063829f00fb146200034a5780638554ed86146200039e5780638a7acd9f14620003b55780638da5cb5b14620003ec5780638dc6461f1462000400578063b21f103c146200041757600080fd5b806341f7bd85116200014957806341f7bd8514620002a05780634b89420c14620002b75780634ebd8b1c14620002ee578063569f249e146200030557806357ffbd59146200031c5780636c867054146200033357600080fd5b80631066035c1462000197578063150ce54d146200020857806319627651146200022157806337b4f428146200024a5780633a46ca9314620002725780633f2c4ed41462000289575b600080fd5b620001eb620001a836600462001692565b815160208184018101805160068252928201948201949094209190935281518083018401805192815290840192909301919091209152546001600160a01b031681565b6040516001600160a01b0390911681526020015b60405180910390f35b6200021f62000219366004620016fd565b62000533565b005b620002386200023236600462001692565b620005da565b604051620001ff9493929190620017e3565b620002616200025b36600462001834565b620008a1565b604051620001ff9392919062001875565b620002386200028336600462001692565b62000a5b565b6200021f6200029a366004620018af565b62000c7e565b6200021f620002b136600462001692565b62000cef565b620001eb620002c836600462001834565b80516020818301810180516003825292820191909301209152546001600160a01b031681565b6200021f620002ff36600462001834565b62000d8c565b6200021f620003163660046200190a565b62000e0a565b6200021f6200032d366004620016fd565b62000e57565b620002386200034436600462001692565b62000eab565b620001eb6200035b36600462001692565b815160208184018101805160058252928201948201949094209190935281518083018401805192815290840192909301919091209152546001600160a01b031681565b6200021f620003af36600462001834565b620010ce565b620001eb620003c636600462001834565b80516020818301810180516002825292820191909301209152546001600160a01b031681565b600054620001eb906001600160a01b031681565b6200021f6200041136600462001692565b620010e0565b620002616200042836600462001834565b620010f2565b6200021f6200043f36600462001692565b62001229565b6200021f62000456366004620016fd565b6200123b565b620001eb6200046d36600462001692565b815160208184018101805160048252928201948201949094209190935281518083018401805192815290840192909301919091209152546001600160a01b031681565b620004c7620004c13660046200190a565b6200128f565b604051620001ff949392919062001924565b6200021f620004ea36600462001692565b62001495565b620001eb620005013660046200190a565b6001602052600090815260409020546001600160a01b031681565b6200021f6200052d36600462001692565b6200151b565b600083838360405162000546906200156d565b620005549392919062001953565b604051809103906000f08015801562000571573d6000803e3d6000fd5b509050806004836040516200058791906200199c565b908152602001604051809103902084604051620005a591906200199c565b90815260405190819003602001902080546001600160a01b03929092166001600160a01b031990921691909117905550505050565b60608060606000600686604051620005f391906200199c565b9081526020016040518091039020856040516200061191906200199c565b9081526040805191829003602001822054635e3d9ad960e11b835290516001600160a01b039091169163bc7b35b29160048083019260009291908290030181865afa15801562000665573d6000803e3d6000fd5b505050506040513d6000823e601f3d908101601f191682016040526200068f9190810190620019ba565b600687604051620006a191906200199c565b908152602001604051809103902086604051620006bf91906200199c565b908152604080519182900360200182205463675892ad60e01b835290516001600160a01b039091169163675892ad9160048083019260009291908290030181865afa15801562000713573d6000803e3d6000fd5b505050506040513d6000823e601f3d908101601f191682016040526200073d9190810190620019ba565b6006886040516200074f91906200199c565b9081526020016040518091039020876040516200076d91906200199c565b908152604080519182900360200182205463148213bb60e01b835290516001600160a01b039091169163148213bb9160048083019260009291908290030181865afa158015620007c1573d6000803e3d6000fd5b505050506040513d6000823e601f3d908101601f19168201604052620007eb9190810190620019ba565b600689604051620007fd91906200199c565b9081526020016040518091039020886040516200081b91906200199c565b908152604080516020928190038301812054630d15fd7760e01b825291516001600160a01b0390921692630d15fd77926004808401938290030181865afa1580156200086b573d6000803e3d6000fd5b505050506040513d601f19601f8201168201806040525081019062000891919062001a3a565b9299919850965090945092505050565b6060806000600384604051620008b891906200199c565b90815260408051918290036020018220546388305c2360e01b835290516001600160a01b03909116916388305c239160048083019260009291908290030181865afa1580156200090c573d6000803e3d6000fd5b505050506040513d6000823e601f3d908101601f19168201604052620009369190810190620019ba565b6003856040516200094891906200199c565b908152604080519182900360200182205463675892ad60e01b835290516001600160a01b039091169163675892ad9160048083019260009291908290030181865afa1580156200099c573d6000803e3d6000fd5b505050506040513d6000823e601f3d908101601f19168201604052620009c69190810190620019ba565b600386604051620009d891906200199c565b908152604080516020928190038301812054630d15fd7760e01b825291516001600160a01b0390921692630d15fd77926004808401938290030181865afa15801562000a28573d6000803e3d6000fd5b505050506040513d601f19601f8201168201806040525081019062000a4e919062001a3a565b9250925092509193909250565b6060806060600060048660405162000a7491906200199c565b90815260200160405180910390208560405162000a9291906200199c565b9081526040805191829003602001822054635e3d9ad960e11b835290516001600160a01b039091169163bc7b35b29160048083019260009291908290030181865afa15801562000ae6573d6000803e3d6000fd5b505050506040513d6000823e601f3d908101601f1916820160405262000b109190810190620019ba565b60048760405162000b2291906200199c565b90815260200160405180910390208660405162000b4091906200199c565b908152604080519182900360200182205463675892ad60e01b835290516001600160a01b039091169163675892ad9160048083019260009291908290030181865afa15801562000b94573d6000803e3d6000fd5b505050506040513d6000823e601f3d908101601f1916820160405262000bbe9190810190620019ba565b60048860405162000bd091906200199c565b90815260200160405180910390208760405162000bee91906200199c565b9081526040805191829003602001822054634c22e9a560e11b835290516001600160a01b0390911691639845d34a9160048083019260009291908290030181865afa15801562000c42573d6000803e3d6000fd5b505050506040513d6000823e601f3d908101601f1916820160405262000c6c9190810190620019ba565b600489604051620007fd91906200199c565b600083838360405162000c91906200157b565b62000c9f9392919062001a54565b604051809103906000f08015801562000cbc573d6000803e3d6000fd5b5060009384526001602052604090932080546001600160a01b0319166001600160a01b0390941693909317909255505050565b60068260405162000d0191906200199c565b90815260200160405180910390208160405162000d1f91906200199c565b90815260408051918290036020018220546331954d2960e11b835290516001600160a01b039091169163632a9a5291600480830192600092919082900301818387803b15801562000d6f57600080fd5b505af115801562000d84573d6000803e3d6000fd5b505050505050565b60038160405162000d9e91906200199c565b90815260408051918290036020018220546331954d2960e11b835290516001600160a01b039091169163632a9a5291600480830192600092919082900301818387803b15801562000dee57600080fd5b505af115801562000e03573d6000803e3d6000fd5b5050505050565b6000818152600160205260408082205481516331954d2960e11b815291516001600160a01b039091169263632a9a52926004808201939182900301818387803b15801562000dee57600080fd5b600083838360405162000e6a9062001589565b62000e789392919062001953565b604051809103906000f08015801562000e95573d6000803e3d6000fd5b509050806006836040516200058791906200199c565b6060806060600060058660405162000ec491906200199c565b90815260200160405180910390208560405162000ee291906200199c565b9081526040805191829003602001822054635e3d9ad960e11b835290516001600160a01b039091169163bc7b35b29160048083019260009291908290030181865afa15801562000f36573d6000803e3d6000fd5b505050506040513d6000823e601f3d908101601f1916820160405262000f609190810190620019ba565b60058760405162000f7291906200199c565b90815260200160405180910390208660405162000f9091906200199c565b908152604080519182900360200182205463675892ad60e01b835290516001600160a01b039091169163675892ad9160048083019260009291908290030181865afa15801562000fe4573d6000803e3d6000fd5b505050506040513d6000823e601f3d908101601f191682016040526200100e9190810190620019ba565b6005886040516200102091906200199c565b9081526020016040518091039020876040516200103e91906200199c565b9081526040805191829003602001822054634c22e9a560e11b835290516001600160a01b0390911691639845d34a9160048083019260009291908290030181865afa15801562001092573d6000803e3d6000fd5b505050506040513d6000823e601f3d908101601f19168201604052620010bc9190810190620019ba565b600589604051620007fd91906200199c565b60028160405162000d9e91906200199c565b60048260405162000d0191906200199c565b60608060006002846040516200110991906200199c565b90815260408051918290036020018220546388305c2360e01b835290516001600160a01b03909116916388305c239160048083019260009291908290030181865afa1580156200115d573d6000803e3d6000fd5b505050506040513d6000823e601f3d908101601f19168201604052620011879190810190620019ba565b6002856040516200119991906200199c565b908152604080519182900360200182205463675892ad60e01b835290516001600160a01b039091169163675892ad9160048083019260009291908290030181865afa158015620011ed573d6000803e3d6000fd5b505050506040513d6000823e601f3d908101601f19168201604052620012179190810190620019ba565b600286604051620009d891906200199c565b60058260405162000d0191906200199c565b60008383836040516200124e9062001597565b6200125c9392919062001953565b604051809103906000f08015801562001279573d6000803e3d6000fd5b509050806005836040516200058791906200199c565b6000818152600160205260408082205481516306fdde0360e01b8152915160609392849284926001600160a01b03909116916306fdde0391600480830192869291908290030181865afa158015620012eb573d6000803e3d6000fd5b505050506040513d6000823e601f3d908101601f19168201604052620013159190810190620019ba565b60008681526001602090815260409182902054825163af640d0f60e01b815292516001600160a01b039091169263af640d0f9260048083019391928290030181865afa1580156200136a573d6000803e3d6000fd5b505050506040513d601f19601f8201168201806040525081019062001390919062001a3a565b6000878152600160205260408082205481516360329f4160e11b815291516001600160a01b039091169263c0653e8292600480820193918290030181865afa158015620013e1573d6000803e3d6000fd5b505050506040513d6000823e601f3d908101601f191682016040526200140b9190810190620019ba565b600088815260016020908152604091829020548251630d15fd7760e01b815292516001600160a01b0390911692630d15fd779260048083019391928290030181865afa15801562001460573d6000803e3d6000fd5b505050506040513d601f19601f8201168201806040525081019062001486919062001a3a565b93509350935093509193509193565b60008282604051620014a790620015a5565b620014b492919062001a83565b604051809103906000f080158015620014d1573d6000803e3d6000fd5b50905080600283604051620014e791906200199c565b90815260405190819003602001902080546001600160a01b03929092166001600160a01b0319909216919091179055505050565b600082826040516200152d90620015b3565b6200153a92919062001a83565b604051809103906000f08015801562001557573d6000803e3d6000fd5b50905080600383604051620014e791906200199c565b61053f8062001aad83390190565b6105158062001fec83390190565b61053f806200250183390190565b61053f8062002a4083390190565b6105458062002f7f83390190565b61054280620034c483390190565b634e487b7160e01b600052604160045260246000fd5b604051601f8201601f1916810167ffffffffffffffff81118282101715620016035762001603620015c1565b604052919050565b600067ffffffffffffffff821115620016285762001628620015c1565b50601f01601f191660200190565b600082601f8301126200164857600080fd5b81356200165f62001659826200160b565b620015d7565b8181528460208386010111156200167557600080fd5b816020850160208301376000918101602001919091529392505050565b60008060408385031215620016a657600080fd5b823567ffffffffffffffff80821115620016bf57600080fd5b620016cd8683870162001636565b93506020850135915080821115620016e457600080fd5b50620016f38582860162001636565b9150509250929050565b6000806000606084860312156200171357600080fd5b833567ffffffffffffffff808211156200172c57600080fd5b6200173a8783880162001636565b945060208601359150808211156200175157600080fd5b6200175f8783880162001636565b935060408601359150808211156200177657600080fd5b50620017858682870162001636565b9150509250925092565b60005b83811015620017ac57818101518382015260200162001792565b50506000910152565b60008151808452620017cf8160208601602086016200178f565b601f01601f19169290920160200192915050565b608081526000620017f86080830187620017b5565b82810360208401526200180c8187620017b5565b90508281036040840152620018228186620017b5565b91505082606083015295945050505050565b6000602082840312156200184757600080fd5b813567ffffffffffffffff8111156200185f57600080fd5b6200186d8482850162001636565b949350505050565b6060815260006200188a6060830186620017b5565b82810360208401526200189e8186620017b5565b915050826040830152949350505050565b600080600060608486031215620018c557600080fd5b833567ffffffffffffffff80821115620018de57600080fd5b620018ec8783880162001636565b94506020860135935060408601359150808211156200177657600080fd5b6000602082840312156200191d57600080fd5b5035919050565b608081526000620019396080830187620017b5565b8560208401528281036040840152620018228186620017b5565b606081526000620019686060830186620017b5565b82810360208401526200197c8186620017b5565b90508281036040840152620019928185620017b5565b9695505050505050565b60008251620019b08184602087016200178f565b9190910192915050565b600060208284031215620019cd57600080fd5b815167ffffffffffffffff811115620019e557600080fd5b8201601f81018413620019f757600080fd5b805162001a0862001659826200160b565b81815285602083850101111562001a1e57600080fd5b62001a318260208301602086016200178f565b95945050505050565b60006020828403121562001a4d57600080fd5b5051919050565b60608152600062001a696060830186620017b5565b8460208401528281036040840152620019928185620017b5565b60408152600062001a986040830185620017b5565b828103602084015262001a318185620017b556fe60806040526000805534801561001457600080fd5b5060405161053f38038061053f8339810160408190526100339161011d565b600161003f848261022d565b50600261004c838261022d565b506003610059828261022d565b505050506102ec565b634e487b7160e01b600052604160045260246000fd5b600082601f83011261008957600080fd5b81516001600160401b03808211156100a3576100a3610062565b604051601f8301601f19908116603f011681019082821181831017156100cb576100cb610062565b816040528381526020925086838588010111156100e757600080fd5b600091505b8382101561010957858201830151818301840152908201906100ec565b600093810190920192909252949350505050565b60008060006060848603121561013257600080fd5b83516001600160401b038082111561014957600080fd5b61015587838801610078565b9450602086015191508082111561016b57600080fd5b61017787838801610078565b9350604086015191508082111561018d57600080fd5b5061019a86828701610078565b9150509250925092565b600181811c908216806101b857607f821691505b6020821081036101d857634e487b7160e01b600052602260045260246000fd5b50919050565b601f82111561022857600081815260208120601f850160051c810160208610156102055750805b601f850160051c820191505b8181101561022457828155600101610211565b5050505b505050565b81516001600160401b0381111561024657610246610062565b61025a8161025484546101a4565b846101de565b602080601f83116001811461028f57600084156102775750858301515b600019600386901b1c1916600185901b178555610224565b600085815260208120601f198616915b828110156102be5788860151825594840194600190910190840161029f565b50858210156102dc5787850151600019600388901b60f8161c191681555b5050505050600190811b01905550565b610244806102fb6000396000f3fe608060405234801561001057600080fd5b50600436106100575760003560e01c80630d15fd771461005c578063632a9a5214610072578063675892ad1461007c5780639845d34a14610091578063bc7b35b214610099575b600080fd5b6000546040519081526020015b60405180910390f35b61007a6100a1565b005b6100846100b7565b604051610069919061015f565b610084610145565b610084610152565b6000805490806100b0836101ad565b9190505550565b600280546100c4906101d4565b80601f01602080910402602001604051908101604052809291908181526020018280546100f0906101d4565b801561013d5780601f106101125761010080835404028352916020019161013d565b820191906000526020600020905b81548152906001019060200180831161012057829003601f168201915b505050505081565b600380546100c4906101d4565b600180546100c4906101d4565b600060208083528351808285015260005b8181101561018c57858101830151858201604001528201610170565b506000604082860101526040601f19601f8301168501019250505092915050565b6000600182016101cd57634e487b7160e01b600052601160045260246000fd5b5060010190565b600181811c908216806101e857607f821691505b60208210810361020857634e487b7160e01b600052602260045260246000fd5b5091905056fea26469706673582212205d1b57e5d952a3c9726ba42c5f11452dce7936ea305a7e1d725234631021862664736f6c6343000811003360806040526000805534801561001457600080fd5b5060405161051538038061051583398101604081905261003391610115565b600161003f848261020a565b5060028290556003610051828261020a565b505050506102c9565b634e487b7160e01b600052604160045260246000fd5b600082601f83011261008157600080fd5b81516001600160401b038082111561009b5761009b61005a565b604051601f8301601f19908116603f011681019082821181831017156100c3576100c361005a565b816040528381526020925086838588010111156100df57600080fd5b600091505b8382101561010157858201830151818301840152908201906100e4565b600093810190920192909252949350505050565b60008060006060848603121561012a57600080fd5b83516001600160401b038082111561014157600080fd5b61014d87838801610070565b945060208601519350604086015191508082111561016a57600080fd5b5061017786828701610070565b9150509250925092565b600181811c9082168061019557607f821691505b6020821081036101b557634e487b7160e01b600052602260045260246000fd5b50919050565b601f82111561020557600081815260208120601f850160051c810160208610156101e25750805b601f850160051c820191505b81811015610201578281556001016101ee565b5050505b505050565b81516001600160401b038111156102235761022361005a565b610237816102318454610181565b846101bb565b602080601f83116001811461026c57600084156102545750858301515b600019600386901b1c1916600185901b178555610201565b600085815260208120601f198616915b8281101561029b5788860151825594840194600190910190840161027c565b50858210156102b95787850151600019600388901b60f8161c191681555b5050505050600190811b01905550565b61023d806102d86000396000f3fe608060405234801561001057600080fd5b50600436106100575760003560e01c806306fdde031461005c5780630d15fd771461007a578063632a9a521461008c578063af640d0f14610096578063c0653e821461009f575b600080fd5b6100646100a7565b6040516100719190610158565b60405180910390f35b6000545b604051908152602001610071565b610094610135565b005b61007e60025481565b61006461014b565b600180546100b4906101a6565b80601f01602080910402602001604051908101604052809291908181526020018280546100e0906101a6565b801561012d5780601f106101025761010080835404028352916020019161012d565b820191906000526020600020905b81548152906001019060200180831161011057829003601f168201915b505050505081565b600080549080610144836101e0565b9190505550565b600380546100b4906101a6565b600060208083528351808285015260005b8181101561018557858101830151858201604001528201610169565b506000604082860101526040601f19601f8301168501019250505092915050565b600181811c908216806101ba57607f821691505b6020821081036101da57634e487b7160e01b600052602260045260246000fd5b50919050565b60006001820161020057634e487b7160e01b600052601160045260246000fd5b506001019056fea26469706673582212203d7c72318d31a0703c9949ceacf6cbefd413ad416eedc8567181460e57d1085564736f6c6343000811003360806040526000805534801561001457600080fd5b5060405161053f38038061053f8339810160408190526100339161011d565b600161003f848261022d565b50600261004c838261022d565b506003610059828261022d565b505050506102ec565b634e487b7160e01b600052604160045260246000fd5b600082601f83011261008957600080fd5b81516001600160401b03808211156100a3576100a3610062565b604051601f8301601f19908116603f011681019082821181831017156100cb576100cb610062565b816040528381526020925086838588010111156100e757600080fd5b600091505b8382101561010957858201830151818301840152908201906100ec565b600093810190920192909252949350505050565b60008060006060848603121561013257600080fd5b83516001600160401b038082111561014957600080fd5b61015587838801610078565b9450602086015191508082111561016b57600080fd5b61017787838801610078565b9350604086015191508082111561018d57600080fd5b5061019a86828701610078565b9150509250925092565b600181811c908216806101b857607f821691505b6020821081036101d857634e487b7160e01b600052602260045260246000fd5b50919050565b601f82111561022857600081815260208120601f850160051c810160208610156102055750805b601f850160051c820191505b8181101561022457828155600101610211565b5050505b505050565b81516001600160401b0381111561024657610246610062565b61025a8161025484546101a4565b846101de565b602080601f83116001811461028f57600084156102775750858301515b600019600386901b1c1916600185901b178555610224565b600085815260208120601f198616915b828110156102be5788860151825594840194600190910190840161029f565b50858210156102dc5787850151600019600388901b60f8161c191681555b5050505050600190811b01905550565b610244806102fb6000396000f3fe608060405234801561001057600080fd5b50600436106100575760003560e01c80630d15fd771461005c578063148213bb14610072578063632a9a5214610087578063675892ad14610091578063bc7b35b214610099575b600080fd5b6000546040519081526020015b60405180910390f35b61007a6100a1565b604051610069919061015f565b61008f61012f565b005b61007a610145565b61007a610152565b600380546100ae906101ad565b80601f01602080910402602001604051908101604052809291908181526020018280546100da906101ad565b80156101275780601f106100fc57610100808354040283529160200191610127565b820191906000526020600020905b81548152906001019060200180831161010a57829003601f168201915b505050505081565b60008054908061013e836101e7565b9190505550565b600280546100ae906101ad565b600180546100ae906101ad565b600060208083528351808285015260005b8181101561018c57858101830151858201604001528201610170565b506000604082860101526040601f19601f8301168501019250505092915050565b600181811c908216806101c157607f821691505b6020821081036101e157634e487b7160e01b600052602260045260246000fd5b50919050565b60006001820161020757634e487b7160e01b600052601160045260246000fd5b506001019056fea2646970667358221220fac6911f633d026b6af09e3f790a81d6d7addc41965e83e033151070369bc9f664736f6c6343000811003360806040526000805534801561001457600080fd5b5060405161053f38038061053f8339810160408190526100339161011d565b600161003f848261022d565b50600261004c838261022d565b506003610059828261022d565b505050506102ec565b634e487b7160e01b600052604160045260246000fd5b600082601f83011261008957600080fd5b81516001600160401b03808211156100a3576100a3610062565b604051601f8301601f19908116603f011681019082821181831017156100cb576100cb610062565b816040528381526020925086838588010111156100e757600080fd5b600091505b8382101561010957858201830151818301840152908201906100ec565b600093810190920192909252949350505050565b60008060006060848603121561013257600080fd5b83516001600160401b038082111561014957600080fd5b61015587838801610078565b9450602086015191508082111561016b57600080fd5b61017787838801610078565b9350604086015191508082111561018d57600080fd5b5061019a86828701610078565b9150509250925092565b600181811c908216806101b857607f821691505b6020821081036101d857634e487b7160e01b600052602260045260246000fd5b50919050565b601f82111561022857600081815260208120601f850160051c810160208610156102055750805b601f850160051c820191505b8181101561022457828155600101610211565b5050505b505050565b81516001600160401b0381111561024657610246610062565b61025a8161025484546101a4565b846101de565b602080601f83116001811461028f57600084156102775750858301515b600019600386901b1c1916600185901b178555610224565b600085815260208120601f198616915b828110156102be5788860151825594840194600190910190840161029f565b50858210156102dc5787850151600019600388901b60f8161c191681555b5050505050600190811b01905550565b610244806102fb6000396000f3fe608060405234801561001057600080fd5b50600436106100575760003560e01c80630d15fd771461005c578063632a9a5214610072578063675892ad1461007c5780639845d34a14610091578063bc7b35b214610099575b600080fd5b6000546040519081526020015b60405180910390f35b61007a6100a1565b005b6100846100b7565b604051610069919061015f565b610084610145565b610084610152565b6000805490806100b0836101ad565b9190505550565b600280546100c4906101d4565b80601f01602080910402602001604051908101604052809291908181526020018280546100f0906101d4565b801561013d5780601f106101125761010080835404028352916020019161013d565b820191906000526020600020905b81548152906001019060200180831161012057829003601f168201915b505050505081565b600380546100c4906101d4565b600180546100c4906101d4565b600060208083528351808285015260005b8181101561018c57858101830151858201604001528201610170565b506000604082860101526040601f19601f8301168501019250505092915050565b6000600182016101cd57634e487b7160e01b600052601160045260246000fd5b5060010190565b600181811c908216806101e857607f821691505b60208210810361020857634e487b7160e01b600052602260045260246000fd5b5091905056fea26469706673582212203885278dcc1e3611d6e51466f7b0f61aacc3915ca333411aba602fa207cc65a564736f6c6343000811003360806040526000805534801561001457600080fd5b5060405161054538038061054583398101604081905261003391610147565b818160016100418382610233565b50600261004e8282610233565b505060408051808201909152600f81526e4a756e74612044697265637469766160881b6020820152600391506100849082610233565b5050506102f2565b634e487b7160e01b600052604160045260246000fd5b600082601f8301126100b357600080fd5b81516001600160401b03808211156100cd576100cd61008c565b604051601f8301601f19908116603f011681019082821181831017156100f5576100f561008c565b8160405283815260209250868385880101111561011157600080fd5b600091505b838210156101335785820183015181830184015290820190610116565b600093810190920192909252949350505050565b6000806040838503121561015a57600080fd5b82516001600160401b038082111561017157600080fd5b61017d868387016100a2565b9350602085015191508082111561019357600080fd5b506101a0858286016100a2565b9150509250929050565b600181811c908216806101be57607f821691505b6020821081036101de57634e487b7160e01b600052602260045260246000fd5b50919050565b601f82111561022e57600081815260208120601f850160051c8101602086101561020b5750805b601f850160051c820191505b8181101561022a57828155600101610217565b5050505b505050565b81516001600160401b0381111561024c5761024c61008c565b6102608161025a84546101aa565b846101e4565b602080601f831160018114610295576000841561027d5750858301515b600019600386901b1c1916600185901b17855561022a565b600085815260208120601f198616915b828110156102c4578886015182559484019460019091019084016102a5565b50858210156102e25787850151600019600388901b60f8161c191681555b5050505050600190811b01905550565b610244806103016000396000f3fe608060405234801561001057600080fd5b50600436106100575760003560e01c80630d15fd771461005c57806328d7573514610072578063632a9a5214610087578063675892ad1461009157806388305c2314610099575b600080fd5b6000546040519081526020015b60405180910390f35b61007a6100a1565b604051610069919061015f565b61008f61012f565b005b61007a610145565b61007a610152565b600380546100ae906101ad565b80601f01602080910402602001604051908101604052809291908181526020018280546100da906101ad565b80156101275780601f106100fc57610100808354040283529160200191610127565b820191906000526020600020905b81548152906001019060200180831161010a57829003601f168201915b505050505081565b60008054908061013e836101e7565b9190505550565b600280546100ae906101ad565b600180546100ae906101ad565b600060208083528351808285015260005b8181101561018c57858101830151858201604001528201610170565b506000604082860101526040601f19601f8301168501019250505092915050565b600181811c908216806101c157607f821691505b6020821081036101e157634e487b7160e01b600052602260045260246000fd5b50919050565b60006001820161020757634e487b7160e01b600052601160045260246000fd5b506001019056fea2646970667358221220497a35b8b9d5186d84911f829a90879755fe65932112b19823d699f9064c744d64736f6c6343000811003360806040526000805534801561001457600080fd5b5060405161054238038061054283398101604081905261003391610144565b818160016100418382610230565b50600261004e8282610230565b505060408051808201909152600c81526b21b7b7b93234b730b1b4b7b760a11b6020820152600391506100819082610230565b5050506102ef565b634e487b7160e01b600052604160045260246000fd5b600082601f8301126100b057600080fd5b81516001600160401b03808211156100ca576100ca610089565b604051601f8301601f19908116603f011681019082821181831017156100f2576100f2610089565b8160405283815260209250868385880101111561010e57600080fd5b600091505b838210156101305785820183015181830184015290820190610113565b600093810190920192909252949350505050565b6000806040838503121561015757600080fd5b82516001600160401b038082111561016e57600080fd5b61017a8683870161009f565b9350602085015191508082111561019057600080fd5b5061019d8582860161009f565b9150509250929050565b600181811c908216806101bb57607f821691505b6020821081036101db57634e487b7160e01b600052602260045260246000fd5b50919050565b601f82111561022b57600081815260208120601f850160051c810160208610156102085750805b601f850160051c820191505b8181101561022757828155600101610214565b5050505b505050565b81516001600160401b0381111561024957610249610089565b61025d8161025784546101a7565b846101e1565b602080601f831160018114610292576000841561027a5750858301515b600019600386901b1c1916600185901b178555610227565b600085815260208120601f198616915b828110156102c1578886015182559484019460019091019084016102a2565b50858210156102df5787850151600019600388901b60f8161c191681555b5050505050600190811b01905550565b610244806102fe6000396000f3fe608060405234801561001057600080fd5b50600436106100575760003560e01c80630d15fd771461005c57806328d7573514610072578063632a9a5214610087578063675892ad1461009157806388305c2314610099575b600080fd5b6000546040519081526020015b60405180910390f35b61007a6100a1565b604051610069919061015f565b61008f61012f565b005b61007a610145565b61007a610152565b600380546100ae906101ad565b80601f01602080910402602001604051908101604052809291908181526020018280546100da906101ad565b80156101275780601f106100fc57610100808354040283529160200191610127565b820191906000526020600020905b81548152906001019060200180831161010a57829003601f168201915b505050505081565b60008054908061013e836101e7565b9190505550565b600280546100ae906101ad565b600180546100ae906101ad565b600060208083528351808285015260005b8181101561018c57858101830151858201604001528201610170565b506000604082860101526040601f19601f8301168501019250505092915050565b600181811c908216806101c157607f821691505b6020821081036101e157634e487b7160e01b600052602260045260246000fd5b50919050565b60006001820161020757634e487b7160e01b600052601160045260246000fd5b506001019056fea26469706673582212208fa5eb976fe38c39fd8e566fe72bf45e4fe22f175b47ad6f961460553447af5e64736f6c63430008110033a2646970667358221220f479064517e9ed87820b1b6b6f45c8f9503dbcf537728c06720ffdd2aa2beabd64736f6c63430008110033",
  "immutableReferences": {},
  "source": "// SPDX-Licence-Identifier: UNLICENSED\npragma solidity ^0.8.0;\nimport \"./Candidate.sol\";\n\n\ncontract CandidateList {\n    address public owner;\n    \n    mapping (uint => ConsejoAcademico) public candidatosConsejoAcademico;\n    mapping (string => JuntaDirectivaFCE) public candidatosJuntaFCE;\n    mapping (string => CoordinacionFCE) public candidatosCoordinacionFCE;\n    mapping (string => mapping (string => CentroEstudiantes)) public candidatosCentroEstudiantes;\n    mapping (string => mapping (string => ConsejoEscuela)) public candidatosConsejoEscuela;\n    mapping (string => mapping (string => ConsejoFacultad)) public candidatosConsejoFacultad;\n\n    constructor () {\n        owner = msg.sender;\n    }\n    // address[] public candidatosConsejoAcademicoAccts;\n    // address[] public candidatosFCEAccts;\n    // address[] public candidatosCentroEstudiantesAccts;\n    // address[] public candidatosConsejoEscuelaAccts;\n    // address[] public candidatosConsejoFacultadAccts;\n\n    function addCandidateConsejoAcademico(string memory _name, uint _id, string memory _carrera) public {\n        ConsejoAcademico candidate = new ConsejoAcademico(_name, _id, _carrera);\n        candidatosConsejoAcademico[_id] = candidate;\n    }\n\n    function getCandidateConsejoAcademico(uint _id) public view returns (string memory, uint, string memory, uint) {\n        return (candidatosConsejoAcademico[_id].name(), candidatosConsejoAcademico[_id].id(), candidatosConsejoAcademico[_id].carrera(), candidatosConsejoAcademico[_id].totalVotes());\n    }\n\n    function voteConsejoAcademico(uint _id) public {\n        candidatosConsejoAcademico[_id].vote();\n    }\n\n    function addCandidateJuntaDirectivaFCE(string memory _agrupacion, string memory _siglas) public {\n        JuntaDirectivaFCE candidate = new JuntaDirectivaFCE(_agrupacion, _siglas);\n        candidatosJuntaFCE[_siglas] = candidate;\n    }\n\n    function getCandidateJuntaDirectivaFCE(string memory _siglas) public view returns (string memory, string memory, uint) {\n        return (candidatosJuntaFCE[_siglas].agrupacion(), candidatosJuntaFCE[_siglas].siglas(), candidatosJuntaFCE[_siglas].totalVotes());\n    }\n\n    function voteJuntaDirectivaFCE(string memory _siglas) public {\n        candidatosJuntaFCE[_siglas].vote();\n    }\n\n    function addCandidateCoordinacionFCE(string memory _agrupacion, string memory _siglas) public {\n        CoordinacionFCE candidate = new CoordinacionFCE(_agrupacion, _siglas);\n        candidatosCoordinacionFCE[_siglas] = candidate;\n    }\n\n    function getCandidateCoordinacionFCE(string memory _siglas) public view returns (string memory, string memory, uint) {\n        return (candidatosCoordinacionFCE[_siglas].agrupacion(), candidatosCoordinacionFCE[_siglas].siglas(), candidatosCoordinacionFCE[_siglas].totalVotes());\n    }\n\n    function voteCoordinacionFCE(string memory _siglas) public {\n        candidatosCoordinacionFCE[_siglas].vote();\n    }\n\n    function addCandidateCentroEstudiantes(string memory _nombre, string memory _siglas, string memory _escuela) public {\n        CentroEstudiantes candidate = new CentroEstudiantes(_nombre, _siglas, _escuela);\n        candidatosCentroEstudiantes[_escuela][_siglas] = candidate;\n    }\n\n    function getCandidateCentroEstudiantes(string memory _escuela, string memory _siglas) public view returns (string memory, string memory, string memory, uint) {\n        return (candidatosCentroEstudiantes[_escuela][_siglas].nombre(), candidatosCentroEstudiantes[_escuela][_siglas].siglas(), candidatosCentroEstudiantes[_escuela][_siglas].escuela(), candidatosCentroEstudiantes[_escuela][_siglas].totalVotes());\n    }\n\n    function voteCentroEstudiantes(string memory _escuela, string memory _siglas) public {\n        candidatosCentroEstudiantes[_escuela][_siglas].vote();\n    }\n\n    function addCandidateConsejoEscuela(string memory _nombre, string memory _siglas, string memory _escuela) public {\n        ConsejoEscuela candidate = new ConsejoEscuela(_nombre, _siglas, _escuela);\n        candidatosConsejoEscuela[_escuela][_siglas] = candidate;\n    }\n\n    function getCandidateConsejoEscuela(string memory _escuela, string memory _siglas) public view returns (string memory, string memory, string memory, uint) {\n        return (candidatosConsejoEscuela[_escuela][_siglas].nombre(), candidatosConsejoEscuela[_escuela][_siglas].siglas(), candidatosConsejoEscuela[_escuela][_siglas].escuela(), candidatosConsejoEscuela[_escuela][_siglas].totalVotes());\n    }\n\n    function voteConsejoEscuela(string memory _escuela, string memory _siglas) public {\n        candidatosConsejoEscuela[_escuela][_siglas].vote();\n    }\n\n    function addCandidateConsejoFacultad(string memory _nombre, string memory _siglas, string memory _facultad) public {\n        ConsejoFacultad candidate = new ConsejoFacultad(_nombre, _siglas, _facultad);\n        candidatosConsejoFacultad[_facultad][_siglas] = candidate;\n    }\n\n    function getCandidateConsejoFacultad(string memory _facultad, string memory _siglas) public view returns (string memory, string memory, string memory, uint) {\n        return (candidatosConsejoFacultad[_facultad][_siglas].nombre(), candidatosConsejoFacultad[_facultad][_siglas].siglas(), candidatosConsejoFacultad[_facultad][_siglas].facultad(), candidatosConsejoFacultad[_facultad][_siglas].totalVotes());\n    }\n\n    function voteConsejoFacultad(string memory _facultad, string memory _siglas) public {\n        candidatosConsejoFacultad[_facultad][_siglas].vote();\n    }\n\n\n}",
  "sourcePath": "/Users/abert/Desktop/chainge_voting_dapp/smart_contract/contracts/CandidateList.sol",
  "compiler": {
    "name": "solc",
    "version": "0.8.17+commit.8df45f5f.Emscripten.clang"
  },
  "schemaVersion": "3.4.10",
  "updatedAt": "2022-11-16T12:13:54.532Z",
  "devdoc": {
    "kind": "dev",
    "methods": {},
    "version": 1
  },
  "userdoc": {
    "kind": "user",
    "methods": {},
    "version": 1
  }
}