{
  "contractName": "CentroEstudiantes",
  "abi": [
    {
      "inputs": [
        {
          "internalType": "string",
          "name": "_nombre",
          "type": "string"
        },
        {
          "internalType": "string",
          "name": "_siglas",
          "type": "string"
        },
        {
          "internalType": "string",
          "name": "_escuela",
          "type": "string"
        }
      ],
      "stateMutability": "nonpayable",
      "type": "constructor"
    },
    {
      "inputs": [],
      "name": "escuela",
      "outputs": [
        {
          "internalType": "string",
          "name": "",
          "type": "string"
        }
      ],
      "stateMutability": "view",
      "type": "function"
    },
    {
      "inputs": [],
      "name": "nombre",
      "outputs": [
        {
          "internalType": "string",
          "name": "",
          "type": "string"
        }
      ],
      "stateMutability": "view",
      "type": "function"
    },
    {
      "inputs": [],
      "name": "siglas",
      "outputs": [
        {
          "internalType": "string",
          "name": "",
          "type": "string"
        }
      ],
      "stateMutability": "view",
      "type": "function"
    },
    {
      "inputs": [],
      "name": "totalVotes",
      "outputs": [
        {
          "internalType": "uint256",
          "name": "",
          "type": "uint256"
        }
      ],
      "stateMutability": "view",
      "type": "function"
    },
    {
      "inputs": [],
      "name": "vote",
      "outputs": [],
      "stateMutability": "nonpayable",
      "type": "function"
    }
  ],
  "bytecode": "0x60806040526000805534801561001457600080fd5b5060405161053f38038061053f8339810160408190526100339161011d565b600161003f848261022d565b50600261004c838261022d565b506003610059828261022d565b505050506102ec565b634e487b7160e01b600052604160045260246000fd5b600082601f83011261008957600080fd5b81516001600160401b03808211156100a3576100a3610062565b604051601f8301601f19908116603f011681019082821181831017156100cb576100cb610062565b816040528381526020925086838588010111156100e757600080fd5b600091505b8382101561010957858201830151818301840152908201906100ec565b600093810190920192909252949350505050565b60008060006060848603121561013257600080fd5b83516001600160401b038082111561014957600080fd5b61015587838801610078565b9450602086015191508082111561016b57600080fd5b61017787838801610078565b9350604086015191508082111561018d57600080fd5b5061019a86828701610078565b9150509250925092565b600181811c908216806101b857607f821691505b6020821081036101d857634e487b7160e01b600052602260045260246000fd5b50919050565b601f82111561022857600081815260208120601f850160051c810160208610156102055750805b601f850160051c820191505b8181101561022457828155600101610211565b5050505b505050565b81516001600160401b0381111561024657610246610062565b61025a8161025484546101a4565b846101de565b602080601f83116001811461028f57600084156102775750858301515b600019600386901b1c1916600185901b178555610224565b600085815260208120601f198616915b828110156102be5788860151825594840194600190910190840161029f565b50858210156102dc5787850151600019600388901b60f8161c191681555b5050505050600190811b01905550565b610244806102fb6000396000f3fe608060405234801561001057600080fd5b50600436106100575760003560e01c80630d15fd771461005c578063632a9a5214610072578063675892ad1461007c5780639845d34a14610091578063bc7b35b214610099575b600080fd5b6000546040519081526020015b60405180910390f35b61007a6100a1565b005b6100846100b7565b604051610069919061015f565b610084610145565b610084610152565b6000805490806100b0836101ad565b9190505550565b600280546100c4906101d4565b80601f01602080910402602001604051908101604052809291908181526020018280546100f0906101d4565b801561013d5780601f106101125761010080835404028352916020019161013d565b820191906000526020600020905b81548152906001019060200180831161012057829003601f168201915b505050505081565b600380546100c4906101d4565b600180546100c4906101d4565b600060208083528351808285015260005b8181101561018c57858101830151858201604001528201610170565b506000604082860101526040601f19601f8301168501019250505092915050565b6000600182016101cd57634e487b7160e01b600052601160045260246000fd5b5060010190565b600181811c908216806101e857607f821691505b60208210810361020857634e487b7160e01b600052602260045260246000fd5b5091905056fea2646970667358221220382515be6ce43fe8e5782d2c887cebaac4ecd49729b18586de131617fafe62cc64736f6c63430008110033",
  "immutableReferences": {},
  "source": "// SPDX-Licence-Identifier: UNLICENSED\r\npragma solidity ^0.8.0;\r\n\r\ncontract Candidate {\r\n    uint internal voteCount = 0;\r\n\r\n    function vote() public {\r\n        voteCount++;\r\n    }\r\n\r\n    function totalVotes() public view returns (uint) {\r\n        return voteCount;\r\n    }\r\n}\r\n\r\ncontract ConsejoAcademico is Candidate {\r\n    string public name;\r\n    uint public id;\r\n    string public carrera;\r\n\r\n    constructor(string memory _name, uint _id ,string memory _carrera) Candidate() {\r\n        name = _name;\r\n        id = _id;\r\n        carrera = _carrera;\r\n    }\r\n}\r\n\r\ncontract CandidatoFCE is Candidate {\r\n    string public agrupacion;\r\n    string public siglas;\r\n\r\n    constructor(string memory _agrupacion, string memory _siglas) Candidate() {\r\n        agrupacion = _agrupacion;\r\n        siglas = _siglas;\r\n    }\r\n}\r\n\r\ncontract JuntaDirectivaFCE is CandidatoFCE {\r\n    string public seccion;\r\n\r\n    constructor(string memory _agrupacion, string memory _siglas) CandidatoFCE(_agrupacion, _siglas) {\r\n        seccion = \"Junta Directiva\";\r\n    }\r\n}\r\n\r\ncontract CoordinacionFCE is CandidatoFCE {\r\n    string public seccion;\r\n\r\n    constructor(string memory _agrupacion, string memory _siglas) CandidatoFCE(_agrupacion, _siglas) {\r\n        seccion = \"Coordinacion\";\r\n    }\r\n}\r\n\r\n\r\ncontract CentroEstudiantes is Candidate {\r\n    string public nombre;\r\n    string public siglas;\r\n    string public escuela;\r\n\r\n    constructor(string memory _nombre, string memory _siglas, string memory _escuela) Candidate() {\r\n        nombre = _nombre;\r\n        siglas = _siglas;\r\n        escuela = _escuela;\r\n    }\r\n}\r\n\r\ncontract ConsejoEscuela is Candidate {\r\n    string public nombre;\r\n    string public siglas;\r\n    string public escuela;\r\n\r\n    constructor(string memory _nombre, string memory _siglas, string memory _escuela) Candidate() {\r\n        nombre = _nombre;\r\n        siglas = _siglas;\r\n        escuela = _escuela;\r\n    }\r\n}\r\n\r\ncontract ConsejoFacultad is Candidate {\r\n    string public nombre;\r\n    string public siglas;\r\n    string public facultad;\r\n\r\n    constructor(string memory _nombre, string memory _siglas, string memory _facultad) Candidate() {\r\n        nombre = _nombre;\r\n        siglas = _siglas;\r\n        facultad = _facultad;\r\n    }\r\n}\r\n\r\n// contract CandidateList {\r\n//     address public owner;\r\n    \r\n//     mapping (uint => mapping (address => ConsejoAcademico)) public candidatosConsejoAcademico;\r\n//     mapping (string => mapping (address => CandidatoFCE)) public candidatosFCE;\r\n//     mapping (string => mapping (address => CentroEstudiantes)) public candidatosCentroEstudiantes;\r\n//     mapping (string => mapping (address => ConsejoEscuela)) public candidatosConsejoEscuela;\r\n//     mapping (string => mapping (address => ConsejoFacultad)) public candidatosConsejoFacultad;\r\n\r\n//     constructor () {\r\n//         owner = msg.sender;\r\n//     }\r\n//     // address[] public candidatosConsejoAcademicoAccts;\r\n//     // address[] public candidatosFCEAccts;\r\n//     // address[] public candidatosCentroEstudiantesAccts;\r\n//     // address[] public candidatosConsejoEscuelaAccts;\r\n//     // address[] public candidatosConsejoFacultadAccts;\r\n\r\n//     function addCandidateConsejoAcademico(string memory _name, uint _id, string memory _carrera) public {\r\n//         ConsejoAcademico candidate = new ConsejoAcademico(_name, _id, _carrera);\r\n//         candidatosConsejoAcademico[_id][msg.sender] = candidate;\r\n//     }\r\n\r\n//     function addCandidateFCE(string memory _agrupacion, uint _siglas, string memory _seccion) public {\r\n//         CandidatoFCE candidate = new CandidatoFCE(_agrupacion, _siglas);\r\n//         candidatosFCE[_seccion][msg.sender] = candidate;\r\n//     }\r\n\r\n//     function addCandidateCentroEstudiantes(string memory _nombre, string memory _siglas, string memory _escuela) public {\r\n//         CentroEstudiantes candidate = new CentroEstudiantes(_nombre, _siglas, _escuela);\r\n//         candidatosCentroEstudiantes[_escuela][msg.sender] = candidate;\r\n//     }\r\n\r\n//     function addCandidateConsejoEscuela(string memory _nombre, string memory _siglas, string memory _escuela) public {\r\n//         ConsejoEscuela candidate = new ConsejoEscuela(_nombre, _siglas, _escuela);\r\n//         candidatosConsejoEscuela[_escuela][msg.sender] = candidate;\r\n//     }\r\n\r\n//     function addCandidateConsejoFacultad(string memory _nombre, string memory _siglas, string memory _facultad) public {\r\n//         ConsejoFacultad candidate = new ConsejoFacultad(_nombre, _siglas, _facultad);\r\n//         candidatosConsejoFacultad[_facultad][msg.sender] = candidate;\r\n//     }\r\n\r\n// }\r\n\r\n",
  "sourcePath": "C:\\Users\\Jose Rubin\\Desktop\\Chainge\\chainge_voting_dapp\\smart_contract\\contracts\\Candidate.sol",
  "compiler": {
    "name": "solc",
    "version": "0.8.17+commit.8df45f5f.Emscripten.clang"
  },
  "schemaVersion": "3.4.10",
  "updatedAt": "2022-11-19T17:21:52.188Z",
  "devdoc": {
    "kind": "dev",
    "methods": {},
    "version": 1
  },
  "userdoc": {
    "kind": "user",
    "methods": {},
    "version": 1
  }
}