{
  "contractName": "ConsejoAcademico",
  "abi": [
    {
      "inputs": [
        {
          "internalType": "string",
          "name": "_name",
          "type": "string"
        },
        {
          "internalType": "uint256",
          "name": "_id",
          "type": "uint256"
        },
        {
          "internalType": "string",
          "name": "_carrera",
          "type": "string"
        }
      ],
      "stateMutability": "nonpayable",
      "type": "constructor"
    },
    {
      "inputs": [],
      "name": "carrera",
      "outputs": [
        {
          "internalType": "string",
          "name": "",
          "type": "string"
        }
      ],
      "stateMutability": "view",
      "type": "function"
    },
    {
      "inputs": [],
      "name": "id",
      "outputs": [
        {
          "internalType": "uint256",
          "name": "",
          "type": "uint256"
        }
      ],
      "stateMutability": "view",
      "type": "function"
    },
    {
      "inputs": [],
      "name": "name",
      "outputs": [
        {
          "internalType": "string",
          "name": "",
          "type": "string"
        }
      ],
      "stateMutability": "view",
      "type": "function"
    },
    {
      "inputs": [],
      "name": "totalVotes",
      "outputs": [
        {
          "internalType": "uint256",
          "name": "",
          "type": "uint256"
        }
      ],
      "stateMutability": "view",
      "type": "function"
    },
    {
      "inputs": [],
      "name": "vote",
      "outputs": [],
      "stateMutability": "nonpayable",
      "type": "function"
    }
  ],
  "bytecode": "0x60806040526000805534801561001457600080fd5b5060405161051538038061051583398101604081905261003391610115565b600161003f848261020a565b5060028290556003610051828261020a565b505050506102c9565b634e487b7160e01b600052604160045260246000fd5b600082601f83011261008157600080fd5b81516001600160401b038082111561009b5761009b61005a565b604051601f8301601f19908116603f011681019082821181831017156100c3576100c361005a565b816040528381526020925086838588010111156100df57600080fd5b600091505b8382101561010157858201830151818301840152908201906100e4565b600093810190920192909252949350505050565b60008060006060848603121561012a57600080fd5b83516001600160401b038082111561014157600080fd5b61014d87838801610070565b945060208601519350604086015191508082111561016a57600080fd5b5061017786828701610070565b9150509250925092565b600181811c9082168061019557607f821691505b6020821081036101b557634e487b7160e01b600052602260045260246000fd5b50919050565b601f82111561020557600081815260208120601f850160051c810160208610156101e25750805b601f850160051c820191505b81811015610201578281556001016101ee565b5050505b505050565b81516001600160401b038111156102235761022361005a565b610237816102318454610181565b846101bb565b602080601f83116001811461026c57600084156102545750858301515b600019600386901b1c1916600185901b178555610201565b600085815260208120601f198616915b8281101561029b5788860151825594840194600190910190840161027c565b50858210156102b95787850151600019600388901b60f8161c191681555b5050505050600190811b01905550565b61023d806102d86000396000f3fe608060405234801561001057600080fd5b50600436106100575760003560e01c806306fdde031461005c5780630d15fd771461007a578063632a9a521461008c578063af640d0f14610096578063c0653e821461009f575b600080fd5b6100646100a7565b6040516100719190610158565b60405180910390f35b6000545b604051908152602001610071565b610094610135565b005b61007e60025481565b61006461014b565b600180546100b4906101a6565b80601f01602080910402602001604051908101604052809291908181526020018280546100e0906101a6565b801561012d5780601f106101025761010080835404028352916020019161012d565b820191906000526020600020905b81548152906001019060200180831161011057829003601f168201915b505050505081565b600080549080610144836101e0565b9190505550565b600380546100b4906101a6565b600060208083528351808285015260005b8181101561018557858101830151858201604001528201610169565b506000604082860101526040601f19601f8301168501019250505092915050565b600181811c908216806101ba57607f821691505b6020821081036101da57634e487b7160e01b600052602260045260246000fd5b50919050565b60006001820161020057634e487b7160e01b600052601160045260246000fd5b506001019056fea264697066735822122070f0857ebe4551fbb7137d45defd19bafeb289ffd312338cbe7668d13b06ab7264736f6c63430008110033",
  "immutableReferences": {},
  "source": "// SPDX-Licence-Identifier: UNLICENSED\r\npragma solidity ^0.8.0;\r\n\r\ncontract Candidate {\r\n    uint internal voteCount = 0;\r\n\r\n    function vote() public {\r\n        voteCount++;\r\n    }\r\n\r\n    function totalVotes() public view returns (uint) {\r\n        return voteCount;\r\n    }\r\n}\r\n\r\ncontract ConsejoAcademico is Candidate {\r\n    string public name;\r\n    uint public id;\r\n    string public carrera;\r\n\r\n    constructor(string memory _name, uint _id ,string memory _carrera) Candidate() {\r\n        name = _name;\r\n        id = _id;\r\n        carrera = _carrera;\r\n    }\r\n}\r\n\r\ncontract CandidatoFCE is Candidate {\r\n    string public agrupacion;\r\n    string public siglas;\r\n\r\n    constructor(string memory _agrupacion, string memory _siglas) Candidate() {\r\n        agrupacion = _agrupacion;\r\n        siglas = _siglas;\r\n    }\r\n}\r\n\r\ncontract JuntaDirectivaFCE is CandidatoFCE {\r\n    string public seccion;\r\n\r\n    constructor(string memory _agrupacion, string memory _siglas) CandidatoFCE(_agrupacion, _siglas) {\r\n        seccion = \"Junta Directiva\";\r\n    }\r\n}\r\n\r\ncontract CoordinacionFCE is CandidatoFCE {\r\n    string public seccion;\r\n\r\n    constructor(string memory _agrupacion, string memory _siglas) CandidatoFCE(_agrupacion, _siglas) {\r\n        seccion = \"Coordinacion\";\r\n    }\r\n}\r\n\r\n\r\ncontract CentroEstudiantes is Candidate {\r\n    string public nombre;\r\n    string public siglas;\r\n    string public escuela;\r\n\r\n    constructor(string memory _nombre, string memory _siglas, string memory _escuela) Candidate() {\r\n        nombre = _nombre;\r\n        siglas = _siglas;\r\n        escuela = _escuela;\r\n    }\r\n}\r\n\r\ncontract ConsejoEscuela is Candidate {\r\n    string public nombre;\r\n    string public siglas;\r\n    string public escuela;\r\n\r\n    constructor(string memory _nombre, string memory _siglas, string memory _escuela) Candidate() {\r\n        nombre = _nombre;\r\n        siglas = _siglas;\r\n        escuela = _escuela;\r\n    }\r\n}\r\n\r\ncontract ConsejoFacultad is Candidate {\r\n    string public nombre;\r\n    string public siglas;\r\n    string public facultad;\r\n\r\n    constructor(string memory _nombre, string memory _siglas, string memory _facultad) Candidate() {\r\n        nombre = _nombre;\r\n        siglas = _siglas;\r\n        facultad = _facultad;\r\n    }\r\n}\r\n\r\n// contract CandidateList {\r\n//     address public owner;\r\n    \r\n//     mapping (uint => mapping (address => ConsejoAcademico)) public candidatosConsejoAcademico;\r\n//     mapping (string => mapping (address => CandidatoFCE)) public candidatosFCE;\r\n//     mapping (string => mapping (address => CentroEstudiantes)) public candidatosCentroEstudiantes;\r\n//     mapping (string => mapping (address => ConsejoEscuela)) public candidatosConsejoEscuela;\r\n//     mapping (string => mapping (address => ConsejoFacultad)) public candidatosConsejoFacultad;\r\n\r\n//     constructor () {\r\n//         owner = msg.sender;\r\n//     }\r\n//     // address[] public candidatosConsejoAcademicoAccts;\r\n//     // address[] public candidatosFCEAccts;\r\n//     // address[] public candidatosCentroEstudiantesAccts;\r\n//     // address[] public candidatosConsejoEscuelaAccts;\r\n//     // address[] public candidatosConsejoFacultadAccts;\r\n\r\n//     function addCandidateConsejoAcademico(string memory _name, uint _id, string memory _carrera) public {\r\n//         ConsejoAcademico candidate = new ConsejoAcademico(_name, _id, _carrera);\r\n//         candidatosConsejoAcademico[_id][msg.sender] = candidate;\r\n//     }\r\n\r\n//     function addCandidateFCE(string memory _agrupacion, uint _siglas, string memory _seccion) public {\r\n//         CandidatoFCE candidate = new CandidatoFCE(_agrupacion, _siglas);\r\n//         candidatosFCE[_seccion][msg.sender] = candidate;\r\n//     }\r\n\r\n//     function addCandidateCentroEstudiantes(string memory _nombre, string memory _siglas, string memory _escuela) public {\r\n//         CentroEstudiantes candidate = new CentroEstudiantes(_nombre, _siglas, _escuela);\r\n//         candidatosCentroEstudiantes[_escuela][msg.sender] = candidate;\r\n//     }\r\n\r\n//     function addCandidateConsejoEscuela(string memory _nombre, string memory _siglas, string memory _escuela) public {\r\n//         ConsejoEscuela candidate = new ConsejoEscuela(_nombre, _siglas, _escuela);\r\n//         candidatosConsejoEscuela[_escuela][msg.sender] = candidate;\r\n//     }\r\n\r\n//     function addCandidateConsejoFacultad(string memory _nombre, string memory _siglas, string memory _facultad) public {\r\n//         ConsejoFacultad candidate = new ConsejoFacultad(_nombre, _siglas, _facultad);\r\n//         candidatosConsejoFacultad[_facultad][msg.sender] = candidate;\r\n//     }\r\n\r\n// }\r\n\r\n",
  "sourcePath": "C:\\Users\\Jose Rubin\\Desktop\\Chainge\\chainge_voting_dapp\\smart_contract\\contracts\\Candidate.sol",
  "compiler": {
    "name": "solc",
    "version": "0.8.17+commit.8df45f5f.Emscripten.clang"
  },
  "schemaVersion": "3.4.10",
  "updatedAt": "2022-11-30T16:50:45.737Z",
  "devdoc": {
    "kind": "dev",
    "methods": {},
    "version": 1
  },
  "userdoc": {
    "kind": "user",
    "methods": {},
    "version": 1
  }
}