{
  "contractName": "ConsejoFacultad",
  "abi": [
    {
      "inputs": [
        {
          "internalType": "string",
          "name": "_nombre",
          "type": "string"
        },
        {
          "internalType": "string",
          "name": "_siglas",
          "type": "string"
        },
        {
          "internalType": "string",
          "name": "_facultad",
          "type": "string"
        }
      ],
      "stateMutability": "nonpayable",
      "type": "constructor"
    },
    {
      "inputs": [],
      "name": "facultad",
      "outputs": [
        {
          "internalType": "string",
          "name": "",
          "type": "string"
        }
      ],
      "stateMutability": "view",
      "type": "function"
    },
    {
      "inputs": [],
      "name": "nombre",
      "outputs": [
        {
          "internalType": "string",
          "name": "",
          "type": "string"
        }
      ],
      "stateMutability": "view",
      "type": "function"
    },
    {
      "inputs": [],
      "name": "siglas",
      "outputs": [
        {
          "internalType": "string",
          "name": "",
          "type": "string"
        }
      ],
      "stateMutability": "view",
      "type": "function"
    },
    {
      "inputs": [],
      "name": "totalVotes",
      "outputs": [
        {
          "internalType": "uint256",
          "name": "",
          "type": "uint256"
        }
      ],
      "stateMutability": "view",
      "type": "function"
    },
    {
      "inputs": [],
      "name": "vote",
      "outputs": [],
      "stateMutability": "nonpayable",
      "type": "function"
    }
  ],
  "bytecode": "0x60806040526000805534801561001457600080fd5b5060405161053f38038061053f8339810160408190526100339161011d565b600161003f848261022d565b50600261004c838261022d565b506003610059828261022d565b505050506102ec565b634e487b7160e01b600052604160045260246000fd5b600082601f83011261008957600080fd5b81516001600160401b03808211156100a3576100a3610062565b604051601f8301601f19908116603f011681019082821181831017156100cb576100cb610062565b816040528381526020925086838588010111156100e757600080fd5b600091505b8382101561010957858201830151818301840152908201906100ec565b600093810190920192909252949350505050565b60008060006060848603121561013257600080fd5b83516001600160401b038082111561014957600080fd5b61015587838801610078565b9450602086015191508082111561016b57600080fd5b61017787838801610078565b9350604086015191508082111561018d57600080fd5b5061019a86828701610078565b9150509250925092565b600181811c908216806101b857607f821691505b6020821081036101d857634e487b7160e01b600052602260045260246000fd5b50919050565b601f82111561022857600081815260208120601f850160051c810160208610156102055750805b601f850160051c820191505b8181101561022457828155600101610211565b5050505b505050565b81516001600160401b0381111561024657610246610062565b61025a8161025484546101a4565b846101de565b602080601f83116001811461028f57600084156102775750858301515b600019600386901b1c1916600185901b178555610224565b600085815260208120601f198616915b828110156102be5788860151825594840194600190910190840161029f565b50858210156102dc5787850151600019600388901b60f8161c191681555b5050505050600190811b01905550565b610244806102fb6000396000f3fe608060405234801561001057600080fd5b50600436106100575760003560e01c80630d15fd771461005c578063148213bb14610072578063632a9a5214610087578063675892ad14610091578063bc7b35b214610099575b600080fd5b6000546040519081526020015b60405180910390f35b61007a6100a1565b604051610069919061015f565b61008f61012f565b005b61007a610145565b61007a610152565b600380546100ae906101ad565b80601f01602080910402602001604051908101604052809291908181526020018280546100da906101ad565b80156101275780601f106100fc57610100808354040283529160200191610127565b820191906000526020600020905b81548152906001019060200180831161010a57829003601f168201915b505050505081565b60008054908061013e836101e7565b9190505550565b600280546100ae906101ad565b600180546100ae906101ad565b600060208083528351808285015260005b8181101561018c57858101830151858201604001528201610170565b506000604082860101526040601f19601f8301168501019250505092915050565b600181811c908216806101c157607f821691505b6020821081036101e157634e487b7160e01b600052602260045260246000fd5b50919050565b60006001820161020757634e487b7160e01b600052601160045260246000fd5b506001019056fea2646970667358221220fac6911f633d026b6af09e3f790a81d6d7addc41965e83e033151070369bc9f664736f6c63430008110033",
  "immutableReferences": {},
  "source": "// SPDX-Licence-Identifier: UNLICENSED\npragma solidity ^0.8.0;\n\ncontract Candidate {\n    uint internal voteCount = 0;\n\n    function vote() public {\n        voteCount++;\n    }\n\n    function totalVotes() public view returns (uint) {\n        return voteCount;\n    }\n}\n\ncontract ConsejoAcademico is Candidate {\n    string public name;\n    uint public id;\n    string public carrera;\n\n    constructor(string memory _name, uint _id ,string memory _carrera) Candidate() {\n        name = _name;\n        id = _id;\n        carrera = _carrera;\n    }\n}\n\ncontract CandidatoFCE is Candidate {\n    string public agrupacion;\n    string public siglas;\n\n    constructor(string memory _agrupacion, string memory _siglas) Candidate() {\n        agrupacion = _agrupacion;\n        siglas = _siglas;\n    }\n}\n\ncontract JuntaDirectivaFCE is CandidatoFCE {\n    string public seccion;\n\n    constructor(string memory _agrupacion, string memory _siglas) CandidatoFCE(_agrupacion, _siglas) {\n        seccion = \"Junta Directiva\";\n    }\n}\n\ncontract CoordinacionFCE is CandidatoFCE {\n    string public seccion;\n\n    constructor(string memory _agrupacion, string memory _siglas) CandidatoFCE(_agrupacion, _siglas) {\n        seccion = \"Coordinacion\";\n    }\n}\n\n\ncontract CentroEstudiantes is Candidate {\n    string public nombre;\n    string public siglas;\n    string public escuela;\n\n    constructor(string memory _nombre, string memory _siglas, string memory _escuela) Candidate() {\n        nombre = _nombre;\n        siglas = _siglas;\n        escuela = _escuela;\n    }\n}\n\ncontract ConsejoEscuela is Candidate {\n    string public nombre;\n    string public siglas;\n    string public escuela;\n\n    constructor(string memory _nombre, string memory _siglas, string memory _escuela) Candidate() {\n        nombre = _nombre;\n        siglas = _siglas;\n        escuela = _escuela;\n    }\n}\n\ncontract ConsejoFacultad is Candidate {\n    string public nombre;\n    string public siglas;\n    string public facultad;\n\n    constructor(string memory _nombre, string memory _siglas, string memory _facultad) Candidate() {\n        nombre = _nombre;\n        siglas = _siglas;\n        facultad = _facultad;\n    }\n}\n\n// contract CandidateList {\n//     address public owner;\n    \n//     mapping (uint => mapping (address => ConsejoAcademico)) public candidatosConsejoAcademico;\n//     mapping (string => mapping (address => CandidatoFCE)) public candidatosFCE;\n//     mapping (string => mapping (address => CentroEstudiantes)) public candidatosCentroEstudiantes;\n//     mapping (string => mapping (address => ConsejoEscuela)) public candidatosConsejoEscuela;\n//     mapping (string => mapping (address => ConsejoFacultad)) public candidatosConsejoFacultad;\n\n//     constructor () {\n//         owner = msg.sender;\n//     }\n//     // address[] public candidatosConsejoAcademicoAccts;\n//     // address[] public candidatosFCEAccts;\n//     // address[] public candidatosCentroEstudiantesAccts;\n//     // address[] public candidatosConsejoEscuelaAccts;\n//     // address[] public candidatosConsejoFacultadAccts;\n\n//     function addCandidateConsejoAcademico(string memory _name, uint _id, string memory _carrera) public {\n//         ConsejoAcademico candidate = new ConsejoAcademico(_name, _id, _carrera);\n//         candidatosConsejoAcademico[_id][msg.sender] = candidate;\n//     }\n\n//     function addCandidateFCE(string memory _agrupacion, uint _siglas, string memory _seccion) public {\n//         CandidatoFCE candidate = new CandidatoFCE(_agrupacion, _siglas);\n//         candidatosFCE[_seccion][msg.sender] = candidate;\n//     }\n\n//     function addCandidateCentroEstudiantes(string memory _nombre, string memory _siglas, string memory _escuela) public {\n//         CentroEstudiantes candidate = new CentroEstudiantes(_nombre, _siglas, _escuela);\n//         candidatosCentroEstudiantes[_escuela][msg.sender] = candidate;\n//     }\n\n//     function addCandidateConsejoEscuela(string memory _nombre, string memory _siglas, string memory _escuela) public {\n//         ConsejoEscuela candidate = new ConsejoEscuela(_nombre, _siglas, _escuela);\n//         candidatosConsejoEscuela[_escuela][msg.sender] = candidate;\n//     }\n\n//     function addCandidateConsejoFacultad(string memory _nombre, string memory _siglas, string memory _facultad) public {\n//         ConsejoFacultad candidate = new ConsejoFacultad(_nombre, _siglas, _facultad);\n//         candidatosConsejoFacultad[_facultad][msg.sender] = candidate;\n//     }\n\n// }\n\n",
  "sourcePath": "/Users/abert/Desktop/chainge_voting_dapp/smart_contract/contracts/Candidate.sol",
  "compiler": {
    "name": "solc",
    "version": "0.8.17+commit.8df45f5f.Emscripten.clang"
  },
  "schemaVersion": "3.4.10",
  "updatedAt": "2022-11-16T12:13:54.527Z",
  "devdoc": {
    "kind": "dev",
    "methods": {},
    "version": 1
  },
  "userdoc": {
    "kind": "user",
    "methods": {},
    "version": 1
  }
}