{
  "contractName": "Election",
  "abi": [
    {
      "inputs": [],
      "stateMutability": "nonpayable",
      "type": "constructor"
    },
    {
      "anonymous": false,
      "inputs": [
        {
          "indexed": false,
          "internalType": "uint256",
          "name": "candidateId",
          "type": "uint256"
        }
      ],
      "name": "CandidateRegisteredEvent",
      "type": "event"
    },
    {
      "anonymous": false,
      "inputs": [
        {
          "indexed": false,
          "internalType": "address",
          "name": "voter",
          "type": "address"
        },
        {
          "indexed": false,
          "internalType": "uint256",
          "name": "proposalId",
          "type": "uint256"
        }
      ],
      "name": "VotedEvent",
      "type": "event"
    },
    {
      "anonymous": false,
      "inputs": [
        {
          "indexed": false,
          "internalType": "address",
          "name": "voterAddress",
          "type": "address"
        }
      ],
      "name": "VoterRegisteredEvent",
      "type": "event"
    },
    {
      "anonymous": false,
      "inputs": [],
      "name": "VotesTalliedEvent",
      "type": "event"
    },
    {
      "anonymous": false,
      "inputs": [],
      "name": "VotingSessionEndedEvent",
      "type": "event"
    },
    {
      "anonymous": false,
      "inputs": [],
      "name": "VotingSessionStartedEvent",
      "type": "event"
    },
    {
      "anonymous": false,
      "inputs": [
        {
          "indexed": false,
          "internalType": "enum Election.WorkflowStatus",
          "name": "previousStatus",
          "type": "uint8"
        },
        {
          "indexed": false,
          "internalType": "enum Election.WorkflowStatus",
          "name": "newStatus",
          "type": "uint8"
        }
      ],
      "name": "WorkflowStatusChangeEvent",
      "type": "event"
    },
    {
      "inputs": [
        {
          "internalType": "uint256",
          "name": "",
          "type": "uint256"
        }
      ],
      "name": "candidates",
      "outputs": [
        {
          "internalType": "string",
          "name": "name",
          "type": "string"
        },
        {
          "internalType": "string",
          "name": "party",
          "type": "string"
        },
        {
          "internalType": "string",
          "name": "degree",
          "type": "string"
        },
        {
          "internalType": "uint256",
          "name": "voteCount",
          "type": "uint256"
        },
        {
          "internalType": "uint256",
          "name": "id",
          "type": "uint256"
        }
      ],
      "stateMutability": "view",
      "type": "function",
      "constant": true
    },
    {
      "inputs": [],
      "name": "description",
      "outputs": [
        {
          "internalType": "string",
          "name": "",
          "type": "string"
        }
      ],
      "stateMutability": "view",
      "type": "function",
      "constant": true
    },
    {
      "inputs": [],
      "name": "name",
      "outputs": [
        {
          "internalType": "string",
          "name": "",
          "type": "string"
        }
      ],
      "stateMutability": "view",
      "type": "function",
      "constant": true
    },
    {
      "inputs": [],
      "name": "owner",
      "outputs": [
        {
          "internalType": "address",
          "name": "",
          "type": "address"
        }
      ],
      "stateMutability": "view",
      "type": "function",
      "constant": true
    },
    {
      "inputs": [
        {
          "internalType": "address",
          "name": "",
          "type": "address"
        }
      ],
      "name": "voters",
      "outputs": [
        {
          "internalType": "bool",
          "name": "isRegistered",
          "type": "bool"
        },
        {
          "internalType": "bool",
          "name": "hasVoted",
          "type": "bool"
        },
        {
          "internalType": "uint256",
          "name": "votedCandidateId",
          "type": "uint256"
        }
      ],
      "stateMutability": "view",
      "type": "function",
      "constant": true
    },
    {
      "inputs": [],
      "name": "workflowStatus",
      "outputs": [
        {
          "internalType": "enum Election.WorkflowStatus",
          "name": "",
          "type": "uint8"
        }
      ],
      "stateMutability": "view",
      "type": "function",
      "constant": true
    },
    {
      "inputs": [
        {
          "internalType": "address",
          "name": "_voterAddress",
          "type": "address"
        }
      ],
      "name": "registerVoter",
      "outputs": [],
      "stateMutability": "nonpayable",
      "type": "function"
    },
    {
      "inputs": [
        {
          "internalType": "string",
          "name": "_name",
          "type": "string"
        },
        {
          "internalType": "string",
          "name": "_party",
          "type": "string"
        },
        {
          "internalType": "string",
          "name": "_degree",
          "type": "string"
        }
      ],
      "name": "registerCandidate",
      "outputs": [],
      "stateMutability": "nonpayable",
      "type": "function"
    },
    {
      "inputs": [
        {
          "internalType": "uint256",
          "name": "candidateId",
          "type": "uint256"
        }
      ],
      "name": "vote",
      "outputs": [],
      "stateMutability": "nonpayable",
      "type": "function"
    },
    {
      "inputs": [
        {
          "internalType": "uint256",
          "name": "candidateId",
          "type": "uint256"
        }
      ],
      "name": "getCandidateById",
      "outputs": [
        {
          "internalType": "string",
          "name": "name",
          "type": "string"
        },
        {
          "internalType": "string",
          "name": "party",
          "type": "string"
        },
        {
          "internalType": "string",
          "name": "degree",
          "type": "string"
        },
        {
          "internalType": "uint256",
          "name": "voteCount",
          "type": "uint256"
        },
        {
          "internalType": "uint256",
          "name": "id",
          "type": "uint256"
        }
      ],
      "stateMutability": "view",
      "type": "function",
      "constant": true
    },
    {
      "inputs": [
        {
          "internalType": "string",
          "name": "Sname",
          "type": "string"
        }
      ],
      "name": "getCandidateByName",
      "outputs": [
        {
          "internalType": "string",
          "name": "name",
          "type": "string"
        },
        {
          "internalType": "string",
          "name": "party",
          "type": "string"
        },
        {
          "internalType": "string",
          "name": "degree",
          "type": "string"
        },
        {
          "internalType": "uint256",
          "name": "voteCount",
          "type": "uint256"
        }
      ],
      "stateMutability": "view",
      "type": "function",
      "constant": true
    },
    {
      "inputs": [],
      "name": "getWinner",
      "outputs": [
        {
          "components": [
            {
              "internalType": "string",
              "name": "name",
              "type": "string"
            },
            {
              "internalType": "uint256",
              "name": "voteCount",
              "type": "uint256"
            }
          ],
          "internalType": "struct Election.Result",
          "name": "",
          "type": "tuple"
        }
      ],
      "stateMutability": "view",
      "type": "function",
      "constant": true
    },
    {
      "inputs": [],
      "name": "getTotalVotes",
      "outputs": [
        {
          "internalType": "uint256",
          "name": "",
          "type": "uint256"
        }
      ],
      "stateMutability": "view",
      "type": "function",
      "constant": true
    },
    {
      "inputs": [],
      "name": "getPercentage",
      "outputs": [
        {
          "internalType": "uint256[]",
          "name": "",
          "type": "uint256[]"
        }
      ],
      "stateMutability": "view",
      "type": "function",
      "constant": true
    }
  ],
  "bytecode": "0x608060405234801561001057600080fd5b50600280546001600160a01b031916331790556005805460ff191690556117138061003c6000396000f3fe608060405234801561001057600080fd5b50600436106100ea5760003560e01c80637def7fe11161008c57806395f850221161006657806395f85022146101ec5780639a0e7d66146101ff578063a1edffa214610215578063a3ec138d1461022f57600080fd5b80637def7fe1146101895780638da5cb5b146101ac5780638e7ea5b2146101d757600080fd5b80633477ee2e116100c85780633477ee2e1461013757806335c3c8761461015b57806338db6dd31461016e5780637284e4161461018157600080fd5b80630121b93f146100ef57806306fdde03146101045780630b2accb214610122575b600080fd5b6101026100fd3660046110d1565b610280565b005b61010c6103fa565b604051610119919061113a565b60405180910390f35b61012a610488565b6040516101199190611154565b61014a6101453660046110d1565b610560565b604051610119959493929190611198565b610102610169366004611289565b61073e565b61010261017c366004611311565b61085a565b61010c610948565b61019c61019736600461133a565b610955565b6040516101199493929190611377565b6002546101bf906001600160a01b031681565b6040516001600160a01b039091168152602001610119565b6101df610c3b565b60405161011991906113c2565b61014a6101fa3660046110d1565b610db1565b610207611078565b604051908152602001610119565b6005546102229060ff1681565b60405161011991906113f4565b61026361023d366004611311565b6003602052600090815260409020805460019091015460ff808316926101009004169083565b604080519315158452911515602084015290820152606001610119565b3360009081526003602052604090205460ff166102fb5760405162461bcd60e51b815260206004820152602e60248201527f4f6e6c79207265676973746572656420766f746572732063616e2063616c6c2060448201526d3a3434b990333ab731ba34b7b71760911b60648201526084015b60405180910390fd5b33600090815260036020526040902054610100900460ff16156103605760405162461bcd60e51b815260206004820152601c60248201527f7468652063616c6c65722068617320616c726561647920766f7465640000000060448201526064016102f2565b336000908152600360205260409020805461ff001916610100178155600190810182905560048054839081106103985761039861141c565b906000526020600020906005020160030160008282546103b89190611448565b909155505060408051338152602081018390527f0902475a854b82199b4f5d6b81327ec4c4ec077ce0356a106ddc2748c5285ed391015b60405180910390a150565b6000805461040790611461565b80601f016020809104026020016040519081016040528092919081815260200182805461043390611461565b80156104805780601f1061045557610100808354040283529160200191610480565b820191906000526020600020905b81548152906001019060200180831161046357829003601f168201915b505050505081565b60606000610494611078565b60045490915060009067ffffffffffffffff8111156104b5576104b56111e6565b6040519080825280602002602001820160405280156104de578160200160208202803683370190505b50905060005b6004548110156105595782600482815481106105025761050261141c565b90600052602060002090600502016003015460646105209190611495565b61052a91906114ac565b82828151811061053c5761053c61141c565b602090810291909101015280610551816114ce565b9150506104e4565b5092915050565b6004818154811061057057600080fd5b906000526020600020906005020160009150905080600001805461059390611461565b80601f01602080910402602001604051908101604052809291908181526020018280546105bf90611461565b801561060c5780601f106105e15761010080835404028352916020019161060c565b820191906000526020600020905b8154815290600101906020018083116105ef57829003601f168201915b50505050509080600101805461062190611461565b80601f016020809104026020016040519081016040528092919081815260200182805461064d90611461565b801561069a5780601f1061066f5761010080835404028352916020019161069a565b820191906000526020600020905b81548152906001019060200180831161067d57829003601f168201915b5050505050908060020180546106af90611461565b80601f01602080910402602001604051908101604052809291908181526020018280546106db90611461565b80156107285780601f106106fd57610100808354040283529160200191610728565b820191906000526020600020905b81548152906001019060200180831161070b57829003601f168201915b5050505050908060030154908060040154905085565b6002546001600160a01b031633146107685760405162461bcd60e51b81526004016102f2906114e7565b6040805160a0810182528481526020810184905290810182905260006060820181905260048054608084018190526001810182559152815160059091027f8a35acfbc15ff81a39ae7d344fd709f28e8600b4aa8c65c6b64bfe7fe36bd19b019081906107d49082611578565b50602082015160018201906107e99082611578565b50604082015160028201906107fe9082611578565b5060608201516003820155608090910151600491820155547ff23ce42eb3d2878c26ab610ef7d3edf80e07cfb6568d4028550637f27c73db419061084490600190611638565b60405190815260200160405180910390a1505050565b6002546001600160a01b031633146108845760405162461bcd60e51b81526004016102f2906114e7565b6001600160a01b03811660009081526003602052604090205460ff16156108ed5760405162461bcd60e51b815260206004820152601f60248201527f74686520766f74657220697320616c726561647920726567697374657265640060448201526064016102f2565b6001600160a01b0381166000818152600360209081526040808320805461ffff191660019081178255019290925590519182527f42b360c89ba65a59ac7fec024a7bbb2c21d84b5abe5b5178ba0d7e34653a813091016103ef565b6001805461040790611461565b606080806000805b600454811015610c325785604051602001610978919061164b565b60405160208183030381529060405280519060200120600482815481106109a1576109a161141c565b90600052602060002090600502016000016040516020016109c29190611667565b6040516020818303038152906040528051906020012003610c2057600481815481106109f0576109f061141c565b906000526020600020906005020160000160048281548110610a1457610a1461141c565b906000526020600020906005020160010160048381548110610a3857610a3861141c565b906000526020600020906005020160020160048481548110610a5c57610a5c61141c565b906000526020600020906005020160030154838054610a7a90611461565b80601f0160208091040260200160405190810160405280929190818152602001828054610aa690611461565b8015610af35780601f10610ac857610100808354040283529160200191610af3565b820191906000526020600020905b815481529060010190602001808311610ad657829003601f168201915b50505050509350828054610b0690611461565b80601f0160208091040260200160405190810160405280929190818152602001828054610b3290611461565b8015610b7f5780601f10610b5457610100808354040283529160200191610b7f565b820191906000526020600020905b815481529060010190602001808311610b6257829003601f168201915b50505050509250818054610b9290611461565b80601f0160208091040260200160405190810160405280929190818152602001828054610bbe90611461565b8015610c0b5780601f10610be057610100808354040283529160200191610c0b565b820191906000526020600020905b815481529060010190602001808311610bee57829003601f168201915b50505050509150945094509450945050610c34565b80610c2a816114ce565b91505061095d565b505b9193509193565b604080518082019091526060815260006020820152600060015b600454811015610cc55760048281548110610c7257610c7261141c565b90600052602060002090600502016003015460048281548110610c9757610c9761141c565b9060005260206000209060050201600301541115610cb3578091505b80610cbd816114ce565b915050610c55565b50604051806040016040528060048381548110610ce457610ce461141c565b90600052602060002090600502016000018054610d0090611461565b80601f0160208091040260200160405190810160405280929190818152602001828054610d2c90611461565b8015610d795780601f10610d4e57610100808354040283529160200191610d79565b820191906000526020600020905b815481529060010190602001808311610d5c57829003601f168201915b5050505050815260200160048381548110610d9657610d9661141c565b90600052602060002090600502016003015481525091505090565b606080606060008060005b60045481101561106d578660048281548110610dda57610dda61141c565b9060005260206000209060050201600401540361105b5760048181548110610e0457610e0461141c565b906000526020600020906005020160000160048281548110610e2857610e2861141c565b906000526020600020906005020160010160048381548110610e4c57610e4c61141c565b906000526020600020906005020160020160048481548110610e7057610e7061141c565b90600052602060002090600502016003015460048581548110610e9557610e9561141c565b906000526020600020906005020160040154848054610eb390611461565b80601f0160208091040260200160405190810160405280929190818152602001828054610edf90611461565b8015610f2c5780601f10610f0157610100808354040283529160200191610f2c565b820191906000526020600020905b815481529060010190602001808311610f0f57829003601f168201915b50505050509450838054610f3f90611461565b80601f0160208091040260200160405190810160405280929190818152602001828054610f6b90611461565b8015610fb85780601f10610f8d57610100808354040283529160200191610fb8565b820191906000526020600020905b815481529060010190602001808311610f9b57829003601f168201915b50505050509350828054610fcb90611461565b80601f0160208091040260200160405190810160405280929190818152602001828054610ff790611461565b80156110445780601f1061101957610100808354040283529160200191611044565b820191906000526020600020905b81548152906001019060200180831161102757829003601f168201915b50505050509250955095509550955095505061106f565b80611065816114ce565b915050610dbc565b505b91939590929450565b600080805b6004548110156110cb576004818154811061109a5761109a61141c565b906000526020600020906005020160030154826110b79190611448565b9150806110c3816114ce565b91505061107d565b50919050565b6000602082840312156110e357600080fd5b5035919050565b60005b838110156111055781810151838201526020016110ed565b50506000910152565b600081518084526111268160208601602086016110ea565b601f01601f19169290920160200192915050565b60208152600061114d602083018461110e565b9392505050565b6020808252825182820181905260009190848201906040850190845b8181101561118c57835183529284019291840191600101611170565b50909695505050505050565b60a0815260006111ab60a083018861110e565b82810360208401526111bd818861110e565b905082810360408401526111d1818761110e565b60608401959095525050608001529392505050565b634e487b7160e01b600052604160045260246000fd5b600082601f83011261120d57600080fd5b813567ffffffffffffffff80821115611228576112286111e6565b604051601f8301601f19908116603f01168101908282118183101715611250576112506111e6565b8160405283815286602085880101111561126957600080fd5b836020870160208301376000602085830101528094505050505092915050565b60008060006060848603121561129e57600080fd5b833567ffffffffffffffff808211156112b657600080fd5b6112c2878388016111fc565b945060208601359150808211156112d857600080fd5b6112e4878388016111fc565b935060408601359150808211156112fa57600080fd5b50611307868287016111fc565b9150509250925092565b60006020828403121561132357600080fd5b81356001600160a01b038116811461114d57600080fd5b60006020828403121561134c57600080fd5b813567ffffffffffffffff81111561136357600080fd5b61136f848285016111fc565b949350505050565b60808152600061138a608083018761110e565b828103602084015261139c818761110e565b905082810360408401526113b0818661110e565b91505082606083015295945050505050565b6020815260008251604060208401526113de606084018261110e565b9050602084015160408401528091505092915050565b602081016004831061141657634e487b7160e01b600052602160045260246000fd5b91905290565b634e487b7160e01b600052603260045260246000fd5b634e487b7160e01b600052601160045260246000fd5b8082018082111561145b5761145b611432565b92915050565b600181811c9082168061147557607f821691505b6020821081036110cb57634e487b7160e01b600052602260045260246000fd5b808202811582820484141761145b5761145b611432565b6000826114c957634e487b7160e01b600052601260045260246000fd5b500490565b6000600182016114e0576114e0611432565b5060010190565b60208082526022908201527f4f6e6c79206f776e65722063616e2063616c6c20746869732066756e6374696f604082015261371760f11b606082015260800190565b601f82111561157357600081815260208120601f850160051c810160208610156115505750805b601f850160051c820191505b8181101561156f5782815560010161155c565b5050505b505050565b815167ffffffffffffffff811115611592576115926111e6565b6115a6816115a08454611461565b84611529565b602080601f8311600181146115db57600084156115c35750858301515b600019600386901b1c1916600185901b17855561156f565b600085815260208120601f198616915b8281101561160a578886015182559484019460019091019084016115eb565b50858210156116285787850151600019600388901b60f8161c191681555b5050505050600190811b01905550565b8181038181111561145b5761145b611432565b6000825161165d8184602087016110ea565b9190910192915050565b600080835461167581611461565b6001828116801561168d57600181146116a2576116d1565b60ff19841687528215158302870194506116d1565b8760005260208060002060005b858110156116c85781548a8201529084019082016116af565b50505082870194505b5092969550505050505056fea2646970667358221220fa4903753eb870ca7324dcd19fc37280c71e49f6bf6523e1cd7dbf15cc50b1d364736f6c63430008110033",
  "immutableReferences": {},
  "source": "pragma solidity ^0.8.0;\n// SPDX-License-Identifier: UNLICENSED\n\ncontract Election {\n    // Election details\n\n    string public name;\n    string public description;\n\n    address public owner;\n\n    struct Candidate {\n        string name;\n        string party;\n        string degree;\n        uint256 voteCount;\n        uint id;\n    }\n\n    // struct Party {\n    //     string name;\n    //     uint256 voteCount;\n    //     uint id;\n    // }\n\n    struct Voter {\n        bool isRegistered;\n        bool hasVoted;\n        uint256 votedCandidateId;\n    }\n\n    struct Result {\n        // uint256 candidateId;\n        // Candidate candidate;\n        string name;\n        uint256 voteCount;\n    }\n\n    mapping(address => Voter) public voters;\n    Candidate[] public candidates;\n    WorkflowStatus public workflowStatus;\n\n    // Para llevar control de cada estado\n\n    enum WorkflowStatus {\n        RegisteringVoters,\n        VotingSessionStarted,\n        VotingSessionEnded,\n        VotesTallied\n    }\n\n    constructor() public {\n        owner = msg.sender;\n        workflowStatus = WorkflowStatus.RegisteringVoters;\n    }\n\n    modifier onlyOwner() {\n        require(msg.sender == owner, \"Only owner can call this function.\");\n        _;\n    }\n\n    modifier onlyRegisteredVoter() {\n        require(\n            voters[msg.sender].isRegistered,\n            \"Only registered voters can call this function.\"\n        );\n        _;\n    }\n\n    modifier onlyDuringVotingSession() {\n        require(\n            workflowStatus == WorkflowStatus.VotingSessionStarted,\n            \"this function can be called only during voting sessions.\"\n        );\n        _;\n    }\n\n    event VoterRegisteredEvent(address voterAddress);\n    event CandidateRegisteredEvent(uint256 candidateId);\n    event VotingSessionStartedEvent();\n    event VotingSessionEndedEvent();\n    event VotedEvent(address voter, uint256 proposalId);\n    event VotesTalliedEvent();\n\n    event WorkflowStatusChangeEvent(\n        WorkflowStatus previousStatus,\n        WorkflowStatus newStatus\n    );\n\n    function registerVoter(address _voterAddress) public onlyOwner {\n        require(\n            !voters[_voterAddress].isRegistered,\n            \"the voter is already registered\"\n        );\n\n        voters[_voterAddress].isRegistered = true;\n        voters[_voterAddress].hasVoted = false;\n        voters[_voterAddress].votedCandidateId = 0;\n\n        emit VoterRegisteredEvent(_voterAddress);\n    }\n\n    function registerCandidate(string memory _name, string memory _party, string memory _degree) public onlyOwner {\n        candidates.push(\n            Candidate({name: _name, party: _party, degree: _degree, voteCount: 0, id: candidates.length})\n        );\n\n        emit CandidateRegisteredEvent(candidates.length - 1);\n    }\n\n    function vote(uint256 candidateId)\n        public\n        onlyRegisteredVoter\n    {\n        require(!voters[msg.sender].hasVoted, \"the caller has already voted\");\n\n        voters[msg.sender].hasVoted = true;\n        voters[msg.sender].votedCandidateId = candidateId;\n\n        candidates[candidateId].voteCount += 1;\n\n        emit VotedEvent(msg.sender, candidateId);\n    }\n\n    function getCandidateById(uint256 candidateId)\n        public\n        view\n        returns (\n            string memory name,\n            string memory party,\n            string memory degree,\n            uint256 voteCount,\n            uint id\n        )\n    {\n        for (uint i = 0; i < candidates.length; i++) {\n            if (candidates[i].id == candidateId) {\n                return (candidates[i].name, candidates[i].party, candidates[i].degree, candidates[i].voteCount, candidates[i].id);\n            }\n        }\n    }\n\n    function getCandidateByName(string memory Sname)\n        public\n        view\n        returns (\n            string memory name,\n            string memory party,\n            string memory degree,\n            uint256 voteCount\n        )\n    {\n        for (uint i = 0; i < candidates.length; i++) {\n            if (keccak256(abi.encodePacked(candidates[i].name)) == keccak256(abi.encodePacked(Sname))) {\n                return (candidates[i].name, candidates[i].party, candidates[i].degree, candidates[i].voteCount);\n            }\n        }\n    }\n    \n    // function getCandidatesByParty(string memory Sparty)\n    //     public\n    //     view\n    //     returns (\n    //         uint[] memory partyIds\n    //     )\n    // {\n    //     for (uint i = 0; i < candidates.length; i++) {\n    //         if (keccak256(abi.encodePacked(candidates[i].party)) == keccak256(abi.encodePacked(Sparty))) {\n    //             partyIds.push(candidates[i].id);\n    //         }\n    //     }\n    //     return partyIds;\n    // }\n\n    function getWinner() public view returns (Result memory) {\n        uint256 winnerIndex = 0;\n        for (uint256 i = 1; i < candidates.length; i++) {\n            if (candidates[i].voteCount > candidates[winnerIndex].voteCount) {\n                winnerIndex = i;\n            }\n        }\n        return Result(candidates[winnerIndex].name, candidates[winnerIndex].voteCount);\n    }\n\n    function getTotalVotes() public view returns (uint256) {\n        uint256 totalVotes = 0;\n        for (uint256 i = 0; i < candidates.length; i++) {\n            totalVotes += candidates[i].voteCount;\n        }\n        return totalVotes;\n    }\n\n    function getPercentage() public view returns (uint256[] memory) {\n        uint256 totalVotes = getTotalVotes();\n        uint256[] memory percentage = new uint256[](candidates.length);\n        for (uint256 i = 0; i < candidates.length; i++) {\n            percentage[i] = ((candidates[i].voteCount * 100) / totalVotes);\n        }\n        return percentage;\n    }\n}\n",
  "sourcePath": "/Users/abert/Desktop/chainge_voting_dapp/smart_contract/contracts/Election.sol",
  "compiler": {
    "name": "solc",
    "version": "0.8.17+commit.8df45f5f.Emscripten.clang"
  },
  "schemaVersion": "3.4.10",
  "updatedAt": "2022-10-29T20:55:34.019Z",
  "networkType": "ethereum",
  "devdoc": {
    "kind": "dev",
    "methods": {},
    "version": 1
  },
  "userdoc": {
    "kind": "user",
    "methods": {},
    "version": 1
  }
}