{
  "contractName": "Election",
  "abi": [
    {
      "inputs": [],
      "stateMutability": "nonpayable",
      "type": "constructor"
    },
    {
      "anonymous": false,
      "inputs": [
        {
          "indexed": false,
          "internalType": "uint256",
          "name": "candidateId",
          "type": "uint256"
        }
      ],
      "name": "CandidateRegisteredEvent",
      "type": "event"
    },
    {
      "anonymous": false,
      "inputs": [
        {
          "indexed": false,
          "internalType": "address",
          "name": "voter",
          "type": "address"
        },
        {
          "indexed": false,
          "internalType": "uint256",
          "name": "proposalId",
          "type": "uint256"
        }
      ],
      "name": "VotedEvent",
      "type": "event"
    },
    {
      "anonymous": false,
      "inputs": [
        {
          "indexed": false,
          "internalType": "address",
          "name": "voterAddress",
          "type": "address"
        }
      ],
      "name": "VoterRegisteredEvent",
      "type": "event"
    },
    {
      "anonymous": false,
      "inputs": [],
      "name": "VotesTalliedEvent",
      "type": "event"
    },
    {
      "anonymous": false,
      "inputs": [],
      "name": "VotingSessionEndedEvent",
      "type": "event"
    },
    {
      "anonymous": false,
      "inputs": [],
      "name": "VotingSessionStartedEvent",
      "type": "event"
    },
    {
      "anonymous": false,
      "inputs": [
        {
          "indexed": false,
          "internalType": "enum Election.WorkflowStatus",
          "name": "previousStatus",
          "type": "uint8"
        },
        {
          "indexed": false,
          "internalType": "enum Election.WorkflowStatus",
          "name": "newStatus",
          "type": "uint8"
        }
      ],
      "name": "WorkflowStatusChangeEvent",
      "type": "event"
    },
    {
      "inputs": [
        {
          "internalType": "uint256",
          "name": "",
          "type": "uint256"
        }
      ],
      "name": "candidates",
      "outputs": [
        {
          "internalType": "string",
          "name": "name",
          "type": "string"
        },
        {
          "internalType": "string",
          "name": "party",
          "type": "string"
        },
        {
          "internalType": "string",
          "name": "degree",
          "type": "string"
        },
        {
          "internalType": "uint256",
          "name": "voteCount",
          "type": "uint256"
        },
        {
          "internalType": "uint256",
          "name": "id",
          "type": "uint256"
        }
      ],
      "stateMutability": "view",
      "type": "function",
      "constant": true
    },
    {
      "inputs": [],
      "name": "description",
      "outputs": [
        {
          "internalType": "string",
          "name": "",
          "type": "string"
        }
      ],
      "stateMutability": "view",
      "type": "function",
      "constant": true
    },
    {
      "inputs": [],
      "name": "name",
      "outputs": [
        {
          "internalType": "string",
          "name": "",
          "type": "string"
        }
      ],
      "stateMutability": "view",
      "type": "function",
      "constant": true
    },
    {
      "inputs": [],
      "name": "owner",
      "outputs": [
        {
          "internalType": "address",
          "name": "",
          "type": "address"
        }
      ],
      "stateMutability": "view",
      "type": "function",
      "constant": true
    },
    {
      "inputs": [
        {
          "internalType": "uint256",
          "name": "",
          "type": "uint256"
        }
      ],
      "name": "voterRegistry",
      "outputs": [
        {
          "internalType": "string",
          "name": "",
          "type": "string"
        }
      ],
      "stateMutability": "view",
      "type": "function",
      "constant": true
    },
    {
      "inputs": [
        {
          "internalType": "address",
          "name": "",
          "type": "address"
        }
      ],
      "name": "voters",
      "outputs": [
        {
          "internalType": "bool",
          "name": "isRegistered",
          "type": "bool"
        },
        {
          "internalType": "bool",
          "name": "hasVoted",
          "type": "bool"
        },
        {
          "internalType": "string",
          "name": "voterID",
          "type": "string"
        },
        {
          "internalType": "uint256",
          "name": "votedCandidateId",
          "type": "uint256"
        }
      ],
      "stateMutability": "view",
      "type": "function",
      "constant": true
    },
    {
      "inputs": [],
      "name": "workflowStatus",
      "outputs": [
        {
          "internalType": "enum Election.WorkflowStatus",
          "name": "",
          "type": "uint8"
        }
      ],
      "stateMutability": "view",
      "type": "function",
      "constant": true
    },
    {
      "inputs": [
        {
          "internalType": "string",
          "name": "voterID",
          "type": "string"
        },
        {
          "internalType": "address",
          "name": "_voterAddress",
          "type": "address"
        }
      ],
      "name": "registerVoter",
      "outputs": [],
      "stateMutability": "nonpayable",
      "type": "function"
    },
    {
      "inputs": [
        {
          "internalType": "string",
          "name": "_name",
          "type": "string"
        },
        {
          "internalType": "string",
          "name": "_party",
          "type": "string"
        },
        {
          "internalType": "string",
          "name": "_degree",
          "type": "string"
        }
      ],
      "name": "registerCandidate",
      "outputs": [],
      "stateMutability": "nonpayable",
      "type": "function"
    },
    {
      "inputs": [
        {
          "internalType": "uint256",
          "name": "candidateId",
          "type": "uint256"
        }
      ],
      "name": "vote",
      "outputs": [],
      "stateMutability": "nonpayable",
      "type": "function"
    },
    {
      "inputs": [
        {
          "internalType": "uint256",
          "name": "candidateId",
          "type": "uint256"
        }
      ],
      "name": "getCandidateById",
      "outputs": [
        {
          "internalType": "string",
          "name": "name",
          "type": "string"
        },
        {
          "internalType": "string",
          "name": "party",
          "type": "string"
        },
        {
          "internalType": "string",
          "name": "degree",
          "type": "string"
        },
        {
          "internalType": "uint256",
          "name": "voteCount",
          "type": "uint256"
        },
        {
          "internalType": "uint256",
          "name": "id",
          "type": "uint256"
        }
      ],
      "stateMutability": "view",
      "type": "function",
      "constant": true
    },
    {
      "inputs": [
        {
          "internalType": "string",
          "name": "Sname",
          "type": "string"
        }
      ],
      "name": "getCandidateByName",
      "outputs": [
        {
          "internalType": "string",
          "name": "name",
          "type": "string"
        },
        {
          "internalType": "string",
          "name": "party",
          "type": "string"
        },
        {
          "internalType": "string",
          "name": "degree",
          "type": "string"
        },
        {
          "internalType": "uint256",
          "name": "voteCount",
          "type": "uint256"
        }
      ],
      "stateMutability": "view",
      "type": "function",
      "constant": true
    },
    {
      "inputs": [],
      "name": "getAllCandidates",
      "outputs": [
        {
          "components": [
            {
              "internalType": "string",
              "name": "name",
              "type": "string"
            },
            {
              "internalType": "string",
              "name": "party",
              "type": "string"
            },
            {
              "internalType": "string",
              "name": "degree",
              "type": "string"
            },
            {
              "internalType": "uint256",
              "name": "voteCount",
              "type": "uint256"
            },
            {
              "internalType": "uint256",
              "name": "id",
              "type": "uint256"
            }
          ],
          "internalType": "struct Election.Candidate[]",
          "name": "",
          "type": "tuple[]"
        }
      ],
      "stateMutability": "view",
      "type": "function",
      "constant": true
    },
    {
      "inputs": [],
      "name": "getWinner",
      "outputs": [
        {
          "components": [
            {
              "internalType": "string",
              "name": "name",
              "type": "string"
            },
            {
              "internalType": "uint256",
              "name": "voteCount",
              "type": "uint256"
            }
          ],
          "internalType": "struct Election.Result",
          "name": "",
          "type": "tuple"
        }
      ],
      "stateMutability": "view",
      "type": "function",
      "constant": true
    },
    {
      "inputs": [],
      "name": "getTotalVotes",
      "outputs": [
        {
          "internalType": "uint256",
          "name": "",
          "type": "uint256"
        }
      ],
      "stateMutability": "view",
      "type": "function",
      "constant": true
    },
    {
      "inputs": [],
      "name": "getPercentage",
      "outputs": [
        {
          "internalType": "uint256[]",
          "name": "",
          "type": "uint256[]"
        }
      ],
      "stateMutability": "view",
      "type": "function",
      "constant": true
    },
    {
      "inputs": [],
      "name": "getVoterRegistry",
      "outputs": [
        {
          "internalType": "string[]",
          "name": "",
          "type": "string[]"
        }
      ],
      "stateMutability": "view",
      "type": "function",
      "constant": true
    }
  ],
  "bytecode": "0x608060405234801561001057600080fd5b50600280546001600160a01b031916331790556005805460ff19169055611e108061003c6000396000f3fe608060405234801561001057600080fd5b506004361061010b5760003560e01c80637def7fe1116100a257806395f850221161007157806395f85022146102375780639a0e7d661461024a5780639f37d75214610260578063a1edffa214610273578063a3ec138d1461028d57600080fd5b80637def7fe1146101bf5780637f8b7697146101e25780638da5cb5b146101f75780638e7ea5b21461022257600080fd5b80633477ee2e116100de5780633477ee2e1461016d57806335c3c876146101915780634a075de2146101a45780637284e416146101b757600080fd5b80630121b93f1461011057806306fdde03146101255780630b2accb2146101435780632e6997fe14610158575b600080fd5b61012361011e36600461154c565b6102b0565b005b61012d61047a565b60405161013a91906115b5565b60405180910390f35b61014b610508565b60405161013a91906115cf565b6101606105e0565b60405161013a9190611613565b61018061017b36600461154c565b610809565b60405161013a9594939291906116c8565b61012361019f3660046117b9565b6109e7565b6101236101b236600461185d565b610b03565b61012d610c10565b6101d26101cd3660046118ab565b610c1d565b60405161013a94939291906118e8565b6101ea610f03565b60405161013a9190611933565b60025461020a906001600160a01b031681565b6040516001600160a01b03909116815260200161013a565b61022a610fd3565b60405161013a9190611995565b61018061024536600461154c565b611149565b610252611410565b60405190815260200161013a565b61012d61026e36600461154c565b611469565b6005546102809060ff1681565b60405161013a91906119c7565b6102a061029b3660046119ef565b611494565b60405161013a9493929190611a0a565b3360009081526003602052604090205460ff1661032b5760405162461bcd60e51b815260206004820152602e60248201527f4f6e6c79207265676973746572656420766f746572732063616e2063616c6c2060448201526d3a3434b990333ab731ba34b7b71760911b60648201526084015b60405180910390fd5b33600090815260036020526040902054610100900460ff16156103905760405162461bcd60e51b815260206004820152601c60248201527f7468652063616c6c65722068617320616c726561647920766f746564000000006044820152606401610322565b336000908152600360205260409020805461ff0019166101001781556002018190556004805460019190839081106103ca576103ca611a3e565b906000526020600020906005020160030160008282546103ea9190611a6a565b90915550503360009081526003602052604081206006805460018181018355919093527ff652222313e28459528d920b65115c16c04f3efc82aaedc97be59f3f377c0d3f9092019161043d910182611b06565b5060408051338152602081018390527f0902475a854b82199b4f5d6b81327ec4c4ec077ce0356a106ddc2748c5285ed3910160405180910390a150565b6000805461048790611a83565b80601f01602080910402602001604051908101604052809291908181526020018280546104b390611a83565b80156105005780601f106104d557610100808354040283529160200191610500565b820191906000526020600020905b8154815290600101906020018083116104e357829003601f168201915b505050505081565b60606000610514611410565b60045490915060009067ffffffffffffffff81111561053557610535611716565b60405190808252806020026020018201604052801561055e578160200160208202803683370190505b50905060005b6004548110156105d957826004828154811061058257610582611a3e565b90600052602060002090600502016003015460646105a09190611be7565b6105aa9190611bfe565b8282815181106105bc576105bc611a3e565b6020908102919091010152806105d181611c20565b915050610564565b5092915050565b60606004805480602002602001604051908101604052809291908181526020016000905b8282101561080057838290600052602060002090600502016040518060a001604052908160008201805461063790611a83565b80601f016020809104026020016040519081016040528092919081815260200182805461066390611a83565b80156106b05780601f10610685576101008083540402835291602001916106b0565b820191906000526020600020905b81548152906001019060200180831161069357829003601f168201915b505050505081526020016001820180546106c990611a83565b80601f01602080910402602001604051908101604052809291908181526020018280546106f590611a83565b80156107425780601f1061071757610100808354040283529160200191610742565b820191906000526020600020905b81548152906001019060200180831161072557829003601f168201915b5050505050815260200160028201805461075b90611a83565b80601f016020809104026020016040519081016040528092919081815260200182805461078790611a83565b80156107d45780601f106107a9576101008083540402835291602001916107d4565b820191906000526020600020905b8154815290600101906020018083116107b757829003601f168201915b505050505081526020016003820154815260200160048201548152505081526020019060010190610604565b50505050905090565b6004818154811061081957600080fd5b906000526020600020906005020160009150905080600001805461083c90611a83565b80601f016020809104026020016040519081016040528092919081815260200182805461086890611a83565b80156108b55780601f1061088a576101008083540402835291602001916108b5565b820191906000526020600020905b81548152906001019060200180831161089857829003601f168201915b5050505050908060010180546108ca90611a83565b80601f01602080910402602001604051908101604052809291908181526020018280546108f690611a83565b80156109435780601f1061091857610100808354040283529160200191610943565b820191906000526020600020905b81548152906001019060200180831161092657829003601f168201915b50505050509080600201805461095890611a83565b80601f016020809104026020016040519081016040528092919081815260200182805461098490611a83565b80156109d15780601f106109a6576101008083540402835291602001916109d1565b820191906000526020600020905b8154815290600101906020018083116109b457829003601f168201915b5050505050908060030154908060040154905085565b6002546001600160a01b03163314610a115760405162461bcd60e51b815260040161032290611c39565b6040805160a0810182528481526020810184905290810182905260006060820181905260048054608084018190526001810182559152815160059091027f8a35acfbc15ff81a39ae7d344fd709f28e8600b4aa8c65c6b64bfe7fe36bd19b01908190610a7d9082611c7b565b5060208201516001820190610a929082611c7b565b5060408201516002820190610aa79082611c7b565b5060608201516003820155608090910151600491820155547ff23ce42eb3d2878c26ab610ef7d3edf80e07cfb6568d4028550637f27c73db4190610aed90600190611d35565b60405190815260200160405180910390a1505050565b6002546001600160a01b03163314610b2d5760405162461bcd60e51b815260040161032290611c39565b6001600160a01b03811660009081526003602052604090205460ff1615610b965760405162461bcd60e51b815260206004820152601f60248201527f74686520766f74657220697320616c72656164792072656769737465726564006044820152606401610322565b6001600160a01b0381166000908152600360205260408120805461ffff191660019081178255600282019290925501610bcf8382611c7b565b506040516001600160a01b03821681527f42b360c89ba65a59ac7fec024a7bbb2c21d84b5abe5b5178ba0d7e34653a81309060200160405180910390a15050565b6001805461048790611a83565b606080806000805b600454811015610efa5785604051602001610c409190611d48565b6040516020818303038152906040528051906020012060048281548110610c6957610c69611a3e565b9060005260206000209060050201600001604051602001610c8a9190611d64565b6040516020818303038152906040528051906020012003610ee85760048181548110610cb857610cb8611a3e565b906000526020600020906005020160000160048281548110610cdc57610cdc611a3e565b906000526020600020906005020160010160048381548110610d0057610d00611a3e565b906000526020600020906005020160020160048481548110610d2457610d24611a3e565b906000526020600020906005020160030154838054610d4290611a83565b80601f0160208091040260200160405190810160405280929190818152602001828054610d6e90611a83565b8015610dbb5780601f10610d9057610100808354040283529160200191610dbb565b820191906000526020600020905b815481529060010190602001808311610d9e57829003601f168201915b50505050509350828054610dce90611a83565b80601f0160208091040260200160405190810160405280929190818152602001828054610dfa90611a83565b8015610e475780601f10610e1c57610100808354040283529160200191610e47565b820191906000526020600020905b815481529060010190602001808311610e2a57829003601f168201915b50505050509250818054610e5a90611a83565b80601f0160208091040260200160405190810160405280929190818152602001828054610e8690611a83565b8015610ed35780601f10610ea857610100808354040283529160200191610ed3565b820191906000526020600020905b815481529060010190602001808311610eb657829003601f168201915b50505050509150945094509450945050610efc565b80610ef281611c20565b915050610c25565b505b9193509193565b60606006805480602002602001604051908101604052809291908181526020016000905b82821015610800578382906000526020600020018054610f4690611a83565b80601f0160208091040260200160405190810160405280929190818152602001828054610f7290611a83565b8015610fbf5780601f10610f9457610100808354040283529160200191610fbf565b820191906000526020600020905b815481529060010190602001808311610fa257829003601f168201915b505050505081526020019060010190610f27565b604080518082019091526060815260006020820152600060015b60045481101561105d576004828154811061100a5761100a611a3e565b9060005260206000209060050201600301546004828154811061102f5761102f611a3e565b906000526020600020906005020160030154111561104b578091505b8061105581611c20565b915050610fed565b5060405180604001604052806004838154811061107c5761107c611a3e565b9060005260206000209060050201600001805461109890611a83565b80601f01602080910402602001604051908101604052809291908181526020018280546110c490611a83565b80156111115780601f106110e657610100808354040283529160200191611111565b820191906000526020600020905b8154815290600101906020018083116110f457829003601f168201915b505050505081526020016004838154811061112e5761112e611a3e565b90600052602060002090600502016003015481525091505090565b606080606060008060005b60045481101561140557866004828154811061117257611172611a3e565b906000526020600020906005020160040154036113f3576004818154811061119c5761119c611a3e565b9060005260206000209060050201600001600482815481106111c0576111c0611a3e565b9060005260206000209060050201600101600483815481106111e4576111e4611a3e565b90600052602060002090600502016002016004848154811061120857611208611a3e565b9060005260206000209060050201600301546004858154811061122d5761122d611a3e565b90600052602060002090600502016004015484805461124b90611a83565b80601f016020809104026020016040519081016040528092919081815260200182805461127790611a83565b80156112c45780601f10611299576101008083540402835291602001916112c4565b820191906000526020600020905b8154815290600101906020018083116112a757829003601f168201915b505050505094508380546112d790611a83565b80601f016020809104026020016040519081016040528092919081815260200182805461130390611a83565b80156113505780601f1061132557610100808354040283529160200191611350565b820191906000526020600020905b81548152906001019060200180831161133357829003601f168201915b5050505050935082805461136390611a83565b80601f016020809104026020016040519081016040528092919081815260200182805461138f90611a83565b80156113dc5780601f106113b1576101008083540402835291602001916113dc565b820191906000526020600020905b8154815290600101906020018083116113bf57829003601f168201915b505050505092509550955095509550955050611407565b806113fd81611c20565b915050611154565b505b91939590929450565b600080805b600454811015611463576004818154811061143257611432611a3e565b9060005260206000209060050201600301548261144f9190611a6a565b91508061145b81611c20565b915050611415565b50919050565b6006818154811061147957600080fd5b90600052602060002001600091509050805461048790611a83565b6003602052600090815260409020805460018201805460ff80841694610100909404169291906114c390611a83565b80601f01602080910402602001604051908101604052809291908181526020018280546114ef90611a83565b801561153c5780601f106115115761010080835404028352916020019161153c565b820191906000526020600020905b81548152906001019060200180831161151f57829003601f168201915b5050505050908060020154905084565b60006020828403121561155e57600080fd5b5035919050565b60005b83811015611580578181015183820152602001611568565b50506000910152565b600081518084526115a1816020860160208601611565565b601f01601f19169290920160200192915050565b6020815260006115c86020830184611589565b9392505050565b6020808252825182820181905260009190848201906040850190845b81811015611607578351835292840192918401916001016115eb565b50909695505050505050565b60006020808301818452808551808352604092508286019150828160051b87010184880160005b838110156116ba57603f19898403018552815160a0815181865261166082870182611589565b915050888201518582038a8701526116788282611589565b91505087820151858203898701526116908282611589565b6060848101519088015260809384015193909601929092525050938601939086019060010161163a565b509098975050505050505050565b60a0815260006116db60a0830188611589565b82810360208401526116ed8188611589565b905082810360408401526117018187611589565b60608401959095525050608001529392505050565b634e487b7160e01b600052604160045260246000fd5b600082601f83011261173d57600080fd5b813567ffffffffffffffff8082111561175857611758611716565b604051601f8301601f19908116603f0116810190828211818310171561178057611780611716565b8160405283815286602085880101111561179957600080fd5b836020870160208301376000602085830101528094505050505092915050565b6000806000606084860312156117ce57600080fd5b833567ffffffffffffffff808211156117e657600080fd5b6117f28783880161172c565b9450602086013591508082111561180857600080fd5b6118148783880161172c565b9350604086013591508082111561182a57600080fd5b506118378682870161172c565b9150509250925092565b80356001600160a01b038116811461185857600080fd5b919050565b6000806040838503121561187057600080fd5b823567ffffffffffffffff81111561188757600080fd5b6118938582860161172c565b9250506118a260208401611841565b90509250929050565b6000602082840312156118bd57600080fd5b813567ffffffffffffffff8111156118d457600080fd5b6118e08482850161172c565b949350505050565b6080815260006118fb6080830187611589565b828103602084015261190d8187611589565b905082810360408401526119218186611589565b91505082606083015295945050505050565b6000602080830181845280855180835260408601915060408160051b870101925083870160005b8281101561198857603f19888603018452611976858351611589565b9450928501929085019060010161195a565b5092979650505050505050565b6020815260008251604060208401526119b16060840182611589565b9050602084015160408401528091505092915050565b60208101600483106119e957634e487b7160e01b600052602160045260246000fd5b91905290565b600060208284031215611a0157600080fd5b6115c882611841565b84151581528315156020820152608060408201526000611a2d6080830185611589565b905082606083015295945050505050565b634e487b7160e01b600052603260045260246000fd5b634e487b7160e01b600052601160045260246000fd5b80820180821115611a7d57611a7d611a54565b92915050565b600181811c90821680611a9757607f821691505b60208210810361146357634e487b7160e01b600052602260045260246000fd5b601f821115611b0157600081815260208120601f850160051c81016020861015611ade5750805b601f850160051c820191505b81811015611afd57828155600101611aea565b5050505b505050565b818103611b11575050565b611b1b8254611a83565b67ffffffffffffffff811115611b3357611b33611716565b611b4781611b418454611a83565b84611ab7565b6000601f821160018114611b7b5760008315611b635750848201545b600019600385901b1c1916600184901b178455611be0565b600085815260209020601f19841690600086815260209020845b83811015611bb55782860154825560019586019590910190602001611b95565b5085831015611bd35781850154600019600388901b60f8161c191681555b50505060018360011b0184555b5050505050565b8082028115828204841417611a7d57611a7d611a54565b600082611c1b57634e487b7160e01b600052601260045260246000fd5b500490565b600060018201611c3257611c32611a54565b5060010190565b60208082526022908201527f4f6e6c79206f776e65722063616e2063616c6c20746869732066756e6374696f604082015261371760f11b606082015260800190565b815167ffffffffffffffff811115611c9557611c95611716565b611ca381611b418454611a83565b602080601f831160018114611cd85760008415611cc05750858301515b600019600386901b1c1916600185901b178555611afd565b600085815260208120601f198616915b82811015611d0757888601518255948401946001909101908401611ce8565b5085821015611d255787850151600019600388901b60f8161c191681555b5050505050600190811b01905550565b81810381811115611a7d57611a7d611a54565b60008251611d5a818460208701611565565b9190910192915050565b6000808354611d7281611a83565b60018281168015611d8a5760018114611d9f57611dce565b60ff1984168752821515830287019450611dce565b8760005260208060002060005b85811015611dc55781548a820152908401908201611dac565b50505082870194505b5092969550505050505056fea26469706673582212200ed7bd717e6be4a1c8b2ad385312e12e490b686496ed52c7af51659c0572b50264736f6c63430008110033",
  "immutableReferences": {},
  "source": "pragma solidity ^0.8.0;\r\n// SPDX-License-Identifier: UNLICENSED\r\n\r\ncontract Election {\r\n    // Election details\r\n\r\n    string public name;\r\n    string public description;\r\n\r\n    address public owner;\r\n\r\n    struct Candidate {\r\n        string name;\r\n        string party;\r\n        string degree;\r\n        uint256 voteCount;\r\n        uint id;\r\n    }\r\n\r\n    // struct Party {\r\n    //     string name;\r\n    //     uint256 voteCount;\r\n    //     uint id;\r\n    // }\r\n\r\n    struct Voter {\r\n        bool isRegistered;\r\n        bool hasVoted;\r\n        string voterID;\r\n        uint256 votedCandidateId;\r\n    }\r\n\r\n    struct Result {\r\n        // uint256 candidateId;\r\n        // Candidate candidate;\r\n        string name;\r\n        uint256 voteCount;\r\n    }\r\n\r\n    mapping(address => Voter) public voters;\r\n    Candidate[] public candidates;\r\n    WorkflowStatus public workflowStatus;\r\n    string[] public voterRegistry;\r\n\r\n    // Para llevar control de cada estado\r\n\r\n    enum WorkflowStatus {\r\n        RegisteringVoters,\r\n        VotingSessionStarted,\r\n        VotingSessionEnded,\r\n        VotesTallied\r\n    }\r\n\r\n    constructor() public {\r\n        owner = msg.sender;\r\n        workflowStatus = WorkflowStatus.RegisteringVoters;\r\n    }\r\n\r\n    modifier onlyOwner() {\r\n        require(msg.sender == owner, \"Only owner can call this function.\");\r\n        _;\r\n    }\r\n\r\n    modifier onlyRegisteredVoter() {\r\n        require(\r\n            voters[msg.sender].isRegistered,\r\n            \"Only registered voters can call this function.\"\r\n        );\r\n        _;\r\n    }\r\n\r\n    modifier onlyDuringVotingSession() {\r\n        require(\r\n            workflowStatus == WorkflowStatus.VotingSessionStarted,\r\n            \"this function can be called only during voting sessions.\"\r\n        );\r\n        _;\r\n    }\r\n\r\n    event VoterRegisteredEvent(address voterAddress);\r\n    event CandidateRegisteredEvent(uint256 candidateId);\r\n    event VotingSessionStartedEvent();\r\n    event VotingSessionEndedEvent();\r\n    event VotedEvent(address voter, uint256 proposalId);\r\n    event VotesTalliedEvent();\r\n\r\n    event WorkflowStatusChangeEvent(\r\n        WorkflowStatus previousStatus,\r\n        WorkflowStatus newStatus\r\n    );\r\n\r\n    function registerVoter(string memory voterID, address _voterAddress) public onlyOwner {\r\n        require(\r\n            !voters[_voterAddress].isRegistered,\r\n            \"the voter is already registered\"\r\n        );\r\n\r\n        voters[_voterAddress].isRegistered = true;\r\n        voters[_voterAddress].hasVoted = false;\r\n        voters[_voterAddress].votedCandidateId = 0;\r\n        voters[_voterAddress].voterID = voterID;\r\n\r\n        emit VoterRegisteredEvent(_voterAddress);\r\n    }\r\n\r\n    function registerCandidate(string memory _name, string memory _party, string memory _degree) public onlyOwner {\r\n        candidates.push(\r\n            Candidate({name: _name, party: _party, degree: _degree, voteCount: 0, id: candidates.length})\r\n        );\r\n\r\n        emit CandidateRegisteredEvent(candidates.length - 1);\r\n    }\r\n\r\n    function vote(uint256 candidateId)\r\n        public\r\n        onlyRegisteredVoter\r\n    {\r\n        require(!voters[msg.sender].hasVoted, \"the caller has already voted\");\r\n\r\n        voters[msg.sender].hasVoted = true;\r\n        voters[msg.sender].votedCandidateId = candidateId;\r\n\r\n        candidates[candidateId].voteCount += 1;\r\n// TODO: meter el votante en el registro\r\n        voterRegistry.push(voters[msg.sender].voterID);\r\n\r\n        emit VotedEvent(msg.sender, candidateId);\r\n    }\r\n\r\n    function getCandidateById(uint256 candidateId)\r\n        public\r\n        view\r\n        returns (\r\n            string memory name,\r\n            string memory party,\r\n            string memory degree,\r\n            uint256 voteCount,\r\n            uint id\r\n        )\r\n    {\r\n        for (uint i = 0; i < candidates.length; i++) {\r\n            if (candidates[i].id == candidateId) {\r\n                return (candidates[i].name, candidates[i].party, candidates[i].degree, candidates[i].voteCount, candidates[i].id);\r\n            }\r\n        }\r\n    }\r\n\r\n    function getCandidateByName(string memory Sname)\r\n        public\r\n        view\r\n        returns (\r\n            string memory name,\r\n            string memory party,\r\n            string memory degree,\r\n            uint256 voteCount\r\n        )\r\n    {\r\n        for (uint i = 0; i < candidates.length; i++) {\r\n            if (keccak256(abi.encodePacked(candidates[i].name)) == keccak256(abi.encodePacked(Sname))) {\r\n                return (candidates[i].name, candidates[i].party, candidates[i].degree, candidates[i].voteCount);\r\n            }\r\n        }\r\n    }\r\n\r\n    function getAllCandidates()\r\n        public\r\n        view\r\n        returns (Candidate[] memory)\r\n    {\r\n        return candidates;\r\n    }\r\n    \r\n    // function getCandidatesByParty(string memory Sparty)\r\n    //     public\r\n    //     view\r\n    //     returns (\r\n    //         uint[] memory partyIds\r\n    //     )\r\n    // {\r\n    //     for (uint i = 0; i < candidates.length; i++) {\r\n    //         if (keccak256(abi.encodePacked(candidates[i].party)) == keccak256(abi.encodePacked(Sparty))) {\r\n    //             partyIds.push(candidates[i].id);\r\n    //         }\r\n    //     }\r\n    //     return partyIds;\r\n    // }\r\n\r\n    function getWinner() public view returns (Result memory) {\r\n        uint256 winnerIndex = 0;\r\n        for (uint256 i = 1; i < candidates.length; i++) {\r\n            if (candidates[i].voteCount > candidates[winnerIndex].voteCount) {\r\n                winnerIndex = i;\r\n            }\r\n        }\r\n        return Result(candidates[winnerIndex].name, candidates[winnerIndex].voteCount);\r\n    }\r\n\r\n    function getTotalVotes() public view returns (uint256) {\r\n        uint256 totalVotes = 0;\r\n        for (uint256 i = 0; i < candidates.length; i++) {\r\n            totalVotes += candidates[i].voteCount;\r\n        }\r\n        return totalVotes;\r\n    }\r\n\r\n    function getPercentage() public view returns (uint256[] memory) {\r\n        uint256 totalVotes = getTotalVotes();\r\n        uint256[] memory percentage = new uint256[](candidates.length);\r\n        for (uint256 i = 0; i < candidates.length; i++) {\r\n            percentage[i] = ((candidates[i].voteCount * 100) / totalVotes);\r\n        }\r\n        return percentage;\r\n    }\r\n\r\n    function getVoterRegistry() public view returns (string[] memory) {\r\n        return voterRegistry;\r\n    }\r\n}\r\n",
  "sourcePath": "C:\\Users\\Jose Rubin\\Desktop\\Chainge\\chainge_voting_dapp\\smart_contract\\contracts\\Election.sol",
  "compiler": {
    "name": "solc",
    "version": "0.8.17+commit.8df45f5f.Emscripten.clang"
  },
  "schemaVersion": "3.4.10",
  "updatedAt": "2022-10-27T18:15:58.256Z",
  "networkType": "ethereum",
  "devdoc": {
    "kind": "dev",
    "methods": {},
    "version": 1
  },
  "userdoc": {
    "kind": "user",
    "methods": {},
    "version": 1
  }
}