{
  "contractName": "Eleccion",
  "abi": [
    {
      "inputs": [],
      "stateMutability": "nonpayable",
      "type": "constructor"
    },
    {
      "inputs": [
        {
          "internalType": "string",
          "name": "",
          "type": "string"
        },
        {
          "internalType": "string",
          "name": "",
          "type": "string"
        }
      ],
      "name": "candidatosCentroEstudiantes",
      "outputs": [
        {
          "internalType": "contract CentroEstudiantes",
          "name": "",
          "type": "address"
        }
      ],
      "stateMutability": "view",
      "type": "function",
      "constant": true
    },
    {
      "inputs": [
        {
          "internalType": "uint256",
          "name": "",
          "type": "uint256"
        }
      ],
      "name": "candidatosConsejoAcademico",
      "outputs": [
        {
          "internalType": "contract ConsejoAcademico",
          "name": "",
          "type": "address"
        }
      ],
      "stateMutability": "view",
      "type": "function",
      "constant": true
    },
    {
      "inputs": [
        {
          "internalType": "string",
          "name": "",
          "type": "string"
        },
        {
          "internalType": "string",
          "name": "",
          "type": "string"
        }
      ],
      "name": "candidatosConsejoEscuela",
      "outputs": [
        {
          "internalType": "contract ConsejoEscuela",
          "name": "",
          "type": "address"
        }
      ],
      "stateMutability": "view",
      "type": "function",
      "constant": true
    },
    {
      "inputs": [
        {
          "internalType": "string",
          "name": "",
          "type": "string"
        },
        {
          "internalType": "string",
          "name": "",
          "type": "string"
        }
      ],
      "name": "candidatosConsejoFacultad",
      "outputs": [
        {
          "internalType": "contract ConsejoFacultad",
          "name": "",
          "type": "address"
        }
      ],
      "stateMutability": "view",
      "type": "function",
      "constant": true
    },
    {
      "inputs": [
        {
          "internalType": "string",
          "name": "",
          "type": "string"
        }
      ],
      "name": "candidatosCoordinacionFCE",
      "outputs": [
        {
          "internalType": "contract CoordinacionFCE",
          "name": "",
          "type": "address"
        }
      ],
      "stateMutability": "view",
      "type": "function",
      "constant": true
    },
    {
      "inputs": [
        {
          "internalType": "string",
          "name": "",
          "type": "string"
        }
      ],
      "name": "candidatosJuntaFCE",
      "outputs": [
        {
          "internalType": "contract JuntaDirectivaFCE",
          "name": "",
          "type": "address"
        }
      ],
      "stateMutability": "view",
      "type": "function",
      "constant": true
    },
    {
      "inputs": [
        {
          "internalType": "uint256",
          "name": "",
          "type": "uint256"
        }
      ],
      "name": "registroElectoral",
      "outputs": [
        {
          "internalType": "uint256",
          "name": "",
          "type": "uint256"
        }
      ],
      "stateMutability": "view",
      "type": "function",
      "constant": true
    },
    {
      "inputs": [
        {
          "internalType": "uint256",
          "name": "",
          "type": "uint256"
        }
      ],
      "name": "votantesRegistrados",
      "outputs": [
        {
          "internalType": "contract Votante",
          "name": "",
          "type": "address"
        }
      ],
      "stateMutability": "view",
      "type": "function",
      "constant": true
    },
    {
      "inputs": [
        {
          "internalType": "uint256",
          "name": "_id",
          "type": "uint256"
        }
      ],
      "name": "agregarIDARegistro",
      "outputs": [],
      "stateMutability": "nonpayable",
      "type": "function"
    },
    {
      "inputs": [
        {
          "internalType": "uint256",
          "name": "_id",
          "type": "uint256"
        }
      ],
      "name": "checkRegistroElectoral",
      "outputs": [
        {
          "internalType": "bool",
          "name": "",
          "type": "bool"
        }
      ],
      "stateMutability": "view",
      "type": "function",
      "constant": true
    },
    {
      "inputs": [
        {
          "internalType": "uint256",
          "name": "_id",
          "type": "uint256"
        },
        {
          "internalType": "string[]",
          "name": "_carreras",
          "type": "string[]"
        },
        {
          "internalType": "string[]",
          "name": "_facultades",
          "type": "string[]"
        }
      ],
      "name": "agregarVotante",
      "outputs": [],
      "stateMutability": "nonpayable",
      "type": "function"
    },
    {
      "inputs": [
        {
          "internalType": "uint256",
          "name": "_id",
          "type": "uint256"
        }
      ],
      "name": "getVotanteInfo",
      "outputs": [
        {
          "internalType": "uint256",
          "name": "",
          "type": "uint256"
        },
        {
          "internalType": "string[]",
          "name": "",
          "type": "string[]"
        },
        {
          "internalType": "string[]",
          "name": "",
          "type": "string[]"
        }
      ],
      "stateMutability": "view",
      "type": "function",
      "constant": true
    },
    {
      "inputs": [
        {
          "internalType": "uint256",
          "name": "_id",
          "type": "uint256"
        }
      ],
      "name": "getVotanteCulminoVotacion",
      "outputs": [
        {
          "internalType": "bool",
          "name": "",
          "type": "bool"
        }
      ],
      "stateMutability": "view",
      "type": "function",
      "constant": true
    },
    {
      "inputs": [
        {
          "internalType": "uint256",
          "name": "_id",
          "type": "uint256"
        }
      ],
      "name": "getVotanteSeccionesVotadas",
      "outputs": [
        {
          "internalType": "bool",
          "name": "",
          "type": "bool"
        },
        {
          "internalType": "bool",
          "name": "",
          "type": "bool"
        },
        {
          "internalType": "bool",
          "name": "",
          "type": "bool"
        },
        {
          "internalType": "bool",
          "name": "",
          "type": "bool"
        },
        {
          "internalType": "bool",
          "name": "",
          "type": "bool"
        },
        {
          "internalType": "bool",
          "name": "",
          "type": "bool"
        }
      ],
      "stateMutability": "view",
      "type": "function",
      "constant": true
    },
    {
      "inputs": [
        {
          "internalType": "uint256",
          "name": "_id",
          "type": "uint256"
        }
      ],
      "name": "getVotanteNumeroVotos",
      "outputs": [
        {
          "internalType": "uint256",
          "name": "",
          "type": "uint256"
        },
        {
          "internalType": "uint256",
          "name": "",
          "type": "uint256"
        },
        {
          "internalType": "uint256",
          "name": "",
          "type": "uint256"
        }
      ],
      "stateMutability": "view",
      "type": "function",
      "constant": true
    },
    {
      "inputs": [
        {
          "internalType": "string",
          "name": "_nombre",
          "type": "string"
        },
        {
          "internalType": "uint256",
          "name": "_id",
          "type": "uint256"
        },
        {
          "internalType": "string",
          "name": "_carrera",
          "type": "string"
        }
      ],
      "name": "agregarCandidatoConsejoAcademico",
      "outputs": [],
      "stateMutability": "nonpayable",
      "type": "function"
    },
    {
      "inputs": [
        {
          "internalType": "uint256",
          "name": "_id",
          "type": "uint256"
        }
      ],
      "name": "getCandidatoConsejoAcademico",
      "outputs": [
        {
          "internalType": "string",
          "name": "",
          "type": "string"
        },
        {
          "internalType": "uint256",
          "name": "",
          "type": "uint256"
        },
        {
          "internalType": "string",
          "name": "",
          "type": "string"
        },
        {
          "internalType": "uint256",
          "name": "",
          "type": "uint256"
        }
      ],
      "stateMutability": "view",
      "type": "function",
      "constant": true
    },
    {
      "inputs": [
        {
          "internalType": "uint256",
          "name": "_id",
          "type": "uint256"
        },
        {
          "internalType": "uint256",
          "name": "_voterID",
          "type": "uint256"
        }
      ],
      "name": "voteCandidatoConsejoAcademico",
      "outputs": [],
      "stateMutability": "nonpayable",
      "type": "function"
    },
    {
      "inputs": [
        {
          "internalType": "string",
          "name": "_agrupacion",
          "type": "string"
        },
        {
          "internalType": "string",
          "name": "_siglas",
          "type": "string"
        }
      ],
      "name": "agregarCandidatoJuntaDirectivaFCE",
      "outputs": [],
      "stateMutability": "nonpayable",
      "type": "function"
    },
    {
      "inputs": [
        {
          "internalType": "string",
          "name": "_siglas",
          "type": "string"
        }
      ],
      "name": "getCandidatoJuntaDirectivaFCE",
      "outputs": [
        {
          "internalType": "string",
          "name": "",
          "type": "string"
        },
        {
          "internalType": "string",
          "name": "",
          "type": "string"
        },
        {
          "internalType": "uint256",
          "name": "",
          "type": "uint256"
        }
      ],
      "stateMutability": "view",
      "type": "function",
      "constant": true
    },
    {
      "inputs": [
        {
          "internalType": "string",
          "name": "_siglas",
          "type": "string"
        },
        {
          "internalType": "uint256",
          "name": "_voterID",
          "type": "uint256"
        }
      ],
      "name": "voteCandidatoJuntaDirectivaFCE",
      "outputs": [],
      "stateMutability": "nonpayable",
      "type": "function"
    },
    {
      "inputs": [
        {
          "internalType": "string",
          "name": "_agrupacion",
          "type": "string"
        },
        {
          "internalType": "string",
          "name": "_siglas",
          "type": "string"
        }
      ],
      "name": "agregarCandidatoCoordinacionFCE",
      "outputs": [],
      "stateMutability": "nonpayable",
      "type": "function"
    },
    {
      "inputs": [
        {
          "internalType": "string",
          "name": "_siglas",
          "type": "string"
        }
      ],
      "name": "getCandidatoCoordinacionFCE",
      "outputs": [
        {
          "internalType": "string",
          "name": "",
          "type": "string"
        },
        {
          "internalType": "string",
          "name": "",
          "type": "string"
        },
        {
          "internalType": "uint256",
          "name": "",
          "type": "uint256"
        }
      ],
      "stateMutability": "view",
      "type": "function",
      "constant": true
    },
    {
      "inputs": [
        {
          "internalType": "string",
          "name": "_siglas",
          "type": "string"
        },
        {
          "internalType": "uint256",
          "name": "_voterID",
          "type": "uint256"
        }
      ],
      "name": "voteCandidatoCoordinacionFCE",
      "outputs": [],
      "stateMutability": "nonpayable",
      "type": "function"
    },
    {
      "inputs": [
        {
          "internalType": "string",
          "name": "_nombre",
          "type": "string"
        },
        {
          "internalType": "string",
          "name": "_siglas",
          "type": "string"
        },
        {
          "internalType": "string",
          "name": "_escuela",
          "type": "string"
        }
      ],
      "name": "agregarCandidatoCentroEstudiantes",
      "outputs": [],
      "stateMutability": "nonpayable",
      "type": "function"
    },
    {
      "inputs": [
        {
          "internalType": "string",
          "name": "_siglas",
          "type": "string"
        },
        {
          "internalType": "string",
          "name": "_escuela",
          "type": "string"
        }
      ],
      "name": "getCandidatoCentroEstudiantes",
      "outputs": [
        {
          "internalType": "string",
          "name": "",
          "type": "string"
        },
        {
          "internalType": "string",
          "name": "",
          "type": "string"
        },
        {
          "internalType": "string",
          "name": "",
          "type": "string"
        },
        {
          "internalType": "uint256",
          "name": "",
          "type": "uint256"
        }
      ],
      "stateMutability": "view",
      "type": "function",
      "constant": true
    },
    {
      "inputs": [
        {
          "internalType": "string",
          "name": "_siglas",
          "type": "string"
        },
        {
          "internalType": "string",
          "name": "_escuela",
          "type": "string"
        },
        {
          "internalType": "uint256",
          "name": "_voterID",
          "type": "uint256"
        }
      ],
      "name": "voteCandidatoCentroEstudiantes",
      "outputs": [],
      "stateMutability": "nonpayable",
      "type": "function"
    },
    {
      "inputs": [
        {
          "internalType": "string",
          "name": "_nombre",
          "type": "string"
        },
        {
          "internalType": "string",
          "name": "_siglas",
          "type": "string"
        },
        {
          "internalType": "string",
          "name": "_escuela",
          "type": "string"
        }
      ],
      "name": "agregarCandidatoConsejoEscuela",
      "outputs": [],
      "stateMutability": "nonpayable",
      "type": "function"
    },
    {
      "inputs": [
        {
          "internalType": "string",
          "name": "_siglas",
          "type": "string"
        },
        {
          "internalType": "string",
          "name": "_escuela",
          "type": "string"
        }
      ],
      "name": "getCandidatoConsejoEscuela",
      "outputs": [
        {
          "internalType": "string",
          "name": "",
          "type": "string"
        },
        {
          "internalType": "string",
          "name": "",
          "type": "string"
        },
        {
          "internalType": "string",
          "name": "",
          "type": "string"
        },
        {
          "internalType": "uint256",
          "name": "",
          "type": "uint256"
        }
      ],
      "stateMutability": "view",
      "type": "function",
      "constant": true
    },
    {
      "inputs": [
        {
          "internalType": "string",
          "name": "_siglas",
          "type": "string"
        },
        {
          "internalType": "string",
          "name": "_escuela",
          "type": "string"
        },
        {
          "internalType": "uint256",
          "name": "_voterID",
          "type": "uint256"
        }
      ],
      "name": "voteCandidatoConsejoEscuela",
      "outputs": [],
      "stateMutability": "nonpayable",
      "type": "function"
    },
    {
      "inputs": [
        {
          "internalType": "string",
          "name": "_nombre",
          "type": "string"
        },
        {
          "internalType": "string",
          "name": "_siglas",
          "type": "string"
        },
        {
          "internalType": "string",
          "name": "_facultad",
          "type": "string"
        }
      ],
      "name": "agregarCandidatoConsejoFacultad",
      "outputs": [],
      "stateMutability": "nonpayable",
      "type": "function"
    },
    {
      "inputs": [
        {
          "internalType": "string",
          "name": "_siglas",
          "type": "string"
        },
        {
          "internalType": "string",
          "name": "_facultad",
          "type": "string"
        }
      ],
      "name": "getCandidatoConsejoFacultad",
      "outputs": [
        {
          "internalType": "string",
          "name": "",
          "type": "string"
        },
        {
          "internalType": "string",
          "name": "",
          "type": "string"
        },
        {
          "internalType": "string",
          "name": "",
          "type": "string"
        },
        {
          "internalType": "uint256",
          "name": "",
          "type": "uint256"
        }
      ],
      "stateMutability": "view",
      "type": "function",
      "constant": true
    },
    {
      "inputs": [
        {
          "internalType": "string",
          "name": "_siglas",
          "type": "string"
        },
        {
          "internalType": "string",
          "name": "_facultad",
          "type": "string"
        },
        {
          "internalType": "uint256",
          "name": "_voterID",
          "type": "uint256"
        }
      ],
      "name": "voteCandidatoConsejoFacultad",
      "outputs": [],
      "stateMutability": "nonpayable",
      "type": "function"
    }
  ],
  "bytecode": "0x608060405234801561001057600080fd5b50600180546001600160a01b03191633179055615763806100326000396000f3fe60806040523480156200001157600080fd5b5060043610620002255760003560e01c8063763d768e1162000131578063aa6f0cd411620000bb578063c22941841162000086578063c2294184146200064c578063e24fec811462000663578063eaa8411e14620006b7578063ebd5d66114620006e3578063ef3a4e9f14620006fa57600080fd5b8063aa6f0cd414620005db578063b706b6c714620005f2578063b85db62b1462000609578063c0465f78146200063557600080fd5b8063897307c111620000fc578063897307c1146200055f5780638a7acd9f1462000576578063948f79de14620005ad5780639f06be5c14620005c457600080fd5b8063763d768e14620004c65780637f30699014620004dd578063829f00fb14620004f4578063882685d5146200054857600080fd5b80635243d6f411620001b3578063604e84ed116200017e578063604e84ed146200045b5780636d93e2cc14620004725780636da282ea146200049857806371a2c97b14620004af57600080fd5b80635243d6f414620003a9578063551ed07d14620003fa5780635728764714620004115780635d11ac8e146200042857600080fd5b806321f13e7e11620001f457806321f13e7e146200030a5780634549c16014620003335780634b89420c146200034a5780634f64dc05146200038157600080fd5b80630219f382146200022a5780630ff680ca146200025c5780631066035c146200027557806321bd2e9814620002e2575b600080fd5b620002416200023b36600462002464565b62000722565b60405162000253949392919062002522565b60405180910390f35b620002736200026d36600462002573565b620009e9565b005b620002c96200028636600462002464565b815160208184018101805160098252928201948201949094209190935281518083018401805192815290840192909301919091209152546001600160a01b031681565b6040516001600160a01b03909116815260200162000253565b620002f9620002f3366004620025bb565b62000ad7565b6040516200025393929190620025fb565b620003216200031b36600462002635565b62000c91565b6040516200025394939291906200264f565b62000273620003443660046200267e565b62000e93565b620002c96200035b366004620025bb565b80516020818301810180516006825292820191909301209152546001600160a01b031681565b620003986200039236600462002635565b62000f34565b604051901515815260200162000253565b620003c0620003ba36600462002635565b62000f92565b604080519615158752941515602087015292151593850193909352151560608401529015156080830152151560a082015260c00162000253565b620002736200040b36600462002635565b62001291565b62000273620004223660046200270f565b62001335565b6200043f6200043936600462002635565b62001442565b6040805193845260208401929092529082015260600162000253565b620002736200046c36600462002782565b6200158f565b620004896200048336600462002635565b62001647565b60405190815260200162000253565b62000273620004a93660046200270f565b62001669565b62000273620004c036600462002573565b62001756565b62000398620004d736600462002635565b62001825565b620002f9620004ee366004620025bb565b620018a4565b620002c96200050536600462002464565b815160208184018101805160088252928201948201949094209190935281518083018401805192815290840192909301919091209152546001600160a01b031681565b620002736200055936600462002464565b620019db565b62000273620005703660046200267e565b62001a5b565b620002c962000587366004620025bb565b80516020818301810180516005825292820191909301209152546001600160a01b031681565b62000273620005be366004620027a5565b62001aaa565b62000273620005d53660046200267e565b62001b18565b62000273620005ec36600462002464565b62001b67565b6200027362000603366004620028b9565b62001bb4565b620002c96200061a36600462002635565b6003602052600090815260409020546001600160a01b031681565b620002416200064636600462002464565b62001c8c565b620002736200065d3660046200270f565b62001eaf565b620002c96200067436600462002464565b815160208184018101805160078252928201948201949094209190935281518083018401805192815290840192909301919091209152546001600160a01b031681565b620002c9620006c836600462002635565b6004602052600090815260409020546001600160a01b031681565b62000241620006f436600462002464565b62001f9c565b620007116200070b36600462002635565b620021bf565b60405162000253939291906200297b565b606080606060006007856040516200073b9190620029b4565b908152602001604051809103902086604051620007599190620029b4565b9081526040805191829003602001822054635e3d9ad960e11b835290516001600160a01b039091169163bc7b35b29160048083019260009291908290030181865afa158015620007ad573d6000803e3d6000fd5b505050506040513d6000823e601f3d908101601f19168201604052620007d7919081019062002a1e565b600786604051620007e99190620029b4565b908152602001604051809103902087604051620008079190620029b4565b908152604080519182900360200182205463675892ad60e01b835290516001600160a01b039091169163675892ad9160048083019260009291908290030181865afa1580156200085b573d6000803e3d6000fd5b505050506040513d6000823e601f3d908101601f1916820160405262000885919081019062002a1e565b600787604051620008979190620029b4565b908152602001604051809103902088604051620008b59190620029b4565b9081526040805191829003602001822054634c22e9a560e11b835290516001600160a01b0390911691639845d34a9160048083019260009291908290030181865afa15801562000909573d6000803e3d6000fd5b505050506040513d6000823e601f3d908101601f1916820160405262000933919081019062002a1e565b600788604051620009459190620029b4565b908152602001604051809103902089604051620009639190620029b4565b908152604080516020928190038301812054630d15fd7760e01b825291516001600160a01b0390921692630d15fd77926004808401938290030181865afa158015620009b3573d6000803e3d6000fd5b505050506040513d601f19601f82011682018060405250810190620009d9919062002a56565b9299919850965090945092505050565b6000600583604051620009fd9190620029b4565b90815260408051918290036020018220546331954d2960e11b835290516001600160a01b039091169250829163632a9a5291600480830192600092919082900301818387803b15801562000a5057600080fd5b505af115801562000a65573d6000803e3d6000fd5b505050600083815260036020526040808220548151631f68d09160e21b815291516001600160a01b0390911693508392637da34244926004808201939182900301818387803b15801562000ab857600080fd5b505af115801562000acd573d6000803e3d6000fd5b5050505050505050565b606080600060058460405162000aee9190620029b4565b90815260408051918290036020018220546388305c2360e01b835290516001600160a01b03909116916388305c239160048083019260009291908290030181865afa15801562000b42573d6000803e3d6000fd5b505050506040513d6000823e601f3d908101601f1916820160405262000b6c919081019062002a1e565b60058560405162000b7e9190620029b4565b908152604080519182900360200182205463675892ad60e01b835290516001600160a01b039091169163675892ad9160048083019260009291908290030181865afa15801562000bd2573d6000803e3d6000fd5b505050506040513d6000823e601f3d908101601f1916820160405262000bfc919081019062002a1e565b60058660405162000c0e9190620029b4565b908152604080516020928190038301812054630d15fd7760e01b825291516001600160a01b0390921692630d15fd77926004808401938290030181865afa15801562000c5e573d6000803e3d6000fd5b505050506040513d601f19601f8201168201806040525081019062000c84919062002a56565b9250925092509193909250565b60008181526004602081905260408083205481516306fdde0360e01b8152915160609493859385936001600160a01b0316926306fdde039282810192869291908290030181865afa15801562000ceb573d6000803e3d6000fd5b505050506040513d6000823e601f3d908101601f1916820160405262000d15919081019062002a1e565b60008681526004602081815260409283902054835163af640d0f60e01b815293516001600160a01b039091169363af640d0f938181019392918290030181865afa15801562000d68573d6000803e3d6000fd5b505050506040513d601f19601f8201168201806040525081019062000d8e919062002a56565b60008781526004602081905260408083205481516360329f4160e11b815291516001600160a01b039091169363c0653e8293838101939192918290030181865afa15801562000de1573d6000803e3d6000fd5b505050506040513d6000823e601f3d908101601f1916820160405262000e0b919081019062002a1e565b600088815260046020818152604092839020548351630d15fd7760e01b815293516001600160a01b0390911693630d15fd77938181019392918290030181865afa15801562000e5e573d6000803e3d6000fd5b505050506040513d601f19601f8201168201806040525081019062000e84919062002a56565b93509350935093509193509193565b82828260405162000ea49062002333565b62000eb29392919062002a70565b604051809103906000f08015801562000ecf573d6000803e3d6000fd5b5060098260405162000ee29190620029b4565b90815260200160405180910390208360405162000f009190620029b4565b90815260405190819003602001902080546001600160a01b03929092166001600160a01b0319909216919091179055505050565b6000805b60025481101562000f8957826002828154811062000f5a5762000f5a62002aaf565b90600052602060002001540362000f745750600192915050565b8062000f808162002ac5565b91505062000f38565b50600092915050565b6000818152600360209081526040808320548151630f79f21160e41b81529151849384938493849384936001600160a01b039092169263f79f21109260048083019391928290030181865afa15801562000ff0573d6000803e3d6000fd5b505050506040513d601f19601f8201168201806040525081019062001016919062002aed565b6000888152600360209081526040918290205482516344cd1b2160e01b815292516001600160a01b03909116926344cd1b219260048083019391928290030181865afa1580156200106b573d6000803e3d6000fd5b505050506040513d601f19601f8201168201806040525081019062001091919062002aed565b600089815260036020908152604091829020548251632b4af7a360e01b815292516001600160a01b0390911692632b4af7a39260048083019391928290030181865afa158015620010e6573d6000803e3d6000fd5b505050506040513d601f19601f820116820180604052508101906200110c919062002aed565b60008a8152600360209081526040918290205482516323b55e7360e11b815292516001600160a01b039091169263476abce69260048083019391928290030181865afa15801562001161573d6000803e3d6000fd5b505050506040513d601f19601f8201168201806040525081019062001187919062002aed565b60008b8152600360209081526040918290205482516364debb8f60e01b815292516001600160a01b03909116926364debb8f9260048083019391928290030181865afa158015620011dc573d6000803e3d6000fd5b505050506040513d601f19601f8201168201806040525081019062001202919062002aed565b60008c815260036020908152604091829020548251632d64a97960e11b815292516001600160a01b0390911692635ac952f29260048083019391928290030181865afa15801562001257573d6000803e3d6000fd5b505050506040513d601f19601f820116820180604052508101906200127d919062002aed565b949c939b5091995097509550909350915050565b6200129c8162000f34565b15620013005760405162461bcd60e51b815260206004820152602860248201527f596120736520656e6375656e74726120656e20656c20726567697374726f20656044820152671b1958dd1bdc985b60c21b60648201526084015b60405180910390fd5b600280546001810182556000919091527f405787fa12a823e0f2b7631cc41b3ba8828b3321ca811111fa75cd3aa3bb5ace0155565b6000600883604051620013499190620029b4565b908152602001604051809103902084604051620013679190620029b4565b90815260408051918290036020018220546331954d2960e11b835290516001600160a01b039091169250829163632a9a5291600480830192600092919082900301818387803b158015620013ba57600080fd5b505af1158015620013cf573d6000803e3d6000fd5b5050506000838152600360205260408082205481516318ba0a4d60e11b815291516001600160a01b0390911693508392633174149a926004808201939182900301818387803b1580156200142257600080fd5b505af115801562001437573d6000803e3d6000fd5b505050505050505050565b60008181526003602090815260408083205481516391b1475360e01b81529151849384936001600160a01b03909316926391b1475392600480830193928290030181865afa15801562001499573d6000803e3d6000fd5b505050506040513d601f19601f82011682018060405250810190620014bf919062002a56565b60008581526003602090815260409182902054825163bcd75c5360e01b815292516001600160a01b039091169263bcd75c539260048083019391928290030181865afa15801562001514573d6000803e3d6000fd5b505050506040513d601f19601f820116820180604052508101906200153a919062002a56565b600086815260036020908152604091829020548251631d8b195f60e31b815292516001600160a01b039091169263ec58caf89260048083019391928290030181865afa15801562000c5e573d6000803e3d6000fd5b60008281526004602081905260408083205481516331954d2960e11b815291516001600160a01b0390911693849363632a9a529380820193919082900301818387803b158015620015df57600080fd5b505af1158015620015f4573d6000803e3d6000fd5b5050506000838152600360205260408082205481516397e8cff960e01b815291516001600160a01b03909116935083926397e8cff9926004808201939182900301818387803b15801562000ab857600080fd5b600281815481106200165857600080fd5b600091825260209091200154905081565b60006009836040516200167d9190620029b4565b9081526020016040518091039020846040516200169b9190620029b4565b90815260408051918290036020018220546331954d2960e11b835290516001600160a01b039091169250829163632a9a5291600480830192600092919082900301818387803b158015620016ee57600080fd5b505af115801562001703573d6000803e3d6000fd5b505050600083815260036020526040808220548151636c6bd0f360e01b815291516001600160a01b0390911693508392636c6bd0f3926004808201939182900301818387803b1580156200142257600080fd5b60006006836040516200176a9190620029b4565b90815260408051918290036020018220546331954d2960e11b835290516001600160a01b039091169250829163632a9a5291600480830192600092919082900301818387803b158015620017bd57600080fd5b505af1158015620017d2573d6000803e3d6000fd5b505050600083815260036020526040808220548151631afe0f6760e11b815291516001600160a01b03909116935083926335fc1ece926004808201939182900301818387803b15801562000ab857600080fd5b60008181526003602090815260408083205481516329a5e67f60e21b815291516001600160a01b039091169263a69799fc92600480820193918290030181865afa15801562001878573d6000803e3d6000fd5b505050506040513d601f19601f820116820180604052508101906200189e919062002aed565b92915050565b6060806000600684604051620018bb9190620029b4565b90815260408051918290036020018220546388305c2360e01b835290516001600160a01b03909116916388305c239160048083019260009291908290030181865afa1580156200190f573d6000803e3d6000fd5b505050506040513d6000823e601f3d908101601f1916820160405262001939919081019062002a1e565b6006856040516200194b9190620029b4565b908152604080519182900360200182205463675892ad60e01b835290516001600160a01b039091169163675892ad9160048083019260009291908290030181865afa1580156200199f573d6000803e3d6000fd5b505050506040513d6000823e601f3d908101601f19168201604052620019c9919081019062002a1e565b60068660405162000c0e9190620029b4565b8181604051620019eb9062002341565b620019f892919062002b18565b604051809103906000f08015801562001a15573d6000803e3d6000fd5b5060068260405162001a289190620029b4565b90815260405190819003602001902080546001600160a01b03929092166001600160a01b03199092169190911790555050565b82828260405162001a6c906200234f565b62001a7a9392919062002a70565b604051809103906000f08015801562001a97573d6000803e3d6000fd5b5060078260405162000ee29190620029b4565b82828260405162001abb906200235d565b62001ac99392919062002b4a565b604051809103906000f08015801562001ae6573d6000803e3d6000fd5b5060009283526004602052604090922080546001600160a01b0319166001600160a01b03909316929092179091555050565b82828260405162001b29906200236b565b62001b379392919062002a70565b604051809103906000f08015801562001b54573d6000803e3d6000fd5b5060088260405162000ee29190620029b4565b818160405162001b779062002379565b62001b8492919062002b18565b604051809103906000f08015801562001ba1573d6000803e3d6000fd5b5060058260405162001a289190620029b4565b62001bbf8362000f34565b62001c1e5760405162461bcd60e51b815260206004820152602860248201527f4e6f20736520656e6375656e74726120656e20656c20726567697374726f20656044820152671b1958dd1bdc985b60c21b6064820152608401620012f7565b82828260405162001c2f9062002387565b62001c3d939291906200297b565b604051809103906000f08015801562001c5a573d6000803e3d6000fd5b5060009384526003602052604090932080546001600160a01b0319166001600160a01b03909416939093179092555050565b6060806060600060088560405162001ca59190620029b4565b90815260200160405180910390208660405162001cc39190620029b4565b9081526040805191829003602001822054635e3d9ad960e11b835290516001600160a01b039091169163bc7b35b29160048083019260009291908290030181865afa15801562001d17573d6000803e3d6000fd5b505050506040513d6000823e601f3d908101601f1916820160405262001d41919081019062002a1e565b60088660405162001d539190620029b4565b90815260200160405180910390208760405162001d719190620029b4565b908152604080519182900360200182205463675892ad60e01b835290516001600160a01b039091169163675892ad9160048083019260009291908290030181865afa15801562001dc5573d6000803e3d6000fd5b505050506040513d6000823e601f3d908101601f1916820160405262001def919081019062002a1e565b60088760405162001e019190620029b4565b90815260200160405180910390208860405162001e1f9190620029b4565b9081526040805191829003602001822054634c22e9a560e11b835290516001600160a01b0390911691639845d34a9160048083019260009291908290030181865afa15801562001e73573d6000803e3d6000fd5b505050506040513d6000823e601f3d908101601f1916820160405262001e9d919081019062002a1e565b600888604051620009459190620029b4565b600060078360405162001ec39190620029b4565b90815260200160405180910390208460405162001ee19190620029b4565b90815260408051918290036020018220546331954d2960e11b835290516001600160a01b039091169250829163632a9a5291600480830192600092919082900301818387803b15801562001f3457600080fd5b505af115801562001f49573d6000803e3d6000fd5b5050506000838152600360205260408082205481516391a10b0160e01b815291516001600160a01b03909116935083926391a10b01926004808201939182900301818387803b1580156200142257600080fd5b6060806060600060098560405162001fb59190620029b4565b90815260200160405180910390208660405162001fd39190620029b4565b9081526040805191829003602001822054635e3d9ad960e11b835290516001600160a01b039091169163bc7b35b29160048083019260009291908290030181865afa15801562002027573d6000803e3d6000fd5b505050506040513d6000823e601f3d908101601f1916820160405262002051919081019062002a1e565b600986604051620020639190620029b4565b908152602001604051809103902087604051620020819190620029b4565b908152604080519182900360200182205463675892ad60e01b835290516001600160a01b039091169163675892ad9160048083019260009291908290030181865afa158015620020d5573d6000803e3d6000fd5b505050506040513d6000823e601f3d908101601f19168201604052620020ff919081019062002a1e565b600987604051620021119190620029b4565b9081526020016040518091039020886040516200212f9190620029b4565b908152604080519182900360200182205463148213bb60e01b835290516001600160a01b039091169163148213bb9160048083019260009291908290030181865afa15801562002183573d6000803e3d6000fd5b505050506040513d6000823e601f3d908101601f19168201604052620021ad919081019062002a1e565b600988604051620009459190620029b4565b600081815260036020908152604080832054815163ab9dbd0760e01b8152915160609384936001600160a01b039093169263ab9dbd0792600480830193928290030181865afa15801562002217573d6000803e3d6000fd5b505050506040513d601f19601f820116820180604052508101906200223d919062002a56565b6000858152600360205260408082205481516361a6958760e01b815291516001600160a01b03909116926361a6958792600480820193918290030181865afa1580156200228e573d6000803e3d6000fd5b505050506040513d6000823e601f3d908101601f19168201604052620022b8919081019062002b79565b600086815260036020526040808220548151634a51ede360e01b815291516001600160a01b0390911692634a51ede392600480820193918290030181865afa15801562002309573d6000803e3d6000fd5b505050506040513d6000823e601f3d908101601f1916820160405262000c84919081019062002b79565b61053f8062002c3683390190565b610542806200317583390190565b61053f80620036b783390190565b6105158062003bf683390190565b61053f806200410b83390190565b610545806200464a83390190565b610b9f8062004b8f83390190565b634e487b7160e01b600052604160045260246000fd5b604051601f8201601f191681016001600160401b0381118282101715620023d657620023d662002395565b604052919050565b60006001600160401b03821115620023fa57620023fa62002395565b50601f01601f191660200190565b600082601f8301126200241a57600080fd5b8135620024316200242b82620023de565b620023ab565b8181528460208386010111156200244757600080fd5b816020850160208301376000918101602001919091529392505050565b600080604083850312156200247857600080fd5b82356001600160401b03808211156200249057600080fd5b6200249e8683870162002408565b93506020850135915080821115620024b557600080fd5b50620024c48582860162002408565b9150509250929050565b60005b83811015620024eb578181015183820152602001620024d1565b50506000910152565b600081518084526200250e816020860160208601620024ce565b601f01601f19169290920160200192915050565b608081526000620025376080830187620024f4565b82810360208401526200254b8187620024f4565b90508281036040840152620025618186620024f4565b91505082606083015295945050505050565b600080604083850312156200258757600080fd5b82356001600160401b038111156200259e57600080fd5b620025ac8582860162002408565b95602094909401359450505050565b600060208284031215620025ce57600080fd5b81356001600160401b03811115620025e557600080fd5b620025f38482850162002408565b949350505050565b606081526000620026106060830186620024f4565b8281036020840152620026248186620024f4565b915050826040830152949350505050565b6000602082840312156200264857600080fd5b5035919050565b608081526000620026646080830187620024f4565b8560208401528281036040840152620025618186620024f4565b6000806000606084860312156200269457600080fd5b83356001600160401b0380821115620026ac57600080fd5b620026ba8783880162002408565b94506020860135915080821115620026d157600080fd5b620026df8783880162002408565b93506040860135915080821115620026f657600080fd5b50620027058682870162002408565b9150509250925092565b6000806000606084860312156200272557600080fd5b83356001600160401b03808211156200273d57600080fd5b6200274b8783880162002408565b945060208601359150808211156200276257600080fd5b50620027718682870162002408565b925050604084013590509250925092565b600080604083850312156200279657600080fd5b50508035926020909101359150565b600080600060608486031215620027bb57600080fd5b83356001600160401b0380821115620027d357600080fd5b620027e18783880162002408565b9450602086013593506040860135915080821115620026f657600080fd5b60006001600160401b038211156200281b576200281b62002395565b5060051b60200190565b600082601f8301126200283757600080fd5b813560206200284a6200242b83620027ff565b82815260059290921b840181019181810190868411156200286a57600080fd5b8286015b84811015620028ae5780356001600160401b038111156200288f5760008081fd5b6200289f8986838b010162002408565b8452509183019183016200286e565b509695505050505050565b600080600060608486031215620028cf57600080fd5b8335925060208401356001600160401b0380821115620028ee57600080fd5b620028fc8783880162002825565b935060408601359150808211156200291357600080fd5b50620027058682870162002825565b600081518084526020808501808196508360051b8101915082860160005b858110156200296e5782840389526200295b848351620024f4565b9885019893509084019060010162002940565b5091979650505050505050565b83815260606020820152600062002996606083018562002922565b8281036040840152620029aa818562002922565b9695505050505050565b60008251620029c8818460208701620024ce565b9190910192915050565b600082601f830112620029e457600080fd5b8151620029f56200242b82620023de565b81815284602083860101111562002a0b57600080fd5b620025f3826020830160208701620024ce565b60006020828403121562002a3157600080fd5b81516001600160401b0381111562002a4857600080fd5b620025f384828501620029d2565b60006020828403121562002a6957600080fd5b5051919050565b60608152600062002a856060830186620024f4565b828103602084015262002a998186620024f4565b90508281036040840152620029aa8185620024f4565b634e487b7160e01b600052603260045260246000fd5b60006001820162002ae657634e487b7160e01b600052601160045260246000fd5b5060010190565b60006020828403121562002b0057600080fd5b8151801515811462002b1157600080fd5b9392505050565b60408152600062002b2d6040830185620024f4565b828103602084015262002b418185620024f4565b95945050505050565b60608152600062002b5f6060830186620024f4565b8460208401528281036040840152620029aa8185620024f4565b6000602080838503121562002b8d57600080fd5b82516001600160401b038082111562002ba557600080fd5b818501915085601f83011262002bba57600080fd5b815162002bcb6200242b82620027ff565b81815260059190911b8301840190848101908883111562002beb57600080fd5b8585015b8381101562002c285780518581111562002c095760008081fd5b62002c198b89838a0101620029d2565b84525091860191860162002bef565b509897505050505050505056fe60806040526000805534801561001457600080fd5b5060405161053f38038061053f8339810160408190526100339161011d565b600161003f848261022d565b50600261004c838261022d565b506003610059828261022d565b505050506102ec565b634e487b7160e01b600052604160045260246000fd5b600082601f83011261008957600080fd5b81516001600160401b03808211156100a3576100a3610062565b604051601f8301601f19908116603f011681019082821181831017156100cb576100cb610062565b816040528381526020925086838588010111156100e757600080fd5b600091505b8382101561010957858201830151818301840152908201906100ec565b600093810190920192909252949350505050565b60008060006060848603121561013257600080fd5b83516001600160401b038082111561014957600080fd5b61015587838801610078565b9450602086015191508082111561016b57600080fd5b61017787838801610078565b9350604086015191508082111561018d57600080fd5b5061019a86828701610078565b9150509250925092565b600181811c908216806101b857607f821691505b6020821081036101d857634e487b7160e01b600052602260045260246000fd5b50919050565b601f82111561022857600081815260208120601f850160051c810160208610156102055750805b601f850160051c820191505b8181101561022457828155600101610211565b5050505b505050565b81516001600160401b0381111561024657610246610062565b61025a8161025484546101a4565b846101de565b602080601f83116001811461028f57600084156102775750858301515b600019600386901b1c1916600185901b178555610224565b600085815260208120601f198616915b828110156102be5788860151825594840194600190910190840161029f565b50858210156102dc5787850151600019600388901b60f8161c191681555b5050505050600190811b01905550565b610244806102fb6000396000f3fe608060405234801561001057600080fd5b50600436106100575760003560e01c80630d15fd771461005c578063148213bb14610072578063632a9a5214610087578063675892ad14610091578063bc7b35b214610099575b600080fd5b6000546040519081526020015b60405180910390f35b61007a6100a1565b604051610069919061015f565b61008f61012f565b005b61007a610145565b61007a610152565b600380546100ae906101ad565b80601f01602080910402602001604051908101604052809291908181526020018280546100da906101ad565b80156101275780601f106100fc57610100808354040283529160200191610127565b820191906000526020600020905b81548152906001019060200180831161010a57829003601f168201915b505050505081565b60008054908061013e836101e7565b9190505550565b600280546100ae906101ad565b600180546100ae906101ad565b600060208083528351808285015260005b8181101561018c57858101830151858201604001528201610170565b506000604082860101526040601f19601f8301168501019250505092915050565b600181811c908216806101c157607f821691505b6020821081036101e157634e487b7160e01b600052602260045260246000fd5b50919050565b60006001820161020757634e487b7160e01b600052601160045260246000fd5b506001019056fea26469706673582212200c289cd72f11e650bf51fdddb4bd94fb901250cd3129391f830558a6c69ac66064736f6c6343000811003360806040526000805534801561001457600080fd5b5060405161054238038061054283398101604081905261003391610144565b818160016100418382610230565b50600261004e8282610230565b505060408051808201909152600c81526b21b7b7b93234b730b1b4b7b760a11b6020820152600391506100819082610230565b5050506102ef565b634e487b7160e01b600052604160045260246000fd5b600082601f8301126100b057600080fd5b81516001600160401b03808211156100ca576100ca610089565b604051601f8301601f19908116603f011681019082821181831017156100f2576100f2610089565b8160405283815260209250868385880101111561010e57600080fd5b600091505b838210156101305785820183015181830184015290820190610113565b600093810190920192909252949350505050565b6000806040838503121561015757600080fd5b82516001600160401b038082111561016e57600080fd5b61017a8683870161009f565b9350602085015191508082111561019057600080fd5b5061019d8582860161009f565b9150509250929050565b600181811c908216806101bb57607f821691505b6020821081036101db57634e487b7160e01b600052602260045260246000fd5b50919050565b601f82111561022b57600081815260208120601f850160051c810160208610156102085750805b601f850160051c820191505b8181101561022757828155600101610214565b5050505b505050565b81516001600160401b0381111561024957610249610089565b61025d8161025784546101a7565b846101e1565b602080601f831160018114610292576000841561027a5750858301515b600019600386901b1c1916600185901b178555610227565b600085815260208120601f198616915b828110156102c1578886015182559484019460019091019084016102a2565b50858210156102df5787850151600019600388901b60f8161c191681555b5050505050600190811b01905550565b610244806102fe6000396000f3fe608060405234801561001057600080fd5b50600436106100575760003560e01c80630d15fd771461005c57806328d7573514610072578063632a9a5214610087578063675892ad1461009157806388305c2314610099575b600080fd5b6000546040519081526020015b60405180910390f35b61007a6100a1565b604051610069919061015f565b61008f61012f565b005b61007a610145565b61007a610152565b600380546100ae906101ad565b80601f01602080910402602001604051908101604052809291908181526020018280546100da906101ad565b80156101275780601f106100fc57610100808354040283529160200191610127565b820191906000526020600020905b81548152906001019060200180831161010a57829003601f168201915b505050505081565b60008054908061013e836101e7565b9190505550565b600280546100ae906101ad565b600180546100ae906101ad565b600060208083528351808285015260005b8181101561018c57858101830151858201604001528201610170565b506000604082860101526040601f19601f8301168501019250505092915050565b600181811c908216806101c157607f821691505b6020821081036101e157634e487b7160e01b600052602260045260246000fd5b50919050565b60006001820161020757634e487b7160e01b600052601160045260246000fd5b506001019056fea26469706673582212203ad981a824673233bc7245cbc082bf74bea402682fc9b82d86aaa368f190b3c664736f6c6343000811003360806040526000805534801561001457600080fd5b5060405161053f38038061053f8339810160408190526100339161011d565b600161003f848261022d565b50600261004c838261022d565b506003610059828261022d565b505050506102ec565b634e487b7160e01b600052604160045260246000fd5b600082601f83011261008957600080fd5b81516001600160401b03808211156100a3576100a3610062565b604051601f8301601f19908116603f011681019082821181831017156100cb576100cb610062565b816040528381526020925086838588010111156100e757600080fd5b600091505b8382101561010957858201830151818301840152908201906100ec565b600093810190920192909252949350505050565b60008060006060848603121561013257600080fd5b83516001600160401b038082111561014957600080fd5b61015587838801610078565b9450602086015191508082111561016b57600080fd5b61017787838801610078565b9350604086015191508082111561018d57600080fd5b5061019a86828701610078565b9150509250925092565b600181811c908216806101b857607f821691505b6020821081036101d857634e487b7160e01b600052602260045260246000fd5b50919050565b601f82111561022857600081815260208120601f850160051c810160208610156102055750805b601f850160051c820191505b8181101561022457828155600101610211565b5050505b505050565b81516001600160401b0381111561024657610246610062565b61025a8161025484546101a4565b846101de565b602080601f83116001811461028f57600084156102775750858301515b600019600386901b1c1916600185901b178555610224565b600085815260208120601f198616915b828110156102be5788860151825594840194600190910190840161029f565b50858210156102dc5787850151600019600388901b60f8161c191681555b5050505050600190811b01905550565b610244806102fb6000396000f3fe608060405234801561001057600080fd5b50600436106100575760003560e01c80630d15fd771461005c578063632a9a5214610072578063675892ad1461007c5780639845d34a14610091578063bc7b35b214610099575b600080fd5b6000546040519081526020015b60405180910390f35b61007a6100a1565b005b6100846100b7565b604051610069919061015f565b610084610145565b610084610152565b6000805490806100b0836101ad565b9190505550565b600280546100c4906101d4565b80601f01602080910402602001604051908101604052809291908181526020018280546100f0906101d4565b801561013d5780601f106101125761010080835404028352916020019161013d565b820191906000526020600020905b81548152906001019060200180831161012057829003601f168201915b505050505081565b600380546100c4906101d4565b600180546100c4906101d4565b600060208083528351808285015260005b8181101561018c57858101830151858201604001528201610170565b506000604082860101526040601f19601f8301168501019250505092915050565b6000600182016101cd57634e487b7160e01b600052601160045260246000fd5b5060010190565b600181811c908216806101e857607f821691505b60208210810361020857634e487b7160e01b600052602260045260246000fd5b5091905056fea2646970667358221220382515be6ce43fe8e5782d2c887cebaac4ecd49729b18586de131617fafe62cc64736f6c6343000811003360806040526000805534801561001457600080fd5b5060405161051538038061051583398101604081905261003391610115565b600161003f848261020a565b5060028290556003610051828261020a565b505050506102c9565b634e487b7160e01b600052604160045260246000fd5b600082601f83011261008157600080fd5b81516001600160401b038082111561009b5761009b61005a565b604051601f8301601f19908116603f011681019082821181831017156100c3576100c361005a565b816040528381526020925086838588010111156100df57600080fd5b600091505b8382101561010157858201830151818301840152908201906100e4565b600093810190920192909252949350505050565b60008060006060848603121561012a57600080fd5b83516001600160401b038082111561014157600080fd5b61014d87838801610070565b945060208601519350604086015191508082111561016a57600080fd5b5061017786828701610070565b9150509250925092565b600181811c9082168061019557607f821691505b6020821081036101b557634e487b7160e01b600052602260045260246000fd5b50919050565b601f82111561020557600081815260208120601f850160051c810160208610156101e25750805b601f850160051c820191505b81811015610201578281556001016101ee565b5050505b505050565b81516001600160401b038111156102235761022361005a565b610237816102318454610181565b846101bb565b602080601f83116001811461026c57600084156102545750858301515b600019600386901b1c1916600185901b178555610201565b600085815260208120601f198616915b8281101561029b5788860151825594840194600190910190840161027c565b50858210156102b95787850151600019600388901b60f8161c191681555b5050505050600190811b01905550565b61023d806102d86000396000f3fe608060405234801561001057600080fd5b50600436106100575760003560e01c806306fdde031461005c5780630d15fd771461007a578063632a9a521461008c578063af640d0f14610096578063c0653e821461009f575b600080fd5b6100646100a7565b6040516100719190610158565b60405180910390f35b6000545b604051908152602001610071565b610094610135565b005b61007e60025481565b61006461014b565b600180546100b4906101a6565b80601f01602080910402602001604051908101604052809291908181526020018280546100e0906101a6565b801561012d5780601f106101025761010080835404028352916020019161012d565b820191906000526020600020905b81548152906001019060200180831161011057829003601f168201915b505050505081565b600080549080610144836101e0565b9190505550565b600380546100b4906101a6565b600060208083528351808285015260005b8181101561018557858101830151858201604001528201610169565b506000604082860101526040601f19601f8301168501019250505092915050565b600181811c908216806101ba57607f821691505b6020821081036101da57634e487b7160e01b600052602260045260246000fd5b50919050565b60006001820161020057634e487b7160e01b600052601160045260246000fd5b506001019056fea264697066735822122070f0857ebe4551fbb7137d45defd19bafeb289ffd312338cbe7668d13b06ab7264736f6c6343000811003360806040526000805534801561001457600080fd5b5060405161053f38038061053f8339810160408190526100339161011d565b600161003f848261022d565b50600261004c838261022d565b506003610059828261022d565b505050506102ec565b634e487b7160e01b600052604160045260246000fd5b600082601f83011261008957600080fd5b81516001600160401b03808211156100a3576100a3610062565b604051601f8301601f19908116603f011681019082821181831017156100cb576100cb610062565b816040528381526020925086838588010111156100e757600080fd5b600091505b8382101561010957858201830151818301840152908201906100ec565b600093810190920192909252949350505050565b60008060006060848603121561013257600080fd5b83516001600160401b038082111561014957600080fd5b61015587838801610078565b9450602086015191508082111561016b57600080fd5b61017787838801610078565b9350604086015191508082111561018d57600080fd5b5061019a86828701610078565b9150509250925092565b600181811c908216806101b857607f821691505b6020821081036101d857634e487b7160e01b600052602260045260246000fd5b50919050565b601f82111561022857600081815260208120601f850160051c810160208610156102055750805b601f850160051c820191505b8181101561022457828155600101610211565b5050505b505050565b81516001600160401b0381111561024657610246610062565b61025a8161025484546101a4565b846101de565b602080601f83116001811461028f57600084156102775750858301515b600019600386901b1c1916600185901b178555610224565b600085815260208120601f198616915b828110156102be5788860151825594840194600190910190840161029f565b50858210156102dc5787850151600019600388901b60f8161c191681555b5050505050600190811b01905550565b610244806102fb6000396000f3fe608060405234801561001057600080fd5b50600436106100575760003560e01c80630d15fd771461005c578063632a9a5214610072578063675892ad1461007c5780639845d34a14610091578063bc7b35b214610099575b600080fd5b6000546040519081526020015b60405180910390f35b61007a6100a1565b005b6100846100b7565b604051610069919061015f565b610084610145565b610084610152565b6000805490806100b0836101ad565b9190505550565b600280546100c4906101d4565b80601f01602080910402602001604051908101604052809291908181526020018280546100f0906101d4565b801561013d5780601f106101125761010080835404028352916020019161013d565b820191906000526020600020905b81548152906001019060200180831161012057829003601f168201915b505050505081565b600380546100c4906101d4565b600180546100c4906101d4565b600060208083528351808285015260005b8181101561018c57858101830151858201604001528201610170565b506000604082860101526040601f19601f8301168501019250505092915050565b6000600182016101cd57634e487b7160e01b600052601160045260246000fd5b5060010190565b600181811c908216806101e857607f821691505b60208210810361020857634e487b7160e01b600052602260045260246000fd5b5091905056fea26469706673582212205da7d32ae5d66e4f981b688e209791eaa424c718c3fa18a1d00e411e94eab9f064736f6c6343000811003360806040526000805534801561001457600080fd5b5060405161054538038061054583398101604081905261003391610147565b818160016100418382610233565b50600261004e8282610233565b505060408051808201909152600f81526e4a756e74612044697265637469766160881b6020820152600391506100849082610233565b5050506102f2565b634e487b7160e01b600052604160045260246000fd5b600082601f8301126100b357600080fd5b81516001600160401b03808211156100cd576100cd61008c565b604051601f8301601f19908116603f011681019082821181831017156100f5576100f561008c565b8160405283815260209250868385880101111561011157600080fd5b600091505b838210156101335785820183015181830184015290820190610116565b600093810190920192909252949350505050565b6000806040838503121561015a57600080fd5b82516001600160401b038082111561017157600080fd5b61017d868387016100a2565b9350602085015191508082111561019357600080fd5b506101a0858286016100a2565b9150509250929050565b600181811c908216806101be57607f821691505b6020821081036101de57634e487b7160e01b600052602260045260246000fd5b50919050565b601f82111561022e57600081815260208120601f850160051c8101602086101561020b5750805b601f850160051c820191505b8181101561022a57828155600101610217565b5050505b505050565b81516001600160401b0381111561024c5761024c61008c565b6102608161025a84546101aa565b846101e4565b602080601f831160018114610295576000841561027d5750858301515b600019600386901b1c1916600185901b17855561022a565b600085815260208120601f198616915b828110156102c4578886015182559484019460019091019084016102a5565b50858210156102e25787850151600019600388901b60f8161c191681555b5050505050600190811b01905550565b610244806103016000396000f3fe608060405234801561001057600080fd5b50600436106100575760003560e01c80630d15fd771461005c57806328d7573514610072578063632a9a5214610087578063675892ad1461009157806388305c2314610099575b600080fd5b6000546040519081526020015b60405180910390f35b61007a6100a1565b604051610069919061015f565b61008f61012f565b005b61007a610145565b61007a610152565b600380546100ae906101ad565b80601f01602080910402602001604051908101604052809291908181526020018280546100da906101ad565b80156101275780601f106100fc57610100808354040283529160200191610127565b820191906000526020600020905b81548152906001019060200180831161010a57829003601f168201915b505050505081565b60008054908061013e836101e7565b9190505550565b600280546100ae906101ad565b600180546100ae906101ad565b600060208083528351808285015260005b8181101561018c57858101830151858201604001528201610170565b506000604082860101526040601f19601f8301168501019250505092915050565b600181811c908216806101c157607f821691505b6020821081036101e157634e487b7160e01b600052602260045260246000fd5b50919050565b60006001820161020757634e487b7160e01b600052601160045260246000fd5b506001019056fea264697066735822122052fce67eec0663e0faa4c7575d7e5c454ca9b62e91f7921f59679c5173bc223464736f6c6343000811003360806040523480156200001157600080fd5b5060405162000b9f38038062000b9f8339810160408190526200003491620002cd565b600083905581516200004e9060019060208501906200008f565b508051620000649060029060208401906200008f565b50506003805466ffffffffffffff19169055505060015460048190556006556002546005556200049c565b828054828255906000526020600020908101928215620000da579160200282015b82811115620000da5782518290620000c99082620003d0565b5091602001919060010190620000b0565b50620000e8929150620000ec565b5090565b80821115620000e85760006200010382826200010d565b50600101620000ec565b5080546200011b9062000341565b6000825580601f106200012c575050565b601f0160209004906000526020600020908101906200014c91906200014f565b50565b5b80821115620000e8576000815560010162000150565b634e487b7160e01b600052604160045260246000fd5b604051601f8201601f191681016001600160401b0381118282101715620001a757620001a762000166565b604052919050565b6000601f8381840112620001c257600080fd5b825160206001600160401b0380831115620001e157620001e162000166565b8260051b620001f28382016200017c565b93845286810183019383810190898611156200020d57600080fd5b84890192505b85831015620002c0578251848111156200022d5760008081fd5b8901603f81018b13620002405760008081fd5b858101518581111562000257576200025762000166565b6200026a818a01601f191688016200017c565b81815260408d81848601011115620002825760008081fd5b60005b83811015620002a2578481018201518382018b0152890162000285565b50506000918101880191909152835250918401919084019062000213565b9998505050505050505050565b600080600060608486031215620002e357600080fd5b835160208501519093506001600160401b03808211156200030357600080fd5b6200031187838801620001af565b935060408601519150808211156200032857600080fd5b506200033786828701620001af565b9150509250925092565b600181811c908216806200035657607f821691505b6020821081036200037757634e487b7160e01b600052602260045260246000fd5b50919050565b601f821115620003cb57600081815260208120601f850160051c81016020861015620003a65750805b601f850160051c820191505b81811015620003c757828155600101620003b2565b5050505b505050565b81516001600160401b03811115620003ec57620003ec62000166565b6200040481620003fd845462000341565b846200037d565b602080601f8311600181146200043c5760008415620004235750858301515b600019600386901b1c1916600185901b178555620003c7565b600085815260208120601f198616915b828110156200046d578886015182559484019460019091019084016200044c565b50858210156200048c5787850151600019600388901b60f8161c191681555b5050505050600190811b01905550565b6106f380620004ac6000396000f3fe608060405234801561001057600080fd5b506004361061012c5760003560e01c80636c6bd0f3116100ad578063a69799fc11610071578063a69799fc14610209578063ab9dbd0714610211578063bcd75c5314610219578063ec58caf814610221578063f79f21101461022957600080fd5b80636c6bd0f3146101d75780637da34244146101df57806391a10b01146101e757806391b14753146101ef57806397e8cff91461020157600080fd5b8063476abce6116100f4578063476abce6146101835780634a51ede3146101965780635ac952f2146101ab57806361a69587146101bd57806364debb8f146101c557600080fd5b8063159e7064146101315780632b4af7a31461014e5780633174149a1461016057806335fc1ece1461016a57806344cd1b2114610172575b600080fd5b60035460ff16155b60405190151581526020015b60405180910390f35b6003546301000000900460ff16610139565b610168610239565b005b610168610285565b60035462010000900460ff16610139565b600354640100000000900460ff16610139565b61019e6102b1565b60405161014591906105cc565b600354600160301b900460ff16610139565b61019e61038a565b600354600160281b900460ff16610139565b61016861045a565b6101686104a7565b6101686104d0565b6004545b604051908152602001610145565b61016861051d565b610139610543565b6000546101f3565b6005546101f3565b6006546101f3565b600354610100900460ff16610139565b600354600160281b900460ff161561025057600080fd5b600680549060006102608361065e565b90915550506006546003805465ff000000000019169115600160281b02919091179055565b6003546301000000900460ff161561029c57600080fd5b6003805463ff00000019166301000000179055565b60606002805480602002602001604051908101604052809291908181526020016000905b828210156103815783829060005260206000200180546102f490610683565b80601f016020809104026020016040519081016040528092919081815260200182805461032090610683565b801561036d5780601f106103425761010080835404028352916020019161036d565b820191906000526020600020905b81548152906001019060200180831161035057829003601f168201915b5050505050815260200190600101906102d5565b50505050905090565b60606001805480602002602001604051908101604052809291908181526020016000905b828210156103815783829060005260206000200180546103cd90610683565b80601f01602080910402602001604051908101604052809291908181526020018280546103f990610683565b80156104465780601f1061041b57610100808354040283529160200191610446565b820191906000526020600020905b81548152906001019060200180831161042957829003601f168201915b5050505050815260200190600101906103ae565b600354600160301b900460ff161561047157600080fd5b600580549060006104818361065e565b90915550506005546003805466ff00000000000019169115600160301b02919091179055565b60035462010000900460ff16156104bd57600080fd5b6003805462ff0000191662010000179055565b600354640100000000900460ff16156104e857600080fd5b600480549060006104f88361065e565b90915550506004546003805464ff000000001916911564010000000002919091179055565b600354610100900460ff161561053257600080fd5b6003805461ff001916610100179055565b600354600090640100000000900460ff16158061056a5750600354600160301b900460ff16155b8061057f5750600354600160281b900460ff16155b8061059457506003546301000000900460ff16155b806105a8575060035462010000900460ff16155b806105bb5750600354610100900460ff16155b156105c65750600090565b50600190565b6000602080830181845280855180835260408601915060408160051b87010192508387016000805b8381101561065057888603603f1901855282518051808852835b81811015610629578281018a01518982018b0152890161060e565b508781018901849052601f01601f19169096018701955093860193918601916001016105f4565b509398975050505050505050565b60008161067b57634e487b7160e01b600052601160045260246000fd5b506000190190565b600181811c9082168061069757607f821691505b6020821081036106b757634e487b7160e01b600052602260045260246000fd5b5091905056fea26469706673582212201addd6ce09df533c47698666d40c6a23fc1529374cf4e1fe3cfe8b410db5086964736f6c63430008110033a2646970667358221220d7d7ed4f344ab731011ca8a667fc2fcafddce546274cbc977021efef1b2b68e264736f6c63430008110033",
  "immutableReferences": {},
  "source": "// SPDX-Licence-Identifier: UNLICENSED\r\npragma solidity ^0.8.0;\r\nimport \"./Candidate.sol\";\r\nimport \"./StringCompare.sol\";\r\nimport \"./Votante.sol\";\r\n\r\n\r\ncontract Eleccion {\r\n    string nombre;\r\n    address owner;\r\n\r\n    uint[] public registroElectoral;\r\n\r\n    mapping (uint => Votante) public votantesRegistrados;\r\n    mapping (uint => ConsejoAcademico) public candidatosConsejoAcademico;\r\n    mapping (string => JuntaDirectivaFCE) public candidatosJuntaFCE;\r\n    mapping (string => CoordinacionFCE) public candidatosCoordinacionFCE;\r\n    mapping (string => mapping (string => CentroEstudiantes)) public candidatosCentroEstudiantes;\r\n    mapping (string => mapping (string => ConsejoEscuela)) public candidatosConsejoEscuela;\r\n    mapping (string => mapping (string => ConsejoFacultad)) public candidatosConsejoFacultad;\r\n\r\n    constructor () {\r\n        owner = msg.sender;\r\n    }\r\n\r\n    function agregarIDARegistro(uint _id) public {\r\n        require(!checkRegistroElectoral(_id), \"Ya se encuentra en el registro electoral\");\r\n        registroElectoral.push(_id);\r\n    }\r\n\r\n    function checkRegistroElectoral(uint _id) public view returns (bool) {\r\n        for (uint i = 0; i < registroElectoral.length; i++) {\r\n            if (registroElectoral[i] == _id) {\r\n                return true;\r\n            }\r\n        }\r\n        return false;\r\n    }\r\n\r\n    function agregarVotante(uint _id, string[] memory _carreras, string[] memory _facultades) public {\r\n        require(checkRegistroElectoral(_id), \"No se encuentra en el registro electoral\");\r\n        votantesRegistrados[_id] = new Votante(_id, _carreras, _facultades);\r\n    }\r\n\r\n    function getVotanteInfo(uint _id) public view returns (uint, string[] memory, string[] memory) {\r\n        return (votantesRegistrados[_id].getID(), votantesRegistrados[_id].getCarreras(), votantesRegistrados[_id].getFacultades());\r\n    }\r\n\r\n    function getVotanteCulminoVotacion(uint _id) public view returns (bool) {\r\n        return votantesRegistrados[_id].getVoted();\r\n    }\r\n\r\n    function getVotanteSeccionesVotadas(uint _id) public view returns (bool, bool, bool, bool, bool, bool) {\r\n        return (votantesRegistrados[_id].getVotedConsejoAcademico(), votantesRegistrados[_id].getVotedJuntaDirectivaFCE(), votantesRegistrados[_id].getVotedCoordinacionFCE(), votantesRegistrados[_id].getVotedCentroEstudiantes(), votantesRegistrados[_id].getVotedConsejoEscuela(), votantesRegistrados[_id].getVotedConsejoFacultad());\r\n    }\r\n\r\n    function getVotanteNumeroVotos(uint _id) public view returns (uint, uint, uint) {\r\n        return (votantesRegistrados[_id].getNumeroVotosCentroEst(), votantesRegistrados[_id].getNumeroVotosCF(), votantesRegistrados[_id].getNumeroVotosCE());\r\n    }\r\n\r\n    function agregarCandidatoConsejoAcademico(string memory _nombre, uint _id, string memory _carrera) public {\r\n        // TODO: Check if candidate already exists\r\n        candidatosConsejoAcademico[_id] = new ConsejoAcademico(_nombre, _id, _carrera);\r\n    }\r\n\r\n    function getCandidatoConsejoAcademico(uint _id) public view returns (string memory, uint, string memory, uint) {\r\n        return (candidatosConsejoAcademico[_id].name(), candidatosConsejoAcademico[_id].id(), candidatosConsejoAcademico[_id].carrera(), candidatosConsejoAcademico[_id].totalVotes());\r\n    }\r\n\r\n    function voteCandidatoConsejoAcademico(uint _id, uint _voterID) public {\r\n        ConsejoAcademico candidato = candidatosConsejoAcademico[_id];\r\n        candidato.vote();\r\n        Votante votante = votantesRegistrados[_voterID];\r\n        votante.votarConsejoAcademico();\r\n    }\r\n\r\n\r\n    function agregarCandidatoJuntaDirectivaFCE(string memory _agrupacion, string memory _siglas) public {\r\n        // TODO: Check if candidate already exists\r\n        candidatosJuntaFCE[_siglas] = new JuntaDirectivaFCE(_agrupacion, _siglas);\r\n    }\r\n\r\n    function getCandidatoJuntaDirectivaFCE(string memory _siglas) public view returns (string memory, string memory, uint) {\r\n        return (candidatosJuntaFCE[_siglas].agrupacion(), candidatosJuntaFCE[_siglas].siglas(), candidatosJuntaFCE[_siglas].totalVotes());\r\n    }\r\n\r\n    function voteCandidatoJuntaDirectivaFCE(string memory _siglas, uint _voterID) public {\r\n        JuntaDirectivaFCE candidato = candidatosJuntaFCE[_siglas];\r\n        candidato.vote();\r\n        Votante votante = votantesRegistrados[_voterID];\r\n        votante.votarJuntaDirectivaFCE();\r\n    }\r\n\r\n    function agregarCandidatoCoordinacionFCE(string memory _agrupacion, string memory _siglas) public {\r\n        candidatosCoordinacionFCE[_siglas] = new CoordinacionFCE(_agrupacion, _siglas);\r\n    }\r\n\r\n    function getCandidatoCoordinacionFCE(string memory _siglas) public view returns (string memory, string memory, uint) {\r\n        return (candidatosCoordinacionFCE[_siglas].agrupacion(), candidatosCoordinacionFCE[_siglas].siglas(), candidatosCoordinacionFCE[_siglas].totalVotes());\r\n    }\r\n\r\n    function voteCandidatoCoordinacionFCE(string memory _siglas, uint _voterID) public {\r\n        CoordinacionFCE candidato = candidatosCoordinacionFCE[_siglas];\r\n        candidato.vote();\r\n        Votante votante = votantesRegistrados[_voterID];\r\n        votante.votarCoordinacionFCE();\r\n    }\r\n\r\n    function agregarCandidatoCentroEstudiantes(string memory _nombre, string memory _siglas, string memory _escuela) public {\r\n        candidatosCentroEstudiantes[_escuela][_siglas] = new CentroEstudiantes(_nombre, _siglas, _escuela);\r\n    }\r\n\r\n    function getCandidatoCentroEstudiantes(string memory _siglas, string memory _escuela) public view returns (string memory, string memory, string memory, uint) {\r\n        return (candidatosCentroEstudiantes[_escuela][_siglas].nombre(), candidatosCentroEstudiantes[_escuela][_siglas].siglas(), candidatosCentroEstudiantes[_escuela][_siglas].escuela(), candidatosCentroEstudiantes[_escuela][_siglas].totalVotes());\r\n    }\r\n\r\n    function voteCandidatoCentroEstudiantes(string memory _siglas, string memory _escuela, uint _voterID) public {\r\n        CentroEstudiantes candidato = candidatosCentroEstudiantes[_escuela][_siglas];\r\n        candidato.vote();\r\n        Votante votante = votantesRegistrados[_voterID];\r\n        votante.votarCentroEstudiantes();\r\n    }\r\n\r\n    function agregarCandidatoConsejoEscuela(string memory _nombre, string memory _siglas, string memory _escuela) public {\r\n        candidatosConsejoEscuela[_escuela][_siglas] = new ConsejoEscuela(_nombre, _siglas, _escuela);\r\n    }\r\n\r\n    function getCandidatoConsejoEscuela(string memory _siglas, string memory _escuela) public view returns (string memory, string memory, string memory, uint) {\r\n        return (candidatosConsejoEscuela[_escuela][_siglas].nombre(), candidatosConsejoEscuela[_escuela][_siglas].siglas(), candidatosConsejoEscuela[_escuela][_siglas].escuela(), candidatosConsejoEscuela[_escuela][_siglas].totalVotes());\r\n    }\r\n\r\n    function voteCandidatoConsejoEscuela(string memory _siglas, string memory _escuela, uint _voterID) public {\r\n        ConsejoEscuela candidato = candidatosConsejoEscuela[_escuela][_siglas];\r\n        candidato.vote();\r\n        Votante votante = votantesRegistrados[_voterID];\r\n        votante.votarConsejoEscuela();\r\n    }\r\n\r\n    function agregarCandidatoConsejoFacultad(string memory _nombre, string memory _siglas, string memory _facultad) public {\r\n        candidatosConsejoFacultad[_facultad][_siglas] = new ConsejoFacultad(_nombre, _siglas, _facultad);\r\n    }\r\n\r\n    function getCandidatoConsejoFacultad(string memory _siglas, string memory _facultad) public view returns (string memory, string memory, string memory, uint) {\r\n        return (candidatosConsejoFacultad[_facultad][_siglas].nombre(), candidatosConsejoFacultad[_facultad][_siglas].siglas(), candidatosConsejoFacultad[_facultad][_siglas].facultad(), candidatosConsejoFacultad[_facultad][_siglas].totalVotes());\r\n    }\r\n\r\n    function voteCandidatoConsejoFacultad(string memory _siglas, string memory _facultad, uint _voterID) public {\r\n        ConsejoFacultad candidato = candidatosConsejoFacultad[_facultad][_siglas];\r\n        candidato.vote();\r\n        Votante votante = votantesRegistrados[_voterID];\r\n        votante.votarConsejoFacultad();\r\n    }\r\n\r\n\r\n}",
  "sourcePath": "C:\\Users\\Jose Rubin\\Desktop\\Chainge\\chainge_voting_dapp\\smart_contract\\contracts\\Eleccion.sol",
  "compiler": {
    "name": "solc",
    "version": "0.8.17+commit.8df45f5f.Emscripten.clang"
  },
  "schemaVersion": "3.4.10",
  "updatedAt": "2022-11-19T17:21:56.357Z",
  "networkType": "ethereum",
  "devdoc": {
    "kind": "dev",
    "methods": {},
    "version": 1
  },
  "userdoc": {
    "kind": "user",
    "methods": {},
    "version": 1
  }
}