{
  "contractName": "Eleccion",
  "abi": [
    {
      "inputs": [],
      "stateMutability": "nonpayable",
      "type": "constructor"
    },
    {
      "inputs": [
        {
          "internalType": "string",
          "name": "",
          "type": "string"
        },
        {
          "internalType": "string",
          "name": "",
          "type": "string"
        }
      ],
      "name": "candidatosCentroEstudiantes",
      "outputs": [
        {
          "internalType": "contract CentroEstudiantes",
          "name": "",
          "type": "address"
        }
      ],
      "stateMutability": "view",
      "type": "function",
      "constant": true
    },
    {
      "inputs": [
        {
          "internalType": "uint256",
          "name": "",
          "type": "uint256"
        }
      ],
      "name": "candidatosCentroEstudiantesKeys",
      "outputs": [
        {
          "internalType": "string",
          "name": "",
          "type": "string"
        }
      ],
      "stateMutability": "view",
      "type": "function",
      "constant": true
    },
    {
      "inputs": [
        {
          "internalType": "uint256",
          "name": "",
          "type": "uint256"
        }
      ],
      "name": "candidatosConsejoAcademico",
      "outputs": [
        {
          "internalType": "contract ConsejoAcademico",
          "name": "",
          "type": "address"
        }
      ],
      "stateMutability": "view",
      "type": "function",
      "constant": true
    },
    {
      "inputs": [
        {
          "internalType": "string",
          "name": "",
          "type": "string"
        },
        {
          "internalType": "string",
          "name": "",
          "type": "string"
        }
      ],
      "name": "candidatosConsejoEscuela",
      "outputs": [
        {
          "internalType": "contract ConsejoEscuela",
          "name": "",
          "type": "address"
        }
      ],
      "stateMutability": "view",
      "type": "function",
      "constant": true
    },
    {
      "inputs": [
        {
          "internalType": "uint256",
          "name": "",
          "type": "uint256"
        }
      ],
      "name": "candidatosConsejoEscuelaKeys",
      "outputs": [
        {
          "internalType": "string",
          "name": "",
          "type": "string"
        }
      ],
      "stateMutability": "view",
      "type": "function",
      "constant": true
    },
    {
      "inputs": [
        {
          "internalType": "string",
          "name": "",
          "type": "string"
        },
        {
          "internalType": "string",
          "name": "",
          "type": "string"
        }
      ],
      "name": "candidatosConsejoFacultad",
      "outputs": [
        {
          "internalType": "contract ConsejoFacultad",
          "name": "",
          "type": "address"
        }
      ],
      "stateMutability": "view",
      "type": "function",
      "constant": true
    },
    {
      "inputs": [
        {
          "internalType": "uint256",
          "name": "",
          "type": "uint256"
        }
      ],
      "name": "candidatosConsejoFacultadKeys",
      "outputs": [
        {
          "internalType": "string",
          "name": "",
          "type": "string"
        }
      ],
      "stateMutability": "view",
      "type": "function",
      "constant": true
    },
    {
      "inputs": [
        {
          "internalType": "string",
          "name": "",
          "type": "string"
        }
      ],
      "name": "candidatosCoordinacionFCE",
      "outputs": [
        {
          "internalType": "contract CoordinacionFCE",
          "name": "",
          "type": "address"
        }
      ],
      "stateMutability": "view",
      "type": "function",
      "constant": true
    },
    {
      "inputs": [
        {
          "internalType": "uint256",
          "name": "",
          "type": "uint256"
        }
      ],
      "name": "candidatosCoordinacionFCEKeys",
      "outputs": [
        {
          "internalType": "string",
          "name": "",
          "type": "string"
        }
      ],
      "stateMutability": "view",
      "type": "function",
      "constant": true
    },
    {
      "inputs": [
        {
          "internalType": "string",
          "name": "",
          "type": "string"
        }
      ],
      "name": "candidatosJuntaFCE",
      "outputs": [
        {
          "internalType": "contract JuntaDirectivaFCE",
          "name": "",
          "type": "address"
        }
      ],
      "stateMutability": "view",
      "type": "function",
      "constant": true
    },
    {
      "inputs": [
        {
          "internalType": "uint256",
          "name": "",
          "type": "uint256"
        }
      ],
      "name": "candidatosJuntaFCEKeys",
      "outputs": [
        {
          "internalType": "string",
          "name": "",
          "type": "string"
        }
      ],
      "stateMutability": "view",
      "type": "function",
      "constant": true
    },
    {
      "inputs": [
        {
          "internalType": "uint256",
          "name": "",
          "type": "uint256"
        }
      ],
      "name": "escuelas",
      "outputs": [
        {
          "internalType": "string",
          "name": "",
          "type": "string"
        }
      ],
      "stateMutability": "view",
      "type": "function",
      "constant": true
    },
    {
      "inputs": [],
      "name": "numeroCandidatosConsejoAcademico",
      "outputs": [
        {
          "internalType": "uint256",
          "name": "",
          "type": "uint256"
        }
      ],
      "stateMutability": "view",
      "type": "function",
      "constant": true
    },
    {
      "inputs": [],
      "name": "numeroVotantesRegistrados",
      "outputs": [
        {
          "internalType": "uint256",
          "name": "",
          "type": "uint256"
        }
      ],
      "stateMutability": "view",
      "type": "function",
      "constant": true
    },
    {
      "inputs": [
        {
          "internalType": "uint256",
          "name": "",
          "type": "uint256"
        }
      ],
      "name": "registroElectoral",
      "outputs": [
        {
          "internalType": "uint256",
          "name": "",
          "type": "uint256"
        }
      ],
      "stateMutability": "view",
      "type": "function",
      "constant": true
    },
    {
      "inputs": [
        {
          "internalType": "uint256",
          "name": "",
          "type": "uint256"
        }
      ],
      "name": "votantesRegistrados",
      "outputs": [
        {
          "internalType": "contract Votante",
          "name": "",
          "type": "address"
        }
      ],
      "stateMutability": "view",
      "type": "function",
      "constant": true
    },
    {
      "inputs": [
        {
          "internalType": "uint256",
          "name": "_id",
          "type": "uint256"
        }
      ],
      "name": "agregarIDARegistro",
      "outputs": [],
      "stateMutability": "nonpayable",
      "type": "function"
    },
    {
      "inputs": [
        {
          "internalType": "uint256",
          "name": "_id",
          "type": "uint256"
        }
      ],
      "name": "checkRegistroElectoral",
      "outputs": [
        {
          "internalType": "bool",
          "name": "",
          "type": "bool"
        }
      ],
      "stateMutability": "view",
      "type": "function",
      "constant": true
    },
    {
      "inputs": [
        {
          "internalType": "uint256",
          "name": "_id",
          "type": "uint256"
        },
        {
          "internalType": "string[]",
          "name": "_carreras",
          "type": "string[]"
        },
        {
          "internalType": "string[]",
          "name": "_facultades",
          "type": "string[]"
        }
      ],
      "name": "agregarVotante",
      "outputs": [],
      "stateMutability": "nonpayable",
      "type": "function"
    },
    {
      "inputs": [
        {
          "internalType": "uint256",
          "name": "_id",
          "type": "uint256"
        }
      ],
      "name": "getVotanteInfo",
      "outputs": [
        {
          "internalType": "uint256",
          "name": "",
          "type": "uint256"
        },
        {
          "internalType": "string[]",
          "name": "",
          "type": "string[]"
        },
        {
          "internalType": "string[]",
          "name": "",
          "type": "string[]"
        }
      ],
      "stateMutability": "view",
      "type": "function",
      "constant": true
    },
    {
      "inputs": [
        {
          "internalType": "uint256",
          "name": "_id",
          "type": "uint256"
        }
      ],
      "name": "getVotanteCulminoVotacion",
      "outputs": [
        {
          "internalType": "bool",
          "name": "",
          "type": "bool"
        }
      ],
      "stateMutability": "view",
      "type": "function",
      "constant": true
    },
    {
      "inputs": [
        {
          "internalType": "uint256",
          "name": "_id",
          "type": "uint256"
        }
      ],
      "name": "getVotanteSeccionesVotadas",
      "outputs": [
        {
          "internalType": "bool",
          "name": "",
          "type": "bool"
        },
        {
          "internalType": "bool",
          "name": "",
          "type": "bool"
        },
        {
          "internalType": "bool",
          "name": "",
          "type": "bool"
        },
        {
          "internalType": "bool",
          "name": "",
          "type": "bool"
        },
        {
          "internalType": "bool",
          "name": "",
          "type": "bool"
        },
        {
          "internalType": "bool",
          "name": "",
          "type": "bool"
        }
      ],
      "stateMutability": "view",
      "type": "function",
      "constant": true
    },
    {
      "inputs": [
        {
          "internalType": "uint256",
          "name": "_id",
          "type": "uint256"
        }
      ],
      "name": "getVotanteNumeroVotos",
      "outputs": [
        {
          "internalType": "uint256",
          "name": "",
          "type": "uint256"
        },
        {
          "internalType": "uint256",
          "name": "",
          "type": "uint256"
        },
        {
          "internalType": "uint256",
          "name": "",
          "type": "uint256"
        }
      ],
      "stateMutability": "view",
      "type": "function",
      "constant": true
    },
    {
      "inputs": [
        {
          "internalType": "string",
          "name": "_nombre",
          "type": "string"
        },
        {
          "internalType": "uint256",
          "name": "_id",
          "type": "uint256"
        },
        {
          "internalType": "string",
          "name": "_carrera",
          "type": "string"
        }
      ],
      "name": "agregarCandidatoConsejoAcademico",
      "outputs": [],
      "stateMutability": "nonpayable",
      "type": "function"
    },
    {
      "inputs": [
        {
          "internalType": "uint256",
          "name": "_id",
          "type": "uint256"
        }
      ],
      "name": "getCandidatoConsejoAcademico",
      "outputs": [
        {
          "internalType": "string",
          "name": "",
          "type": "string"
        },
        {
          "internalType": "uint256",
          "name": "",
          "type": "uint256"
        },
        {
          "internalType": "string",
          "name": "",
          "type": "string"
        },
        {
          "internalType": "uint256",
          "name": "",
          "type": "uint256"
        }
      ],
      "stateMutability": "view",
      "type": "function",
      "constant": true
    },
    {
      "inputs": [
        {
          "internalType": "uint256",
          "name": "_id",
          "type": "uint256"
        },
        {
          "internalType": "uint256",
          "name": "_voterID",
          "type": "uint256"
        }
      ],
      "name": "voteCandidatoConsejoAcademico",
      "outputs": [],
      "stateMutability": "nonpayable",
      "type": "function"
    },
    {
      "inputs": [
        {
          "internalType": "string",
          "name": "_agrupacion",
          "type": "string"
        },
        {
          "internalType": "string",
          "name": "_siglas",
          "type": "string"
        }
      ],
      "name": "agregarCandidatoJuntaDirectivaFCE",
      "outputs": [],
      "stateMutability": "nonpayable",
      "type": "function"
    },
    {
      "inputs": [
        {
          "internalType": "string",
          "name": "_siglas",
          "type": "string"
        }
      ],
      "name": "getCandidatoJuntaDirectivaFCE",
      "outputs": [
        {
          "internalType": "string",
          "name": "",
          "type": "string"
        },
        {
          "internalType": "string",
          "name": "",
          "type": "string"
        },
        {
          "internalType": "uint256",
          "name": "",
          "type": "uint256"
        }
      ],
      "stateMutability": "view",
      "type": "function",
      "constant": true
    },
    {
      "inputs": [
        {
          "internalType": "string",
          "name": "_siglas",
          "type": "string"
        },
        {
          "internalType": "uint256",
          "name": "_voterID",
          "type": "uint256"
        }
      ],
      "name": "voteCandidatoJuntaDirectivaFCE",
      "outputs": [],
      "stateMutability": "nonpayable",
      "type": "function"
    },
    {
      "inputs": [
        {
          "internalType": "string",
          "name": "_agrupacion",
          "type": "string"
        },
        {
          "internalType": "string",
          "name": "_siglas",
          "type": "string"
        }
      ],
      "name": "agregarCandidatoCoordinacionFCE",
      "outputs": [],
      "stateMutability": "nonpayable",
      "type": "function"
    },
    {
      "inputs": [
        {
          "internalType": "string",
          "name": "_siglas",
          "type": "string"
        }
      ],
      "name": "getCandidatoCoordinacionFCE",
      "outputs": [
        {
          "internalType": "string",
          "name": "",
          "type": "string"
        },
        {
          "internalType": "string",
          "name": "",
          "type": "string"
        },
        {
          "internalType": "uint256",
          "name": "",
          "type": "uint256"
        }
      ],
      "stateMutability": "view",
      "type": "function",
      "constant": true
    },
    {
      "inputs": [
        {
          "internalType": "string",
          "name": "_siglas",
          "type": "string"
        },
        {
          "internalType": "uint256",
          "name": "_voterID",
          "type": "uint256"
        }
      ],
      "name": "voteCandidatoCoordinacionFCE",
      "outputs": [],
      "stateMutability": "nonpayable",
      "type": "function"
    },
    {
      "inputs": [
        {
          "internalType": "string",
          "name": "_nombre",
          "type": "string"
        },
        {
          "internalType": "string",
          "name": "_siglas",
          "type": "string"
        },
        {
          "internalType": "string",
          "name": "_escuela",
          "type": "string"
        }
      ],
      "name": "agregarCandidatoCentroEstudiantes",
      "outputs": [],
      "stateMutability": "nonpayable",
      "type": "function"
    },
    {
      "inputs": [
        {
          "internalType": "string",
          "name": "_siglas",
          "type": "string"
        },
        {
          "internalType": "string",
          "name": "_escuela",
          "type": "string"
        }
      ],
      "name": "getCandidatoCentroEstudiantes",
      "outputs": [
        {
          "internalType": "string",
          "name": "",
          "type": "string"
        },
        {
          "internalType": "string",
          "name": "",
          "type": "string"
        },
        {
          "internalType": "string",
          "name": "",
          "type": "string"
        },
        {
          "internalType": "uint256",
          "name": "",
          "type": "uint256"
        }
      ],
      "stateMutability": "view",
      "type": "function",
      "constant": true
    },
    {
      "inputs": [
        {
          "internalType": "string",
          "name": "_siglas",
          "type": "string"
        },
        {
          "internalType": "string",
          "name": "_escuela",
          "type": "string"
        },
        {
          "internalType": "uint256",
          "name": "_voterID",
          "type": "uint256"
        }
      ],
      "name": "voteCandidatoCentroEstudiantes",
      "outputs": [],
      "stateMutability": "nonpayable",
      "type": "function"
    },
    {
      "inputs": [
        {
          "internalType": "string",
          "name": "_nombre",
          "type": "string"
        },
        {
          "internalType": "string",
          "name": "_siglas",
          "type": "string"
        },
        {
          "internalType": "string",
          "name": "_escuela",
          "type": "string"
        }
      ],
      "name": "agregarCandidatoConsejoEscuela",
      "outputs": [],
      "stateMutability": "nonpayable",
      "type": "function"
    },
    {
      "inputs": [
        {
          "internalType": "string",
          "name": "_siglas",
          "type": "string"
        },
        {
          "internalType": "string",
          "name": "_escuela",
          "type": "string"
        }
      ],
      "name": "getCandidatoConsejoEscuela",
      "outputs": [
        {
          "internalType": "string",
          "name": "",
          "type": "string"
        },
        {
          "internalType": "string",
          "name": "",
          "type": "string"
        },
        {
          "internalType": "string",
          "name": "",
          "type": "string"
        },
        {
          "internalType": "uint256",
          "name": "",
          "type": "uint256"
        }
      ],
      "stateMutability": "view",
      "type": "function",
      "constant": true
    },
    {
      "inputs": [
        {
          "internalType": "string",
          "name": "_siglas",
          "type": "string"
        },
        {
          "internalType": "string",
          "name": "_escuela",
          "type": "string"
        },
        {
          "internalType": "uint256",
          "name": "_voterID",
          "type": "uint256"
        }
      ],
      "name": "voteCandidatoConsejoEscuela",
      "outputs": [],
      "stateMutability": "nonpayable",
      "type": "function"
    },
    {
      "inputs": [
        {
          "internalType": "string",
          "name": "_nombre",
          "type": "string"
        },
        {
          "internalType": "string",
          "name": "_siglas",
          "type": "string"
        },
        {
          "internalType": "string",
          "name": "_facultad",
          "type": "string"
        }
      ],
      "name": "agregarCandidatoConsejoFacultad",
      "outputs": [],
      "stateMutability": "nonpayable",
      "type": "function"
    },
    {
      "inputs": [
        {
          "internalType": "string",
          "name": "_siglas",
          "type": "string"
        },
        {
          "internalType": "string",
          "name": "_facultad",
          "type": "string"
        }
      ],
      "name": "getCandidatoConsejoFacultad",
      "outputs": [
        {
          "internalType": "string",
          "name": "",
          "type": "string"
        },
        {
          "internalType": "string",
          "name": "",
          "type": "string"
        },
        {
          "internalType": "string",
          "name": "",
          "type": "string"
        },
        {
          "internalType": "uint256",
          "name": "",
          "type": "uint256"
        }
      ],
      "stateMutability": "view",
      "type": "function",
      "constant": true
    },
    {
      "inputs": [
        {
          "internalType": "string",
          "name": "_siglas",
          "type": "string"
        },
        {
          "internalType": "string",
          "name": "_facultad",
          "type": "string"
        },
        {
          "internalType": "uint256",
          "name": "_voterID",
          "type": "uint256"
        }
      ],
      "name": "voteCandidatoConsejoFacultad",
      "outputs": [],
      "stateMutability": "nonpayable",
      "type": "function"
    },
    {
      "inputs": [],
      "name": "getCandidatosJuntaFCELength",
      "outputs": [
        {
          "internalType": "uint256",
          "name": "",
          "type": "uint256"
        }
      ],
      "stateMutability": "view",
      "type": "function",
      "constant": true
    },
    {
      "inputs": [],
      "name": "getCandidatosCoordinacionFCELength",
      "outputs": [
        {
          "internalType": "uint256",
          "name": "",
          "type": "uint256"
        }
      ],
      "stateMutability": "view",
      "type": "function",
      "constant": true
    },
    {
      "inputs": [],
      "name": "getCandidatosCentroEstudiantesLength",
      "outputs": [
        {
          "internalType": "uint256",
          "name": "",
          "type": "uint256"
        }
      ],
      "stateMutability": "view",
      "type": "function",
      "constant": true
    },
    {
      "inputs": [],
      "name": "getCandidatosConsejoEscuelaLength",
      "outputs": [
        {
          "internalType": "uint256",
          "name": "",
          "type": "uint256"
        }
      ],
      "stateMutability": "view",
      "type": "function",
      "constant": true
    },
    {
      "inputs": [],
      "name": "getCandidatosConsejoFacultadLength",
      "outputs": [
        {
          "internalType": "uint256",
          "name": "",
          "type": "uint256"
        }
      ],
      "stateMutability": "view",
      "type": "function",
      "constant": true
    }
  ],
  "bytecode": "0x608060405234801561001057600080fd5b50600180546001600160a01b03191633179055615d88806100326000396000f3fe60806040523480156200001157600080fd5b5060043610620002c15760003560e01c80636da282ea11620001795780639f06be5c11620000df578063d0b81ec51162000092578063d0b81ec514620007a6578063dd36c46614620007bd578063e24fec8114620007d4578063eaa8411e1462000828578063ebd5d6611462000854578063ef3a4e9f146200086b57600080fd5b80639f06be5c1462000707578063aa6f0cd4146200071e578063b706b6c71462000735578063b85db62b146200074c578063c0465f781462000778578063c2294184146200078f57600080fd5b8063882685d51162000138578063882685d5146200066b578063897307c114620006825780638a7acd9f1462000699578063948f79de14620006d05780639591ed6c14620006e75780639c597f7814620006f057600080fd5b80636da282ea14620005bb57806371a2c97b14620005d2578063763d768e14620005e95780637f3069901462000600578063829f00fb146200061757600080fd5b80634549c160116200022b5780635728764711620001de5780635728764714620005225780635d11ac8e1462000539578063604e84ed146200056c5780636752d24414620005835780636aab7ba6146200059a5780636d93e2cc14620005a457600080fd5b80634549c160146200042d5780634b89420c14620004445780634f64dc05146200047b5780635087715914620004a35780635243d6f414620004ba578063551ed07d146200050b57600080fd5b806321bd2e98116200028457806321bd2e9814620003b757806321f13e7e14620003df57806324c0278f14620004085780632653f13d14620004115780633e51b3c2146200041a5780633e69631d146200042457600080fd5b80630219f38214620002c65780630634d61c14620002f85780630ff680ca146200031e5780631066035c14620003375780631e2fe79a14620003a4575b600080fd5b620002dd620002d73660046200291a565b62000893565b604051620002ef9493929190620029d8565b60405180910390f35b6200030f6200030936600462002a29565b62000b5a565b604051620002ef919062002a43565b620003356200032f36600462002a5f565b62000c0f565b005b6200038b620003483660046200291a565b815160208184018101805160108252928201948201949094209190935281518083018401805192815290840192909301919091209152546001600160a01b031681565b6040516001600160a01b039091168152602001620002ef565b600f545b604051908152602001620002ef565b620003ce620003c836600462002aa7565b62000cff565b604051620002ef9392919062002ae7565b620003f6620003f036600462002a29565b62000eb9565b604051620002ef949392919062002b21565b600b54620003a8565b600954620003a8565b620003a860055481565b601154620003a8565b620003356200043e36600462002b50565b620010bf565b6200038b6200045536600462002aa7565b8051602081830181018051600a825292820191909301209152546001600160a01b031681565b620004926200048c36600462002a29565b6200119f565b6040519015158152602001620002ef565b6200030f620004b436600462002a29565b620011fd565b620004d1620004cb36600462002a29565b6200120e565b604080519615158752941515602087015292151593850193909352151560608401529015156080830152151560a082015260c001620002ef565b620003356200051c36600462002a29565b62001513565b620003356200053336600462002be1565b620015b7565b620005506200054a36600462002a29565b620016c6565b60408051938452602084019290925290820152606001620002ef565b620003356200057d36600462002c54565b62001810565b6200030f6200059436600462002a29565b620018c9565b620003a860075481565b620003a8620005b536600462002a29565b620018da565b62000335620005cc36600462002be1565b620018fc565b62000335620005e336600462002a5f565b620019eb565b62000492620005fa36600462002a29565b62001abc565b620003ce6200061136600462002aa7565b62001b3c565b6200038b620006283660046200291a565b8151602081840181018051600e8252928201948201949094209190935281518083018401805192815290840192909301919091209152546001600160a01b031681565b620003356200067c3660046200291a565b62001c73565b620003356200069336600462002b50565b62001d32565b6200038b620006aa36600462002aa7565b80516020818301810180516008825292820191909301209152546001600160a01b031681565b62000335620006e136600462002c77565b62001e0c565b600d54620003a8565b6200030f6200070136600462002a29565b62001e90565b620003356200071836600462002b50565b62001ea1565b620003356200072f3660046200291a565b62001f7b565b620003356200074636600462002d8b565b62002035565b6200038b6200075d36600462002a29565b6004602052600090815260409020546001600160a01b031681565b620002dd620007893660046200291a565b62002119565b62000335620007a036600462002be1565b6200233c565b6200030f620007b736600462002a29565b6200242b565b6200030f620007ce36600462002a29565b6200243c565b6200038b620007e53660046200291a565b8151602081840181018051600c8252928201948201949094209190935281518083018401805192815290840192909301919091209152546001600160a01b031681565b6200038b6200083936600462002a29565b6006602052600090815260409020546001600160a01b031681565b620002dd620008653660046200291a565b6200244d565b620008826200087c36600462002a29565b62002670565b604051620002ef9392919062002e4d565b60608060606000600c85604051620008ac919062002e86565b908152602001604051809103902086604051620008ca919062002e86565b9081526040805191829003602001822054635e3d9ad960e11b835290516001600160a01b039091169163bc7b35b29160048083019260009291908290030181865afa1580156200091e573d6000803e3d6000fd5b505050506040513d6000823e601f3d908101601f1916820160405262000948919081019062002ef0565b600c866040516200095a919062002e86565b90815260200160405180910390208760405162000978919062002e86565b908152604080519182900360200182205463675892ad60e01b835290516001600160a01b039091169163675892ad9160048083019260009291908290030181865afa158015620009cc573d6000803e3d6000fd5b505050506040513d6000823e601f3d908101601f19168201604052620009f6919081019062002ef0565b600c8760405162000a08919062002e86565b90815260200160405180910390208860405162000a26919062002e86565b9081526040805191829003602001822054634c22e9a560e11b835290516001600160a01b0390911691639845d34a9160048083019260009291908290030181865afa15801562000a7a573d6000803e3d6000fd5b505050506040513d6000823e601f3d908101601f1916820160405262000aa4919081019062002ef0565b600c8860405162000ab6919062002e86565b90815260200160405180910390208960405162000ad4919062002e86565b908152604080516020928190038301812054630d15fd7760e01b825291516001600160a01b0390921692630d15fd77926004808401938290030181865afa15801562000b24573d6000803e3d6000fd5b505050506040513d601f19601f8201168201806040525081019062000b4a919062002f28565b9299919850965090945092505050565b600f818154811062000b6b57600080fd5b90600052602060002001600091509050805462000b889062002f42565b80601f016020809104026020016040519081016040528092919081815260200182805462000bb69062002f42565b801562000c075780601f1062000bdb5761010080835404028352916020019162000c07565b820191906000526020600020905b81548152906001019060200180831162000be957829003601f168201915b505050505081565b600060088360405162000c23919062002e86565b90815260408051918290036020018220546331954d2960e11b835290516001600160a01b039091169250829163632a9a5291600480830192600092919082900301818387803b15801562000c7657600080fd5b505af115801562000c8b573d6000803e3d6000fd5b5050506000838152600460208190526040808320548151631f68d09160e21b815291516001600160a01b0390911694508493637da34244938381019391929182900301818387803b15801562000ce057600080fd5b505af115801562000cf5573d6000803e3d6000fd5b5050505050505050565b606080600060088460405162000d16919062002e86565b90815260408051918290036020018220546388305c2360e01b835290516001600160a01b03909116916388305c239160048083019260009291908290030181865afa15801562000d6a573d6000803e3d6000fd5b505050506040513d6000823e601f3d908101601f1916820160405262000d94919081019062002ef0565b60088560405162000da6919062002e86565b908152604080519182900360200182205463675892ad60e01b835290516001600160a01b039091169163675892ad9160048083019260009291908290030181865afa15801562000dfa573d6000803e3d6000fd5b505050506040513d6000823e601f3d908101601f1916820160405262000e24919081019062002ef0565b60088660405162000e36919062002e86565b908152604080516020928190038301812054630d15fd7760e01b825291516001600160a01b0390921692630d15fd77926004808401938290030181865afa15801562000e86573d6000803e3d6000fd5b505050506040513d601f19601f8201168201806040525081019062000eac919062002f28565b9250925092509193909250565b6000818152600660205260408082205481516306fdde0360e01b8152915160609392849284926001600160a01b03909116916306fdde0391600480830192869291908290030181865afa15801562000f15573d6000803e3d6000fd5b505050506040513d6000823e601f3d908101601f1916820160405262000f3f919081019062002ef0565b60008681526006602090815260409182902054825163af640d0f60e01b815292516001600160a01b039091169263af640d0f9260048083019391928290030181865afa15801562000f94573d6000803e3d6000fd5b505050506040513d601f19601f8201168201806040525081019062000fba919062002f28565b6000878152600660205260408082205481516360329f4160e11b815291516001600160a01b039091169263c0653e8292600480820193918290030181865afa1580156200100b573d6000803e3d6000fd5b505050506040513d6000823e601f3d908101601f1916820160405262001035919081019062002ef0565b600088815260066020908152604091829020548251630d15fd7760e01b815292516001600160a01b0390911692630d15fd779260048083019391928290030181865afa1580156200108a573d6000803e3d6000fd5b505050506040513d601f19601f82011682018060405250810190620010b0919062002f28565b93509350935093509193509193565b828282604051620010d090620027e9565b620010de9392919062002f7e565b604051809103906000f080158015620010fb573d6000803e3d6000fd5b506010826040516200110e919062002e86565b9081526020016040518091039020836040516200112c919062002e86565b90815260405190819003602001902080546001600160a01b03929092166001600160a01b0319909216919091179055601180546001810182556000919091527f31ecc21a745e3968a04e9570e4425bc18fa8019c68028196b546d1669c200c68016200119983826200300f565b50505050565b6000805b600254811015620011f4578260028281548110620011c557620011c5620030db565b906000526020600020015403620011df5750600192915050565b80620011eb81620030f1565b915050620011a3565b50600092915050565b6011818154811062000b6b57600080fd5b6000806000806000806004600088815260200190815260200160002060009054906101000a90046001600160a01b03166001600160a01b031663f79f21106040518163ffffffff1660e01b8152600401602060405180830381865afa1580156200127c573d6000803e3d6000fd5b505050506040513d601f19601f82011682018060405250810190620012a2919062003119565b6000888152600460208181526040928390205483516344cd1b2160e01b815293516001600160a01b03909116936344cd1b21938181019392918290030181865afa158015620012f5573d6000803e3d6000fd5b505050506040513d601f19601f820116820180604052508101906200131b919062003119565b600089815260046020818152604092839020548351632b4af7a360e01b815293516001600160a01b0390911693632b4af7a3938181019392918290030181865afa1580156200136e573d6000803e3d6000fd5b505050506040513d601f19601f8201168201806040525081019062001394919062003119565b60008a8152600460208181526040928390205483516323b55e7360e11b815293516001600160a01b039091169363476abce6938181019392918290030181865afa158015620013e7573d6000803e3d6000fd5b505050506040513d601f19601f820116820180604052508101906200140d919062003119565b60008b8152600460208181526040928390205483516364debb8f60e01b815293516001600160a01b03909116936364debb8f938181019392918290030181865afa15801562001460573d6000803e3d6000fd5b505050506040513d601f19601f8201168201806040525081019062001486919062003119565b60008c815260046020818152604092839020548351632d64a97960e11b815293516001600160a01b0390911693635ac952f2938181019392918290030181865afa158015620014d9573d6000803e3d6000fd5b505050506040513d601f19601f82011682018060405250810190620014ff919062003119565b949c939b5091995097509550909350915050565b6200151e816200119f565b15620015825760405162461bcd60e51b815260206004820152602860248201527f596120736520656e6375656e74726120656e20656c20726567697374726f20656044820152671b1958dd1bdc985b60c21b60648201526084015b60405180910390fd5b600280546001810182556000919091527f405787fa12a823e0f2b7631cc41b3ba8828b3321ca811111fa75cd3aa3bb5ace0155565b6000600e83604051620015cb919062002e86565b908152602001604051809103902084604051620015e9919062002e86565b90815260408051918290036020018220546331954d2960e11b835290516001600160a01b039091169250829163632a9a5291600480830192600092919082900301818387803b1580156200163c57600080fd5b505af115801562001651573d6000803e3d6000fd5b50505060008381526004602081905260408083205481516318ba0a4d60e11b815291516001600160a01b0390911694508493633174149a938381019391929182900301818387803b158015620016a657600080fd5b505af1158015620016bb573d6000803e3d6000fd5b505050505050505050565b60008181526004602081815260408084205481516391b1475360e01b81529151859485946001600160a01b03909316936391b147539381830193909290918290030181865afa1580156200171e573d6000803e3d6000fd5b505050506040513d601f19601f8201168201806040525081019062001744919062002f28565b60008581526004602081815260409283902054835163bcd75c5360e01b815293516001600160a01b039091169363bcd75c53938181019392918290030181865afa15801562001797573d6000803e3d6000fd5b505050506040513d601f19601f82011682018060405250810190620017bd919062002f28565b600086815260046020818152604092839020548351631d8b195f60e31b815293516001600160a01b039091169363ec58caf8938181019392918290030181865afa15801562000e86573d6000803e3d6000fd5b6000828152600660205260408082205481516331954d2960e11b815291516001600160a01b0390911692839263632a9a52926004808301939282900301818387803b1580156200185f57600080fd5b505af115801562001874573d6000803e3d6000fd5b50505060008381526004602081905260408083205481516397e8cff960e01b815291516001600160a01b03909116945084936397e8cff9938381019391929182900301818387803b15801562000ce057600080fd5b6003818154811062000b6b57600080fd5b60028181548110620018eb57600080fd5b600091825260209091200154905081565b600060108360405162001910919062002e86565b9081526020016040518091039020846040516200192e919062002e86565b90815260408051918290036020018220546331954d2960e11b835290516001600160a01b039091169250829163632a9a5291600480830192600092919082900301818387803b1580156200198157600080fd5b505af115801562001996573d6000803e3d6000fd5b5050506000838152600460208190526040808320548151636c6bd0f360e01b815291516001600160a01b0390911694508493636c6bd0f3938381019391929182900301818387803b158015620016a657600080fd5b6000600a83604051620019ff919062002e86565b90815260408051918290036020018220546331954d2960e11b835290516001600160a01b039091169250829163632a9a5291600480830192600092919082900301818387803b15801562001a5257600080fd5b505af115801562001a67573d6000803e3d6000fd5b5050506000838152600460208190526040808320548151631afe0f6760e11b815291516001600160a01b03909116945084936335fc1ece938381019391929182900301818387803b15801562000ce057600080fd5b60008181526004602081815260408084205481516329a5e67f60e21b815291516001600160a01b039091169363a69799fc9383820193909291908290030181865afa15801562001b10573d6000803e3d6000fd5b505050506040513d601f19601f8201168201806040525081019062001b36919062003119565b92915050565b6060806000600a8460405162001b53919062002e86565b90815260408051918290036020018220546388305c2360e01b835290516001600160a01b03909116916388305c239160048083019260009291908290030181865afa15801562001ba7573d6000803e3d6000fd5b505050506040513d6000823e601f3d908101601f1916820160405262001bd1919081019062002ef0565b600a8560405162001be3919062002e86565b908152604080519182900360200182205463675892ad60e01b835290516001600160a01b039091169163675892ad9160048083019260009291908290030181865afa15801562001c37573d6000803e3d6000fd5b505050506040513d6000823e601f3d908101601f1916820160405262001c61919081019062002ef0565b600a8660405162000e36919062002e86565b818160405162001c8390620027f7565b62001c909291906200313d565b604051809103906000f08015801562001cad573d6000803e3d6000fd5b50600a8260405162001cc0919062002e86565b90815260405190819003602001902080546001600160a01b03929092166001600160a01b0319909216919091179055600b80546001810182556000919091527f0175b7a638427703f0dbe7bb9bbf987a2551717b34e79f33b5b1008d1fa01db90162001d2d82826200300f565b505050565b82828260405162001d439062002805565b62001d519392919062002f7e565b604051809103906000f08015801562001d6e573d6000803e3d6000fd5b50600c8260405162001d81919062002e86565b90815260200160405180910390208360405162001d9f919062002e86565b90815260405190819003602001902080546001600160a01b03929092166001600160a01b0319909216919091179055600d80546001810182556000919091527fd7b6990105719101dabeb77144f2a3385c8033acd3af97e9423a695e81ad1eb5016200119983826200300f565b82828260405162001e1d9062002813565b62001e2b939291906200316f565b604051809103906000f08015801562001e48573d6000803e3d6000fd5b50600083815260066020526040812080546001600160a01b0319166001600160a01b039390931692909217909155600780549162001e8683620030f1565b9190505550505050565b600b818154811062000b6b57600080fd5b82828260405162001eb29062002821565b62001ec09392919062002f7e565b604051809103906000f08015801562001edd573d6000803e3d6000fd5b50600e8260405162001ef0919062002e86565b90815260200160405180910390208360405162001f0e919062002e86565b90815260405190819003602001902080546001600160a01b03929092166001600160a01b0319909216919091179055600f80546001810182556000919091527f8d1108e10bcb7c27dddfc02ed9d693a074039d026cf4ea4240b40f7d581ac802016200119983826200300f565b818160405162001f8b906200282f565b62001f989291906200313d565b604051809103906000f08015801562001fb5573d6000803e3d6000fd5b5060088260405162001fc8919062002e86565b90815260405190819003602001902080546001600160a01b03929092166001600160a01b0319909216919091179055600980546001810182556000919091527f6e1540171b6c0c960b71a7020d9f60077f6af931a8bbf590da0223dacf75c7af0162001d2d82826200300f565b62002040836200119f565b6200209f5760405162461bcd60e51b815260206004820152602860248201527f4e6f20736520656e6375656e74726120656e20656c20726567697374726f20656044820152671b1958dd1bdc985b60c21b606482015260840162001579565b828282604051620020b0906200283d565b620020be9392919062002e4d565b604051809103906000f080158015620020db573d6000803e3d6000fd5b50600084815260046020526040812080546001600160a01b0319166001600160a01b039390931692909217909155600580549162001e8683620030f1565b60608060606000600e8560405162002132919062002e86565b90815260200160405180910390208660405162002150919062002e86565b9081526040805191829003602001822054635e3d9ad960e11b835290516001600160a01b039091169163bc7b35b29160048083019260009291908290030181865afa158015620021a4573d6000803e3d6000fd5b505050506040513d6000823e601f3d908101601f19168201604052620021ce919081019062002ef0565b600e86604051620021e0919062002e86565b908152602001604051809103902087604051620021fe919062002e86565b908152604080519182900360200182205463675892ad60e01b835290516001600160a01b039091169163675892ad9160048083019260009291908290030181865afa15801562002252573d6000803e3d6000fd5b505050506040513d6000823e601f3d908101601f191682016040526200227c919081019062002ef0565b600e876040516200228e919062002e86565b908152602001604051809103902088604051620022ac919062002e86565b9081526040805191829003602001822054634c22e9a560e11b835290516001600160a01b0390911691639845d34a9160048083019260009291908290030181865afa15801562002300573d6000803e3d6000fd5b505050506040513d6000823e601f3d908101601f191682016040526200232a919081019062002ef0565b600e8860405162000ab6919062002e86565b6000600c8360405162002350919062002e86565b9081526020016040518091039020846040516200236e919062002e86565b90815260408051918290036020018220546331954d2960e11b835290516001600160a01b039091169250829163632a9a5291600480830192600092919082900301818387803b158015620023c157600080fd5b505af1158015620023d6573d6000803e3d6000fd5b50505060008381526004602081905260408083205481516391a10b0160e01b815291516001600160a01b03909116945084936391a10b01938381019391929182900301818387803b158015620016a657600080fd5b6009818154811062000b6b57600080fd5b600d818154811062000b6b57600080fd5b6060806060600060108560405162002466919062002e86565b90815260200160405180910390208660405162002484919062002e86565b9081526040805191829003602001822054635e3d9ad960e11b835290516001600160a01b039091169163bc7b35b29160048083019260009291908290030181865afa158015620024d8573d6000803e3d6000fd5b505050506040513d6000823e601f3d908101601f1916820160405262002502919081019062002ef0565b60108660405162002514919062002e86565b90815260200160405180910390208760405162002532919062002e86565b908152604080519182900360200182205463675892ad60e01b835290516001600160a01b039091169163675892ad9160048083019260009291908290030181865afa15801562002586573d6000803e3d6000fd5b505050506040513d6000823e601f3d908101601f19168201604052620025b0919081019062002ef0565b601087604051620025c2919062002e86565b908152602001604051809103902088604051620025e0919062002e86565b908152604080519182900360200182205463148213bb60e01b835290516001600160a01b039091169163148213bb9160048083019260009291908290030181865afa15801562002634573d6000803e3d6000fd5b505050506040513d6000823e601f3d908101601f191682016040526200265e919081019062002ef0565b60108860405162000ab6919062002e86565b600081815260046020818152604080842054815163ab9dbd0760e01b8152915160609485946001600160a01b039093169363ab9dbd079381830193909290918290030181865afa158015620026c9573d6000803e3d6000fd5b505050506040513d601f19601f82011682018060405250810190620026ef919062002f28565b60008581526004602081905260408083205481516361a6958760e01b815291516001600160a01b03909116936361a6958793838101939192918290030181865afa15801562002742573d6000803e3d6000fd5b505050506040513d6000823e601f3d908101601f191682016040526200276c91908101906200319e565b6000868152600460208190526040808320548151634a51ede360e01b815291516001600160a01b0390911693634a51ede393838101939192918290030181865afa158015620027bf573d6000803e3d6000fd5b505050506040513d6000823e601f3d908101601f1916820160405262000eac91908101906200319e565b61053f806200325b83390190565b610542806200379a83390190565b61053f8062003cdc83390190565b610515806200421b83390190565b61053f806200473083390190565b6105458062004c6f83390190565b610b9f80620051b483390190565b634e487b7160e01b600052604160045260246000fd5b604051601f8201601f191681016001600160401b03811182821017156200288c576200288c6200284b565b604052919050565b60006001600160401b03821115620028b057620028b06200284b565b50601f01601f191660200190565b600082601f830112620028d057600080fd5b8135620028e7620028e18262002894565b62002861565b818152846020838601011115620028fd57600080fd5b816020850160208301376000918101602001919091529392505050565b600080604083850312156200292e57600080fd5b82356001600160401b03808211156200294657600080fd5b6200295486838701620028be565b935060208501359150808211156200296b57600080fd5b506200297a85828601620028be565b9150509250929050565b60005b83811015620029a157818101518382015260200162002987565b50506000910152565b60008151808452620029c481602086016020860162002984565b601f01601f19169290920160200192915050565b608081526000620029ed6080830187620029aa565b828103602084015262002a018187620029aa565b9050828103604084015262002a178186620029aa565b91505082606083015295945050505050565b60006020828403121562002a3c57600080fd5b5035919050565b60208152600062002a586020830184620029aa565b9392505050565b6000806040838503121562002a7357600080fd5b82356001600160401b0381111562002a8a57600080fd5b62002a9885828601620028be565b95602094909401359450505050565b60006020828403121562002aba57600080fd5b81356001600160401b0381111562002ad157600080fd5b62002adf84828501620028be565b949350505050565b60608152600062002afc6060830186620029aa565b828103602084015262002b108186620029aa565b915050826040830152949350505050565b60808152600062002b366080830187620029aa565b856020840152828103604084015262002a178186620029aa565b60008060006060848603121562002b6657600080fd5b83356001600160401b038082111562002b7e57600080fd5b62002b8c87838801620028be565b9450602086013591508082111562002ba357600080fd5b62002bb187838801620028be565b9350604086013591508082111562002bc857600080fd5b5062002bd786828701620028be565b9150509250925092565b60008060006060848603121562002bf757600080fd5b83356001600160401b038082111562002c0f57600080fd5b62002c1d87838801620028be565b9450602086013591508082111562002c3457600080fd5b5062002c4386828701620028be565b925050604084013590509250925092565b6000806040838503121562002c6857600080fd5b50508035926020909101359150565b60008060006060848603121562002c8d57600080fd5b83356001600160401b038082111562002ca557600080fd5b62002cb387838801620028be565b945060208601359350604086013591508082111562002bc857600080fd5b60006001600160401b0382111562002ced5762002ced6200284b565b5060051b60200190565b600082601f83011262002d0957600080fd5b8135602062002d1c620028e18362002cd1565b82815260059290921b8401810191818101908684111562002d3c57600080fd5b8286015b8481101562002d805780356001600160401b0381111562002d615760008081fd5b62002d718986838b0101620028be565b84525091830191830162002d40565b509695505050505050565b60008060006060848603121562002da157600080fd5b8335925060208401356001600160401b038082111562002dc057600080fd5b62002dce8783880162002cf7565b9350604086013591508082111562002de557600080fd5b5062002bd78682870162002cf7565b600081518084526020808501808196508360051b8101915082860160005b8581101562002e4057828403895262002e2d848351620029aa565b9885019893509084019060010162002e12565b5091979650505050505050565b83815260606020820152600062002e68606083018562002df4565b828103604084015262002e7c818562002df4565b9695505050505050565b6000825162002e9a81846020870162002984565b9190910192915050565b600082601f83011262002eb657600080fd5b815162002ec7620028e18262002894565b81815284602083860101111562002edd57600080fd5b62002adf82602083016020870162002984565b60006020828403121562002f0357600080fd5b81516001600160401b0381111562002f1a57600080fd5b62002adf8482850162002ea4565b60006020828403121562002f3b57600080fd5b5051919050565b600181811c9082168062002f5757607f821691505b60208210810362002f7857634e487b7160e01b600052602260045260246000fd5b50919050565b60608152600062002f936060830186620029aa565b828103602084015262002fa78186620029aa565b9050828103604084015262002e7c8185620029aa565b601f82111562001d2d57600081815260208120601f850160051c8101602086101562002fe65750805b601f850160051c820191505b81811015620030075782815560010162002ff2565b505050505050565b81516001600160401b038111156200302b576200302b6200284b565b62003043816200303c845462002f42565b8462002fbd565b602080601f8311600181146200307b5760008415620030625750858301515b600019600386901b1c1916600185901b17855562003007565b600085815260208120601f198616915b82811015620030ac578886015182559484019460019091019084016200308b565b5085821015620030cb5787850151600019600388901b60f8161c191681555b5050505050600190811b01905550565b634e487b7160e01b600052603260045260246000fd5b6000600182016200311257634e487b7160e01b600052601160045260246000fd5b5060010190565b6000602082840312156200312c57600080fd5b8151801515811462002a5857600080fd5b604081526000620031526040830185620029aa565b8281036020840152620031668185620029aa565b95945050505050565b606081526000620031846060830186620029aa565b846020840152828103604084015262002e7c8185620029aa565b60006020808385031215620031b257600080fd5b82516001600160401b0380821115620031ca57600080fd5b818501915085601f830112620031df57600080fd5b8151620031f0620028e18262002cd1565b81815260059190911b830184019084810190888311156200321057600080fd5b8585015b838110156200324d578051858111156200322e5760008081fd5b6200323e8b89838a010162002ea4565b84525091860191860162003214565b509897505050505050505056fe60806040526000805534801561001457600080fd5b5060405161053f38038061053f8339810160408190526100339161011d565b600161003f848261022d565b50600261004c838261022d565b506003610059828261022d565b505050506102ec565b634e487b7160e01b600052604160045260246000fd5b600082601f83011261008957600080fd5b81516001600160401b03808211156100a3576100a3610062565b604051601f8301601f19908116603f011681019082821181831017156100cb576100cb610062565b816040528381526020925086838588010111156100e757600080fd5b600091505b8382101561010957858201830151818301840152908201906100ec565b600093810190920192909252949350505050565b60008060006060848603121561013257600080fd5b83516001600160401b038082111561014957600080fd5b61015587838801610078565b9450602086015191508082111561016b57600080fd5b61017787838801610078565b9350604086015191508082111561018d57600080fd5b5061019a86828701610078565b9150509250925092565b600181811c908216806101b857607f821691505b6020821081036101d857634e487b7160e01b600052602260045260246000fd5b50919050565b601f82111561022857600081815260208120601f850160051c810160208610156102055750805b601f850160051c820191505b8181101561022457828155600101610211565b5050505b505050565b81516001600160401b0381111561024657610246610062565b61025a8161025484546101a4565b846101de565b602080601f83116001811461028f57600084156102775750858301515b600019600386901b1c1916600185901b178555610224565b600085815260208120601f198616915b828110156102be5788860151825594840194600190910190840161029f565b50858210156102dc5787850151600019600388901b60f8161c191681555b5050505050600190811b01905550565b610244806102fb6000396000f3fe608060405234801561001057600080fd5b50600436106100575760003560e01c80630d15fd771461005c578063148213bb14610072578063632a9a5214610087578063675892ad14610091578063bc7b35b214610099575b600080fd5b6000546040519081526020015b60405180910390f35b61007a6100a1565b604051610069919061015f565b61008f61012f565b005b61007a610145565b61007a610152565b600380546100ae906101ad565b80601f01602080910402602001604051908101604052809291908181526020018280546100da906101ad565b80156101275780601f106100fc57610100808354040283529160200191610127565b820191906000526020600020905b81548152906001019060200180831161010a57829003601f168201915b505050505081565b60008054908061013e836101e7565b9190505550565b600280546100ae906101ad565b600180546100ae906101ad565b600060208083528351808285015260005b8181101561018c57858101830151858201604001528201610170565b506000604082860101526040601f19601f8301168501019250505092915050565b600181811c908216806101c157607f821691505b6020821081036101e157634e487b7160e01b600052602260045260246000fd5b50919050565b60006001820161020757634e487b7160e01b600052601160045260246000fd5b506001019056fea26469706673582212200c289cd72f11e650bf51fdddb4bd94fb901250cd3129391f830558a6c69ac66064736f6c6343000811003360806040526000805534801561001457600080fd5b5060405161054238038061054283398101604081905261003391610144565b818160016100418382610230565b50600261004e8282610230565b505060408051808201909152600c81526b21b7b7b93234b730b1b4b7b760a11b6020820152600391506100819082610230565b5050506102ef565b634e487b7160e01b600052604160045260246000fd5b600082601f8301126100b057600080fd5b81516001600160401b03808211156100ca576100ca610089565b604051601f8301601f19908116603f011681019082821181831017156100f2576100f2610089565b8160405283815260209250868385880101111561010e57600080fd5b600091505b838210156101305785820183015181830184015290820190610113565b600093810190920192909252949350505050565b6000806040838503121561015757600080fd5b82516001600160401b038082111561016e57600080fd5b61017a8683870161009f565b9350602085015191508082111561019057600080fd5b5061019d8582860161009f565b9150509250929050565b600181811c908216806101bb57607f821691505b6020821081036101db57634e487b7160e01b600052602260045260246000fd5b50919050565b601f82111561022b57600081815260208120601f850160051c810160208610156102085750805b601f850160051c820191505b8181101561022757828155600101610214565b5050505b505050565b81516001600160401b0381111561024957610249610089565b61025d8161025784546101a7565b846101e1565b602080601f831160018114610292576000841561027a5750858301515b600019600386901b1c1916600185901b178555610227565b600085815260208120601f198616915b828110156102c1578886015182559484019460019091019084016102a2565b50858210156102df5787850151600019600388901b60f8161c191681555b5050505050600190811b01905550565b610244806102fe6000396000f3fe608060405234801561001057600080fd5b50600436106100575760003560e01c80630d15fd771461005c57806328d7573514610072578063632a9a5214610087578063675892ad1461009157806388305c2314610099575b600080fd5b6000546040519081526020015b60405180910390f35b61007a6100a1565b604051610069919061015f565b61008f61012f565b005b61007a610145565b61007a610152565b600380546100ae906101ad565b80601f01602080910402602001604051908101604052809291908181526020018280546100da906101ad565b80156101275780601f106100fc57610100808354040283529160200191610127565b820191906000526020600020905b81548152906001019060200180831161010a57829003601f168201915b505050505081565b60008054908061013e836101e7565b9190505550565b600280546100ae906101ad565b600180546100ae906101ad565b600060208083528351808285015260005b8181101561018c57858101830151858201604001528201610170565b506000604082860101526040601f19601f8301168501019250505092915050565b600181811c908216806101c157607f821691505b6020821081036101e157634e487b7160e01b600052602260045260246000fd5b50919050565b60006001820161020757634e487b7160e01b600052601160045260246000fd5b506001019056fea26469706673582212203ad981a824673233bc7245cbc082bf74bea402682fc9b82d86aaa368f190b3c664736f6c6343000811003360806040526000805534801561001457600080fd5b5060405161053f38038061053f8339810160408190526100339161011d565b600161003f848261022d565b50600261004c838261022d565b506003610059828261022d565b505050506102ec565b634e487b7160e01b600052604160045260246000fd5b600082601f83011261008957600080fd5b81516001600160401b03808211156100a3576100a3610062565b604051601f8301601f19908116603f011681019082821181831017156100cb576100cb610062565b816040528381526020925086838588010111156100e757600080fd5b600091505b8382101561010957858201830151818301840152908201906100ec565b600093810190920192909252949350505050565b60008060006060848603121561013257600080fd5b83516001600160401b038082111561014957600080fd5b61015587838801610078565b9450602086015191508082111561016b57600080fd5b61017787838801610078565b9350604086015191508082111561018d57600080fd5b5061019a86828701610078565b9150509250925092565b600181811c908216806101b857607f821691505b6020821081036101d857634e487b7160e01b600052602260045260246000fd5b50919050565b601f82111561022857600081815260208120601f850160051c810160208610156102055750805b601f850160051c820191505b8181101561022457828155600101610211565b5050505b505050565b81516001600160401b0381111561024657610246610062565b61025a8161025484546101a4565b846101de565b602080601f83116001811461028f57600084156102775750858301515b600019600386901b1c1916600185901b178555610224565b600085815260208120601f198616915b828110156102be5788860151825594840194600190910190840161029f565b50858210156102dc5787850151600019600388901b60f8161c191681555b5050505050600190811b01905550565b610244806102fb6000396000f3fe608060405234801561001057600080fd5b50600436106100575760003560e01c80630d15fd771461005c578063632a9a5214610072578063675892ad1461007c5780639845d34a14610091578063bc7b35b214610099575b600080fd5b6000546040519081526020015b60405180910390f35b61007a6100a1565b005b6100846100b7565b604051610069919061015f565b610084610145565b610084610152565b6000805490806100b0836101ad565b9190505550565b600280546100c4906101d4565b80601f01602080910402602001604051908101604052809291908181526020018280546100f0906101d4565b801561013d5780601f106101125761010080835404028352916020019161013d565b820191906000526020600020905b81548152906001019060200180831161012057829003601f168201915b505050505081565b600380546100c4906101d4565b600180546100c4906101d4565b600060208083528351808285015260005b8181101561018c57858101830151858201604001528201610170565b506000604082860101526040601f19601f8301168501019250505092915050565b6000600182016101cd57634e487b7160e01b600052601160045260246000fd5b5060010190565b600181811c908216806101e857607f821691505b60208210810361020857634e487b7160e01b600052602260045260246000fd5b5091905056fea2646970667358221220382515be6ce43fe8e5782d2c887cebaac4ecd49729b18586de131617fafe62cc64736f6c6343000811003360806040526000805534801561001457600080fd5b5060405161051538038061051583398101604081905261003391610115565b600161003f848261020a565b5060028290556003610051828261020a565b505050506102c9565b634e487b7160e01b600052604160045260246000fd5b600082601f83011261008157600080fd5b81516001600160401b038082111561009b5761009b61005a565b604051601f8301601f19908116603f011681019082821181831017156100c3576100c361005a565b816040528381526020925086838588010111156100df57600080fd5b600091505b8382101561010157858201830151818301840152908201906100e4565b600093810190920192909252949350505050565b60008060006060848603121561012a57600080fd5b83516001600160401b038082111561014157600080fd5b61014d87838801610070565b945060208601519350604086015191508082111561016a57600080fd5b5061017786828701610070565b9150509250925092565b600181811c9082168061019557607f821691505b6020821081036101b557634e487b7160e01b600052602260045260246000fd5b50919050565b601f82111561020557600081815260208120601f850160051c810160208610156101e25750805b601f850160051c820191505b81811015610201578281556001016101ee565b5050505b505050565b81516001600160401b038111156102235761022361005a565b610237816102318454610181565b846101bb565b602080601f83116001811461026c57600084156102545750858301515b600019600386901b1c1916600185901b178555610201565b600085815260208120601f198616915b8281101561029b5788860151825594840194600190910190840161027c565b50858210156102b95787850151600019600388901b60f8161c191681555b5050505050600190811b01905550565b61023d806102d86000396000f3fe608060405234801561001057600080fd5b50600436106100575760003560e01c806306fdde031461005c5780630d15fd771461007a578063632a9a521461008c578063af640d0f14610096578063c0653e821461009f575b600080fd5b6100646100a7565b6040516100719190610158565b60405180910390f35b6000545b604051908152602001610071565b610094610135565b005b61007e60025481565b61006461014b565b600180546100b4906101a6565b80601f01602080910402602001604051908101604052809291908181526020018280546100e0906101a6565b801561012d5780601f106101025761010080835404028352916020019161012d565b820191906000526020600020905b81548152906001019060200180831161011057829003601f168201915b505050505081565b600080549080610144836101e0565b9190505550565b600380546100b4906101a6565b600060208083528351808285015260005b8181101561018557858101830151858201604001528201610169565b506000604082860101526040601f19601f8301168501019250505092915050565b600181811c908216806101ba57607f821691505b6020821081036101da57634e487b7160e01b600052602260045260246000fd5b50919050565b60006001820161020057634e487b7160e01b600052601160045260246000fd5b506001019056fea264697066735822122070f0857ebe4551fbb7137d45defd19bafeb289ffd312338cbe7668d13b06ab7264736f6c6343000811003360806040526000805534801561001457600080fd5b5060405161053f38038061053f8339810160408190526100339161011d565b600161003f848261022d565b50600261004c838261022d565b506003610059828261022d565b505050506102ec565b634e487b7160e01b600052604160045260246000fd5b600082601f83011261008957600080fd5b81516001600160401b03808211156100a3576100a3610062565b604051601f8301601f19908116603f011681019082821181831017156100cb576100cb610062565b816040528381526020925086838588010111156100e757600080fd5b600091505b8382101561010957858201830151818301840152908201906100ec565b600093810190920192909252949350505050565b60008060006060848603121561013257600080fd5b83516001600160401b038082111561014957600080fd5b61015587838801610078565b9450602086015191508082111561016b57600080fd5b61017787838801610078565b9350604086015191508082111561018d57600080fd5b5061019a86828701610078565b9150509250925092565b600181811c908216806101b857607f821691505b6020821081036101d857634e487b7160e01b600052602260045260246000fd5b50919050565b601f82111561022857600081815260208120601f850160051c810160208610156102055750805b601f850160051c820191505b8181101561022457828155600101610211565b5050505b505050565b81516001600160401b0381111561024657610246610062565b61025a8161025484546101a4565b846101de565b602080601f83116001811461028f57600084156102775750858301515b600019600386901b1c1916600185901b178555610224565b600085815260208120601f198616915b828110156102be5788860151825594840194600190910190840161029f565b50858210156102dc5787850151600019600388901b60f8161c191681555b5050505050600190811b01905550565b610244806102fb6000396000f3fe608060405234801561001057600080fd5b50600436106100575760003560e01c80630d15fd771461005c578063632a9a5214610072578063675892ad1461007c5780639845d34a14610091578063bc7b35b214610099575b600080fd5b6000546040519081526020015b60405180910390f35b61007a6100a1565b005b6100846100b7565b604051610069919061015f565b610084610145565b610084610152565b6000805490806100b0836101ad565b9190505550565b600280546100c4906101d4565b80601f01602080910402602001604051908101604052809291908181526020018280546100f0906101d4565b801561013d5780601f106101125761010080835404028352916020019161013d565b820191906000526020600020905b81548152906001019060200180831161012057829003601f168201915b505050505081565b600380546100c4906101d4565b600180546100c4906101d4565b600060208083528351808285015260005b8181101561018c57858101830151858201604001528201610170565b506000604082860101526040601f19601f8301168501019250505092915050565b6000600182016101cd57634e487b7160e01b600052601160045260246000fd5b5060010190565b600181811c908216806101e857607f821691505b60208210810361020857634e487b7160e01b600052602260045260246000fd5b5091905056fea26469706673582212205da7d32ae5d66e4f981b688e209791eaa424c718c3fa18a1d00e411e94eab9f064736f6c6343000811003360806040526000805534801561001457600080fd5b5060405161054538038061054583398101604081905261003391610147565b818160016100418382610233565b50600261004e8282610233565b505060408051808201909152600f81526e4a756e74612044697265637469766160881b6020820152600391506100849082610233565b5050506102f2565b634e487b7160e01b600052604160045260246000fd5b600082601f8301126100b357600080fd5b81516001600160401b03808211156100cd576100cd61008c565b604051601f8301601f19908116603f011681019082821181831017156100f5576100f561008c565b8160405283815260209250868385880101111561011157600080fd5b600091505b838210156101335785820183015181830184015290820190610116565b600093810190920192909252949350505050565b6000806040838503121561015a57600080fd5b82516001600160401b038082111561017157600080fd5b61017d868387016100a2565b9350602085015191508082111561019357600080fd5b506101a0858286016100a2565b9150509250929050565b600181811c908216806101be57607f821691505b6020821081036101de57634e487b7160e01b600052602260045260246000fd5b50919050565b601f82111561022e57600081815260208120601f850160051c8101602086101561020b5750805b601f850160051c820191505b8181101561022a57828155600101610217565b5050505b505050565b81516001600160401b0381111561024c5761024c61008c565b6102608161025a84546101aa565b846101e4565b602080601f831160018114610295576000841561027d5750858301515b600019600386901b1c1916600185901b17855561022a565b600085815260208120601f198616915b828110156102c4578886015182559484019460019091019084016102a5565b50858210156102e25787850151600019600388901b60f8161c191681555b5050505050600190811b01905550565b610244806103016000396000f3fe608060405234801561001057600080fd5b50600436106100575760003560e01c80630d15fd771461005c57806328d7573514610072578063632a9a5214610087578063675892ad1461009157806388305c2314610099575b600080fd5b6000546040519081526020015b60405180910390f35b61007a6100a1565b604051610069919061015f565b61008f61012f565b005b61007a610145565b61007a610152565b600380546100ae906101ad565b80601f01602080910402602001604051908101604052809291908181526020018280546100da906101ad565b80156101275780601f106100fc57610100808354040283529160200191610127565b820191906000526020600020905b81548152906001019060200180831161010a57829003601f168201915b505050505081565b60008054908061013e836101e7565b9190505550565b600280546100ae906101ad565b600180546100ae906101ad565b600060208083528351808285015260005b8181101561018c57858101830151858201604001528201610170565b506000604082860101526040601f19601f8301168501019250505092915050565b600181811c908216806101c157607f821691505b6020821081036101e157634e487b7160e01b600052602260045260246000fd5b50919050565b60006001820161020757634e487b7160e01b600052601160045260246000fd5b506001019056fea264697066735822122052fce67eec0663e0faa4c7575d7e5c454ca9b62e91f7921f59679c5173bc223464736f6c6343000811003360806040523480156200001157600080fd5b5060405162000b9f38038062000b9f8339810160408190526200003491620002cd565b600083905581516200004e9060019060208501906200008f565b508051620000649060029060208401906200008f565b50506003805466ffffffffffffff19169055505060015460048190556006556002546005556200049c565b828054828255906000526020600020908101928215620000da579160200282015b82811115620000da5782518290620000c99082620003d0565b5091602001919060010190620000b0565b50620000e8929150620000ec565b5090565b80821115620000e85760006200010382826200010d565b50600101620000ec565b5080546200011b9062000341565b6000825580601f106200012c575050565b601f0160209004906000526020600020908101906200014c91906200014f565b50565b5b80821115620000e8576000815560010162000150565b634e487b7160e01b600052604160045260246000fd5b604051601f8201601f191681016001600160401b0381118282101715620001a757620001a762000166565b604052919050565b6000601f8381840112620001c257600080fd5b825160206001600160401b0380831115620001e157620001e162000166565b8260051b620001f28382016200017c565b93845286810183019383810190898611156200020d57600080fd5b84890192505b85831015620002c0578251848111156200022d5760008081fd5b8901603f81018b13620002405760008081fd5b858101518581111562000257576200025762000166565b6200026a818a01601f191688016200017c565b81815260408d81848601011115620002825760008081fd5b60005b83811015620002a2578481018201518382018b0152890162000285565b50506000918101880191909152835250918401919084019062000213565b9998505050505050505050565b600080600060608486031215620002e357600080fd5b835160208501519093506001600160401b03808211156200030357600080fd5b6200031187838801620001af565b935060408601519150808211156200032857600080fd5b506200033786828701620001af565b9150509250925092565b600181811c908216806200035657607f821691505b6020821081036200037757634e487b7160e01b600052602260045260246000fd5b50919050565b601f821115620003cb57600081815260208120601f850160051c81016020861015620003a65750805b601f850160051c820191505b81811015620003c757828155600101620003b2565b5050505b505050565b81516001600160401b03811115620003ec57620003ec62000166565b6200040481620003fd845462000341565b846200037d565b602080601f8311600181146200043c5760008415620004235750858301515b600019600386901b1c1916600185901b178555620003c7565b600085815260208120601f198616915b828110156200046d578886015182559484019460019091019084016200044c565b50858210156200048c5787850151600019600388901b60f8161c191681555b5050505050600190811b01905550565b6106f380620004ac6000396000f3fe608060405234801561001057600080fd5b506004361061012c5760003560e01c80636c6bd0f3116100ad578063a69799fc11610071578063a69799fc14610209578063ab9dbd0714610211578063bcd75c5314610219578063ec58caf814610221578063f79f21101461022957600080fd5b80636c6bd0f3146101d75780637da34244146101df57806391a10b01146101e757806391b14753146101ef57806397e8cff91461020157600080fd5b8063476abce6116100f4578063476abce6146101835780634a51ede3146101965780635ac952f2146101ab57806361a69587146101bd57806364debb8f146101c557600080fd5b8063159e7064146101315780632b4af7a31461014e5780633174149a1461016057806335fc1ece1461016a57806344cd1b2114610172575b600080fd5b60035460ff16155b60405190151581526020015b60405180910390f35b6003546301000000900460ff16610139565b610168610239565b005b610168610285565b60035462010000900460ff16610139565b600354640100000000900460ff16610139565b61019e6102b1565b60405161014591906105cc565b600354600160301b900460ff16610139565b61019e61038a565b600354600160281b900460ff16610139565b61016861045a565b6101686104a7565b6101686104d0565b6004545b604051908152602001610145565b61016861051d565b610139610543565b6000546101f3565b6005546101f3565b6006546101f3565b600354610100900460ff16610139565b600354600160281b900460ff161561025057600080fd5b600680549060006102608361065e565b90915550506006546003805465ff000000000019169115600160281b02919091179055565b6003546301000000900460ff161561029c57600080fd5b6003805463ff00000019166301000000179055565b60606002805480602002602001604051908101604052809291908181526020016000905b828210156103815783829060005260206000200180546102f490610683565b80601f016020809104026020016040519081016040528092919081815260200182805461032090610683565b801561036d5780601f106103425761010080835404028352916020019161036d565b820191906000526020600020905b81548152906001019060200180831161035057829003601f168201915b5050505050815260200190600101906102d5565b50505050905090565b60606001805480602002602001604051908101604052809291908181526020016000905b828210156103815783829060005260206000200180546103cd90610683565b80601f01602080910402602001604051908101604052809291908181526020018280546103f990610683565b80156104465780601f1061041b57610100808354040283529160200191610446565b820191906000526020600020905b81548152906001019060200180831161042957829003601f168201915b5050505050815260200190600101906103ae565b600354600160301b900460ff161561047157600080fd5b600580549060006104818361065e565b90915550506005546003805466ff00000000000019169115600160301b02919091179055565b60035462010000900460ff16156104bd57600080fd5b6003805462ff0000191662010000179055565b600354640100000000900460ff16156104e857600080fd5b600480549060006104f88361065e565b90915550506004546003805464ff000000001916911564010000000002919091179055565b600354610100900460ff161561053257600080fd5b6003805461ff001916610100179055565b600354600090640100000000900460ff16158061056a5750600354600160301b900460ff16155b8061057f5750600354600160281b900460ff16155b8061059457506003546301000000900460ff16155b806105a8575060035462010000900460ff16155b806105bb5750600354610100900460ff16155b156105c65750600090565b50600190565b6000602080830181845280855180835260408601915060408160051b87010192508387016000805b8381101561065057888603603f1901855282518051808852835b81811015610629578281018a01518982018b0152890161060e565b508781018901849052601f01601f19169096018701955093860193918601916001016105f4565b509398975050505050505050565b60008161067b57634e487b7160e01b600052601160045260246000fd5b506000190190565b600181811c9082168061069757607f821691505b6020821081036106b757634e487b7160e01b600052602260045260246000fd5b5091905056fea26469706673582212201addd6ce09df533c47698666d40c6a23fc1529374cf4e1fe3cfe8b410db5086964736f6c63430008110033a2646970667358221220d2a210d2e6d165ff6e96abb9d1a4248f5d6f8701bec45c1b72c30278d8f227e564736f6c63430008110033",
  "immutableReferences": {},
  "source": "// SPDX-Licence-Identifier: UNLICENSED\r\npragma solidity ^0.8.0;\r\nimport \"./Candidate.sol\";\r\nimport \"./StringCompare.sol\";\r\nimport \"./Votante.sol\";\r\n\r\n\r\ncontract Eleccion {\r\n    string nombre;\r\n    address owner;\r\n\r\n    uint[] public registroElectoral;\r\n\r\n    string[] public escuelas;\r\n\r\n    mapping (uint => Votante) public votantesRegistrados;\r\n    uint public numeroVotantesRegistrados;\r\n    mapping (uint => ConsejoAcademico) public candidatosConsejoAcademico;\r\n    uint public numeroCandidatosConsejoAcademico;\r\n    mapping (string => JuntaDirectivaFCE) public candidatosJuntaFCE;\r\n    string[] public candidatosJuntaFCEKeys;\r\n    mapping (string => CoordinacionFCE) public candidatosCoordinacionFCE;\r\n    string[] public candidatosCoordinacionFCEKeys;\r\n    mapping (string => mapping (string => CentroEstudiantes)) public candidatosCentroEstudiantes;\r\n    string[] public candidatosCentroEstudiantesKeys;\r\n    mapping (string => mapping (string => ConsejoEscuela)) public candidatosConsejoEscuela;\r\n    string[] public candidatosConsejoEscuelaKeys;\r\n    mapping (string => mapping (string => ConsejoFacultad)) public candidatosConsejoFacultad;\r\n    string[] public candidatosConsejoFacultadKeys;\r\n\r\n    constructor () {\r\n        owner = msg.sender;\r\n    }\r\n\r\n    function agregarIDARegistro(uint _id) public {\r\n        require(!checkRegistroElectoral(_id), \"Ya se encuentra en el registro electoral\");\r\n        registroElectoral.push(_id);\r\n    }\r\n\r\n    function checkRegistroElectoral(uint _id) public view returns (bool) {\r\n        for (uint i = 0; i < registroElectoral.length; i++) {\r\n            if (registroElectoral[i] == _id) {\r\n                return true;\r\n            }\r\n        }\r\n        return false;\r\n    }\r\n\r\n    function agregarVotante(uint _id, string[] memory _carreras, string[] memory _facultades) public {\r\n        require(checkRegistroElectoral(_id), \"No se encuentra en el registro electoral\");\r\n        votantesRegistrados[_id] = new Votante(_id, _carreras, _facultades);\r\n        numeroVotantesRegistrados++;\r\n    }\r\n\r\n    function getVotanteInfo(uint _id) public view returns (uint, string[] memory, string[] memory) {\r\n        return (votantesRegistrados[_id].getID(), votantesRegistrados[_id].getCarreras(), votantesRegistrados[_id].getFacultades());\r\n    }\r\n\r\n    function getVotanteCulminoVotacion(uint _id) public view returns (bool) {\r\n        return votantesRegistrados[_id].getVoted();\r\n    }\r\n\r\n    function getVotanteSeccionesVotadas(uint _id) public view returns (bool, bool, bool, bool, bool, bool) {\r\n        return (votantesRegistrados[_id].getVotedConsejoAcademico(), votantesRegistrados[_id].getVotedJuntaDirectivaFCE(), votantesRegistrados[_id].getVotedCoordinacionFCE(), votantesRegistrados[_id].getVotedCentroEstudiantes(), votantesRegistrados[_id].getVotedConsejoEscuela(), votantesRegistrados[_id].getVotedConsejoFacultad());\r\n    }\r\n\r\n    function getVotanteNumeroVotos(uint _id) public view returns (uint, uint, uint) {\r\n        return (votantesRegistrados[_id].getNumeroVotosCentroEst(), votantesRegistrados[_id].getNumeroVotosCF(), votantesRegistrados[_id].getNumeroVotosCE());\r\n    }\r\n\r\n    function agregarCandidatoConsejoAcademico(string memory _nombre, uint _id, string memory _carrera) public {\r\n        // TODO: Check if candidate already exists\r\n        candidatosConsejoAcademico[_id] = new ConsejoAcademico(_nombre, _id, _carrera);\r\n        numeroCandidatosConsejoAcademico++;\r\n    }\r\n\r\n    function getCandidatoConsejoAcademico(uint _id) public view returns (string memory, uint, string memory, uint) {\r\n        return (candidatosConsejoAcademico[_id].name(), candidatosConsejoAcademico[_id].id(), candidatosConsejoAcademico[_id].carrera(), candidatosConsejoAcademico[_id].totalVotes());\r\n    }\r\n\r\n    function voteCandidatoConsejoAcademico(uint _id, uint _voterID) public {\r\n        ConsejoAcademico candidato = candidatosConsejoAcademico[_id];\r\n        candidato.vote();\r\n        Votante votante = votantesRegistrados[_voterID];\r\n        votante.votarConsejoAcademico();\r\n    }\r\n\r\n\r\n    function agregarCandidatoJuntaDirectivaFCE(string memory _agrupacion, string memory _siglas) public {\r\n        // TODO: Check if candidate already exists\r\n        candidatosJuntaFCE[_siglas] = new JuntaDirectivaFCE(_agrupacion, _siglas);\r\n        candidatosJuntaFCEKeys.push(_siglas);\r\n    }\r\n\r\n    function getCandidatoJuntaDirectivaFCE(string memory _siglas) public view returns (string memory, string memory, uint) {\r\n        return (candidatosJuntaFCE[_siglas].agrupacion(), candidatosJuntaFCE[_siglas].siglas(), candidatosJuntaFCE[_siglas].totalVotes());\r\n    }\r\n\r\n    function voteCandidatoJuntaDirectivaFCE(string memory _siglas, uint _voterID) public {\r\n        JuntaDirectivaFCE candidato = candidatosJuntaFCE[_siglas];\r\n        candidato.vote();\r\n        Votante votante = votantesRegistrados[_voterID];\r\n        votante.votarJuntaDirectivaFCE();\r\n    }\r\n\r\n    function agregarCandidatoCoordinacionFCE(string memory _agrupacion, string memory _siglas) public {\r\n        candidatosCoordinacionFCE[_siglas] = new CoordinacionFCE(_agrupacion, _siglas);\r\n        candidatosCoordinacionFCEKeys.push(_siglas);\r\n    }\r\n\r\n    function getCandidatoCoordinacionFCE(string memory _siglas) public view returns (string memory, string memory, uint) {\r\n        return (candidatosCoordinacionFCE[_siglas].agrupacion(), candidatosCoordinacionFCE[_siglas].siglas(), candidatosCoordinacionFCE[_siglas].totalVotes());\r\n    }\r\n\r\n    function voteCandidatoCoordinacionFCE(string memory _siglas, uint _voterID) public {\r\n        CoordinacionFCE candidato = candidatosCoordinacionFCE[_siglas];\r\n        candidato.vote();\r\n        Votante votante = votantesRegistrados[_voterID];\r\n        votante.votarCoordinacionFCE();\r\n    }\r\n\r\n    function agregarCandidatoCentroEstudiantes(string memory _nombre, string memory _siglas, string memory _escuela) public {\r\n        candidatosCentroEstudiantes[_escuela][_siglas] = new CentroEstudiantes(_nombre, _siglas, _escuela);\r\n        candidatosCentroEstudiantesKeys.push(_siglas);\r\n    }\r\n\r\n    function getCandidatoCentroEstudiantes(string memory _siglas, string memory _escuela) public view returns (string memory, string memory, string memory, uint) {\r\n        return (candidatosCentroEstudiantes[_escuela][_siglas].nombre(), candidatosCentroEstudiantes[_escuela][_siglas].siglas(), candidatosCentroEstudiantes[_escuela][_siglas].escuela(), candidatosCentroEstudiantes[_escuela][_siglas].totalVotes());\r\n    }\r\n\r\n    function voteCandidatoCentroEstudiantes(string memory _siglas, string memory _escuela, uint _voterID) public {\r\n        CentroEstudiantes candidato = candidatosCentroEstudiantes[_escuela][_siglas];\r\n        candidato.vote();\r\n        Votante votante = votantesRegistrados[_voterID];\r\n        votante.votarCentroEstudiantes();\r\n    }\r\n\r\n    function agregarCandidatoConsejoEscuela(string memory _nombre, string memory _siglas, string memory _escuela) public {\r\n        candidatosConsejoEscuela[_escuela][_siglas] = new ConsejoEscuela(_nombre, _siglas, _escuela);\r\n        candidatosConsejoEscuelaKeys.push(_siglas);\r\n    }\r\n\r\n    function getCandidatoConsejoEscuela(string memory _siglas, string memory _escuela) public view returns (string memory, string memory, string memory, uint) {\r\n        return (candidatosConsejoEscuela[_escuela][_siglas].nombre(), candidatosConsejoEscuela[_escuela][_siglas].siglas(), candidatosConsejoEscuela[_escuela][_siglas].escuela(), candidatosConsejoEscuela[_escuela][_siglas].totalVotes());\r\n    }\r\n\r\n    function voteCandidatoConsejoEscuela(string memory _siglas, string memory _escuela, uint _voterID) public {\r\n        ConsejoEscuela candidato = candidatosConsejoEscuela[_escuela][_siglas];\r\n        candidato.vote();\r\n        Votante votante = votantesRegistrados[_voterID];\r\n        votante.votarConsejoEscuela();\r\n    }\r\n\r\n    function agregarCandidatoConsejoFacultad(string memory _nombre, string memory _siglas, string memory _facultad) public {\r\n        candidatosConsejoFacultad[_facultad][_siglas] = new ConsejoFacultad(_nombre, _siglas, _facultad);\r\n        candidatosConsejoFacultadKeys.push(_siglas);\r\n    }\r\n\r\n    function getCandidatoConsejoFacultad(string memory _siglas, string memory _facultad) public view returns (string memory, string memory, string memory, uint) {\r\n        return (candidatosConsejoFacultad[_facultad][_siglas].nombre(), candidatosConsejoFacultad[_facultad][_siglas].siglas(), candidatosConsejoFacultad[_facultad][_siglas].facultad(), candidatosConsejoFacultad[_facultad][_siglas].totalVotes());\r\n    }\r\n\r\n    function voteCandidatoConsejoFacultad(string memory _siglas, string memory _facultad, uint _voterID) public {\r\n        ConsejoFacultad candidato = candidatosConsejoFacultad[_facultad][_siglas];\r\n        candidato.vote();\r\n        Votante votante = votantesRegistrados[_voterID];\r\n        votante.votarConsejoFacultad();\r\n    }\r\n\r\n    function getCandidatosJuntaFCELength() public view returns (uint) {\r\n        return candidatosJuntaFCEKeys.length;\r\n    }\r\n\r\n    function getCandidatosCoordinacionFCELength() public view returns (uint) {\r\n        return candidatosCoordinacionFCEKeys.length;\r\n    }\r\n\r\n    function getCandidatosCentroEstudiantesLength() public view returns (uint) {\r\n        return candidatosCentroEstudiantesKeys.length;\r\n    }\r\n\r\n    function getCandidatosConsejoEscuelaLength() public view returns (uint) {\r\n        return candidatosConsejoEscuelaKeys.length;\r\n    }\r\n\r\n    function getCandidatosConsejoFacultadLength() public view returns (uint) {\r\n        return candidatosConsejoFacultadKeys.length;\r\n    }\r\n\r\n}",
  "sourcePath": "D:\\Windows Folders\\Documents\\Uni\\Software\\voting-dapp\\smart_contract\\contracts\\Eleccion.sol",
  "compiler": {
    "name": "solc",
    "version": "0.8.17+commit.8df45f5f.Emscripten.clang"
  },
  "schemaVersion": "3.4.10",
  "updatedAt": "2022-11-21T02:03:44.763Z",
  "networkType": "ethereum",
  "devdoc": {
    "kind": "dev",
    "methods": {},
    "version": 1
  },
  "userdoc": {
    "kind": "user",
    "methods": {},
    "version": 1
  }
}