{
  "contractName": "Eleccion",
  "abi": [
    {
      "inputs": [],
      "stateMutability": "nonpayable",
      "type": "constructor"
    },
    {
      "inputs": [
        {
          "internalType": "string",
          "name": "",
          "type": "string"
        },
        {
          "internalType": "string",
          "name": "",
          "type": "string"
        }
      ],
      "name": "candidatosCentroEstudiantes",
      "outputs": [
        {
          "internalType": "contract CentroEstudiantes",
          "name": "",
          "type": "address"
        }
      ],
      "stateMutability": "view",
      "type": "function"
    },
    {
      "inputs": [
        {
          "internalType": "uint256",
          "name": "",
          "type": "uint256"
        }
      ],
      "name": "candidatosConsejoAcademico",
      "outputs": [
        {
          "internalType": "contract ConsejoAcademico",
          "name": "",
          "type": "address"
        }
      ],
      "stateMutability": "view",
      "type": "function"
    },
    {
      "inputs": [
        {
          "internalType": "string",
          "name": "",
          "type": "string"
        },
        {
          "internalType": "string",
          "name": "",
          "type": "string"
        }
      ],
      "name": "candidatosConsejoEscuela",
      "outputs": [
        {
          "internalType": "contract ConsejoEscuela",
          "name": "",
          "type": "address"
        }
      ],
      "stateMutability": "view",
      "type": "function"
    },
    {
      "inputs": [
        {
          "internalType": "string",
          "name": "",
          "type": "string"
        },
        {
          "internalType": "string",
          "name": "",
          "type": "string"
        }
      ],
      "name": "candidatosConsejoFacultad",
      "outputs": [
        {
          "internalType": "contract ConsejoFacultad",
          "name": "",
          "type": "address"
        }
      ],
      "stateMutability": "view",
      "type": "function"
    },
    {
      "inputs": [
        {
          "internalType": "string",
          "name": "",
          "type": "string"
        }
      ],
      "name": "candidatosCoordinacionFCE",
      "outputs": [
        {
          "internalType": "contract CoordinacionFCE",
          "name": "",
          "type": "address"
        }
      ],
      "stateMutability": "view",
      "type": "function"
    },
    {
      "inputs": [
        {
          "internalType": "string",
          "name": "",
          "type": "string"
        }
      ],
      "name": "candidatosJuntaFCE",
      "outputs": [
        {
          "internalType": "contract JuntaDirectivaFCE",
          "name": "",
          "type": "address"
        }
      ],
      "stateMutability": "view",
      "type": "function"
    },
    {
      "inputs": [
        {
          "internalType": "uint256",
          "name": "",
          "type": "uint256"
        }
      ],
      "name": "registroElectoral",
      "outputs": [
        {
          "internalType": "uint256",
          "name": "",
          "type": "uint256"
        }
      ],
      "stateMutability": "view",
      "type": "function"
    },
    {
      "inputs": [
        {
          "internalType": "uint256",
          "name": "",
          "type": "uint256"
        }
      ],
      "name": "votantesRegistrados",
      "outputs": [
        {
          "internalType": "contract Votante",
          "name": "",
          "type": "address"
        }
      ],
      "stateMutability": "view",
      "type": "function"
    },
    {
      "inputs": [
        {
          "internalType": "uint256",
          "name": "_id",
          "type": "uint256"
        }
      ],
      "name": "agregarIDARegistro",
      "outputs": [],
      "stateMutability": "nonpayable",
      "type": "function"
    },
    {
      "inputs": [
        {
          "internalType": "uint256",
          "name": "_id",
          "type": "uint256"
        }
      ],
      "name": "checkRegistroElectoral",
      "outputs": [
        {
          "internalType": "bool",
          "name": "",
          "type": "bool"
        }
      ],
      "stateMutability": "view",
      "type": "function"
    },
    {
      "inputs": [
        {
          "internalType": "uint256",
          "name": "_id",
          "type": "uint256"
        },
        {
          "internalType": "string[]",
          "name": "_carreras",
          "type": "string[]"
        },
        {
          "internalType": "string[]",
          "name": "_facultades",
          "type": "string[]"
        }
      ],
      "name": "agregarVotante",
      "outputs": [],
      "stateMutability": "nonpayable",
      "type": "function"
    },
    {
      "inputs": [
        {
          "internalType": "uint256",
          "name": "_id",
          "type": "uint256"
        }
      ],
      "name": "getVotanteInfo",
      "outputs": [
        {
          "internalType": "uint256",
          "name": "",
          "type": "uint256"
        },
        {
          "internalType": "string[]",
          "name": "",
          "type": "string[]"
        },
        {
          "internalType": "string[]",
          "name": "",
          "type": "string[]"
        }
      ],
      "stateMutability": "view",
      "type": "function"
    },
    {
      "inputs": [
        {
          "internalType": "uint256",
          "name": "_id",
          "type": "uint256"
        }
      ],
      "name": "getVotanteVotado",
      "outputs": [
        {
          "internalType": "bool",
          "name": "",
          "type": "bool"
        }
      ],
      "stateMutability": "view",
      "type": "function"
    },
    {
      "inputs": [
        {
          "internalType": "uint256",
          "name": "_id",
          "type": "uint256"
        }
      ],
      "name": "getVotanteVotados",
      "outputs": [
        {
          "internalType": "bool",
          "name": "",
          "type": "bool"
        },
        {
          "internalType": "bool",
          "name": "",
          "type": "bool"
        },
        {
          "internalType": "bool",
          "name": "",
          "type": "bool"
        },
        {
          "internalType": "bool",
          "name": "",
          "type": "bool"
        },
        {
          "internalType": "bool",
          "name": "",
          "type": "bool"
        }
      ],
      "stateMutability": "view",
      "type": "function"
    },
    {
      "inputs": [
        {
          "internalType": "uint256",
          "name": "_id",
          "type": "uint256"
        }
      ],
      "name": "getVotanteNumeroVotos",
      "outputs": [
        {
          "internalType": "uint256",
          "name": "",
          "type": "uint256"
        },
        {
          "internalType": "uint256",
          "name": "",
          "type": "uint256"
        },
        {
          "internalType": "uint256",
          "name": "",
          "type": "uint256"
        }
      ],
      "stateMutability": "view",
      "type": "function"
    },
    {
      "inputs": [
        {
          "internalType": "string",
          "name": "_nombre",
          "type": "string"
        },
        {
          "internalType": "uint256",
          "name": "_id",
          "type": "uint256"
        },
        {
          "internalType": "string",
          "name": "_carrera",
          "type": "string"
        }
      ],
      "name": "agregarCandidatoConsejoAcademico",
      "outputs": [],
      "stateMutability": "nonpayable",
      "type": "function"
    },
    {
      "inputs": [
        {
          "internalType": "uint256",
          "name": "_id",
          "type": "uint256"
        }
      ],
      "name": "getCandidateConsejoAcademico",
      "outputs": [
        {
          "internalType": "string",
          "name": "",
          "type": "string"
        },
        {
          "internalType": "uint256",
          "name": "",
          "type": "uint256"
        },
        {
          "internalType": "string",
          "name": "",
          "type": "string"
        },
        {
          "internalType": "uint256",
          "name": "",
          "type": "uint256"
        }
      ],
      "stateMutability": "view",
      "type": "function"
    },
    {
      "inputs": [
        {
          "internalType": "uint256",
          "name": "_id",
          "type": "uint256"
        },
        {
          "internalType": "uint256",
          "name": "_voterID",
          "type": "uint256"
        }
      ],
      "name": "voteCandidateConsejoAcademico",
      "outputs": [],
      "stateMutability": "nonpayable",
      "type": "function"
    },
    {
      "inputs": [
        {
          "internalType": "string",
          "name": "_agrupacion",
          "type": "string"
        },
        {
          "internalType": "string",
          "name": "_siglas",
          "type": "string"
        }
      ],
      "name": "agregarCandidatoJuntaDirectivaFCE",
      "outputs": [],
      "stateMutability": "nonpayable",
      "type": "function"
    },
    {
      "inputs": [
        {
          "internalType": "string",
          "name": "_siglas",
          "type": "string"
        }
      ],
      "name": "getCandidateJuntaDirectivaFCE",
      "outputs": [
        {
          "internalType": "string",
          "name": "",
          "type": "string"
        },
        {
          "internalType": "string",
          "name": "",
          "type": "string"
        },
        {
          "internalType": "uint256",
          "name": "",
          "type": "uint256"
        }
      ],
      "stateMutability": "view",
      "type": "function"
    },
    {
      "inputs": [
        {
          "internalType": "string",
          "name": "_siglas",
          "type": "string"
        },
        {
          "internalType": "uint256",
          "name": "_voterID",
          "type": "uint256"
        }
      ],
      "name": "voteCandidateJuntaDirectivaFCE",
      "outputs": [],
      "stateMutability": "nonpayable",
      "type": "function"
    },
    {
      "inputs": [
        {
          "internalType": "string",
          "name": "_agrupacion",
          "type": "string"
        },
        {
          "internalType": "string",
          "name": "_siglas",
          "type": "string"
        }
      ],
      "name": "agregarCandidatoCoordinacionFCE",
      "outputs": [],
      "stateMutability": "nonpayable",
      "type": "function"
    },
    {
      "inputs": [
        {
          "internalType": "string",
          "name": "_siglas",
          "type": "string"
        }
      ],
      "name": "getCandidatoCoordinacionFCE",
      "outputs": [
        {
          "internalType": "string",
          "name": "",
          "type": "string"
        },
        {
          "internalType": "string",
          "name": "",
          "type": "string"
        },
        {
          "internalType": "uint256",
          "name": "",
          "type": "uint256"
        }
      ],
      "stateMutability": "view",
      "type": "function"
    },
    {
      "inputs": [
        {
          "internalType": "string",
          "name": "_siglas",
          "type": "string"
        },
        {
          "internalType": "uint256",
          "name": "_voterID",
          "type": "uint256"
        }
      ],
      "name": "voteCandidateCoordinacionFCE",
      "outputs": [],
      "stateMutability": "nonpayable",
      "type": "function"
    },
    {
      "inputs": [
        {
          "internalType": "string",
          "name": "_nombre",
          "type": "string"
        },
        {
          "internalType": "string",
          "name": "_siglas",
          "type": "string"
        },
        {
          "internalType": "string",
          "name": "_escuela",
          "type": "string"
        }
      ],
      "name": "agregarCandidatoCentroEstudiantes",
      "outputs": [],
      "stateMutability": "nonpayable",
      "type": "function"
    },
    {
      "inputs": [
        {
          "internalType": "string",
          "name": "_siglas",
          "type": "string"
        },
        {
          "internalType": "string",
          "name": "_escuela",
          "type": "string"
        }
      ],
      "name": "getCandidatoCentroEstudiantes",
      "outputs": [
        {
          "internalType": "string",
          "name": "",
          "type": "string"
        },
        {
          "internalType": "string",
          "name": "",
          "type": "string"
        },
        {
          "internalType": "string",
          "name": "",
          "type": "string"
        },
        {
          "internalType": "uint256",
          "name": "",
          "type": "uint256"
        }
      ],
      "stateMutability": "view",
      "type": "function"
    },
    {
      "inputs": [
        {
          "internalType": "string",
          "name": "_siglas",
          "type": "string"
        },
        {
          "internalType": "string",
          "name": "_escuela",
          "type": "string"
        },
        {
          "internalType": "uint256",
          "name": "_voterID",
          "type": "uint256"
        }
      ],
      "name": "voteCandidateCentroEstudiantes",
      "outputs": [],
      "stateMutability": "nonpayable",
      "type": "function"
    },
    {
      "inputs": [
        {
          "internalType": "string",
          "name": "_nombre",
          "type": "string"
        },
        {
          "internalType": "string",
          "name": "_siglas",
          "type": "string"
        },
        {
          "internalType": "string",
          "name": "_escuela",
          "type": "string"
        }
      ],
      "name": "agregarCandidatoConsejoEscuela",
      "outputs": [],
      "stateMutability": "nonpayable",
      "type": "function"
    },
    {
      "inputs": [
        {
          "internalType": "string",
          "name": "_siglas",
          "type": "string"
        },
        {
          "internalType": "string",
          "name": "_escuela",
          "type": "string"
        }
      ],
      "name": "getCandidatoConsejoEscuela",
      "outputs": [
        {
          "internalType": "string",
          "name": "",
          "type": "string"
        },
        {
          "internalType": "string",
          "name": "",
          "type": "string"
        },
        {
          "internalType": "string",
          "name": "",
          "type": "string"
        },
        {
          "internalType": "uint256",
          "name": "",
          "type": "uint256"
        }
      ],
      "stateMutability": "view",
      "type": "function"
    },
    {
      "inputs": [
        {
          "internalType": "string",
          "name": "_siglas",
          "type": "string"
        },
        {
          "internalType": "string",
          "name": "_escuela",
          "type": "string"
        },
        {
          "internalType": "uint256",
          "name": "_voterID",
          "type": "uint256"
        }
      ],
      "name": "voteCandidateConsejoEscuela",
      "outputs": [],
      "stateMutability": "nonpayable",
      "type": "function"
    },
    {
      "inputs": [
        {
          "internalType": "string",
          "name": "_nombre",
          "type": "string"
        },
        {
          "internalType": "string",
          "name": "_siglas",
          "type": "string"
        },
        {
          "internalType": "string",
          "name": "_facultad",
          "type": "string"
        }
      ],
      "name": "agregarCandidatoConsejoFacultad",
      "outputs": [],
      "stateMutability": "nonpayable",
      "type": "function"
    },
    {
      "inputs": [
        {
          "internalType": "string",
          "name": "_siglas",
          "type": "string"
        },
        {
          "internalType": "string",
          "name": "_facultad",
          "type": "string"
        }
      ],
      "name": "getCandidatoConsejoFacultad",
      "outputs": [
        {
          "internalType": "string",
          "name": "",
          "type": "string"
        },
        {
          "internalType": "string",
          "name": "",
          "type": "string"
        },
        {
          "internalType": "string",
          "name": "",
          "type": "string"
        },
        {
          "internalType": "uint256",
          "name": "",
          "type": "uint256"
        }
      ],
      "stateMutability": "view",
      "type": "function"
    },
    {
      "inputs": [
        {
          "internalType": "string",
          "name": "_siglas",
          "type": "string"
        },
        {
          "internalType": "string",
          "name": "_facultad",
          "type": "string"
        },
        {
          "internalType": "uint256",
          "name": "_voterID",
          "type": "uint256"
        }
      ],
      "name": "voteCandidateConsejoFacultad",
      "outputs": [],
      "stateMutability": "nonpayable",
      "type": "function"
    }
  ],
  "bytecode": "0x608060405234801561001057600080fd5b50600180546001600160a01b03191633179055615932806100326000396000f3fe60806040523480156200001157600080fd5b5060043610620002245760003560e01c8063829f00fb1162000131578063b706b6c711620000bb578063e24fec811162000086578063e24fec81146200062d578063e3c1c6761462000681578063eaa8411e14620006aa578063ebd5d66114620006d6578063ef3a4e9f14620006ed57600080fd5b8063b706b6c714620005bc578063b85db62b14620005d3578063c0465f7814620005ff578063dc06ae8b146200061657600080fd5b8063948f79de11620000fc578063948f79de14620005605780639f06be5c1462000577578063aa6f0cd4146200058e578063b21f103c14620005a557600080fd5b8063829f00fb14620004a7578063882685d514620004fb578063897307c114620005125780638a7acd9f146200052957600080fd5b8063475adc0a11620001b35780635d11ac8e116200017e5780635d11ac8e146200040f578063691216a514620004425780636d93e2cc14620004595780637f306990146200047f57600080fd5b8063475adc0a14620003605780634b89420c14620003aa5780634f64dc0514620003e1578063551ed07d14620003f857600080fd5b80631066035c11620001f45780631066035c14620002ae5780632972ff6e146200031b578063322cd68e14620003325780634549c160146200034957600080fd5b806236085214620002295780630170d9fb14620002425780630219f382146200026e578063059f627b1462000297575b600080fd5b620002406200023a366004620023d7565b62000715565b005b62000259620002533660046200241f565b62000803565b60405190151581526020015b60405180910390f35b620002856200027f36600462002439565b62000882565b604051620002659493929190620024f7565b62000240620002a836600462002548565b62000b49565b62000302620002bf36600462002439565b815160208184018101805160098252928201948201949094209190935281518083018401805192815290840192909301919091209152546001600160a01b031681565b6040516001600160a01b03909116815260200162000265565b620002406200032c36600462002548565b62000c56565b6200024062000343366004620025bb565b62000d43565b620002406200035a366004620025de565b62000dfb565b62000377620003713660046200241f565b62000e9c565b60408051951515865293151560208601529115159284019290925290151560608301521515608082015260a00162000265565b62000302620003bb3660046200266f565b80516020818301810180516006825292820191909301209152546001600160a01b031681565b62000259620003f23660046200241f565b6200111b565b62000240620004093660046200241f565b62001179565b62000426620004203660046200241f565b6200121d565b6040805193845260208401929092529082015260600162000265565b6200024062000453366004620023d7565b6200139d565b620004706200046a3660046200241f565b6200146c565b60405190815260200162000265565b62000496620004903660046200266f565b6200148e565b6040516200026593929190620026af565b62000302620004b836600462002439565b815160208184018101805160088252928201948201949094209190935281518083018401805192815290840192909301919091209152546001600160a01b031681565b620002406200050c36600462002439565b62001615565b6200024062000523366004620025de565b62001695565b620003026200053a3660046200266f565b80516020818301810180516005825292820191909301209152546001600160a01b031681565b6200024062000571366004620026e9565b620016e4565b6200024062000588366004620025de565b62001752565b620002406200059f36600462002439565b620017a1565b62000496620005b63660046200266f565b620017ee565b62000240620005cd366004620027fd565b62001925565b62000302620005e43660046200241f565b6003602052600090815260409020546001600160a01b031681565b620002856200061036600462002439565b620019fd565b620002406200062736600462002548565b62001c20565b620003026200063e36600462002439565b815160208184018101805160078252928201948201949094209190935281518083018401805192815290840192909301919091209152546001600160a01b031681565b62000698620006923660046200241f565b62001d0d565b60405162000265949392919062002866565b62000302620006bb3660046200241f565b6004602052600090815260409020546001600160a01b031681565b62000285620006e736600462002439565b62001f0f565b62000704620006fe3660046200241f565b62002132565b6040516200026593929190620028f1565b60006005836040516200072991906200292a565b90815260408051918290036020018220546331954d2960e11b835290516001600160a01b039091169250829163632a9a5291600480830192600092919082900301818387803b1580156200077c57600080fd5b505af115801562000791573d6000803e3d6000fd5b505050600083815260036020526040808220548151631f68d09160e21b815291516001600160a01b0390911693508392637da34244926004808201939182900301818387803b158015620007e457600080fd5b505af1158015620007f9573d6000803e3d6000fd5b5050505050505050565b60008181526003602090815260408083205481516329a5e67f60e21b815291516001600160a01b039091169263a69799fc92600480820193918290030181865afa15801562000856573d6000803e3d6000fd5b505050506040513d601f19601f820116820180604052508101906200087c919062002948565b92915050565b606080606060006007856040516200089b91906200292a565b908152602001604051809103902086604051620008b991906200292a565b9081526040805191829003602001822054635e3d9ad960e11b835290516001600160a01b039091169163bc7b35b29160048083019260009291908290030181865afa1580156200090d573d6000803e3d6000fd5b505050506040513d6000823e601f3d908101601f19168201604052620009379190810190620029bf565b6007866040516200094991906200292a565b9081526020016040518091039020876040516200096791906200292a565b908152604080519182900360200182205463675892ad60e01b835290516001600160a01b039091169163675892ad9160048083019260009291908290030181865afa158015620009bb573d6000803e3d6000fd5b505050506040513d6000823e601f3d908101601f19168201604052620009e59190810190620029bf565b600787604051620009f791906200292a565b90815260200160405180910390208860405162000a1591906200292a565b9081526040805191829003602001822054634c22e9a560e11b835290516001600160a01b0390911691639845d34a9160048083019260009291908290030181865afa15801562000a69573d6000803e3d6000fd5b505050506040513d6000823e601f3d908101601f1916820160405262000a939190810190620029bf565b60078860405162000aa591906200292a565b90815260200160405180910390208960405162000ac391906200292a565b908152604080516020928190038301812054630d15fd7760e01b825291516001600160a01b0390921692630d15fd77926004808401938290030181865afa15801562000b13573d6000803e3d6000fd5b505050506040513d601f19601f8201168201806040525081019062000b399190620029f7565b9299919850965090945092505050565b600060088360405162000b5d91906200292a565b90815260200160405180910390208460405162000b7b91906200292a565b90815260408051918290036020018220546331954d2960e11b835290516001600160a01b039091169250829163632a9a5291600480830192600092919082900301818387803b15801562000bce57600080fd5b505af115801562000be3573d6000803e3d6000fd5b5050506000838152600360205260408082205481516318ba0a4d60e11b815291516001600160a01b0390911693508392633174149a926004808201939182900301818387803b15801562000c3657600080fd5b505af115801562000c4b573d6000803e3d6000fd5b505050505050505050565b600060078360405162000c6a91906200292a565b90815260200160405180910390208460405162000c8891906200292a565b90815260408051918290036020018220546331954d2960e11b835290516001600160a01b039091169250829163632a9a5291600480830192600092919082900301818387803b15801562000cdb57600080fd5b505af115801562000cf0573d6000803e3d6000fd5b5050506000838152600360205260408082205481516391a10b0160e01b815291516001600160a01b03909116935083926391a10b01926004808201939182900301818387803b15801562000c3657600080fd5b60008281526004602081905260408083205481516331954d2960e11b815291516001600160a01b0390911693849363632a9a529380820193919082900301818387803b15801562000d9357600080fd5b505af115801562000da8573d6000803e3d6000fd5b5050506000838152600360205260408082205481516397e8cff960e01b815291516001600160a01b03909116935083926397e8cff9926004808201939182900301818387803b158015620007e457600080fd5b82828260405162000e0c90620022a6565b62000e1a9392919062002a11565b604051809103906000f08015801562000e37573d6000803e3d6000fd5b5060098260405162000e4a91906200292a565b90815260200160405180910390208360405162000e6891906200292a565b90815260405190819003602001902080546001600160a01b03929092166001600160a01b0319909216919091179055505050565b6000818152600360209081526040808320548151630f79f21160e41b8152915184938493849384936001600160a01b039091169263f79f211092600480820193918290030181865afa15801562000ef7573d6000803e3d6000fd5b505050506040513d601f19601f8201168201806040525081019062000f1d919062002948565b6000878152600360209081526040918290205482516344cd1b2160e01b815292516001600160a01b03909116926344cd1b219260048083019391928290030181865afa15801562000f72573d6000803e3d6000fd5b505050506040513d601f19601f8201168201806040525081019062000f98919062002948565b600088815260036020908152604091829020548251632b4af7a360e01b815292516001600160a01b0390911692632b4af7a39260048083019391928290030181865afa15801562000fed573d6000803e3d6000fd5b505050506040513d601f19601f8201168201806040525081019062001013919062002948565b6000898152600360209081526040918290205482516323b55e7360e11b815292516001600160a01b039091169263476abce69260048083019391928290030181865afa15801562001068573d6000803e3d6000fd5b505050506040513d601f19601f820116820180604052508101906200108e919062002948565b60008a8152600360209081526040918290205482516364debb8f60e01b815292516001600160a01b03909116926364debb8f9260048083019391928290030181865afa158015620010e3573d6000803e3d6000fd5b505050506040513d601f19601f8201168201806040525081019062001109919062002948565b939a9299509097509550909350915050565b6000805b6002548110156200117057826002828154811062001141576200114162002a50565b9060005260206000200154036200115b5750600192915050565b80620011678162002a66565b9150506200111f565b50600092915050565b62001184816200111b565b15620011e85760405162461bcd60e51b815260206004820152602860248201527f596120736520656e6375656e74726120656e20656c20726567697374726f20656044820152671b1958dd1bdc985b60c21b60648201526084015b60405180910390fd5b600280546001810182556000919091527f405787fa12a823e0f2b7631cc41b3ba8828b3321ca811111fa75cd3aa3bb5ace0155565b60008181526003602090815260408083205481516391b1475360e01b81529151849384936001600160a01b03909316926391b1475392600480830193928290030181865afa15801562001274573d6000803e3d6000fd5b505050506040513d601f19601f820116820180604052508101906200129a9190620029f7565b60008581526003602090815260409182902054825163bcd75c5360e01b815292516001600160a01b039091169263bcd75c539260048083019391928290030181865afa158015620012ef573d6000803e3d6000fd5b505050506040513d601f19601f82011682018060405250810190620013159190620029f7565b600086815260036020908152604091829020548251631d8b195f60e31b815292516001600160a01b039091169263ec58caf89260048083019391928290030181865afa1580156200136a573d6000803e3d6000fd5b505050506040513d601f19601f82011682018060405250810190620013909190620029f7565b9250925092509193909250565b6000600683604051620013b191906200292a565b90815260408051918290036020018220546331954d2960e11b835290516001600160a01b039091169250829163632a9a5291600480830192600092919082900301818387803b1580156200140457600080fd5b505af115801562001419573d6000803e3d6000fd5b505050600083815260036020526040808220548151631afe0f6760e11b815291516001600160a01b03909116935083926335fc1ece926004808201939182900301818387803b158015620007e457600080fd5b600281815481106200147d57600080fd5b600091825260209091200154905081565b6060806000600684604051620014a591906200292a565b90815260408051918290036020018220546388305c2360e01b835290516001600160a01b03909116916388305c239160048083019260009291908290030181865afa158015620014f9573d6000803e3d6000fd5b505050506040513d6000823e601f3d908101601f19168201604052620015239190810190620029bf565b6006856040516200153591906200292a565b908152604080519182900360200182205463675892ad60e01b835290516001600160a01b039091169163675892ad9160048083019260009291908290030181865afa15801562001589573d6000803e3d6000fd5b505050506040513d6000823e601f3d908101601f19168201604052620015b39190810190620029bf565b600686604051620015c591906200292a565b908152604080516020928190038301812054630d15fd7760e01b825291516001600160a01b0390921692630d15fd77926004808401938290030181865afa1580156200136a573d6000803e3d6000fd5b81816040516200162590620022b4565b6200163292919062002a8e565b604051809103906000f0801580156200164f573d6000803e3d6000fd5b506006826040516200166291906200292a565b90815260405190819003602001902080546001600160a01b03929092166001600160a01b03199092169190911790555050565b828282604051620016a690620022c2565b620016b49392919062002a11565b604051809103906000f080158015620016d1573d6000803e3d6000fd5b5060078260405162000e4a91906200292a565b828282604051620016f590620022d0565b620017039392919062002ac0565b604051809103906000f08015801562001720573d6000803e3d6000fd5b5060009283526004602052604090922080546001600160a01b0319166001600160a01b03909316929092179091555050565b8282826040516200176390620022de565b620017719392919062002a11565b604051809103906000f0801580156200178e573d6000803e3d6000fd5b5060088260405162000e4a91906200292a565b8181604051620017b190620022ec565b620017be92919062002a8e565b604051809103906000f080158015620017db573d6000803e3d6000fd5b506005826040516200166291906200292a565b60608060006005846040516200180591906200292a565b90815260408051918290036020018220546388305c2360e01b835290516001600160a01b03909116916388305c239160048083019260009291908290030181865afa15801562001859573d6000803e3d6000fd5b505050506040513d6000823e601f3d908101601f19168201604052620018839190810190620029bf565b6005856040516200189591906200292a565b908152604080519182900360200182205463675892ad60e01b835290516001600160a01b039091169163675892ad9160048083019260009291908290030181865afa158015620018e9573d6000803e3d6000fd5b505050506040513d6000823e601f3d908101601f19168201604052620019139190810190620029bf565b600586604051620015c591906200292a565b62001930836200111b565b6200198f5760405162461bcd60e51b815260206004820152602860248201527f4e6f20736520656e6375656e74726120656e20656c20726567697374726f20656044820152671b1958dd1bdc985b60c21b6064820152608401620011df565b828282604051620019a090620022fa565b620019ae93929190620028f1565b604051809103906000f080158015620019cb573d6000803e3d6000fd5b5060009384526003602052604090932080546001600160a01b0319166001600160a01b03909416939093179092555050565b6060806060600060088560405162001a1691906200292a565b90815260200160405180910390208660405162001a3491906200292a565b9081526040805191829003602001822054635e3d9ad960e11b835290516001600160a01b039091169163bc7b35b29160048083019260009291908290030181865afa15801562001a88573d6000803e3d6000fd5b505050506040513d6000823e601f3d908101601f1916820160405262001ab29190810190620029bf565b60088660405162001ac491906200292a565b90815260200160405180910390208760405162001ae291906200292a565b908152604080519182900360200182205463675892ad60e01b835290516001600160a01b039091169163675892ad9160048083019260009291908290030181865afa15801562001b36573d6000803e3d6000fd5b505050506040513d6000823e601f3d908101601f1916820160405262001b609190810190620029bf565b60088760405162001b7291906200292a565b90815260200160405180910390208860405162001b9091906200292a565b9081526040805191829003602001822054634c22e9a560e11b835290516001600160a01b0390911691639845d34a9160048083019260009291908290030181865afa15801562001be4573d6000803e3d6000fd5b505050506040513d6000823e601f3d908101601f1916820160405262001c0e9190810190620029bf565b60088860405162000aa591906200292a565b600060098360405162001c3491906200292a565b90815260200160405180910390208460405162001c5291906200292a565b90815260408051918290036020018220546331954d2960e11b835290516001600160a01b039091169250829163632a9a5291600480830192600092919082900301818387803b15801562001ca557600080fd5b505af115801562001cba573d6000803e3d6000fd5b505050600083815260036020526040808220548151636c6bd0f360e01b815291516001600160a01b0390911693508392636c6bd0f3926004808201939182900301818387803b15801562000c3657600080fd5b60008181526004602081905260408083205481516306fdde0360e01b8152915160609493859385936001600160a01b0316926306fdde039282810192869291908290030181865afa15801562001d67573d6000803e3d6000fd5b505050506040513d6000823e601f3d908101601f1916820160405262001d919190810190620029bf565b60008681526004602081815260409283902054835163af640d0f60e01b815293516001600160a01b039091169363af640d0f938181019392918290030181865afa15801562001de4573d6000803e3d6000fd5b505050506040513d601f19601f8201168201806040525081019062001e0a9190620029f7565b60008781526004602081905260408083205481516360329f4160e11b815291516001600160a01b039091169363c0653e8293838101939192918290030181865afa15801562001e5d573d6000803e3d6000fd5b505050506040513d6000823e601f3d908101601f1916820160405262001e879190810190620029bf565b600088815260046020818152604092839020548351630d15fd7760e01b815293516001600160a01b0390911693630d15fd77938181019392918290030181865afa15801562001eda573d6000803e3d6000fd5b505050506040513d601f19601f8201168201806040525081019062001f009190620029f7565b93509350935093509193509193565b6060806060600060098560405162001f2891906200292a565b90815260200160405180910390208660405162001f4691906200292a565b9081526040805191829003602001822054635e3d9ad960e11b835290516001600160a01b039091169163bc7b35b29160048083019260009291908290030181865afa15801562001f9a573d6000803e3d6000fd5b505050506040513d6000823e601f3d908101601f1916820160405262001fc49190810190620029bf565b60098660405162001fd691906200292a565b90815260200160405180910390208760405162001ff491906200292a565b908152604080519182900360200182205463675892ad60e01b835290516001600160a01b039091169163675892ad9160048083019260009291908290030181865afa15801562002048573d6000803e3d6000fd5b505050506040513d6000823e601f3d908101601f19168201604052620020729190810190620029bf565b6009876040516200208491906200292a565b908152602001604051809103902088604051620020a291906200292a565b908152604080519182900360200182205463148213bb60e01b835290516001600160a01b039091169163148213bb9160048083019260009291908290030181865afa158015620020f6573d6000803e3d6000fd5b505050506040513d6000823e601f3d908101601f19168201604052620021209190810190620029bf565b60098860405162000aa591906200292a565b600081815260036020908152604080832054815163ab9dbd0760e01b8152915160609384936001600160a01b039093169263ab9dbd0792600480830193928290030181865afa1580156200218a573d6000803e3d6000fd5b505050506040513d601f19601f82011682018060405250810190620021b09190620029f7565b6000858152600360205260408082205481516361a6958760e01b815291516001600160a01b03909116926361a6958792600480820193918290030181865afa15801562002201573d6000803e3d6000fd5b505050506040513d6000823e601f3d908101601f191682016040526200222b919081019062002aef565b600086815260036020526040808220548151634a51ede360e01b815291516001600160a01b0390911692634a51ede392600480820193918290030181865afa1580156200227c573d6000803e3d6000fd5b505050506040513d6000823e601f3d908101601f1916820160405262001390919081019062002aef565b61053f8062002bac83390190565b61054280620030eb83390190565b61053f806200362d83390190565b6105158062003b6c83390190565b61053f806200408183390190565b61054580620045c083390190565b610df88062004b0583390190565b634e487b7160e01b600052604160045260246000fd5b604051601f8201601f191681016001600160401b038111828210171562002349576200234962002308565b604052919050565b60006001600160401b038211156200236d576200236d62002308565b50601f01601f191660200190565b600082601f8301126200238d57600080fd5b8135620023a46200239e8262002351565b6200231e565b818152846020838601011115620023ba57600080fd5b816020850160208301376000918101602001919091529392505050565b60008060408385031215620023eb57600080fd5b82356001600160401b038111156200240257600080fd5b62002410858286016200237b565b95602094909401359450505050565b6000602082840312156200243257600080fd5b5035919050565b600080604083850312156200244d57600080fd5b82356001600160401b03808211156200246557600080fd5b62002473868387016200237b565b935060208501359150808211156200248a57600080fd5b5062002499858286016200237b565b9150509250929050565b60005b83811015620024c0578181015183820152602001620024a6565b50506000910152565b60008151808452620024e3816020860160208601620024a3565b601f01601f19169290920160200192915050565b6080815260006200250c6080830187620024c9565b8281036020840152620025208187620024c9565b90508281036040840152620025368186620024c9565b91505082606083015295945050505050565b6000806000606084860312156200255e57600080fd5b83356001600160401b03808211156200257657600080fd5b62002584878388016200237b565b945060208601359150808211156200259b57600080fd5b50620025aa868287016200237b565b925050604084013590509250925092565b60008060408385031215620025cf57600080fd5b50508035926020909101359150565b600080600060608486031215620025f457600080fd5b83356001600160401b03808211156200260c57600080fd5b6200261a878388016200237b565b945060208601359150808211156200263157600080fd5b6200263f878388016200237b565b935060408601359150808211156200265657600080fd5b5062002665868287016200237b565b9150509250925092565b6000602082840312156200268257600080fd5b81356001600160401b038111156200269957600080fd5b620026a7848285016200237b565b949350505050565b606081526000620026c46060830186620024c9565b8281036020840152620026d88186620024c9565b915050826040830152949350505050565b600080600060608486031215620026ff57600080fd5b83356001600160401b03808211156200271757600080fd5b62002725878388016200237b565b94506020860135935060408601359150808211156200265657600080fd5b60006001600160401b038211156200275f576200275f62002308565b5060051b60200190565b600082601f8301126200277b57600080fd5b813560206200278e6200239e8362002743565b82815260059290921b84018101918181019086841115620027ae57600080fd5b8286015b84811015620027f25780356001600160401b03811115620027d35760008081fd5b620027e38986838b01016200237b565b845250918301918301620027b2565b509695505050505050565b6000806000606084860312156200281357600080fd5b8335925060208401356001600160401b03808211156200283257600080fd5b620028408783880162002769565b935060408601359150808211156200285757600080fd5b50620026658682870162002769565b6080815260006200287b6080830187620024c9565b8560208401528281036040840152620025368186620024c9565b600082825180855260208086019550808260051b84010181860160005b84811015620028e457601f19868403018952620028d1838351620024c9565b98840198925090830190600101620028b2565b5090979650505050505050565b8381526060602082015260006200290c606083018562002895565b828103604084015262002920818562002895565b9695505050505050565b600082516200293e818460208701620024a3565b9190910192915050565b6000602082840312156200295b57600080fd5b815180151581146200296c57600080fd5b9392505050565b600082601f8301126200298557600080fd5b8151620029966200239e8262002351565b818152846020838601011115620029ac57600080fd5b620026a7826020830160208701620024a3565b600060208284031215620029d257600080fd5b81516001600160401b03811115620029e957600080fd5b620026a78482850162002973565b60006020828403121562002a0a57600080fd5b5051919050565b60608152600062002a266060830186620024c9565b828103602084015262002a3a8186620024c9565b90508281036040840152620029208185620024c9565b634e487b7160e01b600052603260045260246000fd5b60006001820162002a8757634e487b7160e01b600052601160045260246000fd5b5060010190565b60408152600062002aa36040830185620024c9565b828103602084015262002ab78185620024c9565b95945050505050565b60608152600062002ad56060830186620024c9565b8460208401528281036040840152620029208185620024c9565b6000602080838503121562002b0357600080fd5b82516001600160401b038082111562002b1b57600080fd5b818501915085601f83011262002b3057600080fd5b815162002b416200239e8262002743565b81815260059190911b8301840190848101908883111562002b6157600080fd5b8585015b8381101562002b9e5780518581111562002b7f5760008081fd5b62002b8f8b89838a010162002973565b84525091860191860162002b65565b509897505050505050505056fe60806040526000805534801561001457600080fd5b5060405161053f38038061053f8339810160408190526100339161011d565b600161003f848261022d565b50600261004c838261022d565b506003610059828261022d565b505050506102ec565b634e487b7160e01b600052604160045260246000fd5b600082601f83011261008957600080fd5b81516001600160401b03808211156100a3576100a3610062565b604051601f8301601f19908116603f011681019082821181831017156100cb576100cb610062565b816040528381526020925086838588010111156100e757600080fd5b600091505b8382101561010957858201830151818301840152908201906100ec565b600093810190920192909252949350505050565b60008060006060848603121561013257600080fd5b83516001600160401b038082111561014957600080fd5b61015587838801610078565b9450602086015191508082111561016b57600080fd5b61017787838801610078565b9350604086015191508082111561018d57600080fd5b5061019a86828701610078565b9150509250925092565b600181811c908216806101b857607f821691505b6020821081036101d857634e487b7160e01b600052602260045260246000fd5b50919050565b601f82111561022857600081815260208120601f850160051c810160208610156102055750805b601f850160051c820191505b8181101561022457828155600101610211565b5050505b505050565b81516001600160401b0381111561024657610246610062565b61025a8161025484546101a4565b846101de565b602080601f83116001811461028f57600084156102775750858301515b600019600386901b1c1916600185901b178555610224565b600085815260208120601f198616915b828110156102be5788860151825594840194600190910190840161029f565b50858210156102dc5787850151600019600388901b60f8161c191681555b5050505050600190811b01905550565b610244806102fb6000396000f3fe608060405234801561001057600080fd5b50600436106100575760003560e01c80630d15fd771461005c578063148213bb14610072578063632a9a5214610087578063675892ad14610091578063bc7b35b214610099575b600080fd5b6000546040519081526020015b60405180910390f35b61007a6100a1565b604051610069919061015f565b61008f61012f565b005b61007a610145565b61007a610152565b600380546100ae906101ad565b80601f01602080910402602001604051908101604052809291908181526020018280546100da906101ad565b80156101275780601f106100fc57610100808354040283529160200191610127565b820191906000526020600020905b81548152906001019060200180831161010a57829003601f168201915b505050505081565b60008054908061013e836101e7565b9190505550565b600280546100ae906101ad565b600180546100ae906101ad565b600060208083528351808285015260005b8181101561018c57858101830151858201604001528201610170565b506000604082860101526040601f19601f8301168501019250505092915050565b600181811c908216806101c157607f821691505b6020821081036101e157634e487b7160e01b600052602260045260246000fd5b50919050565b60006001820161020757634e487b7160e01b600052601160045260246000fd5b506001019056fea2646970667358221220fac6911f633d026b6af09e3f790a81d6d7addc41965e83e033151070369bc9f664736f6c6343000811003360806040526000805534801561001457600080fd5b5060405161054238038061054283398101604081905261003391610144565b818160016100418382610230565b50600261004e8282610230565b505060408051808201909152600c81526b21b7b7b93234b730b1b4b7b760a11b6020820152600391506100819082610230565b5050506102ef565b634e487b7160e01b600052604160045260246000fd5b600082601f8301126100b057600080fd5b81516001600160401b03808211156100ca576100ca610089565b604051601f8301601f19908116603f011681019082821181831017156100f2576100f2610089565b8160405283815260209250868385880101111561010e57600080fd5b600091505b838210156101305785820183015181830184015290820190610113565b600093810190920192909252949350505050565b6000806040838503121561015757600080fd5b82516001600160401b038082111561016e57600080fd5b61017a8683870161009f565b9350602085015191508082111561019057600080fd5b5061019d8582860161009f565b9150509250929050565b600181811c908216806101bb57607f821691505b6020821081036101db57634e487b7160e01b600052602260045260246000fd5b50919050565b601f82111561022b57600081815260208120601f850160051c810160208610156102085750805b601f850160051c820191505b8181101561022757828155600101610214565b5050505b505050565b81516001600160401b0381111561024957610249610089565b61025d8161025784546101a7565b846101e1565b602080601f831160018114610292576000841561027a5750858301515b600019600386901b1c1916600185901b178555610227565b600085815260208120601f198616915b828110156102c1578886015182559484019460019091019084016102a2565b50858210156102df5787850151600019600388901b60f8161c191681555b5050505050600190811b01905550565b610244806102fe6000396000f3fe608060405234801561001057600080fd5b50600436106100575760003560e01c80630d15fd771461005c57806328d7573514610072578063632a9a5214610087578063675892ad1461009157806388305c2314610099575b600080fd5b6000546040519081526020015b60405180910390f35b61007a6100a1565b604051610069919061015f565b61008f61012f565b005b61007a610145565b61007a610152565b600380546100ae906101ad565b80601f01602080910402602001604051908101604052809291908181526020018280546100da906101ad565b80156101275780601f106100fc57610100808354040283529160200191610127565b820191906000526020600020905b81548152906001019060200180831161010a57829003601f168201915b505050505081565b60008054908061013e836101e7565b9190505550565b600280546100ae906101ad565b600180546100ae906101ad565b600060208083528351808285015260005b8181101561018c57858101830151858201604001528201610170565b506000604082860101526040601f19601f8301168501019250505092915050565b600181811c908216806101c157607f821691505b6020821081036101e157634e487b7160e01b600052602260045260246000fd5b50919050565b60006001820161020757634e487b7160e01b600052601160045260246000fd5b506001019056fea26469706673582212208fa5eb976fe38c39fd8e566fe72bf45e4fe22f175b47ad6f961460553447af5e64736f6c6343000811003360806040526000805534801561001457600080fd5b5060405161053f38038061053f8339810160408190526100339161011d565b600161003f848261022d565b50600261004c838261022d565b506003610059828261022d565b505050506102ec565b634e487b7160e01b600052604160045260246000fd5b600082601f83011261008957600080fd5b81516001600160401b03808211156100a3576100a3610062565b604051601f8301601f19908116603f011681019082821181831017156100cb576100cb610062565b816040528381526020925086838588010111156100e757600080fd5b600091505b8382101561010957858201830151818301840152908201906100ec565b600093810190920192909252949350505050565b60008060006060848603121561013257600080fd5b83516001600160401b038082111561014957600080fd5b61015587838801610078565b9450602086015191508082111561016b57600080fd5b61017787838801610078565b9350604086015191508082111561018d57600080fd5b5061019a86828701610078565b9150509250925092565b600181811c908216806101b857607f821691505b6020821081036101d857634e487b7160e01b600052602260045260246000fd5b50919050565b601f82111561022857600081815260208120601f850160051c810160208610156102055750805b601f850160051c820191505b8181101561022457828155600101610211565b5050505b505050565b81516001600160401b0381111561024657610246610062565b61025a8161025484546101a4565b846101de565b602080601f83116001811461028f57600084156102775750858301515b600019600386901b1c1916600185901b178555610224565b600085815260208120601f198616915b828110156102be5788860151825594840194600190910190840161029f565b50858210156102dc5787850151600019600388901b60f8161c191681555b5050505050600190811b01905550565b610244806102fb6000396000f3fe608060405234801561001057600080fd5b50600436106100575760003560e01c80630d15fd771461005c578063632a9a5214610072578063675892ad1461007c5780639845d34a14610091578063bc7b35b214610099575b600080fd5b6000546040519081526020015b60405180910390f35b61007a6100a1565b005b6100846100b7565b604051610069919061015f565b610084610145565b610084610152565b6000805490806100b0836101ad565b9190505550565b600280546100c4906101d4565b80601f01602080910402602001604051908101604052809291908181526020018280546100f0906101d4565b801561013d5780601f106101125761010080835404028352916020019161013d565b820191906000526020600020905b81548152906001019060200180831161012057829003601f168201915b505050505081565b600380546100c4906101d4565b600180546100c4906101d4565b600060208083528351808285015260005b8181101561018c57858101830151858201604001528201610170565b506000604082860101526040601f19601f8301168501019250505092915050565b6000600182016101cd57634e487b7160e01b600052601160045260246000fd5b5060010190565b600181811c908216806101e857607f821691505b60208210810361020857634e487b7160e01b600052602260045260246000fd5b5091905056fea26469706673582212205d1b57e5d952a3c9726ba42c5f11452dce7936ea305a7e1d725234631021862664736f6c6343000811003360806040526000805534801561001457600080fd5b5060405161051538038061051583398101604081905261003391610115565b600161003f848261020a565b5060028290556003610051828261020a565b505050506102c9565b634e487b7160e01b600052604160045260246000fd5b600082601f83011261008157600080fd5b81516001600160401b038082111561009b5761009b61005a565b604051601f8301601f19908116603f011681019082821181831017156100c3576100c361005a565b816040528381526020925086838588010111156100df57600080fd5b600091505b8382101561010157858201830151818301840152908201906100e4565b600093810190920192909252949350505050565b60008060006060848603121561012a57600080fd5b83516001600160401b038082111561014157600080fd5b61014d87838801610070565b945060208601519350604086015191508082111561016a57600080fd5b5061017786828701610070565b9150509250925092565b600181811c9082168061019557607f821691505b6020821081036101b557634e487b7160e01b600052602260045260246000fd5b50919050565b601f82111561020557600081815260208120601f850160051c810160208610156101e25750805b601f850160051c820191505b81811015610201578281556001016101ee565b5050505b505050565b81516001600160401b038111156102235761022361005a565b610237816102318454610181565b846101bb565b602080601f83116001811461026c57600084156102545750858301515b600019600386901b1c1916600185901b178555610201565b600085815260208120601f198616915b8281101561029b5788860151825594840194600190910190840161027c565b50858210156102b95787850151600019600388901b60f8161c191681555b5050505050600190811b01905550565b61023d806102d86000396000f3fe608060405234801561001057600080fd5b50600436106100575760003560e01c806306fdde031461005c5780630d15fd771461007a578063632a9a521461008c578063af640d0f14610096578063c0653e821461009f575b600080fd5b6100646100a7565b6040516100719190610158565b60405180910390f35b6000545b604051908152602001610071565b610094610135565b005b61007e60025481565b61006461014b565b600180546100b4906101a6565b80601f01602080910402602001604051908101604052809291908181526020018280546100e0906101a6565b801561012d5780601f106101025761010080835404028352916020019161012d565b820191906000526020600020905b81548152906001019060200180831161011057829003601f168201915b505050505081565b600080549080610144836101e0565b9190505550565b600380546100b4906101a6565b600060208083528351808285015260005b8181101561018557858101830151858201604001528201610169565b506000604082860101526040601f19601f8301168501019250505092915050565b600181811c908216806101ba57607f821691505b6020821081036101da57634e487b7160e01b600052602260045260246000fd5b50919050565b60006001820161020057634e487b7160e01b600052601160045260246000fd5b506001019056fea26469706673582212203d7c72318d31a0703c9949ceacf6cbefd413ad416eedc8567181460e57d1085564736f6c6343000811003360806040526000805534801561001457600080fd5b5060405161053f38038061053f8339810160408190526100339161011d565b600161003f848261022d565b50600261004c838261022d565b506003610059828261022d565b505050506102ec565b634e487b7160e01b600052604160045260246000fd5b600082601f83011261008957600080fd5b81516001600160401b03808211156100a3576100a3610062565b604051601f8301601f19908116603f011681019082821181831017156100cb576100cb610062565b816040528381526020925086838588010111156100e757600080fd5b600091505b8382101561010957858201830151818301840152908201906100ec565b600093810190920192909252949350505050565b60008060006060848603121561013257600080fd5b83516001600160401b038082111561014957600080fd5b61015587838801610078565b9450602086015191508082111561016b57600080fd5b61017787838801610078565b9350604086015191508082111561018d57600080fd5b5061019a86828701610078565b9150509250925092565b600181811c908216806101b857607f821691505b6020821081036101d857634e487b7160e01b600052602260045260246000fd5b50919050565b601f82111561022857600081815260208120601f850160051c810160208610156102055750805b601f850160051c820191505b8181101561022457828155600101610211565b5050505b505050565b81516001600160401b0381111561024657610246610062565b61025a8161025484546101a4565b846101de565b602080601f83116001811461028f57600084156102775750858301515b600019600386901b1c1916600185901b178555610224565b600085815260208120601f198616915b828110156102be5788860151825594840194600190910190840161029f565b50858210156102dc5787850151600019600388901b60f8161c191681555b5050505050600190811b01905550565b610244806102fb6000396000f3fe608060405234801561001057600080fd5b50600436106100575760003560e01c80630d15fd771461005c578063632a9a5214610072578063675892ad1461007c5780639845d34a14610091578063bc7b35b214610099575b600080fd5b6000546040519081526020015b60405180910390f35b61007a6100a1565b005b6100846100b7565b604051610069919061015f565b610084610145565b610084610152565b6000805490806100b0836101ad565b9190505550565b600280546100c4906101d4565b80601f01602080910402602001604051908101604052809291908181526020018280546100f0906101d4565b801561013d5780601f106101125761010080835404028352916020019161013d565b820191906000526020600020905b81548152906001019060200180831161012057829003601f168201915b505050505081565b600380546100c4906101d4565b600180546100c4906101d4565b600060208083528351808285015260005b8181101561018c57858101830151858201604001528201610170565b506000604082860101526040601f19601f8301168501019250505092915050565b6000600182016101cd57634e487b7160e01b600052601160045260246000fd5b5060010190565b600181811c908216806101e857607f821691505b60208210810361020857634e487b7160e01b600052602260045260246000fd5b5091905056fea26469706673582212203885278dcc1e3611d6e51466f7b0f61aacc3915ca333411aba602fa207cc65a564736f6c6343000811003360806040526000805534801561001457600080fd5b5060405161054538038061054583398101604081905261003391610147565b818160016100418382610233565b50600261004e8282610233565b505060408051808201909152600f81526e4a756e74612044697265637469766160881b6020820152600391506100849082610233565b5050506102f2565b634e487b7160e01b600052604160045260246000fd5b600082601f8301126100b357600080fd5b81516001600160401b03808211156100cd576100cd61008c565b604051601f8301601f19908116603f011681019082821181831017156100f5576100f561008c565b8160405283815260209250868385880101111561011157600080fd5b600091505b838210156101335785820183015181830184015290820190610116565b600093810190920192909252949350505050565b6000806040838503121561015a57600080fd5b82516001600160401b038082111561017157600080fd5b61017d868387016100a2565b9350602085015191508082111561019357600080fd5b506101a0858286016100a2565b9150509250929050565b600181811c908216806101be57607f821691505b6020821081036101de57634e487b7160e01b600052602260045260246000fd5b50919050565b601f82111561022e57600081815260208120601f850160051c8101602086101561020b5750805b601f850160051c820191505b8181101561022a57828155600101610217565b5050505b505050565b81516001600160401b0381111561024c5761024c61008c565b6102608161025a84546101aa565b846101e4565b602080601f831160018114610295576000841561027d5750858301515b600019600386901b1c1916600185901b17855561022a565b600085815260208120601f198616915b828110156102c4578886015182559484019460019091019084016102a5565b50858210156102e25787850151600019600388901b60f8161c191681555b5050505050600190811b01905550565b610244806103016000396000f3fe608060405234801561001057600080fd5b50600436106100575760003560e01c80630d15fd771461005c57806328d7573514610072578063632a9a5214610087578063675892ad1461009157806388305c2314610099575b600080fd5b6000546040519081526020015b60405180910390f35b61007a6100a1565b604051610069919061015f565b61008f61012f565b005b61007a610145565b61007a610152565b600380546100ae906101ad565b80601f01602080910402602001604051908101604052809291908181526020018280546100da906101ad565b80156101275780601f106100fc57610100808354040283529160200191610127565b820191906000526020600020905b81548152906001019060200180831161010a57829003601f168201915b505050505081565b60008054908061013e836101e7565b9190505550565b600280546100ae906101ad565b600180546100ae906101ad565b600060208083528351808285015260005b8181101561018c57858101830151858201604001528201610170565b506000604082860101526040601f19601f8301168501019250505092915050565b600181811c908216806101c157607f821691505b6020821081036101e157634e487b7160e01b600052602260045260246000fd5b50919050565b60006001820161020757634e487b7160e01b600052601160045260246000fd5b506001019056fea2646970667358221220497a35b8b9d5186d84911f829a90879755fe65932112b19823d699f9064c744d64736f6c6343000811003360806040523480156200001157600080fd5b5060405162000df838038062000df88339810160408190526200003491620002cd565b600083905581516200004e9060019060208501906200008f565b508051620000649060029060208401906200008f565b50506003805466ffffffffffffff19169055505060015460048190556006556002546005556200049c565b828054828255906000526020600020908101928215620000da579160200282015b82811115620000da5782518290620000c99082620003d0565b5091602001919060010190620000b0565b50620000e8929150620000ec565b5090565b80821115620000e85760006200010382826200010d565b50600101620000ec565b5080546200011b9062000341565b6000825580601f106200012c575050565b601f0160209004906000526020600020908101906200014c91906200014f565b50565b5b80821115620000e8576000815560010162000150565b634e487b7160e01b600052604160045260246000fd5b604051601f8201601f191681016001600160401b0381118282101715620001a757620001a762000166565b604052919050565b6000601f8381840112620001c257600080fd5b825160206001600160401b0380831115620001e157620001e162000166565b8260051b620001f28382016200017c565b93845286810183019383810190898611156200020d57600080fd5b84890192505b85831015620002c0578251848111156200022d5760008081fd5b8901603f81018b13620002405760008081fd5b858101518581111562000257576200025762000166565b6200026a818a01601f191688016200017c565b81815260408d81848601011115620002825760008081fd5b60005b83811015620002a2578481018201518382018b0152890162000285565b50506000918101880191909152835250918401919084019062000213565b9998505050505050505050565b600080600060608486031215620002e357600080fd5b835160208501519093506001600160401b03808211156200030357600080fd5b6200031187838801620001af565b935060408601519150808211156200032857600080fd5b506200033786828701620001af565b9150509250925092565b600181811c908216806200035657607f821691505b6020821081036200037757634e487b7160e01b600052602260045260246000fd5b50919050565b601f821115620003cb57600081815260208120601f850160051c81016020861015620003a65750805b601f850160051c820191505b81811015620003c757828155600101620003b2565b5050505b505050565b81516001600160401b03811115620003ec57620003ec62000166565b6200040481620003fd845462000341565b846200037d565b602080601f8311600181146200043c5760008415620004235750858301515b600019600386901b1c1916600185901b178555620003c7565b600085815260208120601f198616915b828110156200046d578886015182559484019460019091019084016200044c565b50858210156200048c5787850151600019600388901b60f8161c191681555b5050505050600190811b01905550565b61094c80620004ac6000396000f3fe608060405234801561001057600080fd5b506004361061012c5760003560e01c80636c6bd0f3116100ad578063a69799fc11610071578063a69799fc14610208578063ab9dbd0714610213578063bcd75c531461021b578063ec58caf814610223578063f79f21101461022b57600080fd5b80636c6bd0f3146101d65780637da34244146101de57806391a10b01146101e657806391b14753146101ee57806397e8cff91461020057600080fd5b8063476abce6116100f4578063476abce6146101835780634a51ede3146101955780635ac952f2146101aa57806361a69587146101bc57806364debb8f146101c457600080fd5b8063159e7064146101315780632b4af7a31461014e5780633174149a1461016057806335fc1ece1461016a57806344cd1b2114610172575b600080fd5b60035460ff16155b60405190151581526020015b60405180910390f35b6003546301000000900460ff16610139565b61016861023b565b005b61016861030b565b60035462010000900460ff16610139565b600354600160201b900460ff16610139565b61019d6103b0565b6040516101459190610825565b600354600160301b900460ff16610139565b61019d610489565b600354600160281b900460ff16610139565b610168610559565b610168610620565b6101686106c2565b6004545b604051908152602001610145565b610168610787565b60035460ff16610139565b6000546101f2565b6005546101f2565b6006546101f2565b600354610100900460ff16610139565b600354600160281b900460ff161561025257600080fd5b60068054906000610262836108b7565b90915550506006546003805465ff000000000019169115600160281b02919091179081905560ff6101009091041680156102a4575060035462010000900460ff165b80156102b957506003546301000000900460ff165b80156102ce5750600354600160201b900460ff165b80156102e35750600354600160281b900460ff165b80156102f85750600354600160301b900460ff165b6003805460ff1916911515919091179055565b6003546301000000900460ff161561032257600080fd5b6003805463ff000000191663010000001790819055610100900460ff1680156102a4575060035462010000900460ff1680156102b957506003546301000000900460ff1680156102ce5750600354600160201b900460ff1680156102e35750600354600160281b900460ff1680156102f857506003805460ff198116600160301b90910460ff161515179055565b60606002805480602002602001604051908101604052809291908181526020016000905b828210156104805783829060005260206000200180546103f3906108dc565b80601f016020809104026020016040519081016040528092919081815260200182805461041f906108dc565b801561046c5780601f106104415761010080835404028352916020019161046c565b820191906000526020600020905b81548152906001019060200180831161044f57829003601f168201915b5050505050815260200190600101906103d4565b50505050905090565b60606001805480602002602001604051908101604052809291908181526020016000905b828210156104805783829060005260206000200180546104cc906108dc565b80601f01602080910402602001604051908101604052809291908181526020018280546104f8906108dc565b80156105455780601f1061051a57610100808354040283529160200191610545565b820191906000526020600020905b81548152906001019060200180831161052857829003601f168201915b5050505050815260200190600101906104ad565b600354600160301b900460ff161561057057600080fd5b60058054906000610580836108b7565b90915550506005546003805466ff00000000000019169115600160301b02919091179081905560ff6101009091041680156102a4575060035462010000900460ff1680156102b957506003546301000000900460ff1680156102ce5750600354600160201b900460ff1680156102e35750600354600160281b900460ff1680156102f857506003805460ff198116600160301b90910460ff161515179055565b60035462010000900460ff161561063657600080fd5b6003805462ff00001916620100001790819055610100900460ff1680156102a4575060035462010000900460ff1680156102b957506003546301000000900460ff1680156102ce5750600354600160201b900460ff1680156102e35750600354600160281b900460ff1680156102f857506003805460ff198116600160301b90910460ff161515179055565b600354600160201b900460ff16156106d957600080fd5b600480549060006106e9836108b7565b90915550506004546003805464ff0000000019169115600160201b02919091179081905560ff6101009091041680156102a4575060035462010000900460ff1680156102b957506003546301000000900460ff1680156102ce5750600354600160201b900460ff1680156102e35750600354600160281b900460ff1680156102f857506003805460ff198116600160301b90910460ff161515179055565b600354610100900460ff161561079c57600080fd5b6003805461ff00191661010090811791829055900460ff1680156102a4575060035462010000900460ff1680156102b957506003546301000000900460ff1680156102ce5750600354600160201b900460ff1680156102e35750600354600160281b900460ff1680156102f857506003805460ff198116600160301b90910460ff161515179055565b6000602080830181845280855180835260408601915060408160051b87010192508387016000805b838110156108a957888603603f1901855282518051808852835b81811015610882578281018a01518982018b01528901610867565b508781018901849052601f01601f191690960187019550938601939186019160010161084d565b509398975050505050505050565b6000816108d457634e487b7160e01b600052601160045260246000fd5b506000190190565b600181811c908216806108f057607f821691505b60208210810361091057634e487b7160e01b600052602260045260246000fd5b5091905056fea26469706673582212202f769e7c3894ee69068fcd050be83e68db206605b184ee18937cb7e2014f944f64736f6c63430008110033a2646970667358221220e3ec60f8b70a0863fb7c33ae6fa94eb9dfec2f881a2f979f3df3203f748ff26b64736f6c63430008110033",
  "immutableReferences": {},
  "source": "// SPDX-Licence-Identifier: UNLICENSED\npragma solidity ^0.8.0;\nimport \"./Candidate.sol\";\nimport \"./StringCompare.sol\";\nimport \"./Votante.sol\";\n\n\ncontract Eleccion {\n    string nombre;\n    address owner;\n\n    uint[] public registroElectoral;\n\n    mapping (uint => Votante) public votantesRegistrados;\n    mapping (uint => ConsejoAcademico) public candidatosConsejoAcademico;\n    mapping (string => JuntaDirectivaFCE) public candidatosJuntaFCE;\n    mapping (string => CoordinacionFCE) public candidatosCoordinacionFCE;\n    mapping (string => mapping (string => CentroEstudiantes)) public candidatosCentroEstudiantes;\n    mapping (string => mapping (string => ConsejoEscuela)) public candidatosConsejoEscuela;\n    mapping (string => mapping (string => ConsejoFacultad)) public candidatosConsejoFacultad;\n\n    constructor () {\n        owner = msg.sender;\n    }\n\n    function agregarIDARegistro(uint _id) public {\n        require(!checkRegistroElectoral(_id), \"Ya se encuentra en el registro electoral\");\n        registroElectoral.push(_id);\n    }\n\n    function checkRegistroElectoral(uint _id) public view returns (bool) {\n        for (uint i = 0; i < registroElectoral.length; i++) {\n            if (registroElectoral[i] == _id) {\n                return true;\n            }\n        }\n        return false;\n    }\n\n    function agregarVotante(uint _id, string[] memory _carreras, string[] memory _facultades) public {\n        require(checkRegistroElectoral(_id), \"No se encuentra en el registro electoral\");\n        votantesRegistrados[_id] = new Votante(_id, _carreras, _facultades);\n    }\n\n    function getVotanteInfo(uint _id) public view returns (uint, string[] memory, string[] memory) {\n        return (votantesRegistrados[_id].getID(), votantesRegistrados[_id].getCarreras(), votantesRegistrados[_id].getFacultades());\n    }\n\n    function getVotanteVotado(uint _id) public view returns (bool) {\n        return votantesRegistrados[_id].getVoted();\n    }\n\n    function getVotanteVotados(uint _id) public view returns (bool, bool, bool, bool, bool) {\n        return (votantesRegistrados[_id].getVotedConsejoAcademico(), votantesRegistrados[_id].getVotedJuntaDirectivaFCE(), votantesRegistrados[_id].getVotedCoordinacionFCE(), votantesRegistrados[_id].getVotedCentroEstudiantes(), votantesRegistrados[_id].getVotedConsejoEscuela());\n    }\n\n    function getVotanteNumeroVotos(uint _id) public view returns (uint, uint, uint) {\n        return (votantesRegistrados[_id].getNumeroVotosCentroEst(), votantesRegistrados[_id].getNumeroVotosCF(), votantesRegistrados[_id].getNumeroVotosCE());\n    }\n\n    function agregarCandidatoConsejoAcademico(string memory _nombre, uint _id, string memory _carrera) public {\n        // TODO: Check if candidate already exists\n        candidatosConsejoAcademico[_id] = new ConsejoAcademico(_nombre, _id, _carrera);\n    }\n\n    function getCandidateConsejoAcademico(uint _id) public view returns (string memory, uint, string memory, uint) {\n        return (candidatosConsejoAcademico[_id].name(), candidatosConsejoAcademico[_id].id(), candidatosConsejoAcademico[_id].carrera(), candidatosConsejoAcademico[_id].totalVotes());\n    }\n\n    function voteCandidateConsejoAcademico(uint _id, uint _voterID) public {\n        ConsejoAcademico candidato = candidatosConsejoAcademico[_id];\n        candidato.vote();\n        Votante votante = votantesRegistrados[_voterID];\n        votante.votarConsejoAcademico();\n    }\n\n\n    function agregarCandidatoJuntaDirectivaFCE(string memory _agrupacion, string memory _siglas) public {\n        // TODO: Check if candidate already exists\n        candidatosJuntaFCE[_siglas] = new JuntaDirectivaFCE(_agrupacion, _siglas);\n    }\n\n    function getCandidateJuntaDirectivaFCE(string memory _siglas) public view returns (string memory, string memory, uint) {\n        return (candidatosJuntaFCE[_siglas].agrupacion(), candidatosJuntaFCE[_siglas].siglas(), candidatosJuntaFCE[_siglas].totalVotes());\n    }\n\n    function voteCandidateJuntaDirectivaFCE(string memory _siglas, uint _voterID) public {\n        JuntaDirectivaFCE candidato = candidatosJuntaFCE[_siglas];\n        candidato.vote();\n        Votante votante = votantesRegistrados[_voterID];\n        votante.votarJuntaDirectivaFCE();\n    }\n\n    function agregarCandidatoCoordinacionFCE(string memory _agrupacion, string memory _siglas) public {\n        candidatosCoordinacionFCE[_siglas] = new CoordinacionFCE(_agrupacion, _siglas);\n    }\n\n    function getCandidatoCoordinacionFCE(string memory _siglas) public view returns (string memory, string memory, uint) {\n        return (candidatosCoordinacionFCE[_siglas].agrupacion(), candidatosCoordinacionFCE[_siglas].siglas(), candidatosCoordinacionFCE[_siglas].totalVotes());\n    }\n\n    function voteCandidateCoordinacionFCE(string memory _siglas, uint _voterID) public {\n        CoordinacionFCE candidato = candidatosCoordinacionFCE[_siglas];\n        candidato.vote();\n        Votante votante = votantesRegistrados[_voterID];\n        votante.votarCoordinacionFCE();\n    }\n\n    function agregarCandidatoCentroEstudiantes(string memory _nombre, string memory _siglas, string memory _escuela) public {\n        candidatosCentroEstudiantes[_escuela][_siglas] = new CentroEstudiantes(_nombre, _siglas, _escuela);\n    }\n\n    function getCandidatoCentroEstudiantes(string memory _siglas, string memory _escuela) public view returns (string memory, string memory, string memory, uint) {\n        return (candidatosCentroEstudiantes[_escuela][_siglas].nombre(), candidatosCentroEstudiantes[_escuela][_siglas].siglas(), candidatosCentroEstudiantes[_escuela][_siglas].escuela(), candidatosCentroEstudiantes[_escuela][_siglas].totalVotes());\n    }\n\n    function voteCandidateCentroEstudiantes(string memory _siglas, string memory _escuela, uint _voterID) public {\n        CentroEstudiantes candidato = candidatosCentroEstudiantes[_escuela][_siglas];\n        candidato.vote();\n        Votante votante = votantesRegistrados[_voterID];\n        votante.votarCentroEstudiantes();\n    }\n\n    function agregarCandidatoConsejoEscuela(string memory _nombre, string memory _siglas, string memory _escuela) public {\n        candidatosConsejoEscuela[_escuela][_siglas] = new ConsejoEscuela(_nombre, _siglas, _escuela);\n    }\n\n    function getCandidatoConsejoEscuela(string memory _siglas, string memory _escuela) public view returns (string memory, string memory, string memory, uint) {\n        return (candidatosConsejoEscuela[_escuela][_siglas].nombre(), candidatosConsejoEscuela[_escuela][_siglas].siglas(), candidatosConsejoEscuela[_escuela][_siglas].escuela(), candidatosConsejoEscuela[_escuela][_siglas].totalVotes());\n    }\n\n    function voteCandidateConsejoEscuela(string memory _siglas, string memory _escuela, uint _voterID) public {\n        ConsejoEscuela candidato = candidatosConsejoEscuela[_escuela][_siglas];\n        candidato.vote();\n        Votante votante = votantesRegistrados[_voterID];\n        votante.votarConsejoEscuela();\n    }\n\n    function agregarCandidatoConsejoFacultad(string memory _nombre, string memory _siglas, string memory _facultad) public {\n        candidatosConsejoFacultad[_facultad][_siglas] = new ConsejoFacultad(_nombre, _siglas, _facultad);\n    }\n\n    function getCandidatoConsejoFacultad(string memory _siglas, string memory _facultad) public view returns (string memory, string memory, string memory, uint) {\n        return (candidatosConsejoFacultad[_facultad][_siglas].nombre(), candidatosConsejoFacultad[_facultad][_siglas].siglas(), candidatosConsejoFacultad[_facultad][_siglas].facultad(), candidatosConsejoFacultad[_facultad][_siglas].totalVotes());\n    }\n\n    function voteCandidateConsejoFacultad(string memory _siglas, string memory _facultad, uint _voterID) public {\n        ConsejoFacultad candidato = candidatosConsejoFacultad[_facultad][_siglas];\n        candidato.vote();\n        Votante votante = votantesRegistrados[_voterID];\n        votante.votarConsejoFacultad();\n    }\n\n\n}",
  "sourcePath": "/Users/abert/Desktop/chainge_voting_dapp/smart_contract/contracts/Eleccion.sol",
  "compiler": {
    "name": "solc",
    "version": "0.8.17+commit.8df45f5f.Emscripten.clang"
  },
  "schemaVersion": "3.4.10",
  "updatedAt": "2022-11-16T17:42:00.940Z",
  "devdoc": {
    "kind": "dev",
    "methods": {},
    "version": 1
  },
  "userdoc": {
    "kind": "user",
    "methods": {},
    "version": 1
  }
}