{
  "contractName": "Eleccion",
  "abi": [
    {
      "inputs": [],
      "stateMutability": "nonpayable",
      "type": "constructor"
    },
    {
      "inputs": [
        {
          "internalType": "string",
          "name": "",
          "type": "string"
        },
        {
          "internalType": "string",
          "name": "",
          "type": "string"
        }
      ],
      "name": "candidatosCentroEstudiantes",
      "outputs": [
        {
          "internalType": "contract CentroEstudiantes",
          "name": "",
          "type": "address"
        }
      ],
      "stateMutability": "view",
      "type": "function",
      "constant": true
    },
    {
      "inputs": [
        {
          "internalType": "uint256",
          "name": "",
          "type": "uint256"
        }
      ],
      "name": "candidatosCentroEstudiantesKeys",
      "outputs": [
        {
          "internalType": "string",
          "name": "",
          "type": "string"
        }
      ],
      "stateMutability": "view",
      "type": "function",
      "constant": true
    },
    {
      "inputs": [
        {
          "internalType": "uint256",
          "name": "",
          "type": "uint256"
        }
      ],
      "name": "candidatosConsejoAcademico",
      "outputs": [
        {
          "internalType": "contract ConsejoAcademico",
          "name": "",
          "type": "address"
        }
      ],
      "stateMutability": "view",
      "type": "function",
      "constant": true
    },
    {
      "inputs": [
        {
          "internalType": "uint256",
          "name": "",
          "type": "uint256"
        }
      ],
      "name": "candidatosConsejoAcademicoKeys",
      "outputs": [
        {
          "internalType": "uint256",
          "name": "",
          "type": "uint256"
        }
      ],
      "stateMutability": "view",
      "type": "function",
      "constant": true
    },
    {
      "inputs": [
        {
          "internalType": "string",
          "name": "",
          "type": "string"
        },
        {
          "internalType": "string",
          "name": "",
          "type": "string"
        }
      ],
      "name": "candidatosConsejoEscuela",
      "outputs": [
        {
          "internalType": "contract ConsejoEscuela",
          "name": "",
          "type": "address"
        }
      ],
      "stateMutability": "view",
      "type": "function",
      "constant": true
    },
    {
      "inputs": [
        {
          "internalType": "uint256",
          "name": "",
          "type": "uint256"
        }
      ],
      "name": "candidatosConsejoEscuelaKeys",
      "outputs": [
        {
          "internalType": "string",
          "name": "",
          "type": "string"
        }
      ],
      "stateMutability": "view",
      "type": "function",
      "constant": true
    },
    {
      "inputs": [
        {
          "internalType": "string",
          "name": "",
          "type": "string"
        },
        {
          "internalType": "string",
          "name": "",
          "type": "string"
        }
      ],
      "name": "candidatosConsejoFacultad",
      "outputs": [
        {
          "internalType": "contract ConsejoFacultad",
          "name": "",
          "type": "address"
        }
      ],
      "stateMutability": "view",
      "type": "function",
      "constant": true
    },
    {
      "inputs": [
        {
          "internalType": "uint256",
          "name": "",
          "type": "uint256"
        }
      ],
      "name": "candidatosConsejoFacultadKeys",
      "outputs": [
        {
          "internalType": "string",
          "name": "",
          "type": "string"
        }
      ],
      "stateMutability": "view",
      "type": "function",
      "constant": true
    },
    {
      "inputs": [
        {
          "internalType": "string",
          "name": "",
          "type": "string"
        }
      ],
      "name": "candidatosCoordinacionFCE",
      "outputs": [
        {
          "internalType": "contract CoordinacionFCE",
          "name": "",
          "type": "address"
        }
      ],
      "stateMutability": "view",
      "type": "function",
      "constant": true
    },
    {
      "inputs": [
        {
          "internalType": "uint256",
          "name": "",
          "type": "uint256"
        }
      ],
      "name": "candidatosCoordinacionFCEKeys",
      "outputs": [
        {
          "internalType": "string",
          "name": "",
          "type": "string"
        }
      ],
      "stateMutability": "view",
      "type": "function",
      "constant": true
    },
    {
      "inputs": [
        {
          "internalType": "string",
          "name": "",
          "type": "string"
        }
      ],
      "name": "candidatosJuntaFCE",
      "outputs": [
        {
          "internalType": "contract JuntaDirectivaFCE",
          "name": "",
          "type": "address"
        }
      ],
      "stateMutability": "view",
      "type": "function",
      "constant": true
    },
    {
      "inputs": [
        {
          "internalType": "uint256",
          "name": "",
          "type": "uint256"
        }
      ],
      "name": "candidatosJuntaFCEKeys",
      "outputs": [
        {
          "internalType": "string",
          "name": "",
          "type": "string"
        }
      ],
      "stateMutability": "view",
      "type": "function",
      "constant": true
    },
    {
      "inputs": [
        {
          "internalType": "uint256",
          "name": "",
          "type": "uint256"
        }
      ],
      "name": "escuelas",
      "outputs": [
        {
          "internalType": "string",
          "name": "",
          "type": "string"
        }
      ],
      "stateMutability": "view",
      "type": "function",
      "constant": true
    },
    {
      "inputs": [],
      "name": "numeroVotantesRegistrados",
      "outputs": [
        {
          "internalType": "uint256",
          "name": "",
          "type": "uint256"
        }
      ],
      "stateMutability": "view",
      "type": "function",
      "constant": true
    },
    {
      "inputs": [
        {
          "internalType": "uint256",
          "name": "",
          "type": "uint256"
        }
      ],
      "name": "registroElectoral",
      "outputs": [
        {
          "internalType": "uint256",
          "name": "",
          "type": "uint256"
        }
      ],
      "stateMutability": "view",
      "type": "function",
      "constant": true
    },
    {
      "inputs": [
        {
          "internalType": "uint256",
          "name": "",
          "type": "uint256"
        }
      ],
      "name": "votantesRegistrados",
      "outputs": [
        {
          "internalType": "contract Votante",
          "name": "",
          "type": "address"
        }
      ],
      "stateMutability": "view",
      "type": "function",
      "constant": true
    },
    {
      "inputs": [
        {
          "internalType": "uint256",
          "name": "_id",
          "type": "uint256"
        }
      ],
      "name": "agregarIDARegistro",
      "outputs": [],
      "stateMutability": "nonpayable",
      "type": "function"
    },
    {
      "inputs": [
        {
          "internalType": "uint256",
          "name": "_id",
          "type": "uint256"
        }
      ],
      "name": "checkRegistroElectoral",
      "outputs": [
        {
          "internalType": "bool",
          "name": "",
          "type": "bool"
        }
      ],
      "stateMutability": "view",
      "type": "function",
      "constant": true
    },
    {
      "inputs": [
        {
          "internalType": "uint256",
          "name": "_id",
          "type": "uint256"
        },
        {
          "internalType": "string[]",
          "name": "_carreras",
          "type": "string[]"
        },
        {
          "internalType": "string[]",
          "name": "_facultades",
          "type": "string[]"
        }
      ],
      "name": "agregarVotante",
      "outputs": [],
      "stateMutability": "nonpayable",
      "type": "function"
    },
    {
      "inputs": [
        {
          "internalType": "uint256",
          "name": "_id",
          "type": "uint256"
        }
      ],
      "name": "getVotanteInfo",
      "outputs": [
        {
          "internalType": "uint256",
          "name": "",
          "type": "uint256"
        },
        {
          "internalType": "string[]",
          "name": "",
          "type": "string[]"
        },
        {
          "internalType": "string[]",
          "name": "",
          "type": "string[]"
        }
      ],
      "stateMutability": "view",
      "type": "function",
      "constant": true
    },
    {
      "inputs": [
        {
          "internalType": "uint256",
          "name": "_id",
          "type": "uint256"
        }
      ],
      "name": "getVotanteCulminoVotacion",
      "outputs": [
        {
          "internalType": "bool",
          "name": "",
          "type": "bool"
        }
      ],
      "stateMutability": "view",
      "type": "function",
      "constant": true
    },
    {
      "inputs": [
        {
          "internalType": "uint256",
          "name": "_id",
          "type": "uint256"
        }
      ],
      "name": "getVotanteSeccionesVotadas",
      "outputs": [
        {
          "internalType": "bool",
          "name": "",
          "type": "bool"
        },
        {
          "internalType": "bool",
          "name": "",
          "type": "bool"
        },
        {
          "internalType": "bool",
          "name": "",
          "type": "bool"
        },
        {
          "internalType": "bool",
          "name": "",
          "type": "bool"
        },
        {
          "internalType": "bool",
          "name": "",
          "type": "bool"
        },
        {
          "internalType": "bool",
          "name": "",
          "type": "bool"
        }
      ],
      "stateMutability": "view",
      "type": "function",
      "constant": true
    },
    {
      "inputs": [
        {
          "internalType": "uint256",
          "name": "_id",
          "type": "uint256"
        }
      ],
      "name": "getVotanteNumeroVotos",
      "outputs": [
        {
          "internalType": "uint256",
          "name": "",
          "type": "uint256"
        },
        {
          "internalType": "uint256",
          "name": "",
          "type": "uint256"
        },
        {
          "internalType": "uint256",
          "name": "",
          "type": "uint256"
        }
      ],
      "stateMutability": "view",
      "type": "function",
      "constant": true
    },
    {
      "inputs": [
        {
          "internalType": "string",
          "name": "_nombre",
          "type": "string"
        },
        {
          "internalType": "uint256",
          "name": "_id",
          "type": "uint256"
        },
        {
          "internalType": "string",
          "name": "_carrera",
          "type": "string"
        }
      ],
      "name": "agregarCandidatoConsejoAcademico",
      "outputs": [],
      "stateMutability": "nonpayable",
      "type": "function"
    },
    {
      "inputs": [
        {
          "internalType": "uint256",
          "name": "_id",
          "type": "uint256"
        }
      ],
      "name": "getCandidatoConsejoAcademico",
      "outputs": [
        {
          "internalType": "string",
          "name": "",
          "type": "string"
        },
        {
          "internalType": "uint256",
          "name": "",
          "type": "uint256"
        },
        {
          "internalType": "string",
          "name": "",
          "type": "string"
        },
        {
          "internalType": "uint256",
          "name": "",
          "type": "uint256"
        }
      ],
      "stateMutability": "view",
      "type": "function",
      "constant": true
    },
    {
      "inputs": [
        {
          "internalType": "uint256",
          "name": "_id",
          "type": "uint256"
        },
        {
          "internalType": "uint256",
          "name": "_voterID",
          "type": "uint256"
        }
      ],
      "name": "voteCandidatoConsejoAcademico",
      "outputs": [],
      "stateMutability": "nonpayable",
      "type": "function"
    },
    {
      "inputs": [
        {
          "internalType": "string",
          "name": "_agrupacion",
          "type": "string"
        },
        {
          "internalType": "string",
          "name": "_siglas",
          "type": "string"
        }
      ],
      "name": "agregarCandidatoJuntaDirectivaFCE",
      "outputs": [],
      "stateMutability": "nonpayable",
      "type": "function"
    },
    {
      "inputs": [
        {
          "internalType": "string",
          "name": "_siglas",
          "type": "string"
        }
      ],
      "name": "getCandidatoJuntaDirectivaFCE",
      "outputs": [
        {
          "internalType": "string",
          "name": "",
          "type": "string"
        },
        {
          "internalType": "string",
          "name": "",
          "type": "string"
        },
        {
          "internalType": "uint256",
          "name": "",
          "type": "uint256"
        }
      ],
      "stateMutability": "view",
      "type": "function",
      "constant": true
    },
    {
      "inputs": [
        {
          "internalType": "string",
          "name": "_siglas",
          "type": "string"
        },
        {
          "internalType": "uint256",
          "name": "_voterID",
          "type": "uint256"
        }
      ],
      "name": "voteCandidatoJuntaDirectivaFCE",
      "outputs": [],
      "stateMutability": "nonpayable",
      "type": "function"
    },
    {
      "inputs": [
        {
          "internalType": "string",
          "name": "_agrupacion",
          "type": "string"
        },
        {
          "internalType": "string",
          "name": "_siglas",
          "type": "string"
        }
      ],
      "name": "agregarCandidatoCoordinacionFCE",
      "outputs": [],
      "stateMutability": "nonpayable",
      "type": "function"
    },
    {
      "inputs": [
        {
          "internalType": "string",
          "name": "_siglas",
          "type": "string"
        }
      ],
      "name": "getCandidatoCoordinacionFCE",
      "outputs": [
        {
          "internalType": "string",
          "name": "",
          "type": "string"
        },
        {
          "internalType": "string",
          "name": "",
          "type": "string"
        },
        {
          "internalType": "uint256",
          "name": "",
          "type": "uint256"
        }
      ],
      "stateMutability": "view",
      "type": "function",
      "constant": true
    },
    {
      "inputs": [
        {
          "internalType": "string",
          "name": "_siglas",
          "type": "string"
        },
        {
          "internalType": "uint256",
          "name": "_voterID",
          "type": "uint256"
        }
      ],
      "name": "voteCandidatoCoordinacionFCE",
      "outputs": [],
      "stateMutability": "nonpayable",
      "type": "function"
    },
    {
      "inputs": [
        {
          "internalType": "string",
          "name": "_nombre",
          "type": "string"
        },
        {
          "internalType": "string",
          "name": "_siglas",
          "type": "string"
        },
        {
          "internalType": "string",
          "name": "_escuela",
          "type": "string"
        }
      ],
      "name": "agregarCandidatoCentroEstudiantes",
      "outputs": [],
      "stateMutability": "nonpayable",
      "type": "function"
    },
    {
      "inputs": [
        {
          "internalType": "string",
          "name": "_siglas",
          "type": "string"
        },
        {
          "internalType": "string",
          "name": "_escuela",
          "type": "string"
        }
      ],
      "name": "getCandidatoCentroEstudiantes",
      "outputs": [
        {
          "internalType": "string",
          "name": "",
          "type": "string"
        },
        {
          "internalType": "string",
          "name": "",
          "type": "string"
        },
        {
          "internalType": "string",
          "name": "",
          "type": "string"
        },
        {
          "internalType": "uint256",
          "name": "",
          "type": "uint256"
        }
      ],
      "stateMutability": "view",
      "type": "function",
      "constant": true
    },
    {
      "inputs": [
        {
          "internalType": "string",
          "name": "_siglas",
          "type": "string"
        },
        {
          "internalType": "string",
          "name": "_escuela",
          "type": "string"
        },
        {
          "internalType": "uint256",
          "name": "_voterID",
          "type": "uint256"
        }
      ],
      "name": "voteCandidatoCentroEstudiantes",
      "outputs": [],
      "stateMutability": "nonpayable",
      "type": "function"
    },
    {
      "inputs": [
        {
          "internalType": "string",
          "name": "_nombre",
          "type": "string"
        },
        {
          "internalType": "string",
          "name": "_siglas",
          "type": "string"
        },
        {
          "internalType": "string",
          "name": "_escuela",
          "type": "string"
        }
      ],
      "name": "agregarCandidatoConsejoEscuela",
      "outputs": [],
      "stateMutability": "nonpayable",
      "type": "function"
    },
    {
      "inputs": [
        {
          "internalType": "string",
          "name": "_siglas",
          "type": "string"
        },
        {
          "internalType": "string",
          "name": "_escuela",
          "type": "string"
        }
      ],
      "name": "getCandidatoConsejoEscuela",
      "outputs": [
        {
          "internalType": "string",
          "name": "",
          "type": "string"
        },
        {
          "internalType": "string",
          "name": "",
          "type": "string"
        },
        {
          "internalType": "string",
          "name": "",
          "type": "string"
        },
        {
          "internalType": "uint256",
          "name": "",
          "type": "uint256"
        }
      ],
      "stateMutability": "view",
      "type": "function",
      "constant": true
    },
    {
      "inputs": [
        {
          "internalType": "string",
          "name": "_siglas",
          "type": "string"
        },
        {
          "internalType": "string",
          "name": "_escuela",
          "type": "string"
        },
        {
          "internalType": "uint256",
          "name": "_voterID",
          "type": "uint256"
        }
      ],
      "name": "voteCandidatoConsejoEscuela",
      "outputs": [],
      "stateMutability": "nonpayable",
      "type": "function"
    },
    {
      "inputs": [
        {
          "internalType": "string",
          "name": "_nombre",
          "type": "string"
        },
        {
          "internalType": "string",
          "name": "_siglas",
          "type": "string"
        },
        {
          "internalType": "string",
          "name": "_facultad",
          "type": "string"
        }
      ],
      "name": "agregarCandidatoConsejoFacultad",
      "outputs": [],
      "stateMutability": "nonpayable",
      "type": "function"
    },
    {
      "inputs": [
        {
          "internalType": "string",
          "name": "_siglas",
          "type": "string"
        },
        {
          "internalType": "string",
          "name": "_facultad",
          "type": "string"
        }
      ],
      "name": "getCandidatoConsejoFacultad",
      "outputs": [
        {
          "internalType": "string",
          "name": "",
          "type": "string"
        },
        {
          "internalType": "string",
          "name": "",
          "type": "string"
        },
        {
          "internalType": "string",
          "name": "",
          "type": "string"
        },
        {
          "internalType": "uint256",
          "name": "",
          "type": "uint256"
        }
      ],
      "stateMutability": "view",
      "type": "function",
      "constant": true
    },
    {
      "inputs": [
        {
          "internalType": "string",
          "name": "_siglas",
          "type": "string"
        },
        {
          "internalType": "string",
          "name": "_facultad",
          "type": "string"
        },
        {
          "internalType": "uint256",
          "name": "_voterID",
          "type": "uint256"
        }
      ],
      "name": "voteCandidatoConsejoFacultad",
      "outputs": [],
      "stateMutability": "nonpayable",
      "type": "function"
    },
    {
      "inputs": [],
      "name": "getCandidatosJuntaFCELength",
      "outputs": [
        {
          "internalType": "uint256",
          "name": "",
          "type": "uint256"
        }
      ],
      "stateMutability": "view",
      "type": "function",
      "constant": true
    },
    {
      "inputs": [],
      "name": "getCandidatosCoordinacionFCELength",
      "outputs": [
        {
          "internalType": "uint256",
          "name": "",
          "type": "uint256"
        }
      ],
      "stateMutability": "view",
      "type": "function",
      "constant": true
    },
    {
      "inputs": [],
      "name": "getCandidatosCentroEstudiantesLength",
      "outputs": [
        {
          "internalType": "uint256",
          "name": "",
          "type": "uint256"
        }
      ],
      "stateMutability": "view",
      "type": "function",
      "constant": true
    },
    {
      "inputs": [],
      "name": "getCandidatosConsejoEscuelaLength",
      "outputs": [
        {
          "internalType": "uint256",
          "name": "",
          "type": "uint256"
        }
      ],
      "stateMutability": "view",
      "type": "function",
      "constant": true
    },
    {
      "inputs": [],
      "name": "getCandidatosConsejoFacultadLength",
      "outputs": [
        {
          "internalType": "uint256",
          "name": "",
          "type": "uint256"
        }
      ],
      "stateMutability": "view",
      "type": "function",
      "constant": true
    },
    {
      "inputs": [],
      "name": "getCandidatosConsejoAcademicoLength",
      "outputs": [
        {
          "internalType": "uint256",
          "name": "",
          "type": "uint256"
        }
      ],
      "stateMutability": "view",
      "type": "function",
      "constant": true
    },
    {
      "inputs": [],
      "name": "getEscuelasLength",
      "outputs": [
        {
          "internalType": "uint256",
          "name": "",
          "type": "uint256"
        }
      ],
      "stateMutability": "view",
      "type": "function",
      "constant": true
    }
  ],
  "bytecode": "0x60186102408181527f4369656e636961732041646d696e69737472617469766173000000000000000061026052608090815260146102808181527f45636f6e6f6d696120456d70726573617269616c0000000000000000000000006102a05260a05260126102c081815271436f6e74616475726961205075626c69636160701b6102e05260c05260106103008181526f125b99d95b9a595c9a584810da5d9a5b60821b6103205260e05260136103409081527f496e67656e6965726961204d6563616e6963610000000000000000000000000061036052610100526103808581527f496e67656e69657269612064652050726f64756363696f6e00000000000000006103a052610120526103c091825271496e67656e6965726961205175696d69636160701b6103e0526101409190915260166104009081527f496e67656e69657269612064652053697374656d61730000000000000000000061042052610160526104409182527f496e67656e696572696120456c65637472696361000000000000000000000000610460526101809190915260096104809081526822b23ab1b0b1b4b7b760b91b6104a0526101a0526104c09081526f4964696f6d6173204d6f6465726e6f7360801b6104e0526101c0526105009182527f4d6174656d61746963617320496e647573747269616c65730000000000000000610520526101e091909152600a61054090815269507369636f6c6f67696160b01b61056052610200526105c0604052601c6105809081527f4465726563686f2079204573747564696f73204c69626572616c6573000000006105a052610220526200026990600390600e62000290565b503480156200027757600080fd5b50600180546001600160a01b03191633179055620004cb565b82600e8101928215620002ce579160200282015b82811115620002ce5782518290620002bd9082620003ff565b5091602001919060010190620002a4565b50620002dc929150620002e0565b5090565b80821115620002dc576000620002f7828262000301565b50600101620002e0565b5080546200030f9062000370565b6000825580601f1062000320575050565b601f01602090049060005260206000209081019062000340919062000343565b50565b5b80821115620002dc576000815560010162000344565b634e487b7160e01b600052604160045260246000fd5b600181811c908216806200038557607f821691505b602082108103620003a657634e487b7160e01b600052602260045260246000fd5b50919050565b601f821115620003fa57600081815260208120601f850160051c81016020861015620003d55750805b601f850160051c820191505b81811015620003f657828155600101620003e1565b5050505b505050565b81516001600160401b038111156200041b576200041b6200035a565b62000433816200042c845462000370565b84620003ac565b602080601f8311600181146200046b5760008415620004525750858301515b600019600386901b1c1916600185901b178555620003f6565b600085815260208120601f198616915b828110156200049c578886015182559484019460019091019084016200047b565b5085821015620004bb5787850151600019600388901b60f8161c191681555b5050505050600190811b01905550565b615df180620004db6000396000f3fe60806040523480156200001157600080fd5b5060043610620002d95760003560e01c806371a2c97b1162000185578063aa6f0cd411620000df578063d0b81ec51162000092578063d0b81ec514620007dc578063dd36c46614620007f3578063e24fec81146200080a578063eaa8411e146200085e578063ebd5d661146200088a578063ef3a4e9f14620008a157600080fd5b8063aa6f0cd4146200073d578063b706b6c71462000754578063b85db62b146200076b578063c0465f781462000797578063c229418414620007ae578063c493271914620007c557600080fd5b80638a7acd9f11620001385780638a7acd9f14620006b05780638b63ec5714620006e7578063948f79de14620006ef5780639591ed6c14620007065780639c597f78146200070f5780639f06be5c146200072657600080fd5b806371a2c97b14620005e9578063763d768e14620006005780637f3069901462000617578063829f00fb146200062e578063882685d51462000682578063897307c1146200069957600080fd5b80634549c16011620002375780635728764711620001ea5780635728764714620005435780635d11ac8e146200055a578063604e84ed146200058d5780636752d24414620005a45780636d93e2cc14620005bb5780636da282ea14620005d257600080fd5b80634549c160146200044e5780634b89420c14620004655780634f64dc05146200049c5780635087715914620004c45780635243d6f414620004db578063551ed07d146200052c57600080fd5b806321bd2e98116200029057806321bd2e9814620003d857806321f13e7e146200040057806324c0278f14620004295780632653f13d14620004325780633e51b3c2146200043b5780633e69631d146200044557600080fd5b80630219f38214620002de578063054a166b14620003105780630634d61c14620003235780630ff680ca14620003495780631066035c14620003625780631e2fe79a14620003cf575b600080fd5b620002f5620002ef36600462002983565b620008c9565b60405162000307949392919062002a41565b60405180910390f35b6014545b60405190815260200162000307565b6200033a6200033436600462002a92565b62000b90565b60405162000307919062002aac565b620003606200035a36600462002ac8565b62000c45565b005b620003b66200037336600462002983565b8151602081840181018051601d8252928201948201949094209190935281518083018401805192815290840192909301919091209152546001600160a01b031681565b6040516001600160a01b03909116815260200162000307565b601c5462000314565b620003ef620003e936600462002b10565b62000d33565b604051620003079392919062002b50565b620004176200041136600462002a92565b62000eed565b60405162000307949392919062002b8a565b60185462000314565b60165462000314565b6200031460125481565b601e5462000314565b620003606200045f36600462002bb9565b620010f3565b620003b66200047636600462002b10565b80516020818301810180516017825292820191909301209152546001600160a01b031681565b620004b3620004ad36600462002a92565b620011d3565b604051901515815260200162000307565b6200033a620004d536600462002a92565b62001231565b620004f2620004ec36600462002a92565b62001242565b604080519615158752941515602087015292151593850193909352151560608401529015156080830152151560a082015260c00162000307565b620003606200053d36600462002a92565b62001541565b620003606200055436600462002c4a565b620015e5565b620005716200056b36600462002a92565b620016f2565b6040805193845260208401929092529082015260600162000307565b620003606200059e36600462002cbd565b6200183f565b6200033a620005b536600462002a92565b620018f6565b62000314620005cc36600462002a92565b62001918565b62000360620005e336600462002c4a565b6200193a565b62000360620005fa36600462002ac8565b62001a27565b620004b36200061136600462002a92565b62001af6565b620003ef6200062836600462002b10565b62001b75565b620003b66200063f36600462002983565b8151602081840181018051601b8252928201948201949094209190935281518083018401805192815290840192909301919091209152546001600160a01b031681565b620003606200069336600462002983565b62001cac565b62000360620006aa36600462002bb9565b62001d6b565b620003b6620006c136600462002b10565b80516020818301810180516015825292820191909301209152546001600160a01b031681565b600e62000314565b620003606200070036600462002ce0565b62001e45565b601a5462000314565b6200033a6200072036600462002a92565b62001ee5565b620003606200073736600462002bb9565b62001ef6565b620003606200074e36600462002983565b62001fd0565b620003606200076536600462002df4565b6200208a565b620003b66200077c36600462002a92565b6011602052600090815260409020546001600160a01b031681565b620002f5620007a836600462002983565b62002178565b62000360620007bf36600462002c4a565b6200239b565b62000314620007d636600462002a92565b62002488565b6200033a620007ed36600462002a92565b62002499565b6200033a6200080436600462002a92565b620024aa565b620003b66200081b36600462002983565b815160208184018101805160198252928201948201949094209190935281518083018401805192815290840192909301919091209152546001600160a01b031681565b620003b66200086f36600462002a92565b6013602052600090815260409020546001600160a01b031681565b620002f56200089b36600462002983565b620024bb565b620008b8620008b236600462002a92565b620026de565b604051620003079392919062002eb6565b60608060606000601985604051620008e2919062002eef565b90815260200160405180910390208660405162000900919062002eef565b9081526040805191829003602001822054635e3d9ad960e11b835290516001600160a01b039091169163bc7b35b29160048083019260009291908290030181865afa15801562000954573d6000803e3d6000fd5b505050506040513d6000823e601f3d908101601f191682016040526200097e919081019062002f59565b60198660405162000990919062002eef565b908152602001604051809103902087604051620009ae919062002eef565b908152604080519182900360200182205463675892ad60e01b835290516001600160a01b039091169163675892ad9160048083019260009291908290030181865afa15801562000a02573d6000803e3d6000fd5b505050506040513d6000823e601f3d908101601f1916820160405262000a2c919081019062002f59565b60198760405162000a3e919062002eef565b90815260200160405180910390208860405162000a5c919062002eef565b9081526040805191829003602001822054634c22e9a560e11b835290516001600160a01b0390911691639845d34a9160048083019260009291908290030181865afa15801562000ab0573d6000803e3d6000fd5b505050506040513d6000823e601f3d908101601f1916820160405262000ada919081019062002f59565b60198860405162000aec919062002eef565b90815260200160405180910390208960405162000b0a919062002eef565b908152604080516020928190038301812054630d15fd7760e01b825291516001600160a01b0390921692630d15fd77926004808401938290030181865afa15801562000b5a573d6000803e3d6000fd5b505050506040513d601f19601f8201168201806040525081019062000b80919062002f91565b9299919850965090945092505050565b601c818154811062000ba157600080fd5b90600052602060002001600091509050805462000bbe9062002fab565b80601f016020809104026020016040519081016040528092919081815260200182805462000bec9062002fab565b801562000c3d5780601f1062000c115761010080835404028352916020019162000c3d565b820191906000526020600020905b81548152906001019060200180831162000c1f57829003601f168201915b505050505081565b600060158360405162000c59919062002eef565b90815260408051918290036020018220546331954d2960e11b835290516001600160a01b039091169250829163632a9a5291600480830192600092919082900301818387803b15801562000cac57600080fd5b505af115801562000cc1573d6000803e3d6000fd5b505050600083815260116020526040808220548151631f68d09160e21b815291516001600160a01b0390911693508392637da34244926004808201939182900301818387803b15801562000d1457600080fd5b505af115801562000d29573d6000803e3d6000fd5b5050505050505050565b606080600060158460405162000d4a919062002eef565b90815260408051918290036020018220546388305c2360e01b835290516001600160a01b03909116916388305c239160048083019260009291908290030181865afa15801562000d9e573d6000803e3d6000fd5b505050506040513d6000823e601f3d908101601f1916820160405262000dc8919081019062002f59565b60158560405162000dda919062002eef565b908152604080519182900360200182205463675892ad60e01b835290516001600160a01b039091169163675892ad9160048083019260009291908290030181865afa15801562000e2e573d6000803e3d6000fd5b505050506040513d6000823e601f3d908101601f1916820160405262000e58919081019062002f59565b60158660405162000e6a919062002eef565b908152604080516020928190038301812054630d15fd7760e01b825291516001600160a01b0390921692630d15fd77926004808401938290030181865afa15801562000eba573d6000803e3d6000fd5b505050506040513d601f19601f8201168201806040525081019062000ee0919062002f91565b9250925092509193909250565b6000818152601360205260408082205481516306fdde0360e01b8152915160609392849284926001600160a01b03909116916306fdde0391600480830192869291908290030181865afa15801562000f49573d6000803e3d6000fd5b505050506040513d6000823e601f3d908101601f1916820160405262000f73919081019062002f59565b60008681526013602090815260409182902054825163af640d0f60e01b815292516001600160a01b039091169263af640d0f9260048083019391928290030181865afa15801562000fc8573d6000803e3d6000fd5b505050506040513d601f19601f8201168201806040525081019062000fee919062002f91565b6000878152601360205260408082205481516360329f4160e11b815291516001600160a01b039091169263c0653e8292600480820193918290030181865afa1580156200103f573d6000803e3d6000fd5b505050506040513d6000823e601f3d908101601f1916820160405262001069919081019062002f59565b600088815260136020908152604091829020548251630d15fd7760e01b815292516001600160a01b0390911692630d15fd779260048083019391928290030181865afa158015620010be573d6000803e3d6000fd5b505050506040513d601f19601f82011682018060405250810190620010e4919062002f91565b93509350935093509193509193565b828282604051620011049062002852565b620011129392919062002fe7565b604051809103906000f0801580156200112f573d6000803e3d6000fd5b50601d8260405162001142919062002eef565b90815260200160405180910390208360405162001160919062002eef565b90815260405190819003602001902080546001600160a01b03929092166001600160a01b0319909216919091179055601e80546001810182556000919091527f50bb669a95c7b50b7e8a6f09454034b2b14cf2b85c730dca9a539ca82cb6e35001620011cd838262003078565b50505050565b6000805b60025481101562001228578260028281548110620011f957620011f962003144565b906000526020600020015403620012135750600192915050565b806200121f816200315a565b915050620011d7565b50600092915050565b601e818154811062000ba157600080fd5b6000818152601160209081526040808320548151630f79f21160e41b81529151849384938493849384936001600160a01b039092169263f79f21109260048083019391928290030181865afa158015620012a0573d6000803e3d6000fd5b505050506040513d601f19601f82011682018060405250810190620012c6919062003182565b6000888152601160209081526040918290205482516344cd1b2160e01b815292516001600160a01b03909116926344cd1b219260048083019391928290030181865afa1580156200131b573d6000803e3d6000fd5b505050506040513d601f19601f8201168201806040525081019062001341919062003182565b600089815260116020908152604091829020548251632b4af7a360e01b815292516001600160a01b0390911692632b4af7a39260048083019391928290030181865afa15801562001396573d6000803e3d6000fd5b505050506040513d601f19601f82011682018060405250810190620013bc919062003182565b60008a8152601160209081526040918290205482516323b55e7360e11b815292516001600160a01b039091169263476abce69260048083019391928290030181865afa15801562001411573d6000803e3d6000fd5b505050506040513d601f19601f8201168201806040525081019062001437919062003182565b60008b8152601160209081526040918290205482516364debb8f60e01b815292516001600160a01b03909116926364debb8f9260048083019391928290030181865afa1580156200148c573d6000803e3d6000fd5b505050506040513d601f19601f82011682018060405250810190620014b2919062003182565b60008c815260116020908152604091829020548251632d64a97960e11b815292516001600160a01b0390911692635ac952f29260048083019391928290030181865afa15801562001507573d6000803e3d6000fd5b505050506040513d601f19601f820116820180604052508101906200152d919062003182565b949c939b5091995097509550909350915050565b6200154c81620011d3565b15620015b05760405162461bcd60e51b815260206004820152602860248201527f596120736520656e6375656e74726120656e20656c20726567697374726f20656044820152671b1958dd1bdc985b60c21b60648201526084015b60405180910390fd5b600280546001810182556000919091527f405787fa12a823e0f2b7631cc41b3ba8828b3321ca811111fa75cd3aa3bb5ace0155565b6000601b83604051620015f9919062002eef565b90815260200160405180910390208460405162001617919062002eef565b90815260408051918290036020018220546331954d2960e11b835290516001600160a01b039091169250829163632a9a5291600480830192600092919082900301818387803b1580156200166a57600080fd5b505af11580156200167f573d6000803e3d6000fd5b5050506000838152601160205260408082205481516318ba0a4d60e11b815291516001600160a01b0390911693508392633174149a926004808201939182900301818387803b158015620016d257600080fd5b505af1158015620016e7573d6000803e3d6000fd5b505050505050505050565b60008181526011602090815260408083205481516391b1475360e01b81529151849384936001600160a01b03909316926391b1475392600480830193928290030181865afa15801562001749573d6000803e3d6000fd5b505050506040513d601f19601f820116820180604052508101906200176f919062002f91565b60008581526011602090815260409182902054825163bcd75c5360e01b815292516001600160a01b039091169263bcd75c539260048083019391928290030181865afa158015620017c4573d6000803e3d6000fd5b505050506040513d601f19601f82011682018060405250810190620017ea919062002f91565b600086815260116020908152604091829020548251631d8b195f60e31b815292516001600160a01b039091169263ec58caf89260048083019391928290030181865afa15801562000eba573d6000803e3d6000fd5b6000828152601360205260408082205481516331954d2960e11b815291516001600160a01b0390911692839263632a9a52926004808301939282900301818387803b1580156200188e57600080fd5b505af1158015620018a3573d6000803e3d6000fd5b5050506000838152601160205260408082205481516397e8cff960e01b815291516001600160a01b03909116935083926397e8cff9926004808201939182900301818387803b15801562000d1457600080fd5b600381600e81106200190757600080fd5b01805490915062000bbe9062002fab565b600281815481106200192957600080fd5b600091825260209091200154905081565b6000601d836040516200194e919062002eef565b9081526020016040518091039020846040516200196c919062002eef565b90815260408051918290036020018220546331954d2960e11b835290516001600160a01b039091169250829163632a9a5291600480830192600092919082900301818387803b158015620019bf57600080fd5b505af1158015620019d4573d6000803e3d6000fd5b505050600083815260116020526040808220548151636c6bd0f360e01b815291516001600160a01b0390911693508392636c6bd0f3926004808201939182900301818387803b158015620016d257600080fd5b600060178360405162001a3b919062002eef565b90815260408051918290036020018220546331954d2960e11b835290516001600160a01b039091169250829163632a9a5291600480830192600092919082900301818387803b15801562001a8e57600080fd5b505af115801562001aa3573d6000803e3d6000fd5b505050600083815260116020526040808220548151631afe0f6760e11b815291516001600160a01b03909116935083926335fc1ece926004808201939182900301818387803b15801562000d1457600080fd5b60008181526011602090815260408083205481516329a5e67f60e21b815291516001600160a01b039091169263a69799fc92600480820193918290030181865afa15801562001b49573d6000803e3d6000fd5b505050506040513d601f19601f8201168201806040525081019062001b6f919062003182565b92915050565b606080600060178460405162001b8c919062002eef565b90815260408051918290036020018220546388305c2360e01b835290516001600160a01b03909116916388305c239160048083019260009291908290030181865afa15801562001be0573d6000803e3d6000fd5b505050506040513d6000823e601f3d908101601f1916820160405262001c0a919081019062002f59565b60178560405162001c1c919062002eef565b908152604080519182900360200182205463675892ad60e01b835290516001600160a01b039091169163675892ad9160048083019260009291908290030181865afa15801562001c70573d6000803e3d6000fd5b505050506040513d6000823e601f3d908101601f1916820160405262001c9a919081019062002f59565b60178660405162000e6a919062002eef565b818160405162001cbc9062002860565b62001cc9929190620031a6565b604051809103906000f08015801562001ce6573d6000803e3d6000fd5b5060178260405162001cf9919062002eef565b90815260405190819003602001902080546001600160a01b03929092166001600160a01b0319909216919091179055601880546001810182556000919091527fb13d2d76d1f4b7be834882e410b3e3a8afaf69f83600ae24db354391d2378d2e0162001d66828262003078565b505050565b82828260405162001d7c906200286e565b62001d8a9392919062002fe7565b604051809103906000f08015801562001da7573d6000803e3d6000fd5b5060198260405162001dba919062002eef565b90815260200160405180910390208360405162001dd8919062002eef565b90815260405190819003602001902080546001600160a01b03929092166001600160a01b0319909216919091179055601a80546001810182556000919091527f057c384a7d1c54f3a1b2e5e67b2617b8224fdfd1ea7234eea573a6ff665ff63e01620011cd838262003078565b82828260405162001e56906200287c565b62001e6493929190620031d8565b604051809103906000f08015801562001e81573d6000803e3d6000fd5b50600083815260136020526040812080546001600160a01b0319166001600160a01b0393909316929092179091556014805460018101825591527fce6d7b5282bd9a3661ae061feed1dbda4e52ab073b1f9285be6e155d9c38d4ec01919091555050565b6018818154811062000ba157600080fd5b82828260405162001f07906200288a565b62001f159392919062002fe7565b604051809103906000f08015801562001f32573d6000803e3d6000fd5b50601b8260405162001f45919062002eef565b90815260200160405180910390208360405162001f63919062002eef565b90815260405190819003602001902080546001600160a01b03929092166001600160a01b0319909216919091179055601c80546001810182556000919091527f0e4562a10381dec21b205ed72637e6b1b523bdd0e4d4d50af5cd23dd4500a21101620011cd838262003078565b818160405162001fe09062002898565b62001fed929190620031a6565b604051809103906000f0801580156200200a573d6000803e3d6000fd5b506015826040516200201d919062002eef565b90815260405190819003602001902080546001600160a01b03929092166001600160a01b0319909216919091179055601680546001810182556000919091527fd833147d7dc355ba459fc788f669e58cfaf9dc25ddcd0702e87d69c7b51242890162001d66828262003078565b6200209583620011d3565b620020f45760405162461bcd60e51b815260206004820152602860248201527f4e6f20736520656e6375656e74726120656e20656c20726567697374726f20656044820152671b1958dd1bdc985b60c21b6064820152608401620015a7565b8282826040516200210590620028a6565b620021139392919062002eb6565b604051809103906000f08015801562002130573d6000803e3d6000fd5b50600084815260116020526040812080546001600160a01b0319166001600160a01b03939093169290921790915560128054916200216e836200315a565b9190505550505050565b60608060606000601b8560405162002191919062002eef565b908152602001604051809103902086604051620021af919062002eef565b9081526040805191829003602001822054635e3d9ad960e11b835290516001600160a01b039091169163bc7b35b29160048083019260009291908290030181865afa15801562002203573d6000803e3d6000fd5b505050506040513d6000823e601f3d908101601f191682016040526200222d919081019062002f59565b601b866040516200223f919062002eef565b9081526020016040518091039020876040516200225d919062002eef565b908152604080519182900360200182205463675892ad60e01b835290516001600160a01b039091169163675892ad9160048083019260009291908290030181865afa158015620022b1573d6000803e3d6000fd5b505050506040513d6000823e601f3d908101601f19168201604052620022db919081019062002f59565b601b87604051620022ed919062002eef565b9081526020016040518091039020886040516200230b919062002eef565b9081526040805191829003602001822054634c22e9a560e11b835290516001600160a01b0390911691639845d34a9160048083019260009291908290030181865afa1580156200235f573d6000803e3d6000fd5b505050506040513d6000823e601f3d908101601f1916820160405262002389919081019062002f59565b601b8860405162000aec919062002eef565b6000601983604051620023af919062002eef565b908152602001604051809103902084604051620023cd919062002eef565b90815260408051918290036020018220546331954d2960e11b835290516001600160a01b039091169250829163632a9a5291600480830192600092919082900301818387803b1580156200242057600080fd5b505af115801562002435573d6000803e3d6000fd5b5050506000838152601160205260408082205481516391a10b0160e01b815291516001600160a01b03909116935083926391a10b01926004808201939182900301818387803b158015620016d257600080fd5b601481815481106200192957600080fd5b6016818154811062000ba157600080fd5b601a818154811062000ba157600080fd5b60608060606000601d85604051620024d4919062002eef565b908152602001604051809103902086604051620024f2919062002eef565b9081526040805191829003602001822054635e3d9ad960e11b835290516001600160a01b039091169163bc7b35b29160048083019260009291908290030181865afa15801562002546573d6000803e3d6000fd5b505050506040513d6000823e601f3d908101601f1916820160405262002570919081019062002f59565b601d8660405162002582919062002eef565b908152602001604051809103902087604051620025a0919062002eef565b908152604080519182900360200182205463675892ad60e01b835290516001600160a01b039091169163675892ad9160048083019260009291908290030181865afa158015620025f4573d6000803e3d6000fd5b505050506040513d6000823e601f3d908101601f191682016040526200261e919081019062002f59565b601d8760405162002630919062002eef565b9081526020016040518091039020886040516200264e919062002eef565b908152604080519182900360200182205463148213bb60e01b835290516001600160a01b039091169163148213bb9160048083019260009291908290030181865afa158015620026a2573d6000803e3d6000fd5b505050506040513d6000823e601f3d908101601f19168201604052620026cc919081019062002f59565b601d8860405162000aec919062002eef565b600081815260116020908152604080832054815163ab9dbd0760e01b8152915160609384936001600160a01b039093169263ab9dbd0792600480830193928290030181865afa15801562002736573d6000803e3d6000fd5b505050506040513d601f19601f820116820180604052508101906200275c919062002f91565b6000858152601160205260408082205481516361a6958760e01b815291516001600160a01b03909116926361a6958792600480820193918290030181865afa158015620027ad573d6000803e3d6000fd5b505050506040513d6000823e601f3d908101601f19168201604052620027d7919081019062003207565b600086815260116020526040808220548151634a51ede360e01b815291516001600160a01b0390911692634a51ede392600480820193918290030181865afa15801562002828573d6000803e3d6000fd5b505050506040513d6000823e601f3d908101601f1916820160405262000ee0919081019062003207565b61053f80620032c483390190565b610542806200380383390190565b61053f8062003d4583390190565b610515806200428483390190565b61053f806200479983390190565b6105458062004cd883390190565b610b9f806200521d83390190565b634e487b7160e01b600052604160045260246000fd5b604051601f8201601f191681016001600160401b0381118282101715620028f557620028f5620028b4565b604052919050565b60006001600160401b03821115620029195762002919620028b4565b50601f01601f191660200190565b600082601f8301126200293957600080fd5b8135620029506200294a82620028fd565b620028ca565b8181528460208386010111156200296657600080fd5b816020850160208301376000918101602001919091529392505050565b600080604083850312156200299757600080fd5b82356001600160401b0380821115620029af57600080fd5b620029bd8683870162002927565b93506020850135915080821115620029d457600080fd5b50620029e38582860162002927565b9150509250929050565b60005b8381101562002a0a578181015183820152602001620029f0565b50506000910152565b6000815180845262002a2d816020860160208601620029ed565b601f01601f19169290920160200192915050565b60808152600062002a56608083018762002a13565b828103602084015262002a6a818762002a13565b9050828103604084015262002a80818662002a13565b91505082606083015295945050505050565b60006020828403121562002aa557600080fd5b5035919050565b60208152600062002ac1602083018462002a13565b9392505050565b6000806040838503121562002adc57600080fd5b82356001600160401b0381111562002af357600080fd5b62002b018582860162002927565b95602094909401359450505050565b60006020828403121562002b2357600080fd5b81356001600160401b0381111562002b3a57600080fd5b62002b488482850162002927565b949350505050565b60608152600062002b65606083018662002a13565b828103602084015262002b79818662002a13565b915050826040830152949350505050565b60808152600062002b9f608083018762002a13565b856020840152828103604084015262002a80818662002a13565b60008060006060848603121562002bcf57600080fd5b83356001600160401b038082111562002be757600080fd5b62002bf58783880162002927565b9450602086013591508082111562002c0c57600080fd5b62002c1a8783880162002927565b9350604086013591508082111562002c3157600080fd5b5062002c408682870162002927565b9150509250925092565b60008060006060848603121562002c6057600080fd5b83356001600160401b038082111562002c7857600080fd5b62002c868783880162002927565b9450602086013591508082111562002c9d57600080fd5b5062002cac8682870162002927565b925050604084013590509250925092565b6000806040838503121562002cd157600080fd5b50508035926020909101359150565b60008060006060848603121562002cf657600080fd5b83356001600160401b038082111562002d0e57600080fd5b62002d1c8783880162002927565b945060208601359350604086013591508082111562002c3157600080fd5b60006001600160401b0382111562002d565762002d56620028b4565b5060051b60200190565b600082601f83011262002d7257600080fd5b8135602062002d856200294a8362002d3a565b82815260059290921b8401810191818101908684111562002da557600080fd5b8286015b8481101562002de95780356001600160401b0381111562002dca5760008081fd5b62002dda8986838b010162002927565b84525091830191830162002da9565b509695505050505050565b60008060006060848603121562002e0a57600080fd5b8335925060208401356001600160401b038082111562002e2957600080fd5b62002e378783880162002d60565b9350604086013591508082111562002e4e57600080fd5b5062002c408682870162002d60565b600081518084526020808501808196508360051b8101915082860160005b8581101562002ea957828403895262002e9684835162002a13565b9885019893509084019060010162002e7b565b5091979650505050505050565b83815260606020820152600062002ed1606083018562002e5d565b828103604084015262002ee5818562002e5d565b9695505050505050565b6000825162002f03818460208701620029ed565b9190910192915050565b600082601f83011262002f1f57600080fd5b815162002f306200294a82620028fd565b81815284602083860101111562002f4657600080fd5b62002b48826020830160208701620029ed565b60006020828403121562002f6c57600080fd5b81516001600160401b0381111562002f8357600080fd5b62002b488482850162002f0d565b60006020828403121562002fa457600080fd5b5051919050565b600181811c9082168062002fc057607f821691505b60208210810362002fe157634e487b7160e01b600052602260045260246000fd5b50919050565b60608152600062002ffc606083018662002a13565b828103602084015262003010818662002a13565b9050828103604084015262002ee5818562002a13565b601f82111562001d6657600081815260208120601f850160051c810160208610156200304f5750805b601f850160051c820191505b8181101562003070578281556001016200305b565b505050505050565b81516001600160401b03811115620030945762003094620028b4565b620030ac81620030a5845462002fab565b8462003026565b602080601f831160018114620030e45760008415620030cb5750858301515b600019600386901b1c1916600185901b17855562003070565b600085815260208120601f198616915b828110156200311557888601518255948401946001909101908401620030f4565b5085821015620031345787850151600019600388901b60f8161c191681555b5050505050600190811b01905550565b634e487b7160e01b600052603260045260246000fd5b6000600182016200317b57634e487b7160e01b600052601160045260246000fd5b5060010190565b6000602082840312156200319557600080fd5b8151801515811462002ac157600080fd5b604081526000620031bb604083018562002a13565b8281036020840152620031cf818562002a13565b95945050505050565b606081526000620031ed606083018662002a13565b846020840152828103604084015262002ee5818562002a13565b600060208083850312156200321b57600080fd5b82516001600160401b03808211156200323357600080fd5b818501915085601f8301126200324857600080fd5b8151620032596200294a8262002d3a565b81815260059190911b830184019084810190888311156200327957600080fd5b8585015b83811015620032b657805185811115620032975760008081fd5b620032a78b89838a010162002f0d565b8452509186019186016200327d565b509897505050505050505056fe60806040526000805534801561001457600080fd5b5060405161053f38038061053f8339810160408190526100339161011d565b600161003f848261022d565b50600261004c838261022d565b506003610059828261022d565b505050506102ec565b634e487b7160e01b600052604160045260246000fd5b600082601f83011261008957600080fd5b81516001600160401b03808211156100a3576100a3610062565b604051601f8301601f19908116603f011681019082821181831017156100cb576100cb610062565b816040528381526020925086838588010111156100e757600080fd5b600091505b8382101561010957858201830151818301840152908201906100ec565b600093810190920192909252949350505050565b60008060006060848603121561013257600080fd5b83516001600160401b038082111561014957600080fd5b61015587838801610078565b9450602086015191508082111561016b57600080fd5b61017787838801610078565b9350604086015191508082111561018d57600080fd5b5061019a86828701610078565b9150509250925092565b600181811c908216806101b857607f821691505b6020821081036101d857634e487b7160e01b600052602260045260246000fd5b50919050565b601f82111561022857600081815260208120601f850160051c810160208610156102055750805b601f850160051c820191505b8181101561022457828155600101610211565b5050505b505050565b81516001600160401b0381111561024657610246610062565b61025a8161025484546101a4565b846101de565b602080601f83116001811461028f57600084156102775750858301515b600019600386901b1c1916600185901b178555610224565b600085815260208120601f198616915b828110156102be5788860151825594840194600190910190840161029f565b50858210156102dc5787850151600019600388901b60f8161c191681555b5050505050600190811b01905550565b610244806102fb6000396000f3fe608060405234801561001057600080fd5b50600436106100575760003560e01c80630d15fd771461005c578063148213bb14610072578063632a9a5214610087578063675892ad14610091578063bc7b35b214610099575b600080fd5b6000546040519081526020015b60405180910390f35b61007a6100a1565b604051610069919061015f565b61008f61012f565b005b61007a610145565b61007a610152565b600380546100ae906101ad565b80601f01602080910402602001604051908101604052809291908181526020018280546100da906101ad565b80156101275780601f106100fc57610100808354040283529160200191610127565b820191906000526020600020905b81548152906001019060200180831161010a57829003601f168201915b505050505081565b60008054908061013e836101e7565b9190505550565b600280546100ae906101ad565b600180546100ae906101ad565b600060208083528351808285015260005b8181101561018c57858101830151858201604001528201610170565b506000604082860101526040601f19601f8301168501019250505092915050565b600181811c908216806101c157607f821691505b6020821081036101e157634e487b7160e01b600052602260045260246000fd5b50919050565b60006001820161020757634e487b7160e01b600052601160045260246000fd5b506001019056fea26469706673582212200c289cd72f11e650bf51fdddb4bd94fb901250cd3129391f830558a6c69ac66064736f6c6343000811003360806040526000805534801561001457600080fd5b5060405161054238038061054283398101604081905261003391610144565b818160016100418382610230565b50600261004e8282610230565b505060408051808201909152600c81526b21b7b7b93234b730b1b4b7b760a11b6020820152600391506100819082610230565b5050506102ef565b634e487b7160e01b600052604160045260246000fd5b600082601f8301126100b057600080fd5b81516001600160401b03808211156100ca576100ca610089565b604051601f8301601f19908116603f011681019082821181831017156100f2576100f2610089565b8160405283815260209250868385880101111561010e57600080fd5b600091505b838210156101305785820183015181830184015290820190610113565b600093810190920192909252949350505050565b6000806040838503121561015757600080fd5b82516001600160401b038082111561016e57600080fd5b61017a8683870161009f565b9350602085015191508082111561019057600080fd5b5061019d8582860161009f565b9150509250929050565b600181811c908216806101bb57607f821691505b6020821081036101db57634e487b7160e01b600052602260045260246000fd5b50919050565b601f82111561022b57600081815260208120601f850160051c810160208610156102085750805b601f850160051c820191505b8181101561022757828155600101610214565b5050505b505050565b81516001600160401b0381111561024957610249610089565b61025d8161025784546101a7565b846101e1565b602080601f831160018114610292576000841561027a5750858301515b600019600386901b1c1916600185901b178555610227565b600085815260208120601f198616915b828110156102c1578886015182559484019460019091019084016102a2565b50858210156102df5787850151600019600388901b60f8161c191681555b5050505050600190811b01905550565b610244806102fe6000396000f3fe608060405234801561001057600080fd5b50600436106100575760003560e01c80630d15fd771461005c57806328d7573514610072578063632a9a5214610087578063675892ad1461009157806388305c2314610099575b600080fd5b6000546040519081526020015b60405180910390f35b61007a6100a1565b604051610069919061015f565b61008f61012f565b005b61007a610145565b61007a610152565b600380546100ae906101ad565b80601f01602080910402602001604051908101604052809291908181526020018280546100da906101ad565b80156101275780601f106100fc57610100808354040283529160200191610127565b820191906000526020600020905b81548152906001019060200180831161010a57829003601f168201915b505050505081565b60008054908061013e836101e7565b9190505550565b600280546100ae906101ad565b600180546100ae906101ad565b600060208083528351808285015260005b8181101561018c57858101830151858201604001528201610170565b506000604082860101526040601f19601f8301168501019250505092915050565b600181811c908216806101c157607f821691505b6020821081036101e157634e487b7160e01b600052602260045260246000fd5b50919050565b60006001820161020757634e487b7160e01b600052601160045260246000fd5b506001019056fea26469706673582212203ad981a824673233bc7245cbc082bf74bea402682fc9b82d86aaa368f190b3c664736f6c6343000811003360806040526000805534801561001457600080fd5b5060405161053f38038061053f8339810160408190526100339161011d565b600161003f848261022d565b50600261004c838261022d565b506003610059828261022d565b505050506102ec565b634e487b7160e01b600052604160045260246000fd5b600082601f83011261008957600080fd5b81516001600160401b03808211156100a3576100a3610062565b604051601f8301601f19908116603f011681019082821181831017156100cb576100cb610062565b816040528381526020925086838588010111156100e757600080fd5b600091505b8382101561010957858201830151818301840152908201906100ec565b600093810190920192909252949350505050565b60008060006060848603121561013257600080fd5b83516001600160401b038082111561014957600080fd5b61015587838801610078565b9450602086015191508082111561016b57600080fd5b61017787838801610078565b9350604086015191508082111561018d57600080fd5b5061019a86828701610078565b9150509250925092565b600181811c908216806101b857607f821691505b6020821081036101d857634e487b7160e01b600052602260045260246000fd5b50919050565b601f82111561022857600081815260208120601f850160051c810160208610156102055750805b601f850160051c820191505b8181101561022457828155600101610211565b5050505b505050565b81516001600160401b0381111561024657610246610062565b61025a8161025484546101a4565b846101de565b602080601f83116001811461028f57600084156102775750858301515b600019600386901b1c1916600185901b178555610224565b600085815260208120601f198616915b828110156102be5788860151825594840194600190910190840161029f565b50858210156102dc5787850151600019600388901b60f8161c191681555b5050505050600190811b01905550565b610244806102fb6000396000f3fe608060405234801561001057600080fd5b50600436106100575760003560e01c80630d15fd771461005c578063632a9a5214610072578063675892ad1461007c5780639845d34a14610091578063bc7b35b214610099575b600080fd5b6000546040519081526020015b60405180910390f35b61007a6100a1565b005b6100846100b7565b604051610069919061015f565b610084610145565b610084610152565b6000805490806100b0836101ad565b9190505550565b600280546100c4906101d4565b80601f01602080910402602001604051908101604052809291908181526020018280546100f0906101d4565b801561013d5780601f106101125761010080835404028352916020019161013d565b820191906000526020600020905b81548152906001019060200180831161012057829003601f168201915b505050505081565b600380546100c4906101d4565b600180546100c4906101d4565b600060208083528351808285015260005b8181101561018c57858101830151858201604001528201610170565b506000604082860101526040601f19601f8301168501019250505092915050565b6000600182016101cd57634e487b7160e01b600052601160045260246000fd5b5060010190565b600181811c908216806101e857607f821691505b60208210810361020857634e487b7160e01b600052602260045260246000fd5b5091905056fea2646970667358221220382515be6ce43fe8e5782d2c887cebaac4ecd49729b18586de131617fafe62cc64736f6c6343000811003360806040526000805534801561001457600080fd5b5060405161051538038061051583398101604081905261003391610115565b600161003f848261020a565b5060028290556003610051828261020a565b505050506102c9565b634e487b7160e01b600052604160045260246000fd5b600082601f83011261008157600080fd5b81516001600160401b038082111561009b5761009b61005a565b604051601f8301601f19908116603f011681019082821181831017156100c3576100c361005a565b816040528381526020925086838588010111156100df57600080fd5b600091505b8382101561010157858201830151818301840152908201906100e4565b600093810190920192909252949350505050565b60008060006060848603121561012a57600080fd5b83516001600160401b038082111561014157600080fd5b61014d87838801610070565b945060208601519350604086015191508082111561016a57600080fd5b5061017786828701610070565b9150509250925092565b600181811c9082168061019557607f821691505b6020821081036101b557634e487b7160e01b600052602260045260246000fd5b50919050565b601f82111561020557600081815260208120601f850160051c810160208610156101e25750805b601f850160051c820191505b81811015610201578281556001016101ee565b5050505b505050565b81516001600160401b038111156102235761022361005a565b610237816102318454610181565b846101bb565b602080601f83116001811461026c57600084156102545750858301515b600019600386901b1c1916600185901b178555610201565b600085815260208120601f198616915b8281101561029b5788860151825594840194600190910190840161027c565b50858210156102b95787850151600019600388901b60f8161c191681555b5050505050600190811b01905550565b61023d806102d86000396000f3fe608060405234801561001057600080fd5b50600436106100575760003560e01c806306fdde031461005c5780630d15fd771461007a578063632a9a521461008c578063af640d0f14610096578063c0653e821461009f575b600080fd5b6100646100a7565b6040516100719190610158565b60405180910390f35b6000545b604051908152602001610071565b610094610135565b005b61007e60025481565b61006461014b565b600180546100b4906101a6565b80601f01602080910402602001604051908101604052809291908181526020018280546100e0906101a6565b801561012d5780601f106101025761010080835404028352916020019161012d565b820191906000526020600020905b81548152906001019060200180831161011057829003601f168201915b505050505081565b600080549080610144836101e0565b9190505550565b600380546100b4906101a6565b600060208083528351808285015260005b8181101561018557858101830151858201604001528201610169565b506000604082860101526040601f19601f8301168501019250505092915050565b600181811c908216806101ba57607f821691505b6020821081036101da57634e487b7160e01b600052602260045260246000fd5b50919050565b60006001820161020057634e487b7160e01b600052601160045260246000fd5b506001019056fea264697066735822122070f0857ebe4551fbb7137d45defd19bafeb289ffd312338cbe7668d13b06ab7264736f6c6343000811003360806040526000805534801561001457600080fd5b5060405161053f38038061053f8339810160408190526100339161011d565b600161003f848261022d565b50600261004c838261022d565b506003610059828261022d565b505050506102ec565b634e487b7160e01b600052604160045260246000fd5b600082601f83011261008957600080fd5b81516001600160401b03808211156100a3576100a3610062565b604051601f8301601f19908116603f011681019082821181831017156100cb576100cb610062565b816040528381526020925086838588010111156100e757600080fd5b600091505b8382101561010957858201830151818301840152908201906100ec565b600093810190920192909252949350505050565b60008060006060848603121561013257600080fd5b83516001600160401b038082111561014957600080fd5b61015587838801610078565b9450602086015191508082111561016b57600080fd5b61017787838801610078565b9350604086015191508082111561018d57600080fd5b5061019a86828701610078565b9150509250925092565b600181811c908216806101b857607f821691505b6020821081036101d857634e487b7160e01b600052602260045260246000fd5b50919050565b601f82111561022857600081815260208120601f850160051c810160208610156102055750805b601f850160051c820191505b8181101561022457828155600101610211565b5050505b505050565b81516001600160401b0381111561024657610246610062565b61025a8161025484546101a4565b846101de565b602080601f83116001811461028f57600084156102775750858301515b600019600386901b1c1916600185901b178555610224565b600085815260208120601f198616915b828110156102be5788860151825594840194600190910190840161029f565b50858210156102dc5787850151600019600388901b60f8161c191681555b5050505050600190811b01905550565b610244806102fb6000396000f3fe608060405234801561001057600080fd5b50600436106100575760003560e01c80630d15fd771461005c578063632a9a5214610072578063675892ad1461007c5780639845d34a14610091578063bc7b35b214610099575b600080fd5b6000546040519081526020015b60405180910390f35b61007a6100a1565b005b6100846100b7565b604051610069919061015f565b610084610145565b610084610152565b6000805490806100b0836101ad565b9190505550565b600280546100c4906101d4565b80601f01602080910402602001604051908101604052809291908181526020018280546100f0906101d4565b801561013d5780601f106101125761010080835404028352916020019161013d565b820191906000526020600020905b81548152906001019060200180831161012057829003601f168201915b505050505081565b600380546100c4906101d4565b600180546100c4906101d4565b600060208083528351808285015260005b8181101561018c57858101830151858201604001528201610170565b506000604082860101526040601f19601f8301168501019250505092915050565b6000600182016101cd57634e487b7160e01b600052601160045260246000fd5b5060010190565b600181811c908216806101e857607f821691505b60208210810361020857634e487b7160e01b600052602260045260246000fd5b5091905056fea26469706673582212205da7d32ae5d66e4f981b688e209791eaa424c718c3fa18a1d00e411e94eab9f064736f6c6343000811003360806040526000805534801561001457600080fd5b5060405161054538038061054583398101604081905261003391610147565b818160016100418382610233565b50600261004e8282610233565b505060408051808201909152600f81526e4a756e74612044697265637469766160881b6020820152600391506100849082610233565b5050506102f2565b634e487b7160e01b600052604160045260246000fd5b600082601f8301126100b357600080fd5b81516001600160401b03808211156100cd576100cd61008c565b604051601f8301601f19908116603f011681019082821181831017156100f5576100f561008c565b8160405283815260209250868385880101111561011157600080fd5b600091505b838210156101335785820183015181830184015290820190610116565b600093810190920192909252949350505050565b6000806040838503121561015a57600080fd5b82516001600160401b038082111561017157600080fd5b61017d868387016100a2565b9350602085015191508082111561019357600080fd5b506101a0858286016100a2565b9150509250929050565b600181811c908216806101be57607f821691505b6020821081036101de57634e487b7160e01b600052602260045260246000fd5b50919050565b601f82111561022e57600081815260208120601f850160051c8101602086101561020b5750805b601f850160051c820191505b8181101561022a57828155600101610217565b5050505b505050565b81516001600160401b0381111561024c5761024c61008c565b6102608161025a84546101aa565b846101e4565b602080601f831160018114610295576000841561027d5750858301515b600019600386901b1c1916600185901b17855561022a565b600085815260208120601f198616915b828110156102c4578886015182559484019460019091019084016102a5565b50858210156102e25787850151600019600388901b60f8161c191681555b5050505050600190811b01905550565b610244806103016000396000f3fe608060405234801561001057600080fd5b50600436106100575760003560e01c80630d15fd771461005c57806328d7573514610072578063632a9a5214610087578063675892ad1461009157806388305c2314610099575b600080fd5b6000546040519081526020015b60405180910390f35b61007a6100a1565b604051610069919061015f565b61008f61012f565b005b61007a610145565b61007a610152565b600380546100ae906101ad565b80601f01602080910402602001604051908101604052809291908181526020018280546100da906101ad565b80156101275780601f106100fc57610100808354040283529160200191610127565b820191906000526020600020905b81548152906001019060200180831161010a57829003601f168201915b505050505081565b60008054908061013e836101e7565b9190505550565b600280546100ae906101ad565b600180546100ae906101ad565b600060208083528351808285015260005b8181101561018c57858101830151858201604001528201610170565b506000604082860101526040601f19601f8301168501019250505092915050565b600181811c908216806101c157607f821691505b6020821081036101e157634e487b7160e01b600052602260045260246000fd5b50919050565b60006001820161020757634e487b7160e01b600052601160045260246000fd5b506001019056fea264697066735822122052fce67eec0663e0faa4c7575d7e5c454ca9b62e91f7921f59679c5173bc223464736f6c6343000811003360806040523480156200001157600080fd5b5060405162000b9f38038062000b9f8339810160408190526200003491620002cd565b600083905581516200004e9060019060208501906200008f565b508051620000649060029060208401906200008f565b50506003805466ffffffffffffff19169055505060015460048190556006556002546005556200049c565b828054828255906000526020600020908101928215620000da579160200282015b82811115620000da5782518290620000c99082620003d0565b5091602001919060010190620000b0565b50620000e8929150620000ec565b5090565b80821115620000e85760006200010382826200010d565b50600101620000ec565b5080546200011b9062000341565b6000825580601f106200012c575050565b601f0160209004906000526020600020908101906200014c91906200014f565b50565b5b80821115620000e8576000815560010162000150565b634e487b7160e01b600052604160045260246000fd5b604051601f8201601f191681016001600160401b0381118282101715620001a757620001a762000166565b604052919050565b6000601f8381840112620001c257600080fd5b825160206001600160401b0380831115620001e157620001e162000166565b8260051b620001f28382016200017c565b93845286810183019383810190898611156200020d57600080fd5b84890192505b85831015620002c0578251848111156200022d5760008081fd5b8901603f81018b13620002405760008081fd5b858101518581111562000257576200025762000166565b6200026a818a01601f191688016200017c565b81815260408d81848601011115620002825760008081fd5b60005b83811015620002a2578481018201518382018b0152890162000285565b50506000918101880191909152835250918401919084019062000213565b9998505050505050505050565b600080600060608486031215620002e357600080fd5b835160208501519093506001600160401b03808211156200030357600080fd5b6200031187838801620001af565b935060408601519150808211156200032857600080fd5b506200033786828701620001af565b9150509250925092565b600181811c908216806200035657607f821691505b6020821081036200037757634e487b7160e01b600052602260045260246000fd5b50919050565b601f821115620003cb57600081815260208120601f850160051c81016020861015620003a65750805b601f850160051c820191505b81811015620003c757828155600101620003b2565b5050505b505050565b81516001600160401b03811115620003ec57620003ec62000166565b6200040481620003fd845462000341565b846200037d565b602080601f8311600181146200043c5760008415620004235750858301515b600019600386901b1c1916600185901b178555620003c7565b600085815260208120601f198616915b828110156200046d578886015182559484019460019091019084016200044c565b50858210156200048c5787850151600019600388901b60f8161c191681555b5050505050600190811b01905550565b6106f380620004ac6000396000f3fe608060405234801561001057600080fd5b506004361061012c5760003560e01c80636c6bd0f3116100ad578063a69799fc11610071578063a69799fc14610209578063ab9dbd0714610211578063bcd75c5314610219578063ec58caf814610221578063f79f21101461022957600080fd5b80636c6bd0f3146101d75780637da34244146101df57806391a10b01146101e757806391b14753146101ef57806397e8cff91461020157600080fd5b8063476abce6116100f4578063476abce6146101835780634a51ede3146101965780635ac952f2146101ab57806361a69587146101bd57806364debb8f146101c557600080fd5b8063159e7064146101315780632b4af7a31461014e5780633174149a1461016057806335fc1ece1461016a57806344cd1b2114610172575b600080fd5b60035460ff16155b60405190151581526020015b60405180910390f35b6003546301000000900460ff16610139565b610168610239565b005b610168610285565b60035462010000900460ff16610139565b600354640100000000900460ff16610139565b61019e6102b1565b60405161014591906105cc565b600354600160301b900460ff16610139565b61019e61038a565b600354600160281b900460ff16610139565b61016861045a565b6101686104a7565b6101686104d0565b6004545b604051908152602001610145565b61016861051d565b610139610543565b6000546101f3565b6005546101f3565b6006546101f3565b600354610100900460ff16610139565b600354600160281b900460ff161561025057600080fd5b600680549060006102608361065e565b90915550506006546003805465ff000000000019169115600160281b02919091179055565b6003546301000000900460ff161561029c57600080fd5b6003805463ff00000019166301000000179055565b60606002805480602002602001604051908101604052809291908181526020016000905b828210156103815783829060005260206000200180546102f490610683565b80601f016020809104026020016040519081016040528092919081815260200182805461032090610683565b801561036d5780601f106103425761010080835404028352916020019161036d565b820191906000526020600020905b81548152906001019060200180831161035057829003601f168201915b5050505050815260200190600101906102d5565b50505050905090565b60606001805480602002602001604051908101604052809291908181526020016000905b828210156103815783829060005260206000200180546103cd90610683565b80601f01602080910402602001604051908101604052809291908181526020018280546103f990610683565b80156104465780601f1061041b57610100808354040283529160200191610446565b820191906000526020600020905b81548152906001019060200180831161042957829003601f168201915b5050505050815260200190600101906103ae565b600354600160301b900460ff161561047157600080fd5b600580549060006104818361065e565b90915550506005546003805466ff00000000000019169115600160301b02919091179055565b60035462010000900460ff16156104bd57600080fd5b6003805462ff0000191662010000179055565b600354640100000000900460ff16156104e857600080fd5b600480549060006104f88361065e565b90915550506004546003805464ff000000001916911564010000000002919091179055565b600354610100900460ff161561053257600080fd5b6003805461ff001916610100179055565b600354600090640100000000900460ff16158061056a5750600354600160301b900460ff16155b8061057f5750600354600160281b900460ff16155b8061059457506003546301000000900460ff16155b806105a8575060035462010000900460ff16155b806105bb5750600354610100900460ff16155b156105c65750600090565b50600190565b6000602080830181845280855180835260408601915060408160051b87010192508387016000805b8381101561065057888603603f1901855282518051808852835b81811015610629578281018a01518982018b0152890161060e565b508781018901849052601f01601f19169096018701955093860193918601916001016105f4565b509398975050505050505050565b60008161067b57634e487b7160e01b600052601160045260246000fd5b506000190190565b600181811c9082168061069757607f821691505b6020821081036106b757634e487b7160e01b600052602260045260246000fd5b5091905056fea26469706673582212201addd6ce09df533c47698666d40c6a23fc1529374cf4e1fe3cfe8b410db5086964736f6c63430008110033a2646970667358221220a0aee1fd197ad7f837947297e0d511ae80b2dbd96508c3ac7256f6910df41d7b64736f6c63430008110033",
  "immutableReferences": {},
  "source": "// SPDX-Licence-Identifier: UNLICENSED\r\npragma solidity ^0.8.0;\r\nimport \"./Candidate.sol\";\r\nimport \"./StringCompare.sol\";\r\nimport \"./Votante.sol\";\r\n\r\n\r\ncontract Eleccion {\r\n    string nombre;\r\n    address owner;\r\n\r\n    uint[] public registroElectoral;\r\n\r\n    string[14] public escuelas = [\r\n    \"Ciencias Administrativas\",\r\n    \"Economia Empresarial\",\r\n    \"Contaduria Publica\",\r\n    \"Ingenieria Civil\",\r\n    \"Ingenieria Mecanica\",\r\n    \"Ingenieria de Produccion\",\r\n    \"Ingenieria Quimica\",\r\n    \"Ingenieria de Sistemas\",\r\n    \"Ingenieria Electrica\",\r\n    \"Educacion\",\r\n    \"Idiomas Modernos\",\r\n    \"Matematicas Industriales\",\r\n    \"Psicologia\",\r\n    \"Derecho y Estudios Liberales\"];\r\n\r\n    mapping (uint => Votante) public votantesRegistrados;\r\n    uint public numeroVotantesRegistrados;\r\n    mapping (uint => ConsejoAcademico) public candidatosConsejoAcademico;\r\n    uint[] public candidatosConsejoAcademicoKeys;\r\n    mapping (string => JuntaDirectivaFCE) public candidatosJuntaFCE;\r\n    string[] public candidatosJuntaFCEKeys;\r\n    mapping (string => CoordinacionFCE) public candidatosCoordinacionFCE;\r\n    string[] public candidatosCoordinacionFCEKeys;\r\n    mapping (string => mapping (string => CentroEstudiantes)) public candidatosCentroEstudiantes;\r\n    string[] public candidatosCentroEstudiantesKeys;\r\n    mapping (string => mapping (string => ConsejoEscuela)) public candidatosConsejoEscuela;\r\n    string[] public candidatosConsejoEscuelaKeys;\r\n    mapping (string => mapping (string => ConsejoFacultad)) public candidatosConsejoFacultad;\r\n    string[] public candidatosConsejoFacultadKeys;\r\n\r\n    constructor () {\r\n        owner = msg.sender;\r\n    }\r\n\r\n    function agregarIDARegistro(uint _id) public {\r\n        require(!checkRegistroElectoral(_id), \"Ya se encuentra en el registro electoral\");\r\n        registroElectoral.push(_id);\r\n    }\r\n\r\n    function checkRegistroElectoral(uint _id) public view returns (bool) {\r\n        for (uint i = 0; i < registroElectoral.length; i++) {\r\n            if (registroElectoral[i] == _id) {\r\n                return true;\r\n            }\r\n        }\r\n        return false;\r\n    }\r\n\r\n    function agregarVotante(uint _id, string[] memory _carreras, string[] memory _facultades) public {\r\n        require(checkRegistroElectoral(_id), \"No se encuentra en el registro electoral\");\r\n        votantesRegistrados[_id] = new Votante(_id, _carreras, _facultades);\r\n        numeroVotantesRegistrados++;\r\n    }\r\n\r\n    function getVotanteInfo(uint _id) public view returns (uint, string[] memory, string[] memory) {\r\n        return (votantesRegistrados[_id].getID(), votantesRegistrados[_id].getCarreras(), votantesRegistrados[_id].getFacultades());\r\n    }\r\n\r\n    function getVotanteCulminoVotacion(uint _id) public view returns (bool) {\r\n        return votantesRegistrados[_id].getVoted();\r\n    }\r\n\r\n    function getVotanteSeccionesVotadas(uint _id) public view returns (bool, bool, bool, bool, bool, bool) {\r\n        return (votantesRegistrados[_id].getVotedConsejoAcademico(), votantesRegistrados[_id].getVotedJuntaDirectivaFCE(), votantesRegistrados[_id].getVotedCoordinacionFCE(), votantesRegistrados[_id].getVotedCentroEstudiantes(), votantesRegistrados[_id].getVotedConsejoEscuela(), votantesRegistrados[_id].getVotedConsejoFacultad());\r\n    }\r\n\r\n    function getVotanteNumeroVotos(uint _id) public view returns (uint, uint, uint) {\r\n        return (votantesRegistrados[_id].getNumeroVotosCentroEst(), votantesRegistrados[_id].getNumeroVotosCF(), votantesRegistrados[_id].getNumeroVotosCE());\r\n    }\r\n\r\n    function agregarCandidatoConsejoAcademico(string memory _nombre, uint _id, string memory _carrera) public {\r\n        // TODO: Check if candidate already exists\r\n        candidatosConsejoAcademico[_id] = new ConsejoAcademico(_nombre, _id, _carrera);\r\n        candidatosConsejoAcademicoKeys.push(_id);\r\n    }\r\n\r\n    function getCandidatoConsejoAcademico(uint _id) public view returns (string memory, uint, string memory, uint) {\r\n        return (candidatosConsejoAcademico[_id].name(), candidatosConsejoAcademico[_id].id(), candidatosConsejoAcademico[_id].carrera(), candidatosConsejoAcademico[_id].totalVotes());\r\n    }\r\n\r\n    function voteCandidatoConsejoAcademico(uint _id, uint _voterID) public {\r\n        ConsejoAcademico candidato = candidatosConsejoAcademico[_id];\r\n        candidato.vote();\r\n        Votante votante = votantesRegistrados[_voterID];\r\n        votante.votarConsejoAcademico();\r\n    }\r\n\r\n\r\n    function agregarCandidatoJuntaDirectivaFCE(string memory _agrupacion, string memory _siglas) public {\r\n        // TODO: Check if candidate already exists\r\n        candidatosJuntaFCE[_siglas] = new JuntaDirectivaFCE(_agrupacion, _siglas);\r\n        candidatosJuntaFCEKeys.push(_siglas);\r\n    }\r\n\r\n    function getCandidatoJuntaDirectivaFCE(string memory _siglas) public view returns (string memory, string memory, uint) {\r\n        return (candidatosJuntaFCE[_siglas].agrupacion(), candidatosJuntaFCE[_siglas].siglas(), candidatosJuntaFCE[_siglas].totalVotes());\r\n    }\r\n\r\n    function voteCandidatoJuntaDirectivaFCE(string memory _siglas, uint _voterID) public {\r\n        JuntaDirectivaFCE candidato = candidatosJuntaFCE[_siglas];\r\n        candidato.vote();\r\n        Votante votante = votantesRegistrados[_voterID];\r\n        votante.votarJuntaDirectivaFCE();\r\n    }\r\n\r\n    function agregarCandidatoCoordinacionFCE(string memory _agrupacion, string memory _siglas) public {\r\n        candidatosCoordinacionFCE[_siglas] = new CoordinacionFCE(_agrupacion, _siglas);\r\n        candidatosCoordinacionFCEKeys.push(_siglas);\r\n    }\r\n\r\n    function getCandidatoCoordinacionFCE(string memory _siglas) public view returns (string memory, string memory, uint) {\r\n        return (candidatosCoordinacionFCE[_siglas].agrupacion(), candidatosCoordinacionFCE[_siglas].siglas(), candidatosCoordinacionFCE[_siglas].totalVotes());\r\n    }\r\n\r\n    function voteCandidatoCoordinacionFCE(string memory _siglas, uint _voterID) public {\r\n        CoordinacionFCE candidato = candidatosCoordinacionFCE[_siglas];\r\n        candidato.vote();\r\n        Votante votante = votantesRegistrados[_voterID];\r\n        votante.votarCoordinacionFCE();\r\n    }\r\n\r\n    function agregarCandidatoCentroEstudiantes(string memory _nombre, string memory _siglas, string memory _escuela) public {\r\n        candidatosCentroEstudiantes[_escuela][_siglas] = new CentroEstudiantes(_nombre, _siglas, _escuela);\r\n        candidatosCentroEstudiantesKeys.push(_siglas);\r\n    }\r\n\r\n    function getCandidatoCentroEstudiantes(string memory _siglas, string memory _escuela) public view returns (string memory, string memory, string memory, uint) {\r\n        return (candidatosCentroEstudiantes[_escuela][_siglas].nombre(), candidatosCentroEstudiantes[_escuela][_siglas].siglas(), candidatosCentroEstudiantes[_escuela][_siglas].escuela(), candidatosCentroEstudiantes[_escuela][_siglas].totalVotes());\r\n    }\r\n\r\n    function voteCandidatoCentroEstudiantes(string memory _siglas, string memory _escuela, uint _voterID) public {\r\n        CentroEstudiantes candidato = candidatosCentroEstudiantes[_escuela][_siglas];\r\n        candidato.vote();\r\n        Votante votante = votantesRegistrados[_voterID];\r\n        votante.votarCentroEstudiantes();\r\n    }\r\n\r\n    function agregarCandidatoConsejoEscuela(string memory _nombre, string memory _siglas, string memory _escuela) public {\r\n        candidatosConsejoEscuela[_escuela][_siglas] = new ConsejoEscuela(_nombre, _siglas, _escuela);\r\n        candidatosConsejoEscuelaKeys.push(_siglas);\r\n    }\r\n\r\n    function getCandidatoConsejoEscuela(string memory _siglas, string memory _escuela) public view returns (string memory, string memory, string memory, uint) {\r\n        return (candidatosConsejoEscuela[_escuela][_siglas].nombre(), candidatosConsejoEscuela[_escuela][_siglas].siglas(), candidatosConsejoEscuela[_escuela][_siglas].escuela(), candidatosConsejoEscuela[_escuela][_siglas].totalVotes());\r\n    }\r\n\r\n    function voteCandidatoConsejoEscuela(string memory _siglas, string memory _escuela, uint _voterID) public {\r\n        ConsejoEscuela candidato = candidatosConsejoEscuela[_escuela][_siglas];\r\n        candidato.vote();\r\n        Votante votante = votantesRegistrados[_voterID];\r\n        votante.votarConsejoEscuela();\r\n    }\r\n\r\n    function agregarCandidatoConsejoFacultad(string memory _nombre, string memory _siglas, string memory _facultad) public {\r\n        candidatosConsejoFacultad[_facultad][_siglas] = new ConsejoFacultad(_nombre, _siglas, _facultad);\r\n        candidatosConsejoFacultadKeys.push(_siglas);\r\n    }\r\n\r\n    function getCandidatoConsejoFacultad(string memory _siglas, string memory _facultad) public view returns (string memory, string memory, string memory, uint) {\r\n        return (candidatosConsejoFacultad[_facultad][_siglas].nombre(), candidatosConsejoFacultad[_facultad][_siglas].siglas(), candidatosConsejoFacultad[_facultad][_siglas].facultad(), candidatosConsejoFacultad[_facultad][_siglas].totalVotes());\r\n    }\r\n\r\n    function voteCandidatoConsejoFacultad(string memory _siglas, string memory _facultad, uint _voterID) public {\r\n        ConsejoFacultad candidato = candidatosConsejoFacultad[_facultad][_siglas];\r\n        candidato.vote();\r\n        Votante votante = votantesRegistrados[_voterID];\r\n        votante.votarConsejoFacultad();\r\n    }\r\n\r\n    function getCandidatosJuntaFCELength() public view returns (uint) {\r\n        return candidatosJuntaFCEKeys.length;\r\n    }\r\n\r\n    function getCandidatosCoordinacionFCELength() public view returns (uint) {\r\n        return candidatosCoordinacionFCEKeys.length;\r\n    }\r\n\r\n    function getCandidatosCentroEstudiantesLength() public view returns (uint) {\r\n        return candidatosCentroEstudiantesKeys.length;\r\n    }\r\n\r\n    function getCandidatosConsejoEscuelaLength() public view returns (uint) {\r\n        return candidatosConsejoEscuelaKeys.length;\r\n    }\r\n\r\n    function getCandidatosConsejoFacultadLength() public view returns (uint) {\r\n        return candidatosConsejoFacultadKeys.length;\r\n    }\r\n\r\n    function getCandidatosConsejoAcademicoLength() public view returns (uint) {\r\n        return candidatosConsejoAcademicoKeys.length;\r\n    }\r\n\r\n    function getEscuelasLength() public view returns (uint) {\r\n        return escuelas.length;\r\n    }\r\n\r\n}",
  "sourcePath": "C:\\Users\\Jose Rubin\\Desktop\\Chainge\\chainge_voting_dapp\\smart_contract\\contracts\\Eleccion.sol",
  "compiler": {
    "name": "solc",
    "version": "0.8.17+commit.8df45f5f.Emscripten.clang"
  },
  "schemaVersion": "3.4.10",
  "updatedAt": "2022-11-23T09:50:25.522Z",
  "networkType": "ethereum",
  "devdoc": {
    "kind": "dev",
    "methods": {},
    "version": 1
  },
  "userdoc": {
    "kind": "user",
    "methods": {},
    "version": 1
  }
}