{
  "contractName": "Election",
  "abi": [
    {
      "inputs": [],
      "stateMutability": "nonpayable",
      "type": "constructor"
    },
    {
      "anonymous": false,
      "inputs": [
        {
          "indexed": false,
          "internalType": "uint256",
          "name": "candidateId",
          "type": "uint256"
        }
      ],
      "name": "CandidateRegisteredEvent",
      "type": "event"
    },
    {
      "anonymous": false,
      "inputs": [
        {
          "indexed": false,
          "internalType": "address",
          "name": "voter",
          "type": "address"
        },
        {
          "indexed": false,
          "internalType": "uint256",
          "name": "proposalId",
          "type": "uint256"
        }
      ],
      "name": "VotedEvent",
      "type": "event"
    },
    {
      "anonymous": false,
      "inputs": [
        {
          "indexed": false,
          "internalType": "address",
          "name": "voterAddress",
          "type": "address"
        }
      ],
      "name": "VoterRegisteredEvent",
      "type": "event"
    },
    {
      "anonymous": false,
      "inputs": [],
      "name": "VotesTalliedEvent",
      "type": "event"
    },
    {
      "anonymous": false,
      "inputs": [],
      "name": "VotingSessionEndedEvent",
      "type": "event"
    },
    {
      "anonymous": false,
      "inputs": [],
      "name": "VotingSessionStartedEvent",
      "type": "event"
    },
    {
      "anonymous": false,
      "inputs": [
        {
          "indexed": false,
          "internalType": "enum Election.WorkflowStatus",
          "name": "previousStatus",
          "type": "uint8"
        },
        {
          "indexed": false,
          "internalType": "enum Election.WorkflowStatus",
          "name": "newStatus",
          "type": "uint8"
        }
      ],
      "name": "WorkflowStatusChangeEvent",
      "type": "event"
    },
    {
      "inputs": [
        {
          "internalType": "uint256",
          "name": "",
          "type": "uint256"
        }
      ],
      "name": "candidates",
      "outputs": [
        {
          "internalType": "string",
          "name": "name",
          "type": "string"
        },
        {
          "internalType": "string",
          "name": "party",
          "type": "string"
        },
        {
          "internalType": "string",
          "name": "degree",
          "type": "string"
        },
        {
          "internalType": "uint256",
          "name": "voteCount",
          "type": "uint256"
        },
        {
          "internalType": "uint256",
          "name": "id",
          "type": "uint256"
        }
      ],
      "stateMutability": "view",
      "type": "function",
      "constant": true
    },
    {
      "inputs": [],
      "name": "description",
      "outputs": [
        {
          "internalType": "string",
          "name": "",
          "type": "string"
        }
      ],
      "stateMutability": "view",
      "type": "function",
      "constant": true
    },
    {
      "inputs": [],
      "name": "name",
      "outputs": [
        {
          "internalType": "string",
          "name": "",
          "type": "string"
        }
      ],
      "stateMutability": "view",
      "type": "function",
      "constant": true
    },
    {
      "inputs": [],
      "name": "owner",
      "outputs": [
        {
          "internalType": "address",
          "name": "",
          "type": "address"
        }
      ],
      "stateMutability": "view",
      "type": "function",
      "constant": true
    },
    {
      "inputs": [
        {
          "internalType": "address",
          "name": "",
          "type": "address"
        }
      ],
      "name": "voters",
      "outputs": [
        {
          "internalType": "bool",
          "name": "isRegistered",
          "type": "bool"
        },
        {
          "internalType": "bool",
          "name": "hasVoted",
          "type": "bool"
        },
        {
          "internalType": "uint256",
          "name": "votedCandidateId",
          "type": "uint256"
        }
      ],
      "stateMutability": "view",
      "type": "function",
      "constant": true
    },
    {
      "inputs": [],
      "name": "workflowStatus",
      "outputs": [
        {
          "internalType": "enum Election.WorkflowStatus",
          "name": "",
          "type": "uint8"
        }
      ],
      "stateMutability": "view",
      "type": "function",
      "constant": true
    },
    {
      "inputs": [
        {
          "internalType": "address",
          "name": "_voterAddress",
          "type": "address"
        }
      ],
      "name": "registerVoter",
      "outputs": [],
      "stateMutability": "nonpayable",
      "type": "function"
    },
    {
      "inputs": [
        {
          "internalType": "string",
          "name": "_name",
          "type": "string"
        },
        {
          "internalType": "string",
          "name": "_party",
          "type": "string"
        },
        {
          "internalType": "string",
          "name": "_degree",
          "type": "string"
        }
      ],
      "name": "registerCandidate",
      "outputs": [],
      "stateMutability": "nonpayable",
      "type": "function"
    },
    {
      "inputs": [
        {
          "internalType": "uint256",
          "name": "candidateId",
          "type": "uint256"
        }
      ],
      "name": "vote",
      "outputs": [],
      "stateMutability": "nonpayable",
      "type": "function"
    },
    {
      "inputs": [
        {
          "internalType": "uint256",
          "name": "candidateId",
          "type": "uint256"
        }
      ],
      "name": "getCandidateById",
      "outputs": [
        {
          "internalType": "string",
          "name": "name",
          "type": "string"
        },
        {
          "internalType": "string",
          "name": "party",
          "type": "string"
        },
        {
          "internalType": "string",
          "name": "degree",
          "type": "string"
        },
        {
          "internalType": "uint256",
          "name": "voteCount",
          "type": "uint256"
        }
      ],
      "stateMutability": "view",
      "type": "function",
      "constant": true
    },
    {
      "inputs": [
        {
          "internalType": "string",
          "name": "Sname",
          "type": "string"
        }
      ],
      "name": "getCandidateByName",
      "outputs": [
        {
          "internalType": "string",
          "name": "name",
          "type": "string"
        },
        {
          "internalType": "string",
          "name": "party",
          "type": "string"
        },
        {
          "internalType": "string",
          "name": "degree",
          "type": "string"
        },
        {
          "internalType": "uint256",
          "name": "voteCount",
          "type": "uint256"
        }
      ],
      "stateMutability": "view",
      "type": "function",
      "constant": true
    },
    {
      "inputs": [],
      "name": "getWinner",
      "outputs": [
        {
          "components": [
            {
              "internalType": "string",
              "name": "name",
              "type": "string"
            },
            {
              "internalType": "uint256",
              "name": "voteCount",
              "type": "uint256"
            }
          ],
          "internalType": "struct Election.Result",
          "name": "",
          "type": "tuple"
        }
      ],
      "stateMutability": "view",
      "type": "function",
      "constant": true
    },
    {
      "inputs": [],
      "name": "getTotalVotes",
      "outputs": [
        {
          "internalType": "uint256",
          "name": "",
          "type": "uint256"
        }
      ],
      "stateMutability": "view",
      "type": "function",
      "constant": true
    },
    {
      "inputs": [],
      "name": "getPercentage",
      "outputs": [
        {
          "internalType": "uint256[]",
          "name": "",
          "type": "uint256[]"
        }
      ],
      "stateMutability": "view",
      "type": "function",
      "constant": true
    }
  ],
  "bytecode": "0x608060405234801561001057600080fd5b50600280546001600160a01b031916331790556005805460ff191690556114ae8061003c6000396000f3fe608060405234801561001057600080fd5b50600436106100ea5760003560e01c80637def7fe11161008c57806395f850221161006657806395f85022146101ec5780639a0e7d66146101ff578063a1edffa214610215578063a3ec138d1461022f57600080fd5b80637def7fe1146101895780638da5cb5b146101ac5780638e7ea5b2146101d757600080fd5b80633477ee2e116100c85780633477ee2e1461013757806335c3c8761461015b57806338db6dd31461016e5780637284e4161461018157600080fd5b80630121b93f146100ef57806306fdde03146101045780630b2accb214610122575b600080fd5b6101026100fd366004610e6c565b610280565b005b61010c6103fa565b6040516101199190610ed5565b60405180910390f35b61012a610488565b6040516101199190610eef565b61014a610145366004610e6c565b610560565b604051610119959493929190610f33565b610102610169366004611024565b61073e565b61010261017c3660046110ac565b61085a565b61010c610948565b61019c6101973660046110d5565b610955565b6040516101199493929190611112565b6002546101bf906001600160a01b031681565b6040516001600160a01b039091168152602001610119565b6101df610c3b565b604051610119919061115d565b61019c6101fa366004610e6c565b610db1565b610207610e13565b604051908152602001610119565b6005546102229060ff1681565b604051610119919061118f565b61026361023d3660046110ac565b6003602052600090815260409020805460019091015460ff808316926101009004169083565b604080519315158452911515602084015290820152606001610119565b3360009081526003602052604090205460ff166102fb5760405162461bcd60e51b815260206004820152602e60248201527f4f6e6c79207265676973746572656420766f746572732063616e2063616c6c2060448201526d3a3434b990333ab731ba34b7b71760911b60648201526084015b60405180910390fd5b33600090815260036020526040902054610100900460ff16156103605760405162461bcd60e51b815260206004820152601c60248201527f7468652063616c6c65722068617320616c726561647920766f7465640000000060448201526064016102f2565b336000908152600360205260409020805461ff00191661010017815560019081018290556004805483908110610398576103986111b7565b906000526020600020906005020160030160008282546103b891906111e3565b909155505060408051338152602081018390527f0902475a854b82199b4f5d6b81327ec4c4ec077ce0356a106ddc2748c5285ed391015b60405180910390a150565b60008054610407906111fc565b80601f0160208091040260200160405190810160405280929190818152602001828054610433906111fc565b80156104805780601f1061045557610100808354040283529160200191610480565b820191906000526020600020905b81548152906001019060200180831161046357829003601f168201915b505050505081565b60606000610494610e13565b60045490915060009067ffffffffffffffff8111156104b5576104b5610f81565b6040519080825280602002602001820160405280156104de578160200160208202803683370190505b50905060005b600454811015610559578260048281548110610502576105026111b7565b90600052602060002090600502016003015460646105209190611230565b61052a9190611247565b82828151811061053c5761053c6111b7565b60209081029190910101528061055181611269565b9150506104e4565b5092915050565b6004818154811061057057600080fd5b9060005260206000209060050201600091509050806000018054610593906111fc565b80601f01602080910402602001604051908101604052809291908181526020018280546105bf906111fc565b801561060c5780601f106105e15761010080835404028352916020019161060c565b820191906000526020600020905b8154815290600101906020018083116105ef57829003601f168201915b505050505090806001018054610621906111fc565b80601f016020809104026020016040519081016040528092919081815260200182805461064d906111fc565b801561069a5780601f1061066f5761010080835404028352916020019161069a565b820191906000526020600020905b81548152906001019060200180831161067d57829003601f168201915b5050505050908060020180546106af906111fc565b80601f01602080910402602001604051908101604052809291908181526020018280546106db906111fc565b80156107285780601f106106fd57610100808354040283529160200191610728565b820191906000526020600020905b81548152906001019060200180831161070b57829003601f168201915b5050505050908060030154908060040154905085565b6002546001600160a01b031633146107685760405162461bcd60e51b81526004016102f290611282565b6040805160a0810182528481526020810184905290810182905260006060820181905260048054608084018190526001810182559152815160059091027f8a35acfbc15ff81a39ae7d344fd709f28e8600b4aa8c65c6b64bfe7fe36bd19b019081906107d49082611313565b50602082015160018201906107e99082611313565b50604082015160028201906107fe9082611313565b5060608201516003820155608090910151600491820155547ff23ce42eb3d2878c26ab610ef7d3edf80e07cfb6568d4028550637f27c73db4190610844906001906113d3565b60405190815260200160405180910390a1505050565b6002546001600160a01b031633146108845760405162461bcd60e51b81526004016102f290611282565b6001600160a01b03811660009081526003602052604090205460ff16156108ed5760405162461bcd60e51b815260206004820152601f60248201527f74686520766f74657220697320616c726561647920726567697374657265640060448201526064016102f2565b6001600160a01b0381166000818152600360209081526040808320805461ffff191660019081178255019290925590519182527f42b360c89ba65a59ac7fec024a7bbb2c21d84b5abe5b5178ba0d7e34653a813091016103ef565b60018054610407906111fc565b606080806000805b600454811015610c32578560405160200161097891906113e6565b60405160208183030381529060405280519060200120600482815481106109a1576109a16111b7565b90600052602060002090600502016000016040516020016109c29190611402565b6040516020818303038152906040528051906020012003610c2057600481815481106109f0576109f06111b7565b906000526020600020906005020160000160048281548110610a1457610a146111b7565b906000526020600020906005020160010160048381548110610a3857610a386111b7565b906000526020600020906005020160020160048481548110610a5c57610a5c6111b7565b906000526020600020906005020160030154838054610a7a906111fc565b80601f0160208091040260200160405190810160405280929190818152602001828054610aa6906111fc565b8015610af35780601f10610ac857610100808354040283529160200191610af3565b820191906000526020600020905b815481529060010190602001808311610ad657829003601f168201915b50505050509350828054610b06906111fc565b80601f0160208091040260200160405190810160405280929190818152602001828054610b32906111fc565b8015610b7f5780601f10610b5457610100808354040283529160200191610b7f565b820191906000526020600020905b815481529060010190602001808311610b6257829003601f168201915b50505050509250818054610b92906111fc565b80601f0160208091040260200160405190810160405280929190818152602001828054610bbe906111fc565b8015610c0b5780601f10610be057610100808354040283529160200191610c0b565b820191906000526020600020905b815481529060010190602001808311610bee57829003601f168201915b50505050509150945094509450945050610c34565b80610c2a81611269565b91505061095d565b505b9193509193565b604080518082019091526060815260006020820152600060015b600454811015610cc55760048281548110610c7257610c726111b7565b90600052602060002090600502016003015460048281548110610c9757610c976111b7565b9060005260206000209060050201600301541115610cb3578091505b80610cbd81611269565b915050610c55565b50604051806040016040528060048381548110610ce457610ce46111b7565b90600052602060002090600502016000018054610d00906111fc565b80601f0160208091040260200160405190810160405280929190818152602001828054610d2c906111fc565b8015610d795780601f10610d4e57610100808354040283529160200191610d79565b820191906000526020600020905b815481529060010190602001808311610d5c57829003601f168201915b5050505050815260200160048381548110610d9657610d966111b7565b90600052602060002090600502016003015481525091505090565b606080806000805b600454811015610c32578560048281548110610dd757610dd76111b7565b90600052602060002090600502016004015403610e0157600481815481106109f0576109f06111b7565b80610e0b81611269565b915050610db9565b600080805b600454811015610e665760048181548110610e3557610e356111b7565b90600052602060002090600502016003015482610e5291906111e3565b915080610e5e81611269565b915050610e18565b50919050565b600060208284031215610e7e57600080fd5b5035919050565b60005b83811015610ea0578181015183820152602001610e88565b50506000910152565b60008151808452610ec1816020860160208601610e85565b601f01601f19169290920160200192915050565b602081526000610ee86020830184610ea9565b9392505050565b6020808252825182820181905260009190848201906040850190845b81811015610f2757835183529284019291840191600101610f0b565b50909695505050505050565b60a081526000610f4660a0830188610ea9565b8281036020840152610f588188610ea9565b90508281036040840152610f6c8187610ea9565b60608401959095525050608001529392505050565b634e487b7160e01b600052604160045260246000fd5b600082601f830112610fa857600080fd5b813567ffffffffffffffff80821115610fc357610fc3610f81565b604051601f8301601f19908116603f01168101908282118183101715610feb57610feb610f81565b8160405283815286602085880101111561100457600080fd5b836020870160208301376000602085830101528094505050505092915050565b60008060006060848603121561103957600080fd5b833567ffffffffffffffff8082111561105157600080fd5b61105d87838801610f97565b9450602086013591508082111561107357600080fd5b61107f87838801610f97565b9350604086013591508082111561109557600080fd5b506110a286828701610f97565b9150509250925092565b6000602082840312156110be57600080fd5b81356001600160a01b0381168114610ee857600080fd5b6000602082840312156110e757600080fd5b813567ffffffffffffffff8111156110fe57600080fd5b61110a84828501610f97565b949350505050565b6080815260006111256080830187610ea9565b82810360208401526111378187610ea9565b9050828103604084015261114b8186610ea9565b91505082606083015295945050505050565b6020815260008251604060208401526111796060840182610ea9565b9050602084015160408401528091505092915050565b60208101600483106111b157634e487b7160e01b600052602160045260246000fd5b91905290565b634e487b7160e01b600052603260045260246000fd5b634e487b7160e01b600052601160045260246000fd5b808201808211156111f6576111f66111cd565b92915050565b600181811c9082168061121057607f821691505b602082108103610e6657634e487b7160e01b600052602260045260246000fd5b80820281158282048414176111f6576111f66111cd565b60008261126457634e487b7160e01b600052601260045260246000fd5b500490565b60006001820161127b5761127b6111cd565b5060010190565b60208082526022908201527f4f6e6c79206f776e65722063616e2063616c6c20746869732066756e6374696f604082015261371760f11b606082015260800190565b601f82111561130e57600081815260208120601f850160051c810160208610156112eb5750805b601f850160051c820191505b8181101561130a578281556001016112f7565b5050505b505050565b815167ffffffffffffffff81111561132d5761132d610f81565b6113418161133b84546111fc565b846112c4565b602080601f831160018114611376576000841561135e5750858301515b600019600386901b1c1916600185901b17855561130a565b600085815260208120601f198616915b828110156113a557888601518255948401946001909101908401611386565b50858210156113c35787850151600019600388901b60f8161c191681555b5050505050600190811b01905550565b818103818111156111f6576111f66111cd565b600082516113f8818460208701610e85565b9190910192915050565b6000808354611410816111fc565b60018281168015611428576001811461143d5761146c565b60ff198416875282151583028701945061146c565b8760005260208060002060005b858110156114635781548a82015290840190820161144a565b50505082870194505b5092969550505050505056fea2646970667358221220664bafef96d681dd9e0d47a2a74ff88db63da737e9f4c54b2d58618defee939764736f6c63430008110033",
  "immutableReferences": {},
  "source": "pragma solidity ^0.8.0;\r\n// SPDX-License-Identifier: UNLICENSED\r\n\r\ncontract Election {\r\n    // Election details\r\n\r\n    string public name;\r\n    string public description;\r\n\r\n    address public owner;\r\n\r\n    struct Candidate {\r\n        string name;\r\n        string party;\r\n        string degree;\r\n        uint256 voteCount;\r\n        uint id;\r\n    }\r\n\r\n    // struct Party {\r\n    //     string name;\r\n    //     uint256 voteCount;\r\n    //     uint id;\r\n    // }\r\n\r\n    struct Voter {\r\n        bool isRegistered;\r\n        bool hasVoted;\r\n        uint256 votedCandidateId;\r\n    }\r\n\r\n    struct Result {\r\n        // uint256 candidateId;\r\n        // Candidate candidate;\r\n        string name;\r\n        uint256 voteCount;\r\n    }\r\n\r\n    mapping(address => Voter) public voters;\r\n    Candidate[] public candidates;\r\n    WorkflowStatus public workflowStatus;\r\n\r\n    // Para llevar control de cada estado\r\n\r\n    enum WorkflowStatus {\r\n        RegisteringVoters,\r\n        VotingSessionStarted,\r\n        VotingSessionEnded,\r\n        VotesTallied\r\n    }\r\n\r\n    constructor() public {\r\n        owner = msg.sender;\r\n        workflowStatus = WorkflowStatus.RegisteringVoters;\r\n    }\r\n\r\n    modifier onlyOwner() {\r\n        require(msg.sender == owner, \"Only owner can call this function.\");\r\n        _;\r\n    }\r\n\r\n    modifier onlyRegisteredVoter() {\r\n        require(\r\n            voters[msg.sender].isRegistered,\r\n            \"Only registered voters can call this function.\"\r\n        );\r\n        _;\r\n    }\r\n\r\n    modifier onlyDuringVotingSession() {\r\n        require(\r\n            workflowStatus == WorkflowStatus.VotingSessionStarted,\r\n            \"this function can be called only during voting sessions.\"\r\n        );\r\n        _;\r\n    }\r\n\r\n    event VoterRegisteredEvent(address voterAddress);\r\n    event CandidateRegisteredEvent(uint256 candidateId);\r\n    event VotingSessionStartedEvent();\r\n    event VotingSessionEndedEvent();\r\n    event VotedEvent(address voter, uint256 proposalId);\r\n    event VotesTalliedEvent();\r\n\r\n    event WorkflowStatusChangeEvent(\r\n        WorkflowStatus previousStatus,\r\n        WorkflowStatus newStatus\r\n    );\r\n\r\n    function registerVoter(address _voterAddress) public onlyOwner {\r\n        require(\r\n            !voters[_voterAddress].isRegistered,\r\n            \"the voter is already registered\"\r\n        );\r\n\r\n        voters[_voterAddress].isRegistered = true;\r\n        voters[_voterAddress].hasVoted = false;\r\n        voters[_voterAddress].votedCandidateId = 0;\r\n\r\n        emit VoterRegisteredEvent(_voterAddress);\r\n    }\r\n\r\n    function registerCandidate(string memory _name, string memory _party, string memory _degree) public onlyOwner {\r\n        candidates.push(\r\n            Candidate({name: _name, party: _party, degree: _degree, voteCount: 0, id: candidates.length})\r\n        );\r\n\r\n        emit CandidateRegisteredEvent(candidates.length - 1);\r\n    }\r\n\r\n    function vote(uint256 candidateId)\r\n        public\r\n        onlyRegisteredVoter\r\n    {\r\n        require(!voters[msg.sender].hasVoted, \"the caller has already voted\");\r\n\r\n        voters[msg.sender].hasVoted = true;\r\n        voters[msg.sender].votedCandidateId = candidateId;\r\n\r\n        candidates[candidateId].voteCount += 1;\r\n\r\n        emit VotedEvent(msg.sender, candidateId);\r\n    }\r\n\r\n    function getCandidateById(uint256 candidateId)\r\n        public\r\n        view\r\n        returns (\r\n            string memory name,\r\n            string memory party,\r\n            string memory degree,\r\n            uint256 voteCount\r\n        )\r\n    {\r\n        for (uint i = 0; i < candidates.length; i++) {\r\n            if (candidates[i].id == candidateId) {\r\n                return (candidates[i].name, candidates[i].party, candidates[i].degree, candidates[i].voteCount);\r\n            }\r\n        }\r\n    }\r\n\r\n    function getCandidateByName(string memory Sname)\r\n        public\r\n        view\r\n        returns (\r\n            string memory name,\r\n            string memory party,\r\n            string memory degree,\r\n            uint256 voteCount\r\n        )\r\n    {\r\n        for (uint i = 0; i < candidates.length; i++) {\r\n            if (keccak256(abi.encodePacked(candidates[i].name)) == keccak256(abi.encodePacked(Sname))) {\r\n                return (candidates[i].name, candidates[i].party, candidates[i].degree, candidates[i].voteCount);\r\n            }\r\n        }\r\n    }\r\n    \r\n    // function getCandidatesByParty(string memory Sparty)\r\n    //     public\r\n    //     view\r\n    //     returns (\r\n    //         uint[] memory partyIds\r\n    //     )\r\n    // {\r\n    //     for (uint i = 0; i < candidates.length; i++) {\r\n    //         if (keccak256(abi.encodePacked(candidates[i].party)) == keccak256(abi.encodePacked(Sparty))) {\r\n    //             partyIds.push(candidates[i].id);\r\n    //         }\r\n    //     }\r\n    //     return partyIds;\r\n    // }\r\n\r\n    function getWinner() public view returns (Result memory) {\r\n        uint256 winnerIndex = 0;\r\n        for (uint256 i = 1; i < candidates.length; i++) {\r\n            if (candidates[i].voteCount > candidates[winnerIndex].voteCount) {\r\n                winnerIndex = i;\r\n            }\r\n        }\r\n        return Result(candidates[winnerIndex].name, candidates[winnerIndex].voteCount);\r\n    }\r\n\r\n    function getTotalVotes() public view returns (uint256) {\r\n        uint256 totalVotes = 0;\r\n        for (uint256 i = 0; i < candidates.length; i++) {\r\n            totalVotes += candidates[i].voteCount;\r\n        }\r\n        return totalVotes;\r\n    }\r\n\r\n    function getPercentage() public view returns (uint256[] memory) {\r\n        uint256 totalVotes = getTotalVotes();\r\n        uint256[] memory percentage = new uint256[](candidates.length);\r\n        for (uint256 i = 0; i < candidates.length; i++) {\r\n            percentage[i] = ((candidates[i].voteCount * 100) / totalVotes);\r\n        }\r\n        return percentage;\r\n    }\r\n}\r\n",
  "sourcePath": "D:\\Windows Folders\\Documents\\Uni\\Software\\voting-dapp\\smart_contract\\contracts\\Election.sol",
  "compiler": {
    "name": "solc",
    "version": "0.8.17+commit.8df45f5f.Emscripten.clang"
  },
  "schemaVersion": "3.4.10",
  "updatedAt": "2022-10-24T19:45:09.799Z",
  "networkType": "ethereum",
  "devdoc": {
    "kind": "dev",
    "methods": {},
    "version": 1
  },
  "userdoc": {
    "kind": "user",
    "methods": {},
    "version": 1
  }
}