{
  "contractName": "Election",
  "abi": [
    {
      "inputs": [],
      "stateMutability": "nonpayable",
      "type": "constructor"
    },
    {
      "inputs": [
        {
          "internalType": "uint256",
          "name": "",
          "type": "uint256"
        }
      ],
      "name": "agrupacionesRegistradas",
      "outputs": [
        {
          "internalType": "string",
          "name": "name",
          "type": "string"
        },
        {
          "internalType": "string",
          "name": "siglas",
          "type": "string"
        }
      ],
      "stateMutability": "view",
      "type": "function"
    },
    {
      "inputs": [
        {
          "internalType": "string",
          "name": "",
          "type": "string"
        },
        {
          "internalType": "uint256",
          "name": "",
          "type": "uint256"
        }
      ],
      "name": "candidatosCentroEstudiante",
      "outputs": [
        {
          "internalType": "string",
          "name": "nombreAgrupacion",
          "type": "string"
        },
        {
          "internalType": "string",
          "name": "siglasAgrupacion",
          "type": "string"
        },
        {
          "internalType": "uint256",
          "name": "voteCount",
          "type": "uint256"
        }
      ],
      "stateMutability": "view",
      "type": "function"
    },
    {
      "inputs": [
        {
          "internalType": "uint256",
          "name": "",
          "type": "uint256"
        }
      ],
      "name": "candidatosConsejoAcademico",
      "outputs": [
        {
          "internalType": "string",
          "name": "nombre",
          "type": "string"
        },
        {
          "internalType": "uint256",
          "name": "id",
          "type": "uint256"
        },
        {
          "internalType": "string",
          "name": "degree",
          "type": "string"
        },
        {
          "internalType": "uint256",
          "name": "voteCount",
          "type": "uint256"
        }
      ],
      "stateMutability": "view",
      "type": "function"
    },
    {
      "inputs": [
        {
          "internalType": "string",
          "name": "",
          "type": "string"
        },
        {
          "internalType": "uint256",
          "name": "",
          "type": "uint256"
        }
      ],
      "name": "candidatosConsejoEscuela",
      "outputs": [
        {
          "internalType": "string",
          "name": "nombreAgrupacion",
          "type": "string"
        },
        {
          "internalType": "string",
          "name": "siglasAgrupacion",
          "type": "string"
        },
        {
          "internalType": "uint256",
          "name": "voteCount",
          "type": "uint256"
        }
      ],
      "stateMutability": "view",
      "type": "function"
    },
    {
      "inputs": [
        {
          "internalType": "string",
          "name": "",
          "type": "string"
        },
        {
          "internalType": "uint256",
          "name": "",
          "type": "uint256"
        }
      ],
      "name": "candidatosConsejoFacultad",
      "outputs": [
        {
          "internalType": "string",
          "name": "nombreAgrupacion",
          "type": "string"
        },
        {
          "internalType": "string",
          "name": "siglasAgrupacion",
          "type": "string"
        },
        {
          "internalType": "uint256",
          "name": "voteCount",
          "type": "uint256"
        }
      ],
      "stateMutability": "view",
      "type": "function"
    },
    {
      "inputs": [
        {
          "internalType": "uint256",
          "name": "",
          "type": "uint256"
        }
      ],
      "name": "candidatosCoordinacionFCE",
      "outputs": [
        {
          "internalType": "string",
          "name": "nombreAgrupacion",
          "type": "string"
        },
        {
          "internalType": "string",
          "name": "siglasAgrupacion",
          "type": "string"
        },
        {
          "internalType": "uint256",
          "name": "voteCount",
          "type": "uint256"
        }
      ],
      "stateMutability": "view",
      "type": "function"
    },
    {
      "inputs": [
        {
          "internalType": "uint256",
          "name": "",
          "type": "uint256"
        }
      ],
      "name": "candidatosJuntaDirectivaFCE",
      "outputs": [
        {
          "internalType": "string",
          "name": "nombreAgrupacion",
          "type": "string"
        },
        {
          "internalType": "string",
          "name": "siglasAgrupacion",
          "type": "string"
        },
        {
          "internalType": "uint256",
          "name": "voteCount",
          "type": "uint256"
        }
      ],
      "stateMutability": "view",
      "type": "function"
    },
    {
      "inputs": [],
      "name": "description",
      "outputs": [
        {
          "internalType": "string",
          "name": "",
          "type": "string"
        }
      ],
      "stateMutability": "view",
      "type": "function"
    },
    {
      "inputs": [],
      "name": "name",
      "outputs": [
        {
          "internalType": "string",
          "name": "",
          "type": "string"
        }
      ],
      "stateMutability": "view",
      "type": "function"
    },
    {
      "inputs": [],
      "name": "owner",
      "outputs": [
        {
          "internalType": "address",
          "name": "",
          "type": "address"
        }
      ],
      "stateMutability": "view",
      "type": "function"
    },
    {
      "inputs": [
        {
          "internalType": "string",
          "name": "_name",
          "type": "string"
        },
        {
          "internalType": "string",
          "name": "_siglas",
          "type": "string"
        }
      ],
      "name": "addAgrupacion",
      "outputs": [],
      "stateMutability": "nonpayable",
      "type": "function"
    },
    {
      "inputs": [
        {
          "internalType": "string",
          "name": "_name",
          "type": "string"
        },
        {
          "internalType": "string",
          "name": "_siglas",
          "type": "string"
        }
      ],
      "name": "checkAgrupacion",
      "outputs": [
        {
          "internalType": "bool",
          "name": "result",
          "type": "bool"
        }
      ],
      "stateMutability": "view",
      "type": "function"
    },
    {
      "inputs": [],
      "name": "getAgrupaciones",
      "outputs": [
        {
          "components": [
            {
              "internalType": "string",
              "name": "name",
              "type": "string"
            },
            {
              "internalType": "string",
              "name": "siglas",
              "type": "string"
            }
          ],
          "internalType": "struct PartyLib.Party[]",
          "name": "",
          "type": "tuple[]"
        }
      ],
      "stateMutability": "view",
      "type": "function"
    },
    {
      "inputs": [
        {
          "internalType": "string",
          "name": "_name",
          "type": "string"
        }
      ],
      "name": "getAgrupacion",
      "outputs": [
        {
          "components": [
            {
              "internalType": "string",
              "name": "name",
              "type": "string"
            },
            {
              "internalType": "string",
              "name": "siglas",
              "type": "string"
            }
          ],
          "internalType": "struct PartyLib.Party",
          "name": "agrupacion",
          "type": "tuple"
        }
      ],
      "stateMutability": "view",
      "type": "function"
    },
    {
      "inputs": [
        {
          "components": [
            {
              "internalType": "string",
              "name": "name",
              "type": "string"
            },
            {
              "internalType": "string",
              "name": "siglas",
              "type": "string"
            }
          ],
          "internalType": "struct PartyLib.Party",
          "name": "_agrupacion",
          "type": "tuple"
        },
        {
          "internalType": "string",
          "name": "_facultad",
          "type": "string"
        }
      ],
      "name": "addConsejoFacultad",
      "outputs": [],
      "stateMutability": "nonpayable",
      "type": "function"
    },
    {
      "inputs": [
        {
          "components": [
            {
              "internalType": "string",
              "name": "name",
              "type": "string"
            },
            {
              "internalType": "string",
              "name": "siglas",
              "type": "string"
            }
          ],
          "internalType": "struct PartyLib.Party",
          "name": "_agrupacion",
          "type": "tuple"
        },
        {
          "internalType": "string",
          "name": "_facultad",
          "type": "string"
        }
      ],
      "name": "checkConsejoFacultad",
      "outputs": [
        {
          "internalType": "bool",
          "name": "result",
          "type": "bool"
        }
      ],
      "stateMutability": "view",
      "type": "function"
    },
    {
      "inputs": [
        {
          "internalType": "string",
          "name": "_facultad",
          "type": "string"
        }
      ],
      "name": "checkInFacultades",
      "outputs": [
        {
          "internalType": "bool",
          "name": "result",
          "type": "bool"
        }
      ],
      "stateMutability": "view",
      "type": "function"
    },
    {
      "inputs": [
        {
          "components": [
            {
              "internalType": "string",
              "name": "name",
              "type": "string"
            },
            {
              "internalType": "string",
              "name": "siglas",
              "type": "string"
            }
          ],
          "internalType": "struct PartyLib.Party",
          "name": "_agrupacion",
          "type": "tuple"
        },
        {
          "internalType": "string",
          "name": "_escuela",
          "type": "string"
        }
      ],
      "name": "addConsejoEscuela",
      "outputs": [],
      "stateMutability": "nonpayable",
      "type": "function"
    },
    {
      "inputs": [
        {
          "components": [
            {
              "internalType": "string",
              "name": "name",
              "type": "string"
            },
            {
              "internalType": "string",
              "name": "siglas",
              "type": "string"
            }
          ],
          "internalType": "struct PartyLib.Party",
          "name": "_agrupacion",
          "type": "tuple"
        },
        {
          "internalType": "string",
          "name": "_escuela",
          "type": "string"
        }
      ],
      "name": "checkConsejoEscuela",
      "outputs": [
        {
          "internalType": "bool",
          "name": "result",
          "type": "bool"
        }
      ],
      "stateMutability": "view",
      "type": "function"
    },
    {
      "inputs": [
        {
          "internalType": "string",
          "name": "_escuela",
          "type": "string"
        }
      ],
      "name": "checkInEscuelas",
      "outputs": [
        {
          "internalType": "bool",
          "name": "result",
          "type": "bool"
        }
      ],
      "stateMutability": "view",
      "type": "function"
    },
    {
      "inputs": [
        {
          "components": [
            {
              "internalType": "string",
              "name": "name",
              "type": "string"
            },
            {
              "internalType": "string",
              "name": "siglas",
              "type": "string"
            }
          ],
          "internalType": "struct PartyLib.Party",
          "name": "_agrupacion",
          "type": "tuple"
        },
        {
          "internalType": "string",
          "name": "_escuela",
          "type": "string"
        }
      ],
      "name": "addCentroEstudiantes",
      "outputs": [],
      "stateMutability": "nonpayable",
      "type": "function"
    },
    {
      "inputs": [
        {
          "components": [
            {
              "internalType": "string",
              "name": "name",
              "type": "string"
            },
            {
              "internalType": "string",
              "name": "siglas",
              "type": "string"
            }
          ],
          "internalType": "struct PartyLib.Party",
          "name": "_agrupacion",
          "type": "tuple"
        },
        {
          "internalType": "string",
          "name": "_escuela",
          "type": "string"
        }
      ],
      "name": "checkCentroEstudiantes",
      "outputs": [
        {
          "internalType": "bool",
          "name": "result",
          "type": "bool"
        }
      ],
      "stateMutability": "view",
      "type": "function"
    },
    {
      "inputs": [
        {
          "components": [
            {
              "internalType": "string",
              "name": "name",
              "type": "string"
            },
            {
              "internalType": "string",
              "name": "siglas",
              "type": "string"
            }
          ],
          "internalType": "struct PartyLib.Party",
          "name": "_agrupacion",
          "type": "tuple"
        }
      ],
      "name": "addJuntaDirectivaFCE",
      "outputs": [],
      "stateMutability": "nonpayable",
      "type": "function"
    },
    {
      "inputs": [
        {
          "components": [
            {
              "internalType": "string",
              "name": "name",
              "type": "string"
            },
            {
              "internalType": "string",
              "name": "siglas",
              "type": "string"
            }
          ],
          "internalType": "struct PartyLib.Party",
          "name": "_agrupacion",
          "type": "tuple"
        }
      ],
      "name": "checkJuntaDirectiva",
      "outputs": [
        {
          "internalType": "bool",
          "name": "result",
          "type": "bool"
        }
      ],
      "stateMutability": "view",
      "type": "function"
    },
    {
      "inputs": [
        {
          "components": [
            {
              "internalType": "string",
              "name": "name",
              "type": "string"
            },
            {
              "internalType": "string",
              "name": "siglas",
              "type": "string"
            }
          ],
          "internalType": "struct PartyLib.Party",
          "name": "_agrupacion",
          "type": "tuple"
        }
      ],
      "name": "addCoordinacionFCE",
      "outputs": [],
      "stateMutability": "nonpayable",
      "type": "function"
    },
    {
      "inputs": [
        {
          "components": [
            {
              "internalType": "string",
              "name": "name",
              "type": "string"
            },
            {
              "internalType": "string",
              "name": "siglas",
              "type": "string"
            }
          ],
          "internalType": "struct PartyLib.Party",
          "name": "_agrupacion",
          "type": "tuple"
        }
      ],
      "name": "checkCoordinacion",
      "outputs": [
        {
          "internalType": "bool",
          "name": "result",
          "type": "bool"
        }
      ],
      "stateMutability": "view",
      "type": "function"
    },
    {
      "inputs": [
        {
          "internalType": "string",
          "name": "_name",
          "type": "string"
        },
        {
          "internalType": "uint256",
          "name": "_id",
          "type": "uint256"
        },
        {
          "internalType": "string",
          "name": "_major",
          "type": "string"
        }
      ],
      "name": "addConsejeroAcademico",
      "outputs": [],
      "stateMutability": "nonpayable",
      "type": "function"
    },
    {
      "inputs": [
        {
          "internalType": "uint256",
          "name": "_id",
          "type": "uint256"
        }
      ],
      "name": "checkConsejeroAcademico",
      "outputs": [
        {
          "internalType": "bool",
          "name": "",
          "type": "bool"
        }
      ],
      "stateMutability": "view",
      "type": "function"
    },
    {
      "inputs": [
        {
          "internalType": "uint256",
          "name": "_id",
          "type": "uint256"
        }
      ],
      "name": "getCandidateConsejoAcademico",
      "outputs": [
        {
          "components": [
            {
              "internalType": "string",
              "name": "nombre",
              "type": "string"
            },
            {
              "internalType": "uint256",
              "name": "id",
              "type": "uint256"
            },
            {
              "internalType": "string",
              "name": "degree",
              "type": "string"
            },
            {
              "internalType": "uint256",
              "name": "voteCount",
              "type": "uint256"
            }
          ],
          "internalType": "struct PartyLib.CandidateConsejero",
          "name": "candidate",
          "type": "tuple"
        }
      ],
      "stateMutability": "view",
      "type": "function"
    },
    {
      "inputs": [],
      "name": "getAllCandidatesConsejoAcademico",
      "outputs": [
        {
          "components": [
            {
              "internalType": "string",
              "name": "nombre",
              "type": "string"
            },
            {
              "internalType": "uint256",
              "name": "id",
              "type": "uint256"
            },
            {
              "internalType": "string",
              "name": "degree",
              "type": "string"
            },
            {
              "internalType": "uint256",
              "name": "voteCount",
              "type": "uint256"
            }
          ],
          "internalType": "struct PartyLib.CandidateConsejero[]",
          "name": "",
          "type": "tuple[]"
        }
      ],
      "stateMutability": "view",
      "type": "function"
    },
    {
      "inputs": [
        {
          "internalType": "string",
          "name": "_facultad",
          "type": "string"
        }
      ],
      "name": "getCandidatosConsejoFacultad",
      "outputs": [
        {
          "components": [
            {
              "internalType": "string",
              "name": "nombreAgrupacion",
              "type": "string"
            },
            {
              "internalType": "string",
              "name": "siglasAgrupacion",
              "type": "string"
            },
            {
              "internalType": "uint256",
              "name": "voteCount",
              "type": "uint256"
            }
          ],
          "internalType": "struct PartyLib.CandidateConsejoFacultad[]",
          "name": "",
          "type": "tuple[]"
        }
      ],
      "stateMutability": "view",
      "type": "function"
    },
    {
      "inputs": [
        {
          "internalType": "string",
          "name": "_escuela",
          "type": "string"
        }
      ],
      "name": "getCandidatosConsejoEscuela",
      "outputs": [
        {
          "components": [
            {
              "internalType": "string",
              "name": "nombreAgrupacion",
              "type": "string"
            },
            {
              "internalType": "string",
              "name": "siglasAgrupacion",
              "type": "string"
            },
            {
              "internalType": "uint256",
              "name": "voteCount",
              "type": "uint256"
            }
          ],
          "internalType": "struct PartyLib.CandidateCentroEstudiantes[]",
          "name": "",
          "type": "tuple[]"
        }
      ],
      "stateMutability": "view",
      "type": "function"
    },
    {
      "inputs": [
        {
          "internalType": "string",
          "name": "_escuela",
          "type": "string"
        }
      ],
      "name": "getCandidatosCentroEstudiante",
      "outputs": [
        {
          "components": [
            {
              "internalType": "string",
              "name": "nombreAgrupacion",
              "type": "string"
            },
            {
              "internalType": "string",
              "name": "siglasAgrupacion",
              "type": "string"
            },
            {
              "internalType": "uint256",
              "name": "voteCount",
              "type": "uint256"
            }
          ],
          "internalType": "struct PartyLib.CandidateCentroEstudiantes[]",
          "name": "",
          "type": "tuple[]"
        }
      ],
      "stateMutability": "view",
      "type": "function"
    },
    {
      "inputs": [],
      "name": "getCandidatosdCoordinacionFCE",
      "outputs": [
        {
          "components": [
            {
              "internalType": "string",
              "name": "nombreAgrupacion",
              "type": "string"
            },
            {
              "internalType": "string",
              "name": "siglasAgrupacion",
              "type": "string"
            },
            {
              "internalType": "uint256",
              "name": "voteCount",
              "type": "uint256"
            }
          ],
          "internalType": "struct PartyLib.CandidateCoordinacion[]",
          "name": "",
          "type": "tuple[]"
        }
      ],
      "stateMutability": "view",
      "type": "function"
    },
    {
      "inputs": [],
      "name": "getCandidatosJuntaDirectivaFCE",
      "outputs": [
        {
          "components": [
            {
              "internalType": "string",
              "name": "nombreAgrupacion",
              "type": "string"
            },
            {
              "internalType": "string",
              "name": "siglasAgrupacion",
              "type": "string"
            },
            {
              "internalType": "uint256",
              "name": "voteCount",
              "type": "uint256"
            }
          ],
          "internalType": "struct PartyLib.CandidateJuntaDirectiva[]",
          "name": "",
          "type": "tuple[]"
        }
      ],
      "stateMutability": "view",
      "type": "function"
    },
    {
      "inputs": [
        {
          "internalType": "string",
          "name": "_siglas",
          "type": "string"
        }
      ],
      "name": "getJuntaDirectivaFCE",
      "outputs": [
        {
          "components": [
            {
              "internalType": "string",
              "name": "nombreAgrupacion",
              "type": "string"
            },
            {
              "internalType": "string",
              "name": "siglasAgrupacion",
              "type": "string"
            },
            {
              "internalType": "uint256",
              "name": "voteCount",
              "type": "uint256"
            }
          ],
          "internalType": "struct PartyLib.CandidateJuntaDirectiva",
          "name": "junta",
          "type": "tuple"
        }
      ],
      "stateMutability": "view",
      "type": "function"
    },
    {
      "inputs": [
        {
          "internalType": "string",
          "name": "_siglas",
          "type": "string"
        }
      ],
      "name": "getCoordinacionFCE",
      "outputs": [
        {
          "components": [
            {
              "internalType": "string",
              "name": "nombreAgrupacion",
              "type": "string"
            },
            {
              "internalType": "string",
              "name": "siglasAgrupacion",
              "type": "string"
            },
            {
              "internalType": "uint256",
              "name": "voteCount",
              "type": "uint256"
            }
          ],
          "internalType": "struct PartyLib.CandidateCoordinacion",
          "name": "coordinacion",
          "type": "tuple"
        }
      ],
      "stateMutability": "view",
      "type": "function"
    },
    {
      "inputs": [
        {
          "internalType": "string",
          "name": "_siglas",
          "type": "string"
        },
        {
          "internalType": "string",
          "name": "_escuela",
          "type": "string"
        }
      ],
      "name": "getCentroEstudiantes",
      "outputs": [
        {
          "components": [
            {
              "internalType": "string",
              "name": "nombreAgrupacion",
              "type": "string"
            },
            {
              "internalType": "string",
              "name": "siglasAgrupacion",
              "type": "string"
            },
            {
              "internalType": "uint256",
              "name": "voteCount",
              "type": "uint256"
            }
          ],
          "internalType": "struct PartyLib.CandidateCentroEstudiantes",
          "name": "centro",
          "type": "tuple"
        }
      ],
      "stateMutability": "view",
      "type": "function"
    },
    {
      "inputs": [
        {
          "internalType": "string",
          "name": "_siglas",
          "type": "string"
        },
        {
          "internalType": "string",
          "name": "_facultad",
          "type": "string"
        }
      ],
      "name": "getConsejoFacultad",
      "outputs": [
        {
          "components": [
            {
              "internalType": "string",
              "name": "nombreAgrupacion",
              "type": "string"
            },
            {
              "internalType": "string",
              "name": "siglasAgrupacion",
              "type": "string"
            },
            {
              "internalType": "uint256",
              "name": "voteCount",
              "type": "uint256"
            }
          ],
          "internalType": "struct PartyLib.CandidateConsejoFacultad",
          "name": "consejo",
          "type": "tuple"
        }
      ],
      "stateMutability": "view",
      "type": "function"
    },
    {
      "inputs": [
        {
          "internalType": "uint256",
          "name": "_id",
          "type": "uint256"
        }
      ],
      "name": "getConsejeroAcademico",
      "outputs": [
        {
          "components": [
            {
              "internalType": "string",
              "name": "nombre",
              "type": "string"
            },
            {
              "internalType": "uint256",
              "name": "id",
              "type": "uint256"
            },
            {
              "internalType": "string",
              "name": "degree",
              "type": "string"
            },
            {
              "internalType": "uint256",
              "name": "voteCount",
              "type": "uint256"
            }
          ],
          "internalType": "struct PartyLib.CandidateConsejero",
          "name": "consejero",
          "type": "tuple"
        }
      ],
      "stateMutability": "view",
      "type": "function"
    },
    {
      "inputs": [
        {
          "internalType": "string",
          "name": "_siglas",
          "type": "string"
        },
        {
          "internalType": "string",
          "name": "_escuela",
          "type": "string"
        }
      ],
      "name": "getConsejoEscuela",
      "outputs": [
        {
          "components": [
            {
              "internalType": "string",
              "name": "nombreAgrupacion",
              "type": "string"
            },
            {
              "internalType": "string",
              "name": "siglasAgrupacion",
              "type": "string"
            },
            {
              "internalType": "uint256",
              "name": "voteCount",
              "type": "uint256"
            }
          ],
          "internalType": "struct PartyLib.CandidateConsejoEscuela",
          "name": "consejo",
          "type": "tuple"
        }
      ],
      "stateMutability": "view",
      "type": "function"
    },
    {
      "inputs": [
        {
          "internalType": "uint256",
          "name": "_id",
          "type": "uint256"
        },
        {
          "internalType": "string[]",
          "name": "_carreras",
          "type": "string[]"
        }
      ],
      "name": "addVotante",
      "outputs": [],
      "stateMutability": "nonpayable",
      "type": "function"
    },
    {
      "inputs": [
        {
          "internalType": "uint256",
          "name": "_id",
          "type": "uint256"
        }
      ],
      "name": "checkListoVotando",
      "outputs": [
        {
          "internalType": "bool",
          "name": "",
          "type": "bool"
        }
      ],
      "stateMutability": "view",
      "type": "function"
    },
    {
      "inputs": [
        {
          "internalType": "uint256",
          "name": "_id",
          "type": "uint256"
        },
        {
          "internalType": "string",
          "name": "_siglas",
          "type": "string"
        }
      ],
      "name": "voteJunta",
      "outputs": [],
      "stateMutability": "nonpayable",
      "type": "function"
    },
    {
      "inputs": [
        {
          "internalType": "uint256",
          "name": "_id",
          "type": "uint256"
        },
        {
          "internalType": "string",
          "name": "_siglas",
          "type": "string"
        }
      ],
      "name": "voteCoordinacion",
      "outputs": [],
      "stateMutability": "nonpayable",
      "type": "function"
    },
    {
      "inputs": [
        {
          "internalType": "uint256",
          "name": "_id",
          "type": "uint256"
        },
        {
          "internalType": "uint256",
          "name": "_idCandidato",
          "type": "uint256"
        }
      ],
      "name": "voteConsejoAcademico",
      "outputs": [],
      "stateMutability": "nonpayable",
      "type": "function"
    },
    {
      "inputs": [
        {
          "internalType": "uint256",
          "name": "_id",
          "type": "uint256"
        },
        {
          "internalType": "string",
          "name": "_facultad",
          "type": "string"
        },
        {
          "internalType": "string",
          "name": "_siglas",
          "type": "string"
        }
      ],
      "name": "voteConsejoFacultad",
      "outputs": [],
      "stateMutability": "nonpayable",
      "type": "function"
    },
    {
      "inputs": [
        {
          "internalType": "uint256",
          "name": "_id",
          "type": "uint256"
        },
        {
          "internalType": "string",
          "name": "_escuela",
          "type": "string"
        },
        {
          "internalType": "string",
          "name": "_siglas",
          "type": "string"
        }
      ],
      "name": "voteConsejoEscuela",
      "outputs": [],
      "stateMutability": "nonpayable",
      "type": "function"
    },
    {
      "inputs": [
        {
          "internalType": "uint256",
          "name": "_id",
          "type": "uint256"
        },
        {
          "internalType": "string",
          "name": "_escuela",
          "type": "string"
        },
        {
          "internalType": "string",
          "name": "_siglas",
          "type": "string"
        }
      ],
      "name": "voteCentroEstudiantes",
      "outputs": [],
      "stateMutability": "nonpayable",
      "type": "function"
    },
    {
      "inputs": [
        {
          "components": [
            {
              "internalType": "uint256",
              "name": "id",
              "type": "uint256"
            },
            {
              "internalType": "string[]",
              "name": "carreras",
              "type": "string[]"
            },
            {
              "internalType": "bool",
              "name": "voted",
              "type": "bool"
            },
            {
              "internalType": "bool",
              "name": "votoCoordinacion",
              "type": "bool"
            },
            {
              "internalType": "bool",
              "name": "votoJuntaDirectiva",
              "type": "bool"
            },
            {
              "internalType": "bool",
              "name": "votoConsejoFacultad",
              "type": "bool"
            },
            {
              "internalType": "bool",
              "name": "votoCentroEstudiantes",
              "type": "bool"
            },
            {
              "internalType": "bool",
              "name": "votoConsejoAcademico",
              "type": "bool"
            },
            {
              "internalType": "bool",
              "name": "votoConsejoEscuela",
              "type": "bool"
            },
            {
              "internalType": "uint256",
              "name": "votosConsejoEscuela",
              "type": "uint256"
            },
            {
              "internalType": "uint256",
              "name": "votosCentroEstudiantes",
              "type": "uint256"
            },
            {
              "internalType": "uint256",
              "name": "votosFacultad",
              "type": "uint256"
            }
          ],
          "internalType": "struct Election.Votante",
          "name": "_votante",
          "type": "tuple"
        }
      ],
      "name": "registerVotanteFacultad",
      "outputs": [],
      "stateMutability": "nonpayable",
      "type": "function"
    },
    {
      "inputs": [
        {
          "internalType": "string",
          "name": "_carrera",
          "type": "string"
        }
      ],
      "name": "getFacultadCarrera",
      "outputs": [
        {
          "internalType": "string",
          "name": "facCarrera",
          "type": "string"
        }
      ],
      "stateMutability": "pure",
      "type": "function"
    },
    {
      "inputs": [
        {
          "internalType": "uint256",
          "name": "_id",
          "type": "uint256"
        },
        {
          "internalType": "string",
          "name": "_facultad",
          "type": "string"
        }
      ],
      "name": "checkVotanteEnFacultad",
      "outputs": [
        {
          "internalType": "bool",
          "name": "",
          "type": "bool"
        }
      ],
      "stateMutability": "view",
      "type": "function"
    },
    {
      "inputs": [
        {
          "internalType": "uint256",
          "name": "_id",
          "type": "uint256"
        }
      ],
      "name": "getParticipatingSections",
      "outputs": [
        {
          "internalType": "string[]",
          "name": "",
          "type": "string[]"
        }
      ],
      "stateMutability": "view",
      "type": "function"
    },
    {
      "inputs": [
        {
          "internalType": "uint256",
          "name": "_id",
          "type": "uint256"
        }
      ],
      "name": "getFacultyCount",
      "outputs": [
        {
          "internalType": "uint256",
          "name": "",
          "type": "uint256"
        }
      ],
      "stateMutability": "view",
      "type": "function"
    },
    {
      "inputs": [
        {
          "internalType": "uint256",
          "name": "_id",
          "type": "uint256"
        }
      ],
      "name": "checkRegisteredVoter",
      "outputs": [
        {
          "internalType": "bool",
          "name": "",
          "type": "bool"
        }
      ],
      "stateMutability": "view",
      "type": "function"
    },
    {
      "inputs": [
        {
          "internalType": "uint256",
          "name": "_id",
          "type": "uint256"
        }
      ],
      "name": "inRegistroElectoral",
      "outputs": [
        {
          "internalType": "bool",
          "name": "",
          "type": "bool"
        }
      ],
      "stateMutability": "view",
      "type": "function"
    },
    {
      "inputs": [
        {
          "internalType": "uint256",
          "name": "_id",
          "type": "uint256"
        }
      ],
      "name": "agregarARegistroElectoral",
      "outputs": [],
      "stateMutability": "nonpayable",
      "type": "function"
    },
    {
      "inputs": [
        {
          "internalType": "uint256",
          "name": "_id",
          "type": "uint256"
        }
      ],
      "name": "getVotante",
      "outputs": [
        {
          "components": [
            {
              "internalType": "uint256",
              "name": "id",
              "type": "uint256"
            },
            {
              "internalType": "string[]",
              "name": "carreras",
              "type": "string[]"
            },
            {
              "internalType": "bool",
              "name": "voted",
              "type": "bool"
            },
            {
              "internalType": "bool",
              "name": "votoCoordinacion",
              "type": "bool"
            },
            {
              "internalType": "bool",
              "name": "votoJuntaDirectiva",
              "type": "bool"
            },
            {
              "internalType": "bool",
              "name": "votoConsejoFacultad",
              "type": "bool"
            },
            {
              "internalType": "bool",
              "name": "votoCentroEstudiantes",
              "type": "bool"
            },
            {
              "internalType": "bool",
              "name": "votoConsejoAcademico",
              "type": "bool"
            },
            {
              "internalType": "bool",
              "name": "votoConsejoEscuela",
              "type": "bool"
            },
            {
              "internalType": "uint256",
              "name": "votosConsejoEscuela",
              "type": "uint256"
            },
            {
              "internalType": "uint256",
              "name": "votosCentroEstudiantes",
              "type": "uint256"
            },
            {
              "internalType": "uint256",
              "name": "votosFacultad",
              "type": "uint256"
            }
          ],
          "internalType": "struct Election.Votante",
          "name": "",
          "type": "tuple"
        }
      ],
      "stateMutability": "view",
      "type": "function"
    }
  ],
  "bytecode": "0x600c6102608181526b496e672e205175696d69636160a01b61028052608090815260106102a09081526f496e672e2064652053697374656d617360801b6102c05260a052600a6102e081815269125b99cb8810da5d9a5b60b21b6103005260c052600d6103209081526c496e672e204d6563616e69636160981b6103405260e05260126103608181527124b7339710323290283937b23ab1b1b4b7b760711b6103805261010052600e6103a08181526d496e672e20456c6563747269636160901b6103c052610120526103e08181526d20b236b4b734b9ba3930b1b4b7b760911b610400526101405261042092835269436f6e7461647572696160b01b610440526101609290925260086104609081526745636f6e6f6d696160c01b610480526101805260096104a09081526822b23ab1b0b1b4b7b760b91b6104c0526101a05260076104e0818152664964696f6d617360c81b610500526101c0526105209485526b507369636f6c6f6c6f67696160a01b610540526101e094909452610560908152714d6174652e20496e647573747269616c657360701b61058052610200526105a09081526d4573742e204c69626572616c657360901b6105c052610220526106206040526105e0918252664465726563686f60c81b6106005261024091909152620001f290600390600f620002ec565b506040805160c081018252600a6080820190815269496e67656e696572696160b01b60a0830152815281518083018352601e8082527f4369656e636961732045636f6e6f6d69636173207920536f6369616c657300006020838101919091528084019290925283518085018552601081526f4369656e63696173207920417274657360801b8184015283850152835180850190945283527f4573747564696f73204a7572696469636f73207920506f6c697469636f730000908301526060810191909152620002c5906004908162000349565b50348015620002d357600080fd5b50600280546001600160a01b031916331790556200057f565b82805482825590600052602060002090810192821562000337579160200282015b82811115620003375782518290620003269082620004b3565b50916020019190600101906200030d565b506200034592915062000394565b5090565b82805482825590600052602060002090810192821562000337579160200282015b82811115620003375782518290620003839082620004b3565b50916020019190600101906200036a565b8082111562000345576000620003ab8282620003b5565b5060010162000394565b508054620003c39062000424565b6000825580601f10620003d4575050565b601f016020900490600052602060002090810190620003f49190620003f7565b50565b5b80821115620003455760008155600101620003f8565b634e487b7160e01b600052604160045260246000fd5b600181811c908216806200043957607f821691505b6020821081036200045a57634e487b7160e01b600052602260045260246000fd5b50919050565b601f821115620004ae57600081815260208120601f850160051c81016020861015620004895750805b601f850160051c820191505b81811015620004aa5782815560010162000495565b5050505b505050565b81516001600160401b03811115620004cf57620004cf6200040e565b620004e781620004e0845462000424565b8462000460565b602080601f8311600181146200051f5760008415620005065750858301515b600019600386901b1c1916600185901b178555620004aa565b600085815260208120601f198616915b8281101562000550578886015182559484019460019091019084016200052f565b50858210156200056f5787850151600019600388901b60f8161c191681555b5050505050600190811b01905550565b616683806200058f6000396000f3fe608060405234801561001057600080fd5b506004361061038e5760003560e01c80638da5cb5b116101de578063c74ad1ec1161010f578063e150495d116100ad578063ebbc23c21161007c578063ebbc23c21461086b578063f0828fc21461087e578063f1cc385714610893578063f634d042146108a657600080fd5b8063e150495d1461080f578063e3c1c67614610822578063e8db3d9514610835578063eaa8411e1461084857600080fd5b8063d127bbce116100e9578063d127bbce146107b6578063d1e92e42146107c9578063d6c6158d146107e9578063e032c998146107fc57600080fd5b8063c74ad1ec1461076d578063c889b2e114610780578063c9995f69146107a157600080fd5b8063a8946a011161017c578063b3da35b011610156578063b3da35b014610721578063b89bacef14610734578063c2825b3914610747578063c5a2ca121461075a57600080fd5b8063a8946a01146106e8578063ac972b88146106fb578063adcbe28b1461070e57600080fd5b806395146f83116101b857806395146f831461068057806396cfc4ef14610695578063a2eda88b146106b5578063a4241f8c146106d557600080fd5b80638da5cb5b146106225780638e43462e1461064d57806390ae30111461066d57600080fd5b80633d42c6bb116102c357806368cec4081161026157806374fbe53c1161023057806374fbe53c146105c957806387968514146105e957806388d0f4e0146105fc5780638a6a90721461060f57600080fd5b806368cec408146105785780636e90e9691461059b5780636f1fd848146105ae5780637284e416146105c157600080fd5b80635e20b8af1161029d5780635e20b8af1461052a578063632208931461053d5780636733013e14610550578063674456e01461056357600080fd5b80633d42c6bb146104f15780634862c7b1146105045780634bfa95cf1461051757600080fd5b80631e8d9f3211610330578063251f44761161030a578063251f44761461049757806328bb254c146104aa57806333eb9dc0146104bd57806339b5d114146104d057600080fd5b80631e8d9f321461044f57806321675c9b14610471578063236e3f1f1461048457600080fd5b80630af6f0911161036c5780630af6f091146103e65780631527814014610409578063197db0de1461041c5780631aeb64b71461043c57600080fd5b806304440d8f1461039357806306fdde03146103bc57806308388928146103d1575b600080fd5b6103a66103a1366004615210565b6108b9565b6040516103b39190615308565b60405180910390f35b6103c4610b5b565b6040516103b3919061531b565b6103e46103df3660046153b7565b610be9565b005b6103f96103f43660046153eb565b610c68565b60405190151581526020016103b3565b6103e461041736600461541f565b610ce5565b61042f61042a3660046153eb565b610de5565b6040516103b39190615492565b6103e461044a3660046154a5565b611016565b61046261045d3660046154db565b611099565b6040516103b3939291906154f4565b6103e461047f36600461552a565b6111e3565b610462610492366004615596565b61148d565b6104626104a5366004615596565b6114dc565b6103f96104b83660046153b7565b611507565b6103a66104cb3660046153eb565b611544565b6104e36104de3660046154db565b611789565b6040519081526020016103b3565b6103f96104ff3660046154a5565b611898565b6103e4610512366004615691565b61191f565b6103e46105253660046154a5565b611a31565b6103e461053836600461541f565b611a7f565b6103e461054b36600461552a565b611b4c565b6103c461055e3660046153eb565b611dc9565b61056b61277b565b6040516103b391906157f6565b6103f96105863660046154db565b6000908152600e602052604090205460ff1690565b6103a66105a93660046153eb565b612912565b6103a66105bc366004615210565b612a08565b6103c4612b34565b6105dc6105d73660046154db565b612b41565b6040516103b39190615858565b6103e46105f736600461586b565b612d20565b6103e461060a36600461588d565b612df8565b6103f961061d36600461541f565b612f5c565b600254610635906001600160a01b031681565b6040516001600160a01b0390911681526020016103b3565b61066061065b3660046154db565b612f93565b6040516103b3919061592a565b6103f961067b3660046153b7565b61317b565b6106886131b8565b6040516103b391906159f5565b6106a86106a33660046154db565b613332565b6040516103b39190615a4a565b6106c86106c33660046153eb565b6138ef565b6040516103b39190615a5d565b6103f96106e33660046153eb565b613a9a565b6103e46106f636600461552a565b613ad7565b6103e4610709366004615ab2565b613d52565b6103e461071c3660046154db565b6140ee565b61046261072f3660046154db565b6141a9565b6103a6610742366004615210565b6141b9565b610462610755366004615596565b6142e5565b6103f9610768366004615210565b614310565b6103e461077b366004615210565b61434f565b61079361078e3660046154db565b614398565b6040516103b3929190615aee565b6107a96144dc565b6040516103b39190615b13565b6103f96107c43660046154a5565b614660565b6107dc6107d73660046153eb565b61469f565b6040516103b39190615b68565b6107dc6107f73660046153eb565b61483f565b6103f961080a3660046154db565b6149df565b6103f961081d3660046154db565b614bb8565b6105dc6108303660046154db565b614bde565b6103f96108433660046154a5565b614c64565b61085b6108563660046154db565b614ca3565b6040516103b39493929190615bbd565b6103f96108793660046154db565b614df3565b610886614e4e565b6040516103b39190615bfa565b6103e46108a13660046153b7565b614fd2565b6103e46108b43660046154a5565b61501e565b6108dd60405180606001604052806060815260200160608152602001600081525090565b60005b6009836040516108f09190615c4f565b90815260405190819003602001902054811015610b535773__StringComp____________________________63bed34bba6009856040516109319190615c4f565b9081526020016040518091039020838154811061095057610950615c6b565b9060005260206000209060030201600101866040518363ffffffff1660e01b815260040161097f929190615d32565b602060405180830381865af415801561099c573d6000803e3d6000fd5b505050506040513d601f19601f820116820180604052508101906109c09190615d45565b15610b43576009836040516109d59190615c4f565b908152602001604051809103902081815481106109f4576109f4615c6b565b9060005260206000209060030201604051806060016040529081600082018054610a1d90615c81565b80601f0160208091040260200160405190810160405280929190818152602001828054610a4990615c81565b8015610a965780601f10610a6b57610100808354040283529160200191610a96565b820191906000526020600020905b815481529060010190602001808311610a7957829003601f168201915b50505050508152602001600182018054610aaf90615c81565b80601f0160208091040260200160405190810160405280929190818152602001828054610adb90615c81565b8015610b285780601f10610afd57610100808354040283529160200191610b28565b820191906000526020600020905b815481529060010190602001808311610b0b57829003601f168201915b50505050508152602001600282015481525050915050610b55565b610b4c81615d78565b90506108e0565b505b92915050565b60008054610b6890615c81565b80601f0160208091040260200160405190810160405280929190818152602001828054610b9490615c81565b8015610be15780601f10610bb657610100808354040283529160200191610be1565b820191906000526020600020905b815481529060010190602001808311610bc457829003601f168201915b505050505081565b60025460405163224a715f60e11b815273__PartyLib______________________________91634494e2be91610c359185916001600160a01b0390911690600890600590600401615d91565b60006040518083038186803b158015610c4d57600080fd5b505af4158015610c61573d6000803e3d6000fd5b5050505050565b60405163c9efa5ed60e01b815260009073__PartyLib______________________________9063c9efa5ed90610ca49085906004908101615e15565b602060405180830381865af4158015610cc1573d6000803e3d6000fd5b505050506040513d601f19601f82011682018060405250810190610b559190615d45565b6000828152600c6020526040902060020154610100900460ff1615610d255760405162461bcd60e51b8152600401610d1c90615e3a565b60405180910390fd5b610d2e82614bb8565b610d4a5760405162461bcd60e51b8152600401610d1c90615e68565b6002546001600160a01b03163314610d745760405162461bcd60e51b8152600401610d1c90615eb6565b6000610d7f82611544565b9050600181604001818151610d949190615f09565b9052506000838152600c60205260409020600201805461ff001916610100179055610dbe836149df565b15610de0576000838152600c60205260409020600201805460ff191660011790555b505050565b604080518082019091526060808252602082015260005b6005548110156110105773__StringComp____________________________63bed34bba60058381548110610e3357610e33615c6b565b9060005260206000209060020201600001856040518363ffffffff1660e01b8152600401610e62929190615d32565b602060405180830381865af4158015610e7f573d6000803e3d6000fd5b505050506040513d601f19601f82011682018060405250810190610ea39190615d45565b156110005760058181548110610ebb57610ebb615c6b565b9060005260206000209060020201604051806040016040529081600082018054610ee490615c81565b80601f0160208091040260200160405190810160405280929190818152602001828054610f1090615c81565b8015610f5d5780601f10610f3257610100808354040283529160200191610f5d565b820191906000526020600020905b815481529060010190602001808311610f4057829003601f168201915b50505050508152602001600182018054610f7690615c81565b80601f0160208091040260200160405190810160405280929190818152602001828054610fa290615c81565b8015610fef5780601f10610fc457610100808354040283529160200191610fef565b820191906000526020600020905b815481529060010190602001808311610fd257829003601f168201915b505050505081525050915050919050565b61100981615d78565b9050610dfc565b50919050565b600254604051634c27f30d60e11b815273__PartyLib______________________________9163984fe61a9161106591869186916001600160a01b031690600b90600590600390600401615f1c565b60006040518083038186803b15801561107d57600080fd5b505af4158015611091573d6000803e3d6000fd5b505050505050565b600781815481106110a957600080fd5b90600052602060002090600302016000915090508060000180546110cc90615c81565b80601f01602080910402602001604051908101604052809291908181526020018280546110f890615c81565b80156111455780601f1061111a57610100808354040283529160200191611145565b820191906000526020600020905b81548152906001019060200180831161112857829003601f168201915b50505050509080600101805461115a90615c81565b80601f016020809104026020016040519081016040528092919081815260200182805461118690615c81565b80156111d35780601f106111a8576101008083540402835291602001916111d3565b820191906000526020600020905b8154815290600101906020018083116111b657829003601f168201915b5050505050908060020154905083565b6000838152600c6020526040902060020154600160301b900460ff161561121c5760405162461bcd60e51b8152600401610d1c90615e3a565b61122583614bb8565b6112415760405162461bcd60e51b8152600401610d1c90615e68565b6002546001600160a01b0316331461126b5760405162461bcd60e51b8152600401610d1c90615eb6565b600061127782846141b9565b60408101805191925061128982615d78565b9052506000848152600c60209081526040808320815161018081018352815481526001820180548451818702810187019095528085529194929385840193909290879084015b8282101561137b5783829060005260206000200180546112ee90615c81565b80601f016020809104026020016040519081016040528092919081815260200182805461131a90615c81565b80156113675780601f1061133c57610100808354040283529160200191611367565b820191906000526020600020905b81548152906001019060200180831161134a57829003601f168201915b5050505050815260200190600101906112cf565b50505090825250600282015460ff8082161515602084015261010080830482161515604085015262010000830482161515606085015263010000008304821615156080850152600160201b83048216151560a0850152600160281b83048216151560c0850152600160301b90920416151560e0830152600383015490820152600482015461012080830191909152600590920154610140909101528101805191925061142682615f7f565b90525061012081015160000361145c576000858152600c60205260409020600201805466ff0000000000001916600160301b1790555b611465856149df565b15610c61576000858152600c60205260409020600201805460ff191660011790555050505050565b8151602081840181018051600a8252928201918501919091209190528054829081106114b857600080fd5b9060005260206000209060030201600091509150508060000180546110cc90615c81565b8151602081840181018051600b8252928201918501919091209190528054829081106114b857600080fd5b6040516330212a0160e01b815260009073__PartyLib______________________________906330212a0190610ca4908590600890600401615f96565b61156860405180606001604052806060815260200160608152602001600081525090565b60005b6008548110156110105773__StringComp____________________________63bed34bba600883815481106115a2576115a2615c6b565b9060005260206000209060030201600101856040518363ffffffff1660e01b81526004016115d1929190615d32565b602060405180830381865af41580156115ee573d6000803e3d6000fd5b505050506040513d601f19601f820116820180604052508101906116129190615d45565b15611779576008818154811061162a5761162a615c6b565b906000526020600020906003020160405180606001604052908160008201805461165390615c81565b80601f016020809104026020016040519081016040528092919081815260200182805461167f90615c81565b80156116cc5780601f106116a1576101008083540402835291602001916116cc565b820191906000526020600020905b8154815290600101906020018083116116af57829003601f168201915b505050505081526020016001820180546116e590615c81565b80601f016020809104026020016040519081016040528092919081815260200182805461171190615c81565b801561175e5780601f106117335761010080835404028352916020019161175e565b820191906000526020600020905b81548152906001019060200180831161174157829003601f168201915b50505050508152602001600282015481525050915050919050565b61178281615d78565b905061156b565b600080600090506117bc836040518060400160405280600a815260200169496e67656e696572696160b01b815250612f5c565b156117cf57806117cb81615d78565b9150505b6117fc836040518060400160405280601e815260200160008051602061660e833981519152815250612f5c565b1561180f578061180b81615d78565b9150505b611841836040518060400160405280601081526020016f4369656e63696173207920417274657360801b815250612f5c565b15611854578061185081615d78565b9150505b611881836040518060400160405280601e815260200160008051602061662e833981519152815250612f5c565b15610b55578061189081615d78565b949350505050565b60405163245c369160e11b815260009073__PartyLib______________________________906348b86d22906118d79086908690600990600401615fb8565b602060405180830381865af41580156118f4573d6000803e3d6000fd5b505050506040513d601f19601f820116820180604052508101906119189190615d45565b9392505050565b602081015160005b8151811015610de05782516000908152600d6020526040902082516119659084908490811061195857611958615c6b565b6020026020010151611dc9565b6040516119729190615c4f565b9081526040519081900360200190205460ff166119f9576001600d6000856000015181526020019081526020016000206119b784848151811061195857611958615c6b565b6040516119c49190615c4f565b908152604051908190036020019020805491151560ff1990921691909117905561016083018051906119f582615d78565b9052505b6101208301805190611a0a82615d78565b9052506101408301805190611a1e82615d78565b905250611a2a81615d78565b9050611927565b600254604051632c73427960e11b815273__PartyLib______________________________916358e684f29161106591869186916001600160a01b0316906009906005906004908101615f1c565b6000828152600c602052604090206002015460ff1615611ab15760405162461bcd60e51b8152600401610d1c90615e3a565b611aba82614bb8565b611ad65760405162461bcd60e51b8152600401610d1c90615e68565b6002546001600160a01b03163314611b005760405162461bcd60e51b8152600401610d1c90615eb6565b6000611b0b82612912565b9050600181604001818151611b209190615f09565b9052506000838152600c60205260409020600201805462ff0000191662010000179055610dbe836149df565b6000838152600c60205260409020600201546301000000900460ff1615611b855760405162461bcd60e51b8152600401610d1c90615e3a565b611b8e83614bb8565b611baa5760405162461bcd60e51b8152600401610d1c90615e68565b6002546001600160a01b03163314611bd45760405162461bcd60e51b8152600401610d1c90615eb6565b6000611be082846108b9565b604081018051919250611bf282615d78565b9052506000848152600c60209081526040808320815161018081018352815481526001820180548451818702810187019095528085529194929385840193909290879084015b82821015611ce4578382906000526020600020018054611c5790615c81565b80601f0160208091040260200160405190810160405280929190818152602001828054611c8390615c81565b8015611cd05780601f10611ca557610100808354040283529160200191611cd0565b820191906000526020600020905b815481529060010190602001808311611cb357829003601f168201915b505050505081526020019060010190611c38565b50505090825250600282015460ff8082161515602084015261010080830482161515604085015262010000830482161515606085015263010000008304821615156080850152600160201b83048216151560a0850152600160281b83048216151560c0850152600160301b90920416151560e083015260038301549082015260048201546101208201526005909101546101409091015261016081018051919250611d8e82615f7f565b90525061016081015160000361145c576000858152600c60205260409020600201805463ff00000019166301000000179055611465856149df565b604051635f69a5dd60e11b815260609073__StringComp____________________________9063bed34bba90611e03908590600401615fcb565b602060405180830381865af4158015611e20573d6000803e3d6000fd5b505050506040513d601f19601f82011682018060405250810190611e449190615d45565b15611e6f57505060408051808201909152600a815269496e67656e696572696160b01b602082015290565b604051635f69a5dd60e11b815273__StringComp____________________________9063bed34bba90611ea690859060040161600c565b602060405180830381865af4158015611ec3573d6000803e3d6000fd5b505050506040513d601f19601f82011682018060405250810190611ee79190615d45565b15611f1257505060408051808201909152600a815269496e67656e696572696160b01b602082015290565b604051635f69a5dd60e11b815273__StringComp____________________________9063bed34bba90611f49908590600401616051565b602060405180830381865af4158015611f66573d6000803e3d6000fd5b505050506040513d601f19601f82011682018060405250810190611f8a9190615d45565b15611fb557505060408051808201909152600a815269496e67656e696572696160b01b602082015290565b604051635f69a5dd60e11b815273__StringComp____________________________9063bed34bba90611fec908590600401616090565b602060405180830381865af4158015612009573d6000803e3d6000fd5b505050506040513d601f19601f8201168201806040525081019061202d9190615d45565b1561205857505060408051808201909152600a815269496e67656e696572696160b01b602082015290565b604051635f69a5dd60e11b815273__StringComp____________________________9063bed34bba9061208f9085906004016160d2565b602060405180830381865af41580156120ac573d6000803e3d6000fd5b505050506040513d601f19601f820116820180604052508101906120d09190615d45565b156120fb57505060408051808201909152600a815269496e67656e696572696160b01b602082015290565b604051635f69a5dd60e11b815273__StringComp____________________________9063bed34bba90612132908590600401616119565b602060405180830381865af415801561214f573d6000803e3d6000fd5b505050506040513d601f19601f820116820180604052508101906121739190615d45565b1561219e57505060408051808201909152600a815269496e67656e696572696160b01b602082015290565b604051635f69a5dd60e11b815273__StringComp____________________________9063bed34bba906121d590859060040161615c565b602060405180830381865af41580156121f2573d6000803e3d6000fd5b505050506040513d601f19601f820116820180604052508101906122169190615d45565b1561224257505060408051808201909152601e815260008051602061660e833981519152602082015290565b604051635f69a5dd60e11b815273__StringComp____________________________9063bed34bba9061227990859060040161619f565b602060405180830381865af4158015612296573d6000803e3d6000fd5b505050506040513d601f19601f820116820180604052508101906122ba9190615d45565b156122e657505060408051808201909152601e815260008051602061660e833981519152602082015290565b604051635f69a5dd60e11b815273__StringComp____________________________9063bed34bba9061231d9085906004016161dc565b602060405180830381865af415801561233a573d6000803e3d6000fd5b505050506040513d601f19601f8201168201806040525081019061235e9190615d45565b1561238a57505060408051808201909152601e815260008051602061660e833981519152602082015290565b604051635f69a5dd60e11b815273__StringComp____________________________9063bed34bba906123c190859060040161621b565b602060405180830381865af41580156123de573d6000803e3d6000fd5b505050506040513d601f19601f820116820180604052508101906124029190615d45565b1561243357505060408051808201909152601081526f4369656e63696173207920417274657360801b602082015290565b604051635f69a5dd60e11b815273__StringComp____________________________9063bed34bba9061246a908590600401616259565b602060405180830381865af4158015612487573d6000803e3d6000fd5b505050506040513d601f19601f820116820180604052508101906124ab9190615d45565b156124dc57505060408051808201909152601081526f4369656e63696173207920417274657360801b602082015290565b604051635f69a5dd60e11b815273__StringComp____________________________9063bed34bba90612513908590600401616295565b602060405180830381865af4158015612530573d6000803e3d6000fd5b505050506040513d601f19601f820116820180604052508101906125549190615d45565b1561258557505060408051808201909152601081526f4369656e63696173207920417274657360801b602082015290565b604051635f69a5dd60e11b815273__StringComp____________________________9063bed34bba906125bc9085906004016162d4565b602060405180830381865af41580156125d9573d6000803e3d6000fd5b505050506040513d601f19601f820116820180604052508101906125fd9190615d45565b1561262e57505060408051808201909152601081526f4369656e63696173207920417274657360801b602082015290565b604051635f69a5dd60e11b815273__StringComp____________________________9063bed34bba9061266590859060040161631b565b602060405180830381865af4158015612682573d6000803e3d6000fd5b505050506040513d601f19601f820116820180604052508101906126a69190615d45565b156126d257505060408051808201909152601e815260008051602061662e833981519152602082015290565b604051635f69a5dd60e11b815273__StringComp____________________________9063bed34bba9061270990859060040161635e565b602060405180830381865af4158015612726573d6000803e3d6000fd5b505050506040513d601f19601f8201168201806040525081019061274a9190615d45565b1561277657505060408051808201909152601e815260008051602061662e833981519152602082015290565b919050565b60606006805480602002602001604051908101604052809291908181526020016000905b8282101561290957838290600052602060002090600402016040518060800160405290816000820180546127d290615c81565b80601f01602080910402602001604051908101604052809291908181526020018280546127fe90615c81565b801561284b5780601f106128205761010080835404028352916020019161284b565b820191906000526020600020905b81548152906001019060200180831161282e57829003601f168201915b505050505081526020016001820154815260200160028201805461286e90615c81565b80601f016020809104026020016040519081016040528092919081815260200182805461289a90615c81565b80156128e75780601f106128bc576101008083540402835291602001916128e7565b820191906000526020600020905b8154815290600101906020018083116128ca57829003601f168201915b505050505081526020016003820154815250508152602001906001019061279f565b50505050905090565b61293660405180606001604052806060815260200160608152602001600081525090565b60005b6007548110156110105773__StringComp____________________________63bed34bba6007838154811061297057612970615c6b565b9060005260206000209060030201600101856040518363ffffffff1660e01b815260040161299f929190615d32565b602060405180830381865af41580156129bc573d6000803e3d6000fd5b505050506040513d601f19601f820116820180604052508101906129e09190615d45565b156129f8576007818154811061162a5761162a615c6b565b612a0181615d78565b9050612939565b612a2c60405180606001604052806060815260200160608152602001600081525090565b60005b600b83604051612a3f9190615c4f565b90815260405190819003602001902054811015610b535773__StringComp____________________________63bed34bba600b85604051612a809190615c4f565b90815260200160405180910390208381548110612a9f57612a9f615c6b565b9060005260206000209060030201600101866040518363ffffffff1660e01b8152600401612ace929190615d32565b602060405180830381865af4158015612aeb573d6000803e3d6000fd5b505050506040513d601f19601f82011682018060405250810190612b0f9190615d45565b15612b2457600b836040516109d59190615c4f565b612b2d81615d78565b9050612a2f565b60018054610b6890615c81565b612b6c6040518060800160405280606081526020016000815260200160608152602001600081525090565b60005b600654811015611010578260068281548110612b8d57612b8d615c6b565b90600052602060002090600402016001015403612d105760068181548110612bb757612bb7615c6b565b9060005260206000209060040201604051806080016040529081600082018054612be090615c81565b80601f0160208091040260200160405190810160405280929190818152602001828054612c0c90615c81565b8015612c595780601f10612c2e57610100808354040283529160200191612c59565b820191906000526020600020905b815481529060010190602001808311612c3c57829003601f168201915b5050505050815260200160018201548152602001600282018054612c7c90615c81565b80601f0160208091040260200160405190810160405280929190818152602001828054612ca890615c81565b8015612cf55780601f10612cca57610100808354040283529160200191612cf5565b820191906000526020600020905b815481529060010190602001808311612cd857829003601f168201915b50505050508152602001600382015481525050915050919050565b612d1981615d78565b9050612b6f565b6000828152600c6020526040902060020154600160281b900460ff1615612d595760405162461bcd60e51b8152600401610d1c90615e3a565b612d6282614bb8565b612d7e5760405162461bcd60e51b8152600401610d1c90615e68565b6002546001600160a01b03163314612da85760405162461bcd60e51b8152600401610d1c90615eb6565b6000612db382612b41565b9050600181606001818151612dc89190615f09565b9052506000838152600c60205260409020600201805465ff00000000001916600160281b179055610dbe836149df565b6002546001600160a01b03163314612e705760405162461bcd60e51b815260206004820152603560248201527f536f6c6f20656c206475656e6f2064656c20636f6e747261746f207075656465604482015274207265676973747261722063616e64696461746f7360581b6064820152608401610d1c565b612e7982614df3565b15612ec65760405162461bcd60e51b815260206004820152601760248201527f436f6e73656a65726f207961207265676973747261646f0000000000000000006044820152606401610d1c565b6040805160808101825284815260208101849052908101829052600060608201819052600680546001810182559152815160049091027ff652222313e28459528d920b65115c16c04f3efc82aaedc97be59f3f377c0d3f01908190612f2b90826163e0565b506020820151600182015560408201516002820190612f4a90826163e0565b50606082015181600301555050505050565b6000828152600d60205260408082209051612f78908490615c4f565b9081526040519081900360200190205460ff16905092915050565b6040805161018080820183526000808352606060208085018290528486018390529084018290526080840182905260a0840182905260c0840182905260e084018290526101008401829052610120840182905261014084018290526101608401829052858252600c8152848220855193840186528054845260018101805487518185028101850190985280885295969495919486840194909391929184015b828210156130de57838290600052602060002001805461305190615c81565b80601f016020809104026020016040519081016040528092919081815260200182805461307d90615c81565b80156130ca5780601f1061309f576101008083540402835291602001916130ca565b820191906000526020600020905b8154815290600101906020018083116130ad57829003601f168201915b505050505081526020019060010190613032565b50505090825250600282015460ff8082161515602084015261010080830482161515604085015262010000830482161515606085015263010000008304821615156080850152600160201b83048216151560a0850152600160281b83048216151560c0850152600160301b90920416151560e083015260038301549082015260048201546101208201526005909101546101409091015292915050565b6040516346b459c160e01b815260009073__PartyLib______________________________906346b459c190610ca4908590600790600401615f96565b60606005805480602002602001604051908101604052809291908181526020016000905b82821015612909578382906000526020600020906002020160405180604001604052908160008201805461320f90615c81565b80601f016020809104026020016040519081016040528092919081815260200182805461323b90615c81565b80156132885780601f1061325d57610100808354040283529160200191613288565b820191906000526020600020905b81548152906001019060200180831161326b57829003601f168201915b505050505081526020016001820180546132a190615c81565b80601f01602080910402602001604051908101604052809291908181526020018280546132cd90615c81565b801561331a5780601f106132ef5761010080835404028352916020019161331a565b820191906000526020600020905b8154815290600101906020018083116132fd57829003601f168201915b505050505081525050815260200190600101906131dc565b6060600061333f83611789565b6000848152600c602052604081206001015491925061335f82600261649f565b61336a846003615f09565b6133749190615f09565b90506000816001600160401b0381111561339057613390615132565b6040519080825280602002602001820160405280156133c357816020015b60608152602001906001900390816133ae5790505b509050604051806040016040528060138152602001724a756e7461204469726563746976612046434560681b8152508160008151811061340557613405615c6b565b60200260200101819052506040518060400160405280601081526020016f436f6f7264696e6163696f6e2046434560801b8152508160018151811061344c5761344c615c6b565b602002602001018190525060405180604001604052806011815260200170436f6e73656a6f2041636164656d69636f60781b8152508160028151811061349457613494615c6b565b60200260200101819052506000846001600160401b038111156134b9576134b9615132565b6040519080825280602002602001820160405280156134ec57816020015b60608152602001906001900390816134d75790505b509050600061351d886040518060400160405280600a815260200169496e67656e696572696160b01b815250612f5c565b1561356f576040518060400160405280600a815260200169496e67656e696572696160b01b81525082828151811061355757613557615c6b565b60200260200101819052508061356c90615d78565b90505b61359c886040518060400160405280601e815260200160008051602061660e833981519152815250612f5c565b156135ef576040518060400160405280601e815260200160008051602061660e8339815191528152508282815181106135d7576135d7615c6b565b6020026020010181905250806135ec90615d78565b90505b613621886040518060400160405280601081526020016f4369656e63696173207920417274657360801b815250612f5c565b15613679576040518060400160405280601081526020016f4369656e63696173207920417274657360801b81525082828151811061366157613661615c6b565b60200260200101819052508061367690615d78565b90505b6136a6886040518060400160405280601e815260200160008051602061662e833981519152815250612f5c565b156136f9576040518060400160405280601e815260200160008051602061662e8339815191528152508282815181106136e1576136e1615c6b565b6020026020010181905250806136f690615d78565b90505b60005b82518110156137795782818151811061371757613717615c6b565b602002602001015160405160200161372f91906164b6565b60408051601f198184030181529190528461374b836003615f09565b8151811061375b5761375b615c6b565b6020026020010181905250808061377190615d78565b9150506136fc565b5060005b6000898152600c6020526040902060010154811015613828576000898152600c602052604090206001018054829081106137b9576137b9615c6b565b906000526020600020016040516020016137d3919061656e565b60408051601f1981840301815291905284886137f0846003615f09565b6137fa9190615f09565b8151811061380a5761380a615c6b565b6020026020010181905250808061382090615d78565b91505061377d565b5060005b6000898152600c60205260409020600101548110156138e2576000898152600c6020526040902060010180548290811061386857613868615c6b565b906000526020600020016040516020016138829190616599565b60408051601f198184030181529190528487896138a0856003615f09565b6138aa9190615f09565b6138b49190615f09565b815181106138c4576138c4615c6b565b602002602001018190525080806138da90615d78565b91505061382c565b5091979650505050505050565b60606009826040516139019190615c4f565b9081526020016040518091039020805480602002602001604051908101604052809291908181526020016000905b82821015613a8f578382906000526020600020906003020160405180606001604052908160008201805461396290615c81565b80601f016020809104026020016040519081016040528092919081815260200182805461398e90615c81565b80156139db5780601f106139b0576101008083540402835291602001916139db565b820191906000526020600020905b8154815290600101906020018083116139be57829003601f168201915b505050505081526020016001820180546139f490615c81565b80601f0160208091040260200160405190810160405280929190818152602001828054613a2090615c81565b8015613a6d5780601f10613a4257610100808354040283529160200191613a6d565b820191906000526020600020905b815481529060010190602001808311613a5057829003601f168201915b505050505081526020016002820154815250508152602001906001019061392f565b505050509050919050565b60405163c1809b2360e01b815260009073__PartyLib______________________________9063c1809b2390610ca4908590600390600401615e15565b6000838152600c6020526040902060020154600160201b900460ff1615613b105760405162461bcd60e51b8152600401610d1c90615e3a565b613b1983614bb8565b613b355760405162461bcd60e51b8152600401610d1c90615e68565b6002546001600160a01b03163314613b5f5760405162461bcd60e51b8152600401610d1c90615eb6565b6000613b6b8284612a08565b604081018051919250613b7d82615d78565b9052506000848152600c60209081526040808320815161018081018352815481526001820180548451818702810187019095528085529194929385840193909290879084015b82821015613c6f578382906000526020600020018054613be290615c81565b80601f0160208091040260200160405190810160405280929190818152602001828054613c0e90615c81565b8015613c5b5780601f10613c3057610100808354040283529160200191613c5b565b820191906000526020600020905b815481529060010190602001808311613c3e57829003601f168201915b505050505081526020019060010190613bc3565b50505090825250600282015460ff8082161515602084015261010080830482161515604085015262010000830482161515606085015263010000008304821615156080850152600160201b83048216151560a0850152600160281b83048216151560c0850152600160301b90920416151560e083015260038301549082015260048201546101208201526005909101546101409182015281018051919250613d1682615f7f565b90525061014081015160000361145c576000858152600c60205260409020600201805464ff000000001916600160201b179055611465856149df565b613d5b82614bb8565b15613da05760405162461bcd60e51b8152602060048201526015602482015274566f74616e7465207961207265676973747261646f60581b6044820152606401610d1c565b6000828152600e602052604090205460ff16613dce5760405162461bcd60e51b8152600401610d1c90615e68565b6002546001600160a01b03163314613df85760405162461bcd60e51b8152600401610d1c90615eb6565b604080516101808101825283815260208082018481526000838501819052606084018190526080840181905260a0840181905260c0840181905260e084018190526101008401819052610120840181905261014084018190526101608401819052868152600c8352939093208251815592518051929392613e7f926001850192019061506d565b506040828101516002830180546060860151608087015160a088015160c089015160e08a0151610100808c015161ffff1990971698151561ff001916989098179415159097029390931763ffff00001916620100009215159290920263ff0000001916919091176301000000911515919091021765ffff000000001916600160201b9115159190910265ff0000000000191617600160281b931515939093029290921766ff0000000000001916600160301b9215159290920291909117905561012083015160038301556101408301516004830155610160909201516005909101556000838152600c6020908152828220835161018081018552815481526001820180548651818602810186019097528087526140ea9692959394868101949084015b8282101561404e578382906000526020600020018054613fc190615c81565b80601f0160208091040260200160405190810160405280929190818152602001828054613fed90615c81565b801561403a5780601f1061400f5761010080835404028352916020019161403a565b820191906000526020600020905b81548152906001019060200180831161401d57829003601f168201915b505050505081526020019060010190613fa2565b50505090825250600282015460ff8082161515602084015261010080830482161515604085015262010000830482161515606085015263010000008304821615156080850152600160201b83048216151560a0850152600160281b83048216151560c0850152600160301b90920416151560e083015260038301549082015260048201546101208201526005909101546101409091015261191f565b5050565b6002546001600160a01b031633146141185760405162461bcd60e51b8152600401610d1c90615eb6565b6000818152600e602052604090205460ff161561418e5760405162461bcd60e51b815260206004820152602e60248201527f566f74616e7465207961207265676973747261646f20656e20656c207265676960448201526d1cdd1c9bc8195b1958dd1bdc985b60921b6064820152608401610d1c565b6000908152600e60205260409020805460ff19166001179055565b600881815481106110a957600080fd5b6141dd60405180606001604052806060815260200160608152602001600081525090565b60005b600a836040516141f09190615c4f565b90815260405190819003602001902054811015610b535773__StringComp____________________________63bed34bba600a856040516142319190615c4f565b9081526020016040518091039020838154811061425057614250615c6b565b9060005260206000209060030201600101866040518363ffffffff1660e01b815260040161427f929190615d32565b602060405180830381865af415801561429c573d6000803e3d6000fd5b505050506040513d601f19601f820116820180604052508101906142c09190615d45565b156142d557600a836040516109d59190615c4f565b6142de81615d78565b90506141e0565b815160208184018101805160098252928201918501919091209190528054829081106114b857600080fd5b604051630f8ce3a760e11b815260009073__PartyLib______________________________90631f19c74e906118d790869086906005906004016154f4565b6002546040516314a4bab560e31b815273__PartyLib______________________________9163a525d5a89161106591869186916001600160a01b0316906005906004016165cb565b600581815481106143a857600080fd5b90600052602060002090600202016000915090508060000180546143cb90615c81565b80601f01602080910402602001604051908101604052809291908181526020018280546143f790615c81565b80156144445780601f1061441957610100808354040283529160200191614444565b820191906000526020600020905b81548152906001019060200180831161442757829003601f168201915b50505050509080600101805461445990615c81565b80601f016020809104026020016040519081016040528092919081815260200182805461448590615c81565b80156144d25780601f106144a7576101008083540402835291602001916144d2565b820191906000526020600020905b8154815290600101906020018083116144b557829003601f168201915b5050505050905082565b60606007805480602002602001604051908101604052809291908181526020016000905b82821015612909578382906000526020600020906003020160405180606001604052908160008201805461453390615c81565b80601f016020809104026020016040519081016040528092919081815260200182805461455f90615c81565b80156145ac5780601f10614581576101008083540402835291602001916145ac565b820191906000526020600020905b81548152906001019060200180831161458f57829003601f168201915b505050505081526020016001820180546145c590615c81565b80601f01602080910402602001604051908101604052809291908181526020018280546145f190615c81565b801561463e5780601f106146135761010080835404028352916020019161463e565b820191906000526020600020905b81548152906001019060200180831161462157829003601f168201915b5050505050815260200160028201548152505081526020019060010190614500565b604051636bd742d560e01b815260009073__PartyLib______________________________90636bd742d5906118d79086908690600a90600401615fb8565b6060600b826040516146b19190615c4f565b9081526020016040518091039020805480602002602001604051908101604052809291908181526020016000905b82821015613a8f578382906000526020600020906003020160405180606001604052908160008201805461471290615c81565b80601f016020809104026020016040519081016040528092919081815260200182805461473e90615c81565b801561478b5780601f106147605761010080835404028352916020019161478b565b820191906000526020600020905b81548152906001019060200180831161476e57829003601f168201915b505050505081526020016001820180546147a490615c81565b80601f01602080910402602001604051908101604052809291908181526020018280546147d090615c81565b801561481d5780601f106147f25761010080835404028352916020019161481d565b820191906000526020600020905b81548152906001019060200180831161480057829003601f168201915b50505050508152602001600282015481525050815260200190600101906146df565b6060600b826040516148519190615c4f565b9081526020016040518091039020805480602002602001604051908101604052809291908181526020016000905b82821015613a8f57838290600052602060002090600302016040518060600160405290816000820180546148b290615c81565b80601f01602080910402602001604051908101604052809291908181526020018280546148de90615c81565b801561492b5780601f106149005761010080835404028352916020019161492b565b820191906000526020600020905b81548152906001019060200180831161490e57829003601f168201915b5050505050815260200160018201805461494490615c81565b80601f016020809104026020016040519081016040528092919081815260200182805461497090615c81565b80156149bd5780601f10614992576101008083540402835291602001916149bd565b820191906000526020600020905b8154815290600101906020018083116149a057829003601f168201915b505050505081526020016002820154815250508152602001906001019061487f565b6000818152600c6020908152604080832081516101808101835281548152600182018054845181870281018701909552808552869592948584019390929190879084015b82821015614acf578382906000526020600020018054614a4290615c81565b80601f0160208091040260200160405190810160405280929190818152602001828054614a6e90615c81565b8015614abb5780601f10614a9057610100808354040283529160200191614abb565b820191906000526020600020905b815481529060010190602001808311614a9e57829003601f168201915b505050505081526020019060010190614a23565b50505090825250600282015460ff808216151560208401526101008083048216151560408501526201000083048216151560608086019190915263010000008404831615156080860152600160201b84048316151560a0860152600160281b84048316151560c0860152600160301b909304909116151560e08401526003840154908301526004830154610120830152600590920154610140909101528101519091508015614b7f575080608001515b8015614b8c57508060a001515b8015614b9957508060c001515b8015614ba657508060e001515b80156119185750610100015192915050565b6000818152600c6020526040812054829003614bd657506001919050565b506000919050565b614c096040518060800160405280606081526020016000815260200160608152602001600081525090565b60005b600654811015611010578260068281548110614c2a57614c2a615c6b565b90600052602060002090600402016001015403614c545760068181548110612bb757612bb7615c6b565b614c5d81615d78565b9050614c0c565b604051630d86782f60e31b815260009073__PartyLib______________________________90636c33c178906118d79086908690600b90600401615fb8565b60068181548110614cb357600080fd5b9060005260206000209060040201600091509050806000018054614cd690615c81565b80601f0160208091040260200160405190810160405280929190818152602001828054614d0290615c81565b8015614d4f5780601f10614d2457610100808354040283529160200191614d4f565b820191906000526020600020905b815481529060010190602001808311614d3257829003601f168201915b505050505090806001015490806002018054614d6a90615c81565b80601f0160208091040260200160405190810160405280929190818152602001828054614d9690615c81565b8015614de35780601f10614db857610100808354040283529160200191614de3565b820191906000526020600020905b815481529060010190602001808311614dc657829003601f168201915b5050505050908060030154905084565b6000805b600654811015614e45578260068281548110614e1557614e15615c6b565b90600052602060002090600402016001015403614e355750600192915050565b614e3e81615d78565b9050614df7565b50600092915050565b60606008805480602002602001604051908101604052809291908181526020016000905b828210156129095783829060005260206000209060030201604051806060016040529081600082018054614ea590615c81565b80601f0160208091040260200160405190810160405280929190818152602001828054614ed190615c81565b8015614f1e5780601f10614ef357610100808354040283529160200191614f1e565b820191906000526020600020905b815481529060010190602001808311614f0157829003601f168201915b50505050508152602001600182018054614f3790615c81565b80601f0160208091040260200160405190810160405280929190818152602001828054614f6390615c81565b8015614fb05780601f10614f8557610100808354040283529160200191614fb0565b820191906000526020600020905b815481529060010190602001808311614f9357829003601f168201915b5050505050815260200160028201548152505081526020019060010190614e72565b60025460405163dbae081360e01b815273__PartyLib______________________________9163dbae081391610c359185916001600160a01b0390911690600790600590600401615d91565b600254604051635766dd4d60e11b815273__PartyLib______________________________9163aecdba9a9161106591869186916001600160a01b031690600a90600590600390600401615f1c565b8280548282559060005260206000209081019282156150b3579160200282015b828111156150b357825182906150a390826163e0565b509160200191906001019061508d565b506150bf9291506150c3565b5090565b808211156150bf5760006150d782826150e0565b506001016150c3565b5080546150ec90615c81565b6000825580601f106150fc575050565b601f01602090049060005260206000209081019061511a919061511d565b50565b5b808211156150bf576000815560010161511e565b634e487b7160e01b600052604160045260246000fd5b60405161018081016001600160401b038111828210171561516b5761516b615132565b60405290565b604051601f8201601f191681016001600160401b038111828210171561519957615199615132565b604052919050565b600082601f8301126151b257600080fd5b81356001600160401b038111156151cb576151cb615132565b6151de601f8201601f1916602001615171565b8181528460208386010111156151f357600080fd5b816020850160208301376000918101602001919091529392505050565b6000806040838503121561522357600080fd5b82356001600160401b038082111561523a57600080fd5b615246868387016151a1565b9350602085013591508082111561525c57600080fd5b50615269858286016151a1565b9150509250929050565b60005b8381101561528e578181015183820152602001615276565b50506000910152565b600081518084526152af816020860160208601615273565b601f01601f19169290920160200192915050565b60008151606084526152d86060850182615297565b9050602083015184820360208601526152f18282615297565b915050604083015160408501528091505092915050565b60208152600061191860208301846152c3565b6020815260006119186020830184615297565b60006040828403121561534057600080fd5b604051604081016001600160401b03828210818311171561536357615363615132565b81604052829350843591508082111561537b57600080fd5b615387868387016151a1565b8352602085013591508082111561539d57600080fd5b506153aa858286016151a1565b6020830152505092915050565b6000602082840312156153c957600080fd5b81356001600160401b038111156153df57600080fd5b6118908482850161532e565b6000602082840312156153fd57600080fd5b81356001600160401b0381111561541357600080fd5b611890848285016151a1565b6000806040838503121561543257600080fd5b8235915060208301356001600160401b0381111561544f57600080fd5b615269858286016151a1565b60008151604084526154706040850182615297565b9050602083015184820360208601526154898282615297565b95945050505050565b602081526000611918602083018461545b565b600080604083850312156154b857600080fd5b82356001600160401b03808211156154cf57600080fd5b6152468683870161532e565b6000602082840312156154ed57600080fd5b5035919050565b6060815260006155076060830186615297565b82810360208401526155198186615297565b915050826040830152949350505050565b60008060006060848603121561553f57600080fd5b8335925060208401356001600160401b038082111561555d57600080fd5b615569878388016151a1565b9350604086013591508082111561557f57600080fd5b5061558c868287016151a1565b9150509250925092565b600080604083850312156155a957600080fd5b82356001600160401b038111156155bf57600080fd5b6155cb858286016151a1565b95602094909401359450505050565b600082601f8301126155eb57600080fd5b813560206001600160401b038083111561560757615607615132565b8260051b615616838201615171565b938452858101830193838101908886111561563057600080fd5b84880192505b8583101561566c5782358481111561564e5760008081fd5b61565c8a87838c01016151a1565b8352509184019190840190615636565b98975050505050505050565b801515811461511a57600080fd5b803561277681615678565b6000602082840312156156a357600080fd5b81356001600160401b03808211156156ba57600080fd5b9083019061018082860312156156cf57600080fd5b6156d7615148565b823581526020830135828111156156ed57600080fd5b6156f9878286016155da565b60208301525061570b60408401615686565b604082015261571c60608401615686565b606082015261572d60808401615686565b608082015261573e60a08401615686565b60a082015261574f60c08401615686565b60c082015261576060e08401615686565b60e08201526101009150615775828401615686565b918101919091526101208281013590820152610140808301359082015261016091820135918101919091529392505050565b60008151608084526157bc6080850182615297565b905060208301516020850152604083015184820360408601526157df8282615297565b915050606083015160608501528091505092915050565b6000602080830181845280855180835260408601915060408160051b870101925083870160005b8281101561584b57603f198886030184526158398583516157a7565b9450928501929085019060010161581d565b5092979650505050505050565b60208152600061191860208301846157a7565b6000806040838503121561587e57600080fd5b50508035926020909101359150565b6000806000606084860312156158a257600080fd5b83356001600160401b03808211156158b957600080fd5b6158c5878388016151a1565b945060208601359350604086013591508082111561557f57600080fd5b600081518084526020808501808196508360051b8101915082860160005b858110156138e2578284038952615918848351615297565b98850198935090840190600101615900565b6020815281516020820152600060208301516101808060408501526159536101a08501836158e2565b91506040850151615968606086018215159052565b506060850151801515608086015250608085015180151560a08601525060a085015180151560c08601525060c085015180151560e08601525060e08501516101006159b68187018315159052565b86015190506101206159cb8682018315159052565b86015161014086810191909152860151610160808701919091529095015193019290925250919050565b6000602080830181845280855180835260408601915060408160051b870101925083870160005b8281101561584b57603f19888603018452615a3885835161545b565b94509285019290850190600101615a1c565b60208152600061191860208301846158e2565b6000602080830181845280855180835260408601915060408160051b870101925083870160005b8281101561584b57603f19888603018452615aa08583516152c3565b94509285019290850190600101615a84565b60008060408385031215615ac557600080fd5b8235915060208301356001600160401b03811115615ae257600080fd5b615269858286016155da565b604081526000615b016040830185615297565b82810360208401526154898185615297565b6000602080830181845280855180835260408601915060408160051b870101925083870160005b8281101561584b57603f19888603018452615b568583516152c3565b94509285019290850190600101615b3a565b6000602080830181845280855180835260408601915060408160051b870101925083870160005b8281101561584b57603f19888603018452615bab8583516152c3565b94509285019290850190600101615b8f565b608081526000615bd06080830187615297565b8560208401528281036040840152615be88186615297565b91505082606083015295945050505050565b6000602080830181845280855180835260408601915060408160051b870101925083870160005b8281101561584b57603f19888603018452615c3d8583516152c3565b94509285019290850190600101615c21565b60008251615c61818460208701615273565b9190910192915050565b634e487b7160e01b600052603260045260246000fd5b600181811c90821680615c9557607f821691505b60208210810361101057634e487b7160e01b600052602260045260246000fd5b60008154615cc281615c81565b808552602060018381168015615cdf5760018114615cf957615d27565b60ff1985168884015283151560051b880183019550615d27565b866000528260002060005b85811015615d1f5781548a8201860152908301908401615d04565b890184019650505b505050505092915050565b604081526000615b016040830185615cb5565b600060208284031215615d5757600080fd5b815161191881615678565b634e487b7160e01b600052601160045260246000fd5b600060018201615d8a57615d8a615d62565b5060010190565b608081526000615da4608083018761545b565b6001600160a01b03959095166020830152506040810192909252606090910152919050565b600081548084526020808501808196508360051b81019150856000528260002060005b858110156138e2578284038952615e038483615cb5565b98850198935060019182019101615dec565b604081526000615e286040830185615297565b82810360208401526154898185615dc9565b602080825260149082015273566f74616e746520796120686120766f7461646f60601b604082015260600190565b6020808252602e908201527f566f74616e7465206e6f207265676973747261646f20656e20656c207265676960408201526d1cdd1c9bc8195b1958dd1bdc985b60921b606082015260800190565b60208082526033908201527f536f6c6f20656c206475656e6f2064656c20636f6e747261746f2070756564656040820152722072656769737472617220766f74616e74657360681b606082015260800190565b80820180821115610b5557610b55615d62565b60c081526000615f2f60c083018961545b565b8281036020840152615f418189615297565b6001600160a01b0388166040850152606084018790526080840186905283810360a08501529050615f728185615dc9565b9998505050505050505050565b600081615f8e57615f8e615d62565b506000190190565b604081526000615fa9604083018561545b565b90508260208301529392505050565b606081526000615507606083018661545b565b604081526000615fde6040830184615297565b8281036020840152600c81526b496e672e205175696d69636160a01b60208201526040810191505092915050565b60408152600061601f6040830184615297565b8281036020840152601081526f496e672e2064652053697374656d617360801b60208201526040810191505092915050565b6040815260006160646040830184615297565b8281036020840152600a815269125b99cb8810da5d9a5b60b21b60208201526040810191505092915050565b6040815260006160a36040830184615297565b8281036020840152600d81526c496e672e204d6563616e69636160981b60208201526040810191505092915050565b6040815260006160e56040830184615297565b8281036020840152601281527124b7339710323290283937b23ab1b1b4b7b760711b60208201526040810191505092915050565b60408152600061612c6040830184615297565b8281036020840152600e81526d496e672e20456c6563747269636160901b60208201526040810191505092915050565b60408152600061616f6040830184615297565b8281036020840152600e81526d20b236b4b734b9ba3930b1b4b7b760911b60208201526040810191505092915050565b6040815260006161b26040830184615297565b8281036020840152600881526745636f6e6f6d696160c01b60208201526040810191505092915050565b6040815260006161ef6040830184615297565b8281036020840152600a815269436f6e7461647572696160b01b60208201526040810191505092915050565b60408152600061622e6040830184615297565b8281036020840152600981526822b23ab1b0b1b4b7b760b91b60208201526040810191505092915050565b60408152600061626c6040830184615297565b828103602084015260078152664964696f6d617360c81b60208201526040810191505092915050565b6040815260006162a86040830184615297565b8281036020840152600a815269507369636f6c6f67696160b01b60208201526040810191505092915050565b6040815260006162e76040830184615297565b828103602084015260128152714d6174652e20496e647573747269616c657360701b60208201526040810191505092915050565b60408152600061632e6040830184615297565b8281036020840152600e81526d4573742e204c69626572616c657360901b60208201526040810191505092915050565b6040815260006163716040830184615297565b828103602084015260078152664465726563686f60c81b60208201526040810191505092915050565b601f821115610de057600081815260208120601f850160051c810160208610156163c15750805b601f850160051c820191505b81811015611091578281556001016163cd565b81516001600160401b038111156163f9576163f9615132565b61640d816164078454615c81565b8461639a565b602080601f831160018114616442576000841561642a5750858301515b600019600386901b1c1916600185901b178555611091565b600085815260208120601f198616915b8281101561647157888601518255948401946001909101908401616452565b508582101561648f5787850151600019600388901b60f8161c191681555b5050505050600190811b01905550565b8082028115828204841417610b5557610b55615d62565b7f436f6e73656a6f20646520466163756c746164206465200000000000000000008152600082516164ee816017850160208701615273565b9190910160170192915050565b6000815461650881615c81565b60018281168015616520576001811461653557616564565b60ff1984168752821515830287019450616564565b8560005260208060002060005b8581101561655b5781548a820152908401908201616542565b50505082870194505b5050505092915050565b75021b7b739b2b5379032329022b9b1bab2b630903232960551b8152600061191860168301846164fb565b7f43656e74726f20646520457374756469616e74657320646520000000000000008152600061191860198301846164fb565b6080815260006165de6080830187615297565b82810360208401526165f08187615297565b6001600160a01b039590951660408401525050606001529291505056fe4369656e636961732045636f6e6f6d69636173207920536f6369616c657300004573747564696f73204a7572696469636f73207920506f6c697469636f730000a2646970667358221220d2534e0d0a5824a274c53f435332b71169f854f065bb5327562b6597f931692a64736f6c63430008110033",
  "immutableReferences": {},
  "source": "// SPDX-License-Identifier: UNLICENSED\npragma solidity ^0.8.0;\nimport \"./PartyLib.sol\";\nimport \"./StringComp.sol\";\n\n\ncontract Election {\n    using PartyLib for *;\n    using StringComp for *;\n    // Para llevar control de cada estado\n\n    // TODO: esto es para despues\n    // enum WorkflowStatus {\n    //     RegisteringVoters,\n    //     VotingSessionStarted,\n    //     VotingSessionEnded,\n    //     VotesTallied\n    // }\n\n    // modifier onlyRegisteredVoter() {\n    //     require(\n    //         votantes[msg.sender],\n    //         \"Only registered voters can call this function.\"\n    //     );\n    //     _;\n    // }\n\n    // modifier onlyDuringVotingSession() {\n    //     require(\n    //         workflowStatus == WorkflowStatus.VotingSessionStarted,\n    //         \"this function can be called only during voting sessions.\"\n    //     );\n    //     _;\n    // }\n\n    // event VoterRegisteredEvent(address voterAddress);\n    // event CandidateRegisteredEvent(uint256 candidateId);\n    // event VotingSessionStartedEvent();\n    // event VotingSessionEndedEvent();\n    // event VotedEvent(address voter, uint256 proposalId);\n    // event VotesTalliedEvent();\n\n    // event WorkflowStatusChangeEvent(\n    //     WorkflowStatus previousStatus,\n    //     WorkflowStatus newStatus\n    // );\n\n    constructor() {\n        owner = msg.sender;\n    }\n\n    modifier onlyOwner() {\n        require(msg.sender == owner, \"Only owner can call this function.\");\n        _;\n    }\n\n\n\n    // Election details\n\n    string public name;\n    string public description;\n\n    address public owner;\n\n    string[] private escuelas = [\n        \"Ing. Quimica\",\n        \"Ing. de Sistemas\",\n        \"Ing. Civil\",\n        \"Ing. Mecanica\",\n        \"Ing. de Produccion\",\n        \"Ing. Electrica\",\n        \"Administracion\",\n        \"Contaduria\",\n        \"Economia\",\n        \"Educacion\",\n        \"Idiomas\",\n        \"Psicolologia\",\n        \"Mate. Industriales\",\n        \"Est. Liberales\",\n        \"Derecho\"\n    ];\n\n    string[] private facultades = [\n        \"Ingenieria\",\n        \"Ciencias Economicas y Sociales\",\n        \"Ciencias y Artes\",\n        \"Estudios Juridicos y Politicos\"\n    ];\n\n\n    // Agrupaciones\n\n    // struct PartyLib.Party {\n    //     string name;\n    //     string siglas;\n    // }\n\n    // struct PartyLib.CandidateConsejero {\n    //     string nombre;\n    //     uint id;\n    //     string degree;\n    //     uint voteCount;\n    // }\n\n    // struct PartyLib.CandidateConsejoFacultad {\n    //     string nombreAgrupacion;\n    //     string siglasAgrupacion;\n    //     uint voteCount;\n    // }\n\n    // struct PartyLib.CandidateConsejoEscuela {\n    //     string nombreAgrupacion;\n    //     string siglasAgrupacion;\n    //     uint voteCount;\n    // }\n\n    // struct CandidateCentroEstudiantes {\n    //     string nombreAgrupacion;\n    //     string siglasAgrupacion;\n    //     uint voteCount;\n    // }\n\n    // struct PartyLib.CandidateJuntaDirectiva {\n    //     string nombreAgrupacion;\n    //     string siglasAgrupacion;\n    //     uint voteCount;\n    // }\n\n    // struct PartyLib.CandidateCoordinacion {\n    //     string nombreAgrupacion;\n    //     string siglasAgrupacion;\n    //     uint voteCount;\n    // }   \n\n    PartyLib.Party[] public agrupacionesRegistradas;\n\n    PartyLib.CandidateConsejero[] public candidatosConsejoAcademico;\n    PartyLib.CandidateJuntaDirectiva[] public candidatosJuntaDirectivaFCE;\n    PartyLib.CandidateCoordinacion[] public candidatosCoordinacionFCE;\n\n    mapping (string => PartyLib.CandidateConsejoFacultad[]) public candidatosConsejoFacultad;\n    mapping (string => PartyLib.CandidateConsejoEscuela[]) public candidatosConsejoEscuela;\n    mapping (string => PartyLib.CandidateCentroEstudiantes[]) public candidatosCentroEstudiante;\n\n    // TODO: Para los check puedo quitar la comparacion de las siglas para que sea mas eficiente, aunque quizas seria mejor\n    // hacer la comparacion pero con un OR para que no se repitan siglas\n    function addAgrupacion(string memory _name, string memory _siglas) public {\n        PartyLib.addAgrupacion(_name, _siglas, owner, agrupacionesRegistradas);\n    }\n\n    function checkAgrupacion(string memory _name, string memory _siglas) public view returns (bool result) {\n        return PartyLib.checkAgrupacion(_name, _siglas, agrupacionesRegistradas);\n    }\n\n    function getAgrupaciones() public view returns (PartyLib.Party[] memory) {\n        return agrupacionesRegistradas;\n    }\n\n    function getAgrupacion(string memory _name) public view returns (PartyLib.Party memory agrupacion) {\n        for (uint i = 0; i < agrupacionesRegistradas.length; ++i) {\n            if(StringComp.compareStrings(agrupacionesRegistradas[i].name, _name)) {\n                return agrupacionesRegistradas[i];\n            }\n        }\n    }\n\n    function addConsejoFacultad(PartyLib.Party memory _agrupacion, string memory _facultad) public {\n        PartyLib.addConsejoFacultad(_agrupacion, _facultad, owner, candidatosConsejoFacultad, agrupacionesRegistradas, facultades);\n    }\n\n    function checkConsejoFacultad(PartyLib.Party memory _agrupacion, string memory _facultad) public view returns (bool result) {\n        return PartyLib.checkConsejoFacultad(_agrupacion, _facultad, candidatosConsejoFacultad);\n    }\n\n    function checkInFacultades(string memory _facultad) public view returns (bool result) {\n        return PartyLib.checkInFacultades(_facultad, facultades);\n    }\n\n    function addConsejoEscuela(PartyLib.Party memory _agrupacion, string memory _escuela) public {\n        PartyLib.addConsejoEscuela(_agrupacion, _escuela, owner, candidatosConsejoEscuela, agrupacionesRegistradas, escuelas);\n    }\n\n    function checkConsejoEscuela(PartyLib.Party memory _agrupacion, string memory _escuela) public view returns (bool result) {\n        return PartyLib.checkConsejoEscuela(_agrupacion, _escuela, candidatosConsejoEscuela);\n    }\n\n    function checkInEscuelas(string memory _escuela) public view returns (bool result) {\n        return PartyLib.checkInEscuelas(_escuela, escuelas);\n    }\n\n    function addCentroEstudiantes(PartyLib.Party memory _agrupacion, string memory _escuela) public {\n        PartyLib.addCentroEstudiantes(_agrupacion, _escuela, owner, candidatosCentroEstudiante, agrupacionesRegistradas, escuelas);\n    }\n\n    function checkCentroEstudiantes(PartyLib.Party memory _agrupacion, string memory _escuela) public view returns (bool result) {\n        return PartyLib.checkCentroEstudiantes(_agrupacion, _escuela, candidatosCentroEstudiante);\n    }\n\n    function addJuntaDirectivaFCE(PartyLib.Party memory _agrupacion) public {\n        PartyLib.addJuntaDirectivaFCE(_agrupacion, owner, candidatosJuntaDirectivaFCE, agrupacionesRegistradas);\n    }\n\n    function checkJuntaDirectiva(PartyLib.Party memory _agrupacion) public view returns (bool result) {\n        return PartyLib.checkJuntaDirectiva(_agrupacion, candidatosJuntaDirectivaFCE);\n    }\n\n    function addCoordinacionFCE(PartyLib.Party memory _agrupacion) public {\n        PartyLib.addCoordinacionFCE(_agrupacion, owner, candidatosCoordinacionFCE, agrupacionesRegistradas);\n    }\n\n    function checkCoordinacion(PartyLib.Party memory _agrupacion) public view returns (bool result) {\n        return PartyLib.checkCoordinacion(_agrupacion, candidatosCoordinacionFCE);\n    }\n\n    function addConsejeroAcademico(string memory _name, uint _id, string memory _major) public {\n        require(msg.sender == owner, \"Solo el dueno del contrato puede registrar candidatos\");\n        require(!checkConsejeroAcademico(_id), \"Consejero ya registrado\");\n        candidatosConsejoAcademico.push(PartyLib.CandidateConsejero(_name, _id, _major, 0));\n    }\n\n    function checkConsejeroAcademico(uint _id) public view returns (bool) {\n        for (uint i = 0; i < candidatosConsejoAcademico.length; ++i) {\n            if (candidatosConsejoAcademico[i].id == _id) {\n                return true;\n            }\n        }\n        return false;\n    }\n\n    function getCandidateConsejoAcademico(uint _id) public view returns (PartyLib.CandidateConsejero memory candidate) {\n        for (uint i = 0; i < candidatosConsejoAcademico.length; ++i) {\n            if (candidatosConsejoAcademico[i].id == _id) {\n                return candidatosConsejoAcademico[i];\n            }\n        }\n    }\n\n    function getAllCandidatesConsejoAcademico() public view returns (PartyLib.CandidateConsejero[] memory) {\n        return candidatosConsejoAcademico;\n    }\n\n    function getCandidatosConsejoFacultad(string memory _facultad) public view returns (PartyLib.CandidateConsejoFacultad[] memory) {\n        return candidatosConsejoFacultad[_facultad];\n    }\n\n    function getCandidatosConsejoEscuela(string memory _escuela) public view returns (PartyLib.CandidateCentroEstudiantes[] memory) {\n        return candidatosCentroEstudiante[_escuela];\n    }\n\n    function getCandidatosCentroEstudiante(string memory _escuela) public view returns (PartyLib.CandidateCentroEstudiantes[] memory) {\n        return candidatosCentroEstudiante[_escuela];\n    }\n\n    function getCandidatosdCoordinacionFCE() public view returns (PartyLib.CandidateCoordinacion[] memory) {\n        return candidatosCoordinacionFCE;\n    }\n\n    function getCandidatosJuntaDirectivaFCE() public view returns (PartyLib.CandidateJuntaDirectiva[] memory) {\n        return candidatosJuntaDirectivaFCE;\n    }\n\n    function getJuntaDirectivaFCE(string memory _siglas) public view returns (PartyLib.CandidateJuntaDirectiva memory junta) {\n        for (uint i = 0; i < candidatosJuntaDirectivaFCE.length; ++i) {\n            if (StringComp.compareStrings(candidatosJuntaDirectivaFCE[i].siglasAgrupacion, _siglas)) {\n                return candidatosJuntaDirectivaFCE[i];\n            }\n        }\n    }\n\n    function getCoordinacionFCE(string memory _siglas) public view returns (PartyLib.CandidateCoordinacion memory coordinacion) {\n        for (uint i = 0; i < candidatosCoordinacionFCE.length; ++i) {\n            if (StringComp.compareStrings(candidatosCoordinacionFCE[i].siglasAgrupacion, _siglas)) {\n                return candidatosCoordinacionFCE[i];\n            }\n        }\n    }\n\n    function getCentroEstudiantes(string memory _siglas, string memory _escuela) public view returns (PartyLib.CandidateCentroEstudiantes memory centro) {\n        for (uint i = 0; i < candidatosCentroEstudiante[_escuela].length; ++i) {\n            if (StringComp.compareStrings(candidatosCentroEstudiante[_escuela][i].siglasAgrupacion, _siglas)) {\n                return candidatosCentroEstudiante[_escuela][i];\n            }\n        }\n    }\n\n    function getConsejoFacultad(string memory _siglas, string memory _facultad) public view returns (PartyLib.CandidateConsejoFacultad memory consejo) {\n        for (uint i = 0; i < candidatosConsejoFacultad[_facultad].length; ++i) {\n            if (StringComp.compareStrings(candidatosConsejoFacultad[_facultad][i].siglasAgrupacion, _siglas)) {\n                return candidatosConsejoFacultad[_facultad][i];\n            }\n\n        }\n    }\n\n    function getConsejeroAcademico(uint _id) public view returns (PartyLib.CandidateConsejero memory consejero) {\n        for (uint i = 0; i < candidatosConsejoAcademico.length; ++i) {\n            if (candidatosConsejoAcademico[i].id == _id) {\n                return candidatosConsejoAcademico[i];\n            }\n        }\n    }\n\n    function getConsejoEscuela(string memory _siglas, string memory _escuela) public view returns (PartyLib.CandidateConsejoEscuela memory consejo) {\n        for (uint i = 0; i < candidatosConsejoEscuela[_escuela].length; ++i) {\n            if (StringComp.compareStrings(candidatosConsejoEscuela[_escuela][i].siglasAgrupacion, _siglas)) {\n                return candidatosConsejoEscuela[_escuela][i];\n            }\n        }\n    }\n\n\n    // Votantes\n\n    struct Votante {\n        uint id;\n        string[] carreras;\n        bool voted;\n        bool votoCoordinacion;\n        bool votoJuntaDirectiva;\n        bool votoConsejoFacultad;\n        bool votoCentroEstudiantes;\n        bool votoConsejoAcademico;\n        bool votoConsejoEscuela;\n        uint votosConsejoEscuela;\n        uint votosCentroEstudiantes;\n        uint votosFacultad;\n    }\n\n\n    mapping (uint => Votante) votantes;\n    mapping (uint => mapping (string => bool)) votantesFacultades;\n    mapping (uint => bool) registroElectoral;\n    // mapping(address => Voter) public voters;\n    // Candidate[] public candidates;\n    // string[] public parties;\n    // WorkflowStatus public workflowStatus;\n    // string[] public voterRegistry;\n\n    function addVotante(uint _id, string[] memory _carreras) public {\n        require(!checkRegisteredVoter(_id), \"Votante ya registrado\");\n        require(inRegistroElectoral(_id), \"Votante no registrado en el registro electoral\");\n        require(msg.sender == owner, \"Solo el dueno del contrato puede registrar votantes\");\n        votantes[_id] = Votante(_id, _carreras, false, false, false, false, false, false, false,0,0,0);\n        registerVotanteFacultad(votantes[_id]);\n    }\n\n    function checkListoVotando(uint _id) public view returns (bool) {\n        Votante memory votante = votantes[_id];\n        return votante.votoCoordinacion && votante.votoJuntaDirectiva && votante.votoConsejoFacultad && votante.votoCentroEstudiantes && votante.votoConsejoAcademico && votante.votoConsejoEscuela;\n    }\n\n// TODO: implementar voto nulo\n    function voteJunta(uint _id, string memory _siglas) public {\n        require(!votantes[_id].voted, \"Votante ya ha votado\");\n        require(checkRegisteredVoter(_id), \"Votante no registrado en el registro electoral\");\n        require(msg.sender == owner, \"Solo el dueno del contrato puede registrar votantes\");\n        PartyLib.CandidateJuntaDirectiva memory candidato = getJuntaDirectivaFCE(_siglas);\n        candidato.voteCount += 1;\n        votantes[_id].votoJuntaDirectiva = true;\n        if (checkListoVotando(_id)) {\n            votantes[_id].voted = true;\n        }\n    }\n\n    function voteCoordinacion(uint _id, string memory _siglas) public {\n        require(!votantes[_id].votoCoordinacion, \"Votante ya ha votado\");\n        require(checkRegisteredVoter(_id), \"Votante no registrado en el registro electoral\");\n        require(msg.sender == owner, \"Solo el dueno del contrato puede registrar votantes\");\n        PartyLib.CandidateCoordinacion memory candidato = getCoordinacionFCE(_siglas);\n        candidato.voteCount += 1;\n        votantes[_id].votoCoordinacion = true;\n        if (checkListoVotando(_id)) {\n            votantes[_id].voted = true;\n        }\n    }\n// TODO: creo que esta vaina es cero eficiente y me esta tumbando el contrato\n\n    function voteConsejoAcademico(uint _id, uint _idCandidato) public {\n        require(!votantes[_id].votoConsejoAcademico, \"Votante ya ha votado\");\n        require(checkRegisteredVoter(_id), \"Votante no registrado en el registro electoral\");\n        require(msg.sender == owner, \"Solo el dueno del contrato puede registrar votantes\");\n        PartyLib.CandidateConsejero memory candidato = getConsejeroAcademico(_idCandidato);\n        candidato.voteCount += 1;\n        votantes[_id].votoConsejoAcademico = true;\n        if (checkListoVotando(_id)) {\n            votantes[_id].voted = true;\n        }\n    }\n\n    function voteConsejoFacultad(uint _id, string memory _facultad, string memory _siglas) public {\n        require(!votantes[_id].votoConsejoFacultad, \"Votante ya ha votado\");\n        require(checkRegisteredVoter(_id), \"Votante no registrado en el registro electoral\");\n        require(msg.sender == owner, \"Solo el dueno del contrato puede registrar votantes\");\n        PartyLib.CandidateConsejoFacultad memory candidato = getConsejoFacultad(_siglas, _facultad);\n        candidato.voteCount++;\n        Votante memory votante = votantes[_id];\n        votante.votosFacultad--;\n        if (votante.votosFacultad == 0) {\n            votantes[_id].votoConsejoFacultad = true;\n        }\n        if (checkListoVotando(_id)) {\n            votantes[_id].voted = true;\n        }\n    }\n\n    function voteConsejoEscuela(uint _id, string memory _escuela, string memory _siglas) public {\n        require(!votantes[_id].votoConsejoEscuela, \"Votante ya ha votado\");\n        require(checkRegisteredVoter(_id), \"Votante no registrado en el registro electoral\");\n        require(msg.sender == owner, \"Solo el dueno del contrato puede registrar votantes\");\n        PartyLib.CandidateConsejoEscuela memory candidato = getConsejoEscuela(_siglas, _escuela);\n        candidato.voteCount++;\n        Votante memory votante = votantes[_id];\n        votante.votosConsejoEscuela--;\n        if (votante.votosConsejoEscuela == 0) {\n            votantes[_id].votoConsejoEscuela = true;\n        }\n        if (checkListoVotando(_id)) {\n            votantes[_id].voted = true;\n        }\n    }\n\n    function voteCentroEstudiantes(uint _id, string memory _escuela, string memory _siglas) public {\n        require(!votantes[_id].votoCentroEstudiantes, \"Votante ya ha votado\");\n        require(checkRegisteredVoter(_id), \"Votante no registrado en el registro electoral\");\n        require(msg.sender == owner, \"Solo el dueno del contrato puede registrar votantes\");\n        PartyLib.CandidateCentroEstudiantes memory candidato = getCentroEstudiantes(_siglas, _escuela);\n        candidato.voteCount++;\n        Votante memory votante = votantes[_id];\n        votante.votosCentroEstudiantes--;\n        if (votante.votosCentroEstudiantes == 0) {\n            votantes[_id].votoCentroEstudiantes = true;\n        }\n        if (checkListoVotando(_id)) {\n            votantes[_id].voted = true;\n        }\n    }\n\n    function registerVotanteFacultad(Votante memory _votante) public {\n        string[] memory carreras = _votante.carreras;\n        for (uint i = 0; i < carreras.length; ++i) {\n            if (!votantesFacultades[_votante.id][getFacultadCarrera(carreras[i])]){\n                votantesFacultades[_votante.id][getFacultadCarrera(carreras[i])] = true;\n                _votante.votosFacultad++;\n            }\n            _votante.votosConsejoEscuela++;\n            _votante.votosCentroEstudiantes++;\n        }\n    }\n\n    function getFacultadCarrera(string memory _carrera) public pure returns (string memory facCarrera) {\n\n        if (StringComp.compareStrings(_carrera, \"Ing. Quimica\")) {\n            return \"Ingenieria\";\n        } else if (StringComp.compareStrings(_carrera, \"Ing. de Sistemas\")) {\n            return \"Ingenieria\";\n        } else if (StringComp.compareStrings(_carrera, \"Ing. Civil\")) {\n            return \"Ingenieria\";\n        } else if (StringComp.compareStrings(_carrera, \"Ing. Mecanica\")) {\n            return \"Ingenieria\";\n        } else if (StringComp.compareStrings(_carrera, \"Ing. de Produccion\")) {\n            return \"Ingenieria\";\n        } else if (StringComp.compareStrings(_carrera, \"Ing. Electrica\")) {\n            return \"Ingenieria\";\n        } else if (StringComp.compareStrings(_carrera, \"Administracion\")) {\n            return \"Ciencias Economicas y Sociales\";\n        } else if (StringComp.compareStrings(_carrera, \"Economia\")) {\n            return \"Ciencias Economicas y Sociales\";\n        } else if (StringComp.compareStrings(_carrera, \"Contaduria\")) {\n            return \"Ciencias Economicas y Sociales\";\n        } else if (StringComp.compareStrings(_carrera, \"Educacion\")) {\n            return \"Ciencias y Artes\";\n        } else if (StringComp.compareStrings(_carrera, \"Idiomas\")) {\n            return \"Ciencias y Artes\";\n        } else if (StringComp.compareStrings(_carrera, \"Psicologia\")) {\n            return \"Ciencias y Artes\";\n        } else if (StringComp.compareStrings(_carrera, \"Mate. Industriales\")) {\n            return \"Ciencias y Artes\";\n        } else if (StringComp.compareStrings(_carrera, \"Est. Liberales\")) {\n            return \"Estudios Juridicos y Politicos\";\n        } else if (StringComp.compareStrings(_carrera, \"Derecho\")) {\n            return \"Estudios Juridicos y Politicos\";\n        }\n    }\n\n    function checkVotanteEnFacultad(uint _id, string memory _facultad) public view returns (bool) {\n        return votantesFacultades[_id][_facultad];\n    }\n\n    function getParticipatingSections(uint _id) public view returns (string[] memory) {\n        uint facCounter = getFacultyCount(_id);\n        uint escuelaCounter = votantes[_id].carreras.length;\n        uint sectionCounter = (3 + facCounter + escuelaCounter * 2);\n        string[] memory secciones = new string[](sectionCounter);\n\n        secciones[0] = \"Junta Directiva FCE\";\n        secciones[1] = \"Coordinacion FCE\";\n        secciones[2] = \"Consejo Academico\";\n        string[] memory _facultades = new string[](facCounter);\n        uint i = 0;\n        if (checkVotanteEnFacultad(_id, \"Ingenieria\")) {\n            _facultades[i] = \"Ingenieria\";\n            ++i;\n        }\n        if (checkVotanteEnFacultad(_id, \"Ciencias Economicas y Sociales\")) {\n            _facultades[i] = \"Ciencias Economicas y Sociales\";\n            ++i;\n        }\n        if (checkVotanteEnFacultad(_id, \"Ciencias y Artes\")) {\n            _facultades[i] = \"Ciencias y Artes\";\n            ++i;\n        }\n        if (checkVotanteEnFacultad(_id, \"Estudios Juridicos y Politicos\")) {\n            _facultades[i] = \"Estudios Juridicos y Politicos\";\n            ++i;\n        }\n        for (uint j = 0; j < _facultades.length; j++) {\n            secciones[j + 3] = string.concat(\"Consejo de Facultad de \", _facultades[j]);\n        }\n        for (uint k = 0; k < votantes[_id].carreras.length; k++) {\n            secciones[k + 3 + facCounter] = string.concat(\"Consejo de Escuela de \", votantes[_id].carreras[k]);\n        }\n        for (uint l = 0; l < votantes[_id].carreras.length; l++) {\n            secciones[l + 3 + facCounter + escuelaCounter] = string.concat(\"Centro de Estudiantes de \", votantes[_id].carreras[l]);\n        }\n\n        return secciones;\n    }\n\n    function getFacultyCount(uint _id) public view returns (uint) {\n        uint facCounter = 0;\n        if (checkVotanteEnFacultad(_id, \"Ingenieria\")) {\n            facCounter++;\n        }\n        if (checkVotanteEnFacultad(_id, \"Ciencias Economicas y Sociales\")) {\n            facCounter++;\n        }\n        if (checkVotanteEnFacultad(_id, \"Ciencias y Artes\")) {\n            facCounter++;\n        }\n        if (checkVotanteEnFacultad(_id, \"Estudios Juridicos y Politicos\")) {\n            facCounter++;\n        }\n        return facCounter;\n    }\n\n    // function checkRegisteredFacultad(string memory _facultad, string[] memory _facultadesRegistradas) public pure returns (bool) {\n    //     for (uint i = 0; i < _facultadesRegistradas.length; ++i) {\n    //         if (keccak256(abi.encodePacked(_facultadesRegistradas[i])) == keccak256(abi.encodePacked(_facultad))) {\n    //             return true;\n    //         }\n    //     }\n    //     return false;\n    // }\n\n    function checkRegisteredVoter(uint _id) public view returns (bool) {\n        if (votantes[_id].id == _id) {\n            return true;\n        }\n        return false;\n    }\n\n    function inRegistroElectoral(uint _id) public view returns (bool) {\n        return registroElectoral[_id];\n    }\n\n    function agregarARegistroElectoral(uint _id) public {\n        require(msg.sender == owner, \"Solo el dueno del contrato puede registrar votantes\");\n        require(!inRegistroElectoral(_id), \"Votante ya registrado en el registro electoral\");\n        registroElectoral[_id] = true;\n    }\n\n    function getVotante(uint _id) public view returns (Votante memory) {\n        return votantes[_id];\n    }\n\n\n    // struct Candidate {\n    //     string name;\n    //     string PartyLib.Party;\n    //     string degree;\n    //     uint256 voteCount;\n    //     uint id;\n    // }\n\n    // struct Voter {\n    //     bool isRegistered;\n    //     bool hasVoted;\n    //     string voterID; \n    //     string[] carreras;\n    // }\n\n    // struct Result {\n    //     string name;\n    //     uint256 voteCount;\n    // }\n\n\n\n\n\n    // function registerVoter(string memory voterID, address _voterAddress, string memory carrera) public onlyOwner {\n    //     require(\n    //         !voters[_voterAddress].isRegistered || !carreraRegistrada(carrera, _voterAddress),\n    //         \"the voter is already registered\"\n    //     );\n\n    //     if (!voters[_voterAddress].isRegistered){\n    //         voters[_voterAddress].isRegistered = true;\n    //         voters[_voterAddress].hasVoted = false;\n    //         voters[_voterAddress].voterID = voterID;\n    //     }\n        \n    //     voters[_voterAddress].carreras.push(carrera);\n\n    //     emit VoterRegisteredEvent(_voterAddress);\n    // }\n\n    // function carreraRegistrada(string memory carrera, address _voterAddress) public view returns (bool){\n    //     for(uint i = 0; i < voters[_voterAddress].carreras.length; ++i){\n    //         if(keccak256(abi.encodePacked(voters[_voterAddress].carreras[i])) == keccak256(abi.encodePacked(carrera))){\n    //             return true;\n    //         }\n    //     }\n    //     return false;\n    // }\n\n    // function registerCandidate(string memory _name, string memory _PartyLib.Party, string memory _degree) public onlyOwner {\n    //     candidates.push(\n    //         Candidate({name: _name, PartyLib.Party: _PartyLib.Party, degree: _degree, voteCount: 0, id: candidates.length})\n    //     );\n\n    //     if (!isPartyLib.PartyRegistered(_PartyLib.Party)) {\n    //         parties.push(_PartyLib.Party);\n    //     }\n\n    //     emit CandidateRegisteredEvent(candidates.length - 1);\n    // }\n\n    // function isPartyLib.PartyRegistered(string memory PartyLib.Party) public view returns (bool) {\n    //     for (uint i = 0; i < parties.length; ++i) {\n    //         if (keccak256(abi.encodePacked(parties[i])) == keccak256(abi.encodePacked(PartyLib.Party))) {\n    //             return true;\n    //         }\n    //     }\n    //     return false;\n    // }\n\n    // function vote(uint256 candidateId)\n    //     public\n    //     onlyRegisteredVoter\n    // {\n    //     require(!voters[msg.sender].hasVoted, \"the caller has already voted\");\n\n    //     voters[msg.sender].hasVoted = true;\n    //     candidates[candidateId].voteCount += 1;\n    //     voterRegistry.push(voters[msg.sender].voterID);\n\n    //     emit VotedEvent(msg.sender, candidateId);\n    // }\n\n    // function getCandidateById(uint256 candidateId)\n    //     public\n    //     view\n    //     returns (\n    //         string memory name,\n    //         string memory PartyLib.Party,\n    //         string memory degree,\n    //         uint256 voteCount,\n    //         uint id\n    //     )\n    // {\n    //     for (uint i = 0; i < candidates.length; ++i) {\n    //         if (candidates[i].id == candidateId) {\n    //             return (candidates[i].name, candidates[i].PartyLib.Party, candidates[i].degree, candidates[i].voteCount, candidates[i].id);\n    //         }\n    //     }\n    // }\n\n    // function getCandidateByName(string memory Sname)\n    //     public\n    //     view\n    //     returns (\n    //         string memory name,\n    //         string memory PartyLib.Party,\n    //         string memory degree,\n    //         uint256 voteCount\n    //     )\n    // {\n    //     for (uint i = 0; i < candidates.length; ++i) {\n    //         if (keccak256(abi.encodePacked(candidates[i].name)) == keccak256(abi.encodePacked(Sname))) {\n    //             return (candidates[i].name, candidates[i].PartyLib.Party, candidates[i].degree, candidates[i].voteCount);\n    //         }\n    //     }\n    // }\n\n    // function getAllCandidates()\n    //     public\n    //     view\n    //     returns (Candidate[] memory)\n    // {\n    //     return candidates;\n    // }\n\n    // function getWinner() public view returns (Result memory) {\n    //     uint256 winnerIndex = 0;\n    //     for (uint256 i = 1; i < candidates.length; ++i) {\n    //         if (candidates[i].voteCount > candidates[winnerIndex].voteCount) {\n    //             winnerIndex = i;\n    //         }\n    //     }\n    //     return Result(candidates[winnerIndex].name, candidates[winnerIndex].voteCount);\n    // }\n\n    // function getTotalVotes() public view returns (uint256) {\n    //     uint256 totalVotes = 0;\n    //     for (uint256 i = 0; i < candidates.length; ++i) {\n    //         totalVotes += candidates[i].voteCount;\n    //     }\n    //     return totalVotes;\n    // }\n\n    // function getPercentage() public view returns (uint256[] memory) {\n    //     uint256 totalVotes = getTotalVotes();\n    //     uint256[] memory percentage = new uint256[](candidates.length);\n    //     for (uint256 i = 0; i < candidates.length; ++i) {\n    //         percentage[i] = ((candidates[i].voteCount * 100) / totalVotes);\n    //     }\n    //     return percentage;\n    // }\n\n    // function getVoterRegistry() public view returns (string[] memory) {\n        \n    //     string[] memory myRegistry = new string[](voterRegistry.length);\n    //     for(uint i = 0; i < voterRegistry.length; ++i){\n    //         myRegistry[i] = voterRegistry[i];\n    //     }\n    //     return myRegistry;\n    // }\n\n    // function getVoterCarreras(address _voterAddress) public view returns (string[] memory) {\n    //     return voters[_voterAddress].carreras;\n    // }\n}",
  "sourcePath": "/Users/abert/Desktop/chainge_voting_dapp/smart_contract/contracts/Election.sol",
  "compiler": {
    "name": "solc",
    "version": "0.8.17+commit.8df45f5f.Emscripten.clang"
  },
  "schemaVersion": "3.4.10",
  "updatedAt": "2022-11-15T19:07:12.260Z",
  "devdoc": {
    "kind": "dev",
    "methods": {},
    "version": 1
  },
  "userdoc": {
    "kind": "user",
    "methods": {},
    "version": 1
  }
}