{
  "contractName": "Election",
  "abi": [
    {
      "inputs": [],
      "stateMutability": "nonpayable",
      "type": "constructor"
    },
    {
      "anonymous": false,
      "inputs": [
        {
          "indexed": false,
          "internalType": "uint256",
          "name": "candidateId",
          "type": "uint256"
        }
      ],
      "name": "CandidateRegisteredEvent",
      "type": "event"
    },
    {
      "anonymous": false,
      "inputs": [
        {
          "indexed": false,
          "internalType": "address",
          "name": "voter",
          "type": "address"
        },
        {
          "indexed": false,
          "internalType": "uint256",
          "name": "proposalId",
          "type": "uint256"
        }
      ],
      "name": "VotedEvent",
      "type": "event"
    },
    {
      "anonymous": false,
      "inputs": [
        {
          "indexed": false,
          "internalType": "address",
          "name": "voterAddress",
          "type": "address"
        }
      ],
      "name": "VoterRegisteredEvent",
      "type": "event"
    },
    {
      "anonymous": false,
      "inputs": [],
      "name": "VotesTalliedEvent",
      "type": "event"
    },
    {
      "anonymous": false,
      "inputs": [],
      "name": "VotingSessionEndedEvent",
      "type": "event"
    },
    {
      "anonymous": false,
      "inputs": [],
      "name": "VotingSessionStartedEvent",
      "type": "event"
    },
    {
      "anonymous": false,
      "inputs": [
        {
          "indexed": false,
          "internalType": "enum Election.WorkflowStatus",
          "name": "previousStatus",
          "type": "uint8"
        },
        {
          "indexed": false,
          "internalType": "enum Election.WorkflowStatus",
          "name": "newStatus",
          "type": "uint8"
        }
      ],
      "name": "WorkflowStatusChangeEvent",
      "type": "event"
    },
    {
      "inputs": [
        {
          "internalType": "uint256",
          "name": "",
          "type": "uint256"
        }
      ],
      "name": "candidates",
      "outputs": [
        {
          "internalType": "string",
          "name": "name",
          "type": "string"
        },
        {
          "internalType": "string",
          "name": "party",
          "type": "string"
        },
        {
          "internalType": "string",
          "name": "degree",
          "type": "string"
        },
        {
          "internalType": "uint256",
          "name": "voteCount",
          "type": "uint256"
        },
        {
          "internalType": "uint256",
          "name": "id",
          "type": "uint256"
        }
      ],
      "stateMutability": "view",
      "type": "function",
      "constant": true
    },
    {
      "inputs": [],
      "name": "description",
      "outputs": [
        {
          "internalType": "string",
          "name": "",
          "type": "string"
        }
      ],
      "stateMutability": "view",
      "type": "function",
      "constant": true
    },
    {
      "inputs": [],
      "name": "name",
      "outputs": [
        {
          "internalType": "string",
          "name": "",
          "type": "string"
        }
      ],
      "stateMutability": "view",
      "type": "function",
      "constant": true
    },
    {
      "inputs": [],
      "name": "owner",
      "outputs": [
        {
          "internalType": "address",
          "name": "",
          "type": "address"
        }
      ],
      "stateMutability": "view",
      "type": "function",
      "constant": true
    },
    {
      "inputs": [
        {
          "internalType": "uint256",
          "name": "",
          "type": "uint256"
        }
      ],
      "name": "parties",
      "outputs": [
        {
          "internalType": "string",
          "name": "name",
          "type": "string"
        },
        {
          "internalType": "uint256",
          "name": "id",
          "type": "uint256"
        }
      ],
      "stateMutability": "view",
      "type": "function",
      "constant": true
    },
    {
      "inputs": [
        {
          "internalType": "uint256",
          "name": "",
          "type": "uint256"
        }
      ],
      "name": "voterRegistry",
      "outputs": [
        {
          "internalType": "string",
          "name": "",
          "type": "string"
        }
      ],
      "stateMutability": "view",
      "type": "function",
      "constant": true
    },
    {
      "inputs": [
        {
          "internalType": "address",
          "name": "",
          "type": "address"
        }
      ],
      "name": "voters",
      "outputs": [
        {
          "internalType": "bool",
          "name": "isRegistered",
          "type": "bool"
        },
        {
          "internalType": "bool",
          "name": "hasVoted",
          "type": "bool"
        },
        {
          "internalType": "string",
          "name": "voterID",
          "type": "string"
        },
        {
          "internalType": "uint256",
          "name": "votedCandidateId",
          "type": "uint256"
        }
      ],
      "stateMutability": "view",
      "type": "function",
      "constant": true
    },
    {
      "inputs": [],
      "name": "workflowStatus",
      "outputs": [
        {
          "internalType": "enum Election.WorkflowStatus",
          "name": "",
          "type": "uint8"
        }
      ],
      "stateMutability": "view",
      "type": "function",
      "constant": true
    },
    {
      "inputs": [
        {
          "internalType": "string",
          "name": "voterID",
          "type": "string"
        },
        {
          "internalType": "address",
          "name": "_voterAddress",
          "type": "address"
        }
      ],
      "name": "registerVoter",
      "outputs": [],
      "stateMutability": "nonpayable",
      "type": "function"
    },
    {
      "inputs": [
        {
          "internalType": "string",
          "name": "_name",
          "type": "string"
        },
        {
          "internalType": "string",
          "name": "_party",
          "type": "string"
        },
        {
          "internalType": "string",
          "name": "_degree",
          "type": "string"
        }
      ],
      "name": "registerCandidate",
      "outputs": [],
      "stateMutability": "nonpayable",
      "type": "function"
    },
    {
      "inputs": [
        {
          "internalType": "uint256",
          "name": "candidateId",
          "type": "uint256"
        }
      ],
      "name": "vote",
      "outputs": [],
      "stateMutability": "nonpayable",
      "type": "function"
    },
    {
      "inputs": [
        {
          "internalType": "uint256",
          "name": "candidateId",
          "type": "uint256"
        }
      ],
      "name": "getCandidateById",
      "outputs": [
        {
          "internalType": "string",
          "name": "name",
          "type": "string"
        },
        {
          "internalType": "string",
          "name": "party",
          "type": "string"
        },
        {
          "internalType": "string",
          "name": "degree",
          "type": "string"
        },
        {
          "internalType": "uint256",
          "name": "voteCount",
          "type": "uint256"
        },
        {
          "internalType": "uint256",
          "name": "id",
          "type": "uint256"
        }
      ],
      "stateMutability": "view",
      "type": "function",
      "constant": true
    },
    {
      "inputs": [
        {
          "internalType": "string",
          "name": "Sname",
          "type": "string"
        }
      ],
      "name": "getCandidateByName",
      "outputs": [
        {
          "internalType": "string",
          "name": "name",
          "type": "string"
        },
        {
          "internalType": "string",
          "name": "party",
          "type": "string"
        },
        {
          "internalType": "string",
          "name": "degree",
          "type": "string"
        },
        {
          "internalType": "uint256",
          "name": "voteCount",
          "type": "uint256"
        }
      ],
      "stateMutability": "view",
      "type": "function",
      "constant": true
    },
    {
      "inputs": [],
      "name": "getAllCandidates",
      "outputs": [
        {
          "components": [
            {
              "internalType": "string",
              "name": "name",
              "type": "string"
            },
            {
              "internalType": "string",
              "name": "party",
              "type": "string"
            },
            {
              "internalType": "string",
              "name": "degree",
              "type": "string"
            },
            {
              "internalType": "uint256",
              "name": "voteCount",
              "type": "uint256"
            },
            {
              "internalType": "uint256",
              "name": "id",
              "type": "uint256"
            }
          ],
          "internalType": "struct Election.Candidate[]",
          "name": "",
          "type": "tuple[]"
        }
      ],
      "stateMutability": "view",
      "type": "function",
      "constant": true
    },
    {
      "inputs": [],
      "name": "getWinner",
      "outputs": [
        {
          "components": [
            {
              "internalType": "string",
              "name": "name",
              "type": "string"
            },
            {
              "internalType": "uint256",
              "name": "voteCount",
              "type": "uint256"
            }
          ],
          "internalType": "struct Election.Result",
          "name": "",
          "type": "tuple"
        }
      ],
      "stateMutability": "view",
      "type": "function",
      "constant": true
    },
    {
      "inputs": [],
      "name": "getTotalVotes",
      "outputs": [
        {
          "internalType": "uint256",
          "name": "",
          "type": "uint256"
        }
      ],
      "stateMutability": "view",
      "type": "function",
      "constant": true
    },
    {
      "inputs": [],
      "name": "getPercentage",
      "outputs": [
        {
          "internalType": "uint256[]",
          "name": "",
          "type": "uint256[]"
        }
      ],
      "stateMutability": "view",
      "type": "function",
      "constant": true
    },
    {
      "inputs": [],
      "name": "getVoterRegistry",
      "outputs": [
        {
          "internalType": "string[]",
          "name": "",
          "type": "string[]"
        }
      ],
      "stateMutability": "view",
      "type": "function",
      "constant": true
    }
  ],
  "bytecode": "0x608060405234801561001057600080fd5b50600280546001600160a01b031916331790556006805460ff19169055611f1a8061003c6000396000f3fe608060405234801561001057600080fd5b50600436106101165760003560e01c80637def7fe1116100a257806395f850221161007157806395f85022146102635780639a0e7d66146102765780639f37d7521461028c578063a1edffa21461029f578063a3ec138d146102b957600080fd5b80637def7fe1146101eb5780637f8b76971461020e5780638da5cb5b146102235780638e7ea5b21461024e57600080fd5b80633477ee2e116100e95780633477ee2e1461017857806335c3c8761461019c5780634a075de2146101af57806370651a18146101c25780637284e416146101e357600080fd5b80630121b93f1461011b57806306fdde03146101305780630b2accb21461014e5780632e6997fe14610163575b600080fd5b61012e610129366004611634565b6102dc565b005b6101386104a6565b604051610145919061169d565b60405180910390f35b610156610534565b60405161014591906116b7565b61016b61060c565b60405161014591906116fb565b61018b610186366004611634565b610835565b6040516101459594939291906117b0565b61012e6101aa3660046118a1565b610a13565b61012e6101bd366004611945565b610b2f565b6101d56101d0366004611634565b610c3c565b604051610145929190611993565b610138610cf8565b6101fe6101f93660046119b5565b610d05565b60405161014594939291906119f2565b610216610feb565b6040516101459190611a3d565b600254610236906001600160a01b031681565b6040516001600160a01b039091168152602001610145565b6102566110bb565b6040516101459190611a9f565b61018b610271366004611634565b611231565b61027e6114f8565b604051908152602001610145565b61013861029a366004611634565b611551565b6006546102ac9060ff1681565b6040516101459190611ad1565b6102cc6102c7366004611af9565b61157c565b6040516101459493929190611b14565b3360009081526003602052604090205460ff166103575760405162461bcd60e51b815260206004820152602e60248201527f4f6e6c79207265676973746572656420766f746572732063616e2063616c6c2060448201526d3a3434b990333ab731ba34b7b71760911b60648201526084015b60405180910390fd5b33600090815260036020526040902054610100900460ff16156103bc5760405162461bcd60e51b815260206004820152601c60248201527f7468652063616c6c65722068617320616c726561647920766f74656400000000604482015260640161034e565b336000908152600360205260409020805461ff0019166101001781556002018190556004805460019190839081106103f6576103f6611b48565b906000526020600020906005020160030160008282546104169190611b74565b90915550503360009081526003602052604081206007805460018181018355919093527fa66cc928b5edb82af9bd49922954155ab7b0942694bea4ce44661d9a8736c68890920191610469910182611c10565b5060408051338152602081018390527f0902475a854b82199b4f5d6b81327ec4c4ec077ce0356a106ddc2748c5285ed3910160405180910390a150565b600080546104b390611b8d565b80601f01602080910402602001604051908101604052809291908181526020018280546104df90611b8d565b801561052c5780601f106105015761010080835404028352916020019161052c565b820191906000526020600020905b81548152906001019060200180831161050f57829003601f168201915b505050505081565b606060006105406114f8565b60045490915060009067ffffffffffffffff811115610561576105616117fe565b60405190808252806020026020018201604052801561058a578160200160208202803683370190505b50905060005b6004548110156106055782600482815481106105ae576105ae611b48565b90600052602060002090600502016003015460646105cc9190611cf1565b6105d69190611d08565b8282815181106105e8576105e8611b48565b6020908102919091010152806105fd81611d2a565b915050610590565b5092915050565b60606004805480602002602001604051908101604052809291908181526020016000905b8282101561082c57838290600052602060002090600502016040518060a001604052908160008201805461066390611b8d565b80601f016020809104026020016040519081016040528092919081815260200182805461068f90611b8d565b80156106dc5780601f106106b1576101008083540402835291602001916106dc565b820191906000526020600020905b8154815290600101906020018083116106bf57829003601f168201915b505050505081526020016001820180546106f590611b8d565b80601f016020809104026020016040519081016040528092919081815260200182805461072190611b8d565b801561076e5780601f106107435761010080835404028352916020019161076e565b820191906000526020600020905b81548152906001019060200180831161075157829003601f168201915b5050505050815260200160028201805461078790611b8d565b80601f01602080910402602001604051908101604052809291908181526020018280546107b390611b8d565b80156108005780601f106107d557610100808354040283529160200191610800565b820191906000526020600020905b8154815290600101906020018083116107e357829003601f168201915b505050505081526020016003820154815260200160048201548152505081526020019060010190610630565b50505050905090565b6004818154811061084557600080fd5b906000526020600020906005020160009150905080600001805461086890611b8d565b80601f016020809104026020016040519081016040528092919081815260200182805461089490611b8d565b80156108e15780601f106108b6576101008083540402835291602001916108e1565b820191906000526020600020905b8154815290600101906020018083116108c457829003601f168201915b5050505050908060010180546108f690611b8d565b80601f016020809104026020016040519081016040528092919081815260200182805461092290611b8d565b801561096f5780601f106109445761010080835404028352916020019161096f565b820191906000526020600020905b81548152906001019060200180831161095257829003601f168201915b50505050509080600201805461098490611b8d565b80601f01602080910402602001604051908101604052809291908181526020018280546109b090611b8d565b80156109fd5780601f106109d2576101008083540402835291602001916109fd565b820191906000526020600020905b8154815290600101906020018083116109e057829003601f168201915b5050505050908060030154908060040154905085565b6002546001600160a01b03163314610a3d5760405162461bcd60e51b815260040161034e90611d43565b6040805160a0810182528481526020810184905290810182905260006060820181905260048054608084018190526001810182559152815160059091027f8a35acfbc15ff81a39ae7d344fd709f28e8600b4aa8c65c6b64bfe7fe36bd19b01908190610aa99082611d85565b5060208201516001820190610abe9082611d85565b5060408201516002820190610ad39082611d85565b5060608201516003820155608090910151600491820155547ff23ce42eb3d2878c26ab610ef7d3edf80e07cfb6568d4028550637f27c73db4190610b1990600190611e3f565b60405190815260200160405180910390a1505050565b6002546001600160a01b03163314610b595760405162461bcd60e51b815260040161034e90611d43565b6001600160a01b03811660009081526003602052604090205460ff1615610bc25760405162461bcd60e51b815260206004820152601f60248201527f74686520766f74657220697320616c7265616479207265676973746572656400604482015260640161034e565b6001600160a01b0381166000908152600360205260408120805461ffff191660019081178255600282019290925501610bfb8382611d85565b506040516001600160a01b03821681527f42b360c89ba65a59ac7fec024a7bbb2c21d84b5abe5b5178ba0d7e34653a81309060200160405180910390a15050565b60058181548110610c4c57600080fd5b9060005260206000209060020201600091509050806000018054610c6f90611b8d565b80601f0160208091040260200160405190810160405280929190818152602001828054610c9b90611b8d565b8015610ce85780601f10610cbd57610100808354040283529160200191610ce8565b820191906000526020600020905b815481529060010190602001808311610ccb57829003601f168201915b5050505050908060010154905082565b600180546104b390611b8d565b606080806000805b600454811015610fe25785604051602001610d289190611e52565b6040516020818303038152906040528051906020012060048281548110610d5157610d51611b48565b9060005260206000209060050201600001604051602001610d729190611e6e565b6040516020818303038152906040528051906020012003610fd05760048181548110610da057610da0611b48565b906000526020600020906005020160000160048281548110610dc457610dc4611b48565b906000526020600020906005020160010160048381548110610de857610de8611b48565b906000526020600020906005020160020160048481548110610e0c57610e0c611b48565b906000526020600020906005020160030154838054610e2a90611b8d565b80601f0160208091040260200160405190810160405280929190818152602001828054610e5690611b8d565b8015610ea35780601f10610e7857610100808354040283529160200191610ea3565b820191906000526020600020905b815481529060010190602001808311610e8657829003601f168201915b50505050509350828054610eb690611b8d565b80601f0160208091040260200160405190810160405280929190818152602001828054610ee290611b8d565b8015610f2f5780601f10610f0457610100808354040283529160200191610f2f565b820191906000526020600020905b815481529060010190602001808311610f1257829003601f168201915b50505050509250818054610f4290611b8d565b80601f0160208091040260200160405190810160405280929190818152602001828054610f6e90611b8d565b8015610fbb5780601f10610f9057610100808354040283529160200191610fbb565b820191906000526020600020905b815481529060010190602001808311610f9e57829003601f168201915b50505050509150945094509450945050610fe4565b80610fda81611d2a565b915050610d0d565b505b9193509193565b60606007805480602002602001604051908101604052809291908181526020016000905b8282101561082c57838290600052602060002001805461102e90611b8d565b80601f016020809104026020016040519081016040528092919081815260200182805461105a90611b8d565b80156110a75780601f1061107c576101008083540402835291602001916110a7565b820191906000526020600020905b81548152906001019060200180831161108a57829003601f168201915b50505050508152602001906001019061100f565b604080518082019091526060815260006020820152600060015b60045481101561114557600482815481106110f2576110f2611b48565b9060005260206000209060050201600301546004828154811061111757611117611b48565b9060005260206000209060050201600301541115611133578091505b8061113d81611d2a565b9150506110d5565b5060405180604001604052806004838154811061116457611164611b48565b9060005260206000209060050201600001805461118090611b8d565b80601f01602080910402602001604051908101604052809291908181526020018280546111ac90611b8d565b80156111f95780601f106111ce576101008083540402835291602001916111f9565b820191906000526020600020905b8154815290600101906020018083116111dc57829003601f168201915b505050505081526020016004838154811061121657611216611b48565b90600052602060002090600502016003015481525091505090565b606080606060008060005b6004548110156114ed57866004828154811061125a5761125a611b48565b906000526020600020906005020160040154036114db576004818154811061128457611284611b48565b9060005260206000209060050201600001600482815481106112a8576112a8611b48565b9060005260206000209060050201600101600483815481106112cc576112cc611b48565b9060005260206000209060050201600201600484815481106112f0576112f0611b48565b9060005260206000209060050201600301546004858154811061131557611315611b48565b90600052602060002090600502016004015484805461133390611b8d565b80601f016020809104026020016040519081016040528092919081815260200182805461135f90611b8d565b80156113ac5780601f10611381576101008083540402835291602001916113ac565b820191906000526020600020905b81548152906001019060200180831161138f57829003601f168201915b505050505094508380546113bf90611b8d565b80601f01602080910402602001604051908101604052809291908181526020018280546113eb90611b8d565b80156114385780601f1061140d57610100808354040283529160200191611438565b820191906000526020600020905b81548152906001019060200180831161141b57829003601f168201915b5050505050935082805461144b90611b8d565b80601f016020809104026020016040519081016040528092919081815260200182805461147790611b8d565b80156114c45780601f10611499576101008083540402835291602001916114c4565b820191906000526020600020905b8154815290600101906020018083116114a757829003601f168201915b5050505050925095509550955095509550506114ef565b806114e581611d2a565b91505061123c565b505b91939590929450565b600080805b60045481101561154b576004818154811061151a5761151a611b48565b906000526020600020906005020160030154826115379190611b74565b91508061154381611d2a565b9150506114fd565b50919050565b6007818154811061156157600080fd5b9060005260206000200160009150905080546104b390611b8d565b6003602052600090815260409020805460018201805460ff80841694610100909404169291906115ab90611b8d565b80601f01602080910402602001604051908101604052809291908181526020018280546115d790611b8d565b80156116245780601f106115f957610100808354040283529160200191611624565b820191906000526020600020905b81548152906001019060200180831161160757829003601f168201915b5050505050908060020154905084565b60006020828403121561164657600080fd5b5035919050565b60005b83811015611668578181015183820152602001611650565b50506000910152565b6000815180845261168981602086016020860161164d565b601f01601f19169290920160200192915050565b6020815260006116b06020830184611671565b9392505050565b6020808252825182820181905260009190848201906040850190845b818110156116ef578351835292840192918401916001016116d3565b50909695505050505050565b60006020808301818452808551808352604092508286019150828160051b87010184880160005b838110156117a257603f19898403018552815160a0815181865261174882870182611671565b915050888201518582038a8701526117608282611671565b91505087820151858203898701526117788282611671565b60608481015190880152608093840151939096019290925250509386019390860190600101611722565b509098975050505050505050565b60a0815260006117c360a0830188611671565b82810360208401526117d58188611671565b905082810360408401526117e98187611671565b60608401959095525050608001529392505050565b634e487b7160e01b600052604160045260246000fd5b600082601f83011261182557600080fd5b813567ffffffffffffffff80821115611840576118406117fe565b604051601f8301601f19908116603f01168101908282118183101715611868576118686117fe565b8160405283815286602085880101111561188157600080fd5b836020870160208301376000602085830101528094505050505092915050565b6000806000606084860312156118b657600080fd5b833567ffffffffffffffff808211156118ce57600080fd5b6118da87838801611814565b945060208601359150808211156118f057600080fd5b6118fc87838801611814565b9350604086013591508082111561191257600080fd5b5061191f86828701611814565b9150509250925092565b80356001600160a01b038116811461194057600080fd5b919050565b6000806040838503121561195857600080fd5b823567ffffffffffffffff81111561196f57600080fd5b61197b85828601611814565b92505061198a60208401611929565b90509250929050565b6040815260006119a66040830185611671565b90508260208301529392505050565b6000602082840312156119c757600080fd5b813567ffffffffffffffff8111156119de57600080fd5b6119ea84828501611814565b949350505050565b608081526000611a056080830187611671565b8281036020840152611a178187611671565b90508281036040840152611a2b8186611671565b91505082606083015295945050505050565b6000602080830181845280855180835260408601915060408160051b870101925083870160005b82811015611a9257603f19888603018452611a80858351611671565b94509285019290850190600101611a64565b5092979650505050505050565b602081526000825160406020840152611abb6060840182611671565b9050602084015160408401528091505092915050565b6020810160048310611af357634e487b7160e01b600052602160045260246000fd5b91905290565b600060208284031215611b0b57600080fd5b6116b082611929565b84151581528315156020820152608060408201526000611b376080830185611671565b905082606083015295945050505050565b634e487b7160e01b600052603260045260246000fd5b634e487b7160e01b600052601160045260246000fd5b80820180821115611b8757611b87611b5e565b92915050565b600181811c90821680611ba157607f821691505b60208210810361154b57634e487b7160e01b600052602260045260246000fd5b601f821115611c0b57600081815260208120601f850160051c81016020861015611be85750805b601f850160051c820191505b81811015611c0757828155600101611bf4565b5050505b505050565b818103611c1b575050565b611c258254611b8d565b67ffffffffffffffff811115611c3d57611c3d6117fe565b611c5181611c4b8454611b8d565b84611bc1565b6000601f821160018114611c855760008315611c6d5750848201545b600019600385901b1c1916600184901b178455611cea565b600085815260209020601f19841690600086815260209020845b83811015611cbf5782860154825560019586019590910190602001611c9f565b5085831015611cdd5781850154600019600388901b60f8161c191681555b50505060018360011b0184555b5050505050565b8082028115828204841417611b8757611b87611b5e565b600082611d2557634e487b7160e01b600052601260045260246000fd5b500490565b600060018201611d3c57611d3c611b5e565b5060010190565b60208082526022908201527f4f6e6c79206f776e65722063616e2063616c6c20746869732066756e6374696f604082015261371760f11b606082015260800190565b815167ffffffffffffffff811115611d9f57611d9f6117fe565b611dad81611c4b8454611b8d565b602080601f831160018114611de25760008415611dca5750858301515b600019600386901b1c1916600185901b178555611c07565b600085815260208120601f198616915b82811015611e1157888601518255948401946001909101908401611df2565b5085821015611e2f5787850151600019600388901b60f8161c191681555b5050505050600190811b01905550565b81810381811115611b8757611b87611b5e565b60008251611e6481846020870161164d565b9190910192915050565b6000808354611e7c81611b8d565b60018281168015611e945760018114611ea957611ed8565b60ff1984168752821515830287019450611ed8565b8760005260208060002060005b85811015611ecf5781548a820152908401908201611eb6565b50505082870194505b5092969550505050505056fea2646970667358221220d04744ab8c8d384061c3bc2333bdc9174bcc6b3723821df3d5422cb917e2dfd064736f6c63430008110033",
  "immutableReferences": {},
  "source": "pragma solidity ^0.8.0;\r\n// SPDX-License-Identifier: UNLICENSED\r\n\r\ncontract Election {\r\n    // Election details\r\n\r\n    string public name;\r\n    string public description;\r\n\r\n    address public owner;\r\n\r\n    struct Candidate {\r\n        string name;\r\n        string party;\r\n        string degree;\r\n        uint256 voteCount;\r\n        uint id;\r\n    }\r\n\r\n    struct Party {\r\n        string name;\r\n        uint id;\r\n    }\r\n\r\n    struct Voter {\r\n        bool isRegistered;\r\n        bool hasVoted;\r\n        string voterID;\r\n        uint256 votedCandidateId;\r\n    }\r\n\r\n    struct Result {\r\n        // uint256 candidateId;\r\n        // Candidate candidate;\r\n        string name;\r\n        uint256 voteCount;\r\n    }\r\n\r\n    mapping(address => Voter) public voters;\r\n    Candidate[] public candidates;\r\n    Party[] public parties;\r\n    WorkflowStatus public workflowStatus;\r\n    string[] public voterRegistry;\r\n\r\n    // Para llevar control de cada estado\r\n\r\n    enum WorkflowStatus {\r\n        RegisteringVoters,\r\n        VotingSessionStarted,\r\n        VotingSessionEnded,\r\n        VotesTallied\r\n    }\r\n\r\n    constructor() public {\r\n        owner = msg.sender;\r\n        workflowStatus = WorkflowStatus.RegisteringVoters;\r\n    }\r\n\r\n    modifier onlyOwner() {\r\n        require(msg.sender == owner, \"Only owner can call this function.\");\r\n        _;\r\n    }\r\n\r\n    modifier onlyRegisteredVoter() {\r\n        require(\r\n            voters[msg.sender].isRegistered,\r\n            \"Only registered voters can call this function.\"\r\n        );\r\n        _;\r\n    }\r\n\r\n    modifier onlyDuringVotingSession() {\r\n        require(\r\n            workflowStatus == WorkflowStatus.VotingSessionStarted,\r\n            \"this function can be called only during voting sessions.\"\r\n        );\r\n        _;\r\n    }\r\n\r\n    event VoterRegisteredEvent(address voterAddress);\r\n    event CandidateRegisteredEvent(uint256 candidateId);\r\n    event VotingSessionStartedEvent();\r\n    event VotingSessionEndedEvent();\r\n    event VotedEvent(address voter, uint256 proposalId);\r\n    event VotesTalliedEvent();\r\n\r\n    event WorkflowStatusChangeEvent(\r\n        WorkflowStatus previousStatus,\r\n        WorkflowStatus newStatus\r\n    );\r\n\r\n    function registerVoter(string memory voterID, address _voterAddress) public onlyOwner {\r\n        require(\r\n            !voters[_voterAddress].isRegistered,\r\n            \"the voter is already registered\"\r\n        );\r\n\r\n        voters[_voterAddress].isRegistered = true;\r\n        voters[_voterAddress].hasVoted = false;\r\n        voters[_voterAddress].votedCandidateId = 0;\r\n        voters[_voterAddress].voterID = voterID;\r\n\r\n        emit VoterRegisteredEvent(_voterAddress);\r\n    }\r\n\r\n    function registerCandidate(string memory _name, string memory _party, string memory _degree) public onlyOwner {\r\n        candidates.push(\r\n            Candidate({name: _name, party: _party, degree: _degree, voteCount: 0, id: candidates.length})\r\n        );\r\n\r\n        emit CandidateRegisteredEvent(candidates.length - 1);\r\n    }\r\n\r\n    function vote(uint256 candidateId)\r\n        public\r\n        onlyRegisteredVoter\r\n    {\r\n        require(!voters[msg.sender].hasVoted, \"the caller has already voted\");\r\n\r\n        voters[msg.sender].hasVoted = true;\r\n        voters[msg.sender].votedCandidateId = candidateId;\r\n\r\n        candidates[candidateId].voteCount += 1;\r\n// TODO: meter el votante en el registro\r\n        voterRegistry.push(voters[msg.sender].voterID);\r\n\r\n        emit VotedEvent(msg.sender, candidateId);\r\n    }\r\n\r\n    function getCandidateById(uint256 candidateId)\r\n        public\r\n        view\r\n        returns (\r\n            string memory name,\r\n            string memory party,\r\n            string memory degree,\r\n            uint256 voteCount,\r\n            uint id\r\n        )\r\n    {\r\n        for (uint i = 0; i < candidates.length; i++) {\r\n            if (candidates[i].id == candidateId) {\r\n                return (candidates[i].name, candidates[i].party, candidates[i].degree, candidates[i].voteCount, candidates[i].id);\r\n            }\r\n        }\r\n    }\r\n\r\n    function getCandidateByName(string memory Sname)\r\n        public\r\n        view\r\n        returns (\r\n            string memory name,\r\n            string memory party,\r\n            string memory degree,\r\n            uint256 voteCount\r\n        )\r\n    {\r\n        for (uint i = 0; i < candidates.length; i++) {\r\n            if (keccak256(abi.encodePacked(candidates[i].name)) == keccak256(abi.encodePacked(Sname))) {\r\n                return (candidates[i].name, candidates[i].party, candidates[i].degree, candidates[i].voteCount);\r\n            }\r\n        }\r\n    }\r\n\r\n    function getAllCandidates()\r\n        public\r\n        view\r\n        returns (Candidate[] memory)\r\n    {\r\n        return candidates;\r\n    }\r\n    \r\n    // function getCandidatesByParty(string memory Sparty)\r\n    //     public\r\n    //     view\r\n    //     returns (\r\n    //         uint[] memory partyIds\r\n    //     )\r\n    // {\r\n    //     for (uint i = 0; i < candidates.length; i++) {\r\n    //         if (keccak256(abi.encodePacked(candidates[i].party)) == keccak256(abi.encodePacked(Sparty))) {\r\n    //             partyIds.push(candidates[i].id);\r\n    //         }\r\n    //     }\r\n    //     return partyIds;\r\n    // }\r\n\r\n    function getWinner() public view returns (Result memory) {\r\n        uint256 winnerIndex = 0;\r\n        for (uint256 i = 1; i < candidates.length; i++) {\r\n            if (candidates[i].voteCount > candidates[winnerIndex].voteCount) {\r\n                winnerIndex = i;\r\n            }\r\n        }\r\n        return Result(candidates[winnerIndex].name, candidates[winnerIndex].voteCount);\r\n    }\r\n\r\n    function getTotalVotes() public view returns (uint256) {\r\n        uint256 totalVotes = 0;\r\n        for (uint256 i = 0; i < candidates.length; i++) {\r\n            totalVotes += candidates[i].voteCount;\r\n        }\r\n        return totalVotes;\r\n    }\r\n\r\n    function getPercentage() public view returns (uint256[] memory) {\r\n        uint256 totalVotes = getTotalVotes();\r\n        uint256[] memory percentage = new uint256[](candidates.length);\r\n        for (uint256 i = 0; i < candidates.length; i++) {\r\n            percentage[i] = ((candidates[i].voteCount * 100) / totalVotes);\r\n        }\r\n        return percentage;\r\n    }\r\n\r\n    function getVoterRegistry() public view returns (string[] memory) {\r\n        return voterRegistry;\r\n    }\r\n}\r\n",
  "sourcePath": "C:\\Users\\Jose Rubin\\Desktop\\Chainge\\chainge_voting_dapp\\smart_contract\\contracts\\Election.sol",
  "compiler": {
    "name": "solc",
    "version": "0.8.17+commit.8df45f5f.Emscripten.clang"
  },
  "schemaVersion": "3.4.10",
  "updatedAt": "2022-10-29T20:55:34.019Z",
  "networkType": "ethereum",
  "devdoc": {
    "kind": "dev",
    "methods": {},
    "version": 1
  },
  "userdoc": {
    "kind": "user",
    "methods": {},
    "version": 1
  }
}