{
  "contractName": "Election",
  "abi": [
    {
      "inputs": [],
      "stateMutability": "nonpayable",
      "type": "constructor"
    },
    {
      "anonymous": false,
      "inputs": [
        {
          "indexed": false,
          "internalType": "uint256",
          "name": "candidateId",
          "type": "uint256"
        }
      ],
      "name": "CandidateRegisteredEvent",
      "type": "event"
    },
    {
      "anonymous": false,
      "inputs": [
        {
          "indexed": false,
          "internalType": "address",
          "name": "voter",
          "type": "address"
        },
        {
          "indexed": false,
          "internalType": "uint256",
          "name": "proposalId",
          "type": "uint256"
        }
      ],
      "name": "VotedEvent",
      "type": "event"
    },
    {
      "anonymous": false,
      "inputs": [
        {
          "indexed": false,
          "internalType": "address",
          "name": "voterAddress",
          "type": "address"
        }
      ],
      "name": "VoterRegisteredEvent",
      "type": "event"
    },
    {
      "anonymous": false,
      "inputs": [],
      "name": "VotesTalliedEvent",
      "type": "event"
    },
    {
      "anonymous": false,
      "inputs": [],
      "name": "VotingSessionEndedEvent",
      "type": "event"
    },
    {
      "anonymous": false,
      "inputs": [],
      "name": "VotingSessionStartedEvent",
      "type": "event"
    },
    {
      "anonymous": false,
      "inputs": [
        {
          "indexed": false,
          "internalType": "enum Election.WorkflowStatus",
          "name": "previousStatus",
          "type": "uint8"
        },
        {
          "indexed": false,
          "internalType": "enum Election.WorkflowStatus",
          "name": "newStatus",
          "type": "uint8"
        }
      ],
      "name": "WorkflowStatusChangeEvent",
      "type": "event"
    },
    {
      "inputs": [
        {
          "internalType": "uint256",
          "name": "",
          "type": "uint256"
        }
      ],
      "name": "candidates",
      "outputs": [
        {
          "internalType": "string",
          "name": "name",
          "type": "string"
        },
        {
          "internalType": "string",
          "name": "party",
          "type": "string"
        },
        {
          "internalType": "string",
          "name": "degree",
          "type": "string"
        },
        {
          "internalType": "uint256",
          "name": "voteCount",
          "type": "uint256"
        },
        {
          "internalType": "uint256",
          "name": "id",
          "type": "uint256"
        }
      ],
      "stateMutability": "view",
      "type": "function",
      "constant": true
    },
    {
      "inputs": [],
      "name": "description",
      "outputs": [
        {
          "internalType": "string",
          "name": "",
          "type": "string"
        }
      ],
      "stateMutability": "view",
      "type": "function",
      "constant": true
    },
    {
      "inputs": [],
      "name": "name",
      "outputs": [
        {
          "internalType": "string",
          "name": "",
          "type": "string"
        }
      ],
      "stateMutability": "view",
      "type": "function",
      "constant": true
    },
    {
      "inputs": [],
      "name": "owner",
      "outputs": [
        {
          "internalType": "address",
          "name": "",
          "type": "address"
        }
      ],
      "stateMutability": "view",
      "type": "function",
      "constant": true
    },
    {
      "inputs": [
        {
          "internalType": "uint256",
          "name": "",
          "type": "uint256"
        }
      ],
      "name": "parties",
      "outputs": [
        {
          "internalType": "string",
          "name": "",
          "type": "string"
        }
      ],
      "stateMutability": "view",
      "type": "function",
      "constant": true
    },
    {
      "inputs": [
        {
          "internalType": "uint256",
          "name": "",
          "type": "uint256"
        }
      ],
      "name": "voterRegistry",
      "outputs": [
        {
          "internalType": "string",
          "name": "",
          "type": "string"
        }
      ],
      "stateMutability": "view",
      "type": "function",
      "constant": true
    },
    {
      "inputs": [
        {
          "internalType": "address",
          "name": "",
          "type": "address"
        }
      ],
      "name": "voters",
      "outputs": [
        {
          "internalType": "bool",
          "name": "isRegistered",
          "type": "bool"
        },
        {
          "internalType": "bool",
          "name": "hasVoted",
          "type": "bool"
        },
        {
          "internalType": "string",
          "name": "voterID",
          "type": "string"
        },
        {
          "internalType": "uint16",
          "name": "voteCount",
          "type": "uint16"
        }
      ],
      "stateMutability": "view",
      "type": "function",
      "constant": true
    },
    {
      "inputs": [],
      "name": "workflowStatus",
      "outputs": [
        {
          "internalType": "enum Election.WorkflowStatus",
          "name": "",
          "type": "uint8"
        }
      ],
      "stateMutability": "view",
      "type": "function",
      "constant": true
    },
    {
      "inputs": [
        {
          "internalType": "string",
          "name": "voterID",
          "type": "string"
        },
        {
          "internalType": "address",
          "name": "_voterAddress",
          "type": "address"
        },
        {
          "internalType": "string",
          "name": "carrera",
          "type": "string"
        }
      ],
      "name": "registerVoter",
      "outputs": [],
      "stateMutability": "nonpayable",
      "type": "function"
    },
    {
      "inputs": [
        {
          "internalType": "string",
          "name": "carrera",
          "type": "string"
        },
        {
          "internalType": "address",
          "name": "_voterAddress",
          "type": "address"
        }
      ],
      "name": "carreraRegistrada",
      "outputs": [
        {
          "internalType": "bool",
          "name": "",
          "type": "bool"
        }
      ],
      "stateMutability": "view",
      "type": "function",
      "constant": true
    },
    {
      "inputs": [
        {
          "internalType": "string",
          "name": "_name",
          "type": "string"
        },
        {
          "internalType": "string",
          "name": "_party",
          "type": "string"
        },
        {
          "internalType": "string",
          "name": "_degree",
          "type": "string"
        }
      ],
      "name": "registerCandidate",
      "outputs": [],
      "stateMutability": "nonpayable",
      "type": "function"
    },
    {
      "inputs": [
        {
          "internalType": "string",
          "name": "party",
          "type": "string"
        }
      ],
      "name": "isPartyRegistered",
      "outputs": [
        {
          "internalType": "bool",
          "name": "",
          "type": "bool"
        }
      ],
      "stateMutability": "view",
      "type": "function",
      "constant": true
    },
    {
      "inputs": [
        {
          "internalType": "uint256",
          "name": "candidateId",
          "type": "uint256"
        }
      ],
      "name": "vote",
      "outputs": [],
      "stateMutability": "nonpayable",
      "type": "function"
    },
    {
      "inputs": [
        {
          "internalType": "uint256",
          "name": "candidateId",
          "type": "uint256"
        }
      ],
      "name": "getCandidateById",
      "outputs": [
        {
          "internalType": "string",
          "name": "name",
          "type": "string"
        },
        {
          "internalType": "string",
          "name": "party",
          "type": "string"
        },
        {
          "internalType": "string",
          "name": "degree",
          "type": "string"
        },
        {
          "internalType": "uint256",
          "name": "voteCount",
          "type": "uint256"
        },
        {
          "internalType": "uint256",
          "name": "id",
          "type": "uint256"
        }
      ],
      "stateMutability": "view",
      "type": "function",
      "constant": true
    },
    {
      "inputs": [
        {
          "internalType": "string",
          "name": "Sname",
          "type": "string"
        }
      ],
      "name": "getCandidateByName",
      "outputs": [
        {
          "internalType": "string",
          "name": "name",
          "type": "string"
        },
        {
          "internalType": "string",
          "name": "party",
          "type": "string"
        },
        {
          "internalType": "string",
          "name": "degree",
          "type": "string"
        },
        {
          "internalType": "uint256",
          "name": "voteCount",
          "type": "uint256"
        }
      ],
      "stateMutability": "view",
      "type": "function",
      "constant": true
    },
    {
      "inputs": [],
      "name": "getAllCandidates",
      "outputs": [
        {
          "components": [
            {
              "internalType": "string",
              "name": "name",
              "type": "string"
            },
            {
              "internalType": "string",
              "name": "party",
              "type": "string"
            },
            {
              "internalType": "string",
              "name": "degree",
              "type": "string"
            },
            {
              "internalType": "uint256",
              "name": "voteCount",
              "type": "uint256"
            },
            {
              "internalType": "uint256",
              "name": "id",
              "type": "uint256"
            }
          ],
          "internalType": "struct Election.Candidate[]",
          "name": "",
          "type": "tuple[]"
        }
      ],
      "stateMutability": "view",
      "type": "function",
      "constant": true
    },
    {
      "inputs": [],
      "name": "getWinner",
      "outputs": [
        {
          "components": [
            {
              "internalType": "string",
              "name": "name",
              "type": "string"
            },
            {
              "internalType": "uint256",
              "name": "voteCount",
              "type": "uint256"
            }
          ],
          "internalType": "struct Election.Result",
          "name": "",
          "type": "tuple"
        }
      ],
      "stateMutability": "view",
      "type": "function",
      "constant": true
    },
    {
      "inputs": [],
      "name": "getTotalVotes",
      "outputs": [
        {
          "internalType": "uint256",
          "name": "",
          "type": "uint256"
        }
      ],
      "stateMutability": "view",
      "type": "function",
      "constant": true
    },
    {
      "inputs": [],
      "name": "getPercentage",
      "outputs": [
        {
          "internalType": "uint256[]",
          "name": "",
          "type": "uint256[]"
        }
      ],
      "stateMutability": "view",
      "type": "function",
      "constant": true
    },
    {
      "inputs": [],
      "name": "getVoterRegistry",
      "outputs": [
        {
          "internalType": "string[]",
          "name": "",
          "type": "string[]"
        }
      ],
      "stateMutability": "view",
      "type": "function",
      "constant": true
    },
    {
      "inputs": [
        {
          "internalType": "address",
          "name": "_voterAddress",
          "type": "address"
        }
      ],
      "name": "getVoterCarreras",
      "outputs": [
        {
          "internalType": "string[]",
          "name": "",
          "type": "string[]"
        }
      ],
      "stateMutability": "view",
      "type": "function",
      "constant": true
    }
  ],
  "bytecode": "0x608060405234801561001057600080fd5b50600280546001600160a01b031916331790556006805460ff1916905561220a8061003c6000396000f3fe608060405234801561001057600080fd5b50600436106101375760003560e01c80637f8b7697116100b85780639f37d7521161007c5780639f37d7521461029f578063a1edffa2146102b2578063a3ec138d146102cc578063b6d604ae146102ef578063c252b59814610312578063f19192451461032557600080fd5b80637f8b7697146102215780638da5cb5b146102365780638e7ea5b21461026157806395f85022146102765780639a0e7d661461028957600080fd5b806335c3c876116100ff57806335c3c876146101bd57806370651a18146101d0578063721d6389146101e35780637284e416146101f65780637def7fe1146101fe57600080fd5b80630121b93f1461013c57806306fdde03146101515780630b2accb21461016f5780632e6997fe146101845780633477ee2e14610199575b600080fd5b61014f61014a366004611901565b610338565b005b6101596104fc565b604051610166919061196a565b60405180910390f35b61017761058a565b6040516101669190611984565b61018c610662565b60405161016691906119c8565b6101ac6101a7366004611901565b61088b565b604051610166959493929190611a7d565b61014f6101cb366004611b6e565b610a69565b6101596101de366004611901565b610bd3565b61014f6101f1366004611c12565b610bfe565b610159610d65565b61021161020c366004611c59565b610d72565b6040516101669493929190611c96565b610229611058565b6040516101669190611ce1565b600254610249906001600160a01b031681565b6040516001600160a01b039091168152602001610166565b610269611128565b6040516101669190611d43565b6101ac610284366004611901565b61129e565b610291611565565b604051908152602001610166565b6101596102ad366004611901565b6115be565b6006546102bf9060ff1681565b6040516101669190611d75565b6102df6102da366004611d9d565b6115ce565b6040516101669493929190611db8565b6103026102fd366004611c59565b61168a565b6040519015158152602001610166565b610302610320366004611df0565b61172b565b610229610333366004611d9d565b611810565b3360009081526003602052604090205460ff166103b35760405162461bcd60e51b815260206004820152602e60248201527f4f6e6c79207265676973746572656420766f746572732063616e2063616c6c2060448201526d3a3434b990333ab731ba34b7b71760911b60648201526084015b60405180910390fd5b33600090815260036020526040902054610100900460ff16156104185760405162461bcd60e51b815260206004820152601c60248201527f7468652063616c6c65722068617320616c726561647920766f7465640000000060448201526064016103aa565b336000908152600360205260409020805461ff00191661010017905560048054600191908390811061044c5761044c611e3e565b9060005260206000209060050201600301600082825461046c9190611e6a565b90915550503360009081526003602052604081206007805460018181018355919093527fa66cc928b5edb82af9bd49922954155ab7b0942694bea4ce44661d9a8736c688909201916104bf910182611f00565b5060408051338152602081018390527f0902475a854b82199b4f5d6b81327ec4c4ec077ce0356a106ddc2748c5285ed3910160405180910390a150565b6000805461050990611e7d565b80601f016020809104026020016040519081016040528092919081815260200182805461053590611e7d565b80156105825780601f1061055757610100808354040283529160200191610582565b820191906000526020600020905b81548152906001019060200180831161056557829003601f168201915b505050505081565b60606000610596611565565b60045490915060009067ffffffffffffffff8111156105b7576105b7611acb565b6040519080825280602002602001820160405280156105e0578160200160208202803683370190505b50905060005b60045481101561065b57826004828154811061060457610604611e3e565b90600052602060002090600502016003015460646106229190611fe1565b61062c9190611ff8565b82828151811061063e5761063e611e3e565b6020908102919091010152806106538161201a565b9150506105e6565b5092915050565b60606004805480602002602001604051908101604052809291908181526020016000905b8282101561088257838290600052602060002090600502016040518060a00160405290816000820180546106b990611e7d565b80601f01602080910402602001604051908101604052809291908181526020018280546106e590611e7d565b80156107325780601f1061070757610100808354040283529160200191610732565b820191906000526020600020905b81548152906001019060200180831161071557829003601f168201915b5050505050815260200160018201805461074b90611e7d565b80601f016020809104026020016040519081016040528092919081815260200182805461077790611e7d565b80156107c45780601f10610799576101008083540402835291602001916107c4565b820191906000526020600020905b8154815290600101906020018083116107a757829003601f168201915b505050505081526020016002820180546107dd90611e7d565b80601f016020809104026020016040519081016040528092919081815260200182805461080990611e7d565b80156108565780601f1061082b57610100808354040283529160200191610856565b820191906000526020600020905b81548152906001019060200180831161083957829003601f168201915b505050505081526020016003820154815260200160048201548152505081526020019060010190610686565b50505050905090565b6004818154811061089b57600080fd5b90600052602060002090600502016000915090508060000180546108be90611e7d565b80601f01602080910402602001604051908101604052809291908181526020018280546108ea90611e7d565b80156109375780601f1061090c57610100808354040283529160200191610937565b820191906000526020600020905b81548152906001019060200180831161091a57829003601f168201915b50505050509080600101805461094c90611e7d565b80601f016020809104026020016040519081016040528092919081815260200182805461097890611e7d565b80156109c55780601f1061099a576101008083540402835291602001916109c5565b820191906000526020600020905b8154815290600101906020018083116109a857829003601f168201915b5050505050908060020180546109da90611e7d565b80601f0160208091040260200160405190810160405280929190818152602001828054610a0690611e7d565b8015610a535780601f10610a2857610100808354040283529160200191610a53565b820191906000526020600020905b815481529060010190602001808311610a3657829003601f168201915b5050505050908060030154908060040154905085565b6002546001600160a01b03163314610a935760405162461bcd60e51b81526004016103aa90612033565b6040805160a0810182528481526020810184905290810182905260006060820181905260048054608084018190526001810182559152815160059091027f8a35acfbc15ff81a39ae7d344fd709f28e8600b4aa8c65c6b64bfe7fe36bd19b01908190610aff9082612075565b5060208201516001820190610b149082612075565b5060408201516002820190610b299082612075565b5060608201518160030155608082015181600401555050610b498261168a565b610b8b57600580546001810182556000919091527f036b6384b5eca791c62761152d0c79bb0604c104a5fb6f4eb0703f3154bb3db001610b898382612075565b505b6004547ff23ce42eb3d2878c26ab610ef7d3edf80e07cfb6568d4028550637f27c73db4190610bbc9060019061212f565b6040519081526020015b60405180910390a1505050565b60058181548110610be357600080fd5b90600052602060002001600091509050805461050990611e7d565b6002546001600160a01b03163314610c285760405162461bcd60e51b81526004016103aa90612033565b6001600160a01b03821660009081526003602052604090205460ff161580610c575750610c55818361172b565b155b610ca35760405162461bcd60e51b815260206004820152601f60248201527f74686520766f74657220697320616c726561647920726567697374657265640060448201526064016103aa565b6001600160a01b03821660009081526003602052604090205460ff16610cf6576001600160a01b0382166000908152600360205260409020805461ffff19166001908117825501610cf48482612075565b505b6001600160a01b038216600090815260036020818152604083209091018054600181018255908352912001610d2b8282612075565b506040516001600160a01b03831681527f42b360c89ba65a59ac7fec024a7bbb2c21d84b5abe5b5178ba0d7e34653a813090602001610bc6565b6001805461050990611e7d565b606080806000805b60045481101561104f5785604051602001610d959190612142565b6040516020818303038152906040528051906020012060048281548110610dbe57610dbe611e3e565b9060005260206000209060050201600001604051602001610ddf919061215e565b604051602081830303815290604052805190602001200361103d5760048181548110610e0d57610e0d611e3e565b906000526020600020906005020160000160048281548110610e3157610e31611e3e565b906000526020600020906005020160010160048381548110610e5557610e55611e3e565b906000526020600020906005020160020160048481548110610e7957610e79611e3e565b906000526020600020906005020160030154838054610e9790611e7d565b80601f0160208091040260200160405190810160405280929190818152602001828054610ec390611e7d565b8015610f105780601f10610ee557610100808354040283529160200191610f10565b820191906000526020600020905b815481529060010190602001808311610ef357829003601f168201915b50505050509350828054610f2390611e7d565b80601f0160208091040260200160405190810160405280929190818152602001828054610f4f90611e7d565b8015610f9c5780601f10610f7157610100808354040283529160200191610f9c565b820191906000526020600020905b815481529060010190602001808311610f7f57829003601f168201915b50505050509250818054610faf90611e7d565b80601f0160208091040260200160405190810160405280929190818152602001828054610fdb90611e7d565b80156110285780601f10610ffd57610100808354040283529160200191611028565b820191906000526020600020905b81548152906001019060200180831161100b57829003601f168201915b50505050509150945094509450945050611051565b806110478161201a565b915050610d7a565b505b9193509193565b60606007805480602002602001604051908101604052809291908181526020016000905b8282101561088257838290600052602060002001805461109b90611e7d565b80601f01602080910402602001604051908101604052809291908181526020018280546110c790611e7d565b80156111145780601f106110e957610100808354040283529160200191611114565b820191906000526020600020905b8154815290600101906020018083116110f757829003601f168201915b50505050508152602001906001019061107c565b604080518082019091526060815260006020820152600060015b6004548110156111b2576004828154811061115f5761115f611e3e565b9060005260206000209060050201600301546004828154811061118457611184611e3e565b90600052602060002090600502016003015411156111a0578091505b806111aa8161201a565b915050611142565b506040518060400160405280600483815481106111d1576111d1611e3e565b906000526020600020906005020160000180546111ed90611e7d565b80601f016020809104026020016040519081016040528092919081815260200182805461121990611e7d565b80156112665780601f1061123b57610100808354040283529160200191611266565b820191906000526020600020905b81548152906001019060200180831161124957829003601f168201915b505050505081526020016004838154811061128357611283611e3e565b90600052602060002090600502016003015481525091505090565b606080606060008060005b60045481101561155a5786600482815481106112c7576112c7611e3e565b9060005260206000209060050201600401540361154857600481815481106112f1576112f1611e3e565b90600052602060002090600502016000016004828154811061131557611315611e3e565b90600052602060002090600502016001016004838154811061133957611339611e3e565b90600052602060002090600502016002016004848154811061135d5761135d611e3e565b9060005260206000209060050201600301546004858154811061138257611382611e3e565b9060005260206000209060050201600401548480546113a090611e7d565b80601f01602080910402602001604051908101604052809291908181526020018280546113cc90611e7d565b80156114195780601f106113ee57610100808354040283529160200191611419565b820191906000526020600020905b8154815290600101906020018083116113fc57829003601f168201915b5050505050945083805461142c90611e7d565b80601f016020809104026020016040519081016040528092919081815260200182805461145890611e7d565b80156114a55780601f1061147a576101008083540402835291602001916114a5565b820191906000526020600020905b81548152906001019060200180831161148857829003601f168201915b505050505093508280546114b890611e7d565b80601f01602080910402602001604051908101604052809291908181526020018280546114e490611e7d565b80156115315780601f1061150657610100808354040283529160200191611531565b820191906000526020600020905b81548152906001019060200180831161151457829003601f168201915b50505050509250955095509550955095505061155c565b806115528161201a565b9150506112a9565b505b91939590929450565b600080805b6004548110156115b8576004818154811061158757611587611e3e565b906000526020600020906005020160030154826115a49190611e6a565b9150806115b08161201a565b91505061156a565b50919050565b60078181548110610be357600080fd5b6003602052600090815260409020805460018201805460ff80841694610100909404169291906115fd90611e7d565b80601f016020809104026020016040519081016040528092919081815260200182805461162990611e7d565b80156116765780601f1061164b57610100808354040283529160200191611676565b820191906000526020600020905b81548152906001019060200180831161165957829003601f168201915b5050506002909301549192505061ffff1684565b6000805b60055481101561172257826040516020016116a99190612142565b60405160208183030381529060405280519060200120600582815481106116d2576116d2611e3e565b906000526020600020016040516020016116ec919061215e565b60405160208183030381529060405280519060200120036117105750600192915050565b8061171a8161201a565b91505061168e565b50600092915050565b6000805b6001600160a01b0383166000908152600360208190526040909120015481101561180457836040516020016117649190612142565b6040516020818303038152906040528051906020012060036000856001600160a01b03166001600160a01b0316815260200190815260200160002060030182815481106117b3576117b3611e3e565b906000526020600020016040516020016117cd919061215e565b60405160208183030381529060405280519060200120036117f257600191505061180a565b806117fc8161201a565b91505061172f565b50600090505b92915050565b6001600160a01b03811660009081526003602081815260408084209092018054835181840281018401909452808452606094919290919084015b828210156118f657838290600052602060002001805461186990611e7d565b80601f016020809104026020016040519081016040528092919081815260200182805461189590611e7d565b80156118e25780601f106118b7576101008083540402835291602001916118e2565b820191906000526020600020905b8154815290600101906020018083116118c557829003601f168201915b50505050508152602001906001019061184a565b505050509050919050565b60006020828403121561191357600080fd5b5035919050565b60005b8381101561193557818101518382015260200161191d565b50506000910152565b6000815180845261195681602086016020860161191a565b601f01601f19169290920160200192915050565b60208152600061197d602083018461193e565b9392505050565b6020808252825182820181905260009190848201906040850190845b818110156119bc578351835292840192918401916001016119a0565b50909695505050505050565b60006020808301818452808551808352604092508286019150828160051b87010184880160005b83811015611a6f57603f19898403018552815160a08151818652611a158287018261193e565b915050888201518582038a870152611a2d828261193e565b9150508782015185820389870152611a45828261193e565b606084810151908801526080938401519390960192909252505093860193908601906001016119ef565b509098975050505050505050565b60a081526000611a9060a083018861193e565b8281036020840152611aa2818861193e565b90508281036040840152611ab6818761193e565b60608401959095525050608001529392505050565b634e487b7160e01b600052604160045260246000fd5b600082601f830112611af257600080fd5b813567ffffffffffffffff80821115611b0d57611b0d611acb565b604051601f8301601f19908116603f01168101908282118183101715611b3557611b35611acb565b81604052838152866020858801011115611b4e57600080fd5b836020870160208301376000602085830101528094505050505092915050565b600080600060608486031215611b8357600080fd5b833567ffffffffffffffff80821115611b9b57600080fd5b611ba787838801611ae1565b94506020860135915080821115611bbd57600080fd5b611bc987838801611ae1565b93506040860135915080821115611bdf57600080fd5b50611bec86828701611ae1565b9150509250925092565b80356001600160a01b0381168114611c0d57600080fd5b919050565b600080600060608486031215611c2757600080fd5b833567ffffffffffffffff80821115611c3f57600080fd5b611c4b87838801611ae1565b9450611bc960208701611bf6565b600060208284031215611c6b57600080fd5b813567ffffffffffffffff811115611c8257600080fd5b611c8e84828501611ae1565b949350505050565b608081526000611ca9608083018761193e565b8281036020840152611cbb818761193e565b90508281036040840152611ccf818661193e565b91505082606083015295945050505050565b6000602080830181845280855180835260408601915060408160051b870101925083870160005b82811015611d3657603f19888603018452611d2485835161193e565b94509285019290850190600101611d08565b5092979650505050505050565b602081526000825160406020840152611d5f606084018261193e565b9050602084015160408401528091505092915050565b6020810160048310611d9757634e487b7160e01b600052602160045260246000fd5b91905290565b600060208284031215611daf57600080fd5b61197d82611bf6565b84151581528315156020820152608060408201526000611ddb608083018561193e565b905061ffff8316606083015295945050505050565b60008060408385031215611e0357600080fd5b823567ffffffffffffffff811115611e1a57600080fd5b611e2685828601611ae1565b925050611e3560208401611bf6565b90509250929050565b634e487b7160e01b600052603260045260246000fd5b634e487b7160e01b600052601160045260246000fd5b8082018082111561180a5761180a611e54565b600181811c90821680611e9157607f821691505b6020821081036115b857634e487b7160e01b600052602260045260246000fd5b601f821115611efb57600081815260208120601f850160051c81016020861015611ed85750805b601f850160051c820191505b81811015611ef757828155600101611ee4565b5050505b505050565b818103611f0b575050565b611f158254611e7d565b67ffffffffffffffff811115611f2d57611f2d611acb565b611f4181611f3b8454611e7d565b84611eb1565b6000601f821160018114611f755760008315611f5d5750848201545b600019600385901b1c1916600184901b178455611fda565b600085815260209020601f19841690600086815260209020845b83811015611faf5782860154825560019586019590910190602001611f8f565b5085831015611fcd5781850154600019600388901b60f8161c191681555b50505060018360011b0184555b5050505050565b808202811582820484141761180a5761180a611e54565b60008261201557634e487b7160e01b600052601260045260246000fd5b500490565b60006001820161202c5761202c611e54565b5060010190565b60208082526022908201527f4f6e6c79206f776e65722063616e2063616c6c20746869732066756e6374696f604082015261371760f11b606082015260800190565b815167ffffffffffffffff81111561208f5761208f611acb565b61209d81611f3b8454611e7d565b602080601f8311600181146120d257600084156120ba5750858301515b600019600386901b1c1916600185901b178555611ef7565b600085815260208120601f198616915b82811015612101578886015182559484019460019091019084016120e2565b508582101561211f5787850151600019600388901b60f8161c191681555b5050505050600190811b01905550565b8181038181111561180a5761180a611e54565b6000825161215481846020870161191a565b9190910192915050565b600080835461216c81611e7d565b600182811680156121845760018114612199576121c8565b60ff19841687528215158302870194506121c8565b8760005260208060002060005b858110156121bf5781548a8201529084019082016121a6565b50505082870194505b5092969550505050505056fea264697066735822122058e885b54d814119f9f46be3820f0cbb24c5676c16ed8c545905254f46763ea064736f6c63430008110033",
  "immutableReferences": {},
  "source": "pragma solidity ^0.8.0;\r\n// SPDX-License-Identifier: UNLICENSED\r\n\r\ncontract Election {\r\n    // Election details\r\n\r\n    string public name;\r\n    string public description;\r\n\r\n    address public owner;\r\n\r\n    struct Candidate {\r\n        string name;\r\n        string party;\r\n        string degree;\r\n        uint256 voteCount;\r\n        uint id;\r\n    }\r\n\r\n    struct Voter {\r\n        bool isRegistered;\r\n        bool hasVoted;\r\n        string voterID;        uint16 voteCount;\r\n        string[] carreras;\r\n    }\r\n\r\n    struct Result {\r\n        string name;\r\n        uint256 voteCount;\r\n    }\r\n\r\n    mapping(address => Voter) public voters;\r\n    Candidate[] public candidates;\r\n    string[] public parties;\r\n    WorkflowStatus public workflowStatus;\r\n    string[] public voterRegistry;\r\n\r\n    // Para llevar control de cada estado\r\n\r\n    enum WorkflowStatus {\r\n        RegisteringVoters,\r\n        VotingSessionStarted,\r\n        VotingSessionEnded,\r\n        VotesTallied\r\n    }\r\n\r\n    constructor() public {\r\n        owner = msg.sender;\r\n        workflowStatus = WorkflowStatus.RegisteringVoters;\r\n    }\r\n\r\n    modifier onlyOwner() {\r\n        require(msg.sender == owner, \"Only owner can call this function.\");\r\n        _;\r\n    }\r\n\r\n    modifier onlyRegisteredVoter() {\r\n        require(\r\n            voters[msg.sender].isRegistered,\r\n            \"Only registered voters can call this function.\"\r\n        );\r\n        _;\r\n    }\r\n\r\n    modifier onlyDuringVotingSession() {\r\n        require(\r\n            workflowStatus == WorkflowStatus.VotingSessionStarted,\r\n            \"this function can be called only during voting sessions.\"\r\n        );\r\n        _;\r\n    }\r\n\r\n    event VoterRegisteredEvent(address voterAddress);\r\n    event CandidateRegisteredEvent(uint256 candidateId);\r\n    event VotingSessionStartedEvent();\r\n    event VotingSessionEndedEvent();\r\n    event VotedEvent(address voter, uint256 proposalId);\r\n    event VotesTalliedEvent();\r\n\r\n    event WorkflowStatusChangeEvent(\r\n        WorkflowStatus previousStatus,\r\n        WorkflowStatus newStatus\r\n    );\r\n\r\n    function registerVoter(string memory voterID, address _voterAddress, string memory carrera) public onlyOwner {\r\n        require(\r\n            !voters[_voterAddress].isRegistered || !carreraRegistrada(carrera, _voterAddress),\r\n            \"the voter is already registered\"\r\n        );\r\n\r\n        if (!voters[_voterAddress].isRegistered){\r\n            voters[_voterAddress].isRegistered = true;\r\n            voters[_voterAddress].hasVoted = false;\r\n            voters[_voterAddress].voterID = voterID;\r\n        }\r\n        \r\n        voters[_voterAddress].carreras.push(carrera);\r\n\r\n        emit VoterRegisteredEvent(_voterAddress);\r\n    }\r\n\r\n    function carreraRegistrada(string memory carrera, address _voterAddress) public view returns (bool){\r\n        for(uint i = 0; i < voters[_voterAddress].carreras.length; i++){\r\n            if(keccak256(abi.encodePacked(voters[_voterAddress].carreras[i])) == keccak256(abi.encodePacked(carrera))){\r\n                return true;\r\n            }\r\n        }\r\n        return false;\r\n    }\r\n\r\n    function registerCandidate(string memory _name, string memory _party, string memory _degree) public onlyOwner {\r\n        candidates.push(\r\n            Candidate({name: _name, party: _party, degree: _degree, voteCount: 0, id: candidates.length})\r\n        );\r\n\r\n        if (!isPartyRegistered(_party)) {\r\n            parties.push(_party);\r\n        }\r\n\r\n        emit CandidateRegisteredEvent(candidates.length - 1);\r\n    }\r\n\r\n    function isPartyRegistered(string memory party) public view returns (bool) {\r\n        for (uint i = 0; i < parties.length; i++) {\r\n            if (keccak256(abi.encodePacked(parties[i])) == keccak256(abi.encodePacked(party))) {\r\n                return true;\r\n            }\r\n        }\r\n        return false;\r\n    }\r\n\r\n    function vote(uint256 candidateId)\r\n        public\r\n        onlyRegisteredVoter\r\n    {\r\n        require(!voters[msg.sender].hasVoted, \"the caller has already voted\");\r\n\r\n        voters[msg.sender].hasVoted = true;\r\n        candidates[candidateId].voteCount += 1;\r\n        voterRegistry.push(voters[msg.sender].voterID);\r\n\r\n        emit VotedEvent(msg.sender, candidateId);\r\n    }\r\n\r\n    function getCandidateById(uint256 candidateId)\r\n        public\r\n        view\r\n        returns (\r\n            string memory name,\r\n            string memory party,\r\n            string memory degree,\r\n            uint256 voteCount,\r\n            uint id\r\n        )\r\n    {\r\n        for (uint i = 0; i < candidates.length; i++) {\r\n            if (candidates[i].id == candidateId) {\r\n                return (candidates[i].name, candidates[i].party, candidates[i].degree, candidates[i].voteCount, candidates[i].id);\r\n            }\r\n        }\r\n    }\r\n\r\n    function getCandidateByName(string memory Sname)\r\n        public\r\n        view\r\n        returns (\r\n            string memory name,\r\n            string memory party,\r\n            string memory degree,\r\n            uint256 voteCount\r\n        )\r\n    {\r\n        for (uint i = 0; i < candidates.length; i++) {\r\n            if (keccak256(abi.encodePacked(candidates[i].name)) == keccak256(abi.encodePacked(Sname))) {\r\n                return (candidates[i].name, candidates[i].party, candidates[i].degree, candidates[i].voteCount);\r\n            }\r\n        }\r\n    }\r\n\r\n    function getAllCandidates()\r\n        public\r\n        view\r\n        returns (Candidate[] memory)\r\n    {\r\n        return candidates;\r\n    }\r\n\r\n    function getWinner() public view returns (Result memory) {\r\n        uint256 winnerIndex = 0;\r\n        for (uint256 i = 1; i < candidates.length; i++) {\r\n            if (candidates[i].voteCount > candidates[winnerIndex].voteCount) {\r\n                winnerIndex = i;\r\n            }\r\n        }\r\n        return Result(candidates[winnerIndex].name, candidates[winnerIndex].voteCount);\r\n    }\r\n\r\n    function getTotalVotes() public view returns (uint256) {\r\n        uint256 totalVotes = 0;\r\n        for (uint256 i = 0; i < candidates.length; i++) {\r\n            totalVotes += candidates[i].voteCount;\r\n        }\r\n        return totalVotes;\r\n    }\r\n\r\n    function getPercentage() public view returns (uint256[] memory) {\r\n        uint256 totalVotes = getTotalVotes();\r\n        uint256[] memory percentage = new uint256[](candidates.length);\r\n        for (uint256 i = 0; i < candidates.length; i++) {\r\n            percentage[i] = ((candidates[i].voteCount * 100) / totalVotes);\r\n        }\r\n        return percentage;\r\n    }\r\n\r\n    function getVoterRegistry() public view returns (string[] memory) {\r\n        return voterRegistry;\r\n    }\r\n\r\n    function getVoterCarreras(address _voterAddress) public view returns (string[] memory) {\r\n        return voters[_voterAddress].carreras;\r\n    }\r\n}\r\n",
  "sourcePath": "D:\\Windows Folders\\Documents\\Uni\\Software\\voting-dapp\\smart_contract\\contracts\\Election.sol",
  "compiler": {
    "name": "solc",
    "version": "0.8.17+commit.8df45f5f.Emscripten.clang"
  },
  "schemaVersion": "3.4.10",
  "updatedAt": "2022-11-05T21:19:58.715Z",
  "networkType": "ethereum",
  "devdoc": {
    "kind": "dev",
    "methods": {},
    "version": 1
  },
  "userdoc": {
    "kind": "user",
    "methods": {},
    "version": 1
  }
}