{
  "contractName": "Election",
  "abi": [
    {
      "inputs": [],
      "stateMutability": "nonpayable",
      "type": "constructor"
    },
    {
      "inputs": [
        {
          "internalType": "uint256",
          "name": "",
          "type": "uint256"
        }
      ],
      "name": "agrupacionesRegistradas",
      "outputs": [
        {
          "internalType": "string",
          "name": "name",
          "type": "string"
        },
        {
          "internalType": "string",
          "name": "siglas",
          "type": "string"
        }
      ],
      "stateMutability": "view",
      "type": "function",
      "constant": true
    },
    {
      "inputs": [
        {
          "internalType": "string",
          "name": "",
          "type": "string"
        },
        {
          "internalType": "uint256",
          "name": "",
          "type": "uint256"
        }
      ],
      "name": "candidatosCentroEstudiante",
      "outputs": [
        {
          "internalType": "string",
          "name": "nombreAgrupacion",
          "type": "string"
        },
        {
          "internalType": "string",
          "name": "siglasAgrupacion",
          "type": "string"
        },
        {
          "internalType": "uint256",
          "name": "voteCount",
          "type": "uint256"
        }
      ],
      "stateMutability": "view",
      "type": "function",
      "constant": true
    },
    {
      "inputs": [
        {
          "internalType": "uint256",
          "name": "",
          "type": "uint256"
        }
      ],
      "name": "candidatosConsejoAcademico",
      "outputs": [
        {
          "internalType": "string",
          "name": "nombre",
          "type": "string"
        },
        {
          "internalType": "uint256",
          "name": "id",
          "type": "uint256"
        },
        {
          "internalType": "string",
          "name": "degree",
          "type": "string"
        },
        {
          "internalType": "uint256",
          "name": "voteCount",
          "type": "uint256"
        }
      ],
      "stateMutability": "view",
      "type": "function",
      "constant": true
    },
    {
      "inputs": [
        {
          "internalType": "string",
          "name": "",
          "type": "string"
        },
        {
          "internalType": "uint256",
          "name": "",
          "type": "uint256"
        }
      ],
      "name": "candidatosConsejoEscuela",
      "outputs": [
        {
          "internalType": "string",
          "name": "nombreAgrupacion",
          "type": "string"
        },
        {
          "internalType": "string",
          "name": "siglasAgrupacion",
          "type": "string"
        },
        {
          "internalType": "uint256",
          "name": "voteCount",
          "type": "uint256"
        }
      ],
      "stateMutability": "view",
      "type": "function",
      "constant": true
    },
    {
      "inputs": [
        {
          "internalType": "string",
          "name": "",
          "type": "string"
        },
        {
          "internalType": "uint256",
          "name": "",
          "type": "uint256"
        }
      ],
      "name": "candidatosConsejoFacultad",
      "outputs": [
        {
          "internalType": "string",
          "name": "nombreAgrupacion",
          "type": "string"
        },
        {
          "internalType": "string",
          "name": "siglasAgrupacion",
          "type": "string"
        },
        {
          "internalType": "uint256",
          "name": "voteCount",
          "type": "uint256"
        }
      ],
      "stateMutability": "view",
      "type": "function",
      "constant": true
    },
    {
      "inputs": [
        {
          "internalType": "uint256",
          "name": "",
          "type": "uint256"
        }
      ],
      "name": "candidatosCoordinacionFCE",
      "outputs": [
        {
          "internalType": "string",
          "name": "nombreAgrupacion",
          "type": "string"
        },
        {
          "internalType": "string",
          "name": "siglasAgrupacion",
          "type": "string"
        },
        {
          "internalType": "uint256",
          "name": "voteCount",
          "type": "uint256"
        }
      ],
      "stateMutability": "view",
      "type": "function",
      "constant": true
    },
    {
      "inputs": [
        {
          "internalType": "uint256",
          "name": "",
          "type": "uint256"
        }
      ],
      "name": "candidatosJuntaDirectivaFCE",
      "outputs": [
        {
          "internalType": "string",
          "name": "nombreAgrupacion",
          "type": "string"
        },
        {
          "internalType": "string",
          "name": "siglasAgrupacion",
          "type": "string"
        },
        {
          "internalType": "uint256",
          "name": "voteCount",
          "type": "uint256"
        }
      ],
      "stateMutability": "view",
      "type": "function",
      "constant": true
    },
    {
      "inputs": [],
      "name": "description",
      "outputs": [
        {
          "internalType": "string",
          "name": "",
          "type": "string"
        }
      ],
      "stateMutability": "view",
      "type": "function",
      "constant": true
    },
    {
      "inputs": [],
      "name": "name",
      "outputs": [
        {
          "internalType": "string",
          "name": "",
          "type": "string"
        }
      ],
      "stateMutability": "view",
      "type": "function",
      "constant": true
    },
    {
      "inputs": [],
      "name": "owner",
      "outputs": [
        {
          "internalType": "address",
          "name": "",
          "type": "address"
        }
      ],
      "stateMutability": "view",
      "type": "function",
      "constant": true
    },
    {
      "inputs": [
        {
          "internalType": "string",
          "name": "_name",
          "type": "string"
        },
        {
          "internalType": "string",
          "name": "_siglas",
          "type": "string"
        }
      ],
      "name": "addAgrupacion",
      "outputs": [],
      "stateMutability": "nonpayable",
      "type": "function"
    },
    {
      "inputs": [
        {
          "internalType": "string",
          "name": "_name",
          "type": "string"
        },
        {
          "internalType": "string",
          "name": "_siglas",
          "type": "string"
        }
      ],
      "name": "checkAgrupacion",
      "outputs": [
        {
          "internalType": "bool",
          "name": "",
          "type": "bool"
        }
      ],
      "stateMutability": "view",
      "type": "function",
      "constant": true
    },
    {
      "inputs": [],
      "name": "getAgrupaciones",
      "outputs": [
        {
          "components": [
            {
              "internalType": "string",
              "name": "name",
              "type": "string"
            },
            {
              "internalType": "string",
              "name": "siglas",
              "type": "string"
            }
          ],
          "internalType": "struct Election.Party[]",
          "name": "",
          "type": "tuple[]"
        }
      ],
      "stateMutability": "view",
      "type": "function",
      "constant": true
    },
    {
      "inputs": [
        {
          "internalType": "string",
          "name": "_name",
          "type": "string"
        }
      ],
      "name": "getAgrupacion",
      "outputs": [
        {
          "components": [
            {
              "internalType": "string",
              "name": "name",
              "type": "string"
            },
            {
              "internalType": "string",
              "name": "siglas",
              "type": "string"
            }
          ],
          "internalType": "struct Election.Party",
          "name": "agrupacion",
          "type": "tuple"
        }
      ],
      "stateMutability": "view",
      "type": "function",
      "constant": true
    },
    {
      "inputs": [
        {
          "components": [
            {
              "internalType": "string",
              "name": "name",
              "type": "string"
            },
            {
              "internalType": "string",
              "name": "siglas",
              "type": "string"
            }
          ],
          "internalType": "struct Election.Party",
          "name": "_agrupacion",
          "type": "tuple"
        },
        {
          "internalType": "string",
          "name": "_facultad",
          "type": "string"
        }
      ],
      "name": "addConsejoFacultad",
      "outputs": [],
      "stateMutability": "nonpayable",
      "type": "function"
    },
    {
      "inputs": [
        {
          "components": [
            {
              "internalType": "string",
              "name": "name",
              "type": "string"
            },
            {
              "internalType": "string",
              "name": "siglas",
              "type": "string"
            }
          ],
          "internalType": "struct Election.Party",
          "name": "_agrupacion",
          "type": "tuple"
        },
        {
          "internalType": "string",
          "name": "_facultad",
          "type": "string"
        }
      ],
      "name": "checkConsejoFacultad",
      "outputs": [
        {
          "internalType": "bool",
          "name": "",
          "type": "bool"
        }
      ],
      "stateMutability": "view",
      "type": "function",
      "constant": true
    },
    {
      "inputs": [
        {
          "internalType": "string",
          "name": "_facultad",
          "type": "string"
        }
      ],
      "name": "checkInFacultades",
      "outputs": [
        {
          "internalType": "bool",
          "name": "",
          "type": "bool"
        }
      ],
      "stateMutability": "view",
      "type": "function",
      "constant": true
    },
    {
      "inputs": [
        {
          "components": [
            {
              "internalType": "string",
              "name": "name",
              "type": "string"
            },
            {
              "internalType": "string",
              "name": "siglas",
              "type": "string"
            }
          ],
          "internalType": "struct Election.Party",
          "name": "_agrupacion",
          "type": "tuple"
        },
        {
          "internalType": "string",
          "name": "_escuela",
          "type": "string"
        }
      ],
      "name": "addConsejoEscuela",
      "outputs": [],
      "stateMutability": "nonpayable",
      "type": "function"
    },
    {
      "inputs": [
        {
          "components": [
            {
              "internalType": "string",
              "name": "name",
              "type": "string"
            },
            {
              "internalType": "string",
              "name": "siglas",
              "type": "string"
            }
          ],
          "internalType": "struct Election.Party",
          "name": "_agrupacion",
          "type": "tuple"
        },
        {
          "internalType": "string",
          "name": "_escuela",
          "type": "string"
        }
      ],
      "name": "checkConsejoEscuela",
      "outputs": [
        {
          "internalType": "bool",
          "name": "",
          "type": "bool"
        }
      ],
      "stateMutability": "view",
      "type": "function",
      "constant": true
    },
    {
      "inputs": [
        {
          "internalType": "string",
          "name": "_escuela",
          "type": "string"
        }
      ],
      "name": "checkInEscuelas",
      "outputs": [
        {
          "internalType": "bool",
          "name": "",
          "type": "bool"
        }
      ],
      "stateMutability": "view",
      "type": "function",
      "constant": true
    },
    {
      "inputs": [
        {
          "components": [
            {
              "internalType": "string",
              "name": "name",
              "type": "string"
            },
            {
              "internalType": "string",
              "name": "siglas",
              "type": "string"
            }
          ],
          "internalType": "struct Election.Party",
          "name": "_agrupacion",
          "type": "tuple"
        },
        {
          "internalType": "string",
          "name": "_escuela",
          "type": "string"
        }
      ],
      "name": "addCentroEstudiantes",
      "outputs": [],
      "stateMutability": "nonpayable",
      "type": "function"
    },
    {
      "inputs": [
        {
          "components": [
            {
              "internalType": "string",
              "name": "name",
              "type": "string"
            },
            {
              "internalType": "string",
              "name": "siglas",
              "type": "string"
            }
          ],
          "internalType": "struct Election.Party",
          "name": "_agrupacion",
          "type": "tuple"
        },
        {
          "internalType": "string",
          "name": "_escuela",
          "type": "string"
        }
      ],
      "name": "checkCentroEstudiantes",
      "outputs": [
        {
          "internalType": "bool",
          "name": "",
          "type": "bool"
        }
      ],
      "stateMutability": "view",
      "type": "function",
      "constant": true
    },
    {
      "inputs": [
        {
          "components": [
            {
              "internalType": "string",
              "name": "name",
              "type": "string"
            },
            {
              "internalType": "string",
              "name": "siglas",
              "type": "string"
            }
          ],
          "internalType": "struct Election.Party",
          "name": "_agrupacion",
          "type": "tuple"
        }
      ],
      "name": "addJuntaDirectiva",
      "outputs": [],
      "stateMutability": "nonpayable",
      "type": "function"
    },
    {
      "inputs": [
        {
          "components": [
            {
              "internalType": "string",
              "name": "name",
              "type": "string"
            },
            {
              "internalType": "string",
              "name": "siglas",
              "type": "string"
            }
          ],
          "internalType": "struct Election.Party",
          "name": "_agrupacion",
          "type": "tuple"
        }
      ],
      "name": "checkJuntaDirectiva",
      "outputs": [
        {
          "internalType": "bool",
          "name": "",
          "type": "bool"
        }
      ],
      "stateMutability": "view",
      "type": "function",
      "constant": true
    },
    {
      "inputs": [
        {
          "components": [
            {
              "internalType": "string",
              "name": "name",
              "type": "string"
            },
            {
              "internalType": "string",
              "name": "siglas",
              "type": "string"
            }
          ],
          "internalType": "struct Election.Party",
          "name": "_agrupacion",
          "type": "tuple"
        }
      ],
      "name": "addCoordinacionFCE",
      "outputs": [],
      "stateMutability": "nonpayable",
      "type": "function"
    },
    {
      "inputs": [
        {
          "components": [
            {
              "internalType": "string",
              "name": "name",
              "type": "string"
            },
            {
              "internalType": "string",
              "name": "siglas",
              "type": "string"
            }
          ],
          "internalType": "struct Election.Party",
          "name": "_agrupacion",
          "type": "tuple"
        }
      ],
      "name": "checkCoordinacion",
      "outputs": [
        {
          "internalType": "bool",
          "name": "",
          "type": "bool"
        }
      ],
      "stateMutability": "view",
      "type": "function",
      "constant": true
    },
    {
      "inputs": [
        {
          "internalType": "string",
          "name": "_name",
          "type": "string"
        },
        {
          "internalType": "uint256",
          "name": "_id",
          "type": "uint256"
        },
        {
          "internalType": "string",
          "name": "_major",
          "type": "string"
        }
      ],
      "name": "addConsejeroAcademico",
      "outputs": [],
      "stateMutability": "nonpayable",
      "type": "function"
    },
    {
      "inputs": [
        {
          "internalType": "uint256",
          "name": "_id",
          "type": "uint256"
        }
      ],
      "name": "checkConsejeroAcademico",
      "outputs": [
        {
          "internalType": "bool",
          "name": "",
          "type": "bool"
        }
      ],
      "stateMutability": "view",
      "type": "function",
      "constant": true
    },
    {
      "inputs": [
        {
          "internalType": "uint256",
          "name": "_id",
          "type": "uint256"
        }
      ],
      "name": "getCandidateConsejoAcademico",
      "outputs": [
        {
          "components": [
            {
              "internalType": "string",
              "name": "nombre",
              "type": "string"
            },
            {
              "internalType": "uint256",
              "name": "id",
              "type": "uint256"
            },
            {
              "internalType": "string",
              "name": "degree",
              "type": "string"
            },
            {
              "internalType": "uint256",
              "name": "voteCount",
              "type": "uint256"
            }
          ],
          "internalType": "struct Election.CandidateConsejero",
          "name": "candidate",
          "type": "tuple"
        }
      ],
      "stateMutability": "view",
      "type": "function",
      "constant": true
    },
    {
      "inputs": [],
      "name": "getAllCandidatesConsejoAcademico",
      "outputs": [
        {
          "components": [
            {
              "internalType": "string",
              "name": "nombre",
              "type": "string"
            },
            {
              "internalType": "uint256",
              "name": "id",
              "type": "uint256"
            },
            {
              "internalType": "string",
              "name": "degree",
              "type": "string"
            },
            {
              "internalType": "uint256",
              "name": "voteCount",
              "type": "uint256"
            }
          ],
          "internalType": "struct Election.CandidateConsejero[]",
          "name": "",
          "type": "tuple[]"
        }
      ],
      "stateMutability": "view",
      "type": "function",
      "constant": true
    },
    {
      "inputs": [
        {
          "internalType": "string",
          "name": "_facultad",
          "type": "string"
        }
      ],
      "name": "getCandidatosConsejoFacultad",
      "outputs": [
        {
          "components": [
            {
              "internalType": "string",
              "name": "nombreAgrupacion",
              "type": "string"
            },
            {
              "internalType": "string",
              "name": "siglasAgrupacion",
              "type": "string"
            },
            {
              "internalType": "uint256",
              "name": "voteCount",
              "type": "uint256"
            }
          ],
          "internalType": "struct Election.CandidateConsejoFacultad[]",
          "name": "",
          "type": "tuple[]"
        }
      ],
      "stateMutability": "view",
      "type": "function",
      "constant": true
    },
    {
      "inputs": [
        {
          "internalType": "string",
          "name": "_escuela",
          "type": "string"
        }
      ],
      "name": "getCandidatosConsejoEscuela",
      "outputs": [
        {
          "components": [
            {
              "internalType": "string",
              "name": "nombreAgrupacion",
              "type": "string"
            },
            {
              "internalType": "string",
              "name": "siglasAgrupacion",
              "type": "string"
            },
            {
              "internalType": "uint256",
              "name": "voteCount",
              "type": "uint256"
            }
          ],
          "internalType": "struct Election.CandidateCentroEstudiantes[]",
          "name": "",
          "type": "tuple[]"
        }
      ],
      "stateMutability": "view",
      "type": "function",
      "constant": true
    },
    {
      "inputs": [
        {
          "internalType": "string",
          "name": "_escuela",
          "type": "string"
        }
      ],
      "name": "getCandidatosCentroEstudiante",
      "outputs": [
        {
          "components": [
            {
              "internalType": "string",
              "name": "nombreAgrupacion",
              "type": "string"
            },
            {
              "internalType": "string",
              "name": "siglasAgrupacion",
              "type": "string"
            },
            {
              "internalType": "uint256",
              "name": "voteCount",
              "type": "uint256"
            }
          ],
          "internalType": "struct Election.CandidateCentroEstudiantes[]",
          "name": "",
          "type": "tuple[]"
        }
      ],
      "stateMutability": "view",
      "type": "function",
      "constant": true
    },
    {
      "inputs": [],
      "name": "getCandidatosdCoordinacionFCE",
      "outputs": [
        {
          "components": [
            {
              "internalType": "string",
              "name": "nombreAgrupacion",
              "type": "string"
            },
            {
              "internalType": "string",
              "name": "siglasAgrupacion",
              "type": "string"
            },
            {
              "internalType": "uint256",
              "name": "voteCount",
              "type": "uint256"
            }
          ],
          "internalType": "struct Election.CandidateCoordinacion[]",
          "name": "",
          "type": "tuple[]"
        }
      ],
      "stateMutability": "view",
      "type": "function",
      "constant": true
    },
    {
      "inputs": [],
      "name": "getCandidatosJuntaDirectivaFCE",
      "outputs": [
        {
          "components": [
            {
              "internalType": "string",
              "name": "nombreAgrupacion",
              "type": "string"
            },
            {
              "internalType": "string",
              "name": "siglasAgrupacion",
              "type": "string"
            },
            {
              "internalType": "uint256",
              "name": "voteCount",
              "type": "uint256"
            }
          ],
          "internalType": "struct Election.CandidateJuntaDirectiva[]",
          "name": "",
          "type": "tuple[]"
        }
      ],
      "stateMutability": "view",
      "type": "function",
      "constant": true
    },
    {
      "inputs": [
        {
          "internalType": "uint256",
          "name": "_id",
          "type": "uint256"
        },
        {
          "internalType": "string[]",
          "name": "_carreras",
          "type": "string[]"
        }
      ],
      "name": "addVotante",
      "outputs": [],
      "stateMutability": "nonpayable",
      "type": "function"
    },
    {
      "inputs": [
        {
          "components": [
            {
              "internalType": "uint256",
              "name": "id",
              "type": "uint256"
            },
            {
              "internalType": "string[]",
              "name": "carreras",
              "type": "string[]"
            },
            {
              "internalType": "bool",
              "name": "voted",
              "type": "bool"
            }
          ],
          "internalType": "struct Election.Votante",
          "name": "_votante",
          "type": "tuple"
        }
      ],
      "name": "registerVotanteFacultad",
      "outputs": [],
      "stateMutability": "nonpayable",
      "type": "function"
    },
    {
      "inputs": [
        {
          "internalType": "string",
          "name": "_carrera",
          "type": "string"
        }
      ],
      "name": "getFacultadCarrera",
      "outputs": [
        {
          "internalType": "string",
          "name": "",
          "type": "string"
        }
      ],
      "stateMutability": "pure",
      "type": "function",
      "constant": true
    },
    {
      "inputs": [
        {
          "internalType": "uint256",
          "name": "_id",
          "type": "uint256"
        },
        {
          "internalType": "string",
          "name": "_facultad",
          "type": "string"
        }
      ],
      "name": "checkVotanteEnFacultad",
      "outputs": [
        {
          "internalType": "bool",
          "name": "",
          "type": "bool"
        }
      ],
      "stateMutability": "view",
      "type": "function",
      "constant": true
    },
    {
      "inputs": [
        {
          "internalType": "uint256",
          "name": "_id",
          "type": "uint256"
        }
      ],
      "name": "getParticipatingSections",
      "outputs": [
        {
          "internalType": "string[]",
          "name": "",
          "type": "string[]"
        }
      ],
      "stateMutability": "view",
      "type": "function",
      "constant": true
    },
    {
      "inputs": [
        {
          "internalType": "uint256",
          "name": "_id",
          "type": "uint256"
        }
      ],
      "name": "getFacultyCount",
      "outputs": [
        {
          "internalType": "uint256",
          "name": "",
          "type": "uint256"
        }
      ],
      "stateMutability": "view",
      "type": "function",
      "constant": true
    },
    {
      "inputs": [
        {
          "internalType": "uint256",
          "name": "_id",
          "type": "uint256"
        }
      ],
      "name": "checkRegisteredVoter",
      "outputs": [
        {
          "internalType": "bool",
          "name": "",
          "type": "bool"
        }
      ],
      "stateMutability": "view",
      "type": "function",
      "constant": true
    },
    {
      "inputs": [
        {
          "internalType": "uint256",
          "name": "_id",
          "type": "uint256"
        }
      ],
      "name": "inRegistroElectoral",
      "outputs": [
        {
          "internalType": "bool",
          "name": "",
          "type": "bool"
        }
      ],
      "stateMutability": "view",
      "type": "function",
      "constant": true
    },
    {
      "inputs": [
        {
          "internalType": "uint256",
          "name": "_id",
          "type": "uint256"
        }
      ],
      "name": "agregarARegistroElectoral",
      "outputs": [],
      "stateMutability": "nonpayable",
      "type": "function"
    },
    {
      "inputs": [
        {
          "internalType": "uint256",
          "name": "_id",
          "type": "uint256"
        }
      ],
      "name": "getVotante",
      "outputs": [
        {
          "components": [
            {
              "internalType": "uint256",
              "name": "id",
              "type": "uint256"
            },
            {
              "internalType": "string[]",
              "name": "carreras",
              "type": "string[]"
            },
            {
              "internalType": "bool",
              "name": "voted",
              "type": "bool"
            }
          ],
          "internalType": "struct Election.Votante",
          "name": "",
          "type": "tuple"
        }
      ],
      "stateMutability": "view",
      "type": "function",
      "constant": true
    }
  ],
  "bytecode": "0x600c6102608181526b496e672e205175696d69636160a01b61028052608090815260106102a09081526f496e672e2064652053697374656d617360801b6102c05260a052600a6102e081815269125b99cb8810da5d9a5b60b21b6103005260c052600d6103209081526c496e672e204d6563616e69636160981b6103405260e05260126103608181527124b7339710323290283937b23ab1b1b4b7b760711b6103805261010052600e6103a08181526d496e672e20456c6563747269636160901b6103c052610120526103e08181526d20b236b4b734b9ba3930b1b4b7b760911b610400526101405261042092835269436f6e7461647572696160b01b610440526101609290925260086104609081526745636f6e6f6d696160c01b610480526101805260096104a09081526822b23ab1b0b1b4b7b760b91b6104c0526101a05260076104e0818152664964696f6d617360c81b610500526101c0526105209485526b507369636f6c6f6c6f67696160a01b610540526101e094909452610560908152714d6174652e20496e647573747269616c657360701b61058052610200526105a09081526d4573742e204c69626572616c657360901b6105c052610220526106206040526105e0918252664465726563686f60c81b6106005261024091909152620001f290600390600f620002ec565b506040805160c081018252600a6080820190815269496e67656e696572696160b01b60a0830152815281518083018352601e8082527f4369656e636961732045636f6e6f6d69636173207920536f6369616c657300006020838101919091528084019290925283518085018552601081526f4369656e63696173207920417274657360801b8184015283850152835180850190945283527f4573747564696f73204a7572696469636f73207920506f6c697469636f730000908301526060810191909152620002c5906004908162000349565b50348015620002d357600080fd5b50600280546001600160a01b031916331790556200057f565b82805482825590600052602060002090810192821562000337579160200282015b82811115620003375782518290620003269082620004b3565b50916020019190600101906200030d565b506200034592915062000394565b5090565b82805482825590600052602060002090810192821562000337579160200282015b82811115620003375782518290620003839082620004b3565b50916020019190600101906200036a565b8082111562000345576000620003ab8282620003b5565b5060010162000394565b508054620003c39062000424565b6000825580601f10620003d4575050565b601f016020900490600052602060002090810190620003f49190620003f7565b50565b5b80821115620003455760008155600101620003f8565b634e487b7160e01b600052604160045260246000fd5b600181811c908216806200043957607f821691505b6020821081036200045a57634e487b7160e01b600052602260045260246000fd5b50919050565b601f821115620004ae57600081815260208120601f850160051c81016020861015620004895750805b601f850160051c820191505b81811015620004aa5782815560010162000495565b5050505b505050565b81516001600160401b03811115620004cf57620004cf6200040e565b620004e781620004e0845462000424565b8462000460565b602080601f8311600181146200051f5760008415620005065750858301515b600019600386901b1c1916600185901b178555620004aa565b600085815260208120601f198616915b8281101562000550578886015182559484019460019091019084016200052f565b50858210156200056f5787850151600019600388901b60f8161c191681555b5050505050600190811b01905550565b614dfa806200058f6000396000f3fe608060405234801561001057600080fd5b506004361061027f5760003560e01c806390ae30111161015c578063c889b2e1116100ce578063e3c1c67611610087578063e3c1c67614610615578063e8db3d9514610635578063eaa8411e14610648578063ebbc23c21461066b578063f0828fc21461067e578063f634d0421461069357600080fd5b8063c889b2e114610586578063c9995f69146105a7578063d127bbce146105bc578063d1e92e42146105cf578063d6c6158d146105ef578063e150495d1461060257600080fd5b8063ac972b8811610120578063ac972b8814610514578063adcbe28b14610527578063b3da35b01461053a578063c2825b391461054d578063c5a2ca1214610560578063c74ad1ec1461057357600080fd5b806390ae30111461049957806395146f83146104ac57806396cfc4ef146104c1578063a2eda88b146104e1578063a4241f8c1461050157600080fd5b806339b5d114116101f557806368cec408116101b957806368cec408146103fd5780637284e4161461042057806388d0f4e0146104285780638a6a90721461043b5780638da5cb5b1461044e5780638e43462e1461047957600080fd5b806339b5d1141461038e5780633d42c6bb146103af5780634bfa95cf146103c25780636733013e146103d5578063674456e0146103e857600080fd5b80631aa0ae89116102475780631aa0ae891461030d5780631aeb64b7146103205780631e8d9f3214610333578063236e3f1f14610355578063251f44761461036857806328bb254c1461037b57600080fd5b806306fdde031461028457806308388928146102a25780630af6f091146102b7578063172d8263146102da578063197db0de146102ed575b600080fd5b61028c6106a6565b604051610299919061405b565b60405180910390f35b6102b56102b03660046141b3565b610734565b005b6102ca6102c53660046141ef565b610842565b6040519015158152602001610299565b6102b56102e83660046141b3565b6108e3565b6103006102fb3660046141ef565b6109c3565b604051610299919061425a565b6102b561031b36600461430b565b610bca565b6102b561032e3660046143b3565b610c5a565b610346610341366004614416565b610da9565b6040516102999392919061442f565b610346610363366004614465565b610ef3565b610346610376366004614465565b610f42565b6102ca6103893660046141b3565b610f6d565b6103a161039c366004614416565b61108a565b604051908152602001610299565b6102ca6103bd3660046143b3565b61119b565b6102b56103d03660046143b3565b611318565b61028c6103e33660046141ef565b6113f5565b6103f0611bc7565b60405161029991906144f8565b6102ca61040b366004614416565b6000908152600e602052604090205460ff1690565b61028c611d5e565b6102b561043636600461455a565b611d6b565b6102ca6104493660046145c6565b611e81565b600254610461906001600160a01b031681565b6040516001600160a01b039091168152602001610299565b61048c610487366004614416565b611eb8565b604051610299919061464a565b6102ca6104a73660046141b3565b611ff6565b6104b4612113565b6040516102999190614688565b6104d46104cf366004614416565b61228d565b60405161029991906146dd565b6104f46104ef3660046141ef565b612852565b6040516102999190614735565b6102ca61050f3660046141ef565b6129fd565b6102b561052236600461478a565b612a95565b6102b5610535366004614416565b612cef565b610346610548366004614416565b612daa565b61034661055b366004614465565b612dba565b6102ca61056e3660046147c6565b612de5565b6102b56105813660046147c6565b612f00565b610599610594366004614416565b61304d565b6040516102999291906147fc565b6105af613191565b6040516102999190614821565b6102ca6105ca3660046143b3565b613315565b6105e26105dd3660046141ef565b613488565b6040516102999190614876565b6105e26105fd3660046141ef565b613628565b6102ca610610366004614416565b6137c8565b610628610623366004614416565b6137ee565b60405161029991906148cb565b6102ca6106433660046143b3565b6139cf565b61065b610656366004614416565b613b42565b60405161029994939291906148de565b6102ca610679366004614416565b613c92565b610686613ce6565b604051610299919061491b565b6102b56106a13660046143b3565b613e6a565b600080546106b390614970565b80601f01602080910402602001604051908101604052809291908181526020018280546106df90614970565b801561072c5780601f106107015761010080835404028352916020019161072c565b820191906000526020600020905b81548152906001019060200180831161070f57829003601f168201915b505050505081565b61074681600001518260200151612de5565b61076b5760405162461bcd60e51b8152600401610762906149a4565b60405180910390fd5b61077481610f6d565b156107915760405162461bcd60e51b8152600401610762906149db565b6002546001600160a01b031633146107bb5760405162461bcd60e51b815260040161076290614a23565b6040805160608101825282518152602080840151908201526000918101829052600880546001810182559252805190916003027ff3f7a9fe364faab93b216da50a3214154f22a0a2b415b23a84c8169e8b636ee30190819061081d9082614ac6565b50602082015160018201906108329082614ac6565b5060408201518160020155505050565b6000805b6004548110156108da57826040516020016108619190614b85565b604051602081830303815290604052805190602001206004828154811061088a5761088a614ba1565b906000526020600020016040516020016108a49190614c2a565b60405160208183030381529060405280519060200120036108c85750600192915050565b806108d281614c4c565b915050610846565b50600092915050565b6108f581600001518260200151612de5565b6109115760405162461bcd60e51b8152600401610762906149a4565b61091a81611ff6565b156109375760405162461bcd60e51b8152600401610762906149db565b6002546001600160a01b031633146109615760405162461bcd60e51b815260040161076290614a23565b6040805160608101825282518152602080840151908201526000918101829052600780546001810182559252805190916003027fa66cc928b5edb82af9bd49922954155ab7b0942694bea4ce44661d9a8736c6880190819061081d9082614ac6565b604080518082019091526060808252602082015260005b600554811015610bc457826040516020016109f59190614b85565b6040516020818303038152906040528051906020012060058281548110610a1e57610a1e614ba1565b9060005260206000209060020201600001604051602001610a3f9190614c2a565b6040516020818303038152906040528051906020012003610bb25760058181548110610a6d57610a6d614ba1565b9060005260206000209060020201604051806040016040529081600082018054610a9690614970565b80601f0160208091040260200160405190810160405280929190818152602001828054610ac290614970565b8015610b0f5780601f10610ae457610100808354040283529160200191610b0f565b820191906000526020600020905b815481529060010190602001808311610af257829003601f168201915b50505050508152602001600182018054610b2890614970565b80601f0160208091040260200160405190810160405280929190818152602001828054610b5490614970565b8015610ba15780601f10610b7657610100808354040283529160200191610ba1565b820191906000526020600020905b815481529060010190602001808311610b8457829003601f168201915b505050505081525050915050919050565b80610bbc81614c4c565b9150506109da565b50919050565b602081015160005b8151811015610c55576001600d600085600001518152602001908152602001600020610c16848481518110610c0957610c09614ba1565b60200260200101516113f5565b604051610c239190614b85565b908152604051908190036020019020805491151560ff1990921691909117905580610c4d81614c4c565b915050610bd2565b505050565b610c6c82600001518360200151612de5565b610c885760405162461bcd60e51b8152600401610762906149a4565b610c9282826139cf565b15610caf5760405162461bcd60e51b8152600401610762906149db565b610cb8816129fd565b610cfb5760405162461bcd60e51b815260206004820152601460248201527343656e74726f206e6f207265676973747261646f60601b6044820152606401610762565b6002546001600160a01b03163314610d255760405162461bcd60e51b815260040161076290614a23565b600b81604051610d359190614b85565b9081526040805191829003602090810183206060840183528551845285820151848301526000928401839052805460018101825590835291208251600390920201908190610d839082614ac6565b5060208201516001820190610d989082614ac6565b506040820151816002015550505050565b60078181548110610db957600080fd5b9060005260206000209060030201600091509050806000018054610ddc90614970565b80601f0160208091040260200160405190810160405280929190818152602001828054610e0890614970565b8015610e555780601f10610e2a57610100808354040283529160200191610e55565b820191906000526020600020905b815481529060010190602001808311610e3857829003601f168201915b505050505090806001018054610e6a90614970565b80601f0160208091040260200160405190810160405280929190818152602001828054610e9690614970565b8015610ee35780601f10610eb857610100808354040283529160200191610ee3565b820191906000526020600020905b815481529060010190602001808311610ec657829003601f168201915b5050505050908060020154905083565b8151602081840181018051600a825292820191850191909120919052805482908110610f1e57600080fd5b906000526020600020906003020160009150915050806000018054610ddc90614970565b8151602081840181018051600b825292820191850191909120919052805482908110610f1e57600080fd5b6000805b6008548110156108da578251604051610f8d9190602001614b85565b6040516020818303038152906040528051906020012060088281548110610fb657610fb6614ba1565b9060005260206000209060030201600001604051602001610fd79190614c2a565b6040516020818303038152906040528051906020012014801561106a57506020808401516040516110089201614b85565b604051602081830303815290604052805190602001206008828154811061103157611031614ba1565b90600052602060002090600302016001016040516020016110529190614c2a565b60405160208183030381529060405280519060200120145b156110785750600192915050565b8061108281614c4c565b915050610f71565b600080600090506110bd836040518060400160405280600a815260200169496e67656e696572696160b01b815250611e81565b156110d057806110cc81614c4c565b9150505b6110fd836040518060400160405280601e8152602001600080516020614d85833981519152815250611e81565b15611110578061110c81614c4c565b9150505b611142836040518060400160405280601081526020016f4369656e63696173207920417274657360801b815250611e81565b15611155578061115181614c4c565b9150505b611182836040518060400160405280601e8152602001600080516020614da5833981519152815250611e81565b15611195578061119181614c4c565b9150505b92915050565b6000805b6009836040516111af9190614b85565b9081526040519081900360200190205481101561130e5783516040516111d89190602001614b85565b604051602081830303815290604052805190602001206009846040516111fe9190614b85565b9081526020016040518091039020828154811061121d5761121d614ba1565b906000526020600020906003020160000160405160200161123e9190614c2a565b604051602081830303815290604052805190602001201480156112ed575060208085015160405161126f9201614b85565b604051602081830303815290604052805190602001206009846040516112959190614b85565b908152602001604051809103902082815481106112b4576112b4614ba1565b90600052602060002090600302016001016040516020016112d59190614c2a565b60405160208183030381529060405280519060200120145b156112fc576001915050611195565b8061130681614c4c565b91505061119f565b5060009392505050565b61132a82600001518360200151612de5565b6113465760405162461bcd60e51b8152600401610762906149a4565b611350828261119b565b1561136d5760405162461bcd60e51b8152600401610762906149db565b61137681610842565b6113bb5760405162461bcd60e51b8152602060048201526016602482015275466163756c746164206e6f207265676973747261646160501b6044820152606401610762565b6002546001600160a01b031633146113e55760405162461bcd60e51b815260040161076290614a23565b600981604051610d359190614b85565b6040516b496e672e205175696d69636160a01b6020820152606090602c01604051602081830303815290604052805190602001208260405160200161143a9190614b85565b604051602081830303815290604052805190602001200361147b57505060408051808201909152600a815269496e67656e696572696160b01b602082015290565b6040516f496e672e2064652053697374656d617360801b602082015260300160405160208183030381529060405280519060200120826040516020016114c19190614b85565b604051602081830303815290604052805190602001200361150257505060408051808201909152600a815269496e67656e696572696160b01b602082015290565b60405169125b99cb8810da5d9a5b60b21b6020820152602a0160405160208183030381529060405280519060200120826040516020016115429190614b85565b604051602081830303815290604052805190602001200361158357505060408051808201909152600a815269496e67656e696572696160b01b602082015290565b6040516c496e672e204d6563616e69636160981b6020820152602d0160405160208183030381529060405280519060200120826040516020016115c69190614b85565b604051602081830303815290604052805190602001200361160757505060408051808201909152600a815269496e67656e696572696160b01b602082015290565b6040517124b7339710323290283937b23ab1b1b4b7b760711b6020820152603201604051602081830303815290604052805190602001208260405160200161164f9190614b85565b604051602081830303815290604052805190602001200361169057505060408051808201909152600a815269496e67656e696572696160b01b602082015290565b6040516d496e672e20456c6563747269636160901b6020820152602e0160405160208183030381529060405280519060200120826040516020016116d49190614b85565b604051602081830303815290604052805190602001200361171557505060408051808201909152600a815269496e67656e696572696160b01b602082015290565b6040516d20b236b4b734b9ba3930b1b4b7b760911b6020820152602e0160405160208183030381529060405280519060200120826040516020016117599190614b85565b604051602081830303815290604052805190602001200361179b57505060408051808201909152601e8152600080516020614d85833981519152602082015290565b6040516745636f6e6f6d696160c01b602082015260280160405160208183030381529060405280519060200120826040516020016117d99190614b85565b604051602081830303815290604052805190602001200361181b57505060408051808201909152601e8152600080516020614d85833981519152602082015290565b60405169436f6e7461647572696160b01b6020820152602a01604051602081830303815290604052805190602001208260405160200161185b9190614b85565b604051602081830303815290604052805190602001200361189d57505060408051808201909152601e8152600080516020614d85833981519152602082015290565b6040516822b23ab1b0b1b4b7b760b91b602082015260290160405160208183030381529060405280519060200120826040516020016118dc9190614b85565b604051602081830303815290604052805190602001200361192357505060408051808201909152601081526f4369656e63696173207920417274657360801b602082015290565b604051664964696f6d617360c81b602082015260270160405160208183030381529060405280519060200120826040516020016119609190614b85565b60405160208183030381529060405280519060200120036119a757505060408051808201909152601081526f4369656e63696173207920417274657360801b602082015290565b60405169507369636f6c6f67696160b01b6020820152602a0160405160208183030381529060405280519060200120826040516020016119e79190614b85565b6040516020818303038152906040528051906020012003611a2e57505060408051808201909152601081526f4369656e63696173207920417274657360801b602082015290565b604051714d6174652e20496e647573747269616c657360701b60208201526032016040516020818303038152906040528051906020012082604051602001611a769190614b85565b6040516020818303038152906040528051906020012003611abd57505060408051808201909152601081526f4369656e63696173207920417274657360801b602082015290565b6040516d4573742e204c69626572616c657360901b6020820152602e016040516020818303038152906040528051906020012082604051602001611b019190614b85565b6040516020818303038152906040528051906020012003611b4357505060408051808201909152601e8152600080516020614da5833981519152602082015290565b604051664465726563686f60c81b60208201526027016040516020818303038152906040528051906020012082604051602001611b809190614b85565b6040516020818303038152906040528051906020012003611bc257505060408051808201909152601e8152600080516020614da5833981519152602082015290565b919050565b60606006805480602002602001604051908101604052809291908181526020016000905b82821015611d555783829060005260206000209060040201604051806080016040529081600082018054611c1e90614970565b80601f0160208091040260200160405190810160405280929190818152602001828054611c4a90614970565b8015611c975780601f10611c6c57610100808354040283529160200191611c97565b820191906000526020600020905b815481529060010190602001808311611c7a57829003601f168201915b5050505050815260200160018201548152602001600282018054611cba90614970565b80601f0160208091040260200160405190810160405280929190818152602001828054611ce690614970565b8015611d335780601f10611d0857610100808354040283529160200191611d33565b820191906000526020600020905b815481529060010190602001808311611d1657829003601f168201915b5050505050815260200160038201548152505081526020019060010190611beb565b50505050905090565b600180546106b390614970565b6002546001600160a01b03163314611d955760405162461bcd60e51b815260040161076290614a23565b611d9e82613c92565b15611deb5760405162461bcd60e51b815260206004820152601760248201527f436f6e73656a65726f207961207265676973747261646f0000000000000000006044820152606401610762565b6040805160808101825284815260208101849052908101829052600060608201819052600680546001810182559152815160049091027ff652222313e28459528d920b65115c16c04f3efc82aaedc97be59f3f377c0d3f01908190611e509082614ac6565b506020820151600182015560408201516002820190611e6f9082614ac6565b50606082015181600301555050505050565b6000828152600d60205260408082209051611e9d908490614b85565b9081526040519081900360200190205460ff16905092915050565b611ede604051806060016040528060008152602001606081526020016000151581525090565b600c60008381526020019081526020016000206040518060600160405290816000820154815260200160018201805480602002602001604051908101604052809291908181526020016000905b82821015611fd7578382906000526020600020018054611f4a90614970565b80601f0160208091040260200160405190810160405280929190818152602001828054611f7690614970565b8015611fc35780601f10611f9857610100808354040283529160200191611fc3565b820191906000526020600020905b815481529060010190602001808311611fa657829003601f168201915b505050505081526020019060010190611f2b565b505050908252506002919091015460ff16151560209091015292915050565b6000805b6007548110156108da5782516040516120169190602001614b85565b604051602081830303815290604052805190602001206007828154811061203f5761203f614ba1565b90600052602060002090600302016000016040516020016120609190614c2a565b604051602081830303815290604052805190602001201480156120f357506020808401516040516120919201614b85565b60405160208183030381529060405280519060200120600782815481106120ba576120ba614ba1565b90600052602060002090600302016001016040516020016120db9190614c2a565b60405160208183030381529060405280519060200120145b156121015750600192915050565b8061210b81614c4c565b915050611ffa565b60606005805480602002602001604051908101604052809291908181526020016000905b82821015611d55578382906000526020600020906002020160405180604001604052908160008201805461216a90614970565b80601f016020809104026020016040519081016040528092919081815260200182805461219690614970565b80156121e35780601f106121b8576101008083540402835291602001916121e3565b820191906000526020600020905b8154815290600101906020018083116121c657829003601f168201915b505050505081526020016001820180546121fc90614970565b80601f016020809104026020016040519081016040528092919081815260200182805461222890614970565b80156122755780601f1061224a57610100808354040283529160200191612275565b820191906000526020600020905b81548152906001019060200180831161225857829003601f168201915b50505050508152505081526020019060010190612137565b6060600061229a8361108a565b6000848152600c60205260408120600101549192506122ba826002614c65565b6122c5846003614c7c565b6122cf9190614c7c565b90506000816001600160401b038111156122eb576122eb614075565b60405190808252806020026020018201604052801561231e57816020015b60608152602001906001900390816123095790505b509050604051806040016040528060138152602001724a756e7461204469726563746976612046434560681b8152508160008151811061236057612360614ba1565b60200260200101819052506040518060400160405280601081526020016f436f6f7264696e6163696f6e2046434560801b815250816001815181106123a7576123a7614ba1565b602002602001018190525060405180604001604052806011815260200170436f6e73656a6f2041636164656d69636f60781b815250816002815181106123ef576123ef614ba1565b60200260200101819052506000846001600160401b0381111561241457612414614075565b60405190808252806020026020018201604052801561244757816020015b60608152602001906001900390816124325790505b5090506000612478886040518060400160405280600a815260200169496e67656e696572696160b01b815250611e81565b156124cc576040518060400160405280600a815260200169496e67656e696572696160b01b8152508282815181106124b2576124b2614ba1565b602002602001018190525080806124c890614c4c565b9150505b6124f9886040518060400160405280601e8152602001600080516020614d85833981519152815250611e81565b1561254e576040518060400160405280601e8152602001600080516020614d8583398151915281525082828151811061253457612534614ba1565b6020026020010181905250808061254a90614c4c565b9150505b612580886040518060400160405280601081526020016f4369656e63696173207920417274657360801b815250611e81565b156125da576040518060400160405280601081526020016f4369656e63696173207920417274657360801b8152508282815181106125c0576125c0614ba1565b602002602001018190525080806125d690614c4c565b9150505b612607886040518060400160405280601e8152602001600080516020614da5833981519152815250611e81565b1561265c576040518060400160405280601e8152602001600080516020614da583398151915281525082828151811061264257612642614ba1565b6020026020010181905250808061265890614c4c565b9150505b60005b82518110156126dc5782818151811061267a5761267a614ba1565b60200260200101516040516020016126929190614c8f565b60408051601f19818403018152919052846126ae836003614c7c565b815181106126be576126be614ba1565b602002602001018190525080806126d490614c4c565b91505061265f565b5060005b6000898152600c602052604090206001015481101561278b576000898152600c6020526040902060010180548290811061271c5761271c614ba1565b906000526020600020016040516020016127369190614cd4565b60408051601f198184030181529190528488612753846003614c7c565b61275d9190614c7c565b8151811061276d5761276d614ba1565b6020026020010181905250808061278390614c4c565b9150506126e0565b5060005b6000898152600c6020526040902060010154811015612845576000898152600c602052604090206001018054829081106127cb576127cb614ba1565b906000526020600020016040516020016127e59190614cff565b60408051601f19818403018152919052848789612803856003614c7c565b61280d9190614c7c565b6128179190614c7c565b8151811061282757612827614ba1565b6020026020010181905250808061283d90614c4c565b91505061278f565b5091979650505050505050565b60606009826040516128649190614b85565b9081526020016040518091039020805480602002602001604051908101604052809291908181526020016000905b828210156129f257838290600052602060002090600302016040518060600160405290816000820180546128c590614970565b80601f01602080910402602001604051908101604052809291908181526020018280546128f190614970565b801561293e5780601f106129135761010080835404028352916020019161293e565b820191906000526020600020905b81548152906001019060200180831161292157829003601f168201915b5050505050815260200160018201805461295790614970565b80601f016020809104026020016040519081016040528092919081815260200182805461298390614970565b80156129d05780601f106129a5576101008083540402835291602001916129d0565b820191906000526020600020905b8154815290600101906020018083116129b357829003601f168201915b5050505050815260200160028201548152505081526020019060010190612892565b505050509050919050565b6000805b6003548110156108da5782604051602001612a1c9190614b85565b6040516020818303038152906040528051906020012060038281548110612a4557612a45614ba1565b90600052602060002001604051602001612a5f9190614c2a565b6040516020818303038152906040528051906020012003612a835750600192915050565b80612a8d81614c4c565b915050612a01565b612a9e826137c8565b15612ae35760405162461bcd60e51b8152602060048201526015602482015274566f74616e7465207961207265676973747261646f60581b6044820152606401610762565b6000828152600e602052604090205460ff16612b585760405162461bcd60e51b815260206004820152602e60248201527f566f74616e7465206e6f207265676973747261646f20656e20656c207265676960448201526d1cdd1c9bc8195b1958dd1bdc985b60921b6064820152608401610762565b6002546001600160a01b03163314612b825760405162461bcd60e51b815260040161076290614d31565b6040805160608101825283815260208082018481526000838501819052868152600c8352939093208251815592518051929392612bc59260018501920190613f46565b50604091820151600291909101805460ff19169115159190911790556000838152600c6020908152828220835160608101855281548152600182018054865181860281018601909752808752612ceb9692959394868101949084015b82821015612ccd578382906000526020600020018054612c4090614970565b80601f0160208091040260200160405190810160405280929190818152602001828054612c6c90614970565b8015612cb95780601f10612c8e57610100808354040283529160200191612cb9565b820191906000526020600020905b815481529060010190602001808311612c9c57829003601f168201915b505050505081526020019060010190612c21565b505050908252506002919091015460ff161515602090910152610bca565b5050565b6002546001600160a01b03163314612d195760405162461bcd60e51b815260040161076290614d31565b6000818152600e602052604090205460ff1615612d8f5760405162461bcd60e51b815260206004820152602e60248201527f566f74616e7465207961207265676973747261646f20656e20656c207265676960448201526d1cdd1c9bc8195b1958dd1bdc985b60921b6064820152608401610762565b6000908152600e60205260409020805460ff19166001179055565b60088181548110610db957600080fd5b81516020818401810180516009825292820191850191909120919052805482908110610f1e57600080fd5b6000805b60055481101561130e5783604051602001612e049190614b85565b6040516020818303038152906040528051906020012060058281548110612e2d57612e2d614ba1565b9060005260206000209060020201600001604051602001612e4e9190614c2a565b60405160208183030381529060405280519060200120148015612edf575082604051602001612e7d9190614b85565b6040516020818303038152906040528051906020012060058281548110612ea657612ea6614ba1565b9060005260206000209060020201600101604051602001612ec79190614c2a565b60405160208183030381529060405280519060200120145b15612eee576001915050611195565b80612ef881614c4c565b915050612de9565b612f0a8282612de5565b15612f575760405162461bcd60e51b815260206004820152601860248201527f41677275706163696f6e207961207265676973747261646100000000000000006044820152606401610762565b6002546001600160a01b03163314612fd75760405162461bcd60e51b815260206004820152603760248201527f536f6c6f20656c206475656e6f2064656c20636f6e747261746f20707565646560448201527f207265676973747261722061677275706163696f6e65730000000000000000006064820152608401610762565b604080518082019091528281526020810182905260058054600181018255600091909152815160029091027f036b6384b5eca791c62761152d0c79bb0604c104a5fb6f4eb0703f3154bb3db0019081906130319082614ac6565b50602082015160018201906130469082614ac6565b5050505050565b6005818154811061305d57600080fd5b906000526020600020906002020160009150905080600001805461308090614970565b80601f01602080910402602001604051908101604052809291908181526020018280546130ac90614970565b80156130f95780601f106130ce576101008083540402835291602001916130f9565b820191906000526020600020905b8154815290600101906020018083116130dc57829003601f168201915b50505050509080600101805461310e90614970565b80601f016020809104026020016040519081016040528092919081815260200182805461313a90614970565b80156131875780601f1061315c57610100808354040283529160200191613187565b820191906000526020600020905b81548152906001019060200180831161316a57829003601f168201915b5050505050905082565b60606007805480602002602001604051908101604052809291908181526020016000905b82821015611d5557838290600052602060002090600302016040518060600160405290816000820180546131e890614970565b80601f016020809104026020016040519081016040528092919081815260200182805461321490614970565b80156132615780601f1061323657610100808354040283529160200191613261565b820191906000526020600020905b81548152906001019060200180831161324457829003601f168201915b5050505050815260200160018201805461327a90614970565b80601f01602080910402602001604051908101604052809291908181526020018280546132a690614970565b80156132f35780601f106132c8576101008083540402835291602001916132f3565b820191906000526020600020905b8154815290600101906020018083116132d657829003601f168201915b50505050508152602001600282015481525050815260200190600101906131b5565b6000805b600a836040516133299190614b85565b9081526040519081900360200190205481101561130e5783516040516133529190602001614b85565b60405160208183030381529060405280519060200120600a846040516133789190614b85565b9081526020016040518091039020828154811061339757613397614ba1565b90600052602060002090600302016000016040516020016133b89190614c2a565b6040516020818303038152906040528051906020012014801561346757506020808501516040516133e99201614b85565b60405160208183030381529060405280519060200120600a8460405161340f9190614b85565b9081526020016040518091039020828154811061342e5761342e614ba1565b906000526020600020906003020160010160405160200161344f9190614c2a565b60405160208183030381529060405280519060200120145b15613476576001915050611195565b8061348081614c4c565b915050613319565b6060600b8260405161349a9190614b85565b9081526020016040518091039020805480602002602001604051908101604052809291908181526020016000905b828210156129f257838290600052602060002090600302016040518060600160405290816000820180546134fb90614970565b80601f016020809104026020016040519081016040528092919081815260200182805461352790614970565b80156135745780601f1061354957610100808354040283529160200191613574565b820191906000526020600020905b81548152906001019060200180831161355757829003601f168201915b5050505050815260200160018201805461358d90614970565b80601f01602080910402602001604051908101604052809291908181526020018280546135b990614970565b80156136065780601f106135db57610100808354040283529160200191613606565b820191906000526020600020905b8154815290600101906020018083116135e957829003601f168201915b50505050508152602001600282015481525050815260200190600101906134c8565b6060600b8260405161363a9190614b85565b9081526020016040518091039020805480602002602001604051908101604052809291908181526020016000905b828210156129f2578382906000526020600020906003020160405180606001604052908160008201805461369b90614970565b80601f01602080910402602001604051908101604052809291908181526020018280546136c790614970565b80156137145780601f106136e957610100808354040283529160200191613714565b820191906000526020600020905b8154815290600101906020018083116136f757829003601f168201915b5050505050815260200160018201805461372d90614970565b80601f016020809104026020016040519081016040528092919081815260200182805461375990614970565b80156137a65780601f1061377b576101008083540402835291602001916137a6565b820191906000526020600020905b81548152906001019060200180831161378957829003601f168201915b5050505050815260200160028201548152505081526020019060010190613668565b6000818152600c60205260408120548290036137e657506001919050565b506000919050565b6138196040518060800160405280606081526020016000815260200160608152602001600081525090565b60005b600654811015610bc457826006828154811061383a5761383a614ba1565b906000526020600020906004020160010154036139bd576006818154811061386457613864614ba1565b906000526020600020906004020160405180608001604052908160008201805461388d90614970565b80601f01602080910402602001604051908101604052809291908181526020018280546138b990614970565b80156139065780601f106138db57610100808354040283529160200191613906565b820191906000526020600020905b8154815290600101906020018083116138e957829003601f168201915b505050505081526020016001820154815260200160028201805461392990614970565b80601f016020809104026020016040519081016040528092919081815260200182805461395590614970565b80156139a25780601f10613977576101008083540402835291602001916139a2565b820191906000526020600020905b81548152906001019060200180831161398557829003601f168201915b50505050508152602001600382015481525050915050919050565b806139c781614c4c565b91505061381c565b6000805b600b836040516139e39190614b85565b9081526040519081900360200190205481101561130e578351604051613a0c9190602001614b85565b60405160208183030381529060405280519060200120600b84604051613a329190614b85565b90815260200160405180910390208281548110613a5157613a51614ba1565b9060005260206000209060030201600001604051602001613a729190614c2a565b60405160208183030381529060405280519060200120148015613b215750602080850151604051613aa39201614b85565b60405160208183030381529060405280519060200120600b84604051613ac99190614b85565b90815260200160405180910390208281548110613ae857613ae8614ba1565b9060005260206000209060030201600101604051602001613b099190614c2a565b60405160208183030381529060405280519060200120145b15613b30576001915050611195565b80613b3a81614c4c565b9150506139d3565b60068181548110613b5257600080fd5b9060005260206000209060040201600091509050806000018054613b7590614970565b80601f0160208091040260200160405190810160405280929190818152602001828054613ba190614970565b8015613bee5780601f10613bc357610100808354040283529160200191613bee565b820191906000526020600020905b815481529060010190602001808311613bd157829003601f168201915b505050505090806001015490806002018054613c0990614970565b80601f0160208091040260200160405190810160405280929190818152602001828054613c3590614970565b8015613c825780601f10613c5757610100808354040283529160200191613c82565b820191906000526020600020905b815481529060010190602001808311613c6557829003601f168201915b5050505050908060030154905084565b6000805b6006548110156108da578260068281548110613cb457613cb4614ba1565b90600052602060002090600402016001015403613cd45750600192915050565b80613cde81614c4c565b915050613c96565b60606008805480602002602001604051908101604052809291908181526020016000905b82821015611d555783829060005260206000209060030201604051806060016040529081600082018054613d3d90614970565b80601f0160208091040260200160405190810160405280929190818152602001828054613d6990614970565b8015613db65780601f10613d8b57610100808354040283529160200191613db6565b820191906000526020600020905b815481529060010190602001808311613d9957829003601f168201915b50505050508152602001600182018054613dcf90614970565b80601f0160208091040260200160405190810160405280929190818152602001828054613dfb90614970565b8015613e485780601f10613e1d57610100808354040283529160200191613e48565b820191906000526020600020905b815481529060010190602001808311613e2b57829003601f168201915b5050505050815260200160028201548152505081526020019060010190613d0a565b613e7c82600001518360200151612de5565b613e985760405162461bcd60e51b8152600401610762906149a4565b613ea28282613315565b15613ebf5760405162461bcd60e51b8152600401610762906149db565b613ec8816129fd565b613f0c5760405162461bcd60e51b815260206004820152601560248201527445736375656c61206e6f207265676973747261646160581b6044820152606401610762565b6002546001600160a01b03163314613f365760405162461bcd60e51b815260040161076290614a23565b600a81604051610d359190614b85565b828054828255906000526020600020908101928215613f8c579160200282015b82811115613f8c5782518290613f7c9082614ac6565b5091602001919060010190613f66565b50613f98929150613f9c565b5090565b80821115613f98576000613fb08282613fb9565b50600101613f9c565b508054613fc590614970565b6000825580601f10613fd5575050565b601f016020900490600052602060002090810190613ff39190613ff6565b50565b5b80821115613f985760008155600101613ff7565b60005b8381101561402657818101518382015260200161400e565b50506000910152565b6000815180845261404781602086016020860161400b565b601f01601f19169290920160200192915050565b60208152600061406e602083018461402f565b9392505050565b634e487b7160e01b600052604160045260246000fd5b604051601f8201601f191681016001600160401b03811182821017156140b3576140b3614075565b604052919050565b600082601f8301126140cc57600080fd5b81356001600160401b038111156140e5576140e5614075565b6140f8601f8201601f191660200161408b565b81815284602083860101111561410d57600080fd5b816020850160208301376000918101602001919091529392505050565b60006040828403121561413c57600080fd5b604051604081016001600160401b03828210818311171561415f5761415f614075565b81604052829350843591508082111561417757600080fd5b614183868387016140bb565b8352602085013591508082111561419957600080fd5b506141a6858286016140bb565b6020830152505092915050565b6000602082840312156141c557600080fd5b81356001600160401b038111156141db57600080fd5b6141e78482850161412a565b949350505050565b60006020828403121561420157600080fd5b81356001600160401b0381111561421757600080fd5b6141e7848285016140bb565b6000815160408452614238604085018261402f565b905060208301518482036020860152614251828261402f565b95945050505050565b60208152600061406e6020830184614223565b600082601f83011261427e57600080fd5b813560206001600160401b038083111561429a5761429a614075565b8260051b6142a983820161408b565b93845285810183019383810190888611156142c357600080fd5b84880192505b858310156142ff578235848111156142e15760008081fd5b6142ef8a87838c01016140bb565b83525091840191908401906142c9565b98975050505050505050565b60006020828403121561431d57600080fd5b81356001600160401b038082111561433457600080fd5b908301906060828603121561434857600080fd5b60405160608101818110838211171561436357614363614075565b6040528235815260208301358281111561437c57600080fd5b6143888782860161426d565b6020830152506040830135925082151583146143a357600080fd5b6040810192909252509392505050565b600080604083850312156143c657600080fd5b82356001600160401b03808211156143dd57600080fd5b6143e98683870161412a565b935060208501359150808211156143ff57600080fd5b5061440c858286016140bb565b9150509250929050565b60006020828403121561442857600080fd5b5035919050565b606081526000614442606083018661402f565b8281036020840152614454818661402f565b915050826040830152949350505050565b6000806040838503121561447857600080fd5b82356001600160401b0381111561448e57600080fd5b61449a858286016140bb565b95602094909401359450505050565b60008151608084526144be608085018261402f565b905060208301516020850152604083015184820360408601526144e1828261402f565b915050606083015160608501528091505092915050565b6000602080830181845280855180835260408601915060408160051b870101925083870160005b8281101561454d57603f1988860301845261453b8583516144a9565b9450928501929085019060010161451f565b5092979650505050505050565b60008060006060848603121561456f57600080fd5b83356001600160401b038082111561458657600080fd5b614592878388016140bb565b94506020860135935060408601359150808211156145af57600080fd5b506145bc868287016140bb565b9150509250925092565b600080604083850312156145d957600080fd5b8235915060208301356001600160401b038111156145f657600080fd5b61440c858286016140bb565b600081518084526020808501808196508360051b8101915082860160005b8581101561284557828403895261463884835161402f565b98850198935090840190600101614620565b602081528151602082015260006020830151606060408401526146706080840182614602565b90506040840151151560608401528091505092915050565b6000602080830181845280855180835260408601915060408160051b870101925083870160005b8281101561454d57603f198886030184526146cb858351614223565b945092850192908501906001016146af565b60208152600061406e6020830184614602565b6000815160608452614705606085018261402f565b90506020830151848203602086015261471e828261402f565b915050604083015160408501528091505092915050565b6000602080830181845280855180835260408601915060408160051b870101925083870160005b8281101561454d57603f198886030184526147788583516146f0565b9450928501929085019060010161475c565b6000806040838503121561479d57600080fd5b8235915060208301356001600160401b038111156147ba57600080fd5b61440c8582860161426d565b600080604083850312156147d957600080fd5b82356001600160401b03808211156147f057600080fd5b6143e9868387016140bb565b60408152600061480f604083018561402f565b8281036020840152614251818561402f565b6000602080830181845280855180835260408601915060408160051b870101925083870160005b8281101561454d57603f198886030184526148648583516146f0565b94509285019290850190600101614848565b6000602080830181845280855180835260408601915060408160051b870101925083870160005b8281101561454d57603f198886030184526148b98583516146f0565b9450928501929085019060010161489d565b60208152600061406e60208301846144a9565b6080815260006148f1608083018761402f565b8560208401528281036040840152614909818661402f565b91505082606083015295945050505050565b6000602080830181845280855180835260408601915060408160051b870101925083870160005b8281101561454d57603f1988860301845261495e8583516146f0565b94509285019290850190600101614942565b600181811c9082168061498457607f821691505b602082108103610bc457634e487b7160e01b600052602260045260246000fd5b60208082526018908201527f41677275706163696f6e206e6f20726567697374726164610000000000000000604082015260600190565b60208082526028908201527f41677275706163696f6e207961207265676973747261646120656e206573746560408201526720636f6e73656a6f60c01b606082015260800190565b60208082526035908201527f536f6c6f20656c206475656e6f2064656c20636f6e747261746f207075656465604082015274207265676973747261722063616e64696461746f7360581b606082015260800190565b601f821115610c5557600081815260208120601f850160051c81016020861015614a9f5750805b601f850160051c820191505b81811015614abe57828155600101614aab565b505050505050565b81516001600160401b03811115614adf57614adf614075565b614af381614aed8454614970565b84614a78565b602080601f831160018114614b285760008415614b105750858301515b600019600386901b1c1916600185901b178555614abe565b600085815260208120601f198616915b82811015614b5757888601518255948401946001909101908401614b38565b5085821015614b755787850151600019600388901b60f8161c191681555b5050505050600190811b01905550565b60008251614b9781846020870161400b565b9190910192915050565b634e487b7160e01b600052603260045260246000fd5b60008154614bc481614970565b60018281168015614bdc5760018114614bf157614c20565b60ff1984168752821515830287019450614c20565b8560005260208060002060005b85811015614c175781548a820152908401908201614bfe565b50505082870194505b5050505092915050565b600061406e8284614bb7565b634e487b7160e01b600052601160045260246000fd5b600060018201614c5e57614c5e614c36565b5060010190565b808202811582820484141761119557611195614c36565b8082018082111561119557611195614c36565b7f436f6e73656a6f20646520466163756c74616420646520000000000000000000815260008251614cc781601785016020870161400b565b9190910160170192915050565b75021b7b739b2b5379032329022b9b1bab2b630903232960551b8152600061406e6016830184614bb7565b7f43656e74726f20646520457374756469616e74657320646520000000000000008152600061406e6019830184614bb7565b60208082526033908201527f536f6c6f20656c206475656e6f2064656c20636f6e747261746f2070756564656040820152722072656769737472617220766f74616e74657360681b60608201526080019056fe4369656e636961732045636f6e6f6d69636173207920536f6369616c657300004573747564696f73204a7572696469636f73207920506f6c697469636f730000a26469706673582212202a7532825b803341ff1e13e363fee58b041dd4de4efef293170aca06be00396364736f6c63430008110033",
  "immutableReferences": {},
  "source": "// SPDX-License-Identifier: UNLICENSED\npragma solidity ^0.8.0;\n// import \"./Party.sol\";\n\n\ncontract Election {\n    // Para llevar control de cada estado\n\n    // TODO: esto es para despues\n    // enum WorkflowStatus {\n    //     RegisteringVoters,\n    //     VotingSessionStarted,\n    //     VotingSessionEnded,\n    //     VotesTallied\n    // }\n\n    // modifier onlyRegisteredVoter() {\n    //     require(\n    //         votantes[msg.sender],\n    //         \"Only registered voters can call this function.\"\n    //     );\n    //     _;\n    // }\n\n    // modifier onlyDuringVotingSession() {\n    //     require(\n    //         workflowStatus == WorkflowStatus.VotingSessionStarted,\n    //         \"this function can be called only during voting sessions.\"\n    //     );\n    //     _;\n    // }\n\n    // event VoterRegisteredEvent(address voterAddress);\n    // event CandidateRegisteredEvent(uint256 candidateId);\n    // event VotingSessionStartedEvent();\n    // event VotingSessionEndedEvent();\n    // event VotedEvent(address voter, uint256 proposalId);\n    // event VotesTalliedEvent();\n\n    // event WorkflowStatusChangeEvent(\n    //     WorkflowStatus previousStatus,\n    //     WorkflowStatus newStatus\n    // );\n\n    constructor() {\n        owner = msg.sender;\n    }\n\n    modifier onlyOwner() {\n        require(msg.sender == owner, \"Only owner can call this function.\");\n        _;\n    }\n\n\n\n    // Election details\n\n    string public name;\n    string public description;\n\n    address public owner;\n\n    string[] private escuelas = [\n        \"Ing. Quimica\",\n        \"Ing. de Sistemas\",\n        \"Ing. Civil\",\n        \"Ing. Mecanica\",\n        \"Ing. de Produccion\",\n        \"Ing. Electrica\",\n        \"Administracion\",\n        \"Contaduria\",\n        \"Economia\",\n        \"Educacion\",\n        \"Idiomas\",\n        \"Psicolologia\",\n        \"Mate. Industriales\",\n        \"Est. Liberales\",\n        \"Derecho\"\n    ];\n\n    string[] private facultades = [\n        \"Ingenieria\",\n        \"Ciencias Economicas y Sociales\",\n        \"Ciencias y Artes\",\n        \"Estudios Juridicos y Politicos\"\n    ];\n\n\n    // Agrupaciones\n\n    struct Party {\n        string name;\n        string siglas;\n    }\n\n    struct CandidateConsejero {\n        string nombre;\n        uint id;\n        string degree;\n        uint voteCount;\n    }\n\n    struct CandidateConsejoFacultad {\n        string nombreAgrupacion;\n        string siglasAgrupacion;\n        uint voteCount;\n    }\n\n    struct CandidateConsejoEscuela {\n        string nombreAgrupacion;\n        string siglasAgrupacion;\n        uint voteCount;\n    }\n\n    struct CandidateCentroEstudiantes {\n        string nombreAgrupacion;\n        string siglasAgrupacion;\n        uint voteCount;\n    }\n\n    struct CandidateJuntaDirectiva {\n        string nombreAgrupacion;\n        string siglasAgrupacion;\n        uint voteCount;\n    }\n\n    struct CandidateCoordinacion {\n        string nombreAgrupacion;\n        string siglasAgrupacion;\n        uint voteCount;\n    }   \n\n    Party[] public agrupacionesRegistradas;\n\n    CandidateConsejero[] public candidatosConsejoAcademico;\n    CandidateJuntaDirectiva[] public candidatosJuntaDirectivaFCE;\n    CandidateCoordinacion[] public candidatosCoordinacionFCE;\n\n    mapping (string => CandidateConsejoFacultad[]) public candidatosConsejoFacultad;\n    mapping (string => CandidateConsejoEscuela[]) public candidatosConsejoEscuela;\n    mapping (string => CandidateCentroEstudiantes[]) public candidatosCentroEstudiante;\n\n    // TODO: Para los check puedo quitar la comparacion de las siglas para que sea mas eficiente, aunque quizas seria mejor\n    // hacer la comparacion pero con un OR para que no se repitan siglas\n    function addAgrupacion(string memory _name, string memory _siglas) public {\n        require(!checkAgrupacion(_name, _siglas), \"Agrupacion ya registrada\");\n        require(msg.sender == owner, \"Solo el dueno del contrato puede registrar agrupaciones\");\n        agrupacionesRegistradas.push(Party(_name, _siglas));\n    }\n\n    function checkAgrupacion(string memory _name, string memory _siglas) public view returns (bool) {\n        for (uint i = 0; i < agrupacionesRegistradas.length; i++) {\n            if (keccak256(abi.encodePacked(agrupacionesRegistradas[i].name)) == keccak256(abi.encodePacked(_name)) && keccak256(abi.encodePacked(agrupacionesRegistradas[i].siglas)) == keccak256(abi.encodePacked(_siglas))) {\n                return true;\n            }\n        }\n        return false;\n    }\n\n    function getAgrupaciones() public view returns (Party[] memory) {\n        return agrupacionesRegistradas;\n    }\n\n    function getAgrupacion(string memory _name) public view returns (Party memory agrupacion) {\n        for (uint i = 0; i < agrupacionesRegistradas.length; i++) {\n            if (keccak256(abi.encodePacked(agrupacionesRegistradas[i].name)) == keccak256(abi.encodePacked(_name))) {\n                return agrupacionesRegistradas[i];\n            }\n        }\n    }\n\n    function addConsejoFacultad(Party memory _agrupacion, string memory _facultad) public {\n        require(checkAgrupacion(_agrupacion.name, _agrupacion.siglas), \"Agrupacion no registrada\");\n        require(!checkConsejoFacultad(_agrupacion, _facultad), \"Agrupacion ya registrada en este consejo\");\n        require(checkInFacultades(_facultad), \"Facultad no registrada\");\n        require(msg.sender == owner, \"Solo el dueno del contrato puede registrar candidatos\");\n        candidatosConsejoFacultad[_facultad].push(CandidateConsejoFacultad(_agrupacion.name, _agrupacion.siglas, 0));\n    }\n\n    function checkConsejoFacultad(Party memory _agrupacion, string memory _facultad) public view returns (bool) {\n        for (uint i = 0; i < candidatosConsejoFacultad[_facultad].length; i++) {\n            if (keccak256(abi.encodePacked(candidatosConsejoFacultad[_facultad][i].nombreAgrupacion)) == keccak256(abi.encodePacked(_agrupacion.name)) && keccak256(abi.encodePacked(candidatosConsejoFacultad[_facultad][i].siglasAgrupacion)) == keccak256(abi.encodePacked(_agrupacion.siglas))) {\n                return true;\n            }\n        }\n        return false;\n    }\n\n    function checkInFacultades(string memory _facultad) public view returns (bool) {\n        for (uint i = 0; i < facultades.length; i++) {\n            if (keccak256(abi.encodePacked(facultades[i])) == keccak256(abi.encodePacked(_facultad))) {\n                return true;\n            }\n        }\n        return false;\n    }\n\n    function addConsejoEscuela(Party memory _agrupacion, string memory _escuela) public {\n        require(checkAgrupacion(_agrupacion.name, _agrupacion.siglas), \"Agrupacion no registrada\");\n        require(!checkConsejoEscuela(_agrupacion, _escuela), \"Agrupacion ya registrada en este consejo\");\n        require(checkInEscuelas(_escuela), \"Escuela no registrada\");\n        require(msg.sender == owner, \"Solo el dueno del contrato puede registrar candidatos\");\n        candidatosConsejoEscuela[_escuela].push(CandidateConsejoEscuela(_agrupacion.name, _agrupacion.siglas, 0));\n    }\n\n    function checkConsejoEscuela(Party memory _agrupacion, string memory _escuela) public view returns (bool) {\n        for (uint i = 0; i < candidatosConsejoEscuela[_escuela].length; i++) {\n            if (keccak256(abi.encodePacked(candidatosConsejoEscuela[_escuela][i].nombreAgrupacion)) == keccak256(abi.encodePacked(_agrupacion.name)) && keccak256(abi.encodePacked(candidatosConsejoEscuela[_escuela][i].siglasAgrupacion)) == keccak256(abi.encodePacked(_agrupacion.siglas))) {\n                return true;\n            }\n        }\n        return false;\n    }\n\n    function checkInEscuelas(string memory _escuela) public view returns (bool) {\n        for (uint i = 0; i < escuelas.length; i++) {\n            if (keccak256(abi.encodePacked(escuelas[i])) == keccak256(abi.encodePacked(_escuela))) {\n                return true;\n            }\n        }\n        return false;\n    }\n\n    function addCentroEstudiantes(Party memory _agrupacion, string memory _escuela) public {\n        require(checkAgrupacion(_agrupacion.name, _agrupacion.siglas), \"Agrupacion no registrada\");\n        require(!checkCentroEstudiantes(_agrupacion, _escuela), \"Agrupacion ya registrada en este consejo\");\n        require(checkInEscuelas(_escuela), \"Centro no registrado\");\n        require(msg.sender == owner, \"Solo el dueno del contrato puede registrar candidatos\");\n        candidatosCentroEstudiante[_escuela].push(CandidateCentroEstudiantes(_agrupacion.name, _agrupacion.siglas, 0));\n    }\n\n    function checkCentroEstudiantes(Party memory _agrupacion, string memory _escuela) public view returns (bool) {\n        for (uint i = 0; i < candidatosCentroEstudiante[_escuela].length; i++) {\n            if (keccak256(abi.encodePacked(candidatosCentroEstudiante[_escuela][i].nombreAgrupacion)) == keccak256(abi.encodePacked(_agrupacion.name)) && keccak256(abi.encodePacked(candidatosCentroEstudiante[_escuela][i].siglasAgrupacion)) == keccak256(abi.encodePacked(_agrupacion.siglas))) {\n                return true;\n            }\n        }\n        return false;\n    }\n\n    function addJuntaDirectiva(Party memory _agrupacion) public {\n        require(checkAgrupacion(_agrupacion.name, _agrupacion.siglas), \"Agrupacion no registrada\");\n        require(!checkJuntaDirectiva(_agrupacion), \"Agrupacion ya registrada en este consejo\");\n        require(msg.sender == owner, \"Solo el dueno del contrato puede registrar candidatos\");\n        candidatosJuntaDirectivaFCE.push(CandidateJuntaDirectiva(_agrupacion.name, _agrupacion.siglas, 0));\n    }\n\n    function checkJuntaDirectiva(Party memory _agrupacion) public view returns (bool) {\n        for (uint i = 0; i < candidatosJuntaDirectivaFCE.length; i++) {\n            if (keccak256(abi.encodePacked(candidatosJuntaDirectivaFCE[i].nombreAgrupacion)) == keccak256(abi.encodePacked(_agrupacion.name)) && keccak256(abi.encodePacked(candidatosJuntaDirectivaFCE[i].siglasAgrupacion)) == keccak256(abi.encodePacked(_agrupacion.siglas))) {\n                return true;\n            }\n        }\n        return false;\n    }\n\n    function addCoordinacionFCE(Party memory _agrupacion) public {\n        require(checkAgrupacion(_agrupacion.name, _agrupacion.siglas), \"Agrupacion no registrada\");\n        require(!checkCoordinacion(_agrupacion), \"Agrupacion ya registrada en este consejo\");\n        require(msg.sender == owner, \"Solo el dueno del contrato puede registrar candidatos\");\n        candidatosCoordinacionFCE.push(CandidateCoordinacion(_agrupacion.name, _agrupacion.siglas, 0));\n    }\n\n    function checkCoordinacion(Party memory _agrupacion) public view returns (bool) {\n        for (uint i = 0; i < candidatosCoordinacionFCE.length; i++) {\n            if (keccak256(abi.encodePacked(candidatosCoordinacionFCE[i].nombreAgrupacion)) == keccak256(abi.encodePacked(_agrupacion.name)) && keccak256(abi.encodePacked(candidatosCoordinacionFCE[i].siglasAgrupacion)) == keccak256(abi.encodePacked(_agrupacion.siglas))) {\n                return true;\n            }\n        }\n        return false;\n    }\n\n    function addConsejeroAcademico(string memory _name, uint _id, string memory _major) public {\n        require(msg.sender == owner, \"Solo el dueno del contrato puede registrar candidatos\");\n        require(!checkConsejeroAcademico(_id), \"Consejero ya registrado\");\n        candidatosConsejoAcademico.push(CandidateConsejero(_name, _id, _major, 0));\n    }\n\n    function checkConsejeroAcademico(uint _id) public view returns (bool) {\n        for (uint i = 0; i < candidatosConsejoAcademico.length; i++) {\n            if (candidatosConsejoAcademico[i].id == _id) {\n                return true;\n            }\n        }\n        return false;\n    }\n\n    function getCandidateConsejoAcademico(uint _id) public view returns (CandidateConsejero memory candidate) {\n        for (uint i = 0; i < candidatosConsejoAcademico.length; i++) {\n            if (candidatosConsejoAcademico[i].id == _id) {\n                return candidatosConsejoAcademico[i];\n            }\n        }\n    }\n\n    function getAllCandidatesConsejoAcademico() public view returns (CandidateConsejero[] memory) {\n        return candidatosConsejoAcademico;\n    }\n\n    function getCandidatosConsejoFacultad(string memory _facultad) public view returns (CandidateConsejoFacultad[] memory) {\n        return candidatosConsejoFacultad[_facultad];\n    }\n\n    function getCandidatosConsejoEscuela(string memory _escuela) public view returns (CandidateCentroEstudiantes[] memory) {\n        return candidatosCentroEstudiante[_escuela];\n    }\n\n    function getCandidatosCentroEstudiante(string memory _escuela) public view returns (CandidateCentroEstudiantes[] memory) {\n        return candidatosCentroEstudiante[_escuela];\n    }\n\n    function getCandidatosdCoordinacionFCE() public view returns (CandidateCoordinacion[] memory) {\n        return candidatosCoordinacionFCE;\n    }\n\n    function getCandidatosJuntaDirectivaFCE() public view returns (CandidateJuntaDirectiva[] memory) {\n        return candidatosJuntaDirectivaFCE;\n    }\n\n\n    // Votantes\n\n    struct Votante {\n        uint id;\n        string[] carreras;\n        bool voted;\n    }\n\n\n    mapping (uint => Votante) votantes;\n    mapping (uint => mapping (string => bool)) votantesFacultades;\n    mapping (uint => bool) registroElectoral;\n    // mapping(address => Voter) public voters;\n    // Candidate[] public candidates;\n    // string[] public parties;\n    // WorkflowStatus public workflowStatus;\n    // string[] public voterRegistry;\n\n    function addVotante(uint _id, string[] memory _carreras) public {\n        require(!checkRegisteredVoter(_id), \"Votante ya registrado\");\n        require(inRegistroElectoral(_id), \"Votante no registrado en el registro electoral\");\n        require(msg.sender == owner, \"Solo el dueno del contrato puede registrar votantes\");\n        votantes[_id] = Votante(_id, _carreras, false);\n        registerVotanteFacultad(votantes[_id]);\n    }\n\n    function registerVotanteFacultad(Votante memory _votante) public {\n        string[] memory carreras = _votante.carreras;\n        for (uint i = 0; i < carreras.length; i++) {\n            votantesFacultades[_votante.id][getFacultadCarrera(carreras[i])] = true;\n        }\n    }\n\n    function getFacultadCarrera(string memory _carrera) public pure returns (string memory) {\n        if (keccak256(abi.encodePacked(_carrera)) == keccak256(abi.encodePacked(\"Ing. Quimica\"))) {\n            return \"Ingenieria\";\n        } else if (keccak256(abi.encodePacked(_carrera)) == keccak256(abi.encodePacked(\"Ing. de Sistemas\"))) {\n            return \"Ingenieria\";\n        } else if (keccak256(abi.encodePacked(_carrera)) == keccak256(abi.encodePacked(\"Ing. Civil\"))) {\n            return \"Ingenieria\";\n        } else if (keccak256(abi.encodePacked(_carrera)) == keccak256(abi.encodePacked(\"Ing. Mecanica\"))) {\n            return \"Ingenieria\";\n        } else if (keccak256(abi.encodePacked(_carrera)) == keccak256(abi.encodePacked(\"Ing. de Produccion\"))) {\n            return \"Ingenieria\";\n        } else if (keccak256(abi.encodePacked(_carrera)) == keccak256(abi.encodePacked(\"Ing. Electrica\"))) {\n            return \"Ingenieria\";\n        } else if (keccak256(abi.encodePacked(_carrera)) == keccak256(abi.encodePacked(\"Administracion\"))) {\n            return \"Ciencias Economicas y Sociales\";\n        } else if (keccak256(abi.encodePacked(_carrera)) == keccak256(abi.encodePacked(\"Economia\"))) {\n            return \"Ciencias Economicas y Sociales\";\n        } else if (keccak256(abi.encodePacked(_carrera)) == keccak256(abi.encodePacked(\"Contaduria\"))) {\n            return \"Ciencias Economicas y Sociales\";\n        } else if (keccak256(abi.encodePacked(_carrera)) == keccak256(abi.encodePacked(\"Educacion\"))) {\n            return \"Ciencias y Artes\";\n        } else if (keccak256(abi.encodePacked(_carrera)) == keccak256(abi.encodePacked(\"Idiomas\"))) {\n            return \"Ciencias y Artes\";\n        } else if (keccak256(abi.encodePacked(_carrera)) == keccak256(abi.encodePacked(\"Psicologia\"))) {\n            return \"Ciencias y Artes\";\n        } else if (keccak256(abi.encodePacked(_carrera)) == keccak256(abi.encodePacked(\"Mate. Industriales\"))) {\n            return \"Ciencias y Artes\";\n        } else if (keccak256(abi.encodePacked(_carrera)) == keccak256(abi.encodePacked(\"Est. Liberales\"))) {\n            return \"Estudios Juridicos y Politicos\";\n        } else if (keccak256(abi.encodePacked(_carrera)) == keccak256(abi.encodePacked(\"Derecho\"))) {\n            return \"Estudios Juridicos y Politicos\";\n        }\n    }\n\n    function checkVotanteEnFacultad(uint _id, string memory _facultad) public view returns (bool) {\n        return votantesFacultades[_id][_facultad];\n    }\n\n    function getParticipatingSections(uint _id) public view returns (string[] memory) {\n        uint facCounter = getFacultyCount(_id);\n        uint escuelaCounter = votantes[_id].carreras.length;\n        uint sectionCounter = (3 + facCounter + escuelaCounter * 2);\n        string[] memory secciones = new string[](sectionCounter);\n\n        secciones[0] = \"Junta Directiva FCE\";\n        secciones[1] = \"Coordinacion FCE\";\n        secciones[2] = \"Consejo Academico\";\n        string[] memory facultades = new string[](facCounter);\n        uint i = 0;\n        if (checkVotanteEnFacultad(_id, \"Ingenieria\")) {\n            facultades[i] = \"Ingenieria\";\n            i++;\n        }\n        if (checkVotanteEnFacultad(_id, \"Ciencias Economicas y Sociales\")) {\n            facultades[i] = \"Ciencias Economicas y Sociales\";\n            i++;\n        }\n        if (checkVotanteEnFacultad(_id, \"Ciencias y Artes\")) {\n            facultades[i] = \"Ciencias y Artes\";\n            i++;\n        }\n        if (checkVotanteEnFacultad(_id, \"Estudios Juridicos y Politicos\")) {\n            facultades[i] = \"Estudios Juridicos y Politicos\";\n            i++;\n        }\n        for (uint j = 0; j < facultades.length; j++) {\n            secciones[j + 3] = string.concat(\"Consejo de Facultad de \", facultades[j]);\n        }\n        for (uint k = 0; k < votantes[_id].carreras.length; k++) {\n            secciones[k + 3 + facCounter] = string.concat(\"Consejo de Escuela de \", votantes[_id].carreras[k]);\n        }\n        for (uint l = 0; l < votantes[_id].carreras.length; l++) {\n            secciones[l + 3 + facCounter + escuelaCounter] = string.concat(\"Centro de Estudiantes de \", votantes[_id].carreras[l]);\n        }\n\n        return secciones;\n    }\n\n    function getFacultyCount(uint _id) public view returns (uint) {\n        uint facCounter = 0;\n        if (checkVotanteEnFacultad(_id, \"Ingenieria\")) {\n            facCounter++;\n        }\n        if (checkVotanteEnFacultad(_id, \"Ciencias Economicas y Sociales\")) {\n            facCounter++;\n        }\n        if (checkVotanteEnFacultad(_id, \"Ciencias y Artes\")) {\n            facCounter++;\n        }\n        if (checkVotanteEnFacultad(_id, \"Estudios Juridicos y Politicos\")) {\n            facCounter++;\n        }\n        return facCounter;\n    }\n\n    // function checkRegisteredFacultad(string memory _facultad, string[] memory _facultadesRegistradas) public pure returns (bool) {\n    //     for (uint i = 0; i < _facultadesRegistradas.length; i++) {\n    //         if (keccak256(abi.encodePacked(_facultadesRegistradas[i])) == keccak256(abi.encodePacked(_facultad))) {\n    //             return true;\n    //         }\n    //     }\n    //     return false;\n    // }\n\n    function checkRegisteredVoter(uint _id) public view returns (bool) {\n        if (votantes[_id].id == _id) {\n            return true;\n        }\n        return false;\n    }\n\n    function inRegistroElectoral(uint _id) public view returns (bool) {\n        return registroElectoral[_id];\n    }\n\n    function agregarARegistroElectoral(uint _id) public {\n        require(msg.sender == owner, \"Solo el dueno del contrato puede registrar votantes\");\n        require(!inRegistroElectoral(_id), \"Votante ya registrado en el registro electoral\");\n        registroElectoral[_id] = true;\n    }\n\n    function getVotante(uint _id) public view returns (Votante memory) {\n        return votantes[_id];\n    }\n\n\n\n\n\n    // struct Candidate {\n    //     string name;\n    //     string party;\n    //     string degree;\n    //     uint256 voteCount;\n    //     uint id;\n    // }\n\n    // struct Voter {\n    //     bool isRegistered;\n    //     bool hasVoted;\n    //     string voterID; \n    //     string[] carreras;\n    // }\n\n    // struct Result {\n    //     string name;\n    //     uint256 voteCount;\n    // }\n\n\n\n\n\n    // function registerVoter(string memory voterID, address _voterAddress, string memory carrera) public onlyOwner {\n    //     require(\n    //         !voters[_voterAddress].isRegistered || !carreraRegistrada(carrera, _voterAddress),\n    //         \"the voter is already registered\"\n    //     );\n\n    //     if (!voters[_voterAddress].isRegistered){\n    //         voters[_voterAddress].isRegistered = true;\n    //         voters[_voterAddress].hasVoted = false;\n    //         voters[_voterAddress].voterID = voterID;\n    //     }\n        \n    //     voters[_voterAddress].carreras.push(carrera);\n\n    //     emit VoterRegisteredEvent(_voterAddress);\n    // }\n\n    // function carreraRegistrada(string memory carrera, address _voterAddress) public view returns (bool){\n    //     for(uint i = 0; i < voters[_voterAddress].carreras.length; i++){\n    //         if(keccak256(abi.encodePacked(voters[_voterAddress].carreras[i])) == keccak256(abi.encodePacked(carrera))){\n    //             return true;\n    //         }\n    //     }\n    //     return false;\n    // }\n\n    // function registerCandidate(string memory _name, string memory _party, string memory _degree) public onlyOwner {\n    //     candidates.push(\n    //         Candidate({name: _name, party: _party, degree: _degree, voteCount: 0, id: candidates.length})\n    //     );\n\n    //     if (!isPartyRegistered(_party)) {\n    //         parties.push(_party);\n    //     }\n\n    //     emit CandidateRegisteredEvent(candidates.length - 1);\n    // }\n\n    // function isPartyRegistered(string memory party) public view returns (bool) {\n    //     for (uint i = 0; i < parties.length; i++) {\n    //         if (keccak256(abi.encodePacked(parties[i])) == keccak256(abi.encodePacked(party))) {\n    //             return true;\n    //         }\n    //     }\n    //     return false;\n    // }\n\n    // function vote(uint256 candidateId)\n    //     public\n    //     onlyRegisteredVoter\n    // {\n    //     require(!voters[msg.sender].hasVoted, \"the caller has already voted\");\n\n    //     voters[msg.sender].hasVoted = true;\n    //     candidates[candidateId].voteCount += 1;\n    //     voterRegistry.push(voters[msg.sender].voterID);\n\n    //     emit VotedEvent(msg.sender, candidateId);\n    // }\n\n    // function getCandidateById(uint256 candidateId)\n    //     public\n    //     view\n    //     returns (\n    //         string memory name,\n    //         string memory party,\n    //         string memory degree,\n    //         uint256 voteCount,\n    //         uint id\n    //     )\n    // {\n    //     for (uint i = 0; i < candidates.length; i++) {\n    //         if (candidates[i].id == candidateId) {\n    //             return (candidates[i].name, candidates[i].party, candidates[i].degree, candidates[i].voteCount, candidates[i].id);\n    //         }\n    //     }\n    // }\n\n    // function getCandidateByName(string memory Sname)\n    //     public\n    //     view\n    //     returns (\n    //         string memory name,\n    //         string memory party,\n    //         string memory degree,\n    //         uint256 voteCount\n    //     )\n    // {\n    //     for (uint i = 0; i < candidates.length; i++) {\n    //         if (keccak256(abi.encodePacked(candidates[i].name)) == keccak256(abi.encodePacked(Sname))) {\n    //             return (candidates[i].name, candidates[i].party, candidates[i].degree, candidates[i].voteCount);\n    //         }\n    //     }\n    // }\n\n    // function getAllCandidates()\n    //     public\n    //     view\n    //     returns (Candidate[] memory)\n    // {\n    //     return candidates;\n    // }\n\n    // function getWinner() public view returns (Result memory) {\n    //     uint256 winnerIndex = 0;\n    //     for (uint256 i = 1; i < candidates.length; i++) {\n    //         if (candidates[i].voteCount > candidates[winnerIndex].voteCount) {\n    //             winnerIndex = i;\n    //         }\n    //     }\n    //     return Result(candidates[winnerIndex].name, candidates[winnerIndex].voteCount);\n    // }\n\n    // function getTotalVotes() public view returns (uint256) {\n    //     uint256 totalVotes = 0;\n    //     for (uint256 i = 0; i < candidates.length; i++) {\n    //         totalVotes += candidates[i].voteCount;\n    //     }\n    //     return totalVotes;\n    // }\n\n    // function getPercentage() public view returns (uint256[] memory) {\n    //     uint256 totalVotes = getTotalVotes();\n    //     uint256[] memory percentage = new uint256[](candidates.length);\n    //     for (uint256 i = 0; i < candidates.length; i++) {\n    //         percentage[i] = ((candidates[i].voteCount * 100) / totalVotes);\n    //     }\n    //     return percentage;\n    // }\n\n    // function getVoterRegistry() public view returns (string[] memory) {\n        \n    //     string[] memory myRegistry = new string[](voterRegistry.length);\n    //     for(uint i = 0; i < voterRegistry.length; i++){\n    //         myRegistry[i] = voterRegistry[i];\n    //     }\n    //     return myRegistry;\n    // }\n\n    // function getVoterCarreras(address _voterAddress) public view returns (string[] memory) {\n    //     return voters[_voterAddress].carreras;\n    // }\n}",
  "sourcePath": "/Users/abert/Desktop/chainge_voting_dapp/smart_contract/contracts/Election.sol",
  "compiler": {
    "name": "solc",
    "version": "0.8.17+commit.8df45f5f.Emscripten.clang"
  },
  "schemaVersion": "3.4.10",
  "updatedAt": "2022-11-16T12:14:21.403Z",
  "networkType": "ethereum",
  "devdoc": {
    "kind": "dev",
    "methods": {},
    "version": 1
  },
  "userdoc": {
    "kind": "user",
    "methods": {},
    "version": 1
  }
}