{
  "contractName": "Election",
  "abi": [
    {
      "inputs": [],
      "stateMutability": "nonpayable",
      "type": "constructor"
    },
    {
      "anonymous": false,
      "inputs": [
        {
          "indexed": false,
          "internalType": "uint256",
          "name": "candidateId",
          "type": "uint256"
        }
      ],
      "name": "CandidateRegisteredEvent",
      "type": "event"
    },
    {
      "anonymous": false,
      "inputs": [
        {
          "indexed": false,
          "internalType": "address",
          "name": "voter",
          "type": "address"
        },
        {
          "indexed": false,
          "internalType": "uint256",
          "name": "proposalId",
          "type": "uint256"
        }
      ],
      "name": "VotedEvent",
      "type": "event"
    },
    {
      "anonymous": false,
      "inputs": [
        {
          "indexed": false,
          "internalType": "address",
          "name": "voterAddress",
          "type": "address"
        }
      ],
      "name": "VoterRegisteredEvent",
      "type": "event"
    },
    {
      "anonymous": false,
      "inputs": [],
      "name": "VotesTalliedEvent",
      "type": "event"
    },
    {
      "anonymous": false,
      "inputs": [],
      "name": "VotingSessionEndedEvent",
      "type": "event"
    },
    {
      "anonymous": false,
      "inputs": [],
      "name": "VotingSessionStartedEvent",
      "type": "event"
    },
    {
      "anonymous": false,
      "inputs": [
        {
          "indexed": false,
          "internalType": "enum Election.WorkflowStatus",
          "name": "previousStatus",
          "type": "uint8"
        },
        {
          "indexed": false,
          "internalType": "enum Election.WorkflowStatus",
          "name": "newStatus",
          "type": "uint8"
        }
      ],
      "name": "WorkflowStatusChangeEvent",
      "type": "event"
    },
    {
      "inputs": [
        {
          "internalType": "uint256",
          "name": "",
          "type": "uint256"
        }
      ],
      "name": "candidates",
      "outputs": [
        {
          "internalType": "string",
          "name": "name",
          "type": "string"
        },
        {
          "internalType": "string",
          "name": "party",
          "type": "string"
        },
        {
          "internalType": "string",
          "name": "degree",
          "type": "string"
        },
        {
          "internalType": "uint256",
          "name": "voteCount",
          "type": "uint256"
        }
      ],
      "stateMutability": "view",
      "type": "function",
      "constant": true
    },
    {
      "inputs": [],
      "name": "description",
      "outputs": [
        {
          "internalType": "string",
          "name": "",
          "type": "string"
        }
      ],
      "stateMutability": "view",
      "type": "function",
      "constant": true
    },
    {
      "inputs": [],
      "name": "name",
      "outputs": [
        {
          "internalType": "string",
          "name": "",
          "type": "string"
        }
      ],
      "stateMutability": "view",
      "type": "function",
      "constant": true
    },
    {
      "inputs": [],
      "name": "owner",
      "outputs": [
        {
          "internalType": "address",
          "name": "",
          "type": "address"
        }
      ],
      "stateMutability": "view",
      "type": "function",
      "constant": true
    },
    {
      "inputs": [
        {
          "internalType": "address",
          "name": "",
          "type": "address"
        }
      ],
      "name": "voters",
      "outputs": [
        {
          "internalType": "bool",
          "name": "isRegistered",
          "type": "bool"
        },
        {
          "internalType": "bool",
          "name": "hasVoted",
          "type": "bool"
        },
        {
          "internalType": "uint256",
          "name": "votedCandidateId",
          "type": "uint256"
        }
      ],
      "stateMutability": "view",
      "type": "function",
      "constant": true
    },
    {
      "inputs": [],
      "name": "workflowStatus",
      "outputs": [
        {
          "internalType": "enum Election.WorkflowStatus",
          "name": "",
          "type": "uint8"
        }
      ],
      "stateMutability": "view",
      "type": "function",
      "constant": true
    },
    {
      "inputs": [
        {
          "internalType": "address",
          "name": "_voterAddress",
          "type": "address"
        }
      ],
      "name": "registerVoter",
      "outputs": [],
      "stateMutability": "nonpayable",
      "type": "function"
    },
    {
      "inputs": [
        {
          "internalType": "string",
          "name": "_name",
          "type": "string"
        },
        {
          "internalType": "string",
          "name": "_party",
          "type": "string"
        },
        {
          "internalType": "string",
          "name": "_degree",
          "type": "string"
        }
      ],
      "name": "registerCandidate",
      "outputs": [],
      "stateMutability": "nonpayable",
      "type": "function"
    },
    {
      "inputs": [
        {
          "internalType": "uint256",
          "name": "candidateId",
          "type": "uint256"
        }
      ],
      "name": "vote",
      "outputs": [],
      "stateMutability": "nonpayable",
      "type": "function"
    }
  ],
  "bytecode": "0x608060405234801561001057600080fd5b50600280546001600160a01b031916331790556005805460ff19169055610bc08061003c6000396000f3fe608060405234801561001057600080fd5b50600436106100935760003560e01c806338db6dd31161006657806338db6dd3146101015780637284e416146101145780638da5cb5b1461011c578063a1edffa214610147578063a3ec138d1461016157600080fd5b80630121b93f1461009857806306fdde03146100ad5780633477ee2e146100cb57806335c3c876146100ee575b600080fd5b6100ab6100a6366004610767565b6101b2565b005b6100b561032b565b6040516100c291906107c6565b60405180910390f35b6100de6100d9366004610767565b6103b9565b6040516100c294939291906107e0565b6100ab6100fc3660046108ce565b610591565b6100ab61010f366004610956565b61069e565b6100b561075a565b60025461012f906001600160a01b031681565b6040516001600160a01b0390911681526020016100c2565b6005546101549060ff1681565b6040516100c2919061097f565b61019561016f366004610956565b6003602052600090815260409020805460019091015460ff808316926101009004169083565b6040805193151584529115156020840152908201526060016100c2565b3360009081526003602052604090205460ff1661022d5760405162461bcd60e51b815260206004820152602e60248201527f4f6e6c79207265676973746572656420766f746572732063616e2063616c6c2060448201526d3a3434b990333ab731ba34b7b71760911b60648201526084015b60405180910390fd5b33600090815260036020526040902054610100900460ff16156102925760405162461bcd60e51b815260206004820152601c60248201527f7468652063616c6c65722068617320616c726561647920766f746564000000006044820152606401610224565b336000908152600360205260409020805461ff001916610100178155600190810182905560048054839081106102ca576102ca6109a7565b906000526020600020906004020160030160008282546102ea91906109d3565b909155505060408051338152602081018390527f0902475a854b82199b4f5d6b81327ec4c4ec077ce0356a106ddc2748c5285ed3910160405180910390a150565b60008054610338906109ec565b80601f0160208091040260200160405190810160405280929190818152602001828054610364906109ec565b80156103b15780601f10610386576101008083540402835291602001916103b1565b820191906000526020600020905b81548152906001019060200180831161039457829003601f168201915b505050505081565b600481815481106103c957600080fd5b90600052602060002090600402016000915090508060000180546103ec906109ec565b80601f0160208091040260200160405190810160405280929190818152602001828054610418906109ec565b80156104655780601f1061043a57610100808354040283529160200191610465565b820191906000526020600020905b81548152906001019060200180831161044857829003601f168201915b50505050509080600101805461047a906109ec565b80601f01602080910402602001604051908101604052809291908181526020018280546104a6906109ec565b80156104f35780601f106104c8576101008083540402835291602001916104f3565b820191906000526020600020905b8154815290600101906020018083116104d657829003601f168201915b505050505090806002018054610508906109ec565b80601f0160208091040260200160405190810160405280929190818152602001828054610534906109ec565b80156105815780601f1061055657610100808354040283529160200191610581565b820191906000526020600020905b81548152906001019060200180831161056457829003601f168201915b5050505050908060030154905084565b6002546001600160a01b031633146105bb5760405162461bcd60e51b815260040161022490610a26565b60408051608081018252848152602081018490529081018290526000606082018190526004805460018101825591819052825191027f8a35acfbc15ff81a39ae7d344fd709f28e8600b4aa8c65c6b64bfe7fe36bd19b0190819061061f9082610ab7565b50602082015160018201906106349082610ab7565b50604082015160028201906106499082610ab7565b50606091909101516003909101556004547ff23ce42eb3d2878c26ab610ef7d3edf80e07cfb6568d4028550637f27c73db419061068890600190610b77565b60405190815260200160405180910390a1505050565b6002546001600160a01b031633146106c85760405162461bcd60e51b815260040161022490610a26565b6001600160a01b03811660009081526003602052604090205460ff16156107315760405162461bcd60e51b815260206004820152601f60248201527f74686520766f74657220697320616c72656164792072656769737465726564006044820152606401610224565b6001600160a01b03166000908152600360205260408120805461ffff1916600190811782550155565b60018054610338906109ec565b60006020828403121561077957600080fd5b5035919050565b6000815180845260005b818110156107a65760208185018101518683018201520161078a565b506000602082860101526020601f19601f83011685010191505092915050565b6020815260006107d96020830184610780565b9392505050565b6080815260006107f36080830187610780565b82810360208401526108058187610780565b905082810360408401526108198186610780565b91505082606083015295945050505050565b634e487b7160e01b600052604160045260246000fd5b600082601f83011261085257600080fd5b813567ffffffffffffffff8082111561086d5761086d61082b565b604051601f8301601f19908116603f011681019082821181831017156108955761089561082b565b816040528381528660208588010111156108ae57600080fd5b836020870160208301376000602085830101528094505050505092915050565b6000806000606084860312156108e357600080fd5b833567ffffffffffffffff808211156108fb57600080fd5b61090787838801610841565b9450602086013591508082111561091d57600080fd5b61092987838801610841565b9350604086013591508082111561093f57600080fd5b5061094c86828701610841565b9150509250925092565b60006020828403121561096857600080fd5b81356001600160a01b03811681146107d957600080fd5b60208101600483106109a157634e487b7160e01b600052602160045260246000fd5b91905290565b634e487b7160e01b600052603260045260246000fd5b634e487b7160e01b600052601160045260246000fd5b808201808211156109e6576109e66109bd565b92915050565b600181811c90821680610a0057607f821691505b602082108103610a2057634e487b7160e01b600052602260045260246000fd5b50919050565b60208082526022908201527f4f6e6c79206f776e65722063616e2063616c6c20746869732066756e6374696f604082015261371760f11b606082015260800190565b601f821115610ab257600081815260208120601f850160051c81016020861015610a8f5750805b601f850160051c820191505b81811015610aae57828155600101610a9b565b5050505b505050565b815167ffffffffffffffff811115610ad157610ad161082b565b610ae581610adf84546109ec565b84610a68565b602080601f831160018114610b1a5760008415610b025750858301515b600019600386901b1c1916600185901b178555610aae565b600085815260208120601f198616915b82811015610b4957888601518255948401946001909101908401610b2a565b5085821015610b675787850151600019600388901b60f8161c191681555b5050505050600190811b01905550565b818103818111156109e6576109e66109bd56fea2646970667358221220d8b9997f0aa0445c2ebeccffd3f6ae00193945cab5948849ff16527a0077b08064736f6c63430008110033",
  "immutableReferences": {},
  "source": "pragma solidity ^0.8.0;\r\n\r\ncontract Election {\r\n    // Election details\r\n\r\n    string public name;\r\n    string public description;\r\n\r\n    address public owner;\r\n\r\n    struct Candidate {\r\n        string name;\r\n        string party;\r\n        string degree;\r\n        uint256 voteCount;\r\n    }\r\n\r\n    struct Voter {\r\n        bool isRegistered;\r\n        bool hasVoted;\r\n        uint256 votedCandidateId;\r\n    }\r\n\r\n    mapping(address => Voter) public voters;\r\n    Candidate[] public candidates;\r\n    WorkflowStatus public workflowStatus;\r\n\r\n    // Para llevar control de cada estado\r\n\r\n    enum WorkflowStatus {\r\n        RegisteringVoters,\r\n        VotingSessionStarted,\r\n        VotingSessionEnded,\r\n        VotesTallied\r\n    }\r\n\r\n    constructor() public {\r\n        owner = msg.sender;\r\n        workflowStatus = WorkflowStatus.RegisteringVoters;\r\n    }\r\n\r\n    modifier onlyOwner() {\r\n        require(msg.sender == owner, \"Only owner can call this function.\");\r\n        _;\r\n    }\r\n\r\n    modifier onlyRegisteredVoter() {\r\n        require(\r\n            voters[msg.sender].isRegistered,\r\n            \"Only registered voters can call this function.\"\r\n        );\r\n        _;\r\n    }\r\n\r\n    modifier onlyDuringVotingSession() {\r\n        require(\r\n            workflowStatus == WorkflowStatus.VotingSessionStarted,\r\n            \"this function can be called only during voting sessions.\"\r\n        );\r\n        _;\r\n    }\r\n\r\n    event VoterRegisteredEvent(address voterAddress);\r\n    event CandidateRegisteredEvent(uint256 candidateId);\r\n    event VotingSessionStartedEvent();\r\n    event VotingSessionEndedEvent();\r\n    event VotedEvent(address voter, uint256 proposalId);\r\n    event VotesTalliedEvent();\r\n\r\n    event WorkflowStatusChangeEvent(\r\n        WorkflowStatus previousStatus,\r\n        WorkflowStatus newStatus\r\n    );\r\n\r\n    function registerVoter(address _voterAddress) public onlyOwner {\r\n        require(\r\n            !voters[_voterAddress].isRegistered,\r\n            \"the voter is already registered\"\r\n        );\r\n\r\n        voters[_voterAddress].isRegistered = true;\r\n        voters[_voterAddress].hasVoted = false;\r\n        voters[_voterAddress].votedCandidateId = 0;\r\n    }\r\n\r\n    function registerCandidate(string memory _name, string memory _party, string memory _degree) public onlyOwner {\r\n        candidates.push(\r\n            Candidate({name: _name, party: _party, degree: _degree, voteCount: 0})\r\n        );\r\n\r\n        emit CandidateRegisteredEvent(candidates.length - 1);\r\n    }\r\n\r\n    function vote(uint256 candidateId)\r\n        public\r\n        onlyRegisteredVoter\r\n    {\r\n        require(!voters[msg.sender].hasVoted, \"the caller has already voted\");\r\n\r\n        voters[msg.sender].hasVoted = true;\r\n        voters[msg.sender].votedCandidateId = candidateId;\r\n\r\n        candidates[candidateId].voteCount += 1;\r\n\r\n        emit VotedEvent(msg.sender, candidateId);\r\n    }\r\n}\r\n",
  "sourcePath": "D:\\Windows Folders\\Documents\\Uni\\Software\\voting-dapp\\smart_contract\\contracts\\Election.sol",
  "compiler": {
    "name": "solc",
    "version": "0.8.17+commit.8df45f5f.Emscripten.clang"
  },
  "schemaVersion": "3.4.10",
  "updatedAt": "2022-10-16T01:11:24.193Z",
  "networkType": "ethereum",
  "devdoc": {
    "kind": "dev",
    "methods": {},
    "version": 1
  },
  "userdoc": {
    "kind": "user",
    "methods": {},
    "version": 1
  }
}