{
  "contractName": "Election",
  "abi": [
    {
      "inputs": [],
      "stateMutability": "nonpayable",
      "type": "constructor"
    },
    {
      "anonymous": false,
      "inputs": [
        {
          "indexed": false,
          "internalType": "uint256",
          "name": "candidateId",
          "type": "uint256"
        }
      ],
      "name": "CandidateRegisteredEvent",
      "type": "event"
    },
    {
      "anonymous": false,
      "inputs": [
        {
          "indexed": false,
          "internalType": "address",
          "name": "voter",
          "type": "address"
        },
        {
          "indexed": false,
          "internalType": "uint256",
          "name": "proposalId",
          "type": "uint256"
        }
      ],
      "name": "VotedEvent",
      "type": "event"
    },
    {
      "anonymous": false,
      "inputs": [
        {
          "indexed": false,
          "internalType": "address",
          "name": "voterAddress",
          "type": "address"
        }
      ],
      "name": "VoterRegisteredEvent",
      "type": "event"
    },
    {
      "anonymous": false,
      "inputs": [],
      "name": "VotesTalliedEvent",
      "type": "event"
    },
    {
      "anonymous": false,
      "inputs": [],
      "name": "VotingSessionEndedEvent",
      "type": "event"
    },
    {
      "anonymous": false,
      "inputs": [],
      "name": "VotingSessionStartedEvent",
      "type": "event"
    },
    {
      "anonymous": false,
      "inputs": [
        {
          "indexed": false,
          "internalType": "enum Election.WorkflowStatus",
          "name": "previousStatus",
          "type": "uint8"
        },
        {
          "indexed": false,
          "internalType": "enum Election.WorkflowStatus",
          "name": "newStatus",
          "type": "uint8"
        }
      ],
      "name": "WorkflowStatusChangeEvent",
      "type": "event"
    },
    {
      "inputs": [
        {
          "internalType": "uint256",
          "name": "",
          "type": "uint256"
        }
      ],
      "name": "candidates",
      "outputs": [
        {
          "internalType": "string",
          "name": "name",
          "type": "string"
        },
        {
          "internalType": "string",
          "name": "party",
          "type": "string"
        },
        {
          "internalType": "string",
          "name": "degree",
          "type": "string"
        },
        {
          "internalType": "uint256",
          "name": "voteCount",
          "type": "uint256"
        },
        {
          "internalType": "uint256",
          "name": "id",
          "type": "uint256"
        }
      ],
      "stateMutability": "view",
      "type": "function",
      "constant": true
    },
    {
      "inputs": [],
      "name": "description",
      "outputs": [
        {
          "internalType": "string",
          "name": "",
          "type": "string"
        }
      ],
      "stateMutability": "view",
      "type": "function",
      "constant": true
    },
    {
      "inputs": [],
      "name": "name",
      "outputs": [
        {
          "internalType": "string",
          "name": "",
          "type": "string"
        }
      ],
      "stateMutability": "view",
      "type": "function",
      "constant": true
    },
    {
      "inputs": [],
      "name": "owner",
      "outputs": [
        {
          "internalType": "address",
          "name": "",
          "type": "address"
        }
      ],
      "stateMutability": "view",
      "type": "function",
      "constant": true
    },
    {
      "inputs": [
        {
          "internalType": "address",
          "name": "",
          "type": "address"
        }
      ],
      "name": "voters",
      "outputs": [
        {
          "internalType": "bool",
          "name": "isRegistered",
          "type": "bool"
        },
        {
          "internalType": "bool",
          "name": "hasVoted",
          "type": "bool"
        },
        {
          "internalType": "uint256",
          "name": "votedCandidateId",
          "type": "uint256"
        }
      ],
      "stateMutability": "view",
      "type": "function",
      "constant": true
    },
    {
      "inputs": [],
      "name": "workflowStatus",
      "outputs": [
        {
          "internalType": "enum Election.WorkflowStatus",
          "name": "",
          "type": "uint8"
        }
      ],
      "stateMutability": "view",
      "type": "function",
      "constant": true
    },
    {
      "inputs": [
        {
          "internalType": "address",
          "name": "_voterAddress",
          "type": "address"
        }
      ],
      "name": "registerVoter",
      "outputs": [],
      "stateMutability": "nonpayable",
      "type": "function"
    },
    {
      "inputs": [
        {
          "internalType": "string",
          "name": "_name",
          "type": "string"
        },
        {
          "internalType": "string",
          "name": "_party",
          "type": "string"
        },
        {
          "internalType": "string",
          "name": "_degree",
          "type": "string"
        }
      ],
      "name": "registerCandidate",
      "outputs": [],
      "stateMutability": "nonpayable",
      "type": "function"
    },
    {
      "inputs": [
        {
          "internalType": "uint256",
          "name": "candidateId",
          "type": "uint256"
        }
      ],
      "name": "vote",
      "outputs": [],
      "stateMutability": "nonpayable",
      "type": "function"
    },
    {
      "inputs": [
        {
          "internalType": "uint256",
          "name": "candidateId",
          "type": "uint256"
        }
      ],
      "name": "getCandidateById",
      "outputs": [
        {
          "internalType": "string",
          "name": "name",
          "type": "string"
        },
        {
          "internalType": "string",
          "name": "party",
          "type": "string"
        },
        {
          "internalType": "string",
          "name": "degree",
          "type": "string"
        },
        {
          "internalType": "uint256",
          "name": "voteCount",
          "type": "uint256"
        },
        {
          "internalType": "uint256",
          "name": "id",
          "type": "uint256"
        }
      ],
      "stateMutability": "view",
      "type": "function",
      "constant": true
    },
    {
      "inputs": [
        {
          "internalType": "string",
          "name": "Sname",
          "type": "string"
        }
      ],
      "name": "getCandidateByName",
      "outputs": [
        {
          "internalType": "string",
          "name": "name",
          "type": "string"
        },
        {
          "internalType": "string",
          "name": "party",
          "type": "string"
        },
        {
          "internalType": "string",
          "name": "degree",
          "type": "string"
        },
        {
          "internalType": "uint256",
          "name": "voteCount",
          "type": "uint256"
        }
      ],
      "stateMutability": "view",
      "type": "function",
      "constant": true
    },
    {
      "inputs": [],
      "name": "getAllCandidates",
      "outputs": [
        {
          "components": [
            {
              "internalType": "string",
              "name": "name",
              "type": "string"
            },
            {
              "internalType": "string",
              "name": "party",
              "type": "string"
            },
            {
              "internalType": "string",
              "name": "degree",
              "type": "string"
            },
            {
              "internalType": "uint256",
              "name": "voteCount",
              "type": "uint256"
            },
            {
              "internalType": "uint256",
              "name": "id",
              "type": "uint256"
            }
          ],
          "internalType": "struct Election.Candidate[]",
          "name": "",
          "type": "tuple[]"
        }
      ],
      "stateMutability": "view",
      "type": "function",
      "constant": true
    },
    {
      "inputs": [],
      "name": "getWinner",
      "outputs": [
        {
          "components": [
            {
              "internalType": "string",
              "name": "name",
              "type": "string"
            },
            {
              "internalType": "uint256",
              "name": "voteCount",
              "type": "uint256"
            }
          ],
          "internalType": "struct Election.Result",
          "name": "",
          "type": "tuple"
        }
      ],
      "stateMutability": "view",
      "type": "function",
      "constant": true
    },
    {
      "inputs": [],
      "name": "getTotalVotes",
      "outputs": [
        {
          "internalType": "uint256",
          "name": "",
          "type": "uint256"
        }
      ],
      "stateMutability": "view",
      "type": "function",
      "constant": true
    },
    {
      "inputs": [],
      "name": "getPercentage",
      "outputs": [
        {
          "internalType": "uint256[]",
          "name": "",
          "type": "uint256[]"
        }
      ],
      "stateMutability": "view",
      "type": "function",
      "constant": true
    }
  ],
  "bytecode": "0x608060405234801561001057600080fd5b50600280546001600160a01b031916331790556005805460ff19169055611a118061003c6000396000f3fe608060405234801561001057600080fd5b50600436106100f55760003560e01c80637284e4161161009757806395f850221161006657806395f850221461020c5780639a0e7d661461021f578063a1edffa214610235578063a3ec138d1461024f57600080fd5b80637284e416146101a15780637def7fe1146101a95780638da5cb5b146101cc5780638e7ea5b2146101f757600080fd5b80632e6997fe116100d35780632e6997fe146101425780633477ee2e1461015757806335c3c8761461017b57806338db6dd31461018e57600080fd5b80630121b93f146100fa57806306fdde031461010f5780630b2accb21461012d575b600080fd5b61010d61010836600461131a565b6102a0565b005b61011761041a565b6040516101249190611383565b60405180910390f35b6101356104a8565b604051610124919061139d565b61014a610580565b60405161012491906113e1565b61016a61016536600461131a565b6107a9565b604051610124959493929190611496565b61010d610189366004611587565b610987565b61010d61019c36600461160f565b610aa3565b610117610b91565b6101bc6101b7366004611638565b610b9e565b6040516101249493929190611675565b6002546101df906001600160a01b031681565b6040516001600160a01b039091168152602001610124565b6101ff610e84565b60405161012491906116c0565b61016a61021a36600461131a565b610ffa565b6102276112c1565b604051908152602001610124565b6005546102429060ff1681565b60405161012491906116f2565b61028361025d36600461160f565b6003602052600090815260409020805460019091015460ff808316926101009004169083565b604080519315158452911515602084015290820152606001610124565b3360009081526003602052604090205460ff1661031b5760405162461bcd60e51b815260206004820152602e60248201527f4f6e6c79207265676973746572656420766f746572732063616e2063616c6c2060448201526d3a3434b990333ab731ba34b7b71760911b60648201526084015b60405180910390fd5b33600090815260036020526040902054610100900460ff16156103805760405162461bcd60e51b815260206004820152601c60248201527f7468652063616c6c65722068617320616c726561647920766f746564000000006044820152606401610312565b336000908152600360205260409020805461ff001916610100178155600190810182905560048054839081106103b8576103b861171a565b906000526020600020906005020160030160008282546103d89190611746565b909155505060408051338152602081018390527f0902475a854b82199b4f5d6b81327ec4c4ec077ce0356a106ddc2748c5285ed391015b60405180910390a150565b600080546104279061175f565b80601f01602080910402602001604051908101604052809291908181526020018280546104539061175f565b80156104a05780601f10610475576101008083540402835291602001916104a0565b820191906000526020600020905b81548152906001019060200180831161048357829003601f168201915b505050505081565b606060006104b46112c1565b60045490915060009067ffffffffffffffff8111156104d5576104d56114e4565b6040519080825280602002602001820160405280156104fe578160200160208202803683370190505b50905060005b6004548110156105795782600482815481106105225761052261171a565b90600052602060002090600502016003015460646105409190611793565b61054a91906117aa565b82828151811061055c5761055c61171a565b602090810291909101015280610571816117cc565b915050610504565b5092915050565b60606004805480602002602001604051908101604052809291908181526020016000905b828210156107a057838290600052602060002090600502016040518060a00160405290816000820180546105d79061175f565b80601f01602080910402602001604051908101604052809291908181526020018280546106039061175f565b80156106505780601f1061062557610100808354040283529160200191610650565b820191906000526020600020905b81548152906001019060200180831161063357829003601f168201915b505050505081526020016001820180546106699061175f565b80601f01602080910402602001604051908101604052809291908181526020018280546106959061175f565b80156106e25780601f106106b7576101008083540402835291602001916106e2565b820191906000526020600020905b8154815290600101906020018083116106c557829003601f168201915b505050505081526020016002820180546106fb9061175f565b80601f01602080910402602001604051908101604052809291908181526020018280546107279061175f565b80156107745780601f1061074957610100808354040283529160200191610774565b820191906000526020600020905b81548152906001019060200180831161075757829003601f168201915b5050505050815260200160038201548152602001600482015481525050815260200190600101906105a4565b50505050905090565b600481815481106107b957600080fd5b90600052602060002090600502016000915090508060000180546107dc9061175f565b80601f01602080910402602001604051908101604052809291908181526020018280546108089061175f565b80156108555780601f1061082a57610100808354040283529160200191610855565b820191906000526020600020905b81548152906001019060200180831161083857829003601f168201915b50505050509080600101805461086a9061175f565b80601f01602080910402602001604051908101604052809291908181526020018280546108969061175f565b80156108e35780601f106108b8576101008083540402835291602001916108e3565b820191906000526020600020905b8154815290600101906020018083116108c657829003601f168201915b5050505050908060020180546108f89061175f565b80601f01602080910402602001604051908101604052809291908181526020018280546109249061175f565b80156109715780601f1061094657610100808354040283529160200191610971565b820191906000526020600020905b81548152906001019060200180831161095457829003601f168201915b5050505050908060030154908060040154905085565b6002546001600160a01b031633146109b15760405162461bcd60e51b8152600401610312906117e5565b6040805160a0810182528481526020810184905290810182905260006060820181905260048054608084018190526001810182559152815160059091027f8a35acfbc15ff81a39ae7d344fd709f28e8600b4aa8c65c6b64bfe7fe36bd19b01908190610a1d9082611876565b5060208201516001820190610a329082611876565b5060408201516002820190610a479082611876565b5060608201516003820155608090910151600491820155547ff23ce42eb3d2878c26ab610ef7d3edf80e07cfb6568d4028550637f27c73db4190610a8d90600190611936565b60405190815260200160405180910390a1505050565b6002546001600160a01b03163314610acd5760405162461bcd60e51b8152600401610312906117e5565b6001600160a01b03811660009081526003602052604090205460ff1615610b365760405162461bcd60e51b815260206004820152601f60248201527f74686520766f74657220697320616c72656164792072656769737465726564006044820152606401610312565b6001600160a01b0381166000818152600360209081526040808320805461ffff191660019081178255019290925590519182527f42b360c89ba65a59ac7fec024a7bbb2c21d84b5abe5b5178ba0d7e34653a8130910161040f565b600180546104279061175f565b606080806000805b600454811015610e7b5785604051602001610bc19190611949565b6040516020818303038152906040528051906020012060048281548110610bea57610bea61171a565b9060005260206000209060050201600001604051602001610c0b9190611965565b6040516020818303038152906040528051906020012003610e695760048181548110610c3957610c3961171a565b906000526020600020906005020160000160048281548110610c5d57610c5d61171a565b906000526020600020906005020160010160048381548110610c8157610c8161171a565b906000526020600020906005020160020160048481548110610ca557610ca561171a565b906000526020600020906005020160030154838054610cc39061175f565b80601f0160208091040260200160405190810160405280929190818152602001828054610cef9061175f565b8015610d3c5780601f10610d1157610100808354040283529160200191610d3c565b820191906000526020600020905b815481529060010190602001808311610d1f57829003601f168201915b50505050509350828054610d4f9061175f565b80601f0160208091040260200160405190810160405280929190818152602001828054610d7b9061175f565b8015610dc85780601f10610d9d57610100808354040283529160200191610dc8565b820191906000526020600020905b815481529060010190602001808311610dab57829003601f168201915b50505050509250818054610ddb9061175f565b80601f0160208091040260200160405190810160405280929190818152602001828054610e079061175f565b8015610e545780601f10610e2957610100808354040283529160200191610e54565b820191906000526020600020905b815481529060010190602001808311610e3757829003601f168201915b50505050509150945094509450945050610e7d565b80610e73816117cc565b915050610ba6565b505b9193509193565b604080518082019091526060815260006020820152600060015b600454811015610f0e5760048281548110610ebb57610ebb61171a565b90600052602060002090600502016003015460048281548110610ee057610ee061171a565b9060005260206000209060050201600301541115610efc578091505b80610f06816117cc565b915050610e9e565b50604051806040016040528060048381548110610f2d57610f2d61171a565b90600052602060002090600502016000018054610f499061175f565b80601f0160208091040260200160405190810160405280929190818152602001828054610f759061175f565b8015610fc25780601f10610f9757610100808354040283529160200191610fc2565b820191906000526020600020905b815481529060010190602001808311610fa557829003601f168201915b5050505050815260200160048381548110610fdf57610fdf61171a565b90600052602060002090600502016003015481525091505090565b606080606060008060005b6004548110156112b65786600482815481106110235761102361171a565b906000526020600020906005020160040154036112a4576004818154811061104d5761104d61171a565b9060005260206000209060050201600001600482815481106110715761107161171a565b9060005260206000209060050201600101600483815481106110955761109561171a565b9060005260206000209060050201600201600484815481106110b9576110b961171a565b906000526020600020906005020160030154600485815481106110de576110de61171a565b9060005260206000209060050201600401548480546110fc9061175f565b80601f01602080910402602001604051908101604052809291908181526020018280546111289061175f565b80156111755780601f1061114a57610100808354040283529160200191611175565b820191906000526020600020905b81548152906001019060200180831161115857829003601f168201915b505050505094508380546111889061175f565b80601f01602080910402602001604051908101604052809291908181526020018280546111b49061175f565b80156112015780601f106111d657610100808354040283529160200191611201565b820191906000526020600020905b8154815290600101906020018083116111e457829003601f168201915b505050505093508280546112149061175f565b80601f01602080910402602001604051908101604052809291908181526020018280546112409061175f565b801561128d5780601f106112625761010080835404028352916020019161128d565b820191906000526020600020905b81548152906001019060200180831161127057829003601f168201915b5050505050925095509550955095509550506112b8565b806112ae816117cc565b915050611005565b505b91939590929450565b600080805b60045481101561131457600481815481106112e3576112e361171a565b906000526020600020906005020160030154826113009190611746565b91508061130c816117cc565b9150506112c6565b50919050565b60006020828403121561132c57600080fd5b5035919050565b60005b8381101561134e578181015183820152602001611336565b50506000910152565b6000815180845261136f816020860160208601611333565b601f01601f19169290920160200192915050565b6020815260006113966020830184611357565b9392505050565b6020808252825182820181905260009190848201906040850190845b818110156113d5578351835292840192918401916001016113b9565b50909695505050505050565b60006020808301818452808551808352604092508286019150828160051b87010184880160005b8381101561148857603f19898403018552815160a0815181865261142e82870182611357565b915050888201518582038a8701526114468282611357565b915050878201518582038987015261145e8282611357565b60608481015190880152608093840151939096019290925250509386019390860190600101611408565b509098975050505050505050565b60a0815260006114a960a0830188611357565b82810360208401526114bb8188611357565b905082810360408401526114cf8187611357565b60608401959095525050608001529392505050565b634e487b7160e01b600052604160045260246000fd5b600082601f83011261150b57600080fd5b813567ffffffffffffffff80821115611526576115266114e4565b604051601f8301601f19908116603f0116810190828211818310171561154e5761154e6114e4565b8160405283815286602085880101111561156757600080fd5b836020870160208301376000602085830101528094505050505092915050565b60008060006060848603121561159c57600080fd5b833567ffffffffffffffff808211156115b457600080fd5b6115c0878388016114fa565b945060208601359150808211156115d657600080fd5b6115e2878388016114fa565b935060408601359150808211156115f857600080fd5b50611605868287016114fa565b9150509250925092565b60006020828403121561162157600080fd5b81356001600160a01b038116811461139657600080fd5b60006020828403121561164a57600080fd5b813567ffffffffffffffff81111561166157600080fd5b61166d848285016114fa565b949350505050565b6080815260006116886080830187611357565b828103602084015261169a8187611357565b905082810360408401526116ae8186611357565b91505082606083015295945050505050565b6020815260008251604060208401526116dc6060840182611357565b9050602084015160408401528091505092915050565b602081016004831061171457634e487b7160e01b600052602160045260246000fd5b91905290565b634e487b7160e01b600052603260045260246000fd5b634e487b7160e01b600052601160045260246000fd5b8082018082111561175957611759611730565b92915050565b600181811c9082168061177357607f821691505b60208210810361131457634e487b7160e01b600052602260045260246000fd5b808202811582820484141761175957611759611730565b6000826117c757634e487b7160e01b600052601260045260246000fd5b500490565b6000600182016117de576117de611730565b5060010190565b60208082526022908201527f4f6e6c79206f776e65722063616e2063616c6c20746869732066756e6374696f604082015261371760f11b606082015260800190565b601f82111561187157600081815260208120601f850160051c8101602086101561184e5750805b601f850160051c820191505b8181101561186d5782815560010161185a565b5050505b505050565b815167ffffffffffffffff811115611890576118906114e4565b6118a48161189e845461175f565b84611827565b602080601f8311600181146118d957600084156118c15750858301515b600019600386901b1c1916600185901b17855561186d565b600085815260208120601f198616915b82811015611908578886015182559484019460019091019084016118e9565b50858210156119265787850151600019600388901b60f8161c191681555b5050505050600190811b01905550565b8181038181111561175957611759611730565b6000825161195b818460208701611333565b9190910192915050565b60008083546119738161175f565b6001828116801561198b57600181146119a0576119cf565b60ff19841687528215158302870194506119cf565b8760005260208060002060005b858110156119c65781548a8201529084019082016119ad565b50505082870194505b5092969550505050505056fea2646970667358221220c94af8564f824ebd6fdaf693b021d35d3494099de540065d52b8cb6ec32085ca64736f6c63430008110033",
  "immutableReferences": {},
  "source": "pragma solidity ^0.8.0;\r\n// SPDX-License-Identifier: UNLICENSED\r\n\r\ncontract Election {\r\n    // Election details\r\n\r\n    string public name;\r\n    string public description;\r\n\r\n    address public owner;\r\n\r\n    struct Candidate {\r\n        string name;\r\n        string party;\r\n        string degree;\r\n        uint256 voteCount;\r\n        uint id;\r\n    }\r\n\r\n    // struct Party {\r\n    //     string name;\r\n    //     uint256 voteCount;\r\n    //     uint id;\r\n    // }\r\n\r\n    struct Voter {\r\n        bool isRegistered;\r\n        bool hasVoted;\r\n        uint256 votedCandidateId;\r\n    }\r\n\r\n    struct Result {\r\n        // uint256 candidateId;\r\n        // Candidate candidate;\r\n        string name;\r\n        uint256 voteCount;\r\n    }\r\n\r\n    mapping(address => Voter) public voters;\r\n    Candidate[] public candidates;\r\n    WorkflowStatus public workflowStatus;\r\n\r\n    // Para llevar control de cada estado\r\n\r\n    enum WorkflowStatus {\r\n        RegisteringVoters,\r\n        VotingSessionStarted,\r\n        VotingSessionEnded,\r\n        VotesTallied\r\n    }\r\n\r\n    constructor() public {\r\n        owner = msg.sender;\r\n        workflowStatus = WorkflowStatus.RegisteringVoters;\r\n    }\r\n\r\n    modifier onlyOwner() {\r\n        require(msg.sender == owner, \"Only owner can call this function.\");\r\n        _;\r\n    }\r\n\r\n    modifier onlyRegisteredVoter() {\r\n        require(\r\n            voters[msg.sender].isRegistered,\r\n            \"Only registered voters can call this function.\"\r\n        );\r\n        _;\r\n    }\r\n\r\n    modifier onlyDuringVotingSession() {\r\n        require(\r\n            workflowStatus == WorkflowStatus.VotingSessionStarted,\r\n            \"this function can be called only during voting sessions.\"\r\n        );\r\n        _;\r\n    }\r\n\r\n    event VoterRegisteredEvent(address voterAddress);\r\n    event CandidateRegisteredEvent(uint256 candidateId);\r\n    event VotingSessionStartedEvent();\r\n    event VotingSessionEndedEvent();\r\n    event VotedEvent(address voter, uint256 proposalId);\r\n    event VotesTalliedEvent();\r\n\r\n    event WorkflowStatusChangeEvent(\r\n        WorkflowStatus previousStatus,\r\n        WorkflowStatus newStatus\r\n    );\r\n\r\n    function registerVoter(address _voterAddress) public onlyOwner {\r\n        require(\r\n            !voters[_voterAddress].isRegistered,\r\n            \"the voter is already registered\"\r\n        );\r\n\r\n        voters[_voterAddress].isRegistered = true;\r\n        voters[_voterAddress].hasVoted = false;\r\n        voters[_voterAddress].votedCandidateId = 0;\r\n\r\n        emit VoterRegisteredEvent(_voterAddress);\r\n    }\r\n\r\n    function registerCandidate(string memory _name, string memory _party, string memory _degree) public onlyOwner {\r\n        candidates.push(\r\n            Candidate({name: _name, party: _party, degree: _degree, voteCount: 0, id: candidates.length})\r\n        );\r\n\r\n        emit CandidateRegisteredEvent(candidates.length - 1);\r\n    }\r\n\r\n    function vote(uint256 candidateId)\r\n        public\r\n        onlyRegisteredVoter\r\n    {\r\n        require(!voters[msg.sender].hasVoted, \"the caller has already voted\");\r\n\r\n        voters[msg.sender].hasVoted = true;\r\n        voters[msg.sender].votedCandidateId = candidateId;\r\n\r\n        candidates[candidateId].voteCount += 1;\r\n\r\n        emit VotedEvent(msg.sender, candidateId);\r\n    }\r\n\r\n    function getCandidateById(uint256 candidateId)\r\n        public\r\n        view\r\n        returns (\r\n            string memory name,\r\n            string memory party,\r\n            string memory degree,\r\n            uint256 voteCount,\r\n            uint id\r\n        )\r\n    {\r\n        for (uint i = 0; i < candidates.length; i++) {\r\n            if (candidates[i].id == candidateId) {\r\n                return (candidates[i].name, candidates[i].party, candidates[i].degree, candidates[i].voteCount, candidates[i].id);\r\n            }\r\n        }\r\n    }\r\n\r\n    function getCandidateByName(string memory Sname)\r\n        public\r\n        view\r\n        returns (\r\n            string memory name,\r\n            string memory party,\r\n            string memory degree,\r\n            uint256 voteCount\r\n        )\r\n    {\r\n        for (uint i = 0; i < candidates.length; i++) {\r\n            if (keccak256(abi.encodePacked(candidates[i].name)) == keccak256(abi.encodePacked(Sname))) {\r\n                return (candidates[i].name, candidates[i].party, candidates[i].degree, candidates[i].voteCount);\r\n            }\r\n        }\r\n    }\r\n\r\n    function getAllCandidates()\r\n        public\r\n        view\r\n        returns (Candidate[] memory)\r\n    {\r\n        return candidates;\r\n    }\r\n    \r\n    // function getCandidatesByParty(string memory Sparty)\r\n    //     public\r\n    //     view\r\n    //     returns (\r\n    //         uint[] memory partyIds\r\n    //     )\r\n    // {\r\n    //     for (uint i = 0; i < candidates.length; i++) {\r\n    //         if (keccak256(abi.encodePacked(candidates[i].party)) == keccak256(abi.encodePacked(Sparty))) {\r\n    //             partyIds.push(candidates[i].id);\r\n    //         }\r\n    //     }\r\n    //     return partyIds;\r\n    // }\r\n\r\n    function getWinner() public view returns (Result memory) {\r\n        uint256 winnerIndex = 0;\r\n        for (uint256 i = 1; i < candidates.length; i++) {\r\n            if (candidates[i].voteCount > candidates[winnerIndex].voteCount) {\r\n                winnerIndex = i;\r\n            }\r\n        }\r\n        return Result(candidates[winnerIndex].name, candidates[winnerIndex].voteCount);\r\n    }\r\n\r\n    function getTotalVotes() public view returns (uint256) {\r\n        uint256 totalVotes = 0;\r\n        for (uint256 i = 0; i < candidates.length; i++) {\r\n            totalVotes += candidates[i].voteCount;\r\n        }\r\n        return totalVotes;\r\n    }\r\n\r\n    function getPercentage() public view returns (uint256[] memory) {\r\n        uint256 totalVotes = getTotalVotes();\r\n        uint256[] memory percentage = new uint256[](candidates.length);\r\n        for (uint256 i = 0; i < candidates.length; i++) {\r\n            percentage[i] = ((candidates[i].voteCount * 100) / totalVotes);\r\n        }\r\n        return percentage;\r\n    }\r\n}\r\n",
  "sourcePath": "C:\\Users\\Jose Rubin\\Desktop\\Chainge\\chainge_voting_dapp\\smart_contract\\contracts\\Election.sol",
  "compiler": {
    "name": "solc",
    "version": "0.8.17+commit.8df45f5f.Emscripten.clang"
  },
  "schemaVersion": "3.4.10",
  "updatedAt": "2022-10-26T01:49:11.123Z",
  "networkType": "ethereum",
  "devdoc": {
    "kind": "dev",
    "methods": {},
    "version": 1
  },
  "userdoc": {
    "kind": "user",
    "methods": {},
    "version": 1
  }
}