{
  "contractName": "Election",
  "abi": [
    {
      "inputs": [],
      "stateMutability": "nonpayable",
      "type": "constructor"
    },
    {
      "inputs": [
        {
          "internalType": "uint256",
          "name": "",
          "type": "uint256"
        }
      ],
      "name": "agrupacionesRegistradas",
      "outputs": [
        {
          "internalType": "string",
          "name": "name",
          "type": "string"
        },
        {
          "internalType": "string",
          "name": "siglas",
          "type": "string"
        }
      ],
      "stateMutability": "view",
      "type": "function"
    },
    {
      "inputs": [
        {
          "internalType": "string",
          "name": "",
          "type": "string"
        },
        {
          "internalType": "uint256",
          "name": "",
          "type": "uint256"
        }
      ],
      "name": "candidatosCentroEstudiante",
      "outputs": [
        {
          "internalType": "string",
          "name": "nombreAgrupacion",
          "type": "string"
        },
        {
          "internalType": "string",
          "name": "siglasAgrupacion",
          "type": "string"
        },
        {
          "internalType": "uint256",
          "name": "voteCount",
          "type": "uint256"
        }
      ],
      "stateMutability": "view",
      "type": "function"
    },
    {
      "inputs": [
        {
          "internalType": "uint256",
          "name": "",
          "type": "uint256"
        }
      ],
      "name": "candidatosConsejoAcademico",
      "outputs": [
        {
          "internalType": "string",
          "name": "nombre",
          "type": "string"
        },
        {
          "internalType": "uint256",
          "name": "id",
          "type": "uint256"
        },
        {
          "internalType": "string",
          "name": "degree",
          "type": "string"
        },
        {
          "internalType": "uint256",
          "name": "voteCount",
          "type": "uint256"
        }
      ],
      "stateMutability": "view",
      "type": "function"
    },
    {
      "inputs": [
        {
          "internalType": "string",
          "name": "",
          "type": "string"
        },
        {
          "internalType": "uint256",
          "name": "",
          "type": "uint256"
        }
      ],
      "name": "candidatosConsejoEscuela",
      "outputs": [
        {
          "internalType": "string",
          "name": "nombreAgrupacion",
          "type": "string"
        },
        {
          "internalType": "string",
          "name": "siglasAgrupacion",
          "type": "string"
        },
        {
          "internalType": "uint256",
          "name": "voteCount",
          "type": "uint256"
        }
      ],
      "stateMutability": "view",
      "type": "function"
    },
    {
      "inputs": [
        {
          "internalType": "string",
          "name": "",
          "type": "string"
        },
        {
          "internalType": "uint256",
          "name": "",
          "type": "uint256"
        }
      ],
      "name": "candidatosConsejoFacultad",
      "outputs": [
        {
          "internalType": "string",
          "name": "nombreAgrupacion",
          "type": "string"
        },
        {
          "internalType": "string",
          "name": "siglasAgrupacion",
          "type": "string"
        },
        {
          "internalType": "uint256",
          "name": "voteCount",
          "type": "uint256"
        }
      ],
      "stateMutability": "view",
      "type": "function"
    },
    {
      "inputs": [
        {
          "internalType": "uint256",
          "name": "",
          "type": "uint256"
        }
      ],
      "name": "candidatosCoordinacionFCE",
      "outputs": [
        {
          "internalType": "string",
          "name": "nombreAgrupacion",
          "type": "string"
        },
        {
          "internalType": "string",
          "name": "siglasAgrupacion",
          "type": "string"
        },
        {
          "internalType": "uint256",
          "name": "voteCount",
          "type": "uint256"
        }
      ],
      "stateMutability": "view",
      "type": "function"
    },
    {
      "inputs": [
        {
          "internalType": "uint256",
          "name": "",
          "type": "uint256"
        }
      ],
      "name": "candidatosJuntaDirectivaFCE",
      "outputs": [
        {
          "internalType": "string",
          "name": "nombreAgrupacion",
          "type": "string"
        },
        {
          "internalType": "string",
          "name": "siglasAgrupacion",
          "type": "string"
        },
        {
          "internalType": "uint256",
          "name": "voteCount",
          "type": "uint256"
        }
      ],
      "stateMutability": "view",
      "type": "function"
    },
    {
      "inputs": [],
      "name": "description",
      "outputs": [
        {
          "internalType": "string",
          "name": "",
          "type": "string"
        }
      ],
      "stateMutability": "view",
      "type": "function"
    },
    {
      "inputs": [],
      "name": "name",
      "outputs": [
        {
          "internalType": "string",
          "name": "",
          "type": "string"
        }
      ],
      "stateMutability": "view",
      "type": "function"
    },
    {
      "inputs": [],
      "name": "owner",
      "outputs": [
        {
          "internalType": "address",
          "name": "",
          "type": "address"
        }
      ],
      "stateMutability": "view",
      "type": "function"
    },
    {
      "inputs": [
        {
          "internalType": "string",
          "name": "_name",
          "type": "string"
        },
        {
          "internalType": "string",
          "name": "_siglas",
          "type": "string"
        }
      ],
      "name": "addAgrupacion",
      "outputs": [],
      "stateMutability": "nonpayable",
      "type": "function"
    },
    {
      "inputs": [
        {
          "internalType": "string",
          "name": "_name",
          "type": "string"
        },
        {
          "internalType": "string",
          "name": "_siglas",
          "type": "string"
        }
      ],
      "name": "checkAgrupacion",
      "outputs": [
        {
          "internalType": "bool",
          "name": "result",
          "type": "bool"
        }
      ],
      "stateMutability": "view",
      "type": "function"
    },
    {
      "inputs": [],
      "name": "getAgrupaciones",
      "outputs": [
        {
          "components": [
            {
              "internalType": "string",
              "name": "name",
              "type": "string"
            },
            {
              "internalType": "string",
              "name": "siglas",
              "type": "string"
            }
          ],
          "internalType": "struct PartyLib.Party[]",
          "name": "",
          "type": "tuple[]"
        }
      ],
      "stateMutability": "view",
      "type": "function"
    },
    {
      "inputs": [
        {
          "internalType": "string",
          "name": "_name",
          "type": "string"
        }
      ],
      "name": "getAgrupacion",
      "outputs": [
        {
          "components": [
            {
              "internalType": "string",
              "name": "name",
              "type": "string"
            },
            {
              "internalType": "string",
              "name": "siglas",
              "type": "string"
            }
          ],
          "internalType": "struct PartyLib.Party",
          "name": "agrupacion",
          "type": "tuple"
        }
      ],
      "stateMutability": "view",
      "type": "function"
    },
    {
      "inputs": [
        {
          "components": [
            {
              "internalType": "string",
              "name": "name",
              "type": "string"
            },
            {
              "internalType": "string",
              "name": "siglas",
              "type": "string"
            }
          ],
          "internalType": "struct PartyLib.Party",
          "name": "_agrupacion",
          "type": "tuple"
        },
        {
          "internalType": "string",
          "name": "_facultad",
          "type": "string"
        }
      ],
      "name": "addConsejoFacultad",
      "outputs": [],
      "stateMutability": "nonpayable",
      "type": "function"
    },
    {
      "inputs": [
        {
          "components": [
            {
              "internalType": "string",
              "name": "name",
              "type": "string"
            },
            {
              "internalType": "string",
              "name": "siglas",
              "type": "string"
            }
          ],
          "internalType": "struct PartyLib.Party",
          "name": "_agrupacion",
          "type": "tuple"
        },
        {
          "internalType": "string",
          "name": "_facultad",
          "type": "string"
        }
      ],
      "name": "checkConsejoFacultad",
      "outputs": [
        {
          "internalType": "bool",
          "name": "result",
          "type": "bool"
        }
      ],
      "stateMutability": "view",
      "type": "function"
    },
    {
      "inputs": [
        {
          "internalType": "string",
          "name": "_facultad",
          "type": "string"
        }
      ],
      "name": "checkInFacultades",
      "outputs": [
        {
          "internalType": "bool",
          "name": "result",
          "type": "bool"
        }
      ],
      "stateMutability": "view",
      "type": "function"
    },
    {
      "inputs": [
        {
          "components": [
            {
              "internalType": "string",
              "name": "name",
              "type": "string"
            },
            {
              "internalType": "string",
              "name": "siglas",
              "type": "string"
            }
          ],
          "internalType": "struct PartyLib.Party",
          "name": "_agrupacion",
          "type": "tuple"
        },
        {
          "internalType": "string",
          "name": "_escuela",
          "type": "string"
        }
      ],
      "name": "addConsejoEscuela",
      "outputs": [],
      "stateMutability": "nonpayable",
      "type": "function"
    },
    {
      "inputs": [
        {
          "components": [
            {
              "internalType": "string",
              "name": "name",
              "type": "string"
            },
            {
              "internalType": "string",
              "name": "siglas",
              "type": "string"
            }
          ],
          "internalType": "struct PartyLib.Party",
          "name": "_agrupacion",
          "type": "tuple"
        },
        {
          "internalType": "string",
          "name": "_escuela",
          "type": "string"
        }
      ],
      "name": "checkConsejoEscuela",
      "outputs": [
        {
          "internalType": "bool",
          "name": "result",
          "type": "bool"
        }
      ],
      "stateMutability": "view",
      "type": "function"
    },
    {
      "inputs": [
        {
          "internalType": "string",
          "name": "_escuela",
          "type": "string"
        }
      ],
      "name": "checkInEscuelas",
      "outputs": [
        {
          "internalType": "bool",
          "name": "result",
          "type": "bool"
        }
      ],
      "stateMutability": "view",
      "type": "function"
    },
    {
      "inputs": [
        {
          "components": [
            {
              "internalType": "string",
              "name": "name",
              "type": "string"
            },
            {
              "internalType": "string",
              "name": "siglas",
              "type": "string"
            }
          ],
          "internalType": "struct PartyLib.Party",
          "name": "_agrupacion",
          "type": "tuple"
        },
        {
          "internalType": "string",
          "name": "_escuela",
          "type": "string"
        }
      ],
      "name": "addCentroEstudiantes",
      "outputs": [],
      "stateMutability": "nonpayable",
      "type": "function"
    },
    {
      "inputs": [
        {
          "components": [
            {
              "internalType": "string",
              "name": "name",
              "type": "string"
            },
            {
              "internalType": "string",
              "name": "siglas",
              "type": "string"
            }
          ],
          "internalType": "struct PartyLib.Party",
          "name": "_agrupacion",
          "type": "tuple"
        },
        {
          "internalType": "string",
          "name": "_escuela",
          "type": "string"
        }
      ],
      "name": "checkCentroEstudiantes",
      "outputs": [
        {
          "internalType": "bool",
          "name": "result",
          "type": "bool"
        }
      ],
      "stateMutability": "view",
      "type": "function"
    },
    {
      "inputs": [
        {
          "components": [
            {
              "internalType": "string",
              "name": "name",
              "type": "string"
            },
            {
              "internalType": "string",
              "name": "siglas",
              "type": "string"
            }
          ],
          "internalType": "struct PartyLib.Party",
          "name": "_agrupacion",
          "type": "tuple"
        }
      ],
      "name": "addJuntaDirectivaFCE",
      "outputs": [],
      "stateMutability": "nonpayable",
      "type": "function"
    },
    {
      "inputs": [
        {
          "components": [
            {
              "internalType": "string",
              "name": "name",
              "type": "string"
            },
            {
              "internalType": "string",
              "name": "siglas",
              "type": "string"
            }
          ],
          "internalType": "struct PartyLib.Party",
          "name": "_agrupacion",
          "type": "tuple"
        }
      ],
      "name": "checkJuntaDirectiva",
      "outputs": [
        {
          "internalType": "bool",
          "name": "result",
          "type": "bool"
        }
      ],
      "stateMutability": "view",
      "type": "function"
    },
    {
      "inputs": [
        {
          "components": [
            {
              "internalType": "string",
              "name": "name",
              "type": "string"
            },
            {
              "internalType": "string",
              "name": "siglas",
              "type": "string"
            }
          ],
          "internalType": "struct PartyLib.Party",
          "name": "_agrupacion",
          "type": "tuple"
        }
      ],
      "name": "addCoordinacionFCE",
      "outputs": [],
      "stateMutability": "nonpayable",
      "type": "function"
    },
    {
      "inputs": [
        {
          "components": [
            {
              "internalType": "string",
              "name": "name",
              "type": "string"
            },
            {
              "internalType": "string",
              "name": "siglas",
              "type": "string"
            }
          ],
          "internalType": "struct PartyLib.Party",
          "name": "_agrupacion",
          "type": "tuple"
        }
      ],
      "name": "checkCoordinacion",
      "outputs": [
        {
          "internalType": "bool",
          "name": "result",
          "type": "bool"
        }
      ],
      "stateMutability": "view",
      "type": "function"
    },
    {
      "inputs": [
        {
          "internalType": "string",
          "name": "_name",
          "type": "string"
        },
        {
          "internalType": "uint256",
          "name": "_id",
          "type": "uint256"
        },
        {
          "internalType": "string",
          "name": "_major",
          "type": "string"
        }
      ],
      "name": "addConsejeroAcademico",
      "outputs": [],
      "stateMutability": "nonpayable",
      "type": "function"
    },
    {
      "inputs": [
        {
          "internalType": "uint256",
          "name": "_id",
          "type": "uint256"
        }
      ],
      "name": "checkConsejeroAcademico",
      "outputs": [
        {
          "internalType": "bool",
          "name": "",
          "type": "bool"
        }
      ],
      "stateMutability": "view",
      "type": "function"
    },
    {
      "inputs": [
        {
          "internalType": "uint256",
          "name": "_id",
          "type": "uint256"
        }
      ],
      "name": "getCandidateConsejoAcademico",
      "outputs": [
        {
          "components": [
            {
              "internalType": "string",
              "name": "nombre",
              "type": "string"
            },
            {
              "internalType": "uint256",
              "name": "id",
              "type": "uint256"
            },
            {
              "internalType": "string",
              "name": "degree",
              "type": "string"
            },
            {
              "internalType": "uint256",
              "name": "voteCount",
              "type": "uint256"
            }
          ],
          "internalType": "struct PartyLib.CandidateConsejero",
          "name": "candidate",
          "type": "tuple"
        }
      ],
      "stateMutability": "view",
      "type": "function"
    },
    {
      "inputs": [],
      "name": "getAllCandidatesConsejoAcademico",
      "outputs": [
        {
          "components": [
            {
              "internalType": "string",
              "name": "nombre",
              "type": "string"
            },
            {
              "internalType": "uint256",
              "name": "id",
              "type": "uint256"
            },
            {
              "internalType": "string",
              "name": "degree",
              "type": "string"
            },
            {
              "internalType": "uint256",
              "name": "voteCount",
              "type": "uint256"
            }
          ],
          "internalType": "struct PartyLib.CandidateConsejero[]",
          "name": "",
          "type": "tuple[]"
        }
      ],
      "stateMutability": "view",
      "type": "function"
    },
    {
      "inputs": [
        {
          "internalType": "string",
          "name": "_facultad",
          "type": "string"
        }
      ],
      "name": "getCandidatosConsejoFacultad",
      "outputs": [
        {
          "components": [
            {
              "internalType": "string",
              "name": "nombreAgrupacion",
              "type": "string"
            },
            {
              "internalType": "string",
              "name": "siglasAgrupacion",
              "type": "string"
            },
            {
              "internalType": "uint256",
              "name": "voteCount",
              "type": "uint256"
            }
          ],
          "internalType": "struct PartyLib.CandidateConsejoFacultad[]",
          "name": "",
          "type": "tuple[]"
        }
      ],
      "stateMutability": "view",
      "type": "function"
    },
    {
      "inputs": [
        {
          "internalType": "string",
          "name": "_escuela",
          "type": "string"
        }
      ],
      "name": "getCandidatosConsejoEscuela",
      "outputs": [
        {
          "components": [
            {
              "internalType": "string",
              "name": "nombreAgrupacion",
              "type": "string"
            },
            {
              "internalType": "string",
              "name": "siglasAgrupacion",
              "type": "string"
            },
            {
              "internalType": "uint256",
              "name": "voteCount",
              "type": "uint256"
            }
          ],
          "internalType": "struct PartyLib.CandidateCentroEstudiantes[]",
          "name": "",
          "type": "tuple[]"
        }
      ],
      "stateMutability": "view",
      "type": "function"
    },
    {
      "inputs": [
        {
          "internalType": "string",
          "name": "_escuela",
          "type": "string"
        }
      ],
      "name": "getCandidatosCentroEstudiante",
      "outputs": [
        {
          "components": [
            {
              "internalType": "string",
              "name": "nombreAgrupacion",
              "type": "string"
            },
            {
              "internalType": "string",
              "name": "siglasAgrupacion",
              "type": "string"
            },
            {
              "internalType": "uint256",
              "name": "voteCount",
              "type": "uint256"
            }
          ],
          "internalType": "struct PartyLib.CandidateCentroEstudiantes[]",
          "name": "",
          "type": "tuple[]"
        }
      ],
      "stateMutability": "view",
      "type": "function"
    },
    {
      "inputs": [],
      "name": "getCandidatosdCoordinacionFCE",
      "outputs": [
        {
          "components": [
            {
              "internalType": "string",
              "name": "nombreAgrupacion",
              "type": "string"
            },
            {
              "internalType": "string",
              "name": "siglasAgrupacion",
              "type": "string"
            },
            {
              "internalType": "uint256",
              "name": "voteCount",
              "type": "uint256"
            }
          ],
          "internalType": "struct PartyLib.CandidateCoordinacion[]",
          "name": "",
          "type": "tuple[]"
        }
      ],
      "stateMutability": "view",
      "type": "function"
    },
    {
      "inputs": [],
      "name": "getCandidatosJuntaDirectivaFCE",
      "outputs": [
        {
          "components": [
            {
              "internalType": "string",
              "name": "nombreAgrupacion",
              "type": "string"
            },
            {
              "internalType": "string",
              "name": "siglasAgrupacion",
              "type": "string"
            },
            {
              "internalType": "uint256",
              "name": "voteCount",
              "type": "uint256"
            }
          ],
          "internalType": "struct PartyLib.CandidateJuntaDirectiva[]",
          "name": "",
          "type": "tuple[]"
        }
      ],
      "stateMutability": "view",
      "type": "function"
    },
    {
      "inputs": [
        {
          "internalType": "string",
          "name": "_siglas",
          "type": "string"
        }
      ],
      "name": "getJuntaDirectivaFCE",
      "outputs": [
        {
          "components": [
            {
              "internalType": "string",
              "name": "nombreAgrupacion",
              "type": "string"
            },
            {
              "internalType": "string",
              "name": "siglasAgrupacion",
              "type": "string"
            },
            {
              "internalType": "uint256",
              "name": "voteCount",
              "type": "uint256"
            }
          ],
          "internalType": "struct PartyLib.CandidateJuntaDirectiva",
          "name": "junta",
          "type": "tuple"
        }
      ],
      "stateMutability": "view",
      "type": "function"
    },
    {
      "inputs": [
        {
          "internalType": "string",
          "name": "_siglas",
          "type": "string"
        }
      ],
      "name": "getCoordinacionFCE",
      "outputs": [
        {
          "components": [
            {
              "internalType": "string",
              "name": "nombreAgrupacion",
              "type": "string"
            },
            {
              "internalType": "string",
              "name": "siglasAgrupacion",
              "type": "string"
            },
            {
              "internalType": "uint256",
              "name": "voteCount",
              "type": "uint256"
            }
          ],
          "internalType": "struct PartyLib.CandidateCoordinacion",
          "name": "coordinacion",
          "type": "tuple"
        }
      ],
      "stateMutability": "view",
      "type": "function"
    },
    {
      "inputs": [
        {
          "internalType": "string",
          "name": "_siglas",
          "type": "string"
        },
        {
          "internalType": "string",
          "name": "_escuela",
          "type": "string"
        }
      ],
      "name": "getCentroEstudiantes",
      "outputs": [
        {
          "components": [
            {
              "internalType": "string",
              "name": "nombreAgrupacion",
              "type": "string"
            },
            {
              "internalType": "string",
              "name": "siglasAgrupacion",
              "type": "string"
            },
            {
              "internalType": "uint256",
              "name": "voteCount",
              "type": "uint256"
            }
          ],
          "internalType": "struct PartyLib.CandidateCentroEstudiantes",
          "name": "centro",
          "type": "tuple"
        }
      ],
      "stateMutability": "view",
      "type": "function"
    },
    {
      "inputs": [
        {
          "internalType": "string",
          "name": "_siglas",
          "type": "string"
        },
        {
          "internalType": "string",
          "name": "_facultad",
          "type": "string"
        }
      ],
      "name": "getConsejoFacultad",
      "outputs": [
        {
          "components": [
            {
              "internalType": "string",
              "name": "nombreAgrupacion",
              "type": "string"
            },
            {
              "internalType": "string",
              "name": "siglasAgrupacion",
              "type": "string"
            },
            {
              "internalType": "uint256",
              "name": "voteCount",
              "type": "uint256"
            }
          ],
          "internalType": "struct PartyLib.CandidateConsejoFacultad",
          "name": "consejo",
          "type": "tuple"
        }
      ],
      "stateMutability": "view",
      "type": "function"
    },
    {
      "inputs": [
        {
          "internalType": "uint256",
          "name": "_id",
          "type": "uint256"
        }
      ],
      "name": "getConsejeroAcademico",
      "outputs": [
        {
          "components": [
            {
              "internalType": "string",
              "name": "nombre",
              "type": "string"
            },
            {
              "internalType": "uint256",
              "name": "id",
              "type": "uint256"
            },
            {
              "internalType": "string",
              "name": "degree",
              "type": "string"
            },
            {
              "internalType": "uint256",
              "name": "voteCount",
              "type": "uint256"
            }
          ],
          "internalType": "struct PartyLib.CandidateConsejero",
          "name": "consejero",
          "type": "tuple"
        }
      ],
      "stateMutability": "view",
      "type": "function"
    },
    {
      "inputs": [
        {
          "internalType": "string",
          "name": "_siglas",
          "type": "string"
        },
        {
          "internalType": "string",
          "name": "_escuela",
          "type": "string"
        }
      ],
      "name": "getConsejoEscuela",
      "outputs": [
        {
          "components": [
            {
              "internalType": "string",
              "name": "nombreAgrupacion",
              "type": "string"
            },
            {
              "internalType": "string",
              "name": "siglasAgrupacion",
              "type": "string"
            },
            {
              "internalType": "uint256",
              "name": "voteCount",
              "type": "uint256"
            }
          ],
          "internalType": "struct PartyLib.CandidateConsejoEscuela",
          "name": "consejo",
          "type": "tuple"
        }
      ],
      "stateMutability": "view",
      "type": "function"
    },
    {
      "inputs": [
        {
          "internalType": "uint256",
          "name": "_id",
          "type": "uint256"
        },
        {
          "internalType": "string[]",
          "name": "_carreras",
          "type": "string[]"
        }
      ],
      "name": "addVotante",
      "outputs": [],
      "stateMutability": "nonpayable",
      "type": "function"
    },
    {
      "inputs": [
        {
          "internalType": "uint256",
          "name": "_id",
          "type": "uint256"
        }
      ],
      "name": "checkListoVotando",
      "outputs": [
        {
          "internalType": "bool",
          "name": "",
          "type": "bool"
        }
      ],
      "stateMutability": "view",
      "type": "function"
    },
    {
      "inputs": [
        {
          "internalType": "uint256",
          "name": "_id",
          "type": "uint256"
        },
        {
          "internalType": "string",
          "name": "_siglas",
          "type": "string"
        }
      ],
      "name": "voteJunta",
      "outputs": [],
      "stateMutability": "nonpayable",
      "type": "function"
    },
    {
      "inputs": [
        {
          "internalType": "uint256",
          "name": "_id",
          "type": "uint256"
        },
        {
          "internalType": "string",
          "name": "_siglas",
          "type": "string"
        }
      ],
      "name": "voteCoordinacion",
      "outputs": [],
      "stateMutability": "nonpayable",
      "type": "function"
    },
    {
      "inputs": [
        {
          "internalType": "uint256",
          "name": "_id",
          "type": "uint256"
        },
        {
          "internalType": "uint256",
          "name": "_idCandidato",
          "type": "uint256"
        }
      ],
      "name": "voteConsejoAcademico",
      "outputs": [],
      "stateMutability": "nonpayable",
      "type": "function"
    },
    {
      "inputs": [
        {
          "internalType": "uint256",
          "name": "_id",
          "type": "uint256"
        },
        {
          "internalType": "string",
          "name": "_facultad",
          "type": "string"
        },
        {
          "internalType": "string",
          "name": "_siglas",
          "type": "string"
        }
      ],
      "name": "voteConsejoFacultad",
      "outputs": [],
      "stateMutability": "nonpayable",
      "type": "function"
    },
    {
      "inputs": [
        {
          "internalType": "uint256",
          "name": "_id",
          "type": "uint256"
        },
        {
          "internalType": "string",
          "name": "_escuela",
          "type": "string"
        },
        {
          "internalType": "string",
          "name": "_siglas",
          "type": "string"
        }
      ],
      "name": "voteConsejoEscuela",
      "outputs": [],
      "stateMutability": "nonpayable",
      "type": "function"
    },
    {
      "inputs": [
        {
          "internalType": "uint256",
          "name": "_id",
          "type": "uint256"
        },
        {
          "internalType": "string",
          "name": "_escuela",
          "type": "string"
        },
        {
          "internalType": "string",
          "name": "_siglas",
          "type": "string"
        }
      ],
      "name": "voteCentroEstudiantes",
      "outputs": [],
      "stateMutability": "nonpayable",
      "type": "function"
    },
    {
      "inputs": [
        {
          "components": [
            {
              "internalType": "uint256",
              "name": "id",
              "type": "uint256"
            },
            {
              "internalType": "string[]",
              "name": "carreras",
              "type": "string[]"
            },
            {
              "internalType": "bool",
              "name": "voted",
              "type": "bool"
            },
            {
              "internalType": "bool",
              "name": "votoCoordinacion",
              "type": "bool"
            },
            {
              "internalType": "bool",
              "name": "votoJuntaDirectiva",
              "type": "bool"
            },
            {
              "internalType": "bool",
              "name": "votoConsejoFacultad",
              "type": "bool"
            },
            {
              "internalType": "bool",
              "name": "votoCentroEstudiantes",
              "type": "bool"
            },
            {
              "internalType": "bool",
              "name": "votoConsejoAcademico",
              "type": "bool"
            },
            {
              "internalType": "bool",
              "name": "votoConsejoEscuela",
              "type": "bool"
            },
            {
              "internalType": "uint256",
              "name": "votosConsejoEscuela",
              "type": "uint256"
            },
            {
              "internalType": "uint256",
              "name": "votosCentroEstudiantes",
              "type": "uint256"
            },
            {
              "internalType": "uint256",
              "name": "votosFacultad",
              "type": "uint256"
            }
          ],
          "internalType": "struct Election.Votante",
          "name": "_votante",
          "type": "tuple"
        }
      ],
      "name": "registerVotanteFacultad",
      "outputs": [],
      "stateMutability": "nonpayable",
      "type": "function"
    },
    {
      "inputs": [
        {
          "internalType": "string",
          "name": "_carrera",
          "type": "string"
        }
      ],
      "name": "getFacultadCarrera",
      "outputs": [
        {
          "internalType": "string",
          "name": "facCarrera",
          "type": "string"
        }
      ],
      "stateMutability": "pure",
      "type": "function"
    },
    {
      "inputs": [
        {
          "internalType": "uint256",
          "name": "_id",
          "type": "uint256"
        },
        {
          "internalType": "string",
          "name": "_facultad",
          "type": "string"
        }
      ],
      "name": "checkVotanteEnFacultad",
      "outputs": [
        {
          "internalType": "bool",
          "name": "",
          "type": "bool"
        }
      ],
      "stateMutability": "view",
      "type": "function"
    },
    {
      "inputs": [
        {
          "internalType": "uint256",
          "name": "_id",
          "type": "uint256"
        }
      ],
      "name": "getParticipatingSections",
      "outputs": [
        {
          "internalType": "string[]",
          "name": "",
          "type": "string[]"
        }
      ],
      "stateMutability": "view",
      "type": "function"
    },
    {
      "inputs": [
        {
          "internalType": "uint256",
          "name": "_id",
          "type": "uint256"
        }
      ],
      "name": "getFacultyCount",
      "outputs": [
        {
          "internalType": "uint256",
          "name": "",
          "type": "uint256"
        }
      ],
      "stateMutability": "view",
      "type": "function"
    },
    {
      "inputs": [
        {
          "internalType": "uint256",
          "name": "_id",
          "type": "uint256"
        }
      ],
      "name": "checkRegisteredVoter",
      "outputs": [
        {
          "internalType": "bool",
          "name": "",
          "type": "bool"
        }
      ],
      "stateMutability": "view",
      "type": "function"
    },
    {
      "inputs": [
        {
          "internalType": "uint256",
          "name": "_id",
          "type": "uint256"
        }
      ],
      "name": "inRegistroElectoral",
      "outputs": [
        {
          "internalType": "bool",
          "name": "",
          "type": "bool"
        }
      ],
      "stateMutability": "view",
      "type": "function"
    },
    {
      "inputs": [
        {
          "internalType": "uint256",
          "name": "_id",
          "type": "uint256"
        }
      ],
      "name": "agregarARegistroElectoral",
      "outputs": [],
      "stateMutability": "nonpayable",
      "type": "function"
    },
    {
      "inputs": [
        {
          "internalType": "uint256",
          "name": "_id",
          "type": "uint256"
        }
      ],
      "name": "getVotante",
      "outputs": [
        {
          "components": [
            {
              "internalType": "uint256",
              "name": "id",
              "type": "uint256"
            },
            {
              "internalType": "string[]",
              "name": "carreras",
              "type": "string[]"
            },
            {
              "internalType": "bool",
              "name": "voted",
              "type": "bool"
            },
            {
              "internalType": "bool",
              "name": "votoCoordinacion",
              "type": "bool"
            },
            {
              "internalType": "bool",
              "name": "votoJuntaDirectiva",
              "type": "bool"
            },
            {
              "internalType": "bool",
              "name": "votoConsejoFacultad",
              "type": "bool"
            },
            {
              "internalType": "bool",
              "name": "votoCentroEstudiantes",
              "type": "bool"
            },
            {
              "internalType": "bool",
              "name": "votoConsejoAcademico",
              "type": "bool"
            },
            {
              "internalType": "bool",
              "name": "votoConsejoEscuela",
              "type": "bool"
            },
            {
              "internalType": "uint256",
              "name": "votosConsejoEscuela",
              "type": "uint256"
            },
            {
              "internalType": "uint256",
              "name": "votosCentroEstudiantes",
              "type": "uint256"
            },
            {
              "internalType": "uint256",
              "name": "votosFacultad",
              "type": "uint256"
            }
          ],
          "internalType": "struct Election.Votante",
          "name": "",
          "type": "tuple"
        }
      ],
      "stateMutability": "view",
      "type": "function"
    }
  ],
  "bytecode": "0x600c6102608181526b496e672e205175696d69636160a01b61028052608090815260106102a09081526f496e672e2064652053697374656d617360801b6102c05260a052600a6102e081815269125b99cb8810da5d9a5b60b21b6103005260c052600d6103209081526c496e672e204d6563616e69636160981b6103405260e05260126103608181527124b7339710323290283937b23ab1b1b4b7b760711b6103805261010052600e6103a08181526d496e672e20456c6563747269636160901b6103c052610120526103e08181526d20b236b4b734b9ba3930b1b4b7b760911b610400526101405261042092835269436f6e7461647572696160b01b610440526101609290925260086104609081526745636f6e6f6d696160c01b610480526101805260096104a09081526822b23ab1b0b1b4b7b760b91b6104c0526101a05260076104e0818152664964696f6d617360c81b610500526101c0526105209485526b507369636f6c6f6c6f67696160a01b610540526101e094909452610560908152714d6174652e20496e647573747269616c657360701b61058052610200526105a09081526d4573742e204c69626572616c657360901b6105c052610220526106206040526105e0918252664465726563686f60c81b6106005261024091909152620001f290600390600f620002ec565b506040805160c081018252600a6080820190815269496e67656e696572696160b01b60a0830152815281518083018352601e8082527f4369656e636961732045636f6e6f6d69636173207920536f6369616c657300006020838101919091528084019290925283518085018552601081526f4369656e63696173207920417274657360801b8184015283850152835180850190945283527f4573747564696f73204a7572696469636f73207920506f6c697469636f730000908301526060810191909152620002c5906004908162000349565b50348015620002d357600080fd5b50600280546001600160a01b031916331790556200057f565b82805482825590600052602060002090810192821562000337579160200282015b82811115620003375782518290620003269082620004b3565b50916020019190600101906200030d565b506200034592915062000394565b5090565b82805482825590600052602060002090810192821562000337579160200282015b82811115620003375782518290620003839082620004b3565b50916020019190600101906200036a565b8082111562000345576000620003ab8282620003b5565b5060010162000394565b508054620003c39062000424565b6000825580601f10620003d4575050565b601f016020900490600052602060002090810190620003f49190620003f7565b50565b5b80821115620003455760008155600101620003f8565b634e487b7160e01b600052604160045260246000fd5b600181811c908216806200043957607f821691505b6020821081036200045a57634e487b7160e01b600052602260045260246000fd5b50919050565b601f821115620004ae57600081815260208120601f850160051c81016020861015620004895750805b601f850160051c820191505b81811015620004aa5782815560010162000495565b5050505b505050565b81516001600160401b03811115620004cf57620004cf6200040e565b620004e781620004e0845462000424565b8462000460565b602080601f8311600181146200051f5760008415620005065750858301515b600019600386901b1c1916600185901b178555620004aa565b600085815260208120601f198616915b8281101562000550578886015182559484019460019091019084016200052f565b50858210156200056f5787850151600019600388901b60f8161c191681555b5050505050600190811b01905550565b615d06806200058f6000396000f3fe608060405234801561001057600080fd5b506004361061038e5760003560e01c80638da5cb5b116101de578063c74ad1ec1161010f578063e150495d116100ad578063ebbc23c21161007c578063ebbc23c21461086b578063f0828fc21461087e578063f1cc385714610893578063f634d042146108a657600080fd5b8063e150495d1461080f578063e3c1c67614610822578063e8db3d9514610835578063eaa8411e1461084857600080fd5b8063d127bbce116100e9578063d127bbce146107b6578063d1e92e42146107c9578063d6c6158d146107e9578063e032c998146107fc57600080fd5b8063c74ad1ec1461076d578063c889b2e114610780578063c9995f69146107a157600080fd5b8063a8946a011161017c578063b3da35b011610156578063b3da35b014610721578063b89bacef14610734578063c2825b3914610747578063c5a2ca121461075a57600080fd5b8063a8946a01146106e8578063ac972b88146106fb578063adcbe28b1461070e57600080fd5b806395146f83116101b857806395146f831461068057806396cfc4ef14610695578063a2eda88b146106b5578063a4241f8c146106d557600080fd5b80638da5cb5b146106225780638e43462e1461064d57806390ae30111461066d57600080fd5b80633d42c6bb116102c357806368cec4081161026157806374fbe53c1161023057806374fbe53c146105c957806387968514146105e957806388d0f4e0146105fc5780638a6a90721461060f57600080fd5b806368cec408146105785780636e90e9691461059b5780636f1fd848146105ae5780637284e416146105c157600080fd5b80635e20b8af1161029d5780635e20b8af1461052a578063632208931461053d5780636733013e14610550578063674456e01461056357600080fd5b80633d42c6bb146104f15780634862c7b1146105045780634bfa95cf1461051757600080fd5b80631e8d9f3211610330578063251f44761161030a578063251f44761461049757806328bb254c146104aa57806333eb9dc0146104bd57806339b5d114146104d057600080fd5b80631e8d9f321461044f57806321675c9b14610471578063236e3f1f1461048457600080fd5b80630af6f0911161036c5780630af6f091146103e65780631527814014610409578063197db0de1461041c5780631aeb64b71461043c57600080fd5b806304440d8f1461039357806306fdde03146103bc57806308388928146103d1575b600080fd5b6103a66103a1366004614c71565b6108b9565b6040516103b39190614d69565b60405180910390f35b6103c4610b74565b6040516103b39190614d7c565b6103e46103df366004614e18565b610c02565b005b6103f96103f4366004614e4c565b610c81565b60405190151581526020016103b3565b6103e4610417366004614e80565b610cfe565b61042f61042a366004614e4c565b610dfe565b6040516103b39190614ef3565b6103e461044a366004614f06565b611048565b61046261045d366004614f3c565b6110cb565b6040516103b393929190614f55565b6103e461047f366004614f8b565b611215565b610462610492366004614ff7565b6114bf565b6104626104a5366004614ff7565b61150e565b6103f96104b8366004614e18565b611539565b6103a66104cb366004614e4c565b611576565b6104e36104de366004614f3c565b611750565b6040519081526020016103b3565b6103f96104ff366004614f06565b61185f565b6103e46105123660046150f2565b6118e6565b6103e4610525366004614f06565b6119f8565b6103e4610538366004614e80565b611a46565b6103e461054b366004614f8b565b611b13565b6103c461055e366004614e4c565b611d90565b61056b6122eb565b6040516103b39190615257565b6103f9610586366004614f3c565b6000908152600e602052604090205460ff1690565b6103a66105a9366004614e4c565b612482565b6103a66105bc366004614c71565b61254c565b6103c46125d2565b6105dc6105d7366004614f3c565b6125df565b6040516103b391906152b9565b6103e46105f73660046152cc565b6127be565b6103e461060a3660046152ee565b612896565b6103f961061d366004614e80565b6129fa565b600254610635906001600160a01b031681565b6040516001600160a01b0390911681526020016103b3565b61066061065b366004614f3c565b612a31565b6040516103b3919061538b565b6103f961067b366004614e18565b612c19565b610688612c56565b6040516103b39190615456565b6106a86106a3366004614f3c565b612dd0565b6040516103b391906154ab565b6106c86106c3366004614e4c565b61338d565b6040516103b391906154be565b6103f96106e3366004614e4c565b613538565b6103e46106f6366004614f8b565b613575565b6103e4610709366004615513565b6137f0565b6103e461071c366004614f3c565b613b8c565b61046261072f366004614f3c565b613c47565b6103a6610742366004614c71565b613c57565b610462610755366004614ff7565b613cdd565b6103f9610768366004614c71565b613d08565b6103e461077b366004614c71565b613d47565b61079361078e366004614f3c565b613d90565b6040516103b392919061554f565b6107a9613ed4565b6040516103b39190615574565b6103f96107c4366004614f06565b614058565b6107dc6107d7366004614e4c565b614097565b6040516103b391906155c9565b6107dc6107f7366004614e4c565b614237565b6103f961080a366004614f3c565b6143d7565b6103f961081d366004614f3c565b6145b0565b6105dc610830366004614f3c565b6145d6565b6103f9610843366004614f06565b61465c565b61085b610856366004614f3c565b61469b565b6040516103b3949392919061561e565b6103f9610879366004614f3c565b6147eb565b610886614846565b6040516103b3919061565b565b6103e46108a1366004614e18565b6149ca565b6103e46108b4366004614f06565b614a16565b6108dd60405180606001604052806060815260200160608152602001600081525090565b60005b6009836040516108f091906156b0565b90815260405190819003602001902054811015610b6c576109d960098460405161091a91906156b0565b90815260200160405180910390208281548110610939576109396156cc565b90600052602060002090600302016001018054610955906156e2565b80601f0160208091040260200160405190810160405280929190818152602001828054610981906156e2565b80156109ce5780601f106109a3576101008083540402835291602001916109ce565b820191906000526020600020905b8154815290600101906020018083116109b157829003601f168201915b505050505085614a65565b15610b5c576009836040516109ee91906156b0565b90815260200160405180910390208181548110610a0d57610a0d6156cc565b9060005260206000209060030201604051806060016040529081600082018054610a36906156e2565b80601f0160208091040260200160405190810160405280929190818152602001828054610a62906156e2565b8015610aaf5780601f10610a8457610100808354040283529160200191610aaf565b820191906000526020600020905b815481529060010190602001808311610a9257829003601f168201915b50505050508152602001600182018054610ac8906156e2565b80601f0160208091040260200160405190810160405280929190818152602001828054610af4906156e2565b8015610b415780601f10610b1657610100808354040283529160200191610b41565b820191906000526020600020905b815481529060010190602001808311610b2457829003601f168201915b50505050508152602001600282015481525050915050610b6e565b610b658161572c565b90506108e0565b505b92915050565b60008054610b81906156e2565b80601f0160208091040260200160405190810160405280929190818152602001828054610bad906156e2565b8015610bfa5780601f10610bcf57610100808354040283529160200191610bfa565b820191906000526020600020905b815481529060010190602001808311610bdd57829003601f168201915b505050505081565b60025460405163224a715f60e11b815273__PartyLib______________________________91634494e2be91610c4e9185916001600160a01b0390911690600890600590600401615745565b60006040518083038186803b158015610c6657600080fd5b505af4158015610c7a573d6000803e3d6000fd5b5050505050565b60405163c9efa5ed60e01b815260009073__PartyLib______________________________9063c9efa5ed90610cbd908590600490810161583e565b602060405180830381865af4158015610cda573d6000803e3d6000fd5b505050506040513d601f19601f82011682018060405250810190610b6e9190615863565b6000828152600c6020526040902060020154610100900460ff1615610d3e5760405162461bcd60e51b8152600401610d3590615880565b60405180910390fd5b610d47826145b0565b610d635760405162461bcd60e51b8152600401610d35906158ae565b6002546001600160a01b03163314610d8d5760405162461bcd60e51b8152600401610d35906158fc565b6000610d9882611576565b9050600181604001818151610dad919061594f565b9052506000838152600c60205260409020600201805461ff001916610100179055610dd7836143d7565b15610df9576000838152600c60205260409020600201805460ff191660011790555b505050565b604080518082019091526060808252602082015260005b60055481101561104257610ed560058281548110610e3557610e356156cc565b90600052602060002090600202016000018054610e51906156e2565b80601f0160208091040260200160405190810160405280929190818152602001828054610e7d906156e2565b8015610eca5780601f10610e9f57610100808354040283529160200191610eca565b820191906000526020600020905b815481529060010190602001808311610ead57829003601f168201915b505050505084614a65565b156110325760058181548110610eed57610eed6156cc565b9060005260206000209060020201604051806040016040529081600082018054610f16906156e2565b80601f0160208091040260200160405190810160405280929190818152602001828054610f42906156e2565b8015610f8f5780601f10610f6457610100808354040283529160200191610f8f565b820191906000526020600020905b815481529060010190602001808311610f7257829003601f168201915b50505050508152602001600182018054610fa8906156e2565b80601f0160208091040260200160405190810160405280929190818152602001828054610fd4906156e2565b80156110215780601f10610ff657610100808354040283529160200191611021565b820191906000526020600020905b81548152906001019060200180831161100457829003601f168201915b505050505081525050915050919050565b61103b8161572c565b9050610e15565b50919050565b600254604051634c27f30d60e11b815273__PartyLib______________________________9163984fe61a9161109791869186916001600160a01b031690600b90600590600390600401615962565b60006040518083038186803b1580156110af57600080fd5b505af41580156110c3573d6000803e3d6000fd5b505050505050565b600781815481106110db57600080fd5b90600052602060002090600302016000915090508060000180546110fe906156e2565b80601f016020809104026020016040519081016040528092919081815260200182805461112a906156e2565b80156111775780601f1061114c57610100808354040283529160200191611177565b820191906000526020600020905b81548152906001019060200180831161115a57829003601f168201915b50505050509080600101805461118c906156e2565b80601f01602080910402602001604051908101604052809291908181526020018280546111b8906156e2565b80156112055780601f106111da57610100808354040283529160200191611205565b820191906000526020600020905b8154815290600101906020018083116111e857829003601f168201915b5050505050908060020154905083565b6000838152600c6020526040902060020154600160301b900460ff161561124e5760405162461bcd60e51b8152600401610d3590615880565b611257836145b0565b6112735760405162461bcd60e51b8152600401610d35906158ae565b6002546001600160a01b0316331461129d5760405162461bcd60e51b8152600401610d35906158fc565b60006112a98284613c57565b6040810180519192506112bb8261572c565b9052506000848152600c60209081526040808320815161018081018352815481526001820180548451818702810187019095528085529194929385840193909290879084015b828210156113ad578382906000526020600020018054611320906156e2565b80601f016020809104026020016040519081016040528092919081815260200182805461134c906156e2565b80156113995780601f1061136e57610100808354040283529160200191611399565b820191906000526020600020905b81548152906001019060200180831161137c57829003601f168201915b505050505081526020019060010190611301565b50505090825250600282015460ff8082161515602084015261010080830482161515604085015262010000830482161515606085015263010000008304821615156080850152600160201b83048216151560a0850152600160281b83048216151560c0850152600160301b90920416151560e08301526003830154908201526004820154610120808301919091526005909201546101409091015281018051919250611458826159c5565b90525061012081015160000361148e576000858152600c60205260409020600201805466ff0000000000001916600160301b1790555b611497856143d7565b15610c7a576000858152600c60205260409020600201805460ff191660011790555050505050565b8151602081840181018051600a8252928201918501919091209190528054829081106114ea57600080fd5b9060005260206000209060030201600091509150508060000180546110fe906156e2565b8151602081840181018051600b8252928201918501919091209190528054829081106114ea57600080fd5b6040516330212a0160e01b815260009073__PartyLib______________________________906330212a0190610cbd9085906008906004016159dc565b61159a60405180606001604052806060815260200160608152602001600081525090565b60005b600854811015611042576115d9600882815481106115bd576115bd6156cc565b90600052602060002090600302016001018054610e51906156e2565b1561174057600881815481106115f1576115f16156cc565b906000526020600020906003020160405180606001604052908160008201805461161a906156e2565b80601f0160208091040260200160405190810160405280929190818152602001828054611646906156e2565b80156116935780601f1061166857610100808354040283529160200191611693565b820191906000526020600020905b81548152906001019060200180831161167657829003601f168201915b505050505081526020016001820180546116ac906156e2565b80601f01602080910402602001604051908101604052809291908181526020018280546116d8906156e2565b80156117255780601f106116fa57610100808354040283529160200191611725565b820191906000526020600020905b81548152906001019060200180831161170857829003601f168201915b50505050508152602001600282015481525050915050919050565b6117498161572c565b905061159d565b60008060009050611783836040518060400160405280600a815260200169496e67656e696572696160b01b8152506129fa565b1561179657806117928161572c565b9150505b6117c3836040518060400160405280601e8152602001600080516020615c918339815191528152506129fa565b156117d657806117d28161572c565b9150505b611808836040518060400160405280601081526020016f4369656e63696173207920417274657360801b8152506129fa565b1561181b57806118178161572c565b9150505b611848836040518060400160405280601e8152602001600080516020615cb18339815191528152506129fa565b15610b6e57806118578161572c565b949350505050565b60405163245c369160e11b815260009073__PartyLib______________________________906348b86d229061189e90869086906009906004016159fe565b602060405180830381865af41580156118bb573d6000803e3d6000fd5b505050506040513d601f19601f820116820180604052508101906118df9190615863565b9392505050565b602081015160005b8151811015610df95782516000908152600d60205260409020825161192c9084908490811061191f5761191f6156cc565b6020026020010151611d90565b60405161193991906156b0565b9081526040519081900360200190205460ff166119c0576001600d60008560000151815260200190815260200160002061197e84848151811061191f5761191f6156cc565b60405161198b91906156b0565b908152604051908190036020019020805491151560ff1990921691909117905561016083018051906119bc8261572c565b9052505b61012083018051906119d18261572c565b90525061014083018051906119e58261572c565b9052506119f18161572c565b90506118ee565b600254604051632c73427960e11b815273__PartyLib______________________________916358e684f29161109791869186916001600160a01b0316906009906005906004908101615962565b6000828152600c602052604090206002015460ff1615611a785760405162461bcd60e51b8152600401610d3590615880565b611a81826145b0565b611a9d5760405162461bcd60e51b8152600401610d35906158ae565b6002546001600160a01b03163314611ac75760405162461bcd60e51b8152600401610d35906158fc565b6000611ad282612482565b9050600181604001818151611ae7919061594f565b9052506000838152600c60205260409020600201805462ff0000191662010000179055610dd7836143d7565b6000838152600c60205260409020600201546301000000900460ff1615611b4c5760405162461bcd60e51b8152600401610d3590615880565b611b55836145b0565b611b715760405162461bcd60e51b8152600401610d35906158ae565b6002546001600160a01b03163314611b9b5760405162461bcd60e51b8152600401610d35906158fc565b6000611ba782846108b9565b604081018051919250611bb98261572c565b9052506000848152600c60209081526040808320815161018081018352815481526001820180548451818702810187019095528085529194929385840193909290879084015b82821015611cab578382906000526020600020018054611c1e906156e2565b80601f0160208091040260200160405190810160405280929190818152602001828054611c4a906156e2565b8015611c975780601f10611c6c57610100808354040283529160200191611c97565b820191906000526020600020905b815481529060010190602001808311611c7a57829003601f168201915b505050505081526020019060010190611bff565b50505090825250600282015460ff8082161515602084015261010080830482161515604085015262010000830482161515606085015263010000008304821615156080850152600160201b83048216151560a0850152600160281b83048216151560c0850152600160301b90920416151560e083015260038301549082015260048201546101208201526005909101546101409091015261016081018051919250611d55826159c5565b90525061016081015160000361148e576000858152600c60205260409020600201805463ff00000019166301000000179055611497856143d7565b6060611dc0826040518060400160405280600c81526020016b496e672e205175696d69636160a01b815250614a65565b15611deb57505060408051808201909152600a815269496e67656e696572696160b01b602082015290565b611e1d826040518060400160405280601081526020016f496e672e2064652053697374656d617360801b815250614a65565b15611e4857505060408051808201909152600a815269496e67656e696572696160b01b602082015290565b611e74826040518060400160405280600a815260200169125b99cb8810da5d9a5b60b21b815250614a65565b15611e9f57505060408051808201909152600a815269496e67656e696572696160b01b602082015290565b611ece826040518060400160405280600d81526020016c496e672e204d6563616e69636160981b815250614a65565b15611ef957505060408051808201909152600a815269496e67656e696572696160b01b602082015290565b611f2d826040518060400160405280601281526020017124b7339710323290283937b23ab1b1b4b7b760711b815250614a65565b15611f5857505060408051808201909152600a815269496e67656e696572696160b01b602082015290565b611f88826040518060400160405280600e81526020016d496e672e20456c6563747269636160901b815250614a65565b15611fb357505060408051808201909152600a815269496e67656e696572696160b01b602082015290565b611fe3826040518060400160405280600e81526020016d20b236b4b734b9ba3930b1b4b7b760911b815250614a65565b1561200f57505060408051808201909152601e8152600080516020615c91833981519152602082015290565b612039826040518060400160405280600881526020016745636f6e6f6d696160c01b815250614a65565b1561206557505060408051808201909152601e8152600080516020615c91833981519152602082015290565b612091826040518060400160405280600a815260200169436f6e7461647572696160b01b815250614a65565b156120bd57505060408051808201909152601e8152600080516020615c91833981519152602082015290565b6120e8826040518060400160405280600981526020016822b23ab1b0b1b4b7b760b91b815250614a65565b1561211957505060408051808201909152601081526f4369656e63696173207920417274657360801b602082015290565b61214282604051806040016040528060078152602001664964696f6d617360c81b815250614a65565b1561217357505060408051808201909152601081526f4369656e63696173207920417274657360801b602082015290565b61219f826040518060400160405280600a815260200169507369636f6c6f67696160b01b815250614a65565b156121d057505060408051808201909152601081526f4369656e63696173207920417274657360801b602082015290565b61220482604051806040016040528060128152602001714d6174652e20496e647573747269616c657360701b815250614a65565b1561223557505060408051808201909152601081526f4369656e63696173207920417274657360801b602082015290565b612265826040518060400160405280600e81526020016d4573742e204c69626572616c657360901b815250614a65565b1561229157505060408051808201909152601e8152600080516020615cb1833981519152602082015290565b6122ba82604051806040016040528060078152602001664465726563686f60c81b815250614a65565b156122e657505060408051808201909152601e8152600080516020615cb1833981519152602082015290565b919050565b60606006805480602002602001604051908101604052809291908181526020016000905b828210156124795783829060005260206000209060040201604051806080016040529081600082018054612342906156e2565b80601f016020809104026020016040519081016040528092919081815260200182805461236e906156e2565b80156123bb5780601f10612390576101008083540402835291602001916123bb565b820191906000526020600020905b81548152906001019060200180831161239e57829003601f168201915b50505050508152602001600182015481526020016002820180546123de906156e2565b80601f016020809104026020016040519081016040528092919081815260200182805461240a906156e2565b80156124575780601f1061242c57610100808354040283529160200191612457565b820191906000526020600020905b81548152906001019060200180831161243a57829003601f168201915b505050505081526020016003820154815250508152602001906001019061230f565b50505050905090565b6124a660405180606001604052806060815260200160608152602001600081525090565b60005b60075481101561104257826040516020016124c491906156b0565b60405160208183030381529060405280519060200120600782815481106124ed576124ed6156cc565b906000526020600020906003020160010160405160200161250e9190615a84565b604051602081830303815290604052805190602001200361253c57600781815481106115f1576115f16156cc565b6125458161572c565b90506124a9565b61257060405180606001604052806060815260200160608152602001600081525090565b60005b600b8360405161258391906156b0565b90815260405190819003602001902054811015610b6c576125ad600b8460405161091a91906156b0565b156125c257600b836040516109ee91906156b0565b6125cb8161572c565b9050612573565b60018054610b81906156e2565b61260a6040518060800160405280606081526020016000815260200160608152602001600081525090565b60005b60065481101561104257826006828154811061262b5761262b6156cc565b906000526020600020906004020160010154036127ae5760068181548110612655576126556156cc565b906000526020600020906004020160405180608001604052908160008201805461267e906156e2565b80601f01602080910402602001604051908101604052809291908181526020018280546126aa906156e2565b80156126f75780601f106126cc576101008083540402835291602001916126f7565b820191906000526020600020905b8154815290600101906020018083116126da57829003601f168201915b505050505081526020016001820154815260200160028201805461271a906156e2565b80601f0160208091040260200160405190810160405280929190818152602001828054612746906156e2565b80156127935780601f1061276857610100808354040283529160200191612793565b820191906000526020600020905b81548152906001019060200180831161277657829003601f168201915b50505050508152602001600382015481525050915050919050565b6127b78161572c565b905061260d565b6000828152600c6020526040902060020154600160281b900460ff16156127f75760405162461bcd60e51b8152600401610d3590615880565b612800826145b0565b61281c5760405162461bcd60e51b8152600401610d35906158ae565b6002546001600160a01b031633146128465760405162461bcd60e51b8152600401610d35906158fc565b6000612851826125df565b9050600181606001818151612866919061594f565b9052506000838152600c60205260409020600201805465ff00000000001916600160281b179055610dd7836143d7565b6002546001600160a01b0316331461290e5760405162461bcd60e51b815260206004820152603560248201527f536f6c6f20656c206475656e6f2064656c20636f6e747261746f207075656465604482015274207265676973747261722063616e64696461746f7360581b6064820152608401610d35565b612917826147eb565b156129645760405162461bcd60e51b815260206004820152601760248201527f436f6e73656a65726f207961207265676973747261646f0000000000000000006044820152606401610d35565b6040805160808101825284815260208101849052908101829052600060608201819052600680546001810182559152815160049091027ff652222313e28459528d920b65115c16c04f3efc82aaedc97be59f3f377c0d3f019081906129c99082615ad6565b5060208201516001820155604082015160028201906129e89082615ad6565b50606082015181600301555050505050565b6000828152600d60205260408082209051612a169084906156b0565b9081526040519081900360200190205460ff16905092915050565b6040805161018080820183526000808352606060208085018290528486018390529084018290526080840182905260a0840182905260c0840182905260e084018290526101008401829052610120840182905261014084018290526101608401829052858252600c8152848220855193840186528054845260018101805487518185028101850190985280885295969495919486840194909391929184015b82821015612b7c578382906000526020600020018054612aef906156e2565b80601f0160208091040260200160405190810160405280929190818152602001828054612b1b906156e2565b8015612b685780601f10612b3d57610100808354040283529160200191612b68565b820191906000526020600020905b815481529060010190602001808311612b4b57829003601f168201915b505050505081526020019060010190612ad0565b50505090825250600282015460ff8082161515602084015261010080830482161515604085015262010000830482161515606085015263010000008304821615156080850152600160201b83048216151560a0850152600160281b83048216151560c0850152600160301b90920416151560e083015260038301549082015260048201546101208201526005909101546101409091015292915050565b6040516346b459c160e01b815260009073__PartyLib______________________________906346b459c190610cbd9085906007906004016159dc565b60606005805480602002602001604051908101604052809291908181526020016000905b828210156124795783829060005260206000209060020201604051806040016040529081600082018054612cad906156e2565b80601f0160208091040260200160405190810160405280929190818152602001828054612cd9906156e2565b8015612d265780601f10612cfb57610100808354040283529160200191612d26565b820191906000526020600020905b815481529060010190602001808311612d0957829003601f168201915b50505050508152602001600182018054612d3f906156e2565b80601f0160208091040260200160405190810160405280929190818152602001828054612d6b906156e2565b8015612db85780601f10612d8d57610100808354040283529160200191612db8565b820191906000526020600020905b815481529060010190602001808311612d9b57829003601f168201915b50505050508152505081526020019060010190612c7a565b60606000612ddd83611750565b6000848152600c6020526040812060010154919250612dfd826002615b95565b612e0884600361594f565b612e12919061594f565b90506000816001600160401b03811115612e2e57612e2e614b93565b604051908082528060200260200182016040528015612e6157816020015b6060815260200190600190039081612e4c5790505b509050604051806040016040528060138152602001724a756e7461204469726563746976612046434560681b81525081600081518110612ea357612ea36156cc565b60200260200101819052506040518060400160405280601081526020016f436f6f7264696e6163696f6e2046434560801b81525081600181518110612eea57612eea6156cc565b602002602001018190525060405180604001604052806011815260200170436f6e73656a6f2041636164656d69636f60781b81525081600281518110612f3257612f326156cc565b60200260200101819052506000846001600160401b03811115612f5757612f57614b93565b604051908082528060200260200182016040528015612f8a57816020015b6060815260200190600190039081612f755790505b5090506000612fbb886040518060400160405280600a815260200169496e67656e696572696160b01b8152506129fa565b1561300d576040518060400160405280600a815260200169496e67656e696572696160b01b815250828281518110612ff557612ff56156cc565b60200260200101819052508061300a9061572c565b90505b61303a886040518060400160405280601e8152602001600080516020615c918339815191528152506129fa565b1561308d576040518060400160405280601e8152602001600080516020615c91833981519152815250828281518110613075576130756156cc565b60200260200101819052508061308a9061572c565b90505b6130bf886040518060400160405280601081526020016f4369656e63696173207920417274657360801b8152506129fa565b15613117576040518060400160405280601081526020016f4369656e63696173207920417274657360801b8152508282815181106130ff576130ff6156cc565b6020026020010181905250806131149061572c565b90505b613144886040518060400160405280601e8152602001600080516020615cb18339815191528152506129fa565b15613197576040518060400160405280601e8152602001600080516020615cb183398151915281525082828151811061317f5761317f6156cc565b6020026020010181905250806131949061572c565b90505b60005b8251811015613217578281815181106131b5576131b56156cc565b60200260200101516040516020016131cd9190615bac565b60408051601f19818403018152919052846131e983600361594f565b815181106131f9576131f96156cc565b6020026020010181905250808061320f9061572c565b91505061319a565b5060005b6000898152600c60205260409020600101548110156132c6576000898152600c60205260409020600101805482908110613257576132576156cc565b906000526020600020016040516020016132719190615bf1565b60408051601f19818403018152919052848861328e84600361594f565b613298919061594f565b815181106132a8576132a86156cc565b602002602001018190525080806132be9061572c565b91505061321b565b5060005b6000898152600c6020526040902060010154811015613380576000898152600c60205260409020600101805482908110613306576133066156cc565b906000526020600020016040516020016133209190615c1c565b60408051601f1981840301815291905284878961333e85600361594f565b613348919061594f565b613352919061594f565b81518110613362576133626156cc565b602002602001018190525080806133789061572c565b9150506132ca565b5091979650505050505050565b606060098260405161339f91906156b0565b9081526020016040518091039020805480602002602001604051908101604052809291908181526020016000905b8282101561352d5783829060005260206000209060030201604051806060016040529081600082018054613400906156e2565b80601f016020809104026020016040519081016040528092919081815260200182805461342c906156e2565b80156134795780601f1061344e57610100808354040283529160200191613479565b820191906000526020600020905b81548152906001019060200180831161345c57829003601f168201915b50505050508152602001600182018054613492906156e2565b80601f01602080910402602001604051908101604052809291908181526020018280546134be906156e2565b801561350b5780601f106134e05761010080835404028352916020019161350b565b820191906000526020600020905b8154815290600101906020018083116134ee57829003601f168201915b50505050508152602001600282015481525050815260200190600101906133cd565b505050509050919050565b60405163c1809b2360e01b815260009073__PartyLib______________________________9063c1809b2390610cbd90859060039060040161583e565b6000838152600c6020526040902060020154600160201b900460ff16156135ae5760405162461bcd60e51b8152600401610d3590615880565b6135b7836145b0565b6135d35760405162461bcd60e51b8152600401610d35906158ae565b6002546001600160a01b031633146135fd5760405162461bcd60e51b8152600401610d35906158fc565b6000613609828461254c565b60408101805191925061361b8261572c565b9052506000848152600c60209081526040808320815161018081018352815481526001820180548451818702810187019095528085529194929385840193909290879084015b8282101561370d578382906000526020600020018054613680906156e2565b80601f01602080910402602001604051908101604052809291908181526020018280546136ac906156e2565b80156136f95780601f106136ce576101008083540402835291602001916136f9565b820191906000526020600020905b8154815290600101906020018083116136dc57829003601f168201915b505050505081526020019060010190613661565b50505090825250600282015460ff8082161515602084015261010080830482161515604085015262010000830482161515606085015263010000008304821615156080850152600160201b83048216151560a0850152600160281b83048216151560c0850152600160301b90920416151560e0830152600383015490820152600482015461012082015260059091015461014091820152810180519192506137b4826159c5565b90525061014081015160000361148e576000858152600c60205260409020600201805464ff000000001916600160201b179055611497856143d7565b6137f9826145b0565b1561383e5760405162461bcd60e51b8152602060048201526015602482015274566f74616e7465207961207265676973747261646f60581b6044820152606401610d35565b6000828152600e602052604090205460ff1661386c5760405162461bcd60e51b8152600401610d35906158ae565b6002546001600160a01b031633146138965760405162461bcd60e51b8152600401610d35906158fc565b604080516101808101825283815260208082018481526000838501819052606084018190526080840181905260a0840181905260c0840181905260e084018190526101008401819052610120840181905261014084018190526101608401819052868152600c835293909320825181559251805192939261391d9260018501920190614ace565b506040828101516002830180546060860151608087015160a088015160c089015160e08a0151610100808c015161ffff1990971698151561ff001916989098179415159097029390931763ffff00001916620100009215159290920263ff0000001916919091176301000000911515919091021765ffff000000001916600160201b9115159190910265ff0000000000191617600160281b931515939093029290921766ff0000000000001916600160301b9215159290920291909117905561012083015160038301556101408301516004830155610160909201516005909101556000838152600c602090815282822083516101808101855281548152600182018054865181860281018601909752808752613b889692959394868101949084015b82821015613aec578382906000526020600020018054613a5f906156e2565b80601f0160208091040260200160405190810160405280929190818152602001828054613a8b906156e2565b8015613ad85780601f10613aad57610100808354040283529160200191613ad8565b820191906000526020600020905b815481529060010190602001808311613abb57829003601f168201915b505050505081526020019060010190613a40565b50505090825250600282015460ff8082161515602084015261010080830482161515604085015262010000830482161515606085015263010000008304821615156080850152600160201b83048216151560a0850152600160281b83048216151560c0850152600160301b90920416151560e08301526003830154908201526004820154610120820152600590910154610140909101526118e6565b5050565b6002546001600160a01b03163314613bb65760405162461bcd60e51b8152600401610d35906158fc565b6000818152600e602052604090205460ff1615613c2c5760405162461bcd60e51b815260206004820152602e60248201527f566f74616e7465207961207265676973747261646f20656e20656c207265676960448201526d1cdd1c9bc8195b1958dd1bdc985b60921b6064820152608401610d35565b6000908152600e60205260409020805460ff19166001179055565b600881815481106110db57600080fd5b613c7b60405180606001604052806060815260200160608152602001600081525090565b60005b600a83604051613c8e91906156b0565b90815260405190819003602001902054811015610b6c57613cb8600a8460405161091a91906156b0565b15613ccd57600a836040516109ee91906156b0565b613cd68161572c565b9050613c7e565b815160208184018101805160098252928201918501919091209190528054829081106114ea57600080fd5b604051630f8ce3a760e11b815260009073__PartyLib______________________________90631f19c74e9061189e9086908690600590600401614f55565b6002546040516314a4bab560e31b815273__PartyLib______________________________9163a525d5a89161109791869186916001600160a01b031690600590600401615c4e565b60058181548110613da057600080fd5b9060005260206000209060020201600091509050806000018054613dc3906156e2565b80601f0160208091040260200160405190810160405280929190818152602001828054613def906156e2565b8015613e3c5780601f10613e1157610100808354040283529160200191613e3c565b820191906000526020600020905b815481529060010190602001808311613e1f57829003601f168201915b505050505090806001018054613e51906156e2565b80601f0160208091040260200160405190810160405280929190818152602001828054613e7d906156e2565b8015613eca5780601f10613e9f57610100808354040283529160200191613eca565b820191906000526020600020905b815481529060010190602001808311613ead57829003601f168201915b5050505050905082565b60606007805480602002602001604051908101604052809291908181526020016000905b828210156124795783829060005260206000209060030201604051806060016040529081600082018054613f2b906156e2565b80601f0160208091040260200160405190810160405280929190818152602001828054613f57906156e2565b8015613fa45780601f10613f7957610100808354040283529160200191613fa4565b820191906000526020600020905b815481529060010190602001808311613f8757829003601f168201915b50505050508152602001600182018054613fbd906156e2565b80601f0160208091040260200160405190810160405280929190818152602001828054613fe9906156e2565b80156140365780601f1061400b57610100808354040283529160200191614036565b820191906000526020600020905b81548152906001019060200180831161401957829003601f168201915b5050505050815260200160028201548152505081526020019060010190613ef8565b604051636bd742d560e01b815260009073__PartyLib______________________________90636bd742d59061189e9086908690600a906004016159fe565b6060600b826040516140a991906156b0565b9081526020016040518091039020805480602002602001604051908101604052809291908181526020016000905b8282101561352d578382906000526020600020906003020160405180606001604052908160008201805461410a906156e2565b80601f0160208091040260200160405190810160405280929190818152602001828054614136906156e2565b80156141835780601f1061415857610100808354040283529160200191614183565b820191906000526020600020905b81548152906001019060200180831161416657829003601f168201915b5050505050815260200160018201805461419c906156e2565b80601f01602080910402602001604051908101604052809291908181526020018280546141c8906156e2565b80156142155780601f106141ea57610100808354040283529160200191614215565b820191906000526020600020905b8154815290600101906020018083116141f857829003601f168201915b50505050508152602001600282015481525050815260200190600101906140d7565b6060600b8260405161424991906156b0565b9081526020016040518091039020805480602002602001604051908101604052809291908181526020016000905b8282101561352d57838290600052602060002090600302016040518060600160405290816000820180546142aa906156e2565b80601f01602080910402602001604051908101604052809291908181526020018280546142d6906156e2565b80156143235780601f106142f857610100808354040283529160200191614323565b820191906000526020600020905b81548152906001019060200180831161430657829003601f168201915b5050505050815260200160018201805461433c906156e2565b80601f0160208091040260200160405190810160405280929190818152602001828054614368906156e2565b80156143b55780601f1061438a576101008083540402835291602001916143b5565b820191906000526020600020905b81548152906001019060200180831161439857829003601f168201915b5050505050815260200160028201548152505081526020019060010190614277565b6000818152600c6020908152604080832081516101808101835281548152600182018054845181870281018701909552808552869592948584019390929190879084015b828210156144c757838290600052602060002001805461443a906156e2565b80601f0160208091040260200160405190810160405280929190818152602001828054614466906156e2565b80156144b35780601f10614488576101008083540402835291602001916144b3565b820191906000526020600020905b81548152906001019060200180831161449657829003601f168201915b50505050508152602001906001019061441b565b50505090825250600282015460ff808216151560208401526101008083048216151560408501526201000083048216151560608086019190915263010000008404831615156080860152600160201b84048316151560a0860152600160281b84048316151560c0860152600160301b909304909116151560e08401526003840154908301526004830154610120830152600590920154610140909101528101519091508015614577575080608001515b801561458457508060a001515b801561459157508060c001515b801561459e57508060e001515b80156118df5750610100015192915050565b6000818152600c60205260408120548290036145ce57506001919050565b506000919050565b6146016040518060800160405280606081526020016000815260200160608152602001600081525090565b60005b600654811015611042578260068281548110614622576146226156cc565b9060005260206000209060040201600101540361464c5760068181548110612655576126556156cc565b6146558161572c565b9050614604565b604051630d86782f60e31b815260009073__PartyLib______________________________90636c33c1789061189e9086908690600b906004016159fe565b600681815481106146ab57600080fd5b90600052602060002090600402016000915090508060000180546146ce906156e2565b80601f01602080910402602001604051908101604052809291908181526020018280546146fa906156e2565b80156147475780601f1061471c57610100808354040283529160200191614747565b820191906000526020600020905b81548152906001019060200180831161472a57829003601f168201915b505050505090806001015490806002018054614762906156e2565b80601f016020809104026020016040519081016040528092919081815260200182805461478e906156e2565b80156147db5780601f106147b0576101008083540402835291602001916147db565b820191906000526020600020905b8154815290600101906020018083116147be57829003601f168201915b5050505050908060030154905084565b6000805b60065481101561483d57826006828154811061480d5761480d6156cc565b9060005260206000209060040201600101540361482d5750600192915050565b6148368161572c565b90506147ef565b50600092915050565b60606008805480602002602001604051908101604052809291908181526020016000905b82821015612479578382906000526020600020906003020160405180606001604052908160008201805461489d906156e2565b80601f01602080910402602001604051908101604052809291908181526020018280546148c9906156e2565b80156149165780601f106148eb57610100808354040283529160200191614916565b820191906000526020600020905b8154815290600101906020018083116148f957829003601f168201915b5050505050815260200160018201805461492f906156e2565b80601f016020809104026020016040519081016040528092919081815260200182805461495b906156e2565b80156149a85780601f1061497d576101008083540402835291602001916149a8565b820191906000526020600020905b81548152906001019060200180831161498b57829003601f168201915b505050505081526020016002820154815250508152602001906001019061486a565b60025460405163dbae081360e01b815273__PartyLib______________________________9163dbae081391610c4e9185916001600160a01b0390911690600790600590600401615745565b600254604051635766dd4d60e11b815273__PartyLib______________________________9163aecdba9a9161109791869186916001600160a01b031690600a90600590600390600401615962565b60008151835114614a7857506000610b6e565b81604051602001614a8991906156b0565b6040516020818303038152906040528051906020012083604051602001614ab091906156b0565b60405160208183030381529060405280519060200120149050610b6e565b828054828255906000526020600020908101928215614b14579160200282015b82811115614b145782518290614b049082615ad6565b5091602001919060010190614aee565b50614b20929150614b24565b5090565b80821115614b20576000614b388282614b41565b50600101614b24565b508054614b4d906156e2565b6000825580601f10614b5d575050565b601f016020900490600052602060002090810190614b7b9190614b7e565b50565b5b80821115614b205760008155600101614b7f565b634e487b7160e01b600052604160045260246000fd5b60405161018081016001600160401b0381118282101715614bcc57614bcc614b93565b60405290565b604051601f8201601f191681016001600160401b0381118282101715614bfa57614bfa614b93565b604052919050565b600082601f830112614c1357600080fd5b81356001600160401b03811115614c2c57614c2c614b93565b614c3f601f8201601f1916602001614bd2565b818152846020838601011115614c5457600080fd5b816020850160208301376000918101602001919091529392505050565b60008060408385031215614c8457600080fd5b82356001600160401b0380821115614c9b57600080fd5b614ca786838701614c02565b93506020850135915080821115614cbd57600080fd5b50614cca85828601614c02565b9150509250929050565b60005b83811015614cef578181015183820152602001614cd7565b50506000910152565b60008151808452614d10816020860160208601614cd4565b601f01601f19169290920160200192915050565b6000815160608452614d396060850182614cf8565b905060208301518482036020860152614d528282614cf8565b915050604083015160408501528091505092915050565b6020815260006118df6020830184614d24565b6020815260006118df6020830184614cf8565b600060408284031215614da157600080fd5b604051604081016001600160401b038282108183111715614dc457614dc4614b93565b816040528293508435915080821115614ddc57600080fd5b614de886838701614c02565b83526020850135915080821115614dfe57600080fd5b50614e0b85828601614c02565b6020830152505092915050565b600060208284031215614e2a57600080fd5b81356001600160401b03811115614e4057600080fd5b61185784828501614d8f565b600060208284031215614e5e57600080fd5b81356001600160401b03811115614e7457600080fd5b61185784828501614c02565b60008060408385031215614e9357600080fd5b8235915060208301356001600160401b03811115614eb057600080fd5b614cca85828601614c02565b6000815160408452614ed16040850182614cf8565b905060208301518482036020860152614eea8282614cf8565b95945050505050565b6020815260006118df6020830184614ebc565b60008060408385031215614f1957600080fd5b82356001600160401b0380821115614f3057600080fd5b614ca786838701614d8f565b600060208284031215614f4e57600080fd5b5035919050565b606081526000614f686060830186614cf8565b8281036020840152614f7a8186614cf8565b915050826040830152949350505050565b600080600060608486031215614fa057600080fd5b8335925060208401356001600160401b0380821115614fbe57600080fd5b614fca87838801614c02565b93506040860135915080821115614fe057600080fd5b50614fed86828701614c02565b9150509250925092565b6000806040838503121561500a57600080fd5b82356001600160401b0381111561502057600080fd5b61502c85828601614c02565b95602094909401359450505050565b600082601f83011261504c57600080fd5b813560206001600160401b038083111561506857615068614b93565b8260051b615077838201614bd2565b938452858101830193838101908886111561509157600080fd5b84880192505b858310156150cd578235848111156150af5760008081fd5b6150bd8a87838c0101614c02565b8352509184019190840190615097565b98975050505050505050565b8015158114614b7b57600080fd5b80356122e6816150d9565b60006020828403121561510457600080fd5b81356001600160401b038082111561511b57600080fd5b90830190610180828603121561513057600080fd5b615138614ba9565b8235815260208301358281111561514e57600080fd5b61515a8782860161503b565b60208301525061516c604084016150e7565b604082015261517d606084016150e7565b606082015261518e608084016150e7565b608082015261519f60a084016150e7565b60a08201526151b060c084016150e7565b60c08201526151c160e084016150e7565b60e082015261010091506151d68284016150e7565b918101919091526101208281013590820152610140808301359082015261016091820135918101919091529392505050565b600081516080845261521d6080850182614cf8565b905060208301516020850152604083015184820360408601526152408282614cf8565b915050606083015160608501528091505092915050565b6000602080830181845280855180835260408601915060408160051b870101925083870160005b828110156152ac57603f1988860301845261529a858351615208565b9450928501929085019060010161527e565b5092979650505050505050565b6020815260006118df6020830184615208565b600080604083850312156152df57600080fd5b50508035926020909101359150565b60008060006060848603121561530357600080fd5b83356001600160401b038082111561531a57600080fd5b61532687838801614c02565b9450602086013593506040860135915080821115614fe057600080fd5b600081518084526020808501808196508360051b8101915082860160005b85811015613380578284038952615379848351614cf8565b98850198935090840190600101615361565b6020815281516020820152600060208301516101808060408501526153b46101a0850183615343565b915060408501516153c9606086018215159052565b506060850151801515608086015250608085015180151560a08601525060a085015180151560c08601525060c085015180151560e08601525060e08501516101006154178187018315159052565b860151905061012061542c8682018315159052565b86015161014086810191909152860151610160808701919091529095015193019290925250919050565b6000602080830181845280855180835260408601915060408160051b870101925083870160005b828110156152ac57603f19888603018452615499858351614ebc565b9450928501929085019060010161547d565b6020815260006118df6020830184615343565b6000602080830181845280855180835260408601915060408160051b870101925083870160005b828110156152ac57603f19888603018452615501858351614d24565b945092850192908501906001016154e5565b6000806040838503121561552657600080fd5b8235915060208301356001600160401b0381111561554357600080fd5b614cca8582860161503b565b6040815260006155626040830185614cf8565b8281036020840152614eea8185614cf8565b6000602080830181845280855180835260408601915060408160051b870101925083870160005b828110156152ac57603f198886030184526155b7858351614d24565b9450928501929085019060010161559b565b6000602080830181845280855180835260408601915060408160051b870101925083870160005b828110156152ac57603f1988860301845261560c858351614d24565b945092850192908501906001016155f0565b6080815260006156316080830187614cf8565b85602084015282810360408401526156498186614cf8565b91505082606083015295945050505050565b6000602080830181845280855180835260408601915060408160051b870101925083870160005b828110156152ac57603f1988860301845261569e858351614d24565b94509285019290850190600101615682565b600082516156c2818460208701614cd4565b9190910192915050565b634e487b7160e01b600052603260045260246000fd5b600181811c908216806156f657607f821691505b60208210810361104257634e487b7160e01b600052602260045260246000fd5b634e487b7160e01b600052601160045260246000fd5b60006001820161573e5761573e615716565b5060010190565b6080815260006157586080830187614ebc565b6001600160a01b03959095166020830152506040810192909252606090910152919050565b600081548084526020808501808196506005915083821b81016000878152848120815b8781101561582f578484038b528282546157b9816156e2565b808752600182811680156157d457600181146157ed57615818565b60ff198416898d01528215158b1b89018c019450615818565b8688528b8820885b848110156158105781548b82018f0152908301908d016157f5565b8a018d019550505b509d8a019d929650505091909101906001016157a0565b50919998505050505050505050565b6040815260006158516040830185614cf8565b8281036020840152614eea818561577d565b60006020828403121561587557600080fd5b81516118df816150d9565b602080825260149082015273566f74616e746520796120686120766f7461646f60601b604082015260600190565b6020808252602e908201527f566f74616e7465206e6f207265676973747261646f20656e20656c207265676960408201526d1cdd1c9bc8195b1958dd1bdc985b60921b606082015260800190565b60208082526033908201527f536f6c6f20656c206475656e6f2064656c20636f6e747261746f2070756564656040820152722072656769737472617220766f74616e74657360681b606082015260800190565b80820180821115610b6e57610b6e615716565b60c08152600061597560c0830189614ebc565b82810360208401526159878189614cf8565b6001600160a01b0388166040850152606084018790526080840186905283810360a085015290506159b8818561577d565b9998505050505050505050565b6000816159d4576159d4615716565b506000190190565b6040815260006159ef6040830185614ebc565b90508260208301529392505050565b606081526000614f686060830186614ebc565b60008154615a1e816156e2565b60018281168015615a365760018114615a4b57615a7a565b60ff1984168752821515830287019450615a7a565b8560005260208060002060005b85811015615a715781548a820152908401908201615a58565b50505082870194505b5050505092915050565b60006118df8284615a11565b601f821115610df957600081815260208120601f850160051c81016020861015615ab75750805b601f850160051c820191505b818110156110c357828155600101615ac3565b81516001600160401b03811115615aef57615aef614b93565b615b0381615afd84546156e2565b84615a90565b602080601f831160018114615b385760008415615b205750858301515b600019600386901b1c1916600185901b1785556110c3565b600085815260208120601f198616915b82811015615b6757888601518255948401946001909101908401615b48565b5085821015615b855787850151600019600388901b60f8161c191681555b5050505050600190811b01905550565b8082028115828204841417610b6e57610b6e615716565b7f436f6e73656a6f20646520466163756c74616420646520000000000000000000815260008251615be4816017850160208701614cd4565b9190910160170192915050565b75021b7b739b2b5379032329022b9b1bab2b630903232960551b815260006118df6016830184615a11565b7f43656e74726f20646520457374756469616e7465732064652000000000000000815260006118df6019830184615a11565b608081526000615c616080830187614cf8565b8281036020840152615c738187614cf8565b6001600160a01b039590951660408401525050606001529291505056fe4369656e636961732045636f6e6f6d69636173207920536f6369616c657300004573747564696f73204a7572696469636f73207920506f6c697469636f730000a2646970667358221220526f6fde1bd9c006f38c91de5904f1a1ca17c9cedef53c6745ac826b24e6669f64736f6c63430008110033",
  "immutableReferences": {},
  "source": "// SPDX-License-Identifier: UNLICENSED\npragma solidity ^0.8.0;\nimport \"./PartyLib.sol\";\n\n\ncontract Election {\n    using PartyLib for *;\n    // Para llevar control de cada estado\n\n    // TODO: esto es para despues\n    // enum WorkflowStatus {\n    //     RegisteringVoters,\n    //     VotingSessionStarted,\n    //     VotingSessionEnded,\n    //     VotesTallied\n    // }\n\n    // modifier onlyRegisteredVoter() {\n    //     require(\n    //         votantes[msg.sender],\n    //         \"Only registered voters can call this function.\"\n    //     );\n    //     _;\n    // }\n\n    // modifier onlyDuringVotingSession() {\n    //     require(\n    //         workflowStatus == WorkflowStatus.VotingSessionStarted,\n    //         \"this function can be called only during voting sessions.\"\n    //     );\n    //     _;\n    // }\n\n    // event VoterRegisteredEvent(address voterAddress);\n    // event CandidateRegisteredEvent(uint256 candidateId);\n    // event VotingSessionStartedEvent();\n    // event VotingSessionEndedEvent();\n    // event VotedEvent(address voter, uint256 proposalId);\n    // event VotesTalliedEvent();\n\n    // event WorkflowStatusChangeEvent(\n    //     WorkflowStatus previousStatus,\n    //     WorkflowStatus newStatus\n    // );\n\n    function compareStrings(string memory a, string memory b)\n        internal\n        pure\n        returns (bool)\n    {\n        if (bytes(a).length != bytes(b).length) {\n            return false;\n        } else {\n            return keccak256(abi.encodePacked((a))) ==\n                keccak256(abi.encodePacked((b)));\n        }\n    }\n\n    constructor() {\n        owner = msg.sender;\n    }\n\n    modifier onlyOwner() {\n        require(msg.sender == owner, \"Only owner can call this function.\");\n        _;\n    }\n\n\n\n    // Election details\n\n    string public name;\n    string public description;\n\n    address public owner;\n\n    string[] private escuelas = [\n        \"Ing. Quimica\",\n        \"Ing. de Sistemas\",\n        \"Ing. Civil\",\n        \"Ing. Mecanica\",\n        \"Ing. de Produccion\",\n        \"Ing. Electrica\",\n        \"Administracion\",\n        \"Contaduria\",\n        \"Economia\",\n        \"Educacion\",\n        \"Idiomas\",\n        \"Psicolologia\",\n        \"Mate. Industriales\",\n        \"Est. Liberales\",\n        \"Derecho\"\n    ];\n\n    string[] private facultades = [\n        \"Ingenieria\",\n        \"Ciencias Economicas y Sociales\",\n        \"Ciencias y Artes\",\n        \"Estudios Juridicos y Politicos\"\n    ];\n\n\n    // Agrupaciones\n\n    // struct PartyLib.Party {\n    //     string name;\n    //     string siglas;\n    // }\n\n    // struct PartyLib.CandidateConsejero {\n    //     string nombre;\n    //     uint id;\n    //     string degree;\n    //     uint voteCount;\n    // }\n\n    // struct PartyLib.CandidateConsejoFacultad {\n    //     string nombreAgrupacion;\n    //     string siglasAgrupacion;\n    //     uint voteCount;\n    // }\n\n    // struct PartyLib.CandidateConsejoEscuela {\n    //     string nombreAgrupacion;\n    //     string siglasAgrupacion;\n    //     uint voteCount;\n    // }\n\n    // struct CandidateCentroEstudiantes {\n    //     string nombreAgrupacion;\n    //     string siglasAgrupacion;\n    //     uint voteCount;\n    // }\n\n    // struct PartyLib.CandidateJuntaDirectiva {\n    //     string nombreAgrupacion;\n    //     string siglasAgrupacion;\n    //     uint voteCount;\n    // }\n\n    // struct PartyLib.CandidateCoordinacion {\n    //     string nombreAgrupacion;\n    //     string siglasAgrupacion;\n    //     uint voteCount;\n    // }   \n\n    PartyLib.Party[] public agrupacionesRegistradas;\n\n    PartyLib.CandidateConsejero[] public candidatosConsejoAcademico;\n    PartyLib.CandidateJuntaDirectiva[] public candidatosJuntaDirectivaFCE;\n    PartyLib.CandidateCoordinacion[] public candidatosCoordinacionFCE;\n\n    mapping (string => PartyLib.CandidateConsejoFacultad[]) public candidatosConsejoFacultad;\n    mapping (string => PartyLib.CandidateConsejoEscuela[]) public candidatosConsejoEscuela;\n    mapping (string => PartyLib.CandidateCentroEstudiantes[]) public candidatosCentroEstudiante;\n\n    // TODO: Para los check puedo quitar la comparacion de las siglas para que sea mas eficiente, aunque quizas seria mejor\n    // hacer la comparacion pero con un OR para que no se repitan siglas\n    function addAgrupacion(string memory _name, string memory _siglas) public {\n        PartyLib.addAgrupacion(_name, _siglas, owner, agrupacionesRegistradas);\n    }\n\n    function checkAgrupacion(string memory _name, string memory _siglas) public view returns (bool result) {\n        return PartyLib.checkAgrupacion(_name, _siglas, agrupacionesRegistradas);\n    }\n\n    function getAgrupaciones() public view returns (PartyLib.Party[] memory) {\n        return agrupacionesRegistradas;\n    }\n\n    function getAgrupacion(string memory _name) public view returns (PartyLib.Party memory agrupacion) {\n        for (uint i = 0; i < agrupacionesRegistradas.length; ++i) {\n            if(compareStrings(agrupacionesRegistradas[i].name, _name)) {\n                return agrupacionesRegistradas[i];\n            }\n        }\n    }\n\n    function addConsejoFacultad(PartyLib.Party memory _agrupacion, string memory _facultad) public {\n        PartyLib.addConsejoFacultad(_agrupacion, _facultad, owner, candidatosConsejoFacultad, agrupacionesRegistradas, facultades);\n    }\n\n    function checkConsejoFacultad(PartyLib.Party memory _agrupacion, string memory _facultad) public view returns (bool result) {\n        return PartyLib.checkConsejoFacultad(_agrupacion, _facultad, candidatosConsejoFacultad);\n    }\n\n    function checkInFacultades(string memory _facultad) public view returns (bool result) {\n        return PartyLib.checkInFacultades(_facultad, facultades);\n    }\n\n    function addConsejoEscuela(PartyLib.Party memory _agrupacion, string memory _escuela) public {\n        PartyLib.addConsejoEscuela(_agrupacion, _escuela, owner, candidatosConsejoEscuela, agrupacionesRegistradas, escuelas);\n    }\n\n    function checkConsejoEscuela(PartyLib.Party memory _agrupacion, string memory _escuela) public view returns (bool result) {\n        return PartyLib.checkConsejoEscuela(_agrupacion, _escuela, candidatosConsejoEscuela);\n    }\n\n    function checkInEscuelas(string memory _escuela) public view returns (bool result) {\n        return PartyLib.checkInEscuelas(_escuela, escuelas);\n    }\n\n    function addCentroEstudiantes(PartyLib.Party memory _agrupacion, string memory _escuela) public {\n        PartyLib.addCentroEstudiantes(_agrupacion, _escuela, owner, candidatosCentroEstudiante, agrupacionesRegistradas, escuelas);\n    }\n\n    function checkCentroEstudiantes(PartyLib.Party memory _agrupacion, string memory _escuela) public view returns (bool result) {\n        return PartyLib.checkCentroEstudiantes(_agrupacion, _escuela, candidatosCentroEstudiante);\n    }\n\n    function addJuntaDirectivaFCE(PartyLib.Party memory _agrupacion) public {\n        PartyLib.addJuntaDirectivaFCE(_agrupacion, owner, candidatosJuntaDirectivaFCE, agrupacionesRegistradas);\n    }\n\n    function checkJuntaDirectiva(PartyLib.Party memory _agrupacion) public view returns (bool result) {\n        return PartyLib.checkJuntaDirectiva(_agrupacion, candidatosJuntaDirectivaFCE);\n    }\n\n    function addCoordinacionFCE(PartyLib.Party memory _agrupacion) public {\n        PartyLib.addCoordinacionFCE(_agrupacion, owner, candidatosCoordinacionFCE, agrupacionesRegistradas);\n    }\n\n    function checkCoordinacion(PartyLib.Party memory _agrupacion) public view returns (bool result) {\n        return PartyLib.checkCoordinacion(_agrupacion, candidatosCoordinacionFCE);\n    }\n\n    function addConsejeroAcademico(string memory _name, uint _id, string memory _major) public {\n        require(msg.sender == owner, \"Solo el dueno del contrato puede registrar candidatos\");\n        require(!checkConsejeroAcademico(_id), \"Consejero ya registrado\");\n        candidatosConsejoAcademico.push(PartyLib.CandidateConsejero(_name, _id, _major, 0));\n    }\n\n    function checkConsejeroAcademico(uint _id) public view returns (bool) {\n        for (uint i = 0; i < candidatosConsejoAcademico.length; ++i) {\n            if (candidatosConsejoAcademico[i].id == _id) {\n                return true;\n            }\n        }\n        return false;\n    }\n\n    function getCandidateConsejoAcademico(uint _id) public view returns (PartyLib.CandidateConsejero memory candidate) {\n        for (uint i = 0; i < candidatosConsejoAcademico.length; ++i) {\n            if (candidatosConsejoAcademico[i].id == _id) {\n                return candidatosConsejoAcademico[i];\n            }\n        }\n    }\n\n    function getAllCandidatesConsejoAcademico() public view returns (PartyLib.CandidateConsejero[] memory) {\n        return candidatosConsejoAcademico;\n    }\n\n    function getCandidatosConsejoFacultad(string memory _facultad) public view returns (PartyLib.CandidateConsejoFacultad[] memory) {\n        return candidatosConsejoFacultad[_facultad];\n    }\n\n    function getCandidatosConsejoEscuela(string memory _escuela) public view returns (PartyLib.CandidateCentroEstudiantes[] memory) {\n        return candidatosCentroEstudiante[_escuela];\n    }\n\n    function getCandidatosCentroEstudiante(string memory _escuela) public view returns (PartyLib.CandidateCentroEstudiantes[] memory) {\n        return candidatosCentroEstudiante[_escuela];\n    }\n\n    function getCandidatosdCoordinacionFCE() public view returns (PartyLib.CandidateCoordinacion[] memory) {\n        return candidatosCoordinacionFCE;\n    }\n\n    function getCandidatosJuntaDirectivaFCE() public view returns (PartyLib.CandidateJuntaDirectiva[] memory) {\n        return candidatosJuntaDirectivaFCE;\n    }\n\n    function getJuntaDirectivaFCE(string memory _siglas) public view returns (PartyLib.CandidateJuntaDirectiva memory junta) {\n        for (uint i = 0; i < candidatosJuntaDirectivaFCE.length; ++i) {\n            if (keccak256(abi.encodePacked(candidatosJuntaDirectivaFCE[i].siglasAgrupacion)) == keccak256(abi.encodePacked(_siglas))) {\n                return candidatosJuntaDirectivaFCE[i];\n            }\n        }\n    }\n\n    function getCoordinacionFCE(string memory _siglas) public view returns (PartyLib.CandidateCoordinacion memory coordinacion) {\n        for (uint i = 0; i < candidatosCoordinacionFCE.length; ++i) {\n            if (compareStrings(candidatosCoordinacionFCE[i].siglasAgrupacion, _siglas)) {\n                return candidatosCoordinacionFCE[i];\n            }\n        }\n    }\n\n    function getCentroEstudiantes(string memory _siglas, string memory _escuela) public view returns (PartyLib.CandidateCentroEstudiantes memory centro) {\n        for (uint i = 0; i < candidatosCentroEstudiante[_escuela].length; ++i) {\n            if (compareStrings(candidatosCentroEstudiante[_escuela][i].siglasAgrupacion, _siglas)) {\n                return candidatosCentroEstudiante[_escuela][i];\n            }\n        }\n    }\n\n    function getConsejoFacultad(string memory _siglas, string memory _facultad) public view returns (PartyLib.CandidateConsejoFacultad memory consejo) {\n        for (uint i = 0; i < candidatosConsejoFacultad[_facultad].length; ++i) {\n            if (compareStrings(candidatosConsejoFacultad[_facultad][i].siglasAgrupacion, _siglas)) {\n                return candidatosConsejoFacultad[_facultad][i];\n            }\n\n        }\n    }\n\n    function getConsejeroAcademico(uint _id) public view returns (PartyLib.CandidateConsejero memory consejero) {\n        for (uint i = 0; i < candidatosConsejoAcademico.length; ++i) {\n            if (candidatosConsejoAcademico[i].id == _id) {\n                return candidatosConsejoAcademico[i];\n            }\n        }\n    }\n\n    function getConsejoEscuela(string memory _siglas, string memory _escuela) public view returns (PartyLib.CandidateConsejoEscuela memory consejo) {\n        for (uint i = 0; i < candidatosConsejoEscuela[_escuela].length; ++i) {\n            if (compareStrings(candidatosConsejoEscuela[_escuela][i].siglasAgrupacion, _siglas)) {\n                return candidatosConsejoEscuela[_escuela][i];\n            }\n        }\n    }\n\n\n    // Votantes\n\n    struct Votante {\n        uint id;\n        string[] carreras;\n        bool voted;\n        bool votoCoordinacion;\n        bool votoJuntaDirectiva;\n        bool votoConsejoFacultad;\n        bool votoCentroEstudiantes;\n        bool votoConsejoAcademico;\n        bool votoConsejoEscuela;\n        uint votosConsejoEscuela;\n        uint votosCentroEstudiantes;\n        uint votosFacultad;\n    }\n\n\n    mapping (uint => Votante) votantes;\n    mapping (uint => mapping (string => bool)) votantesFacultades;\n    mapping (uint => bool) registroElectoral;\n    // mapping(address => Voter) public voters;\n    // Candidate[] public candidates;\n    // string[] public parties;\n    // WorkflowStatus public workflowStatus;\n    // string[] public voterRegistry;\n\n    function addVotante(uint _id, string[] memory _carreras) public {\n        require(!checkRegisteredVoter(_id), \"Votante ya registrado\");\n        require(inRegistroElectoral(_id), \"Votante no registrado en el registro electoral\");\n        require(msg.sender == owner, \"Solo el dueno del contrato puede registrar votantes\");\n        votantes[_id] = Votante(_id, _carreras, false, false, false, false, false, false, false,0,0,0);\n        registerVotanteFacultad(votantes[_id]);\n    }\n\n    function checkListoVotando(uint _id) public view returns (bool) {\n        Votante memory votante = votantes[_id];\n        return votante.votoCoordinacion && votante.votoJuntaDirectiva && votante.votoConsejoFacultad && votante.votoCentroEstudiantes && votante.votoConsejoAcademico && votante.votoConsejoEscuela;\n    }\n\n// TODO: implementar voto nulo\n    function voteJunta(uint _id, string memory _siglas) public {\n        require(!votantes[_id].voted, \"Votante ya ha votado\");\n        require(checkRegisteredVoter(_id), \"Votante no registrado en el registro electoral\");\n        require(msg.sender == owner, \"Solo el dueno del contrato puede registrar votantes\");\n        PartyLib.CandidateJuntaDirectiva memory candidato = getJuntaDirectivaFCE(_siglas);\n        candidato.voteCount += 1;\n        votantes[_id].votoJuntaDirectiva = true;\n        if (checkListoVotando(_id)) {\n            votantes[_id].voted = true;\n        }\n    }\n\n    function voteCoordinacion(uint _id, string memory _siglas) public {\n        require(!votantes[_id].votoCoordinacion, \"Votante ya ha votado\");\n        require(checkRegisteredVoter(_id), \"Votante no registrado en el registro electoral\");\n        require(msg.sender == owner, \"Solo el dueno del contrato puede registrar votantes\");\n        PartyLib.CandidateCoordinacion memory candidato = getCoordinacionFCE(_siglas);\n        candidato.voteCount += 1;\n        votantes[_id].votoCoordinacion = true;\n        if (checkListoVotando(_id)) {\n            votantes[_id].voted = true;\n        }\n    }\n// TODO: creo que esta vaina es cero eficiente y me esta tumbando el contrato\n\n    function voteConsejoAcademico(uint _id, uint _idCandidato) public {\n        require(!votantes[_id].votoConsejoAcademico, \"Votante ya ha votado\");\n        require(checkRegisteredVoter(_id), \"Votante no registrado en el registro electoral\");\n        require(msg.sender == owner, \"Solo el dueno del contrato puede registrar votantes\");\n        PartyLib.CandidateConsejero memory candidato = getConsejeroAcademico(_idCandidato);\n        candidato.voteCount += 1;\n        votantes[_id].votoConsejoAcademico = true;\n        if (checkListoVotando(_id)) {\n            votantes[_id].voted = true;\n        }\n    }\n\n    function voteConsejoFacultad(uint _id, string memory _facultad, string memory _siglas) public {\n        require(!votantes[_id].votoConsejoFacultad, \"Votante ya ha votado\");\n        require(checkRegisteredVoter(_id), \"Votante no registrado en el registro electoral\");\n        require(msg.sender == owner, \"Solo el dueno del contrato puede registrar votantes\");\n        PartyLib.CandidateConsejoFacultad memory candidato = getConsejoFacultad(_siglas, _facultad);\n        candidato.voteCount++;\n        Votante memory votante = votantes[_id];\n        votante.votosFacultad--;\n        if (votante.votosFacultad == 0) {\n            votantes[_id].votoConsejoFacultad = true;\n        }\n        if (checkListoVotando(_id)) {\n            votantes[_id].voted = true;\n        }\n    }\n\n    function voteConsejoEscuela(uint _id, string memory _escuela, string memory _siglas) public {\n        require(!votantes[_id].votoConsejoEscuela, \"Votante ya ha votado\");\n        require(checkRegisteredVoter(_id), \"Votante no registrado en el registro electoral\");\n        require(msg.sender == owner, \"Solo el dueno del contrato puede registrar votantes\");\n        PartyLib.CandidateConsejoEscuela memory candidato = getConsejoEscuela(_siglas, _escuela);\n        candidato.voteCount++;\n        Votante memory votante = votantes[_id];\n        votante.votosConsejoEscuela--;\n        if (votante.votosConsejoEscuela == 0) {\n            votantes[_id].votoConsejoEscuela = true;\n        }\n        if (checkListoVotando(_id)) {\n            votantes[_id].voted = true;\n        }\n    }\n\n    function voteCentroEstudiantes(uint _id, string memory _escuela, string memory _siglas) public {\n        require(!votantes[_id].votoCentroEstudiantes, \"Votante ya ha votado\");\n        require(checkRegisteredVoter(_id), \"Votante no registrado en el registro electoral\");\n        require(msg.sender == owner, \"Solo el dueno del contrato puede registrar votantes\");\n        PartyLib.CandidateCentroEstudiantes memory candidato = getCentroEstudiantes(_siglas, _escuela);\n        candidato.voteCount++;\n        Votante memory votante = votantes[_id];\n        votante.votosCentroEstudiantes--;\n        if (votante.votosCentroEstudiantes == 0) {\n            votantes[_id].votoCentroEstudiantes = true;\n        }\n        if (checkListoVotando(_id)) {\n            votantes[_id].voted = true;\n        }\n    }\n\n    function registerVotanteFacultad(Votante memory _votante) public {\n        string[] memory carreras = _votante.carreras;\n        for (uint i = 0; i < carreras.length; ++i) {\n            if (!votantesFacultades[_votante.id][getFacultadCarrera(carreras[i])]){\n                votantesFacultades[_votante.id][getFacultadCarrera(carreras[i])] = true;\n                _votante.votosFacultad++;\n            }\n            _votante.votosConsejoEscuela++;\n            _votante.votosCentroEstudiantes++;\n        }\n    }\n\n    function getFacultadCarrera(string memory _carrera) public pure returns (string memory facCarrera) {\n\n        if (compareStrings(_carrera, \"Ing. Quimica\")) {\n            return \"Ingenieria\";\n        } else if (compareStrings(_carrera, \"Ing. de Sistemas\")) {\n            return \"Ingenieria\";\n        } else if (compareStrings(_carrera, \"Ing. Civil\")) {\n            return \"Ingenieria\";\n        } else if (compareStrings(_carrera, \"Ing. Mecanica\")) {\n            return \"Ingenieria\";\n        } else if (compareStrings(_carrera, \"Ing. de Produccion\")) {\n            return \"Ingenieria\";\n        } else if (compareStrings(_carrera, \"Ing. Electrica\")) {\n            return \"Ingenieria\";\n        } else if (compareStrings(_carrera, \"Administracion\")) {\n            return \"Ciencias Economicas y Sociales\";\n        } else if (compareStrings(_carrera, \"Economia\")) {\n            return \"Ciencias Economicas y Sociales\";\n        } else if (compareStrings(_carrera, \"Contaduria\")) {\n            return \"Ciencias Economicas y Sociales\";\n        } else if (compareStrings(_carrera, \"Educacion\")) {\n            return \"Ciencias y Artes\";\n        } else if (compareStrings(_carrera, \"Idiomas\")) {\n            return \"Ciencias y Artes\";\n        } else if (compareStrings(_carrera, \"Psicologia\")) {\n            return \"Ciencias y Artes\";\n        } else if (compareStrings(_carrera, \"Mate. Industriales\")) {\n            return \"Ciencias y Artes\";\n        } else if (compareStrings(_carrera, \"Est. Liberales\")) {\n            return \"Estudios Juridicos y Politicos\";\n        } else if (compareStrings(_carrera, \"Derecho\")) {\n            return \"Estudios Juridicos y Politicos\";\n        }\n    }\n\n    function checkVotanteEnFacultad(uint _id, string memory _facultad) public view returns (bool) {\n        return votantesFacultades[_id][_facultad];\n    }\n\n    function getParticipatingSections(uint _id) public view returns (string[] memory) {\n        uint facCounter = getFacultyCount(_id);\n        uint escuelaCounter = votantes[_id].carreras.length;\n        uint sectionCounter = (3 + facCounter + escuelaCounter * 2);\n        string[] memory secciones = new string[](sectionCounter);\n\n        secciones[0] = \"Junta Directiva FCE\";\n        secciones[1] = \"Coordinacion FCE\";\n        secciones[2] = \"Consejo Academico\";\n        string[] memory _facultades = new string[](facCounter);\n        uint i = 0;\n        if (checkVotanteEnFacultad(_id, \"Ingenieria\")) {\n            _facultades[i] = \"Ingenieria\";\n            ++i;\n        }\n        if (checkVotanteEnFacultad(_id, \"Ciencias Economicas y Sociales\")) {\n            _facultades[i] = \"Ciencias Economicas y Sociales\";\n            ++i;\n        }\n        if (checkVotanteEnFacultad(_id, \"Ciencias y Artes\")) {\n            _facultades[i] = \"Ciencias y Artes\";\n            ++i;\n        }\n        if (checkVotanteEnFacultad(_id, \"Estudios Juridicos y Politicos\")) {\n            _facultades[i] = \"Estudios Juridicos y Politicos\";\n            ++i;\n        }\n        for (uint j = 0; j < _facultades.length; j++) {\n            secciones[j + 3] = string.concat(\"Consejo de Facultad de \", _facultades[j]);\n        }\n        for (uint k = 0; k < votantes[_id].carreras.length; k++) {\n            secciones[k + 3 + facCounter] = string.concat(\"Consejo de Escuela de \", votantes[_id].carreras[k]);\n        }\n        for (uint l = 0; l < votantes[_id].carreras.length; l++) {\n            secciones[l + 3 + facCounter + escuelaCounter] = string.concat(\"Centro de Estudiantes de \", votantes[_id].carreras[l]);\n        }\n\n        return secciones;\n    }\n\n    function getFacultyCount(uint _id) public view returns (uint) {\n        uint facCounter = 0;\n        if (checkVotanteEnFacultad(_id, \"Ingenieria\")) {\n            facCounter++;\n        }\n        if (checkVotanteEnFacultad(_id, \"Ciencias Economicas y Sociales\")) {\n            facCounter++;\n        }\n        if (checkVotanteEnFacultad(_id, \"Ciencias y Artes\")) {\n            facCounter++;\n        }\n        if (checkVotanteEnFacultad(_id, \"Estudios Juridicos y Politicos\")) {\n            facCounter++;\n        }\n        return facCounter;\n    }\n\n    // function checkRegisteredFacultad(string memory _facultad, string[] memory _facultadesRegistradas) public pure returns (bool) {\n    //     for (uint i = 0; i < _facultadesRegistradas.length; ++i) {\n    //         if (keccak256(abi.encodePacked(_facultadesRegistradas[i])) == keccak256(abi.encodePacked(_facultad))) {\n    //             return true;\n    //         }\n    //     }\n    //     return false;\n    // }\n\n    function checkRegisteredVoter(uint _id) public view returns (bool) {\n        if (votantes[_id].id == _id) {\n            return true;\n        }\n        return false;\n    }\n\n    function inRegistroElectoral(uint _id) public view returns (bool) {\n        return registroElectoral[_id];\n    }\n\n    function agregarARegistroElectoral(uint _id) public {\n        require(msg.sender == owner, \"Solo el dueno del contrato puede registrar votantes\");\n        require(!inRegistroElectoral(_id), \"Votante ya registrado en el registro electoral\");\n        registroElectoral[_id] = true;\n    }\n\n    function getVotante(uint _id) public view returns (Votante memory) {\n        return votantes[_id];\n    }\n\n\n    // struct Candidate {\n    //     string name;\n    //     string PartyLib.Party;\n    //     string degree;\n    //     uint256 voteCount;\n    //     uint id;\n    // }\n\n    // struct Voter {\n    //     bool isRegistered;\n    //     bool hasVoted;\n    //     string voterID; \n    //     string[] carreras;\n    // }\n\n    // struct Result {\n    //     string name;\n    //     uint256 voteCount;\n    // }\n\n\n\n\n\n    // function registerVoter(string memory voterID, address _voterAddress, string memory carrera) public onlyOwner {\n    //     require(\n    //         !voters[_voterAddress].isRegistered || !carreraRegistrada(carrera, _voterAddress),\n    //         \"the voter is already registered\"\n    //     );\n\n    //     if (!voters[_voterAddress].isRegistered){\n    //         voters[_voterAddress].isRegistered = true;\n    //         voters[_voterAddress].hasVoted = false;\n    //         voters[_voterAddress].voterID = voterID;\n    //     }\n        \n    //     voters[_voterAddress].carreras.push(carrera);\n\n    //     emit VoterRegisteredEvent(_voterAddress);\n    // }\n\n    // function carreraRegistrada(string memory carrera, address _voterAddress) public view returns (bool){\n    //     for(uint i = 0; i < voters[_voterAddress].carreras.length; ++i){\n    //         if(keccak256(abi.encodePacked(voters[_voterAddress].carreras[i])) == keccak256(abi.encodePacked(carrera))){\n    //             return true;\n    //         }\n    //     }\n    //     return false;\n    // }\n\n    // function registerCandidate(string memory _name, string memory _PartyLib.Party, string memory _degree) public onlyOwner {\n    //     candidates.push(\n    //         Candidate({name: _name, PartyLib.Party: _PartyLib.Party, degree: _degree, voteCount: 0, id: candidates.length})\n    //     );\n\n    //     if (!isPartyLib.PartyRegistered(_PartyLib.Party)) {\n    //         parties.push(_PartyLib.Party);\n    //     }\n\n    //     emit CandidateRegisteredEvent(candidates.length - 1);\n    // }\n\n    // function isPartyLib.PartyRegistered(string memory PartyLib.Party) public view returns (bool) {\n    //     for (uint i = 0; i < parties.length; ++i) {\n    //         if (keccak256(abi.encodePacked(parties[i])) == keccak256(abi.encodePacked(PartyLib.Party))) {\n    //             return true;\n    //         }\n    //     }\n    //     return false;\n    // }\n\n    // function vote(uint256 candidateId)\n    //     public\n    //     onlyRegisteredVoter\n    // {\n    //     require(!voters[msg.sender].hasVoted, \"the caller has already voted\");\n\n    //     voters[msg.sender].hasVoted = true;\n    //     candidates[candidateId].voteCount += 1;\n    //     voterRegistry.push(voters[msg.sender].voterID);\n\n    //     emit VotedEvent(msg.sender, candidateId);\n    // }\n\n    // function getCandidateById(uint256 candidateId)\n    //     public\n    //     view\n    //     returns (\n    //         string memory name,\n    //         string memory PartyLib.Party,\n    //         string memory degree,\n    //         uint256 voteCount,\n    //         uint id\n    //     )\n    // {\n    //     for (uint i = 0; i < candidates.length; ++i) {\n    //         if (candidates[i].id == candidateId) {\n    //             return (candidates[i].name, candidates[i].PartyLib.Party, candidates[i].degree, candidates[i].voteCount, candidates[i].id);\n    //         }\n    //     }\n    // }\n\n    // function getCandidateByName(string memory Sname)\n    //     public\n    //     view\n    //     returns (\n    //         string memory name,\n    //         string memory PartyLib.Party,\n    //         string memory degree,\n    //         uint256 voteCount\n    //     )\n    // {\n    //     for (uint i = 0; i < candidates.length; ++i) {\n    //         if (keccak256(abi.encodePacked(candidates[i].name)) == keccak256(abi.encodePacked(Sname))) {\n    //             return (candidates[i].name, candidates[i].PartyLib.Party, candidates[i].degree, candidates[i].voteCount);\n    //         }\n    //     }\n    // }\n\n    // function getAllCandidates()\n    //     public\n    //     view\n    //     returns (Candidate[] memory)\n    // {\n    //     return candidates;\n    // }\n\n    // function getWinner() public view returns (Result memory) {\n    //     uint256 winnerIndex = 0;\n    //     for (uint256 i = 1; i < candidates.length; ++i) {\n    //         if (candidates[i].voteCount > candidates[winnerIndex].voteCount) {\n    //             winnerIndex = i;\n    //         }\n    //     }\n    //     return Result(candidates[winnerIndex].name, candidates[winnerIndex].voteCount);\n    // }\n\n    // function getTotalVotes() public view returns (uint256) {\n    //     uint256 totalVotes = 0;\n    //     for (uint256 i = 0; i < candidates.length; ++i) {\n    //         totalVotes += candidates[i].voteCount;\n    //     }\n    //     return totalVotes;\n    // }\n\n    // function getPercentage() public view returns (uint256[] memory) {\n    //     uint256 totalVotes = getTotalVotes();\n    //     uint256[] memory percentage = new uint256[](candidates.length);\n    //     for (uint256 i = 0; i < candidates.length; ++i) {\n    //         percentage[i] = ((candidates[i].voteCount * 100) / totalVotes);\n    //     }\n    //     return percentage;\n    // }\n\n    // function getVoterRegistry() public view returns (string[] memory) {\n        \n    //     string[] memory myRegistry = new string[](voterRegistry.length);\n    //     for(uint i = 0; i < voterRegistry.length; ++i){\n    //         myRegistry[i] = voterRegistry[i];\n    //     }\n    //     return myRegistry;\n    // }\n\n    // function getVoterCarreras(address _voterAddress) public view returns (string[] memory) {\n    //     return voters[_voterAddress].carreras;\n    // }\n}",
  "sourcePath": "/Users/abert/Desktop/chainge_voting_dapp/smart_contract/contracts/Election.sol",
  "compiler": {
    "name": "solc",
    "version": "0.8.17+commit.8df45f5f.Emscripten.clang"
  },
  "schemaVersion": "3.4.10",
  "updatedAt": "2022-11-15T18:38:47.210Z",
  "devdoc": {
    "kind": "dev",
    "methods": {},
    "version": 1
  },
  "userdoc": {
    "kind": "user",
    "methods": {},
    "version": 1
  }
}