{
  "contractName": "JuntaDirectivaFCE",
  "abi": [
    {
      "inputs": [
        {
          "internalType": "string",
          "name": "_agrupacion",
          "type": "string"
        },
        {
          "internalType": "string",
          "name": "_siglas",
          "type": "string"
        }
      ],
      "stateMutability": "nonpayable",
      "type": "constructor"
    },
    {
      "inputs": [],
      "name": "agrupacion",
      "outputs": [
        {
          "internalType": "string",
          "name": "",
          "type": "string"
        }
      ],
      "stateMutability": "view",
      "type": "function"
    },
    {
      "inputs": [],
      "name": "seccion",
      "outputs": [
        {
          "internalType": "string",
          "name": "",
          "type": "string"
        }
      ],
      "stateMutability": "view",
      "type": "function"
    },
    {
      "inputs": [],
      "name": "siglas",
      "outputs": [
        {
          "internalType": "string",
          "name": "",
          "type": "string"
        }
      ],
      "stateMutability": "view",
      "type": "function"
    },
    {
      "inputs": [],
      "name": "totalVotes",
      "outputs": [
        {
          "internalType": "uint256",
          "name": "",
          "type": "uint256"
        }
      ],
      "stateMutability": "view",
      "type": "function"
    },
    {
      "inputs": [],
      "name": "vote",
      "outputs": [],
      "stateMutability": "nonpayable",
      "type": "function"
    }
  ],
  "bytecode": "0x60806040526000805534801561001457600080fd5b5060405161054538038061054583398101604081905261003391610147565b818160016100418382610233565b50600261004e8282610233565b505060408051808201909152600f81526e4a756e74612044697265637469766160881b6020820152600391506100849082610233565b5050506102f2565b634e487b7160e01b600052604160045260246000fd5b600082601f8301126100b357600080fd5b81516001600160401b03808211156100cd576100cd61008c565b604051601f8301601f19908116603f011681019082821181831017156100f5576100f561008c565b8160405283815260209250868385880101111561011157600080fd5b600091505b838210156101335785820183015181830184015290820190610116565b600093810190920192909252949350505050565b6000806040838503121561015a57600080fd5b82516001600160401b038082111561017157600080fd5b61017d868387016100a2565b9350602085015191508082111561019357600080fd5b506101a0858286016100a2565b9150509250929050565b600181811c908216806101be57607f821691505b6020821081036101de57634e487b7160e01b600052602260045260246000fd5b50919050565b601f82111561022e57600081815260208120601f850160051c8101602086101561020b5750805b601f850160051c820191505b8181101561022a57828155600101610217565b5050505b505050565b81516001600160401b0381111561024c5761024c61008c565b6102608161025a84546101aa565b846101e4565b602080601f831160018114610295576000841561027d5750858301515b600019600386901b1c1916600185901b17855561022a565b600085815260208120601f198616915b828110156102c4578886015182559484019460019091019084016102a5565b50858210156102e25787850151600019600388901b60f8161c191681555b5050505050600190811b01905550565b610244806103016000396000f3fe608060405234801561001057600080fd5b50600436106100575760003560e01c80630d15fd771461005c57806328d7573514610072578063632a9a5214610087578063675892ad1461009157806388305c2314610099575b600080fd5b6000546040519081526020015b60405180910390f35b61007a6100a1565b604051610069919061015f565b61008f61012f565b005b61007a610145565b61007a610152565b600380546100ae906101ad565b80601f01602080910402602001604051908101604052809291908181526020018280546100da906101ad565b80156101275780601f106100fc57610100808354040283529160200191610127565b820191906000526020600020905b81548152906001019060200180831161010a57829003601f168201915b505050505081565b60008054908061013e836101e7565b9190505550565b600280546100ae906101ad565b600180546100ae906101ad565b600060208083528351808285015260005b8181101561018c57858101830151858201604001528201610170565b506000604082860101526040601f19601f8301168501019250505092915050565b600181811c908216806101c157607f821691505b6020821081036101e157634e487b7160e01b600052602260045260246000fd5b50919050565b60006001820161020757634e487b7160e01b600052601160045260246000fd5b506001019056fea264697066735822122052fce67eec0663e0faa4c7575d7e5c454ca9b62e91f7921f59679c5173bc223464736f6c63430008110033",
  "immutableReferences": {},
  "source": "// SPDX-Licence-Identifier: UNLICENSED\r\npragma solidity ^0.8.0;\r\n\r\ncontract Candidate {\r\n    uint internal voteCount = 0;\r\n\r\n    function vote() public {\r\n        voteCount++;\r\n    }\r\n\r\n    function totalVotes() public view returns (uint) {\r\n        return voteCount;\r\n    }\r\n}\r\n\r\ncontract ConsejoAcademico is Candidate {\r\n    string public name;\r\n    uint public id;\r\n    string public carrera;\r\n\r\n    constructor(string memory _name, uint _id ,string memory _carrera) Candidate() {\r\n        name = _name;\r\n        id = _id;\r\n        carrera = _carrera;\r\n    }\r\n}\r\n\r\ncontract CandidatoFCE is Candidate {\r\n    string public agrupacion;\r\n    string public siglas;\r\n\r\n    constructor(string memory _agrupacion, string memory _siglas) Candidate() {\r\n        agrupacion = _agrupacion;\r\n        siglas = _siglas;\r\n    }\r\n}\r\n\r\ncontract JuntaDirectivaFCE is CandidatoFCE {\r\n    string public seccion;\r\n\r\n    constructor(string memory _agrupacion, string memory _siglas) CandidatoFCE(_agrupacion, _siglas) {\r\n        seccion = \"Junta Directiva\";\r\n    }\r\n}\r\n\r\ncontract CoordinacionFCE is CandidatoFCE {\r\n    string public seccion;\r\n\r\n    constructor(string memory _agrupacion, string memory _siglas) CandidatoFCE(_agrupacion, _siglas) {\r\n        seccion = \"Coordinacion\";\r\n    }\r\n}\r\n\r\n\r\ncontract CentroEstudiantes is Candidate {\r\n    string public nombre;\r\n    string public siglas;\r\n    string public escuela;\r\n\r\n    constructor(string memory _nombre, string memory _siglas, string memory _escuela) Candidate() {\r\n        nombre = _nombre;\r\n        siglas = _siglas;\r\n        escuela = _escuela;\r\n    }\r\n}\r\n\r\ncontract ConsejoEscuela is Candidate {\r\n    string public nombre;\r\n    string public siglas;\r\n    string public escuela;\r\n\r\n    constructor(string memory _nombre, string memory _siglas, string memory _escuela) Candidate() {\r\n        nombre = _nombre;\r\n        siglas = _siglas;\r\n        escuela = _escuela;\r\n    }\r\n}\r\n\r\ncontract ConsejoFacultad is Candidate {\r\n    string public nombre;\r\n    string public siglas;\r\n    string public facultad;\r\n\r\n    constructor(string memory _nombre, string memory _siglas, string memory _facultad) Candidate() {\r\n        nombre = _nombre;\r\n        siglas = _siglas;\r\n        facultad = _facultad;\r\n    }\r\n}\r\n\r\n// contract CandidateList {\r\n//     address public owner;\r\n    \r\n//     mapping (uint => mapping (address => ConsejoAcademico)) public candidatosConsejoAcademico;\r\n//     mapping (string => mapping (address => CandidatoFCE)) public candidatosFCE;\r\n//     mapping (string => mapping (address => CentroEstudiantes)) public candidatosCentroEstudiantes;\r\n//     mapping (string => mapping (address => ConsejoEscuela)) public candidatosConsejoEscuela;\r\n//     mapping (string => mapping (address => ConsejoFacultad)) public candidatosConsejoFacultad;\r\n\r\n//     constructor () {\r\n//         owner = msg.sender;\r\n//     }\r\n//     // address[] public candidatosConsejoAcademicoAccts;\r\n//     // address[] public candidatosFCEAccts;\r\n//     // address[] public candidatosCentroEstudiantesAccts;\r\n//     // address[] public candidatosConsejoEscuelaAccts;\r\n//     // address[] public candidatosConsejoFacultadAccts;\r\n\r\n//     function addCandidateConsejoAcademico(string memory _name, uint _id, string memory _carrera) public {\r\n//         ConsejoAcademico candidate = new ConsejoAcademico(_name, _id, _carrera);\r\n//         candidatosConsejoAcademico[_id][msg.sender] = candidate;\r\n//     }\r\n\r\n//     function addCandidateFCE(string memory _agrupacion, uint _siglas, string memory _seccion) public {\r\n//         CandidatoFCE candidate = new CandidatoFCE(_agrupacion, _siglas);\r\n//         candidatosFCE[_seccion][msg.sender] = candidate;\r\n//     }\r\n\r\n//     function addCandidateCentroEstudiantes(string memory _nombre, string memory _siglas, string memory _escuela) public {\r\n//         CentroEstudiantes candidate = new CentroEstudiantes(_nombre, _siglas, _escuela);\r\n//         candidatosCentroEstudiantes[_escuela][msg.sender] = candidate;\r\n//     }\r\n\r\n//     function addCandidateConsejoEscuela(string memory _nombre, string memory _siglas, string memory _escuela) public {\r\n//         ConsejoEscuela candidate = new ConsejoEscuela(_nombre, _siglas, _escuela);\r\n//         candidatosConsejoEscuela[_escuela][msg.sender] = candidate;\r\n//     }\r\n\r\n//     function addCandidateConsejoFacultad(string memory _nombre, string memory _siglas, string memory _facultad) public {\r\n//         ConsejoFacultad candidate = new ConsejoFacultad(_nombre, _siglas, _facultad);\r\n//         candidatosConsejoFacultad[_facultad][msg.sender] = candidate;\r\n//     }\r\n\r\n// }\r\n\r\n",
  "sourcePath": "D:\\Windows Folders\\Documents\\Uni\\Software\\voting-dapp\\smart_contract\\contracts\\Candidate.sol",
  "compiler": {
    "name": "solc",
    "version": "0.8.17+commit.8df45f5f.Emscripten.clang"
  },
  "schemaVersion": "3.4.10",
  "updatedAt": "2022-11-23T01:31:10.193Z",
  "devdoc": {
    "kind": "dev",
    "methods": {},
    "version": 1
  },
  "userdoc": {
    "kind": "user",
    "methods": {},
    "version": 1
  }
}