{
  "contractName": "ListaVotantes",
  "abi": [
    {
      "inputs": [],
      "stateMutability": "nonpayable",
      "type": "constructor"
    },
    {
      "inputs": [],
      "name": "numeroVotantes",
      "outputs": [
        {
          "internalType": "uint256",
          "name": "",
          "type": "uint256"
        }
      ],
      "stateMutability": "view",
      "type": "function"
    },
    {
      "inputs": [],
      "name": "numeroVotantesRegistroElectoral",
      "outputs": [
        {
          "internalType": "uint256",
          "name": "",
          "type": "uint256"
        }
      ],
      "stateMutability": "view",
      "type": "function"
    },
    {
      "inputs": [
        {
          "internalType": "uint256",
          "name": "",
          "type": "uint256"
        }
      ],
      "name": "votantes",
      "outputs": [
        {
          "internalType": "contract Votante",
          "name": "",
          "type": "address"
        }
      ],
      "stateMutability": "view",
      "type": "function"
    },
    {
      "inputs": [
        {
          "internalType": "uint256",
          "name": "_id",
          "type": "uint256"
        },
        {
          "internalType": "string[]",
          "name": "_carreras",
          "type": "string[]"
        },
        {
          "internalType": "string[]",
          "name": "_facultades",
          "type": "string[]"
        }
      ],
      "name": "addVotante",
      "outputs": [],
      "stateMutability": "nonpayable",
      "type": "function"
    },
    {
      "inputs": [
        {
          "internalType": "uint256",
          "name": "_id",
          "type": "uint256"
        }
      ],
      "name": "getVotante",
      "outputs": [
        {
          "internalType": "contract Votante",
          "name": "",
          "type": "address"
        }
      ],
      "stateMutability": "view",
      "type": "function"
    }
  ],
  "bytecode": "0x60806040523480156200001157600080fd5b5060006001819055506040518061020001604052806040518060400160405280601681526020017f496e67656e69657269612064652053697374656d61730000000000000000000081525081526020016040518060400160405280601881526020017f496e67656e69657269612064652050726f64756363696f6e0000000000000000815250815260200160405180604001604052806012815260200160008051602062001a28833981519152815250815260200160405180604001604052806013815260200172496e67656e6965726961204d6563616e69636160681b81525081526020016040518060400160405280601481526020017f496e67656e696572696120456c6563747269636100000000000000000000000081525081526020016040518060400160405280601081526020016f125b99d95b9a595c9a584810da5d9a5b60821b815250815260200160405180604001604052806012815260200160008051602062001a2883398151915281525081526020016040518060400160405280600e81526020016d20b236b4b734b9ba3930b1b4b7b760911b81525081526020016040518060400160405280600881526020016745636f6e6f6d696160c01b81525081526020016040518060400160405280600a815260200169436f6e7461647572696160b01b81525081526020016040518060400160405280600981526020016822b23ab1b0b1b4b7b760b91b8152508152602001604051806040016040528060078152602001664964696f6d617360c81b81525081526020016040518060400160405280600a815260200169507369636f6c6f67696160b01b8152508152602001604051806040016040528060128152602001714d6174652e20496e647573747269616c657360701b81525081526020016040518060400160405280600e81526020016d4573742e204c69626572616c657360901b8152508152602001604051806040016040528060088152602001674465726563686f7360c01b81525081525060039060106200030a929190620008d9565b50604080518082018252600a815269496e67656e696572696160b01b602082015281517f496e67656e69657269612064652053697374656d6173000000000000000000008152600460168201529151918290036036019091209062000370908262000a55565b50604080518082018252600a815269496e67656e696572696160b01b602082015281517f496e67656e69657269612064652050726f64756363696f6e000000000000000081526004601882015291519182900360380190912090620003d6908262000a55565b50604080518082018252600a815269496e67656e696572696160b01b6020820152815160008051602062001a28833981519152815260046012820152915191829003603201909120906200042b908262000a55565b50604080518082018252600a815269496e67656e696572696160b01b6020820152815172496e67656e6965726961204d6563616e69636160681b8152600460138201529151918290036033019091209062000487908262000a55565b50604080518082018252600a815269496e67656e696572696160b01b602082015281517f496e67656e696572696120456c6563747269636100000000000000000000000081526004601482015291519182900360340190912090620004ed908262000a55565b50604080518082018252600a815269496e67656e696572696160b01b602082015281516f125b99d95b9a595c9a584810da5d9a5b60821b8152600460108201529151918290036030019091209062000546908262000a55565b50604080518082018252600a815269496e67656e696572696160b01b6020820152815160008051602062001a28833981519152815260046012820152915191829003603201909120906200059b908262000a55565b50604080518082018252601e815260008051602062001a08833981519152602082015281516d20b236b4b734b9ba3930b1b4b7b760911b81526004600e820152915191829003602e0190912090620005f4908262000a55565b50604080518082018252601e815260008051602062001a08833981519152602082015281516745636f6e6f6d696160c01b8152600460088201529151918290036028019091209062000647908262000a55565b50604080518082018252601e815260008051602062001a088339815191526020820152815169436f6e7461647572696160b01b81526004600a820152915191829003602a01909120906200069c908262000a55565b50604080518082018252601081526f4369656e63696173207920417274657360801b602082015281516822b23ab1b0b1b4b7b760b91b81526004600982015291519182900360290190912090620006f4908262000a55565b50604080518082018252601081526f4369656e63696173207920417274657360801b60208201528151664964696f6d617360c81b815260046007820152915191829003602701909120906200074a908262000a55565b50604080518082018252601081526f4369656e63696173207920417274657360801b6020820152815169507369636f6c6f67696160b01b81526004600a820152915191829003602a0190912090620007a3908262000a55565b50604080518082018252601081526f4369656e63696173207920417274657360801b60208201528151714d6174652e20496e647573747269616c657360701b8152600460128201529151918290036032019091209062000804908262000a55565b50604080518082018252601e81527f4573747564696f73204a7572696469636f73207920506f6c697469636f730000602082015281516d4573742e204c69626572616c657360901b81526004600e820152915191829003602e01909120906200086e908262000a55565b50604080518082018252601e81527f4573747564696f73204a7572696469636f73207920506f6c697469636f73000060208201528151674465726563686f7360c01b81526004600882015291519182900360280190912090620008d2908262000a55565b5062000b21565b82805482825590600052602060002090810192821562000924579160200282015b8281111562000924578251829062000913908262000a55565b5091602001919060010190620008fa565b506200093292915062000936565b5090565b80821115620009325760006200094d828262000957565b5060010162000936565b5080546200096590620009c6565b6000825580601f1062000976575050565b601f01602090049060005260206000209081019062000996919062000999565b50565b5b808211156200093257600081556001016200099a565b634e487b7160e01b600052604160045260246000fd5b600181811c90821680620009db57607f821691505b602082108103620009fc57634e487b7160e01b600052602260045260246000fd5b50919050565b601f82111562000a5057600081815260208120601f850160051c8101602086101562000a2b5750805b601f850160051c820191505b8181101562000a4c5782815560010162000a37565b5050505b505050565b81516001600160401b0381111562000a715762000a71620009b0565b62000a898162000a828454620009c6565b8462000a02565b602080601f83116001811462000ac1576000841562000aa85750858301515b600019600386901b1c1916600185901b17855562000a4c565b600085815260208120601f198616915b8281101562000af25788860151825594840194600190910190840162000ad1565b508582101562000b115787850151600019600388901b60f8161c191681555b5050505050600190811b01905550565b610ed78062000b316000396000f3fe60806040523480156200001157600080fd5b50600436106200005e5760003560e01c80632681377114620000635780632e03f83814620000805780638e43462e14620000c5578063af1fbeaf14620000f1578063f3731f33146200010a575b600080fd5b6200006d60015481565b6040519081526020015b60405180910390f35b620000ac62000091366004620001a6565b6000602081905290815260409020546001600160a01b031681565b6040516001600160a01b03909116815260200162000077565b620000ac620000d6366004620001a6565b6000908152602081905260409020546001600160a01b031690565b620001086200010236600462000310565b62000114565b005b6200006d60025481565b828282604051620001259062000198565b62000133939291906200040d565b604051809103906000f08015801562000150573d6000803e3d6000fd5b50600084815260208190526040812080546001600160a01b0319166001600160a01b03939093169290921790915560018054916200018e8362000446565b9190505550505050565b610a33806200046f83390190565b600060208284031215620001b957600080fd5b5035919050565b634e487b7160e01b600052604160045260246000fd5b604051601f8201601f1916810167ffffffffffffffff81118282101715620002025762000202620001c0565b604052919050565b6000601f83818401126200021d57600080fd5b8235602067ffffffffffffffff808311156200023d576200023d620001c0565b8260051b6200024e838201620001d6565b93845286810183019383810190898611156200026957600080fd5b84890192505b858310156200030357823584811115620002895760008081fd5b8901603f81018b136200029c5760008081fd5b85810135604086821115620002b557620002b5620001c0565b620002c8828b01601f19168901620001d6565b8281528d82848601011115620002de5760008081fd5b828285018a83013760009281018901929092525083525091840191908401906200026f565b9998505050505050505050565b6000806000606084860312156200032657600080fd5b83359250602084013567ffffffffffffffff808211156200034657600080fd5b62000354878388016200020a565b935060408601359150808211156200036b57600080fd5b506200037a868287016200020a565b9150509250925092565b600081518084526020808501808196508360051b810191508286016000805b86811015620003ff578385038a5282518051808752835b81811015620003d7578281018901518882018a01528801620003ba565b5086810188018490529a87019a601f01601f19169095018601945091850191600101620003a3565b509298975050505050505050565b83815260606020820152600062000428606083018562000384565b82810360408401526200043c818562000384565b9695505050505050565b6000600182016200046757634e487b7160e01b600052601160045260246000fd5b506001019056fe60806040523480156200001157600080fd5b5060405162000a3338038062000a338339810160408190526200003491620002cd565b600083905581516200004e9060019060208501906200008f565b508051620000649060029060208401906200008f565b50506003805466ffffffffffffff19169055505060015460048190556002546005556006556200049c565b828054828255906000526020600020908101928215620000da579160200282015b82811115620000da5782518290620000c99082620003d0565b5091602001919060010190620000b0565b50620000e8929150620000ec565b5090565b80821115620000e85760006200010382826200010d565b50600101620000ec565b5080546200011b9062000341565b6000825580601f106200012c575050565b601f0160209004906000526020600020908101906200014c91906200014f565b50565b5b80821115620000e8576000815560010162000150565b634e487b7160e01b600052604160045260246000fd5b604051601f8201601f191681016001600160401b0381118282101715620001a757620001a762000166565b604052919050565b6000601f8381840112620001c257600080fd5b825160206001600160401b0380831115620001e157620001e162000166565b8260051b620001f28382016200017c565b93845286810183019383810190898611156200020d57600080fd5b84890192505b85831015620002c0578251848111156200022d5760008081fd5b8901603f81018b13620002405760008081fd5b858101518581111562000257576200025762000166565b6200026a818a01601f191688016200017c565b81815260408d81848601011115620002825760008081fd5b60005b83811015620002a2578481018201518382018b0152890162000285565b50506000918101880191909152835250918401919084019062000213565b9998505050505050505050565b600080600060608486031215620002e357600080fd5b835160208501519093506001600160401b03808211156200030357600080fd5b6200031187838801620001af565b935060408601519150808211156200032857600080fd5b506200033786828701620001af565b9150509250925092565b600181811c908216806200035657607f821691505b6020821081036200037757634e487b7160e01b600052602260045260246000fd5b50919050565b601f821115620003cb57600081815260208120601f850160051c81016020861015620003a65750805b601f850160051c820191505b81811015620003c757828155600101620003b2565b5050505b505050565b81516001600160401b03811115620003ec57620003ec62000166565b6200040481620003fd845462000341565b846200037d565b602080601f8311600181146200043c5760008415620004235750858301515b600019600386901b1c1916600185901b178555620003c7565b600085815260208120601f198616915b828110156200046d578886015182559484019460019091019084016200044c565b50858210156200048c5787850151600019600388901b60f8161c191681555b5050505050600190811b01905550565b61058780620004ac6000396000f3fe608060405234801561001057600080fd5b50600436106100885760003560e01c80637da342441161005b5780637da34244146100c257806391a10b01146100ca57806397e8cff9146100d2578063ab9dbd07146100da57600080fd5b8063159e70641461008d5780633174149a146100a857806335fc1ece146100b25780636c6bd0f3146100ba575b600080fd5b60035460405160ff9091161581526020015b60405180910390f35b6100b06100eb565b005b6100b06101bb565b6100b0610260565b6100b0610327565b6100b06103c9565b6100b061048e565b60005460405190815260200161009f565b600354600160281b900460ff161561010257600080fd5b600680549060006101128361052c565b90915550506006546003805465ff000000000019169115600160281b02919091179081905560ff610100909104168015610154575060035462010000900460ff165b801561016957506003546301000000900460ff165b801561017e5750600354600160201b900460ff165b80156101935750600354600160281b900460ff165b80156101a85750600354600160301b900460ff165b6003805460ff1916911515919091179055565b6003546301000000900460ff16156101d257600080fd5b6003805463ff000000191663010000001790819055610100900460ff168015610154575060035462010000900460ff16801561016957506003546301000000900460ff16801561017e5750600354600160201b900460ff1680156101935750600354600160281b900460ff1680156101a857506003805460ff198116600160301b90910460ff161515179055565b600354600160301b900460ff161561027757600080fd5b600580549060006102878361052c565b90915550506005546003805466ff00000000000019169115600160301b02919091179081905560ff610100909104168015610154575060035462010000900460ff16801561016957506003546301000000900460ff16801561017e5750600354600160201b900460ff1680156101935750600354600160281b900460ff1680156101a857506003805460ff198116600160301b90910460ff161515179055565b60035462010000900460ff161561033d57600080fd5b6003805462ff00001916620100001790819055610100900460ff168015610154575060035462010000900460ff16801561016957506003546301000000900460ff16801561017e5750600354600160201b900460ff1680156101935750600354600160281b900460ff1680156101a857506003805460ff198116600160301b90910460ff161515179055565b600354600160201b900460ff16156103e057600080fd5b600480549060006103f08361052c565b90915550506004546003805464ff0000000019169115600160201b02919091179081905560ff610100909104168015610154575060035462010000900460ff16801561016957506003546301000000900460ff16801561017e5750600354600160201b900460ff1680156101935750600354600160281b900460ff1680156101a857506003805460ff198116600160301b90910460ff161515179055565b600354610100900460ff16156104a357600080fd5b6003805461ff00191661010090811791829055900460ff168015610154575060035462010000900460ff16801561016957506003546301000000900460ff16801561017e5750600354600160201b900460ff1680156101935750600354600160281b900460ff1680156101a857506003805460ff198116600160301b90910460ff161515179055565b60008161054957634e487b7160e01b600052601160045260246000fd5b50600019019056fea2646970667358221220a31ec345780ab2e6771e12e5551f15a3b56d103f349cd1e136b27bc410e9f99664736f6c63430008110033a26469706673582212206f5771a3303156351e3789fea3f3f159eb3c1f65f92d37ea5c962716df090a5264736f6c634300081100334369656e636961732045636f6e6f6d69636173207920536f6369616c65730000496e67656e6965726961205175696d6963610000000000000000000000000000",
  "immutableReferences": {},
  "source": "// SPDX-Licence-Identifier: UNLICENSED\npragma solidity ^0.8.0;\nimport \"./Votante.sol\";\nimport \"./StringCompare.sol\";\n\ncontract ListaVotantes {\n    mapping(uint => Votante) public votantes;\n    uint public numeroVotantes;\n    uint public numeroVotantesRegistroElectoral;\n\n    string[] carreras;\n    mapping (string => string) carreraFacultad;\n\n    Votante[] votantesRegistrados;\n    uint[] IDsRegistroElectoral;\n\n    constructor() {\n        numeroVotantes = 0;\n\n        carreras = [\"Ingenieria de Sistemas\", \"Ingenieria de Produccion\", \"Ingenieria Quimica\", \"Ingenieria Mecanica\", \"Ingenieria Electrica\", \"Ingenieria Civil\", \"Ingenieria Quimica\", \"Administracion\", \"Economia\", \"Contaduria\", \"Educacion\", \"Idiomas\", \"Psicologia\", \"Mate. Industriales\", \"Est. Liberales\", \"Derechos\"];\n        \n        carreraFacultad[\"Ingenieria de Sistemas\"] = \"Ingenieria\";\n        carreraFacultad[\"Ingenieria de Produccion\"] = \"Ingenieria\";\n        carreraFacultad[\"Ingenieria Quimica\"] = \"Ingenieria\";\n        carreraFacultad[\"Ingenieria Mecanica\"] = \"Ingenieria\";\n        carreraFacultad[\"Ingenieria Electrica\"] = \"Ingenieria\";\n        carreraFacultad[\"Ingenieria Civil\"] = \"Ingenieria\";\n        carreraFacultad[\"Ingenieria Quimica\"] = \"Ingenieria\";\n        carreraFacultad[\"Administracion\"] = \"Ciencias Economicas y Sociales\";\n        carreraFacultad[\"Economia\"] = \"Ciencias Economicas y Sociales\";\n        carreraFacultad[\"Contaduria\"] = \"Ciencias Economicas y Sociales\";\n        carreraFacultad[\"Educacion\"] = \"Ciencias y Artes\";\n        carreraFacultad[\"Idiomas\"] = \"Ciencias y Artes\";\n        carreraFacultad[\"Psicologia\"] = \"Ciencias y Artes\";\n        carreraFacultad[\"Mate. Industriales\"] = \"Ciencias y Artes\";\n        carreraFacultad[\"Est. Liberales\"] = \"Estudios Juridicos y Politicos\";\n        carreraFacultad[\"Derechos\"] = \"Estudios Juridicos y Politicos\";\n    }\n\n    function addVotante(uint _id, string[] memory _carreras, string[] memory _facultades) public {\n        votantes[_id] = new Votante(_id, _carreras, _facultades);\n        numeroVotantes++;\n    }\n\n    function getVotante(uint _id) public view returns (Votante) {\n        return votantes[_id];\n    }\n\n    function addIDARegistro(uint _id) internal {\n        require(!checkIDRegistrado(_id), \"El ID ya se encuentra registrado\");\n        IDsRegistroElectoral.push(_id);\n        numeroVotantesRegistroElectoral++;\n    }\n\n    function checkIDRegistrado(uint _id) internal view returns (bool) {\n        for (uint i = 0; i < IDsRegistroElectoral.length; i++) {\n            if (IDsRegistroElectoral[i] == _id) {\n                return true;\n            }\n        }\n        return false;\n    }\n\n    function registrarVotante(uint _id, string[] memory _carreras) internal {\n        require(!checkVotanteRegistrado(_id), \"El ID ya se encuentra registrado\");\n        Votante nuevoVotante = new Votante(_id, _carreras, getFacultades(_carreras));\n        votantesRegistrados.push(nuevoVotante);\n        IDsRegistroElectoral.push(_id);\n    }\n\n    function checkVotanteRegistrado(uint _id) internal view returns (bool) {\n        for (uint i = 0; i < votantesRegistrados.length; i++) {\n            if (votantesRegistrados[i].getID() == _id) {\n                return true;\n            }\n        }\n        return false;\n    }\n\n    function registrarVotanteFacultad(uint _id, string[] memory _facultades) internal {\n        require(!checkVotanteRegistrado(_id), \"El ID ya se encuentra registrado\");\n        Votante nuevoVotante = new Votante(_id, new string[](0), _facultades);\n        votantesRegistrados.push(nuevoVotante);\n        IDsRegistroElectoral.push(_id);\n    }\n\n    function getFacultades(string[] memory _carreras) internal view returns (string[] memory) {\n        string memory newFac;\n        string[] memory facultades = new string[](_carreras.length);\n        uint j = 0;\n        for (uint i = 0; i < carreras.length; i++) {\n            newFac = carreraFacultad[carreras[i]];\n            if (!checkFacultadGuardada(newFac, facultades)) {\n                facultades[j] = newFac;\n                j++;\n            }\n        }\n\n        return facultades;\n    }\n\n    function checkFacultadGuardada(string memory _facultad, string[] memory _facultades) internal pure returns (bool) {\n        for (uint i = 0; i < _facultades.length; i++) {\n            if (StringCompare.compare(_facultades[i], _facultad)) {\n                return true;\n            }\n        }\n        return false;\n    }\n}",
  "sourcePath": "/Users/abert/Desktop/chainge_voting_dapp/smart_contract/contracts/ListaVotantes.sol",
  "compiler": {
    "name": "solc",
    "version": "0.8.17+commit.8df45f5f.Emscripten.clang"
  },
  "schemaVersion": "3.4.10",
  "updatedAt": "2022-11-16T12:13:54.552Z",
  "devdoc": {
    "kind": "dev",
    "methods": {},
    "version": 1
  },
  "userdoc": {
    "kind": "user",
    "methods": {},
    "version": 1
  }
}