{
  "contractName": "ListaVotantes",
  "abi": [
    {
      "inputs": [],
      "stateMutability": "nonpayable",
      "type": "constructor"
    },
    {
      "inputs": [],
      "name": "numeroVotantes",
      "outputs": [
        {
          "internalType": "uint256",
          "name": "",
          "type": "uint256"
        }
      ],
      "stateMutability": "view",
      "type": "function"
    },
    {
      "inputs": [],
      "name": "numeroVotantesRegistroElectoral",
      "outputs": [
        {
          "internalType": "uint256",
          "name": "",
          "type": "uint256"
        }
      ],
      "stateMutability": "view",
      "type": "function"
    },
    {
      "inputs": [
        {
          "internalType": "uint256",
          "name": "",
          "type": "uint256"
        }
      ],
      "name": "votantes",
      "outputs": [
        {
          "internalType": "contract Votante",
          "name": "",
          "type": "address"
        }
      ],
      "stateMutability": "view",
      "type": "function"
    },
    {
      "inputs": [
        {
          "internalType": "uint256",
          "name": "_id",
          "type": "uint256"
        }
      ],
      "name": "getVotante",
      "outputs": [
        {
          "internalType": "contract Votante",
          "name": "",
          "type": "address"
        }
      ],
      "stateMutability": "view",
      "type": "function"
    },
    {
      "inputs": [
        {
          "internalType": "uint256",
          "name": "_id",
          "type": "uint256"
        }
      ],
      "name": "addIDARegistro",
      "outputs": [],
      "stateMutability": "nonpayable",
      "type": "function"
    },
    {
      "inputs": [
        {
          "internalType": "uint256",
          "name": "_id",
          "type": "uint256"
        },
        {
          "internalType": "string[]",
          "name": "_carreras",
          "type": "string[]"
        }
      ],
      "name": "registrarVotante",
      "outputs": [],
      "stateMutability": "nonpayable",
      "type": "function"
    }
  ],
  "bytecode": "0x60806040523480156200001157600080fd5b5060006001819055506040518061020001604052806040518060400160405280601681526020017f496e67656e69657269612064652053697374656d61730000000000000000000081525081526020016040518060400160405280601881526020017f496e67656e69657269612064652050726f64756363696f6e0000000000000000815250815260200160405180604001604052806012815260200160008051602062002405833981519152815250815260200160405180604001604052806013815260200172496e67656e6965726961204d6563616e69636160681b81525081526020016040518060400160405280601481526020017f496e67656e696572696120456c6563747269636100000000000000000000000081525081526020016040518060400160405280601081526020016f125b99d95b9a595c9a584810da5d9a5b60821b81525081526020016040518060400160405280601281526020016000805160206200240583398151915281525081526020016040518060400160405280600e81526020016d20b236b4b734b9ba3930b1b4b7b760911b81525081526020016040518060400160405280600881526020016745636f6e6f6d696160c01b81525081526020016040518060400160405280600a815260200169436f6e7461647572696160b01b81525081526020016040518060400160405280600981526020016822b23ab1b0b1b4b7b760b91b8152508152602001604051806040016040528060078152602001664964696f6d617360c81b81525081526020016040518060400160405280600a815260200169507369636f6c6f67696160b01b8152508152602001604051806040016040528060128152602001714d6174652e20496e647573747269616c657360701b81525081526020016040518060400160405280600e81526020016d4573742e204c69626572616c657360901b8152508152602001604051806040016040528060088152602001674465726563686f7360c01b81525081525060039060106200030a929190620008d9565b50604080518082018252600a815269496e67656e696572696160b01b602082015281517f496e67656e69657269612064652053697374656d6173000000000000000000008152600460168201529151918290036036019091209062000370908262000a55565b50604080518082018252600a815269496e67656e696572696160b01b602082015281517f496e67656e69657269612064652050726f64756363696f6e000000000000000081526004601882015291519182900360380190912090620003d6908262000a55565b50604080518082018252600a815269496e67656e696572696160b01b6020820152815160008051602062002405833981519152815260046012820152915191829003603201909120906200042b908262000a55565b50604080518082018252600a815269496e67656e696572696160b01b6020820152815172496e67656e6965726961204d6563616e69636160681b8152600460138201529151918290036033019091209062000487908262000a55565b50604080518082018252600a815269496e67656e696572696160b01b602082015281517f496e67656e696572696120456c6563747269636100000000000000000000000081526004601482015291519182900360340190912090620004ed908262000a55565b50604080518082018252600a815269496e67656e696572696160b01b602082015281516f125b99d95b9a595c9a584810da5d9a5b60821b8152600460108201529151918290036030019091209062000546908262000a55565b50604080518082018252600a815269496e67656e696572696160b01b6020820152815160008051602062002405833981519152815260046012820152915191829003603201909120906200059b908262000a55565b50604080518082018252601e8152600080516020620023e5833981519152602082015281516d20b236b4b734b9ba3930b1b4b7b760911b81526004600e820152915191829003602e0190912090620005f4908262000a55565b50604080518082018252601e8152600080516020620023e5833981519152602082015281516745636f6e6f6d696160c01b8152600460088201529151918290036028019091209062000647908262000a55565b50604080518082018252601e8152600080516020620023e58339815191526020820152815169436f6e7461647572696160b01b81526004600a820152915191829003602a01909120906200069c908262000a55565b50604080518082018252601081526f4369656e63696173207920417274657360801b602082015281516822b23ab1b0b1b4b7b760b91b81526004600982015291519182900360290190912090620006f4908262000a55565b50604080518082018252601081526f4369656e63696173207920417274657360801b60208201528151664964696f6d617360c81b815260046007820152915191829003602701909120906200074a908262000a55565b50604080518082018252601081526f4369656e63696173207920417274657360801b6020820152815169507369636f6c6f67696160b01b81526004600a820152915191829003602a0190912090620007a3908262000a55565b50604080518082018252601081526f4369656e63696173207920417274657360801b60208201528151714d6174652e20496e647573747269616c657360701b8152600460128201529151918290036032019091209062000804908262000a55565b50604080518082018252601e81527f4573747564696f73204a7572696469636f73207920506f6c697469636f730000602082015281516d4573742e204c69626572616c657360901b81526004600e820152915191829003602e01909120906200086e908262000a55565b50604080518082018252601e81527f4573747564696f73204a7572696469636f73207920506f6c697469636f73000060208201528151674465726563686f7360c01b81526004600882015291519182900360280190912090620008d2908262000a55565b5062000b21565b82805482825590600052602060002090810192821562000924579160200282015b8281111562000924578251829062000913908262000a55565b5091602001919060010190620008fa565b506200093292915062000936565b5090565b80821115620009325760006200094d828262000957565b5060010162000936565b5080546200096590620009c6565b6000825580601f1062000976575050565b601f01602090049060005260206000209081019062000996919062000999565b50565b5b808211156200093257600081556001016200099a565b634e487b7160e01b600052604160045260246000fd5b600181811c90821680620009db57607f821691505b602082108103620009fc57634e487b7160e01b600052602260045260246000fd5b50919050565b601f82111562000a5057600081815260208120601f850160051c8101602086101562000a2b5750805b601f850160051c820191505b8181101562000a4c5782815560010162000a37565b5050505b505050565b81516001600160401b0381111562000a715762000a71620009b0565b62000a898162000a828454620009c6565b8462000a02565b602080601f83116001811462000ac1576000841562000aa85750858301515b600019600386901b1c1916600185901b17855562000a4c565b600085815260208120601f198616915b8281101562000af25788860151825594840194600190910190840162000ad1565b508582101562000b115787850151600019600388901b60f8161c191681555b5050505050600190811b01905550565b6118b48062000b316000396000f3fe60806040523480156200001157600080fd5b50600436106200006a5760003560e01c806326813771146200006f5780632e03f838146200008c5780635b45497a14620000d15780638c2ae24b14620000ea5780638e43462e1462000101578063f3731f33146200012d575b600080fd5b6200007960015481565b6040519081526020015b60405180910390f35b620000b86200009d36600462000733565b6000602081905290815260409020546001600160a01b031681565b6040516001600160a01b03909116815260200162000083565b620000e8620000e236600462000797565b62000137565b005b620000e8620000fb36600462000733565b620002ed565b620000b86200011236600462000733565b6000908152602081905260409020546001600160a01b031690565b6200007960025481565b620001428262000393565b15620001955760405162461bcd60e51b815260206004820181905260248201527f456c20494420796120736520656e6375656e747261207265676973747261646f60448201526064015b60405180910390fd5b60008282604051620001a79062000725565b620001b492919062000968565b604051809103906000f080158015620001d1573d6000803e3d6000fd5b509050806001600160a01b0316637f0bd890620001ee846200045b565b6040518263ffffffff1660e01b81526004016200020c91906200098b565b600060405180830381600087803b1580156200022757600080fd5b505af11580156200023c573d6000803e3d6000fd5b505050600084815260208190526040812080546001600160a01b0385166001600160a01b031991821681179092556005805460018181019092557f036b6384b5eca791c62761152d0c79bb0604c104a5fb6f4eb0703f3154bb3db001805490921690921790556006805480830182559083527ff652222313e28459528d920b65115c16c04f3efc82aaedc97be59f3f377c0d3f018690558054925090620002e383620009a7565b9190505550505050565b620002f881620005f8565b15620003475760405162461bcd60e51b815260206004820181905260248201527f456c20494420796120736520656e6375656e747261207265676973747261646f60448201526064016200018c565b6006805460018101825560009182527ff652222313e28459528d920b65115c16c04f3efc82aaedc97be59f3f377c0d3f0182905560028054916200038b83620009a7565b919050555050565b6000805b60055481101562000452578260058281548110620003b957620003b9620009cf565b600091825260209182902001546040805163ab9dbd0760e01b815290516001600160a01b039092169263ab9dbd07926004808401938290030181865afa15801562000408573d6000803e3d6000fd5b505050506040513d601f19601f820116820180604052508101906200042e9190620009e5565b036200043d5750600192915050565b806200044981620009a7565b91505062000397565b50600092915050565b6060806000835167ffffffffffffffff8111156200047d576200047d6200074d565b604051908082528060200260200182016040528015620004b257816020015b60608152602001906001900390816200049c5790505b5090506000805b600354811015620005ee57600460038281548110620004dc57620004dc620009cf565b90600052602060002001604051620004f5919062000a3b565b908152602001604051809103902080546200051090620009ff565b80601f01602080910402602001604051908101604052809291908181526020018280546200053e90620009ff565b80156200058f5780601f1062000563576101008083540402835291602001916200058f565b820191906000526020600020905b8154815290600101906020018083116200057157829003601f168201915b50505050509350620005a284846200064d565b620005d95783838381518110620005bd57620005bd620009cf565b60200260200101819052508180620005d590620009a7565b9250505b80620005e581620009a7565b915050620004b9565b5090949350505050565b6000805b600654811015620004525782600682815481106200061e576200061e620009cf565b906000526020600020015403620006385750600192915050565b806200064481620009a7565b915050620005fc565b6000805b8251811015620006a95762000683838281518110620006745762000674620009cf565b602002602001015185620006b5565b1562000694576001915050620006af565b80620006a081620009a7565b91505062000651565b50600090505b92915050565b60008151835114620006ca57506000620006af565b81604051602001620006dd919062000ae2565b604051602081830303815290604052805190602001208360405160200162000706919062000ae2565b60405160208183030381529060405280519060200120149050620006af565b610d7e8062000b0183390190565b6000602082840312156200074657600080fd5b5035919050565b634e487b7160e01b600052604160045260246000fd5b604051601f8201601f1916810167ffffffffffffffff811182821017156200078f576200078f6200074d565b604052919050565b6000806040808486031215620007ac57600080fd5b8335925060208085013567ffffffffffffffff80821115620007cd57600080fd5b8187019150601f8881840112620007e357600080fd5b823582811115620007f857620007f86200074d565b8060051b6200080986820162000763565b918252848101860191868101908c8411156200082457600080fd5b87870192505b83831015620008bb57823586811115620008445760008081fd5b8701603f81018e13620008575760008081fd5b88810135878111156200086e576200086e6200074d565b62000881818801601f19168b0162000763565b8181528f8c838501011115620008975760008081fd5b818c84018c83013760009181018b019190915283525091870191908701906200082a565b8099505050505050505050509250929050565b60005b83811015620008eb578181015183820152602001620008d1565b50506000910152565b600082825180855260208086019550808260051b84010181860160005b848110156200095b57601f1980878503018a52825180518086526200093c81888801898501620008ce565b9a86019a601f0190911693909301840192509083019060010162000911565b5090979650505050505050565b828152604060208201526000620009836040830184620008f4565b949350505050565b602081526000620009a06020830184620008f4565b9392505050565b600060018201620009c857634e487b7160e01b600052601160045260246000fd5b5060010190565b634e487b7160e01b600052603260045260246000fd5b600060208284031215620009f857600080fd5b5051919050565b600181811c9082168062000a1457607f821691505b60208210810362000a3557634e487b7160e01b600052602260045260246000fd5b50919050565b600080835481600182811c91508083168062000a5857607f831692505b6020808410820362000a7857634e487b7160e01b86526022600452602486fd5b81801562000a8f576001811462000aa55762000ad4565b60ff198616895284151585028901965062000ad4565b60008a81526020902060005b8681101562000acc5781548b82015290850190830162000ab1565b505084890196505b509498975050505050505050565b6000825162000af6818460208701620008ce565b919091019291505056fe60806040523480156200001157600080fd5b5060405162000d7e38038062000d7e833981016040819052620000349162000192565b600082905580516200004e90600190602084019062000072565b50506003805466ffffffffffffff191690555060015460048190556006556200043e565b828054828255906000526020600020908101928215620000bd579160200282015b82811115620000bd5782518290620000ac908262000372565b509160200191906001019062000093565b50620000cb929150620000cf565b5090565b80821115620000cb576000620000e68282620000f0565b50600101620000cf565b508054620000fe90620002e3565b6000825580601f106200010f575050565b601f0160209004906000526020600020908101906200012f919062000132565b50565b5b80821115620000cb576000815560010162000133565b634e487b7160e01b600052604160045260246000fd5b604051601f8201601f191681016001600160401b03811182821017156200018a576200018a62000149565b604052919050565b6000806040808486031215620001a757600080fd5b8351602080860151919450906001600160401b0380821115620001c957600080fd5b8187019150601f8881840112620001df57600080fd5b825182811115620001f457620001f462000149565b8060051b620002058682016200015f565b918252848101860191868101908c8411156200022057600080fd5b87870192505b83831015620002d057825186811115620002405760008081fd5b8701603f81018e13620002535760008081fd5b88810151878111156200026a576200026a62000149565b6200027d818801601f19168b016200015f565b8181528f8c838501011115620002935760008081fd5b60005b82811015620002b3578381018d01518282018d01528b0162000296565b5060009181018b0191909152835250918701919087019062000226565b8099505050505050505050509250929050565b600181811c90821680620002f857607f821691505b6020821081036200031957634e487b7160e01b600052602260045260246000fd5b50919050565b601f8211156200036d57600081815260208120601f850160051c81016020861015620003485750805b601f850160051c820191505b81811015620003695782815560010162000354565b5050505b505050565b81516001600160401b038111156200038e576200038e62000149565b620003a6816200039f8454620002e3565b846200031f565b602080601f831160018114620003de5760008415620003c55750858301515b600019600386901b1c1916600185901b17855562000369565b600085815260208120601f198616915b828110156200040f57888601518255948401946001909101908401620003ee565b50858210156200042e5787850151600019600388901b60f8161c191681555b5050505050600190811b01905550565b610930806200044e6000396000f3fe608060405234801561001057600080fd5b50600436106100935760003560e01c80637da34244116100665780637da34244146100cd5780637f0bd890146100d557806391a10b01146100e857806397e8cff9146100f0578063ab9dbd07146100f857600080fd5b8063159e7064146100985780633174149a146100b357806335fc1ece146100bd5780636c6bd0f3146100c5575b600080fd5b60035460405160ff9091161581526020015b60405180910390f35b6100bb610109565b005b6100bb6101d9565b6100bb61027e565b6100bb610345565b6100bb6100e3366004610673565b6103e7565b6100bb610404565b6100bb6104c9565b6000546040519081526020016100aa565b600354600160281b900460ff161561012057600080fd5b600680549060006101308361078c565b90915550506006546003805465ff000000000019169115600160281b02919091179081905560ff610100909104168015610172575060035462010000900460ff165b801561018757506003546301000000900460ff165b801561019c5750600354600160201b900460ff165b80156101b15750600354600160281b900460ff165b80156101c65750600354600160301b900460ff165b6003805460ff1916911515919091179055565b6003546301000000900460ff16156101f057600080fd5b6003805463ff000000191663010000001790819055610100900460ff168015610172575060035462010000900460ff16801561018757506003546301000000900460ff16801561019c5750600354600160201b900460ff1680156101b15750600354600160281b900460ff1680156101c657506003805460ff198116600160301b90910460ff161515179055565b600354600160301b900460ff161561029557600080fd5b600580549060006102a58361078c565b90915550506005546003805466ff00000000000019169115600160301b02919091179081905560ff610100909104168015610172575060035462010000900460ff16801561018757506003546301000000900460ff16801561019c5750600354600160201b900460ff1680156101b15750600354600160281b900460ff1680156101c657506003805460ff198116600160301b90910460ff161515179055565b60035462010000900460ff161561035b57600080fd5b6003805462ff00001916620100001790819055610100900460ff168015610172575060035462010000900460ff16801561018757506003546301000000900460ff16801561019c5750600354600160201b900460ff1680156101b15750600354600160281b900460ff1680156101c657506003805460ff198116600160301b90910460ff161515179055565b80516103fa906002906020840190610567565b5050600254600555565b600354600160201b900460ff161561041b57600080fd5b6004805490600061042b8361078c565b90915550506004546003805464ff0000000019169115600160201b02919091179081905560ff610100909104168015610172575060035462010000900460ff16801561018757506003546301000000900460ff16801561019c5750600354600160201b900460ff1680156101b15750600354600160281b900460ff1680156101c657506003805460ff198116600160301b90910460ff161515179055565b600354610100900460ff16156104de57600080fd5b6003805461ff00191661010090811791829055900460ff168015610172575060035462010000900460ff16801561018757506003546301000000900460ff16801561019c5750600354600160201b900460ff1680156101b15750600354600160281b900460ff1680156101c657506003805460ff198116600160301b90910460ff161515179055565b8280548282559060005260206000209081019282156105ad579160200282015b828111156105ad578251829061059d908261083a565b5091602001919060010190610587565b506105b99291506105bd565b5090565b808211156105b95760006105d182826105da565b506001016105bd565b5080546105e6906107b1565b6000825580601f106105f6575050565b601f0160209004906000526020600020908101906106149190610617565b50565b5b808211156105b95760008155600101610618565b634e487b7160e01b600052604160045260246000fd5b604051601f8201601f1916810167ffffffffffffffff8111828210171561066b5761066b61062c565b604052919050565b6000602080838503121561068657600080fd5b823567ffffffffffffffff8082111561069e57600080fd5b8185019150601f86818401126106b357600080fd5b8235828111156106c5576106c561062c565b8060051b6106d4868201610642565b918252848101860191868101908a8411156106ee57600080fd5b87870192505b8383101561077e5782358681111561070c5760008081fd5b8701603f81018c1361071e5760008081fd5b888101356040888211156107345761073461062c565b610745828901601f19168c01610642565b8281528e8284860101111561075a5760008081fd5b828285018d83013760009281018c01929092525083525091870191908701906106f4565b9a9950505050505050505050565b6000816107a957634e487b7160e01b600052601160045260246000fd5b506000190190565b600181811c908216806107c557607f821691505b6020821081036107e557634e487b7160e01b600052602260045260246000fd5b50919050565b601f82111561083557600081815260208120601f850160051c810160208610156108125750805b601f850160051c820191505b818110156108315782815560010161081e565b5050505b505050565b815167ffffffffffffffff8111156108545761085461062c565b6108688161086284546107b1565b846107eb565b602080601f83116001811461089d57600084156108855750858301515b600019600386901b1c1916600185901b178555610831565b600085815260208120601f198616915b828110156108cc578886015182559484019460019091019084016108ad565b50858210156108ea5787850151600019600388901b60f8161c191681555b5050505050600190811b0190555056fea26469706673582212205aecb7b0d1b805e951b7a6e00c289462efe749c184ac24aa53ee587489d4bb8164736f6c63430008110033a26469706673582212200d783cca0321e5e37bfc26563981c1cba9d18fb7e7b2bd07d051937e29c4eb2264736f6c634300081100334369656e636961732045636f6e6f6d69636173207920536f6369616c65730000496e67656e6965726961205175696d6963610000000000000000000000000000",
  "immutableReferences": {},
  "source": "// SPDX-Licence-Identifier: UNLICENSED\npragma solidity ^0.8.0;\nimport \"./Votante.sol\";\nimport \"./StringCompare.sol\";\n\ncontract ListaVotantes {\n    mapping(uint => Votante) public votantes;\n    uint public numeroVotantes;\n    uint public numeroVotantesRegistroElectoral;\n\n    string[] carreras;\n    mapping (string => string) carreraFacultad;\n\n    Votante[] votantesRegistrados;\n    uint[] IDsRegistroElectoral;\n\n    constructor() {\n        numeroVotantes = 0;\n\n        carreras = [\"Ingenieria de Sistemas\", \"Ingenieria de Produccion\", \"Ingenieria Quimica\", \"Ingenieria Mecanica\", \"Ingenieria Electrica\", \"Ingenieria Civil\", \"Ingenieria Quimica\", \"Administracion\", \"Economia\", \"Contaduria\", \"Educacion\", \"Idiomas\", \"Psicologia\", \"Mate. Industriales\", \"Est. Liberales\", \"Derechos\"];\n        \n        carreraFacultad[\"Ingenieria de Sistemas\"] = \"Ingenieria\";\n        carreraFacultad[\"Ingenieria de Produccion\"] = \"Ingenieria\";\n        carreraFacultad[\"Ingenieria Quimica\"] = \"Ingenieria\";\n        carreraFacultad[\"Ingenieria Mecanica\"] = \"Ingenieria\";\n        carreraFacultad[\"Ingenieria Electrica\"] = \"Ingenieria\";\n        carreraFacultad[\"Ingenieria Civil\"] = \"Ingenieria\";\n        carreraFacultad[\"Ingenieria Quimica\"] = \"Ingenieria\";\n        carreraFacultad[\"Administracion\"] = \"Ciencias Economicas y Sociales\";\n        carreraFacultad[\"Economia\"] = \"Ciencias Economicas y Sociales\";\n        carreraFacultad[\"Contaduria\"] = \"Ciencias Economicas y Sociales\";\n        carreraFacultad[\"Educacion\"] = \"Ciencias y Artes\";\n        carreraFacultad[\"Idiomas\"] = \"Ciencias y Artes\";\n        carreraFacultad[\"Psicologia\"] = \"Ciencias y Artes\";\n        carreraFacultad[\"Mate. Industriales\"] = \"Ciencias y Artes\";\n        carreraFacultad[\"Est. Liberales\"] = \"Estudios Juridicos y Politicos\";\n        carreraFacultad[\"Derechos\"] = \"Estudios Juridicos y Politicos\";\n    }\n\n\n    function getVotante(uint _id) public view returns (Votante) {\n        return votantes[_id];\n    }\n\n    function addIDARegistro(uint _id) public {\n        require(!checkIDRegistrado(_id), \"El ID ya se encuentra registrado\");\n        IDsRegistroElectoral.push(_id);\n        numeroVotantesRegistroElectoral++;\n    }\n\n    function checkIDRegistrado(uint _id) internal view returns (bool) {\n        for (uint i = 0; i < IDsRegistroElectoral.length; i++) {\n            if (IDsRegistroElectoral[i] == _id) {\n                return true;\n            }\n        }\n        return false;\n    }\n\n    function registrarVotante(uint _id, string[] memory _carreras) external {\n        require(!checkVotanteRegistrado(_id), \"El ID ya se encuentra registrado\");\n        Votante nuevoVotante = new Votante(_id, _carreras);\n        nuevoVotante.addFacultades(getFacultades(_carreras));\n        votantes[_id] = nuevoVotante;\n        votantesRegistrados.push(nuevoVotante);\n        IDsRegistroElectoral.push(_id);\n        numeroVotantes++;\n    }\n\n    function checkVotanteRegistrado(uint _id) internal view returns (bool) {\n        for (uint i = 0; i < votantesRegistrados.length; i++) {\n            if (votantesRegistrados[i].getID() == _id) {\n                return true;\n            }\n        }\n        return false;\n    }\n\n    // function registrarVotanteFacultad(uint _id, string[] memory _facultades) internal {\n    //     require(!checkVotanteRegistrado(_id), \"El ID ya se encuentra registrado\");\n    //     Votante nuevoVotante = new Votante(_id, new string[](0), _facultades);\n    //     votantesRegistrados.push(nuevoVotante);\n    //     IDsRegistroElectoral.push(_id);\n    // }\n\n    function getFacultades(string[] memory _carreras) internal view returns (string[] memory) {\n        string memory newFac;\n        string[] memory facultades = new string[](_carreras.length);\n        uint j = 0;\n        for (uint i = 0; i < carreras.length; i++) {\n            newFac = carreraFacultad[carreras[i]];\n            if (!checkFacultadGuardada(newFac, facultades)) {\n                facultades[j] = newFac;\n                j++;\n            }\n        }\n\n        return facultades;\n    }\n\n    function checkFacultadGuardada(string memory _facultad, string[] memory _facultades) internal pure returns (bool) {\n        for (uint i = 0; i < _facultades.length; i++) {\n            if (StringCompare.compare(_facultades[i], _facultad)) {\n                return true;\n            }\n        }\n        return false;\n    }\n}",
  "sourcePath": "/Users/abert/Desktop/chainge_voting_dapp/smart_contract/contracts/ListaVotantes.sol",
  "compiler": {
    "name": "solc",
    "version": "0.8.17+commit.8df45f5f.Emscripten.clang"
  },
  "schemaVersion": "3.4.10",
  "updatedAt": "2022-11-16T16:44:50.461Z",
  "devdoc": {
    "kind": "dev",
    "methods": {},
    "version": 1
  },
  "userdoc": {
    "kind": "user",
    "methods": {},
    "version": 1
  }
}