{
  "contractName": "Party",
  "abi": [
    {
      "inputs": [
        {
          "internalType": "string",
          "name": "_name",
          "type": "string"
        },
        {
          "internalType": "string",
          "name": "_siglas",
          "type": "string"
        }
      ],
      "stateMutability": "nonpayable",
      "type": "constructor"
    },
    {
      "inputs": [
        {
          "internalType": "uint256",
          "name": "",
          "type": "uint256"
        }
      ],
      "name": "centroEstudiantes",
      "outputs": [
        {
          "internalType": "string",
          "name": "",
          "type": "string"
        }
      ],
      "stateMutability": "view",
      "type": "function"
    },
    {
      "inputs": [
        {
          "internalType": "uint256",
          "name": "",
          "type": "uint256"
        }
      ],
      "name": "consejosEsc",
      "outputs": [
        {
          "internalType": "string",
          "name": "",
          "type": "string"
        }
      ],
      "stateMutability": "view",
      "type": "function"
    },
    {
      "inputs": [
        {
          "internalType": "uint256",
          "name": "",
          "type": "uint256"
        }
      ],
      "name": "consejosFac",
      "outputs": [
        {
          "internalType": "string",
          "name": "",
          "type": "string"
        }
      ],
      "stateMutability": "view",
      "type": "function"
    },
    {
      "inputs": [],
      "name": "coordinacion",
      "outputs": [
        {
          "internalType": "bool",
          "name": "",
          "type": "bool"
        }
      ],
      "stateMutability": "view",
      "type": "function"
    },
    {
      "inputs": [],
      "name": "juntaDirectiva",
      "outputs": [
        {
          "internalType": "bool",
          "name": "",
          "type": "bool"
        }
      ],
      "stateMutability": "view",
      "type": "function"
    },
    {
      "inputs": [],
      "name": "name",
      "outputs": [
        {
          "internalType": "string",
          "name": "",
          "type": "string"
        }
      ],
      "stateMutability": "view",
      "type": "function"
    },
    {
      "inputs": [],
      "name": "owner",
      "outputs": [
        {
          "internalType": "address",
          "name": "",
          "type": "address"
        }
      ],
      "stateMutability": "view",
      "type": "function"
    },
    {
      "inputs": [],
      "name": "siglas",
      "outputs": [
        {
          "internalType": "string",
          "name": "",
          "type": "string"
        }
      ],
      "stateMutability": "view",
      "type": "function"
    },
    {
      "inputs": [
        {
          "internalType": "string",
          "name": "_escuela",
          "type": "string"
        }
      ],
      "name": "checkInEscuela",
      "outputs": [
        {
          "internalType": "bool",
          "name": "",
          "type": "bool"
        }
      ],
      "stateMutability": "view",
      "type": "function"
    },
    {
      "inputs": [
        {
          "internalType": "string",
          "name": "_facultad",
          "type": "string"
        }
      ],
      "name": "checkInFacultad",
      "outputs": [
        {
          "internalType": "bool",
          "name": "",
          "type": "bool"
        }
      ],
      "stateMutability": "view",
      "type": "function"
    },
    {
      "inputs": [
        {
          "internalType": "string",
          "name": "_seccion",
          "type": "string"
        }
      ],
      "name": "checkInSeccionFCE",
      "outputs": [
        {
          "internalType": "bool",
          "name": "",
          "type": "bool"
        }
      ],
      "stateMutability": "view",
      "type": "function"
    },
    {
      "inputs": [
        {
          "internalType": "string",
          "name": "_facultad",
          "type": "string"
        }
      ],
      "name": "addConsejoFacultad",
      "outputs": [],
      "stateMutability": "nonpayable",
      "type": "function"
    },
    {
      "inputs": [
        {
          "internalType": "string",
          "name": "_escuela",
          "type": "string"
        }
      ],
      "name": "addConsejoEscuela",
      "outputs": [],
      "stateMutability": "nonpayable",
      "type": "function"
    },
    {
      "inputs": [
        {
          "internalType": "string",
          "name": "_escuela",
          "type": "string"
        }
      ],
      "name": "addCentroEstudiantes",
      "outputs": [],
      "stateMutability": "nonpayable",
      "type": "function"
    },
    {
      "inputs": [],
      "name": "addJuntaDirectivaFCE",
      "outputs": [],
      "stateMutability": "nonpayable",
      "type": "function"
    },
    {
      "inputs": [],
      "name": "addCoordinacionFCE",
      "outputs": [],
      "stateMutability": "nonpayable",
      "type": "function"
    },
    {
      "inputs": [
        {
          "internalType": "string",
          "name": "_consejo",
          "type": "string"
        }
      ],
      "name": "checkIfConsejoFacultad",
      "outputs": [
        {
          "internalType": "bool",
          "name": "",
          "type": "bool"
        }
      ],
      "stateMutability": "view",
      "type": "function"
    },
    {
      "inputs": [
        {
          "internalType": "string",
          "name": "_consejo",
          "type": "string"
        }
      ],
      "name": "checkIfConsejoEscuela",
      "outputs": [
        {
          "internalType": "bool",
          "name": "",
          "type": "bool"
        }
      ],
      "stateMutability": "view",
      "type": "function"
    },
    {
      "inputs": [
        {
          "internalType": "string",
          "name": "_centro",
          "type": "string"
        }
      ],
      "name": "checkIfCentroEstudiantes",
      "outputs": [
        {
          "internalType": "bool",
          "name": "",
          "type": "bool"
        }
      ],
      "stateMutability": "view",
      "type": "function"
    },
    {
      "inputs": [],
      "name": "checkIfJuntaDirectivaFCE",
      "outputs": [
        {
          "internalType": "bool",
          "name": "",
          "type": "bool"
        }
      ],
      "stateMutability": "view",
      "type": "function"
    },
    {
      "inputs": [],
      "name": "checkIfCoordinacionFCE",
      "outputs": [
        {
          "internalType": "bool",
          "name": "",
          "type": "bool"
        }
      ],
      "stateMutability": "view",
      "type": "function"
    },
    {
      "inputs": [],
      "name": "getConsejoFacultad",
      "outputs": [
        {
          "internalType": "string[]",
          "name": "",
          "type": "string[]"
        }
      ],
      "stateMutability": "view",
      "type": "function"
    },
    {
      "inputs": [],
      "name": "getParticipatingSections",
      "outputs": [
        {
          "internalType": "string[]",
          "name": "",
          "type": "string[]"
        }
      ],
      "stateMutability": "view",
      "type": "function"
    },
    {
      "inputs": [],
      "name": "listoEdicion",
      "outputs": [],
      "stateMutability": "nonpayable",
      "type": "function"
    },
    {
      "inputs": [],
      "name": "activarEdicion",
      "outputs": [],
      "stateMutability": "nonpayable",
      "type": "function"
    },
    {
      "inputs": [],
      "name": "comenzarEleccion",
      "outputs": [],
      "stateMutability": "nonpayable",
      "type": "function"
    }
  ],
  "bytecode": "0x6006805463ffff000019169055600c6102608181526b496e672e205175696d69636160a01b61028052608090815260106102a09081526f496e672e2064652053697374656d617360801b6102c05260a052600a6102e081815269125b99cb8810da5d9a5b60b21b6103005260c052600d6103209081526c496e672e204d6563616e69636160981b6103405260e05260126103608181527124b7339710323290283937b23ab1b1b4b7b760711b6103805261010052600e6103a08181526d496e672e20456c6563747269636160901b6103c052610120526103e08181526d20b236b4b734b9ba3930b1b4b7b760911b610400526101405261042092835269436f6e7461647572696160b01b610440526101609290925260086104609081526745636f6e6f6d696160c01b610480526101805260096104a09081526822b23ab1b0b1b4b7b760b91b6104c0526101a05260076104e0818152664964696f6d617360c81b610500526101c0526105209485526b507369636f6c6f6c6f67696160a01b610540526101e094909452610560908152714d6174652e20496e647573747269616c657360701b61058052610200526105a09081526d4573742e204c69626572616c657360901b6105c052610220526106206040526105e0828152664465726563686f60c81b6106005261024052620001fa9190600f6200039f565b506040805160c081018252600a6080820190815269496e67656e696572696160b01b60a0830152815281518083018352601e8082527f4369656e636961732045636f6e6f6d69636173207920536f6369616c657300006020838101919091528084019290925283518085018552601081526f4369656e63696173207920417274657360801b8184015283850152835180850190945283527f4573747564696f73204a7572696469636f73207920506f6c697469636f730000908301526060810191909152620002ce906008906004620003fc565b5060408051608081018252600f8183019081526e4a756e74612044697265637469766160881b606083015281528151808301909252600c82526b21b7b7b93234b730b1b4b7b760a11b6020838101919091528101919091526200033690600990600262000447565b503480156200034457600080fd5b506040516200218d3803806200218d8339810160408190526200036791620005d1565b6000620003758382620006ca565b506001620003848282620006ca565b5050600280546001600160a01b031916331790555062000796565b828054828255906000526020600020908101928215620003ea579160200282015b82811115620003ea5782518290620003d99082620006ca565b5091602001919060010190620003c0565b50620003f892915062000492565b5090565b828054828255906000526020600020908101928215620003ea579160200282015b82811115620003ea5782518290620004369082620006ca565b50916020019190600101906200041d565b828054828255906000526020600020908101928215620003ea579160200282015b82811115620003ea5782518290620004819082620006ca565b509160200191906001019062000468565b80821115620003f8576000620004a98282620004b3565b5060010162000492565b508054620004c1906200063b565b6000825580601f10620004d2575050565b601f016020900490600052602060002090810190620004f29190620004f5565b50565b5b80821115620003f85760008155600101620004f6565b634e487b7160e01b600052604160045260246000fd5b600082601f8301126200053457600080fd5b81516001600160401b03808211156200055157620005516200050c565b604051601f8301601f19908116603f011681019082821181831017156200057c576200057c6200050c565b816040528381526020925086838588010111156200059957600080fd5b600091505b83821015620005bd57858201830151818301840152908201906200059e565b600093810190920192909252949350505050565b60008060408385031215620005e557600080fd5b82516001600160401b0380821115620005fd57600080fd5b6200060b8683870162000522565b935060208501519150808211156200062257600080fd5b50620006318582860162000522565b9150509250929050565b600181811c908216806200065057607f821691505b6020821081036200067157634e487b7160e01b600052602260045260246000fd5b50919050565b601f821115620006c557600081815260208120601f850160051c81016020861015620006a05750805b601f850160051c820191505b81811015620006c157828155600101620006ac565b5050505b505050565b81516001600160401b03811115620006e657620006e66200050c565b620006fe81620006f784546200063b565b8462000677565b602080601f8311600181146200073657600084156200071d5750858301515b600019600386901b1c1916600185901b178555620006c1565b600085815260208120601f198616915b82811015620007675788860151825594840194600190910190840162000746565b5085821015620007865787850151600019600388901b60f8161c191681555b5050505050600190811b01905550565b6119e780620007a66000396000f3fe608060405234801561001057600080fd5b506004361061018e5760003560e01c80636fd85d17116100de5780638da5cb5b11610097578063a849252c11610071578063a849252c14610310578063cdc6caff14610323578063e37967af14610336578063f069fd001461034957600080fd5b80638da5cb5b146102ca5780638fdc8bc4146102f5578063a0ae0df51461030857600080fd5b80636fd85d1714610272578063705338cc1461027a57806370bb0b061461028757806370dc139b1461029a578063850e6850146102ad57806387e646ee146102b557600080fd5b806341b880841161014b5780635376516e116101255780635376516e1461024f57806366af01b814610257578063675892ad146102625780636f770e911461026a57600080fd5b806341b88084146102165780634340b278146102295780634d4e66101461023c57600080fd5b806306fdde031461019357806308842af9146101b1578063270d1f85146101d45780632bd96b8a146101e757806338c8c557146101f9578063414b6ace14610203575b600080fd5b61019b610359565b6040516101a891906113f8565b60405180910390f35b6101c46101bf366004611428565b6103e7565b60405190151581526020016101a8565b61019b6101e23660046114d9565b610488565b6006546101c490610100900460ff1681565b6102016104b3565b005b6101c4610211366004611428565b610525565b6101c4610224366004611428565b6105bd565b610201610237366004611428565b610655565b6101c461024a366004611428565b6107b5565b61020161084d565b60065460ff166101c4565b61019b6108dd565b6102016108ea565b6102016109d0565b6006546101c49060ff1681565b61019b6102953660046114d9565b610aaf565b6101c46102a8366004611428565b610abf565b610201610b57565b6102bd610c0a565b6040516101a891906114f2565b6002546102dd906001600160a01b031681565b6040516001600160a01b0390911681526020016101a8565b610201610303366004611428565b610f74565b6102bd6110cf565b61019b61031e3660046114d9565b6111a5565b610201610331366004611428565b6111b5565b6101c4610344366004611428565b611310565b600654610100900460ff166101c4565b6000805461036690611554565b80601f016020809104026020016040519081016040528092919081815260200182805461039290611554565b80156103df5780601f106103b4576101008083540402835291602001916103df565b820191906000526020600020905b8154815290600101906020018083116103c257829003601f168201915b505050505081565b6000805b60035481101561047f57826040516020016104069190611588565b604051602081830303815290604052805190602001206003828154811061042f5761042f6115a4565b90600052602060002001604051602001610449919061162d565b604051602081830303815290604052805190602001200361046d5750600192915050565b806104778161164f565b9150506103eb565b50600092915050565b6004818154811061049857600080fd5b90600052602060002001600091509050805461036690611554565b6006546301000000900460ff16156104e65760405162461bcd60e51b81526004016104dd90611668565b60405180910390fd5b6002546001600160a01b031633146105105760405162461bcd60e51b81526004016104dd9061169f565b6006805463ff00000019166301000000179055565b6000805b60045481101561047f57826040516020016105449190611588565b604051602081830303815290604052805190602001206004828154811061056d5761056d6115a4565b90600052602060002001604051602001610587919061162d565b60405160208183030381529060405280519060200120036105ab5750600192915050565b806105b58161164f565b915050610529565b6000805b60075481101561047f57826040516020016105dc9190611588565b6040516020818303038152906040528051906020012060078281548110610605576106056115a4565b9060005260206000200160405160200161061f919061162d565b60405160208183030381529060405280519060200120036106435750600192915050565b8061064d8161164f565b9150506105c1565b60065462010000900460ff161561067e5760405162461bcd60e51b81526004016104dd906116f2565b6006546301000000900460ff16156106a85760405162461bcd60e51b81526004016104dd90611735565b6002546001600160a01b031633146106d25760405162461bcd60e51b81526004016104dd9061178b565b6106db81611310565b61071f5760405162461bcd60e51b81526020600482015260156024820152744c6120666163756c746164206e6f2065786973746560581b60448201526064016104dd565b610728816103e7565b156107755760405162461bcd60e51b815260206004820152601f60248201527f4c6120666163756c746164207961206573746120656e206c61206c697374610060448201526064016104dd565b600380546001810182556000919091527fc2575a0e9e593c00f959f8c92f12db2869c3395a3b0502d05e2516446f71f85b016107b1828261182c565b5050565b6000805b60095481101561047f57826040516020016107d49190611588565b60405160208183030381529060405280519060200120600982815481106107fd576107fd6115a4565b90600052602060002001604051602001610817919061162d565b604051602081830303815290604052805190602001200361083b5750600192915050565b806108458161164f565b9150506107b9565b6006546301000000900460ff16156108775760405162461bcd60e51b81526004016104dd90611668565b60065462010000900460ff16156108a05760405162461bcd60e51b81526004016104dd906116f2565b6002546001600160a01b031633146108ca5760405162461bcd60e51b81526004016104dd9061169f565b6006805462ff0000191662010000179055565b6001805461036690611554565b60065462010000900460ff16156109135760405162461bcd60e51b81526004016104dd906116f2565b6006546301000000900460ff161561093d5760405162461bcd60e51b81526004016104dd90611735565b6002546001600160a01b031633146109675760405162461bcd60e51b81526004016104dd9061178b565b600654610100900460ff16156109bf5760405162461bcd60e51b815260206004820152601e60248201527f4c612073656363696f6e207961206573746120656e206c61206c69737461000060448201526064016104dd565b6006805461ff001916610100179055565b60065462010000900460ff16156109f95760405162461bcd60e51b81526004016104dd906116f2565b6006546301000000900460ff1615610a235760405162461bcd60e51b81526004016104dd90611735565b6002546001600160a01b03163314610a4d5760405162461bcd60e51b81526004016104dd9061178b565b60065460ff1615610aa05760405162461bcd60e51b815260206004820152601e60248201527f4c612073656363696f6e207961206573746120656e206c61206c69737461000060448201526064016104dd565b6006805460ff19166001179055565b6003818154811061049857600080fd5b6000805b60055481101561047f5782604051602001610ade9190611588565b6040516020818303038152906040528051906020012060058281548110610b0757610b076115a4565b90600052602060002001604051602001610b21919061162d565b6040516020818303038152906040528051906020012003610b455750600192915050565b80610b4f8161164f565b915050610ac3565b6006546301000000900460ff1615610b815760405162461bcd60e51b81526004016104dd90611668565b60065462010000900460ff16610bd25760405162461bcd60e51b81526020600482015260166024820152754c612065646963696f6e20657374612061637469766160501b60448201526064016104dd565b6002546001600160a01b03163314610bfc5760405162461bcd60e51b81526004016104dd9061169f565b6006805462ff000019169055565b60065460609062010000900460ff16610c715760405162461bcd60e51b8152602060048201526024808201527f446562652063756c6d696e6172206c612065646963696f6e2064656c207061726044820152637469646f60e01b60648201526084016104dd565b60055460045460035460009291610c87916118ec565b610c9191906118ec565b610c9c9060026118ec565b67ffffffffffffffff811115610cb457610cb4611412565b604051908082528060200260200182016040528015610ce757816020015b6060815260200190600190039081610cd25790505b50905060005b600354811015610d635760038181548110610d0a57610d0a6115a4565b90600052602060002001604051602001610d249190611905565b604051602081830303815290604052828281518110610d4557610d456115a4565b60200260200101819052508080610d5b9061164f565b915050610ced565b5060005b600454811015610deb5760048181548110610d8457610d846115a4565b90600052602060002001604051602001610d9e919061192e565b60408051601f198184030181529190526003548390610dbd90846118ec565b81518110610dcd57610dcd6115a4565b60200260200101819052508080610de39061164f565b915050610d67565b5060005b600554811015610e815760058181548110610e0c57610e0c6115a4565b90600052602060002001604051602001610e269190611956565b60408051601f19818403018152919052600454600354849190610e4990856118ec565b610e5391906118ec565b81518110610e6357610e636115a4565b60200260200101819052508080610e799061164f565b915050610def565b5060065460ff1615610ef2576040805180820190915260138152724a756e7461204469726563746976612046434560681b6020820152600554600454600354849291610ecc916118ec565b610ed691906118ec565b81518110610ee657610ee66115a4565b60200260200101819052505b600654610100900460ff1615610f6f5760408051808201909152601081526f436f6f7264696e6163696f6e2046434560801b6020820152600554600454600354849291610f3e916118ec565b610f4891906118ec565b610f539060016118ec565b81518110610f6357610f636115a4565b60200260200101819052505b919050565b60065462010000900460ff1615610f9d5760405162461bcd60e51b81526004016104dd906116f2565b6006546301000000900460ff1615610fc75760405162461bcd60e51b81526004016104dd90611735565b6002546001600160a01b03163314610ff15760405162461bcd60e51b81526004016104dd9061178b565b610ffa816105bd565b61103d5760405162461bcd60e51b81526020600482015260146024820152734c612065736375656c61206e6f2065786973746560601b60448201526064016104dd565b61104681610525565b156110935760405162461bcd60e51b815260206004820152601e60248201527f4c612065736375656c61207961206573746120656e206c61206c69737461000060448201526064016104dd565b600480546001810182556000919091527f8a35acfbc15ff81a39ae7d344fd709f28e8600b4aa8c65c6b64bfe7fe36bd19b016107b1828261182c565b60085460609060009067ffffffffffffffff8111156110f0576110f0611412565b60405190808252806020026020018201604052801561112357816020015b606081526020019060019003908161110e5790505b50905060005b60085481101561119f5760088181548110611146576111466115a4565b906000526020600020016040516020016111609190611988565b604051602081830303815290604052828281518110611181576111816115a4565b602002602001018190525080806111979061164f565b915050611129565b50919050565b6005818154811061049857600080fd5b60065462010000900460ff16156111de5760405162461bcd60e51b81526004016104dd906116f2565b6006546301000000900460ff16156112085760405162461bcd60e51b81526004016104dd90611735565b6002546001600160a01b031633146112325760405162461bcd60e51b81526004016104dd9061178b565b61123b816105bd565b61127e5760405162461bcd60e51b81526020600482015260146024820152734c612065736375656c61206e6f2065786973746560601b60448201526064016104dd565b61128781610abf565b156112d45760405162461bcd60e51b815260206004820152601e60248201527f4c612065736375656c61207961206573746120656e206c61206c69737461000060448201526064016104dd565b600580546001810182556000919091527f036b6384b5eca791c62761152d0c79bb0604c104a5fb6f4eb0703f3154bb3db0016107b1828261182c565b6000805b60085481101561047f578260405160200161132f9190611588565b6040516020818303038152906040528051906020012060088281548110611358576113586115a4565b90600052602060002001604051602001611372919061162d565b60405160208183030381529060405280519060200120036113965750600192915050565b806113a08161164f565b915050611314565b60005b838110156113c35781810151838201526020016113ab565b50506000910152565b600081518084526113e48160208601602086016113a8565b601f01601f19169290920160200192915050565b60208152600061140b60208301846113cc565b9392505050565b634e487b7160e01b600052604160045260246000fd5b60006020828403121561143a57600080fd5b813567ffffffffffffffff8082111561145257600080fd5b818401915084601f83011261146657600080fd5b81358181111561147857611478611412565b604051601f8201601f19908116603f011681019083821181831017156114a0576114a0611412565b816040528281528760208487010111156114b957600080fd5b826020860160208301376000928101602001929092525095945050505050565b6000602082840312156114eb57600080fd5b5035919050565b6000602080830181845280855180835260408601915060408160051b870101925083870160005b8281101561154757603f198886030184526115358583516113cc565b94509285019290850190600101611519565b5092979650505050505050565b600181811c9082168061156857607f821691505b60208210810361119f57634e487b7160e01b600052602260045260246000fd5b6000825161159a8184602087016113a8565b9190910192915050565b634e487b7160e01b600052603260045260246000fd5b600081546115c781611554565b600182811680156115df57600181146115f457611623565b60ff1984168752821515830287019450611623565b8560005260208060002060005b8581101561161a5781548a820152908401908201611601565b50505082870194505b5050505092915050565b600061140b82846115ba565b634e487b7160e01b600052601160045260246000fd5b60006001820161166157611661611639565b5060010190565b6020808252601d908201527f4c6120656c656363696f6e207961206573746120636f727269656e646f000000604082015260600190565b60208082526033908201527f536f6c6f20656c206475656e6f206465206c61206375656e746120707565646560408201527220616772656761722063616e64696461746f7360681b606082015260800190565b60208082526023908201527f446562652061637469766172206c612065646963696f6e2064656c207061727460408201526269646f60e81b606082015260800190565b60208082526036908201527f4e6f2073652070756564652065646974617220656c207061727469646f206d69604082015275656e74726173207365206573746120766f74616e646f60501b606082015260800190565b60208082526032908201527f536f6c6f20656c206475656e6f206465206c61206375656e746120707565646560408201527120616772656761722073656363696f6e657360701b606082015260800190565b601f82111561182757600081815260208120601f850160051c810160208610156118045750805b601f850160051c820191505b8181101561182357828155600101611810565b5050505b505050565b815167ffffffffffffffff81111561184657611846611412565b61185a816118548454611554565b846117dd565b602080601f83116001811461188f57600084156118775750858301515b600019600386901b1c1916600185901b178555611823565b600085815260208120601f198616915b828110156118be5788860151825594840194600190910190840161189f565b50858210156118dc5787850151600019600388901b60f8161c191681555b5050505050600190811b01905550565b808201808211156118ff576118ff611639565b92915050565b73021b7b739b2b537902330b1bab63a30b2103232960651b8152600061140b60148301846115ba565b72021b7b739b2b5379022b9b1bab2b6309032329606d1b8152600061140b60138301846115ba565b7f43656e74726f20646520457374756469616e74657320646520000000000000008152600061140b60198301846115ba565b73021b7b739b2b537903232902330b1bab63a30b2160651b8152600061140b60148301846115ba56fea2646970667358221220f3e59918cde7a85ede1e0961d44da45dff6e0af460d933fa440204b05cbb3ff964736f6c63430008110033",
  "immutableReferences": {},
  "source": "// SPDX-License-Identifier: UNLICENSED\npragma solidity ^0.8.0;\n\ncontract Party {\n    // Election details\n\n    string public name;\n    string public siglas;\n\n    address public owner;\n\n    string[] public consejosFac;\n    string[] public consejosEsc;\n    string[] public centroEstudiantes;\n    bool public juntaDirectiva;\n    bool public coordinacion;\n    // bool public consejoAcademico;\n\n    bool internal finished = false;\n    bool internal electionRunning = false;\n\n    // Candidate public consejeroAcademico;\n\n    constructor(string memory _name, string memory _siglas) {\n        name = _name;\n        siglas = _siglas;\n        owner = msg.sender;\n    }\n\n    // struct Candidate {\n    //     string name;\n    //     uint id;\n    //     string degree;\n    // }\n\n    string[] private escuelas = [\n        \"Ing. Quimica\",\n        \"Ing. de Sistemas\",\n        \"Ing. Civil\",\n        \"Ing. Mecanica\",\n        \"Ing. de Produccion\",\n        \"Ing. Electrica\",\n        \"Administracion\",\n        \"Contaduria\",\n        \"Economia\",\n        \"Educacion\",\n        \"Idiomas\",\n        \"Psicolologia\",\n        \"Mate. Industriales\",\n        \"Est. Liberales\",\n        \"Derecho\"\n    ];\n\n    string[] private facultades = [\n        \"Ingenieria\",\n        \"Ciencias Economicas y Sociales\",\n        \"Ciencias y Artes\",\n        \"Estudios Juridicos y Politicos\"\n    ];\n\n    string[] private seccionesFCE = [\n        \"Junta Directiva\",\n        \"Coordinacion\"\n    ];\n\n    function checkInEscuela(string memory _escuela) public view returns (bool) {\n        for (uint i = 0; i < escuelas.length; i++) {\n            if (keccak256(abi.encodePacked(escuelas[i])) == keccak256(abi.encodePacked(_escuela))) {\n                return true;\n            }\n        }\n        return false;\n    }\n\n    function checkInFacultad(string memory _facultad) public view returns (bool) {\n        for (uint i = 0; i < facultades.length; i++) {\n            if (keccak256(abi.encodePacked(facultades[i])) == keccak256(abi.encodePacked(_facultad))) {\n                return true;\n            }\n        }\n        return false;\n    }\n\n    function checkInSeccionFCE(string memory _seccion) public view returns (bool) {\n        for (uint i = 0; i < seccionesFCE.length; i++) {\n            if (keccak256(abi.encodePacked(seccionesFCE[i])) == keccak256(abi.encodePacked(_seccion))) {\n                return true;\n            }\n        }\n        return false;\n    }\n\n    function addConsejoFacultad(string memory _facultad) public {\n        require(!finished, \"Debe activar la edicion del partido\");\n        require(!electionRunning, \"No se puede editar el partido mientras se esta votando\");\n        require(msg.sender == owner, \"Solo el dueno de la cuenta puede agregar secciones\");\n        require(checkInFacultad(_facultad), \"La facultad no existe\");\n        require(!checkIfConsejoFacultad(_facultad), \"La facultad ya esta en la lista\");\n        consejosFac.push(_facultad);\n    }\n\n    function addConsejoEscuela(string memory _escuela) public {\n        require(!finished, \"Debe activar la edicion del partido\");\n        require(!electionRunning, \"No se puede editar el partido mientras se esta votando\");\n        require(msg.sender == owner, \"Solo el dueno de la cuenta puede agregar secciones\");\n        require(checkInEscuela(_escuela), \"La escuela no existe\");\n        require(!checkIfConsejoEscuela(_escuela), \"La escuela ya esta en la lista\");\n        consejosEsc.push(_escuela);\n    }\n\n    function addCentroEstudiantes(string memory _escuela) public {\n        require(!finished, \"Debe activar la edicion del partido\");\n        require(!electionRunning, \"No se puede editar el partido mientras se esta votando\");\n        require(msg.sender == owner, \"Solo el dueno de la cuenta puede agregar secciones\");\n        require(checkInEscuela(_escuela), \"La escuela no existe\");\n        require(!checkIfCentroEstudiantes(_escuela), \"La escuela ya esta en la lista\");\n        centroEstudiantes.push(_escuela);\n    }\n\n    function addJuntaDirectivaFCE() public {\n        require(!finished, \"Debe activar la edicion del partido\");\n        require(!electionRunning, \"No se puede editar el partido mientras se esta votando\");\n        require(msg.sender == owner, \"Solo el dueno de la cuenta puede agregar secciones\");\n        require(!juntaDirectiva, \"La seccion ya esta en la lista\");\n        juntaDirectiva = true;\n    }\n\n    function addCoordinacionFCE() public {\n        require(!finished, \"Debe activar la edicion del partido\");\n        require(!electionRunning, \"No se puede editar el partido mientras se esta votando\");\n        require(msg.sender == owner, \"Solo el dueno de la cuenta puede agregar secciones\");\n        require(!coordinacion, \"La seccion ya esta en la lista\");\n        coordinacion = true;\n    }\n    \n    // function addConsejeroAcademico(string memory _name, uint _id, string memory _degree) public {\n    //     require(!finished, \"Debe activar la edicion del partido\");\n    //     require(!electionRunning, \"No se puede editar el partido mientras se esta votando\");\n    //     require(!consejoAcademico, \"Ya hay un consejero academico\");\n    //     require(_id > 0, \"El ID debe ser mayor a 0\");\n    //     require(msg.sender == owner, \"Solo el dueno de la cuenta puede agregar candidatos\");\n    //     Candidate memory newCandidate = Candidate(_name, _id, _degree);\n    //     require(checkRegisteredCandidate(newCandidate), \"El candidato ya esta registrado\");\n    //     consejeroAcademico = newCandidate;\n    //     consejoAcademico = true;\n    // }\n\n    // function checkRegisteredCandidate(Candidate memory _candidate) public view returns (bool) {\n    //     if (consejeroAcademico.id == _candidate.id) {\n    //         return false;\n    //     }\n    //     if (consejeroAcademicoAux.id == _candidate.id) {\n    //         return false;\n    //     }\n    //     return true;\n    // }\n\n    // function checkCandidateExists() public view returns (bool) {\n    //     if (consejeroAcademico.id == 0) {\n    //         return false;\n    //     }\n    //     return true;\n    // }\n\n    // function getConsejeroAcademico() public view returns (Candidate memory) {\n    //     return consejeroAcademico;\n    // }\n\n\n    function checkIfConsejoFacultad(string memory _consejo) public view returns (bool) {\n        for (uint i = 0; i < consejosFac.length; i++) {\n            if (keccak256(abi.encodePacked(consejosFac[i])) == keccak256(abi.encodePacked(_consejo))) {\n                return true;\n            }\n        }\n        return false;\n    }\n\n    function checkIfConsejoEscuela(string memory _consejo) public view returns (bool) {\n        for (uint i = 0; i < consejosEsc.length; i++) {\n            if (keccak256(abi.encodePacked(consejosEsc[i])) == keccak256(abi.encodePacked(_consejo))) {\n                return true;\n            }\n        }\n        return false;\n    }\n\n    function checkIfCentroEstudiantes(string memory _centro) public view returns (bool) {\n        for (uint i = 0; i < centroEstudiantes.length; i++) {\n            if (keccak256(abi.encodePacked(centroEstudiantes[i])) == keccak256(abi.encodePacked(_centro))) {\n                return true;\n            }\n        }\n        return false;\n    }\n\n    function checkIfJuntaDirectivaFCE() public view returns (bool) {\n        return juntaDirectiva;\n    }\n\n    function checkIfCoordinacionFCE() public view returns (bool) {\n        return coordinacion;\n    }\n\n    function getConsejoFacultad() public view returns (string[] memory) {\n        string[] memory consejoFacultad = new string[](facultades.length);\n        for (uint i = 0; i < facultades.length; i++) {\n            consejoFacultad[i] = string.concat(\"Consejo de Facultad \", facultades[i]);\n        }\n        return consejoFacultad;\n    }\n\n    function getParticipatingSections() public view returns (string[] memory) {\n        require(finished, \"Debe culminar la edicion del partido\");\n        string[] memory sections = new string[](consejosFac.length + consejosEsc.length + centroEstudiantes.length + 2);\n        for (uint i = 0; i < consejosFac.length; i++) {\n            sections[i] = string.concat(\"Consejo Facultad de \", consejosFac[i]);\n        }\n        for (uint i = 0; i < consejosEsc.length; i++) {\n            sections[i + consejosFac.length] = string.concat(\"Consejo Escuela de \", consejosEsc[i]);\n        }\n        for (uint i = 0; i < centroEstudiantes.length; i++) {\n            sections[i + consejosFac.length + consejosEsc.length] = string.concat(\"Centro de Estudiantes de \", centroEstudiantes[i]);\n        }\n        if (juntaDirectiva) {\n            sections[consejosFac.length + consejosEsc.length + centroEstudiantes.length] = \"Junta Directiva FCE\";\n        }\n        if (coordinacion) {\n            sections[consejosFac.length + consejosEsc.length + centroEstudiantes.length + 1] = \"Coordinacion FCE\";\n        }\n        return sections;\n    }\n\n    // Hay que correr esto para terminar la edicion del partido y poder jalar las vainas para no poder editar mid eleccion\n    function listoEdicion() public {\n        require(!electionRunning, \"La eleccion ya esta corriendo\");\n        require(!finished, \"Debe activar la edicion del partido\");\n        require(msg.sender == owner, \"Solo el dueno de la cuenta puede agregar candidatos\");\n        finished = true;\n    }\n\n    function activarEdicion() public {\n        require(!electionRunning, \"La eleccion ya esta corriendo\");\n        require(finished, \"La edicion esta activa\");\n        require(msg.sender == owner, \"Solo el dueno de la cuenta puede agregar candidatos\");\n        finished = false;\n    }\n\n    function comenzarEleccion() public {\n        require(!electionRunning, \"La eleccion ya esta corriendo\");\n        require(msg.sender == owner, \"Solo el dueno de la cuenta puede agregar candidatos\");\n        electionRunning = true;\n    }\n\n}",
  "sourcePath": "/Users/abert/Desktop/chainge_voting_dapp/smart_contract/contracts/Party.sol",
  "compiler": {
    "name": "solc",
    "version": "0.8.17+commit.8df45f5f.Emscripten.clang"
  },
  "schemaVersion": "3.4.10",
  "updatedAt": "2022-11-16T12:13:54.556Z",
  "devdoc": {
    "kind": "dev",
    "methods": {},
    "version": 1
  },
  "userdoc": {
    "kind": "user",
    "methods": {},
    "version": 1
  }
}