{
  "contractName": "Votante",
  "abi": [
    {
      "inputs": [
        {
          "internalType": "uint256",
          "name": "_id",
          "type": "uint256"
        },
        {
          "internalType": "string[]",
          "name": "_carreras",
          "type": "string[]"
        },
        {
          "internalType": "string[]",
          "name": "_facultades",
          "type": "string[]"
        }
      ],
      "stateMutability": "nonpayable",
      "type": "constructor"
    },
    {
      "inputs": [],
      "name": "getID",
      "outputs": [
        {
          "internalType": "uint256",
          "name": "",
          "type": "uint256"
        }
      ],
      "stateMutability": "view",
      "type": "function"
    },
    {
      "inputs": [],
      "name": "votarConsejoAcademico",
      "outputs": [],
      "stateMutability": "nonpayable",
      "type": "function"
    },
    {
      "inputs": [],
      "name": "votarJuntaDirectivaFCE",
      "outputs": [],
      "stateMutability": "nonpayable",
      "type": "function"
    },
    {
      "inputs": [],
      "name": "votarCoordinacionFCE",
      "outputs": [],
      "stateMutability": "nonpayable",
      "type": "function"
    },
    {
      "inputs": [],
      "name": "votarCentroEstudiantes",
      "outputs": [],
      "stateMutability": "nonpayable",
      "type": "function"
    },
    {
      "inputs": [],
      "name": "votarConsejoEscuela",
      "outputs": [],
      "stateMutability": "nonpayable",
      "type": "function"
    },
    {
      "inputs": [],
      "name": "votarConsejoFacultad",
      "outputs": [],
      "stateMutability": "nonpayable",
      "type": "function"
    },
    {
      "inputs": [],
      "name": "canVote",
      "outputs": [
        {
          "internalType": "bool",
          "name": "",
          "type": "bool"
        }
      ],
      "stateMutability": "view",
      "type": "function"
    }
  ],
  "bytecode": "0x60806040523480156200001157600080fd5b5060405162000a3338038062000a338339810160408190526200003491620002cd565b600083905581516200004e9060019060208501906200008f565b508051620000649060029060208401906200008f565b50506003805466ffffffffffffff19169055505060015460048190556002546005556006556200049c565b828054828255906000526020600020908101928215620000da579160200282015b82811115620000da5782518290620000c99082620003d0565b5091602001919060010190620000b0565b50620000e8929150620000ec565b5090565b80821115620000e85760006200010382826200010d565b50600101620000ec565b5080546200011b9062000341565b6000825580601f106200012c575050565b601f0160209004906000526020600020908101906200014c91906200014f565b50565b5b80821115620000e8576000815560010162000150565b634e487b7160e01b600052604160045260246000fd5b604051601f8201601f191681016001600160401b0381118282101715620001a757620001a762000166565b604052919050565b6000601f8381840112620001c257600080fd5b825160206001600160401b0380831115620001e157620001e162000166565b8260051b620001f28382016200017c565b93845286810183019383810190898611156200020d57600080fd5b84890192505b85831015620002c0578251848111156200022d5760008081fd5b8901603f81018b13620002405760008081fd5b858101518581111562000257576200025762000166565b6200026a818a01601f191688016200017c565b81815260408d81848601011115620002825760008081fd5b60005b83811015620002a2578481018201518382018b0152890162000285565b50506000918101880191909152835250918401919084019062000213565b9998505050505050505050565b600080600060608486031215620002e357600080fd5b835160208501519093506001600160401b03808211156200030357600080fd5b6200031187838801620001af565b935060408601519150808211156200032857600080fd5b506200033786828701620001af565b9150509250925092565b600181811c908216806200035657607f821691505b6020821081036200037757634e487b7160e01b600052602260045260246000fd5b50919050565b601f821115620003cb57600081815260208120601f850160051c81016020861015620003a65750805b601f850160051c820191505b81811015620003c757828155600101620003b2565b5050505b505050565b81516001600160401b03811115620003ec57620003ec62000166565b6200040481620003fd845462000341565b846200037d565b602080601f8311600181146200043c5760008415620004235750858301515b600019600386901b1c1916600185901b178555620003c7565b600085815260208120601f198616915b828110156200046d578886015182559484019460019091019084016200044c565b50858210156200048c5787850151600019600388901b60f8161c191681555b5050505050600190811b01905550565b61058780620004ac6000396000f3fe608060405234801561001057600080fd5b50600436106100885760003560e01c80637da342441161005b5780637da34244146100c257806391a10b01146100ca57806397e8cff9146100d2578063ab9dbd07146100da57600080fd5b8063159e70641461008d5780633174149a146100a857806335fc1ece146100b25780636c6bd0f3146100ba575b600080fd5b60035460405160ff9091161581526020015b60405180910390f35b6100b06100eb565b005b6100b06101bb565b6100b0610260565b6100b0610327565b6100b06103c9565b6100b061048e565b60005460405190815260200161009f565b600354600160281b900460ff161561010257600080fd5b600680549060006101128361052c565b90915550506006546003805465ff000000000019169115600160281b02919091179081905560ff610100909104168015610154575060035462010000900460ff165b801561016957506003546301000000900460ff165b801561017e5750600354600160201b900460ff165b80156101935750600354600160281b900460ff165b80156101a85750600354600160301b900460ff165b6003805460ff1916911515919091179055565b6003546301000000900460ff16156101d257600080fd5b6003805463ff000000191663010000001790819055610100900460ff168015610154575060035462010000900460ff16801561016957506003546301000000900460ff16801561017e5750600354600160201b900460ff1680156101935750600354600160281b900460ff1680156101a857506003805460ff198116600160301b90910460ff161515179055565b600354600160301b900460ff161561027757600080fd5b600580549060006102878361052c565b90915550506005546003805466ff00000000000019169115600160301b02919091179081905560ff610100909104168015610154575060035462010000900460ff16801561016957506003546301000000900460ff16801561017e5750600354600160201b900460ff1680156101935750600354600160281b900460ff1680156101a857506003805460ff198116600160301b90910460ff161515179055565b60035462010000900460ff161561033d57600080fd5b6003805462ff00001916620100001790819055610100900460ff168015610154575060035462010000900460ff16801561016957506003546301000000900460ff16801561017e5750600354600160201b900460ff1680156101935750600354600160281b900460ff1680156101a857506003805460ff198116600160301b90910460ff161515179055565b600354600160201b900460ff16156103e057600080fd5b600480549060006103f08361052c565b90915550506004546003805464ff0000000019169115600160201b02919091179081905560ff610100909104168015610154575060035462010000900460ff16801561016957506003546301000000900460ff16801561017e5750600354600160201b900460ff1680156101935750600354600160281b900460ff1680156101a857506003805460ff198116600160301b90910460ff161515179055565b600354610100900460ff16156104a357600080fd5b6003805461ff00191661010090811791829055900460ff168015610154575060035462010000900460ff16801561016957506003546301000000900460ff16801561017e5750600354600160201b900460ff1680156101935750600354600160281b900460ff1680156101a857506003805460ff198116600160301b90910460ff161515179055565b60008161054957634e487b7160e01b600052601160045260246000fd5b50600019019056fea2646970667358221220a31ec345780ab2e6771e12e5551f15a3b56d103f349cd1e136b27bc410e9f99664736f6c63430008110033",
  "immutableReferences": {},
  "source": "// SPDX-Licence-Identifier: UNLICENSED\npragma solidity ^0.8.0;\n\ncontract Votante {\n    uint studentId;\n    string[] carreras;\n    string[] facultades;\n    bool voted;\n    bool votedConsejoAcademico;\n    bool votedJuntaDirectivaFCE;\n    bool votedCoordinacionFCE;\n    bool votedCentroEstudiantes;\n    bool votedConsejoEscuela;\n    bool votedConsejoFacultad;\n    uint numeroVotosCentroEst;\n    uint numeroVotosCF;\n    uint numeroVotosCE;\n\n    constructor (uint _id, string[] memory _carreras, string[] memory _facultades) {\n        studentId = _id;\n        carreras = _carreras;\n        facultades = _facultades;\n        voted = false;\n        votedConsejoAcademico = false;\n        votedJuntaDirectivaFCE = false;\n        votedCoordinacionFCE = false;\n        votedCentroEstudiantes = false;\n        votedConsejoEscuela = false;\n        votedConsejoFacultad = false;\n        numeroVotosCentroEst = carreras.length;\n        numeroVotosCF = facultades.length;\n        numeroVotosCE = carreras.length;\n    }\n\n    function getID() public view returns (uint) {\n        return studentId;\n    }\n\n    function votarConsejoAcademico() public {\n        require(!votedConsejoAcademico);\n        votedConsejoAcademico = true;\n        voted = votedConsejoAcademico && votedJuntaDirectivaFCE && votedCoordinacionFCE && votedCentroEstudiantes && votedConsejoEscuela && votedConsejoFacultad;\n    }\n\n    function votarJuntaDirectivaFCE() public {\n        require(!votedJuntaDirectivaFCE);\n        votedJuntaDirectivaFCE = true;\n        voted = votedConsejoAcademico && votedJuntaDirectivaFCE && votedCoordinacionFCE && votedCentroEstudiantes && votedConsejoEscuela && votedConsejoFacultad;\n    }\n\n    function votarCoordinacionFCE() public {\n        require(!votedCoordinacionFCE);\n        votedCoordinacionFCE = true;\n        voted = votedConsejoAcademico && votedJuntaDirectivaFCE && votedCoordinacionFCE && votedCentroEstudiantes && votedConsejoEscuela && votedConsejoFacultad;\n    }\n\n    function votarCentroEstudiantes() public {\n        require(!votedCentroEstudiantes);\n        numeroVotosCentroEst--;\n        votedCentroEstudiantes = numeroVotosCentroEst == 0;\n        voted = votedConsejoAcademico && votedJuntaDirectivaFCE && votedCoordinacionFCE && votedCentroEstudiantes && votedConsejoEscuela && votedConsejoFacultad;\n    }\n\n    function votarConsejoEscuela() public {\n        require(!votedConsejoEscuela);\n        numeroVotosCE--;\n        votedConsejoEscuela = numeroVotosCE == 0;\n        voted = votedConsejoAcademico && votedJuntaDirectivaFCE && votedCoordinacionFCE && votedCentroEstudiantes && votedConsejoEscuela && votedConsejoFacultad;\n    }\n\n    function votarConsejoFacultad() public {\n        require(!votedConsejoFacultad);\n        numeroVotosCF--;\n        votedConsejoFacultad = numeroVotosCF == 0;\n        voted = votedConsejoAcademico && votedJuntaDirectivaFCE && votedCoordinacionFCE && votedCentroEstudiantes && votedConsejoEscuela && votedConsejoFacultad;\n    }\n\n    function canVote() public view returns (bool) {\n        return !voted;\n    }\n}",
  "sourcePath": "/Users/abert/Desktop/chainge_voting_dapp/smart_contract/contracts/Votante.sol",
  "compiler": {
    "name": "solc",
    "version": "0.8.17+commit.8df45f5f.Emscripten.clang"
  },
  "schemaVersion": "3.4.10",
  "updatedAt": "2022-11-16T12:13:54.563Z",
  "devdoc": {
    "kind": "dev",
    "methods": {},
    "version": 1
  },
  "userdoc": {
    "kind": "user",
    "methods": {},
    "version": 1
  }
}