{
  "contractName": "Votante",
  "abi": [
    {
      "inputs": [
        {
          "internalType": "uint256",
          "name": "_id",
          "type": "uint256"
        },
        {
          "internalType": "string[]",
          "name": "_carreras",
          "type": "string[]"
        },
        {
          "internalType": "string[]",
          "name": "_facultades",
          "type": "string[]"
        }
      ],
      "stateMutability": "nonpayable",
      "type": "constructor"
    },
    {
      "inputs": [],
      "name": "getID",
      "outputs": [
        {
          "internalType": "uint256",
          "name": "",
          "type": "uint256"
        }
      ],
      "stateMutability": "view",
      "type": "function"
    },
    {
      "inputs": [],
      "name": "getCarreras",
      "outputs": [
        {
          "internalType": "string[]",
          "name": "",
          "type": "string[]"
        }
      ],
      "stateMutability": "view",
      "type": "function"
    },
    {
      "inputs": [],
      "name": "getFacultades",
      "outputs": [
        {
          "internalType": "string[]",
          "name": "",
          "type": "string[]"
        }
      ],
      "stateMutability": "view",
      "type": "function"
    },
    {
      "inputs": [],
      "name": "getVoted",
      "outputs": [
        {
          "internalType": "bool",
          "name": "",
          "type": "bool"
        }
      ],
      "stateMutability": "view",
      "type": "function"
    },
    {
      "inputs": [],
      "name": "getVotedConsejoAcademico",
      "outputs": [
        {
          "internalType": "bool",
          "name": "",
          "type": "bool"
        }
      ],
      "stateMutability": "view",
      "type": "function"
    },
    {
      "inputs": [],
      "name": "getVotedJuntaDirectivaFCE",
      "outputs": [
        {
          "internalType": "bool",
          "name": "",
          "type": "bool"
        }
      ],
      "stateMutability": "view",
      "type": "function"
    },
    {
      "inputs": [],
      "name": "getVotedCoordinacionFCE",
      "outputs": [
        {
          "internalType": "bool",
          "name": "",
          "type": "bool"
        }
      ],
      "stateMutability": "view",
      "type": "function"
    },
    {
      "inputs": [],
      "name": "getVotedCentroEstudiantes",
      "outputs": [
        {
          "internalType": "bool",
          "name": "",
          "type": "bool"
        }
      ],
      "stateMutability": "view",
      "type": "function"
    },
    {
      "inputs": [],
      "name": "getVotedConsejoEscuela",
      "outputs": [
        {
          "internalType": "bool",
          "name": "",
          "type": "bool"
        }
      ],
      "stateMutability": "view",
      "type": "function"
    },
    {
      "inputs": [],
      "name": "getVotedConsejoFacultad",
      "outputs": [
        {
          "internalType": "bool",
          "name": "",
          "type": "bool"
        }
      ],
      "stateMutability": "view",
      "type": "function"
    },
    {
      "inputs": [],
      "name": "getNumeroVotosCentroEst",
      "outputs": [
        {
          "internalType": "uint256",
          "name": "",
          "type": "uint256"
        }
      ],
      "stateMutability": "view",
      "type": "function"
    },
    {
      "inputs": [],
      "name": "getNumeroVotosCF",
      "outputs": [
        {
          "internalType": "uint256",
          "name": "",
          "type": "uint256"
        }
      ],
      "stateMutability": "view",
      "type": "function"
    },
    {
      "inputs": [],
      "name": "getNumeroVotosCE",
      "outputs": [
        {
          "internalType": "uint256",
          "name": "",
          "type": "uint256"
        }
      ],
      "stateMutability": "view",
      "type": "function"
    },
    {
      "inputs": [],
      "name": "votarConsejoAcademico",
      "outputs": [],
      "stateMutability": "nonpayable",
      "type": "function"
    },
    {
      "inputs": [],
      "name": "votarJuntaDirectivaFCE",
      "outputs": [],
      "stateMutability": "nonpayable",
      "type": "function"
    },
    {
      "inputs": [],
      "name": "votarCoordinacionFCE",
      "outputs": [],
      "stateMutability": "nonpayable",
      "type": "function"
    },
    {
      "inputs": [],
      "name": "votarCentroEstudiantes",
      "outputs": [],
      "stateMutability": "nonpayable",
      "type": "function"
    },
    {
      "inputs": [],
      "name": "votarConsejoEscuela",
      "outputs": [],
      "stateMutability": "nonpayable",
      "type": "function"
    },
    {
      "inputs": [],
      "name": "votarConsejoFacultad",
      "outputs": [],
      "stateMutability": "nonpayable",
      "type": "function"
    },
    {
      "inputs": [],
      "name": "canVote",
      "outputs": [
        {
          "internalType": "bool",
          "name": "",
          "type": "bool"
        }
      ],
      "stateMutability": "view",
      "type": "function"
    }
  ],
  "bytecode": "0x60806040523480156200001157600080fd5b5060405162000b9f38038062000b9f8339810160408190526200003491620002cd565b600083905581516200004e9060019060208501906200008f565b508051620000649060029060208401906200008f565b50506003805466ffffffffffffff19169055505060015460048190556006556002546005556200049c565b828054828255906000526020600020908101928215620000da579160200282015b82811115620000da5782518290620000c99082620003d0565b5091602001919060010190620000b0565b50620000e8929150620000ec565b5090565b80821115620000e85760006200010382826200010d565b50600101620000ec565b5080546200011b9062000341565b6000825580601f106200012c575050565b601f0160209004906000526020600020908101906200014c91906200014f565b50565b5b80821115620000e8576000815560010162000150565b634e487b7160e01b600052604160045260246000fd5b604051601f8201601f191681016001600160401b0381118282101715620001a757620001a762000166565b604052919050565b6000601f8381840112620001c257600080fd5b825160206001600160401b0380831115620001e157620001e162000166565b8260051b620001f28382016200017c565b93845286810183019383810190898611156200020d57600080fd5b84890192505b85831015620002c0578251848111156200022d5760008081fd5b8901603f81018b13620002405760008081fd5b858101518581111562000257576200025762000166565b6200026a818a01601f191688016200017c565b81815260408d81848601011115620002825760008081fd5b60005b83811015620002a2578481018201518382018b0152890162000285565b50506000918101880191909152835250918401919084019062000213565b9998505050505050505050565b600080600060608486031215620002e357600080fd5b835160208501519093506001600160401b03808211156200030357600080fd5b6200031187838801620001af565b935060408601519150808211156200032857600080fd5b506200033786828701620001af565b9150509250925092565b600181811c908216806200035657607f821691505b6020821081036200037757634e487b7160e01b600052602260045260246000fd5b50919050565b601f821115620003cb57600081815260208120601f850160051c81016020861015620003a65750805b601f850160051c820191505b81811015620003c757828155600101620003b2565b5050505b505050565b81516001600160401b03811115620003ec57620003ec62000166565b6200040481620003fd845462000341565b846200037d565b602080601f8311600181146200043c5760008415620004235750858301515b600019600386901b1c1916600185901b178555620003c7565b600085815260208120601f198616915b828110156200046d578886015182559484019460019091019084016200044c565b50858210156200048c5787850151600019600388901b60f8161c191681555b5050505050600190811b01905550565b6106f380620004ac6000396000f3fe608060405234801561001057600080fd5b506004361061012c5760003560e01c80636c6bd0f3116100ad578063a69799fc11610071578063a69799fc14610209578063ab9dbd0714610211578063bcd75c5314610219578063ec58caf814610221578063f79f21101461022957600080fd5b80636c6bd0f3146101d75780637da34244146101df57806391a10b01146101e757806391b14753146101ef57806397e8cff91461020157600080fd5b8063476abce6116100f4578063476abce6146101835780634a51ede3146101965780635ac952f2146101ab57806361a69587146101bd57806364debb8f146101c557600080fd5b8063159e7064146101315780632b4af7a31461014e5780633174149a1461016057806335fc1ece1461016a57806344cd1b2114610172575b600080fd5b60035460ff16155b60405190151581526020015b60405180910390f35b6003546301000000900460ff16610139565b610168610239565b005b610168610285565b60035462010000900460ff16610139565b600354640100000000900460ff16610139565b61019e6102b1565b60405161014591906105cc565b600354600160301b900460ff16610139565b61019e61038a565b600354600160281b900460ff16610139565b61016861045a565b6101686104a7565b6101686104d0565b6004545b604051908152602001610145565b61016861051d565b610139610543565b6000546101f3565b6005546101f3565b6006546101f3565b600354610100900460ff16610139565b600354600160281b900460ff161561025057600080fd5b600680549060006102608361065e565b90915550506006546003805465ff000000000019169115600160281b02919091179055565b6003546301000000900460ff161561029c57600080fd5b6003805463ff00000019166301000000179055565b60606002805480602002602001604051908101604052809291908181526020016000905b828210156103815783829060005260206000200180546102f490610683565b80601f016020809104026020016040519081016040528092919081815260200182805461032090610683565b801561036d5780601f106103425761010080835404028352916020019161036d565b820191906000526020600020905b81548152906001019060200180831161035057829003601f168201915b5050505050815260200190600101906102d5565b50505050905090565b60606001805480602002602001604051908101604052809291908181526020016000905b828210156103815783829060005260206000200180546103cd90610683565b80601f01602080910402602001604051908101604052809291908181526020018280546103f990610683565b80156104465780601f1061041b57610100808354040283529160200191610446565b820191906000526020600020905b81548152906001019060200180831161042957829003601f168201915b5050505050815260200190600101906103ae565b600354600160301b900460ff161561047157600080fd5b600580549060006104818361065e565b90915550506005546003805466ff00000000000019169115600160301b02919091179055565b60035462010000900460ff16156104bd57600080fd5b6003805462ff0000191662010000179055565b600354640100000000900460ff16156104e857600080fd5b600480549060006104f88361065e565b90915550506004546003805464ff000000001916911564010000000002919091179055565b600354610100900460ff161561053257600080fd5b6003805461ff001916610100179055565b600354600090640100000000900460ff16158061056a5750600354600160301b900460ff16155b8061057f5750600354600160281b900460ff16155b8061059457506003546301000000900460ff16155b806105a8575060035462010000900460ff16155b806105bb5750600354610100900460ff16155b156105c65750600090565b50600190565b6000602080830181845280855180835260408601915060408160051b87010192508387016000805b8381101561065057888603603f1901855282518051808852835b81811015610629578281018a01518982018b0152890161060e565b508781018901849052601f01601f19169096018701955093860193918601916001016105f4565b509398975050505050505050565b60008161067b57634e487b7160e01b600052601160045260246000fd5b506000190190565b600181811c9082168061069757607f821691505b6020821081036106b757634e487b7160e01b600052602260045260246000fd5b5091905056fea26469706673582212201addd6ce09df533c47698666d40c6a23fc1529374cf4e1fe3cfe8b410db5086964736f6c63430008110033",
  "immutableReferences": {},
  "source": "// SPDX-Licence-Identifier: UNLICENSED\r\npragma solidity ^0.8.0;\r\n\r\ncontract Votante {\r\n    uint studentId;\r\n    string[] carreras;\r\n    string[] facultades;\r\n    bool voted;\r\n    bool votedConsejoAcademico;\r\n    bool votedJuntaDirectivaFCE;\r\n    bool votedCoordinacionFCE;\r\n    bool votedCentroEstudiantes;\r\n    bool votedConsejoEscuela;\r\n    bool votedConsejoFacultad;\r\n    uint numeroVotosCentroEst;\r\n    uint numeroVotosCF;\r\n    uint numeroVotosCE;\r\n\r\n    constructor (uint _id, string[] memory _carreras, string[] memory _facultades) {\r\n        studentId = _id;\r\n        carreras = _carreras;\r\n        facultades = _facultades;\r\n        voted = false;\r\n        votedConsejoAcademico = false;\r\n        votedJuntaDirectivaFCE = false;\r\n        votedCoordinacionFCE = false;\r\n        votedCentroEstudiantes = false;\r\n        votedConsejoEscuela = false;\r\n        votedConsejoFacultad = false;\r\n        numeroVotosCentroEst = carreras.length;\r\n        numeroVotosCE = carreras.length;\r\n        numeroVotosCF = facultades.length;\r\n    }\r\n\r\n    function getID() public view returns (uint) {\r\n        return studentId;\r\n    }\r\n\r\n    function getCarreras() public view returns (string[] memory) {\r\n        return carreras;\r\n    }\r\n\r\n    function getFacultades() public view returns (string[] memory) {\r\n        return facultades;\r\n    }\r\n\r\n    function getVoted() public view returns (bool) {\r\n        if (!getVotedCentroEstudiantes() || !getVotedConsejoFacultad() || !getVotedConsejoEscuela() || !getVotedCoordinacionFCE() || !getVotedJuntaDirectivaFCE() || !getVotedConsejoAcademico()) {\r\n            return false;\r\n        }\r\n        return true;\r\n    }\r\n\r\n    function getVotedConsejoAcademico() public view returns (bool) {\r\n        return votedConsejoAcademico;\r\n    }\r\n\r\n    function getVotedJuntaDirectivaFCE() public view returns (bool) {\r\n        return votedJuntaDirectivaFCE;\r\n    }\r\n\r\n    function getVotedCoordinacionFCE() public view returns (bool) {\r\n        return votedCoordinacionFCE;\r\n    }\r\n\r\n    function getVotedCentroEstudiantes() public view returns (bool) {\r\n        return votedCentroEstudiantes;\r\n    }\r\n\r\n    function getVotedConsejoEscuela() public view returns (bool) {\r\n        return votedConsejoEscuela;\r\n    }\r\n\r\n    function getVotedConsejoFacultad() public view returns (bool) {\r\n        return votedConsejoFacultad;\r\n    }\r\n\r\n    function getNumeroVotosCentroEst() public view returns (uint) {\r\n        return numeroVotosCentroEst;\r\n    }\r\n\r\n    function getNumeroVotosCF() public view returns (uint) {\r\n        return numeroVotosCF;\r\n    }\r\n\r\n    function getNumeroVotosCE() public view returns (uint) {\r\n        return numeroVotosCE;\r\n    }\r\n\r\n    function votarConsejoAcademico() public {\r\n        require(!votedConsejoAcademico);\r\n        votedConsejoAcademico = true;\r\n    }\r\n\r\n    function votarJuntaDirectivaFCE() public {\r\n        require(!votedJuntaDirectivaFCE);\r\n        votedJuntaDirectivaFCE = true;\r\n    }\r\n\r\n    function votarCoordinacionFCE() public {\r\n        require(!votedCoordinacionFCE);\r\n        votedCoordinacionFCE = true;\r\n    }\r\n\r\n    function votarCentroEstudiantes() public {\r\n        require(!votedCentroEstudiantes);\r\n        numeroVotosCentroEst--;\r\n        votedCentroEstudiantes = numeroVotosCentroEst == 0;\r\n    }\r\n\r\n    function votarConsejoEscuela() public {\r\n        require(!votedConsejoEscuela);\r\n        numeroVotosCE--;\r\n        votedConsejoEscuela = numeroVotosCE == 0;\r\n    }\r\n\r\n    function votarConsejoFacultad() public {\r\n        require(!votedConsejoFacultad);\r\n        numeroVotosCF--;\r\n        votedConsejoFacultad = numeroVotosCF == 0;\r\n    }\r\n\r\n    function canVote() public view returns (bool) {\r\n        return !voted;\r\n    }\r\n}",
  "sourcePath": "C:\\Users\\Jose Rubin\\Desktop\\Chainge\\chainge_voting_dapp\\smart_contract\\contracts\\Votante.sol",
  "compiler": {
    "name": "solc",
    "version": "0.8.17+commit.8df45f5f.Emscripten.clang"
  },
  "schemaVersion": "3.4.10",
  "updatedAt": "2022-11-17T21:32:49.005Z",
  "devdoc": {
    "kind": "dev",
    "methods": {},
    "version": 1
  },
  "userdoc": {
    "kind": "user",
    "methods": {},
    "version": 1
  }
}