{
  "contractName": "Votante",
  "abi": [
    {
      "inputs": [
        {
          "internalType": "uint256",
          "name": "_id",
          "type": "uint256"
        },
        {
          "internalType": "string[]",
          "name": "_carreras",
          "type": "string[]"
        },
        {
          "internalType": "string[]",
          "name": "_facultades",
          "type": "string[]"
        }
      ],
      "stateMutability": "nonpayable",
      "type": "constructor"
    },
    {
      "inputs": [],
      "name": "getID",
      "outputs": [
        {
          "internalType": "uint256",
          "name": "",
          "type": "uint256"
        }
      ],
      "stateMutability": "view",
      "type": "function"
    },
    {
      "inputs": [],
      "name": "getCarreras",
      "outputs": [
        {
          "internalType": "string[]",
          "name": "",
          "type": "string[]"
        }
      ],
      "stateMutability": "view",
      "type": "function"
    },
    {
      "inputs": [],
      "name": "getFacultades",
      "outputs": [
        {
          "internalType": "string[]",
          "name": "",
          "type": "string[]"
        }
      ],
      "stateMutability": "view",
      "type": "function"
    },
    {
      "inputs": [],
      "name": "getVoted",
      "outputs": [
        {
          "internalType": "bool",
          "name": "",
          "type": "bool"
        }
      ],
      "stateMutability": "view",
      "type": "function"
    },
    {
      "inputs": [],
      "name": "getVotedConsejoAcademico",
      "outputs": [
        {
          "internalType": "bool",
          "name": "",
          "type": "bool"
        }
      ],
      "stateMutability": "view",
      "type": "function"
    },
    {
      "inputs": [],
      "name": "getVotedJuntaDirectivaFCE",
      "outputs": [
        {
          "internalType": "bool",
          "name": "",
          "type": "bool"
        }
      ],
      "stateMutability": "view",
      "type": "function"
    },
    {
      "inputs": [],
      "name": "getVotedCoordinacionFCE",
      "outputs": [
        {
          "internalType": "bool",
          "name": "",
          "type": "bool"
        }
      ],
      "stateMutability": "view",
      "type": "function"
    },
    {
      "inputs": [],
      "name": "getVotedCentroEstudiantes",
      "outputs": [
        {
          "internalType": "bool",
          "name": "",
          "type": "bool"
        }
      ],
      "stateMutability": "view",
      "type": "function"
    },
    {
      "inputs": [],
      "name": "getVotedConsejoEscuela",
      "outputs": [
        {
          "internalType": "bool",
          "name": "",
          "type": "bool"
        }
      ],
      "stateMutability": "view",
      "type": "function"
    },
    {
      "inputs": [],
      "name": "getVotedConsejoFacultad",
      "outputs": [
        {
          "internalType": "bool",
          "name": "",
          "type": "bool"
        }
      ],
      "stateMutability": "view",
      "type": "function"
    },
    {
      "inputs": [],
      "name": "getNumeroVotosCentroEst",
      "outputs": [
        {
          "internalType": "uint256",
          "name": "",
          "type": "uint256"
        }
      ],
      "stateMutability": "view",
      "type": "function"
    },
    {
      "inputs": [],
      "name": "getNumeroVotosCF",
      "outputs": [
        {
          "internalType": "uint256",
          "name": "",
          "type": "uint256"
        }
      ],
      "stateMutability": "view",
      "type": "function"
    },
    {
      "inputs": [],
      "name": "getNumeroVotosCE",
      "outputs": [
        {
          "internalType": "uint256",
          "name": "",
          "type": "uint256"
        }
      ],
      "stateMutability": "view",
      "type": "function"
    },
    {
      "inputs": [],
      "name": "votarConsejoAcademico",
      "outputs": [],
      "stateMutability": "nonpayable",
      "type": "function"
    },
    {
      "inputs": [],
      "name": "votarJuntaDirectivaFCE",
      "outputs": [],
      "stateMutability": "nonpayable",
      "type": "function"
    },
    {
      "inputs": [],
      "name": "votarCoordinacionFCE",
      "outputs": [],
      "stateMutability": "nonpayable",
      "type": "function"
    },
    {
      "inputs": [],
      "name": "votarCentroEstudiantes",
      "outputs": [],
      "stateMutability": "nonpayable",
      "type": "function"
    },
    {
      "inputs": [],
      "name": "votarConsejoEscuela",
      "outputs": [],
      "stateMutability": "nonpayable",
      "type": "function"
    },
    {
      "inputs": [],
      "name": "votarConsejoFacultad",
      "outputs": [],
      "stateMutability": "nonpayable",
      "type": "function"
    },
    {
      "inputs": [],
      "name": "canVote",
      "outputs": [
        {
          "internalType": "bool",
          "name": "",
          "type": "bool"
        }
      ],
      "stateMutability": "view",
      "type": "function"
    }
  ],
  "bytecode": "0x60806040523480156200001157600080fd5b5060405162000df838038062000df88339810160408190526200003491620002cd565b600083905581516200004e9060019060208501906200008f565b508051620000649060029060208401906200008f565b50506003805466ffffffffffffff19169055505060015460048190556006556002546005556200049c565b828054828255906000526020600020908101928215620000da579160200282015b82811115620000da5782518290620000c99082620003d0565b5091602001919060010190620000b0565b50620000e8929150620000ec565b5090565b80821115620000e85760006200010382826200010d565b50600101620000ec565b5080546200011b9062000341565b6000825580601f106200012c575050565b601f0160209004906000526020600020908101906200014c91906200014f565b50565b5b80821115620000e8576000815560010162000150565b634e487b7160e01b600052604160045260246000fd5b604051601f8201601f191681016001600160401b0381118282101715620001a757620001a762000166565b604052919050565b6000601f8381840112620001c257600080fd5b825160206001600160401b0380831115620001e157620001e162000166565b8260051b620001f28382016200017c565b93845286810183019383810190898611156200020d57600080fd5b84890192505b85831015620002c0578251848111156200022d5760008081fd5b8901603f81018b13620002405760008081fd5b858101518581111562000257576200025762000166565b6200026a818a01601f191688016200017c565b81815260408d81848601011115620002825760008081fd5b60005b83811015620002a2578481018201518382018b0152890162000285565b50506000918101880191909152835250918401919084019062000213565b9998505050505050505050565b600080600060608486031215620002e357600080fd5b835160208501519093506001600160401b03808211156200030357600080fd5b6200031187838801620001af565b935060408601519150808211156200032857600080fd5b506200033786828701620001af565b9150509250925092565b600181811c908216806200035657607f821691505b6020821081036200037757634e487b7160e01b600052602260045260246000fd5b50919050565b601f821115620003cb57600081815260208120601f850160051c81016020861015620003a65750805b601f850160051c820191505b81811015620003c757828155600101620003b2565b5050505b505050565b81516001600160401b03811115620003ec57620003ec62000166565b6200040481620003fd845462000341565b846200037d565b602080601f8311600181146200043c5760008415620004235750858301515b600019600386901b1c1916600185901b178555620003c7565b600085815260208120601f198616915b828110156200046d578886015182559484019460019091019084016200044c565b50858210156200048c5787850151600019600388901b60f8161c191681555b5050505050600190811b01905550565b61094c80620004ac6000396000f3fe608060405234801561001057600080fd5b506004361061012c5760003560e01c80636c6bd0f3116100ad578063a69799fc11610071578063a69799fc14610208578063ab9dbd0714610213578063bcd75c531461021b578063ec58caf814610223578063f79f21101461022b57600080fd5b80636c6bd0f3146101d65780637da34244146101de57806391a10b01146101e657806391b14753146101ee57806397e8cff91461020057600080fd5b8063476abce6116100f4578063476abce6146101835780634a51ede3146101955780635ac952f2146101aa57806361a69587146101bc57806364debb8f146101c457600080fd5b8063159e7064146101315780632b4af7a31461014e5780633174149a1461016057806335fc1ece1461016a57806344cd1b2114610172575b600080fd5b60035460ff16155b60405190151581526020015b60405180910390f35b6003546301000000900460ff16610139565b61016861023b565b005b61016861030b565b60035462010000900460ff16610139565b600354600160201b900460ff16610139565b61019d6103b0565b6040516101459190610825565b600354600160301b900460ff16610139565b61019d610489565b600354600160281b900460ff16610139565b610168610559565b610168610620565b6101686106c2565b6004545b604051908152602001610145565b610168610787565b60035460ff16610139565b6000546101f2565b6005546101f2565b6006546101f2565b600354610100900460ff16610139565b600354600160281b900460ff161561025257600080fd5b60068054906000610262836108b7565b90915550506006546003805465ff000000000019169115600160281b02919091179081905560ff6101009091041680156102a4575060035462010000900460ff165b80156102b957506003546301000000900460ff165b80156102ce5750600354600160201b900460ff165b80156102e35750600354600160281b900460ff165b80156102f85750600354600160301b900460ff165b6003805460ff1916911515919091179055565b6003546301000000900460ff161561032257600080fd5b6003805463ff000000191663010000001790819055610100900460ff1680156102a4575060035462010000900460ff1680156102b957506003546301000000900460ff1680156102ce5750600354600160201b900460ff1680156102e35750600354600160281b900460ff1680156102f857506003805460ff198116600160301b90910460ff161515179055565b60606002805480602002602001604051908101604052809291908181526020016000905b828210156104805783829060005260206000200180546103f3906108dc565b80601f016020809104026020016040519081016040528092919081815260200182805461041f906108dc565b801561046c5780601f106104415761010080835404028352916020019161046c565b820191906000526020600020905b81548152906001019060200180831161044f57829003601f168201915b5050505050815260200190600101906103d4565b50505050905090565b60606001805480602002602001604051908101604052809291908181526020016000905b828210156104805783829060005260206000200180546104cc906108dc565b80601f01602080910402602001604051908101604052809291908181526020018280546104f8906108dc565b80156105455780601f1061051a57610100808354040283529160200191610545565b820191906000526020600020905b81548152906001019060200180831161052857829003601f168201915b5050505050815260200190600101906104ad565b600354600160301b900460ff161561057057600080fd5b60058054906000610580836108b7565b90915550506005546003805466ff00000000000019169115600160301b02919091179081905560ff6101009091041680156102a4575060035462010000900460ff1680156102b957506003546301000000900460ff1680156102ce5750600354600160201b900460ff1680156102e35750600354600160281b900460ff1680156102f857506003805460ff198116600160301b90910460ff161515179055565b60035462010000900460ff161561063657600080fd5b6003805462ff00001916620100001790819055610100900460ff1680156102a4575060035462010000900460ff1680156102b957506003546301000000900460ff1680156102ce5750600354600160201b900460ff1680156102e35750600354600160281b900460ff1680156102f857506003805460ff198116600160301b90910460ff161515179055565b600354600160201b900460ff16156106d957600080fd5b600480549060006106e9836108b7565b90915550506004546003805464ff0000000019169115600160201b02919091179081905560ff6101009091041680156102a4575060035462010000900460ff1680156102b957506003546301000000900460ff1680156102ce5750600354600160201b900460ff1680156102e35750600354600160281b900460ff1680156102f857506003805460ff198116600160301b90910460ff161515179055565b600354610100900460ff161561079c57600080fd5b6003805461ff00191661010090811791829055900460ff1680156102a4575060035462010000900460ff1680156102b957506003546301000000900460ff1680156102ce5750600354600160201b900460ff1680156102e35750600354600160281b900460ff1680156102f857506003805460ff198116600160301b90910460ff161515179055565b6000602080830181845280855180835260408601915060408160051b87010192508387016000805b838110156108a957888603603f1901855282518051808852835b81811015610882578281018a01518982018b01528901610867565b508781018901849052601f01601f191690960187019550938601939186019160010161084d565b509398975050505050505050565b6000816108d457634e487b7160e01b600052601160045260246000fd5b506000190190565b600181811c908216806108f057607f821691505b60208210810361091057634e487b7160e01b600052602260045260246000fd5b5091905056fea26469706673582212202f769e7c3894ee69068fcd050be83e68db206605b184ee18937cb7e2014f944f64736f6c63430008110033",
  "immutableReferences": {},
  "source": "// SPDX-Licence-Identifier: UNLICENSED\npragma solidity ^0.8.0;\n\ncontract Votante {\n    uint studentId;\n    string[] carreras;\n    string[] facultades;\n    bool voted;\n    bool votedConsejoAcademico;\n    bool votedJuntaDirectivaFCE;\n    bool votedCoordinacionFCE;\n    bool votedCentroEstudiantes;\n    bool votedConsejoEscuela;\n    bool votedConsejoFacultad;\n    uint numeroVotosCentroEst;\n    uint numeroVotosCF;\n    uint numeroVotosCE;\n\n    constructor (uint _id, string[] memory _carreras, string[] memory _facultades) {\n        studentId = _id;\n        carreras = _carreras;\n        facultades = _facultades;\n        voted = false;\n        votedConsejoAcademico = false;\n        votedJuntaDirectivaFCE = false;\n        votedCoordinacionFCE = false;\n        votedCentroEstudiantes = false;\n        votedConsejoEscuela = false;\n        votedConsejoFacultad = false;\n        numeroVotosCentroEst = carreras.length;\n        numeroVotosCE = carreras.length;\n        numeroVotosCF = facultades.length;\n    }\n\n    function getID() public view returns (uint) {\n        return studentId;\n    }\n\n    function getCarreras() public view returns (string[] memory) {\n        return carreras;\n    }\n\n    function getFacultades() public view returns (string[] memory) {\n        return facultades;\n    }\n\n    function getVoted() public view returns (bool) {\n        return voted;\n    }\n\n    function getVotedConsejoAcademico() public view returns (bool) {\n        return votedConsejoAcademico;\n    }\n\n    function getVotedJuntaDirectivaFCE() public view returns (bool) {\n        return votedJuntaDirectivaFCE;\n    }\n\n    function getVotedCoordinacionFCE() public view returns (bool) {\n        return votedCoordinacionFCE;\n    }\n\n    function getVotedCentroEstudiantes() public view returns (bool) {\n        return votedCentroEstudiantes;\n    }\n\n    function getVotedConsejoEscuela() public view returns (bool) {\n        return votedConsejoEscuela;\n    }\n\n    function getVotedConsejoFacultad() public view returns (bool) {\n        return votedConsejoFacultad;\n    }\n\n    function getNumeroVotosCentroEst() public view returns (uint) {\n        return numeroVotosCentroEst;\n    }\n\n    function getNumeroVotosCF() public view returns (uint) {\n        return numeroVotosCF;\n    }\n\n    function getNumeroVotosCE() public view returns (uint) {\n        return numeroVotosCE;\n    }\n\n    function votarConsejoAcademico() public {\n        require(!votedConsejoAcademico);\n        votedConsejoAcademico = true;\n        voted = votedConsejoAcademico && votedJuntaDirectivaFCE && votedCoordinacionFCE && votedCentroEstudiantes && votedConsejoEscuela && votedConsejoFacultad;\n    }\n\n    function votarJuntaDirectivaFCE() public {\n        require(!votedJuntaDirectivaFCE);\n        votedJuntaDirectivaFCE = true;\n        voted = votedConsejoAcademico && votedJuntaDirectivaFCE && votedCoordinacionFCE && votedCentroEstudiantes && votedConsejoEscuela && votedConsejoFacultad;\n    }\n\n    function votarCoordinacionFCE() public {\n        require(!votedCoordinacionFCE);\n        votedCoordinacionFCE = true;\n        voted = votedConsejoAcademico && votedJuntaDirectivaFCE && votedCoordinacionFCE && votedCentroEstudiantes && votedConsejoEscuela && votedConsejoFacultad;\n    }\n\n    function votarCentroEstudiantes() public {\n        require(!votedCentroEstudiantes);\n        numeroVotosCentroEst--;\n        votedCentroEstudiantes = numeroVotosCentroEst == 0;\n        voted = votedConsejoAcademico && votedJuntaDirectivaFCE && votedCoordinacionFCE && votedCentroEstudiantes && votedConsejoEscuela && votedConsejoFacultad;\n    }\n\n    function votarConsejoEscuela() public {\n        require(!votedConsejoEscuela);\n        numeroVotosCE--;\n        votedConsejoEscuela = numeroVotosCE == 0;\n        voted = votedConsejoAcademico && votedJuntaDirectivaFCE && votedCoordinacionFCE && votedCentroEstudiantes && votedConsejoEscuela && votedConsejoFacultad;\n    }\n\n    function votarConsejoFacultad() public {\n        require(!votedConsejoFacultad);\n        numeroVotosCF--;\n        votedConsejoFacultad = numeroVotosCF == 0;\n        voted = votedConsejoAcademico && votedJuntaDirectivaFCE && votedCoordinacionFCE && votedCentroEstudiantes && votedConsejoEscuela && votedConsejoFacultad;\n    }\n\n    function canVote() public view returns (bool) {\n        return !voted;\n    }\n}",
  "sourcePath": "/Users/abert/Desktop/chainge_voting_dapp/smart_contract/contracts/Votante.sol",
  "compiler": {
    "name": "solc",
    "version": "0.8.17+commit.8df45f5f.Emscripten.clang"
  },
  "schemaVersion": "3.4.10",
  "updatedAt": "2022-11-16T17:38:18.265Z",
  "devdoc": {
    "kind": "dev",
    "methods": {},
    "version": 1
  },
  "userdoc": {
    "kind": "user",
    "methods": {},
    "version": 1
  }
}